{
	"data": {
		"bytecode": {
			"linkReferences": {},
			"object": "60a06040523060805234801562000014575f80fd5b506200001f62000025565b620000d9565b7ff0c57e16840df040f15088dc2f81fe391c3923bec73e23a9662efc9c229c6a00805468010000000000000000900460ff1615620000765760405163f92ee8a960e01b815260040160405180910390fd5b80546001600160401b0390811614620000d65780546001600160401b0319166001600160401b0390811782556040519081527fc7f505b2f371ae2175ee4913f4499e1f2633a7b5936321eed1cdaeb6115181d29060200160405180910390a15b50565b608051613694620001005f395f81816122330152818161225c01526123a001526136945ff3fe608060405260043610610147575f3560e01c80636bf5d216116100b35780639fa6cced1161006d5780639fa6cced1461043d578063a7ccabdf1461045c578063ad3cb1cc1461047b578063eb2b94b5146104b8578063f2fde38b146104e5578063ff9c08fa14610504575f80fd5b80636bf5d2161461037a578063715018a6146103995780638129fc1c146103ad5780638456cb59146103c15780638da5cb5b146103d55780639649f75e14610411575f80fd5b80633f4ba83a116101045780633f4ba83a146102d357806343b3a7ec146102e75780634f1ef2861461030657806352d1902d1461031957806354d8f6321461032d5780635c975abb1461034c575f80fd5b806308ec6c3c1461014b57806319a8903c1461016c5780631af02e5b146101aa578063262e3ec3146101e05780632c8fe5261461021757806331c2273b146102b5575b5f80fd5b348015610156575f80fd5b5061016a610165366004612978565b610519565b005b348015610177575f80fd5b50610197610186366004612993565b60056020525f908152604090205481565b6040519081526020015b60405180910390f35b3480156101b5575f80fd5b506101c96101c43660046129aa565b61058f565b6040516101a19b9a99989796959493929190612b16565b3480156101eb575f80fd5b506001546101ff906001600160a01b031681565b6040516001600160a01b0390911681526020016101a1565b348015610222575f80fd5b50610278610231366004612993565b600260208190525f91825260409091208054600182015492820154600383015460048401546005850154600686015460089096015494969593949293919290919060ff1688565b604080519889526020890197909752958701949094526060860192909252608085015260a084015260c0830152151560e0820152610100016101a1565b3480156102c0575f80fd5b505f546101ff906001600160a01b031681565b3480156102de575f80fd5b5061016a610772565b3480156102f2575f80fd5b5061016a610301366004612f2f565b610784565b61016a610314366004612f72565b6109d3565b348015610324575f80fd5b506101976109f2565b348015610338575f80fd5b5061016a6103473660046129aa565b610a0d565b348015610357575f80fd5b505f8051602061363f8339815191525460ff1660405190151581526020016101a1565b348015610385575f80fd5b5061016a610394366004613013565b611225565b3480156103a4575f80fd5b5061016a611723565b3480156103b8575f80fd5b5061016a611734565b3480156103cc575f80fd5b5061016a611857565b3480156103e0575f80fd5b507f9016d09d72d40fdae2fd8ceac6b6234c7706214fd39c1cd1e609a0528c199300546001600160a01b03166101ff565b34801561041c575f80fd5b5061043061042b36600461305e565b611867565b6040516101a19190613136565b348015610448575f80fd5b5061016a610457366004613198565b611c5d565b348015610467575f80fd5b5061016a610476366004612978565b611f17565b348015610486575f80fd5b506104ab604051806040016040528060058152602001640352e302e360dc1b81525081565b6040516101a19190613244565b3480156104c3575f80fd5b506104d76104d2366004612993565b611f87565b6040516101a1929190613276565b3480156104f0575f80fd5b5061016a6104ff366004612978565b612131565b34801561050f575f80fd5b5061019760035481565b61052161216e565b6001600160a01b03811661056d5760405162461bcd60e51b815260206004820152600e60248201526d10d85b9b9bdd081899481b9d5b1b60921b60448201526064015b60405180910390fd5b600180546001600160a01b0319166001600160a01b0392909216919091179055565b6004602052815f5260405f2081815481106105a8575f80fd5b905f5260205f2090602202015f9150915050805f01549080600101549080600201604051806101200160405290815f82015481526020016001820154815260200160028201548152602001600382015481526020016004820154815260200160058201548152602001600682015481526020016007820180548060200260200160405190810160405280929190818152602001828054801561066757602002820191905f5260205f20905b815481526020019060010190808311610653575b50505050508152602001600882015f9054906101000a900460ff1615151515815250509080600b016040518060e00160405290815f820154815260200160018201548152602001600282015481526020016003820154815260200160048201548152602001600582015481526020016006820154815250509080601201604051806101200160405290815f8201548152602001600182015481526020016002820154815260200160038201548152602001600482015481526020016005820154815260200160068201548152602001600782015481526020016008820154815250509080601b01549080601c01549080601d01549080601e01549080601f015490806020015490508b565b61077a61216e565b6107826121c9565b565b5f546001600160a01b031633146107ce5760405162461bcd60e51b815260206004820152600e60248201526d139bdd08185d5d1a1bdc9a5e995960921b6044820152606401610564565b5f8281526004602081815260408084208054600181810183559186529483902086516022909602019485558583015190850155848101518051600286019081558184015160038701559181015193850193909355606083015160058501556080830151600685015560a0830151600785015560c0830151600885015560e08301518051869594936108669260098701929101906127e7565b5061010091820151600891909101805460ff19169115159190911790556060838101518051600b850155602080820151600c860155604080830151600d87015582840151600e870155608080840151600f88015560a080850151601089015560c094850151601189015581890151805160128a01558085015160138a0155928301516014890155948201516015880155810151601687015580840151601787015580830151601887015560e080820151601988015590850151601a87015592860151601b86015590850151601c85015590840151601d84015590830151601e830155610120830151601f83015561014083015181830155610160830151805161097592602185019201906127e7565b5050505f828152600560205260408120805491610991836132df565b91905055507ff869a4dd5a4100240d978998cde06cdf6886f0bde8aa46f98db63e2f01fd19d382826040516109c79291906132f7565b60405180910390a15050565b6109db612228565b6109e4826122cc565b6109ee82826122d4565b5050565b5f6109fb612395565b505f8051602061361f83398151915290565b610a156123de565b610a1d61240e565b5f546040516331a9108f60e11b8152600481018390526001600160a01b0390911690636352211e90602401602060405180830381865afa158015610a63573d5f803e3d5ffd5b505050506040513d601f19601f82011682018060405250810190610a879190613317565b6001600160a01b0316336001600160a01b031614610ad75760405162461bcd60e51b815260206004820152600d60248201526c2737ba103a34329037bbb732b960991b6044820152606401610564565b5f80610ae284611f87565b91509150816101000151610b295760405162461bcd60e51b815260206004820152600e60248201526d135a5cdcda5bdb8810db1bdcd95960921b6044820152606401610564565b6001546040516309fc2d6760e11b8152600481018590525f9182916001600160a01b03909116906313f85ace9060240160e060405180830381865afa158015610b74573d5f803e3d5ffd5b505050506040513d601f19601f82011682018060405250810190610b989190613392565b60015460405163044f261560e11b8152600481018890529192505f916001600160a01b039091169063089e4c2a9060240161012060405180830381865afa158015610be5573d5f803e3d5ffd5b505050506040513d601f19601f82011682018060405250810190610c099190613423565b60015460405163f61fa45360e01b81529192506001600160a01b03169063f61fa45390610c3c908590859060040161343e565b610200604051808303815f875af1158015610c59573d5f803e3d5ffd5b505050506040513d601f19601f82011682018060405250810190610c7d919061345a565b60c08201519193509150600114610ccd5760405162461bcd60e51b815260206004820152601460248201527321b0b73737ba1029ba30b93a1026b4b9b9b4b7b760611b6044820152606401610564565b846040015181604001511015610d195760405162461bcd60e51b81526020600482015260116024820152704e6f7420656e6f75676820656e6572677960781b6044820152606401610564565b846040015181604001818151610d2f919061348e565b905250600260c083015260015460405163f6cac63f60e01b81526001600160a01b039091169063f6cac63f90610d6d908990869086906004016134a1565b5f604051808303815f87803b158015610d84575f80fd5b505af1158015610d96573d5f803e3d5ffd5b505050505f5b8451811015610dd557825f0151858281518110610dbb57610dbb6134c4565b602002602001015103610dcd57600193505b600101610d9c565b5083511580610de15750825b610e3d5760405162461bcd60e51b815260206004820152602760248201527f4e465420636c617373206e6f7420656c696769626c6520666f7220746869732060448201526636b4b9b9b4b7b760c91b6064820152608401610564565b5f6040518060e00160405280845f01518152602001846020015181526020018460400151815260200184606001518152602001846080015181526020018460a0015181526020018460c0015181525090505f604051806101200160405280845f01518152602001846020015181526020018460400151815260200184606001518152602001846080015181526020018460a0015181526020018460c0015181526020018460e00151815260200184610100015181525090505f604051806101200160405280895f01518152602001896020015181526020018960400151815260200189606001518152602001896080015181526020018960a0015181526020018960c001518152602001888152602001896101000151151581525090505f6040518061018001604052808b81526020018c81526020018381526020018581526020018481526020014281526020015f81526020015f8152602001600181526020015f81526020015f81526020015f6001600160401b03811115610fc257610fc2612b8d565b604051908082528060200260200182016040528015610feb578160200160208202803683370190505b5090525f8b81526004602081815260408084208054600181810183559186529483902086516022909602019485558286015190850155808501518051600286019081558184015160038701559181015193850193909355606083015160058501556080830151600685015560a0830151600785015560c0830151600885015560e083015180519596508695919261108a926009870192909101906127e7565b5061010091820151600891909101805460ff19169115159190911790556060838101518051600b850155602080820151600c860155604080830151600d87015582840151600e870155608080840151600f88015560a080850151601089015560c094850151601189015581890151805160128a01558085015160138a0155928301516014890155948201516015880155810151601687015580840151601787015580830151601887015560e080820151601988015590850151601a87015592860151601b86015590850151601c85015590840151601d84015590830151601e830155610120830151601f83015561014083015181830155610160830151805161119992602185019201906127e7565b5050505f8a81526005602052604081208054916111b5836132df565b91905055507ff869a4dd5a4100240d978998cde06cdf6886f0bde8aa46f98db63e2f01fd19d38a826040516111eb9291906132f7565b60405180910390a15050505050505050506109ee60017f9b779b17422d0df92223018b32b4d1fa46e071723d6817e2486d003becc55f0055565b5f546001600160a01b0316331461126f5760405162461bcd60e51b815260206004820152600e60248201526d139bdd08185d5d1a1bdc9a5e995960921b6044820152606401610564565b5f8381526005602052604090205482106112b95760405162461bcd60e51b815260206004820152600b60248201526a10d85b9b9bdd08199a5b9960aa1b6044820152606401610564565b5f8381526004602052604081208054849081106112d8576112d86134c4565b905f5260205f209060220201604051806101800160405290815f82015481526020016001820154815260200160028201604051806101200160405290815f8201548152602001600182015481526020016002820154815260200160038201548152602001600482015481526020016005820154815260200160068201548152602001600782018054806020026020016040519081016040528092919081815260200182805480156113a657602002820191905f5260205f20905b815481526020019060010190808311611392575b50505050508152602001600882015f9054906101000a900460ff1615151515815250508152602001600b82016040518060e00160405290815f82015481526020016001820154815260200160028201548152602001600382015481526020016004820154815260200160058201548152602001600682015481525050815260200160128201604051806101200160405290815f8201548152602001600182015481526020016002820154815260200160038201548152602001600482015481526020016005820154815260200160068201548152602001600782015481526020016008820154815250508152602001601b8201548152602001601c8201548152602001601d8201548152602001601e8201548152602001601f8201548152602001602082015481526020016021820180548060200260200160405190810160405280929190818152602001828054801561151d57602002820191905f5260205f20905b815481526020019060010190808311611509575b50505050508152505090508160045f8681526020019081526020015f20848154811061154b5761154b6134c4565b5f9182526020918290208351602290920201908155828201516001820155604080840151805160028401908155818501516003850155918101516004840155606081015160058401556080810151600684015560a0810151600784015560c0810151600884015560e08101518051939491936115cd92600987019201906127e7565b5061010091820151600891909101805460ff19169115159190911790556060838101518051600b850155602080820151600c860155604080830151600d87015582840151600e870155608080840151600f88015560a080850151601089015560c094850151601189015581890151805160128a01558085015160138a0155928301516014890155948201516015880155810151601687015580840151601787015580830151601887015560e080820151601988015590850151601a87015592860151601b86015590850151601c85015590840151601d84015590830151601e830155610120830151601f8301556101408301518183015561016083015180516116dc92602185019201906127e7565b509050507f444142d28d04b5c8ad1133bcaead1c674d76e23dab3c34510c64f69d66ec39f48484838560405161171594939291906134d8565b60405180910390a150505050565b61172b61216e565b6107825f61247e565b7ff0c57e16840df040f15088dc2f81fe391c3923bec73e23a9662efc9c229c6a008054600160401b810460ff1615906001600160401b03165f811580156117785750825b90505f826001600160401b031660011480156117935750303b155b9050811580156117a1575080155b156117bf5760405163f92ee8a960e01b815260040160405180910390fd5b845467ffffffffffffffff1916600117855583156117e957845460ff60401b1916600160401b1785555b6117f16124ee565b6117fa336124fe565b61180261250f565b61180a612517565b831561185057845460ff60401b19168555604051600181527fc7f505b2f371ae2175ee4913f4499e1f2633a7b5936321eed1cdaeb6115181d29060200160405180910390a15b5050505050565b61185f61216e565b610782612527565b5f83815260056020526040902054606090821061189b575f848152600560205260409020546118989060019061348e565b91505b5f848152600560205260408120546001600160401b038111156118c0576118c0612b8d565b6040519080825280602002602001820160405280156118f957816020015b6118e6612830565b8152602001906001900390816118de5790505b5090505f845b848111611bb1575f878152600460205260409020805482908110611925576119256134c4565b905f5260205f209060220201604051806101800160405290815f82015481526020016001820154815260200160028201604051806101200160405290815f8201548152602001600182015481526020016002820154815260200160038201548152602001600482015481526020016005820154815260200160068201548152602001600782018054806020026020016040519081016040528092919081815260200182805480156119f357602002820191905f5260205f20905b8154815260200190600101908083116119df575b50505050508152602001600882015f9054906101000a900460ff1615151515815250508152602001600b82016040518060e00160405290815f82015481526020016001820154815260200160028201548152602001600382015481526020016004820154815260200160058201548152602001600682015481525050815260200160128201604051806101200160405290815f8201548152602001600182015481526020016002820154815260200160038201548152602001600482015481526020016005820154815260200160068201548152602001600782015481526020016008820154815250508152602001601b8201548152602001601c8201548152602001601d8201548152602001601e8201548152602001601f82015481526020016020820154815260200160218201805480602002602001604051908101604052809291908181526020018280548015611b6a57602002820191905f5260205f20905b815481526020019060010190808311611b56575b505050505081525050838381518110611b8557611b856134c4565b60200260200101819052508180611b9b906132df565b9250508080611ba9906132df565b9150506118ff565b505f816001600160401b03811115611bcb57611bcb612b8d565b604051908082528060200260200182016040528015611c0457816020015b611bf1612830565b815260200190600190039081611be95790505b5090505f5b82811015611c5057838181518110611c2357611c236134c4565b6020026020010151828281518110611c3d57611c3d6134c4565b6020908102919091010152600101611c09565b50925050505b9392505050565b611c6561216e565b5f8911611cc05760405162461bcd60e51b8152602060048201526024808201527f4d697373696f6e204944206d7573742062652067726561746572207468616e206044820152637a65726f60e01b6064820152608401610564565b600354611cce906001613508565b891115611d295760405162461bcd60e51b8152602060048201526024808201527f4d697373696f6e2049442065786365656473206e65787420617661696c61626c6044820152631948125160e21b6064820152608401610564565b6003548911611dda575f898152600260208181526040909220600181018b90556003810189905590810189905560048101879055600581018690556006810185905560088101805460ff19168515151790558251611d8f926007909201918401906127e7565b505f8981526002602052604080822090517f5bf76a866f4180b9074be9ec53eadd0ee4dfaeefd563216bdaf35e113211df1c92611dcd92909161354d565b60405180910390a1611f0c565b5f6040518061012001604052806003546001611df69190613508565b81526020018a815260200189815260200188815260200187815260200186815260200185815260200183815260200184151581525090508060025f60035f8154611e3f906132df565b91905081905581526020019081526020015f205f820151815f01556020820151816001015560408201518160020155606082015181600301556080820151816004015560a0820151816005015560c0820151816006015560e0820151816007019080519060200190611eb29291906127e7565b5061010091909101516008909101805460ff19169115159190911790556040517f5bf76a866f4180b9074be9ec53eadd0ee4dfaeefd563216bdaf35e113211df1c90611f029060019084906135d2565b60405180910390a1505b505050505050505050565b611f1f61216e565b6001600160a01b038116611f665760405162461bcd60e51b815260206004820152600e60248201526d10d85b9b9bdd081899481b9d5b1b60921b6044820152606401610564565b5f80546001600160a01b0319166001600160a01b0392909216919091179055565b611f8f61290a565b60605f60025f8581526020019081526020015f20604051806101200160405290815f82015481526020016001820154815260200160028201548152602001600382015481526020016004820154815260200160058201548152602001600682015481526020016007820180548060200260200160405190810160405280929190818152602001828054801561204157602002820191905f5260205f20905b81548152602001906001019080831161202d575b50505091835250506008919091015460ff1615156020918201525f868152600280835260409182902060e0808601518451610120810186528354815260018401548188015293830154848601526003830154606085015260048301546080850152600583015460a0850152600683015460c0850152600783018054865181890281018901909752808752979850929690959394879492860193909290919083018282801561210c57602002820191905f5260205f20905b8154815260200190600101908083116120f8575b50505091835250506008919091015460ff161515602090910152969095509350505050565b61213961216e565b6001600160a01b03811661216257604051631e4fbdf760e01b81525f6004820152602401610564565b61216b8161247e565b50565b336121a07f9016d09d72d40fdae2fd8ceac6b6234c7706214fd39c1cd1e609a0528c199300546001600160a01b031690565b6001600160a01b0316146107825760405163118cdaa760e01b8152336004820152602401610564565b6121d161256f565b5f8051602061363f833981519152805460ff191681557f5db9ee0a495bf2e6ff9c91a7834c1ba4fdd244a5e8aa4e537bd38aeae4b073aa335b6040516001600160a01b03909116815260200160405180910390a150565b306001600160a01b037f00000000000000000000000000000000000000000000000000000000000000001614806122ae57507f00000000000000000000000000000000000000000000000000000000000000006001600160a01b03166122a25f8051602061361f833981519152546001600160a01b031690565b6001600160a01b031614155b156107825760405163703e46dd60e11b815260040160405180910390fd5b61216b61216e565b816001600160a01b03166352d1902d6040518163ffffffff1660e01b8152600401602060405180830381865afa92505050801561232e575060408051601f3d908101601f1916820190925261232b918101906135ec565b60015b61235657604051634c9c8ce360e01b81526001600160a01b0383166004820152602401610564565b5f8051602061361f833981519152811461238657604051632a87526960e21b815260048101829052602401610564565b612390838361259e565b505050565b306001600160a01b037f000000000000000000000000000000000000000000000000000000000000000016146107825760405163703e46dd60e11b815260040160405180910390fd5b5f8051602061363f8339815191525460ff16156107825760405163d93c066560e01b815260040160405180910390fd5b7f9b779b17422d0df92223018b32b4d1fa46e071723d6817e2486d003becc55f0080546001190161245257604051633ee5aeb560e01b815260040160405180910390fd5b60029055565b60017f9b779b17422d0df92223018b32b4d1fa46e071723d6817e2486d003becc55f0055565b7f9016d09d72d40fdae2fd8ceac6b6234c7706214fd39c1cd1e609a0528c19930080546001600160a01b031981166001600160a01b03848116918217845560405192169182907f8be0079c531659141344cd1fd0a4f28419497f9722a3daafe3b4186f6b6457e0905f90a3505050565b6124f66125f3565b61078261263c565b6125066125f3565b61216b8161265c565b6107826125f3565b61251f6125f3565b610782612664565b61252f6123de565b5f8051602061363f833981519152805460ff191660011781557f62e78cea01bee320cd4e420270b5ea74000d11b0c9f74754ebdbfc544b05a2583361220a565b5f8051602061363f8339815191525460ff1661078257604051638dfc202b60e01b815260040160405180910390fd5b6125a78261266c565b6040516001600160a01b038316907fbc7cd75a20ee27fd9adebab32041f755214dbc6bffa90cc0225b39da2e5c2d3b905f90a28051156125eb5761239082826126cf565b6109ee612743565b7ff0c57e16840df040f15088dc2f81fe391c3923bec73e23a9662efc9c229c6a0054600160401b900460ff1661078257604051631afcd79f60e31b815260040160405180910390fd5b6126446125f3565b5f8051602061363f833981519152805460ff19169055565b6121396125f3565b6124586125f3565b806001600160a01b03163b5f036126a157604051634c9c8ce360e01b81526001600160a01b0382166004820152602401610564565b5f8051602061361f83398151915280546001600160a01b0319166001600160a01b0392909216919091179055565b60605f80846001600160a01b0316846040516126eb9190613603565b5f60405180830381855af49150503d805f8114612723576040519150601f19603f3d011682016040523d82523d5f602084013e612728565b606091505b5091509150612738858383612762565b925050505b92915050565b34156107825760405163b398979f60e01b815260040160405180910390fd5b60608261277757612772826127be565b611c56565b815115801561278e57506001600160a01b0384163b155b156127b757604051639996b31560e01b81526001600160a01b0385166004820152602401610564565b5080611c56565b8051156127ce5780518082602001fd5b60405163d6bda27560e01b815260040160405180910390fd5b828054828255905f5260205f20908101928215612820579160200282015b82811115612820578251825591602001919060010190612805565b5061282c929150612950565b5090565b6040518061018001604052805f81526020015f815260200161285061290a565b815260200161288e6040518060e001604052805f81526020015f81526020015f81526020015f81526020015f81526020015f81526020015f81525090565b81526020016128d96040518061012001604052805f81526020015f81526020015f81526020015f81526020015f81526020015f81526020015f81526020015f81526020015f81525090565b81526020015f81526020015f81526020015f81526020015f81526020015f81526020015f8152602001606081525090565b6040518061012001604052805f81526020015f81526020015f81526020015f81526020015f81526020015f81526020015f8152602001606081526020015f151581525090565b5b8082111561282c575f8155600101612951565b6001600160a01b038116811461216b575f80fd5b5f60208284031215612988575f80fd5b8135611c5681612964565b5f602082840312156129a3575f80fd5b5035919050565b5f80604083850312156129bb575f80fd5b50508035926020909101359150565b5f815180845260208085019450602084015f5b838110156129f9578151875295820195908201906001016129dd565b509495945050505050565b5f610120825184526020830151602085015260408301516040850152606083015160608501526080830151608085015260a083015160a085015260c083015160c085015260e08301518160e0860152612a5f828601826129ca565b6101009485015115159590940194909452509092915050565b805182526020810151602083015260408101516040830152606081015160608301526080810151608083015260a081015160a083015260c081015160c08301525050565b805182526020810151602083015260408101516040830152606081015160608301526080810151608083015260a081015160a083015260c081015160c083015260e081015160e08301526101008082015181840152505050565b5f6103208d83528c6020840152806040840152612b358184018d612a04565b915050612b45606083018b612a78565b612b5361014083018a612abc565b8761026083015286610280830152856102a0830152846102c0830152836102e0830152826103008301529c9b505050505050505050505050565b634e487b7160e01b5f52604160045260245ffd5b60405161012081016001600160401b0381118282101715612bc457612bc4612b8d565b60405290565b60405160e081016001600160401b0381118282101715612bc457612bc4612b8d565b60405161018081016001600160401b0381118282101715612bc457612bc4612b8d565b604051601f8201601f191681016001600160401b0381118282101715612c3757612c37612b8d565b604052919050565b5f82601f830112612c4e575f80fd5b813560206001600160401b03821115612c6957612c69612b8d565b8160051b612c78828201612c0f565b9283528481018201928281019087851115612c91575f80fd5b83870192505b84831015612cb057823582529183019190830190612c97565b979650505050505050565b80358015158114612cca575f80fd5b919050565b5f6101208284031215612ce0575f80fd5b612ce8612ba1565b9050813581526020820135602082015260408201356040820152606082013560608201526080820135608082015260a082013560a082015260c082013560c082015260e08201356001600160401b03811115612d42575f80fd5b612d4e84828501612c3f565b60e083015250610100612d62818401612cbb565b9082015292915050565b5f60e08284031215612d7c575f80fd5b612d84612bca565b9050813581526020820135602082015260408201356040820152606082013560608201526080820135608082015260a082013560a082015260c082013560c082015292915050565b5f6101208284031215612ddd575f80fd5b612de5612ba1565b9050813581526020820135602082015260408201356040820152606082013560608201526080820135608082015260a082013560a082015260c082013560c082015260e082013560e082015261010080830135818301525092915050565b5f6103408284031215612e54575f80fd5b612e5c612bec565b9050813581526020820135602082015260408201356001600160401b0380821115612e85575f80fd5b612e9185838601612ccf565b6040840152612ea38560608601612d6c565b60608401526101409150612eb985838601612dcc565b608084015261026084013560a084015261028084013560c08401526102a084013560e08401526102c08401356101008401526102e084013561012084015261030084013582840152610320840135915080821115612f15575f80fd5b50612f2284828501612c3f565b6101608301525092915050565b5f8060408385031215612f40575f80fd5b8235915060208301356001600160401b03811115612f5c575f80fd5b612f6885828601612e43565b9150509250929050565b5f8060408385031215612f83575f80fd5b8235612f8e81612964565b91506020838101356001600160401b0380821115612faa575f80fd5b818601915086601f830112612fbd575f80fd5b813581811115612fcf57612fcf612b8d565b612fe1601f8201601f19168501612c0f565b91508082528784828501011115612ff6575f80fd5b80848401858401375f848284010152508093505050509250929050565b5f805f60608486031215613025575f80fd5b833592506020840135915060408401356001600160401b03811115613048575f80fd5b61305486828701612e43565b9150509250925092565b5f805f60608486031215613070575f80fd5b505081359360208301359350604090920135919050565b5f610340825184526020830151602085015260408301518160408601526130b082860182612a04565b91505060608301516130c56060860182612a78565b5060808301516101406130da81870183612abc565b60a085015161026087015260c085015161028087015260e08501516102a08701526101008501516102c08701526101208501516102e08701528401516103008601525061016083015184820361032086015261273882826129ca565b5f60208083016020845280855180835260408601915060408160051b8701019250602087015f5b8281101561318b57603f19888603018452613179858351613087565b9450928501929085019060010161315d565b5092979650505050505050565b5f805f805f805f805f6101208a8c0312156131b1575f80fd5b8935985060208a0135975060408a0135965060608a0135955060808a0135945060a08a0135935060c08a013592506131eb60e08b01612cbb565b91506101008a01356001600160401b03811115613206575f80fd5b6132128c828d01612c3f565b9150509295985092959850929598565b5f5b8381101561323c578181015183820152602001613224565b50505f910152565b602081525f8251806020840152613262816040850160208701613222565b601f01601f19169190910160400192915050565b604081525f6132886040830185612a04565b8281036020848101919091528451808352858201928201905f5b818110156132be578451835293830193918301916001016132a2565b5090979650505050505050565b634e487b7160e01b5f52601160045260245ffd5b5f600182016132f0576132f06132cb565b5060010190565b828152604060208201525f61330f6040830184613087565b949350505050565b5f60208284031215613327575f80fd5b8151611c5681612964565b5f60e08284031215613342575f80fd5b61334a612bca565b9050815181526020820151602082015260408201516040820152606082015160608201526080820151608082015260a082015160a082015260c082015160c082015292915050565b5f60e082840312156133a2575f80fd5b611c568383613332565b5f61012082840312156133bd575f80fd5b6133c5612ba1565b9050815181526020820151602082015260408201516040820152606082015160608201526080820151608082015260a082015160a082015260c082015160c082015260e082015160e082015261010080830151818301525092915050565b5f6101208284031215613434575f80fd5b611c5683836133ac565b610200810161344d8285612a78565b611c5660e0830184612abc565b5f80610200838503121561346c575f80fd5b6134768484613332565b91506134858460e085016133ac565b90509250929050565b8181038181111561273d5761273d6132cb565b83815261022081016134b66020830185612a78565b61330f610100830184612abc565b634e487b7160e01b5f52603260045260245ffd5b848152836020820152608060408201525f6134f66080830185613087565b8281036060840152612cb08185613087565b8082018082111561273d5761273d6132cb565b5f815480845260208085019450835f5260205f205f5b838110156129f957815487529582019560019182019101613531565b821515815260406020820152815460408201526001820154606082015260028201546080820152600382015460a0820152600482015460c0820152600582015460e082015260068201546101008201525f6101208081840152506135b861016083016007850161351b565b600884015460ff1680151561014085015250949350505050565b8215158152604060208201525f61330f6040830184612a04565b5f602082840312156135fc575f80fd5b5051919050565b5f8251613614818460208701613222565b919091019291505056fe360894a13ba1a3210667c828492db98dca3e2076cc3735a920a3ca505d382bbccd5ed15c6e187e77e9aee88184c21f4f2182ab5827cb3b7e07fbedcd63f03300a2646970667358221220ceaef234a65f8ca7aa37a510cf06ca01dd5c697db4786a479bb32087fedb1a7d64736f6c63430008160033",
			"opcodes": "PUSH1 0xA0 PUSH1 0x40 MSTORE ADDRESS PUSH1 0x80 MSTORE CALLVALUE DUP1 ISZERO PUSH3 0x14 JUMPI PUSH0 DUP1 REVERT JUMPDEST POP PUSH3 0x1F PUSH3 0x25 JUMP JUMPDEST PUSH3 0xD9 JUMP JUMPDEST PUSH32 0xF0C57E16840DF040F15088DC2F81FE391C3923BEC73E23A9662EFC9C229C6A00 DUP1 SLOAD PUSH9 0x10000000000000000 SWAP1 DIV PUSH1 0xFF AND ISZERO PUSH3 0x76 JUMPI PUSH1 0x40 MLOAD PUSH4 0xF92EE8A9 PUSH1 0xE0 SHL DUP2 MSTORE PUSH1 0x4 ADD PUSH1 0x40 MLOAD DUP1 SWAP2 SUB SWAP1 REVERT JUMPDEST DUP1 SLOAD PUSH1 0x1 PUSH1 0x1 PUSH1 0x40 SHL SUB SWAP1 DUP2 AND EQ PUSH3 0xD6 JUMPI DUP1 SLOAD PUSH1 0x1 PUSH1 0x1 PUSH1 0x40 SHL SUB NOT AND PUSH1 0x1 PUSH1 0x1 PUSH1 0x40 SHL SUB SWAP1 DUP2 OR DUP3 SSTORE PUSH1 0x40 MLOAD SWAP1 DUP2 MSTORE PUSH32 0xC7F505B2F371AE2175EE4913F4499E1F2633A7B5936321EED1CDAEB6115181D2 SWAP1 PUSH1 0x20 ADD PUSH1 0x40 MLOAD DUP1 SWAP2 SUB SWAP1 LOG1 JUMPDEST POP JUMP JUMPDEST PUSH1 0x80 MLOAD PUSH2 0x3694 PUSH3 0x100 PUSH0 CODECOPY PUSH0 DUP2 DUP2 PUSH2 0x2233 ADD MSTORE DUP2 DUP2 PUSH2 0x225C ADD MSTORE PUSH2 0x23A0 ADD MSTORE PUSH2 0x3694 PUSH0 RETURN INVALID PUSH1 0x80 PUSH1 0x40 MSTORE PUSH1 0x4 CALLDATASIZE LT PUSH2 0x147 JUMPI PUSH0 CALLDATALOAD PUSH1 0xE0 SHR DUP1 PUSH4 0x6BF5D216 GT PUSH2 0xB3 JUMPI DUP1 PUSH4 0x9FA6CCED GT PUSH2 0x6D JUMPI DUP1 PUSH4 0x9FA6CCED EQ PUSH2 0x43D JUMPI DUP1 PUSH4 0xA7CCABDF EQ PUSH2 0x45C JUMPI DUP1 PUSH4 0xAD3CB1CC EQ PUSH2 0x47B JUMPI DUP1 PUSH4 0xEB2B94B5 EQ PUSH2 0x4B8 JUMPI DUP1 PUSH4 0xF2FDE38B EQ PUSH2 0x4E5 JUMPI DUP1 PUSH4 0xFF9C08FA EQ PUSH2 0x504 JUMPI PUSH0 DUP1 REVERT JUMPDEST DUP1 PUSH4 0x6BF5D216 EQ PUSH2 0x37A JUMPI DUP1 PUSH4 0x715018A6 EQ PUSH2 0x399 JUMPI DUP1 PUSH4 0x8129FC1C EQ PUSH2 0x3AD JUMPI DUP1 PUSH4 0x8456CB59 EQ PUSH2 0x3C1 JUMPI DUP1 PUSH4 0x8DA5CB5B EQ PUSH2 0x3D5 JUMPI DUP1 PUSH4 0x9649F75E EQ PUSH2 0x411 JUMPI PUSH0 DUP1 REVERT JUMPDEST DUP1 PUSH4 0x3F4BA83A GT PUSH2 0x104 JUMPI DUP1 PUSH4 0x3F4BA83A EQ PUSH2 0x2D3 JUMPI DUP1 PUSH4 0x43B3A7EC EQ PUSH2 0x2E7 JUMPI DUP1 PUSH4 0x4F1EF286 EQ PUSH2 0x306 JUMPI DUP1 PUSH4 0x52D1902D EQ PUSH2 0x319 JUMPI DUP1 PUSH4 0x54D8F632 EQ PUSH2 0x32D JUMPI DUP1 PUSH4 0x5C975ABB EQ PUSH2 0x34C JUMPI PUSH0 DUP1 REVERT JUMPDEST DUP1 PUSH4 0x8EC6C3C EQ PUSH2 0x14B JUMPI DUP1 PUSH4 0x19A8903C EQ PUSH2 0x16C JUMPI DUP1 PUSH4 0x1AF02E5B EQ PUSH2 0x1AA JUMPI DUP1 PUSH4 0x262E3EC3 EQ PUSH2 0x1E0 JUMPI DUP1 PUSH4 0x2C8FE526 EQ PUSH2 0x217 JUMPI DUP1 PUSH4 0x31C2273B EQ PUSH2 0x2B5 JUMPI JUMPDEST PUSH0 DUP1 REVERT JUMPDEST CALLVALUE DUP1 ISZERO PUSH2 0x156 JUMPI PUSH0 DUP1 REVERT JUMPDEST POP PUSH2 0x16A PUSH2 0x165 CALLDATASIZE PUSH1 0x4 PUSH2 0x2978 JUMP JUMPDEST PUSH2 0x519 JUMP JUMPDEST STOP JUMPDEST CALLVALUE DUP1 ISZERO PUSH2 0x177 JUMPI PUSH0 DUP1 REVERT JUMPDEST POP PUSH2 0x197 PUSH2 0x186 CALLDATASIZE PUSH1 0x4 PUSH2 0x2993 JUMP JUMPDEST PUSH1 0x5 PUSH1 0x20 MSTORE PUSH0 SWAP1 DUP2 MSTORE PUSH1 0x40 SWAP1 KECCAK256 SLOAD DUP2 JUMP JUMPDEST PUSH1 0x40 MLOAD SWAP1 DUP2 MSTORE PUSH1 0x20 ADD JUMPDEST PUSH1 0x40 MLOAD DUP1 SWAP2 SUB SWAP1 RETURN JUMPDEST CALLVALUE DUP1 ISZERO PUSH2 0x1B5 JUMPI PUSH0 DUP1 REVERT JUMPDEST POP PUSH2 0x1C9 PUSH2 0x1C4 CALLDATASIZE PUSH1 0x4 PUSH2 0x29AA JUMP JUMPDEST PUSH2 0x58F JUMP JUMPDEST PUSH1 0x40 MLOAD PUSH2 0x1A1 SWAP12 SWAP11 SWAP10 SWAP9 SWAP8 SWAP7 SWAP6 SWAP5 SWAP4 SWAP3 SWAP2 SWAP1 PUSH2 0x2B16 JUMP JUMPDEST CALLVALUE DUP1 ISZERO PUSH2 0x1EB JUMPI PUSH0 DUP1 REVERT JUMPDEST POP PUSH1 0x1 SLOAD PUSH2 0x1FF SWAP1 PUSH1 0x1 PUSH1 0x1 PUSH1 0xA0 SHL SUB AND DUP2 JUMP JUMPDEST PUSH1 0x40 MLOAD PUSH1 0x1 PUSH1 0x1 PUSH1 0xA0 SHL SUB SWAP1 SWAP2 AND DUP2 MSTORE PUSH1 0x20 ADD PUSH2 0x1A1 JUMP JUMPDEST CALLVALUE DUP1 ISZERO PUSH2 0x222 JUMPI PUSH0 DUP1 REVERT JUMPDEST POP PUSH2 0x278 PUSH2 0x231 CALLDATASIZE PUSH1 0x4 PUSH2 0x2993 JUMP JUMPDEST PUSH1 0x2 PUSH1 0x20 DUP2 SWAP1 MSTORE PUSH0 SWAP2 DUP3 MSTORE PUSH1 0x40 SWAP1 SWAP2 KECCAK256 DUP1 SLOAD PUSH1 0x1 DUP3 ADD SLOAD SWAP3 DUP3 ADD SLOAD PUSH1 0x3 DUP4 ADD SLOAD PUSH1 0x4 DUP5 ADD SLOAD PUSH1 0x5 DUP6 ADD SLOAD PUSH1 0x6 DUP7 ADD SLOAD PUSH1 0x8 SWAP1 SWAP7 ADD SLOAD SWAP5 SWAP7 SWAP6 SWAP4 SWAP5 SWAP3 SWAP4 SWAP2 SWAP3 SWAP1 SWAP2 SWAP1 PUSH1 0xFF AND DUP9 JUMP JUMPDEST PUSH1 0x40 DUP1 MLOAD SWAP9 DUP10 MSTORE PUSH1 0x20 DUP10 ADD SWAP8 SWAP1 SWAP8 MSTORE SWAP6 DUP8 ADD SWAP5 SWAP1 SWAP5 MSTORE PUSH1 0x60 DUP7 ADD SWAP3 SWAP1 SWAP3 MSTORE PUSH1 0x80 DUP6 ADD MSTORE PUSH1 0xA0 DUP5 ADD MSTORE PUSH1 0xC0 DUP4 ADD MSTORE ISZERO ISZERO PUSH1 0xE0 DUP3 ADD MSTORE PUSH2 0x100 ADD PUSH2 0x1A1 JUMP JUMPDEST CALLVALUE DUP1 ISZERO PUSH2 0x2C0 JUMPI PUSH0 DUP1 REVERT JUMPDEST POP PUSH0 SLOAD PUSH2 0x1FF SWAP1 PUSH1 0x1 PUSH1 0x1 PUSH1 0xA0 SHL SUB AND DUP2 JUMP JUMPDEST CALLVALUE DUP1 ISZERO PUSH2 0x2DE JUMPI PUSH0 DUP1 REVERT JUMPDEST POP PUSH2 0x16A PUSH2 0x772 JUMP JUMPDEST CALLVALUE DUP1 ISZERO PUSH2 0x2F2 JUMPI PUSH0 DUP1 REVERT JUMPDEST POP PUSH2 0x16A PUSH2 0x301 CALLDATASIZE PUSH1 0x4 PUSH2 0x2F2F JUMP JUMPDEST PUSH2 0x784 JUMP JUMPDEST PUSH2 0x16A PUSH2 0x314 CALLDATASIZE PUSH1 0x4 PUSH2 0x2F72 JUMP JUMPDEST PUSH2 0x9D3 JUMP JUMPDEST CALLVALUE DUP1 ISZERO PUSH2 0x324 JUMPI PUSH0 DUP1 REVERT JUMPDEST POP PUSH2 0x197 PUSH2 0x9F2 JUMP JUMPDEST CALLVALUE DUP1 ISZERO PUSH2 0x338 JUMPI PUSH0 DUP1 REVERT JUMPDEST POP PUSH2 0x16A PUSH2 0x347 CALLDATASIZE PUSH1 0x4 PUSH2 0x29AA JUMP JUMPDEST PUSH2 0xA0D JUMP JUMPDEST CALLVALUE DUP1 ISZERO PUSH2 0x357 JUMPI PUSH0 DUP1 REVERT JUMPDEST POP PUSH0 DUP1 MLOAD PUSH1 0x20 PUSH2 0x363F DUP4 CODECOPY DUP2 MLOAD SWAP2 MSTORE SLOAD PUSH1 0xFF AND PUSH1 0x40 MLOAD SWAP1 ISZERO ISZERO DUP2 MSTORE PUSH1 0x20 ADD PUSH2 0x1A1 JUMP JUMPDEST CALLVALUE DUP1 ISZERO PUSH2 0x385 JUMPI PUSH0 DUP1 REVERT JUMPDEST POP PUSH2 0x16A PUSH2 0x394 CALLDATASIZE PUSH1 0x4 PUSH2 0x3013 JUMP JUMPDEST PUSH2 0x1225 JUMP JUMPDEST CALLVALUE DUP1 ISZERO PUSH2 0x3A4 JUMPI PUSH0 DUP1 REVERT JUMPDEST POP PUSH2 0x16A PUSH2 0x1723 JUMP JUMPDEST CALLVALUE DUP1 ISZERO PUSH2 0x3B8 JUMPI PUSH0 DUP1 REVERT JUMPDEST POP PUSH2 0x16A PUSH2 0x1734 JUMP JUMPDEST CALLVALUE DUP1 ISZERO PUSH2 0x3CC JUMPI PUSH0 DUP1 REVERT JUMPDEST POP PUSH2 0x16A PUSH2 0x1857 JUMP JUMPDEST CALLVALUE DUP1 ISZERO PUSH2 0x3E0 JUMPI PUSH0 DUP1 REVERT JUMPDEST POP PUSH32 0x9016D09D72D40FDAE2FD8CEAC6B6234C7706214FD39C1CD1E609A0528C199300 SLOAD PUSH1 0x1 PUSH1 0x1 PUSH1 0xA0 SHL SUB AND PUSH2 0x1FF JUMP JUMPDEST CALLVALUE DUP1 ISZERO PUSH2 0x41C JUMPI PUSH0 DUP1 REVERT JUMPDEST POP PUSH2 0x430 PUSH2 0x42B CALLDATASIZE PUSH1 0x4 PUSH2 0x305E JUMP JUMPDEST PUSH2 0x1867 JUMP JUMPDEST PUSH1 0x40 MLOAD PUSH2 0x1A1 SWAP2 SWAP1 PUSH2 0x3136 JUMP JUMPDEST CALLVALUE DUP1 ISZERO PUSH2 0x448 JUMPI PUSH0 DUP1 REVERT JUMPDEST POP PUSH2 0x16A PUSH2 0x457 CALLDATASIZE PUSH1 0x4 PUSH2 0x3198 JUMP JUMPDEST PUSH2 0x1C5D JUMP JUMPDEST CALLVALUE DUP1 ISZERO PUSH2 0x467 JUMPI PUSH0 DUP1 REVERT JUMPDEST POP PUSH2 0x16A PUSH2 0x476 CALLDATASIZE PUSH1 0x4 PUSH2 0x2978 JUMP JUMPDEST PUSH2 0x1F17 JUMP JUMPDEST CALLVALUE DUP1 ISZERO PUSH2 0x486 JUMPI PUSH0 DUP1 REVERT JUMPDEST POP PUSH2 0x4AB PUSH1 0x40 MLOAD DUP1 PUSH1 0x40 ADD PUSH1 0x40 MSTORE DUP1 PUSH1 0x5 DUP2 MSTORE PUSH1 0x20 ADD PUSH5 0x352E302E3 PUSH1 0xDC SHL DUP2 MSTORE POP DUP2 JUMP JUMPDEST PUSH1 0x40 MLOAD PUSH2 0x1A1 SWAP2 SWAP1 PUSH2 0x3244 JUMP JUMPDEST CALLVALUE DUP1 ISZERO PUSH2 0x4C3 JUMPI PUSH0 DUP1 REVERT JUMPDEST POP PUSH2 0x4D7 PUSH2 0x4D2 CALLDATASIZE PUSH1 0x4 PUSH2 0x2993 JUMP JUMPDEST PUSH2 0x1F87 JUMP JUMPDEST PUSH1 0x40 MLOAD PUSH2 0x1A1 SWAP3 SWAP2 SWAP1 PUSH2 0x3276 JUMP JUMPDEST CALLVALUE DUP1 ISZERO PUSH2 0x4F0 JUMPI PUSH0 DUP1 REVERT JUMPDEST POP PUSH2 0x16A PUSH2 0x4FF CALLDATASIZE PUSH1 0x4 PUSH2 0x2978 JUMP JUMPDEST PUSH2 0x2131 JUMP JUMPDEST CALLVALUE DUP1 ISZERO PUSH2 0x50F JUMPI PUSH0 DUP1 REVERT JUMPDEST POP PUSH2 0x197 PUSH1 0x3 SLOAD DUP2 JUMP JUMPDEST PUSH2 0x521 PUSH2 0x216E JUMP JUMPDEST PUSH1 0x1 PUSH1 0x1 PUSH1 0xA0 SHL SUB DUP2 AND PUSH2 0x56D JUMPI PUSH1 0x40 MLOAD PUSH3 0x461BCD PUSH1 0xE5 SHL DUP2 MSTORE PUSH1 0x20 PUSH1 0x4 DUP3 ADD MSTORE PUSH1 0xE PUSH1 0x24 DUP3 ADD MSTORE PUSH14 0x10D85B9B9BDD081899481B9D5B1B PUSH1 0x92 SHL PUSH1 0x44 DUP3 ADD MSTORE PUSH1 0x64 ADD JUMPDEST PUSH1 0x40 MLOAD DUP1 SWAP2 SUB SWAP1 REVERT JUMPDEST PUSH1 0x1 DUP1 SLOAD PUSH1 0x1 PUSH1 0x1 PUSH1 0xA0 SHL SUB NOT AND PUSH1 0x1 PUSH1 0x1 PUSH1 0xA0 SHL SUB SWAP3 SWAP1 SWAP3 AND SWAP2 SWAP1 SWAP2 OR SWAP1 SSTORE JUMP JUMPDEST PUSH1 0x4 PUSH1 0x20 MSTORE DUP2 PUSH0 MSTORE PUSH1 0x40 PUSH0 KECCAK256 DUP2 DUP2 SLOAD DUP2 LT PUSH2 0x5A8 JUMPI PUSH0 DUP1 REVERT JUMPDEST SWAP1 PUSH0 MSTORE PUSH1 0x20 PUSH0 KECCAK256 SWAP1 PUSH1 0x22 MUL ADD PUSH0 SWAP2 POP SWAP2 POP POP DUP1 PUSH0 ADD SLOAD SWAP1 DUP1 PUSH1 0x1 ADD SLOAD SWAP1 DUP1 PUSH1 0x2 ADD PUSH1 0x40 MLOAD DUP1 PUSH2 0x120 ADD PUSH1 0x40 MSTORE SWAP1 DUP2 PUSH0 DUP3 ADD SLOAD DUP2 MSTORE PUSH1 0x20 ADD PUSH1 0x1 DUP3 ADD SLOAD DUP2 MSTORE PUSH1 0x20 ADD PUSH1 0x2 DUP3 ADD SLOAD DUP2 MSTORE PUSH1 0x20 ADD PUSH1 0x3 DUP3 ADD SLOAD DUP2 MSTORE PUSH1 0x20 ADD PUSH1 0x4 DUP3 ADD SLOAD DUP2 MSTORE PUSH1 0x20 ADD PUSH1 0x5 DUP3 ADD SLOAD DUP2 MSTORE PUSH1 0x20 ADD PUSH1 0x6 DUP3 ADD SLOAD DUP2 MSTORE PUSH1 0x20 ADD PUSH1 0x7 DUP3 ADD DUP1 SLOAD DUP1 PUSH1 0x20 MUL PUSH1 0x20 ADD PUSH1 0x40 MLOAD SWAP1 DUP2 ADD PUSH1 0x40 MSTORE DUP1 SWAP3 SWAP2 SWAP1 DUP2 DUP2 MSTORE PUSH1 0x20 ADD DUP3 DUP1 SLOAD DUP1 ISZERO PUSH2 0x667 JUMPI PUSH1 0x20 MUL DUP3 ADD SWAP2 SWAP1 PUSH0 MSTORE PUSH1 0x20 PUSH0 KECCAK256 SWAP1 JUMPDEST DUP2 SLOAD DUP2 MSTORE PUSH1 0x20 ADD SWAP1 PUSH1 0x1 ADD SWAP1 DUP1 DUP4 GT PUSH2 0x653 JUMPI JUMPDEST POP POP POP POP POP DUP2 MSTORE PUSH1 0x20 ADD PUSH1 0x8 DUP3 ADD PUSH0 SWAP1 SLOAD SWAP1 PUSH2 0x100 EXP SWAP1 DIV PUSH1 0xFF AND ISZERO ISZERO ISZERO ISZERO DUP2 MSTORE POP POP SWAP1 DUP1 PUSH1 0xB ADD PUSH1 0x40 MLOAD DUP1 PUSH1 0xE0 ADD PUSH1 0x40 MSTORE SWAP1 DUP2 PUSH0 DUP3 ADD SLOAD DUP2 MSTORE PUSH1 0x20 ADD PUSH1 0x1 DUP3 ADD SLOAD DUP2 MSTORE PUSH1 0x20 ADD PUSH1 0x2 DUP3 ADD SLOAD DUP2 MSTORE PUSH1 0x20 ADD PUSH1 0x3 DUP3 ADD SLOAD DUP2 MSTORE PUSH1 0x20 ADD PUSH1 0x4 DUP3 ADD SLOAD DUP2 MSTORE PUSH1 0x20 ADD PUSH1 0x5 DUP3 ADD SLOAD DUP2 MSTORE PUSH1 0x20 ADD PUSH1 0x6 DUP3 ADD SLOAD DUP2 MSTORE POP POP SWAP1 DUP1 PUSH1 0x12 ADD PUSH1 0x40 MLOAD DUP1 PUSH2 0x120 ADD PUSH1 0x40 MSTORE SWAP1 DUP2 PUSH0 DUP3 ADD SLOAD DUP2 MSTORE PUSH1 0x20 ADD PUSH1 0x1 DUP3 ADD SLOAD DUP2 MSTORE PUSH1 0x20 ADD PUSH1 0x2 DUP3 ADD SLOAD DUP2 MSTORE PUSH1 0x20 ADD PUSH1 0x3 DUP3 ADD SLOAD DUP2 MSTORE PUSH1 0x20 ADD PUSH1 0x4 DUP3 ADD SLOAD DUP2 MSTORE PUSH1 0x20 ADD PUSH1 0x5 DUP3 ADD SLOAD DUP2 MSTORE PUSH1 0x20 ADD PUSH1 0x6 DUP3 ADD SLOAD DUP2 MSTORE PUSH1 0x20 ADD PUSH1 0x7 DUP3 ADD SLOAD DUP2 MSTORE PUSH1 0x20 ADD PUSH1 0x8 DUP3 ADD SLOAD DUP2 MSTORE POP POP SWAP1 DUP1 PUSH1 0x1B ADD SLOAD SWAP1 DUP1 PUSH1 0x1C ADD SLOAD SWAP1 DUP1 PUSH1 0x1D ADD SLOAD SWAP1 DUP1 PUSH1 0x1E ADD SLOAD SWAP1 DUP1 PUSH1 0x1F ADD SLOAD SWAP1 DUP1 PUSH1 0x20 ADD SLOAD SWAP1 POP DUP12 JUMP JUMPDEST PUSH2 0x77A PUSH2 0x216E JUMP JUMPDEST PUSH2 0x782 PUSH2 0x21C9 JUMP JUMPDEST JUMP JUMPDEST PUSH0 SLOAD PUSH1 0x1 PUSH1 0x1 PUSH1 0xA0 SHL SUB AND CALLER EQ PUSH2 0x7CE JUMPI PUSH1 0x40 MLOAD PUSH3 0x461BCD PUSH1 0xE5 SHL DUP2 MSTORE PUSH1 0x20 PUSH1 0x4 DUP3 ADD MSTORE PUSH1 0xE PUSH1 0x24 DUP3 ADD MSTORE PUSH14 0x139BDD08185D5D1A1BDC9A5E9959 PUSH1 0x92 SHL PUSH1 0x44 DUP3 ADD MSTORE PUSH1 0x64 ADD PUSH2 0x564 JUMP JUMPDEST PUSH0 DUP3 DUP2 MSTORE PUSH1 0x4 PUSH1 0x20 DUP2 DUP2 MSTORE PUSH1 0x40 DUP1 DUP5 KECCAK256 DUP1 SLOAD PUSH1 0x1 DUP2 DUP2 ADD DUP4 SSTORE SWAP2 DUP7 MSTORE SWAP5 DUP4 SWAP1 KECCAK256 DUP7 MLOAD PUSH1 0x22 SWAP1 SWAP7 MUL ADD SWAP5 DUP6 SSTORE DUP6 DUP4 ADD MLOAD SWAP1 DUP6 ADD SSTORE DUP5 DUP2 ADD MLOAD DUP1 MLOAD PUSH1 0x2 DUP7 ADD SWAP1 DUP2 SSTORE DUP2 DUP5 ADD MLOAD PUSH1 0x3 DUP8 ADD SSTORE SWAP2 DUP2 ADD MLOAD SWAP4 DUP6 ADD SWAP4 SWAP1 SWAP4 SSTORE PUSH1 0x60 DUP4 ADD MLOAD PUSH1 0x5 DUP6 ADD SSTORE PUSH1 0x80 DUP4 ADD MLOAD PUSH1 0x6 DUP6 ADD SSTORE PUSH1 0xA0 DUP4 ADD MLOAD PUSH1 0x7 DUP6 ADD SSTORE PUSH1 0xC0 DUP4 ADD MLOAD PUSH1 0x8 DUP6 ADD SSTORE PUSH1 0xE0 DUP4 ADD MLOAD DUP1 MLOAD DUP7 SWAP6 SWAP5 SWAP4 PUSH2 0x866 SWAP3 PUSH1 0x9 DUP8 ADD SWAP3 SWAP2 ADD SWAP1 PUSH2 0x27E7 JUMP JUMPDEST POP PUSH2 0x100 SWAP2 DUP3 ADD MLOAD PUSH1 0x8 SWAP2 SWAP1 SWAP2 ADD DUP1 SLOAD PUSH1 0xFF NOT AND SWAP2 ISZERO ISZERO SWAP2 SWAP1 SWAP2 OR SWAP1 SSTORE PUSH1 0x60 DUP4 DUP2 ADD MLOAD DUP1 MLOAD PUSH1 0xB DUP6 ADD SSTORE PUSH1 0x20 DUP1 DUP3 ADD MLOAD PUSH1 0xC DUP7 ADD SSTORE PUSH1 0x40 DUP1 DUP4 ADD MLOAD PUSH1 0xD DUP8 ADD SSTORE DUP3 DUP5 ADD MLOAD PUSH1 0xE DUP8 ADD SSTORE PUSH1 0x80 DUP1 DUP5 ADD MLOAD PUSH1 0xF DUP9 ADD SSTORE PUSH1 0xA0 DUP1 DUP6 ADD MLOAD PUSH1 0x10 DUP10 ADD SSTORE PUSH1 0xC0 SWAP5 DUP6 ADD MLOAD PUSH1 0x11 DUP10 ADD SSTORE DUP2 DUP10 ADD MLOAD DUP1 MLOAD PUSH1 0x12 DUP11 ADD SSTORE DUP1 DUP6 ADD MLOAD PUSH1 0x13 DUP11 ADD SSTORE SWAP3 DUP4 ADD MLOAD PUSH1 0x14 DUP10 ADD SSTORE SWAP5 DUP3 ADD MLOAD PUSH1 0x15 DUP9 ADD SSTORE DUP2 ADD MLOAD PUSH1 0x16 DUP8 ADD SSTORE DUP1 DUP5 ADD MLOAD PUSH1 0x17 DUP8 ADD SSTORE DUP1 DUP4 ADD MLOAD PUSH1 0x18 DUP8 ADD SSTORE PUSH1 0xE0 DUP1 DUP3 ADD MLOAD PUSH1 0x19 DUP9 ADD SSTORE SWAP1 DUP6 ADD MLOAD PUSH1 0x1A DUP8 ADD SSTORE SWAP3 DUP7 ADD MLOAD PUSH1 0x1B DUP7 ADD SSTORE SWAP1 DUP6 ADD MLOAD PUSH1 0x1C DUP6 ADD SSTORE SWAP1 DUP5 ADD MLOAD PUSH1 0x1D DUP5 ADD SSTORE SWAP1 DUP4 ADD MLOAD PUSH1 0x1E DUP4 ADD SSTORE PUSH2 0x120 DUP4 ADD MLOAD PUSH1 0x1F DUP4 ADD SSTORE PUSH2 0x140 DUP4 ADD MLOAD DUP2 DUP4 ADD SSTORE PUSH2 0x160 DUP4 ADD MLOAD DUP1 MLOAD PUSH2 0x975 SWAP3 PUSH1 0x21 DUP6 ADD SWAP3 ADD SWAP1 PUSH2 0x27E7 JUMP JUMPDEST POP POP POP PUSH0 DUP3 DUP2 MSTORE PUSH1 0x5 PUSH1 0x20 MSTORE PUSH1 0x40 DUP2 KECCAK256 DUP1 SLOAD SWAP2 PUSH2 0x991 DUP4 PUSH2 0x32DF JUMP JUMPDEST SWAP2 SWAP1 POP SSTORE POP PUSH32 0xF869A4DD5A4100240D978998CDE06CDF6886F0BDE8AA46F98DB63E2F01FD19D3 DUP3 DUP3 PUSH1 0x40 MLOAD PUSH2 0x9C7 SWAP3 SWAP2 SWAP1 PUSH2 0x32F7 JUMP JUMPDEST PUSH1 0x40 MLOAD DUP1 SWAP2 SUB SWAP1 LOG1 POP POP JUMP JUMPDEST PUSH2 0x9DB PUSH2 0x2228 JUMP JUMPDEST PUSH2 0x9E4 DUP3 PUSH2 0x22CC JUMP JUMPDEST PUSH2 0x9EE DUP3 DUP3 PUSH2 0x22D4 JUMP JUMPDEST POP POP JUMP JUMPDEST PUSH0 PUSH2 0x9FB PUSH2 0x2395 JUMP JUMPDEST POP PUSH0 DUP1 MLOAD PUSH1 0x20 PUSH2 0x361F DUP4 CODECOPY DUP2 MLOAD SWAP2 MSTORE SWAP1 JUMP JUMPDEST PUSH2 0xA15 PUSH2 0x23DE JUMP JUMPDEST PUSH2 0xA1D PUSH2 0x240E JUMP JUMPDEST PUSH0 SLOAD PUSH1 0x40 MLOAD PUSH4 0x31A9108F PUSH1 0xE1 SHL DUP2 MSTORE PUSH1 0x4 DUP2 ADD DUP4 SWAP1 MSTORE PUSH1 0x1 PUSH1 0x1 PUSH1 0xA0 SHL SUB SWAP1 SWAP2 AND SWAP1 PUSH4 0x6352211E SWAP1 PUSH1 0x24 ADD PUSH1 0x20 PUSH1 0x40 MLOAD DUP1 DUP4 SUB DUP2 DUP7 GAS STATICCALL ISZERO DUP1 ISZERO PUSH2 0xA63 JUMPI RETURNDATASIZE PUSH0 DUP1 RETURNDATACOPY RETURNDATASIZE PUSH0 REVERT JUMPDEST POP POP POP POP PUSH1 0x40 MLOAD RETURNDATASIZE PUSH1 0x1F NOT PUSH1 0x1F DUP3 ADD AND DUP3 ADD DUP1 PUSH1 0x40 MSTORE POP DUP2 ADD SWAP1 PUSH2 0xA87 SWAP2 SWAP1 PUSH2 0x3317 JUMP JUMPDEST PUSH1 0x1 PUSH1 0x1 PUSH1 0xA0 SHL SUB AND CALLER PUSH1 0x1 PUSH1 0x1 PUSH1 0xA0 SHL SUB AND EQ PUSH2 0xAD7 JUMPI PUSH1 0x40 MLOAD PUSH3 0x461BCD PUSH1 0xE5 SHL DUP2 MSTORE PUSH1 0x20 PUSH1 0x4 DUP3 ADD MSTORE PUSH1 0xD PUSH1 0x24 DUP3 ADD MSTORE PUSH13 0x2737BA103A34329037BBB732B9 PUSH1 0x99 SHL PUSH1 0x44 DUP3 ADD MSTORE PUSH1 0x64 ADD PUSH2 0x564 JUMP JUMPDEST PUSH0 DUP1 PUSH2 0xAE2 DUP5 PUSH2 0x1F87 JUMP JUMPDEST SWAP2 POP SWAP2 POP DUP2 PUSH2 0x100 ADD MLOAD PUSH2 0xB29 JUMPI PUSH1 0x40 MLOAD PUSH3 0x461BCD PUSH1 0xE5 SHL DUP2 MSTORE PUSH1 0x20 PUSH1 0x4 DUP3 ADD MSTORE PUSH1 0xE PUSH1 0x24 DUP3 ADD MSTORE PUSH14 0x135A5CDCDA5BDB8810DB1BDCD959 PUSH1 0x92 SHL PUSH1 0x44 DUP3 ADD MSTORE PUSH1 0x64 ADD PUSH2 0x564 JUMP JUMPDEST PUSH1 0x1 SLOAD PUSH1 0x40 MLOAD PUSH4 0x9FC2D67 PUSH1 0xE1 SHL DUP2 MSTORE PUSH1 0x4 DUP2 ADD DUP6 SWAP1 MSTORE PUSH0 SWAP2 DUP3 SWAP2 PUSH1 0x1 PUSH1 0x1 PUSH1 0xA0 SHL SUB SWAP1 SWAP2 AND SWAP1 PUSH4 0x13F85ACE SWAP1 PUSH1 0x24 ADD PUSH1 0xE0 PUSH1 0x40 MLOAD DUP1 DUP4 SUB DUP2 DUP7 GAS STATICCALL ISZERO DUP1 ISZERO PUSH2 0xB74 JUMPI RETURNDATASIZE PUSH0 DUP1 RETURNDATACOPY RETURNDATASIZE PUSH0 REVERT JUMPDEST POP POP POP POP PUSH1 0x40 MLOAD RETURNDATASIZE PUSH1 0x1F NOT PUSH1 0x1F DUP3 ADD AND DUP3 ADD DUP1 PUSH1 0x40 MSTORE POP DUP2 ADD SWAP1 PUSH2 0xB98 SWAP2 SWAP1 PUSH2 0x3392 JUMP JUMPDEST PUSH1 0x1 SLOAD PUSH1 0x40 MLOAD PUSH4 0x44F2615 PUSH1 0xE1 SHL DUP2 MSTORE PUSH1 0x4 DUP2 ADD DUP9 SWAP1 MSTORE SWAP2 SWAP3 POP PUSH0 SWAP2 PUSH1 0x1 PUSH1 0x1 PUSH1 0xA0 SHL SUB SWAP1 SWAP2 AND SWAP1 PUSH4 0x89E4C2A SWAP1 PUSH1 0x24 ADD PUSH2 0x120 PUSH1 0x40 MLOAD DUP1 DUP4 SUB DUP2 DUP7 GAS STATICCALL ISZERO DUP1 ISZERO PUSH2 0xBE5 JUMPI RETURNDATASIZE PUSH0 DUP1 RETURNDATACOPY RETURNDATASIZE PUSH0 REVERT JUMPDEST POP POP POP POP PUSH1 0x40 MLOAD RETURNDATASIZE PUSH1 0x1F NOT PUSH1 0x1F DUP3 ADD AND DUP3 ADD DUP1 PUSH1 0x40 MSTORE POP DUP2 ADD SWAP1 PUSH2 0xC09 SWAP2 SWAP1 PUSH2 0x3423 JUMP JUMPDEST PUSH1 0x1 SLOAD PUSH1 0x40 MLOAD PUSH4 0xF61FA453 PUSH1 0xE0 SHL DUP2 MSTORE SWAP2 SWAP3 POP PUSH1 0x1 PUSH1 0x1 PUSH1 0xA0 SHL SUB AND SWAP1 PUSH4 0xF61FA453 SWAP1 PUSH2 0xC3C SWAP1 DUP6 SWAP1 DUP6 SWAP1 PUSH1 0x4 ADD PUSH2 0x343E JUMP JUMPDEST PUSH2 0x200 PUSH1 0x40 MLOAD DUP1 DUP4 SUB DUP2 PUSH0 DUP8 GAS CALL ISZERO DUP1 ISZERO PUSH2 0xC59 JUMPI RETURNDATASIZE PUSH0 DUP1 RETURNDATACOPY RETURNDATASIZE PUSH0 REVERT JUMPDEST POP POP POP POP PUSH1 0x40 MLOAD RETURNDATASIZE PUSH1 0x1F NOT PUSH1 0x1F DUP3 ADD AND DUP3 ADD DUP1 PUSH1 0x40 MSTORE POP DUP2 ADD SWAP1 PUSH2 0xC7D SWAP2 SWAP1 PUSH2 0x345A JUMP JUMPDEST PUSH1 0xC0 DUP3 ADD MLOAD SWAP2 SWAP4 POP SWAP2 POP PUSH1 0x1 EQ PUSH2 0xCCD JUMPI PUSH1 0x40 MLOAD PUSH3 0x461BCD PUSH1 0xE5 SHL DUP2 MSTORE PUSH1 0x20 PUSH1 0x4 DUP3 ADD MSTORE PUSH1 0x14 PUSH1 0x24 DUP3 ADD MSTORE PUSH20 0x21B0B73737BA1029BA30B93A1026B4B9B9B4B7B7 PUSH1 0x61 SHL PUSH1 0x44 DUP3 ADD MSTORE PUSH1 0x64 ADD PUSH2 0x564 JUMP JUMPDEST DUP5 PUSH1 0x40 ADD MLOAD DUP2 PUSH1 0x40 ADD MLOAD LT ISZERO PUSH2 0xD19 JUMPI PUSH1 0x40 MLOAD PUSH3 0x461BCD PUSH1 0xE5 SHL DUP2 MSTORE PUSH1 0x20 PUSH1 0x4 DUP3 ADD MSTORE PUSH1 0x11 PUSH1 0x24 DUP3 ADD MSTORE PUSH17 0x4E6F7420656E6F75676820656E65726779 PUSH1 0x78 SHL PUSH1 0x44 DUP3 ADD MSTORE PUSH1 0x64 ADD PUSH2 0x564 JUMP JUMPDEST DUP5 PUSH1 0x40 ADD MLOAD DUP2 PUSH1 0x40 ADD DUP2 DUP2 MLOAD PUSH2 0xD2F SWAP2 SWAP1 PUSH2 0x348E JUMP JUMPDEST SWAP1 MSTORE POP PUSH1 0x2 PUSH1 0xC0 DUP4 ADD MSTORE PUSH1 0x1 SLOAD PUSH1 0x40 MLOAD PUSH4 0xF6CAC63F PUSH1 0xE0 SHL DUP2 MSTORE PUSH1 0x1 PUSH1 0x1 PUSH1 0xA0 SHL SUB SWAP1 SWAP2 AND SWAP1 PUSH4 0xF6CAC63F SWAP1 PUSH2 0xD6D SWAP1 DUP10 SWAP1 DUP7 SWAP1 DUP7 SWAP1 PUSH1 0x4 ADD PUSH2 0x34A1 JUMP JUMPDEST PUSH0 PUSH1 0x40 MLOAD DUP1 DUP4 SUB DUP2 PUSH0 DUP8 DUP1 EXTCODESIZE ISZERO DUP1 ISZERO PUSH2 0xD84 JUMPI PUSH0 DUP1 REVERT JUMPDEST POP GAS CALL ISZERO DUP1 ISZERO PUSH2 0xD96 JUMPI RETURNDATASIZE PUSH0 DUP1 RETURNDATACOPY RETURNDATASIZE PUSH0 REVERT JUMPDEST POP POP POP POP PUSH0 JUMPDEST DUP5 MLOAD DUP2 LT ISZERO PUSH2 0xDD5 JUMPI DUP3 PUSH0 ADD MLOAD DUP6 DUP3 DUP2 MLOAD DUP2 LT PUSH2 0xDBB JUMPI PUSH2 0xDBB PUSH2 0x34C4 JUMP JUMPDEST PUSH1 0x20 MUL PUSH1 0x20 ADD ADD MLOAD SUB PUSH2 0xDCD JUMPI PUSH1 0x1 SWAP4 POP JUMPDEST PUSH1 0x1 ADD PUSH2 0xD9C JUMP JUMPDEST POP DUP4 MLOAD ISZERO DUP1 PUSH2 0xDE1 JUMPI POP DUP3 JUMPDEST PUSH2 0xE3D JUMPI PUSH1 0x40 MLOAD PUSH3 0x461BCD PUSH1 0xE5 SHL DUP2 MSTORE PUSH1 0x20 PUSH1 0x4 DUP3 ADD MSTORE PUSH1 0x27 PUSH1 0x24 DUP3 ADD MSTORE PUSH32 0x4E465420636C617373206E6F7420656C696769626C6520666F72207468697320 PUSH1 0x44 DUP3 ADD MSTORE PUSH7 0x36B4B9B9B4B7B7 PUSH1 0xC9 SHL PUSH1 0x64 DUP3 ADD MSTORE PUSH1 0x84 ADD PUSH2 0x564 JUMP JUMPDEST PUSH0 PUSH1 0x40 MLOAD DUP1 PUSH1 0xE0 ADD PUSH1 0x40 MSTORE DUP1 DUP5 PUSH0 ADD MLOAD DUP2 MSTORE PUSH1 0x20 ADD DUP5 PUSH1 0x20 ADD MLOAD DUP2 MSTORE PUSH1 0x20 ADD DUP5 PUSH1 0x40 ADD MLOAD DUP2 MSTORE PUSH1 0x20 ADD DUP5 PUSH1 0x60 ADD MLOAD DUP2 MSTORE PUSH1 0x20 ADD DUP5 PUSH1 0x80 ADD MLOAD DUP2 MSTORE PUSH1 0x20 ADD DUP5 PUSH1 0xA0 ADD MLOAD DUP2 MSTORE PUSH1 0x20 ADD DUP5 PUSH1 0xC0 ADD MLOAD DUP2 MSTORE POP SWAP1 POP PUSH0 PUSH1 0x40 MLOAD DUP1 PUSH2 0x120 ADD PUSH1 0x40 MSTORE DUP1 DUP5 PUSH0 ADD MLOAD DUP2 MSTORE PUSH1 0x20 ADD DUP5 PUSH1 0x20 ADD MLOAD DUP2 MSTORE PUSH1 0x20 ADD DUP5 PUSH1 0x40 ADD MLOAD DUP2 MSTORE PUSH1 0x20 ADD DUP5 PUSH1 0x60 ADD MLOAD DUP2 MSTORE PUSH1 0x20 ADD DUP5 PUSH1 0x80 ADD MLOAD DUP2 MSTORE PUSH1 0x20 ADD DUP5 PUSH1 0xA0 ADD MLOAD DUP2 MSTORE PUSH1 0x20 ADD DUP5 PUSH1 0xC0 ADD MLOAD DUP2 MSTORE PUSH1 0x20 ADD DUP5 PUSH1 0xE0 ADD MLOAD DUP2 MSTORE PUSH1 0x20 ADD DUP5 PUSH2 0x100 ADD MLOAD DUP2 MSTORE POP SWAP1 POP PUSH0 PUSH1 0x40 MLOAD DUP1 PUSH2 0x120 ADD PUSH1 0x40 MSTORE DUP1 DUP10 PUSH0 ADD MLOAD DUP2 MSTORE PUSH1 0x20 ADD DUP10 PUSH1 0x20 ADD MLOAD DUP2 MSTORE PUSH1 0x20 ADD DUP10 PUSH1 0x40 ADD MLOAD DUP2 MSTORE PUSH1 0x20 ADD DUP10 PUSH1 0x60 ADD MLOAD DUP2 MSTORE PUSH1 0x20 ADD DUP10 PUSH1 0x80 ADD MLOAD DUP2 MSTORE PUSH1 0x20 ADD DUP10 PUSH1 0xA0 ADD MLOAD DUP2 MSTORE PUSH1 0x20 ADD DUP10 PUSH1 0xC0 ADD MLOAD DUP2 MSTORE PUSH1 0x20 ADD DUP9 DUP2 MSTORE PUSH1 0x20 ADD DUP10 PUSH2 0x100 ADD MLOAD ISZERO ISZERO DUP2 MSTORE POP SWAP1 POP PUSH0 PUSH1 0x40 MLOAD DUP1 PUSH2 0x180 ADD PUSH1 0x40 MSTORE DUP1 DUP12 DUP2 MSTORE PUSH1 0x20 ADD DUP13 DUP2 MSTORE PUSH1 0x20 ADD DUP4 DUP2 MSTORE PUSH1 0x20 ADD DUP6 DUP2 MSTORE PUSH1 0x20 ADD DUP5 DUP2 MSTORE PUSH1 0x20 ADD TIMESTAMP DUP2 MSTORE PUSH1 0x20 ADD PUSH0 DUP2 MSTORE PUSH1 0x20 ADD PUSH0 DUP2 MSTORE PUSH1 0x20 ADD PUSH1 0x1 DUP2 MSTORE PUSH1 0x20 ADD PUSH0 DUP2 MSTORE PUSH1 0x20 ADD PUSH0 DUP2 MSTORE PUSH1 0x20 ADD PUSH0 PUSH1 0x1 PUSH1 0x1 PUSH1 0x40 SHL SUB DUP2 GT ISZERO PUSH2 0xFC2 JUMPI PUSH2 0xFC2 PUSH2 0x2B8D JUMP JUMPDEST PUSH1 0x40 MLOAD SWAP1 DUP1 DUP3 MSTORE DUP1 PUSH1 0x20 MUL PUSH1 0x20 ADD DUP3 ADD PUSH1 0x40 MSTORE DUP1 ISZERO PUSH2 0xFEB JUMPI DUP2 PUSH1 0x20 ADD PUSH1 0x20 DUP3 MUL DUP1 CALLDATASIZE DUP4 CALLDATACOPY ADD SWAP1 POP JUMPDEST POP SWAP1 MSTORE PUSH0 DUP12 DUP2 MSTORE PUSH1 0x4 PUSH1 0x20 DUP2 DUP2 MSTORE PUSH1 0x40 DUP1 DUP5 KECCAK256 DUP1 SLOAD PUSH1 0x1 DUP2 DUP2 ADD DUP4 SSTORE SWAP2 DUP7 MSTORE SWAP5 DUP4 SWAP1 KECCAK256 DUP7 MLOAD PUSH1 0x22 SWAP1 SWAP7 MUL ADD SWAP5 DUP6 SSTORE DUP3 DUP7 ADD MLOAD SWAP1 DUP6 ADD SSTORE DUP1 DUP6 ADD MLOAD DUP1 MLOAD PUSH1 0x2 DUP7 ADD SWAP1 DUP2 SSTORE DUP2 DUP5 ADD MLOAD PUSH1 0x3 DUP8 ADD SSTORE SWAP2 DUP2 ADD MLOAD SWAP4 DUP6 ADD SWAP4 SWAP1 SWAP4 SSTORE PUSH1 0x60 DUP4 ADD MLOAD PUSH1 0x5 DUP6 ADD SSTORE PUSH1 0x80 DUP4 ADD MLOAD PUSH1 0x6 DUP6 ADD SSTORE PUSH1 0xA0 DUP4 ADD MLOAD PUSH1 0x7 DUP6 ADD SSTORE PUSH1 0xC0 DUP4 ADD MLOAD PUSH1 0x8 DUP6 ADD SSTORE PUSH1 0xE0 DUP4 ADD MLOAD DUP1 MLOAD SWAP6 SWAP7 POP DUP7 SWAP6 SWAP2 SWAP3 PUSH2 0x108A SWAP3 PUSH1 0x9 DUP8 ADD SWAP3 SWAP1 SWAP2 ADD SWAP1 PUSH2 0x27E7 JUMP JUMPDEST POP PUSH2 0x100 SWAP2 DUP3 ADD MLOAD PUSH1 0x8 SWAP2 SWAP1 SWAP2 ADD DUP1 SLOAD PUSH1 0xFF NOT AND SWAP2 ISZERO ISZERO SWAP2 SWAP1 SWAP2 OR SWAP1 SSTORE PUSH1 0x60 DUP4 DUP2 ADD MLOAD DUP1 MLOAD PUSH1 0xB DUP6 ADD SSTORE PUSH1 0x20 DUP1 DUP3 ADD MLOAD PUSH1 0xC DUP7 ADD SSTORE PUSH1 0x40 DUP1 DUP4 ADD MLOAD PUSH1 0xD DUP8 ADD SSTORE DUP3 DUP5 ADD MLOAD PUSH1 0xE DUP8 ADD SSTORE PUSH1 0x80 DUP1 DUP5 ADD MLOAD PUSH1 0xF DUP9 ADD SSTORE PUSH1 0xA0 DUP1 DUP6 ADD MLOAD PUSH1 0x10 DUP10 ADD SSTORE PUSH1 0xC0 SWAP5 DUP6 ADD MLOAD PUSH1 0x11 DUP10 ADD SSTORE DUP2 DUP10 ADD MLOAD DUP1 MLOAD PUSH1 0x12 DUP11 ADD SSTORE DUP1 DUP6 ADD MLOAD PUSH1 0x13 DUP11 ADD SSTORE SWAP3 DUP4 ADD MLOAD PUSH1 0x14 DUP10 ADD SSTORE SWAP5 DUP3 ADD MLOAD PUSH1 0x15 DUP9 ADD SSTORE DUP2 ADD MLOAD PUSH1 0x16 DUP8 ADD SSTORE DUP1 DUP5 ADD MLOAD PUSH1 0x17 DUP8 ADD SSTORE DUP1 DUP4 ADD MLOAD PUSH1 0x18 DUP8 ADD SSTORE PUSH1 0xE0 DUP1 DUP3 ADD MLOAD PUSH1 0x19 DUP9 ADD SSTORE SWAP1 DUP6 ADD MLOAD PUSH1 0x1A DUP8 ADD SSTORE SWAP3 DUP7 ADD MLOAD PUSH1 0x1B DUP7 ADD SSTORE SWAP1 DUP6 ADD MLOAD PUSH1 0x1C DUP6 ADD SSTORE SWAP1 DUP5 ADD MLOAD PUSH1 0x1D DUP5 ADD SSTORE SWAP1 DUP4 ADD MLOAD PUSH1 0x1E DUP4 ADD SSTORE PUSH2 0x120 DUP4 ADD MLOAD PUSH1 0x1F DUP4 ADD SSTORE PUSH2 0x140 DUP4 ADD MLOAD DUP2 DUP4 ADD SSTORE PUSH2 0x160 DUP4 ADD MLOAD DUP1 MLOAD PUSH2 0x1199 SWAP3 PUSH1 0x21 DUP6 ADD SWAP3 ADD SWAP1 PUSH2 0x27E7 JUMP JUMPDEST POP POP POP PUSH0 DUP11 DUP2 MSTORE PUSH1 0x5 PUSH1 0x20 MSTORE PUSH1 0x40 DUP2 KECCAK256 DUP1 SLOAD SWAP2 PUSH2 0x11B5 DUP4 PUSH2 0x32DF JUMP JUMPDEST SWAP2 SWAP1 POP SSTORE POP PUSH32 0xF869A4DD5A4100240D978998CDE06CDF6886F0BDE8AA46F98DB63E2F01FD19D3 DUP11 DUP3 PUSH1 0x40 MLOAD PUSH2 0x11EB SWAP3 SWAP2 SWAP1 PUSH2 0x32F7 JUMP JUMPDEST PUSH1 0x40 MLOAD DUP1 SWAP2 SUB SWAP1 LOG1 POP POP POP POP POP POP POP POP POP PUSH2 0x9EE PUSH1 0x1 PUSH32 0x9B779B17422D0DF92223018B32B4D1FA46E071723D6817E2486D003BECC55F00 SSTORE JUMP JUMPDEST PUSH0 SLOAD PUSH1 0x1 PUSH1 0x1 PUSH1 0xA0 SHL SUB AND CALLER EQ PUSH2 0x126F JUMPI PUSH1 0x40 MLOAD PUSH3 0x461BCD PUSH1 0xE5 SHL DUP2 MSTORE PUSH1 0x20 PUSH1 0x4 DUP3 ADD MSTORE PUSH1 0xE PUSH1 0x24 DUP3 ADD MSTORE PUSH14 0x139BDD08185D5D1A1BDC9A5E9959 PUSH1 0x92 SHL PUSH1 0x44 DUP3 ADD MSTORE PUSH1 0x64 ADD PUSH2 0x564 JUMP JUMPDEST PUSH0 DUP4 DUP2 MSTORE PUSH1 0x5 PUSH1 0x20 MSTORE PUSH1 0x40 SWAP1 KECCAK256 SLOAD DUP3 LT PUSH2 0x12B9 JUMPI PUSH1 0x40 MLOAD PUSH3 0x461BCD PUSH1 0xE5 SHL DUP2 MSTORE PUSH1 0x20 PUSH1 0x4 DUP3 ADD MSTORE PUSH1 0xB PUSH1 0x24 DUP3 ADD MSTORE PUSH11 0x10D85B9B9BDD08199A5B99 PUSH1 0xAA SHL PUSH1 0x44 DUP3 ADD MSTORE PUSH1 0x64 ADD PUSH2 0x564 JUMP JUMPDEST PUSH0 DUP4 DUP2 MSTORE PUSH1 0x4 PUSH1 0x20 MSTORE PUSH1 0x40 DUP2 KECCAK256 DUP1 SLOAD DUP5 SWAP1 DUP2 LT PUSH2 0x12D8 JUMPI PUSH2 0x12D8 PUSH2 0x34C4 JUMP JUMPDEST SWAP1 PUSH0 MSTORE PUSH1 0x20 PUSH0 KECCAK256 SWAP1 PUSH1 0x22 MUL ADD PUSH1 0x40 MLOAD DUP1 PUSH2 0x180 ADD PUSH1 0x40 MSTORE SWAP1 DUP2 PUSH0 DUP3 ADD SLOAD DUP2 MSTORE PUSH1 0x20 ADD PUSH1 0x1 DUP3 ADD SLOAD DUP2 MSTORE PUSH1 0x20 ADD PUSH1 0x2 DUP3 ADD PUSH1 0x40 MLOAD DUP1 PUSH2 0x120 ADD PUSH1 0x40 MSTORE SWAP1 DUP2 PUSH0 DUP3 ADD SLOAD DUP2 MSTORE PUSH1 0x20 ADD PUSH1 0x1 DUP3 ADD SLOAD DUP2 MSTORE PUSH1 0x20 ADD PUSH1 0x2 DUP3 ADD SLOAD DUP2 MSTORE PUSH1 0x20 ADD PUSH1 0x3 DUP3 ADD SLOAD DUP2 MSTORE PUSH1 0x20 ADD PUSH1 0x4 DUP3 ADD SLOAD DUP2 MSTORE PUSH1 0x20 ADD PUSH1 0x5 DUP3 ADD SLOAD DUP2 MSTORE PUSH1 0x20 ADD PUSH1 0x6 DUP3 ADD SLOAD DUP2 MSTORE PUSH1 0x20 ADD PUSH1 0x7 DUP3 ADD DUP1 SLOAD DUP1 PUSH1 0x20 MUL PUSH1 0x20 ADD PUSH1 0x40 MLOAD SWAP1 DUP2 ADD PUSH1 0x40 MSTORE DUP1 SWAP3 SWAP2 SWAP1 DUP2 DUP2 MSTORE PUSH1 0x20 ADD DUP3 DUP1 SLOAD DUP1 ISZERO PUSH2 0x13A6 JUMPI PUSH1 0x20 MUL DUP3 ADD SWAP2 SWAP1 PUSH0 MSTORE PUSH1 0x20 PUSH0 KECCAK256 SWAP1 JUMPDEST DUP2 SLOAD DUP2 MSTORE PUSH1 0x20 ADD SWAP1 PUSH1 0x1 ADD SWAP1 DUP1 DUP4 GT PUSH2 0x1392 JUMPI JUMPDEST POP POP POP POP POP DUP2 MSTORE PUSH1 0x20 ADD PUSH1 0x8 DUP3 ADD PUSH0 SWAP1 SLOAD SWAP1 PUSH2 0x100 EXP SWAP1 DIV PUSH1 0xFF AND ISZERO ISZERO ISZERO ISZERO DUP2 MSTORE POP POP DUP2 MSTORE PUSH1 0x20 ADD PUSH1 0xB DUP3 ADD PUSH1 0x40 MLOAD DUP1 PUSH1 0xE0 ADD PUSH1 0x40 MSTORE SWAP1 DUP2 PUSH0 DUP3 ADD SLOAD DUP2 MSTORE PUSH1 0x20 ADD PUSH1 0x1 DUP3 ADD SLOAD DUP2 MSTORE PUSH1 0x20 ADD PUSH1 0x2 DUP3 ADD SLOAD DUP2 MSTORE PUSH1 0x20 ADD PUSH1 0x3 DUP3 ADD SLOAD DUP2 MSTORE PUSH1 0x20 ADD PUSH1 0x4 DUP3 ADD SLOAD DUP2 MSTORE PUSH1 0x20 ADD PUSH1 0x5 DUP3 ADD SLOAD DUP2 MSTORE PUSH1 0x20 ADD PUSH1 0x6 DUP3 ADD SLOAD DUP2 MSTORE POP POP DUP2 MSTORE PUSH1 0x20 ADD PUSH1 0x12 DUP3 ADD PUSH1 0x40 MLOAD DUP1 PUSH2 0x120 ADD PUSH1 0x40 MSTORE SWAP1 DUP2 PUSH0 DUP3 ADD SLOAD DUP2 MSTORE PUSH1 0x20 ADD PUSH1 0x1 DUP3 ADD SLOAD DUP2 MSTORE PUSH1 0x20 ADD PUSH1 0x2 DUP3 ADD SLOAD DUP2 MSTORE PUSH1 0x20 ADD PUSH1 0x3 DUP3 ADD SLOAD DUP2 MSTORE PUSH1 0x20 ADD PUSH1 0x4 DUP3 ADD SLOAD DUP2 MSTORE PUSH1 0x20 ADD PUSH1 0x5 DUP3 ADD SLOAD DUP2 MSTORE PUSH1 0x20 ADD PUSH1 0x6 DUP3 ADD SLOAD DUP2 MSTORE PUSH1 0x20 ADD PUSH1 0x7 DUP3 ADD SLOAD DUP2 MSTORE PUSH1 0x20 ADD PUSH1 0x8 DUP3 ADD SLOAD DUP2 MSTORE POP POP DUP2 MSTORE PUSH1 0x20 ADD PUSH1 0x1B DUP3 ADD SLOAD DUP2 MSTORE PUSH1 0x20 ADD PUSH1 0x1C DUP3 ADD SLOAD DUP2 MSTORE PUSH1 0x20 ADD PUSH1 0x1D DUP3 ADD SLOAD DUP2 MSTORE PUSH1 0x20 ADD PUSH1 0x1E DUP3 ADD SLOAD DUP2 MSTORE PUSH1 0x20 ADD PUSH1 0x1F DUP3 ADD SLOAD DUP2 MSTORE PUSH1 0x20 ADD PUSH1 0x20 DUP3 ADD SLOAD DUP2 MSTORE PUSH1 0x20 ADD PUSH1 0x21 DUP3 ADD DUP1 SLOAD DUP1 PUSH1 0x20 MUL PUSH1 0x20 ADD PUSH1 0x40 MLOAD SWAP1 DUP2 ADD PUSH1 0x40 MSTORE DUP1 SWAP3 SWAP2 SWAP1 DUP2 DUP2 MSTORE PUSH1 0x20 ADD DUP3 DUP1 SLOAD DUP1 ISZERO PUSH2 0x151D JUMPI PUSH1 0x20 MUL DUP3 ADD SWAP2 SWAP1 PUSH0 MSTORE PUSH1 0x20 PUSH0 KECCAK256 SWAP1 JUMPDEST DUP2 SLOAD DUP2 MSTORE PUSH1 0x20 ADD SWAP1 PUSH1 0x1 ADD SWAP1 DUP1 DUP4 GT PUSH2 0x1509 JUMPI JUMPDEST POP POP POP POP POP DUP2 MSTORE POP POP SWAP1 POP DUP2 PUSH1 0x4 PUSH0 DUP7 DUP2 MSTORE PUSH1 0x20 ADD SWAP1 DUP2 MSTORE PUSH1 0x20 ADD PUSH0 KECCAK256 DUP5 DUP2 SLOAD DUP2 LT PUSH2 0x154B JUMPI PUSH2 0x154B PUSH2 0x34C4 JUMP JUMPDEST PUSH0 SWAP2 DUP3 MSTORE PUSH1 0x20 SWAP2 DUP3 SWAP1 KECCAK256 DUP4 MLOAD PUSH1 0x22 SWAP1 SWAP3 MUL ADD SWAP1 DUP2 SSTORE DUP3 DUP3 ADD MLOAD PUSH1 0x1 DUP3 ADD SSTORE PUSH1 0x40 DUP1 DUP5 ADD MLOAD DUP1 MLOAD PUSH1 0x2 DUP5 ADD SWAP1 DUP2 SSTORE DUP2 DUP6 ADD MLOAD PUSH1 0x3 DUP6 ADD SSTORE SWAP2 DUP2 ADD MLOAD PUSH1 0x4 DUP5 ADD SSTORE PUSH1 0x60 DUP2 ADD MLOAD PUSH1 0x5 DUP5 ADD SSTORE PUSH1 0x80 DUP2 ADD MLOAD PUSH1 0x6 DUP5 ADD SSTORE PUSH1 0xA0 DUP2 ADD MLOAD PUSH1 0x7 DUP5 ADD SSTORE PUSH1 0xC0 DUP2 ADD MLOAD PUSH1 0x8 DUP5 ADD SSTORE PUSH1 0xE0 DUP2 ADD MLOAD DUP1 MLOAD SWAP4 SWAP5 SWAP2 SWAP4 PUSH2 0x15CD SWAP3 PUSH1 0x9 DUP8 ADD SWAP3 ADD SWAP1 PUSH2 0x27E7 JUMP JUMPDEST POP PUSH2 0x100 SWAP2 DUP3 ADD MLOAD PUSH1 0x8 SWAP2 SWAP1 SWAP2 ADD DUP1 SLOAD PUSH1 0xFF NOT AND SWAP2 ISZERO ISZERO SWAP2 SWAP1 SWAP2 OR SWAP1 SSTORE PUSH1 0x60 DUP4 DUP2 ADD MLOAD DUP1 MLOAD PUSH1 0xB DUP6 ADD SSTORE PUSH1 0x20 DUP1 DUP3 ADD MLOAD PUSH1 0xC DUP7 ADD SSTORE PUSH1 0x40 DUP1 DUP4 ADD MLOAD PUSH1 0xD DUP8 ADD SSTORE DUP3 DUP5 ADD MLOAD PUSH1 0xE DUP8 ADD SSTORE PUSH1 0x80 DUP1 DUP5 ADD MLOAD PUSH1 0xF DUP9 ADD SSTORE PUSH1 0xA0 DUP1 DUP6 ADD MLOAD PUSH1 0x10 DUP10 ADD SSTORE PUSH1 0xC0 SWAP5 DUP6 ADD MLOAD PUSH1 0x11 DUP10 ADD SSTORE DUP2 DUP10 ADD MLOAD DUP1 MLOAD PUSH1 0x12 DUP11 ADD SSTORE DUP1 DUP6 ADD MLOAD PUSH1 0x13 DUP11 ADD SSTORE SWAP3 DUP4 ADD MLOAD PUSH1 0x14 DUP10 ADD SSTORE SWAP5 DUP3 ADD MLOAD PUSH1 0x15 DUP9 ADD SSTORE DUP2 ADD MLOAD PUSH1 0x16 DUP8 ADD SSTORE DUP1 DUP5 ADD MLOAD PUSH1 0x17 DUP8 ADD SSTORE DUP1 DUP4 ADD MLOAD PUSH1 0x18 DUP8 ADD SSTORE PUSH1 0xE0 DUP1 DUP3 ADD MLOAD PUSH1 0x19 DUP9 ADD SSTORE SWAP1 DUP6 ADD MLOAD PUSH1 0x1A DUP8 ADD SSTORE SWAP3 DUP7 ADD MLOAD PUSH1 0x1B DUP7 ADD SSTORE SWAP1 DUP6 ADD MLOAD PUSH1 0x1C DUP6 ADD SSTORE SWAP1 DUP5 ADD MLOAD PUSH1 0x1D DUP5 ADD SSTORE SWAP1 DUP4 ADD MLOAD PUSH1 0x1E DUP4 ADD SSTORE PUSH2 0x120 DUP4 ADD MLOAD PUSH1 0x1F DUP4 ADD SSTORE PUSH2 0x140 DUP4 ADD MLOAD DUP2 DUP4 ADD SSTORE PUSH2 0x160 DUP4 ADD MLOAD DUP1 MLOAD PUSH2 0x16DC SWAP3 PUSH1 0x21 DUP6 ADD SWAP3 ADD SWAP1 PUSH2 0x27E7 JUMP JUMPDEST POP SWAP1 POP POP PUSH32 0x444142D28D04B5C8AD1133BCAEAD1C674D76E23DAB3C34510C64F69D66EC39F4 DUP5 DUP5 DUP4 DUP6 PUSH1 0x40 MLOAD PUSH2 0x1715 SWAP5 SWAP4 SWAP3 SWAP2 SWAP1 PUSH2 0x34D8 JUMP JUMPDEST PUSH1 0x40 MLOAD DUP1 SWAP2 SUB SWAP1 LOG1 POP POP POP POP JUMP JUMPDEST PUSH2 0x172B PUSH2 0x216E JUMP JUMPDEST PUSH2 0x782 PUSH0 PUSH2 0x247E JUMP JUMPDEST PUSH32 0xF0C57E16840DF040F15088DC2F81FE391C3923BEC73E23A9662EFC9C229C6A00 DUP1 SLOAD PUSH1 0x1 PUSH1 0x40 SHL DUP2 DIV PUSH1 0xFF AND ISZERO SWAP1 PUSH1 0x1 PUSH1 0x1 PUSH1 0x40 SHL SUB AND PUSH0 DUP2 ISZERO DUP1 ISZERO PUSH2 0x1778 JUMPI POP DUP3 JUMPDEST SWAP1 POP PUSH0 DUP3 PUSH1 0x1 PUSH1 0x1 PUSH1 0x40 SHL SUB AND PUSH1 0x1 EQ DUP1 ISZERO PUSH2 0x1793 JUMPI POP ADDRESS EXTCODESIZE ISZERO JUMPDEST SWAP1 POP DUP2 ISZERO DUP1 ISZERO PUSH2 0x17A1 JUMPI POP DUP1 ISZERO JUMPDEST ISZERO PUSH2 0x17BF JUMPI PUSH1 0x40 MLOAD PUSH4 0xF92EE8A9 PUSH1 0xE0 SHL DUP2 MSTORE PUSH1 0x4 ADD PUSH1 0x40 MLOAD DUP1 SWAP2 SUB SWAP1 REVERT JUMPDEST DUP5 SLOAD PUSH8 0xFFFFFFFFFFFFFFFF NOT AND PUSH1 0x1 OR DUP6 SSTORE DUP4 ISZERO PUSH2 0x17E9 JUMPI DUP5 SLOAD PUSH1 0xFF PUSH1 0x40 SHL NOT AND PUSH1 0x1 PUSH1 0x40 SHL OR DUP6 SSTORE JUMPDEST PUSH2 0x17F1 PUSH2 0x24EE JUMP JUMPDEST PUSH2 0x17FA CALLER PUSH2 0x24FE JUMP JUMPDEST PUSH2 0x1802 PUSH2 0x250F JUMP JUMPDEST PUSH2 0x180A PUSH2 0x2517 JUMP JUMPDEST DUP4 ISZERO PUSH2 0x1850 JUMPI DUP5 SLOAD PUSH1 0xFF PUSH1 0x40 SHL NOT AND DUP6 SSTORE PUSH1 0x40 MLOAD PUSH1 0x1 DUP2 MSTORE PUSH32 0xC7F505B2F371AE2175EE4913F4499E1F2633A7B5936321EED1CDAEB6115181D2 SWAP1 PUSH1 0x20 ADD PUSH1 0x40 MLOAD DUP1 SWAP2 SUB SWAP1 LOG1 JUMPDEST POP POP POP POP POP JUMP JUMPDEST PUSH2 0x185F PUSH2 0x216E JUMP JUMPDEST PUSH2 0x782 PUSH2 0x2527 JUMP JUMPDEST PUSH0 DUP4 DUP2 MSTORE PUSH1 0x5 PUSH1 0x20 MSTORE PUSH1 0x40 SWAP1 KECCAK256 SLOAD PUSH1 0x60 SWAP1 DUP3 LT PUSH2 0x189B JUMPI PUSH0 DUP5 DUP2 MSTORE PUSH1 0x5 PUSH1 0x20 MSTORE PUSH1 0x40 SWAP1 KECCAK256 SLOAD PUSH2 0x1898 SWAP1 PUSH1 0x1 SWAP1 PUSH2 0x348E JUMP JUMPDEST SWAP2 POP JUMPDEST PUSH0 DUP5 DUP2 MSTORE PUSH1 0x5 PUSH1 0x20 MSTORE PUSH1 0x40 DUP2 KECCAK256 SLOAD PUSH1 0x1 PUSH1 0x1 PUSH1 0x40 SHL SUB DUP2 GT ISZERO PUSH2 0x18C0 JUMPI PUSH2 0x18C0 PUSH2 0x2B8D JUMP JUMPDEST PUSH1 0x40 MLOAD SWAP1 DUP1 DUP3 MSTORE DUP1 PUSH1 0x20 MUL PUSH1 0x20 ADD DUP3 ADD PUSH1 0x40 MSTORE DUP1 ISZERO PUSH2 0x18F9 JUMPI DUP2 PUSH1 0x20 ADD JUMPDEST PUSH2 0x18E6 PUSH2 0x2830 JUMP JUMPDEST DUP2 MSTORE PUSH1 0x20 ADD SWAP1 PUSH1 0x1 SWAP1 SUB SWAP1 DUP2 PUSH2 0x18DE JUMPI SWAP1 POP JUMPDEST POP SWAP1 POP PUSH0 DUP5 JUMPDEST DUP5 DUP2 GT PUSH2 0x1BB1 JUMPI PUSH0 DUP8 DUP2 MSTORE PUSH1 0x4 PUSH1 0x20 MSTORE PUSH1 0x40 SWAP1 KECCAK256 DUP1 SLOAD DUP3 SWAP1 DUP2 LT PUSH2 0x1925 JUMPI PUSH2 0x1925 PUSH2 0x34C4 JUMP JUMPDEST SWAP1 PUSH0 MSTORE PUSH1 0x20 PUSH0 KECCAK256 SWAP1 PUSH1 0x22 MUL ADD PUSH1 0x40 MLOAD DUP1 PUSH2 0x180 ADD PUSH1 0x40 MSTORE SWAP1 DUP2 PUSH0 DUP3 ADD SLOAD DUP2 MSTORE PUSH1 0x20 ADD PUSH1 0x1 DUP3 ADD SLOAD DUP2 MSTORE PUSH1 0x20 ADD PUSH1 0x2 DUP3 ADD PUSH1 0x40 MLOAD DUP1 PUSH2 0x120 ADD PUSH1 0x40 MSTORE SWAP1 DUP2 PUSH0 DUP3 ADD SLOAD DUP2 MSTORE PUSH1 0x20 ADD PUSH1 0x1 DUP3 ADD SLOAD DUP2 MSTORE PUSH1 0x20 ADD PUSH1 0x2 DUP3 ADD SLOAD DUP2 MSTORE PUSH1 0x20 ADD PUSH1 0x3 DUP3 ADD SLOAD DUP2 MSTORE PUSH1 0x20 ADD PUSH1 0x4 DUP3 ADD SLOAD DUP2 MSTORE PUSH1 0x20 ADD PUSH1 0x5 DUP3 ADD SLOAD DUP2 MSTORE PUSH1 0x20 ADD PUSH1 0x6 DUP3 ADD SLOAD DUP2 MSTORE PUSH1 0x20 ADD PUSH1 0x7 DUP3 ADD DUP1 SLOAD DUP1 PUSH1 0x20 MUL PUSH1 0x20 ADD PUSH1 0x40 MLOAD SWAP1 DUP2 ADD PUSH1 0x40 MSTORE DUP1 SWAP3 SWAP2 SWAP1 DUP2 DUP2 MSTORE PUSH1 0x20 ADD DUP3 DUP1 SLOAD DUP1 ISZERO PUSH2 0x19F3 JUMPI PUSH1 0x20 MUL DUP3 ADD SWAP2 SWAP1 PUSH0 MSTORE PUSH1 0x20 PUSH0 KECCAK256 SWAP1 JUMPDEST DUP2 SLOAD DUP2 MSTORE PUSH1 0x20 ADD SWAP1 PUSH1 0x1 ADD SWAP1 DUP1 DUP4 GT PUSH2 0x19DF JUMPI JUMPDEST POP POP POP POP POP DUP2 MSTORE PUSH1 0x20 ADD PUSH1 0x8 DUP3 ADD PUSH0 SWAP1 SLOAD SWAP1 PUSH2 0x100 EXP SWAP1 DIV PUSH1 0xFF AND ISZERO ISZERO ISZERO ISZERO DUP2 MSTORE POP POP DUP2 MSTORE PUSH1 0x20 ADD PUSH1 0xB DUP3 ADD PUSH1 0x40 MLOAD DUP1 PUSH1 0xE0 ADD PUSH1 0x40 MSTORE SWAP1 DUP2 PUSH0 DUP3 ADD SLOAD DUP2 MSTORE PUSH1 0x20 ADD PUSH1 0x1 DUP3 ADD SLOAD DUP2 MSTORE PUSH1 0x20 ADD PUSH1 0x2 DUP3 ADD SLOAD DUP2 MSTORE PUSH1 0x20 ADD PUSH1 0x3 DUP3 ADD SLOAD DUP2 MSTORE PUSH1 0x20 ADD PUSH1 0x4 DUP3 ADD SLOAD DUP2 MSTORE PUSH1 0x20 ADD PUSH1 0x5 DUP3 ADD SLOAD DUP2 MSTORE PUSH1 0x20 ADD PUSH1 0x6 DUP3 ADD SLOAD DUP2 MSTORE POP POP DUP2 MSTORE PUSH1 0x20 ADD PUSH1 0x12 DUP3 ADD PUSH1 0x40 MLOAD DUP1 PUSH2 0x120 ADD PUSH1 0x40 MSTORE SWAP1 DUP2 PUSH0 DUP3 ADD SLOAD DUP2 MSTORE PUSH1 0x20 ADD PUSH1 0x1 DUP3 ADD SLOAD DUP2 MSTORE PUSH1 0x20 ADD PUSH1 0x2 DUP3 ADD SLOAD DUP2 MSTORE PUSH1 0x20 ADD PUSH1 0x3 DUP3 ADD SLOAD DUP2 MSTORE PUSH1 0x20 ADD PUSH1 0x4 DUP3 ADD SLOAD DUP2 MSTORE PUSH1 0x20 ADD PUSH1 0x5 DUP3 ADD SLOAD DUP2 MSTORE PUSH1 0x20 ADD PUSH1 0x6 DUP3 ADD SLOAD DUP2 MSTORE PUSH1 0x20 ADD PUSH1 0x7 DUP3 ADD SLOAD DUP2 MSTORE PUSH1 0x20 ADD PUSH1 0x8 DUP3 ADD SLOAD DUP2 MSTORE POP POP DUP2 MSTORE PUSH1 0x20 ADD PUSH1 0x1B DUP3 ADD SLOAD DUP2 MSTORE PUSH1 0x20 ADD PUSH1 0x1C DUP3 ADD SLOAD DUP2 MSTORE PUSH1 0x20 ADD PUSH1 0x1D DUP3 ADD SLOAD DUP2 MSTORE PUSH1 0x20 ADD PUSH1 0x1E DUP3 ADD SLOAD DUP2 MSTORE PUSH1 0x20 ADD PUSH1 0x1F DUP3 ADD SLOAD DUP2 MSTORE PUSH1 0x20 ADD PUSH1 0x20 DUP3 ADD SLOAD DUP2 MSTORE PUSH1 0x20 ADD PUSH1 0x21 DUP3 ADD DUP1 SLOAD DUP1 PUSH1 0x20 MUL PUSH1 0x20 ADD PUSH1 0x40 MLOAD SWAP1 DUP2 ADD PUSH1 0x40 MSTORE DUP1 SWAP3 SWAP2 SWAP1 DUP2 DUP2 MSTORE PUSH1 0x20 ADD DUP3 DUP1 SLOAD DUP1 ISZERO PUSH2 0x1B6A JUMPI PUSH1 0x20 MUL DUP3 ADD SWAP2 SWAP1 PUSH0 MSTORE PUSH1 0x20 PUSH0 KECCAK256 SWAP1 JUMPDEST DUP2 SLOAD DUP2 MSTORE PUSH1 0x20 ADD SWAP1 PUSH1 0x1 ADD SWAP1 DUP1 DUP4 GT PUSH2 0x1B56 JUMPI JUMPDEST POP POP POP POP POP DUP2 MSTORE POP POP DUP4 DUP4 DUP2 MLOAD DUP2 LT PUSH2 0x1B85 JUMPI PUSH2 0x1B85 PUSH2 0x34C4 JUMP JUMPDEST PUSH1 0x20 MUL PUSH1 0x20 ADD ADD DUP2 SWAP1 MSTORE POP DUP2 DUP1 PUSH2 0x1B9B SWAP1 PUSH2 0x32DF JUMP JUMPDEST SWAP3 POP POP DUP1 DUP1 PUSH2 0x1BA9 SWAP1 PUSH2 0x32DF JUMP JUMPDEST SWAP2 POP POP PUSH2 0x18FF JUMP JUMPDEST POP PUSH0 DUP2 PUSH1 0x1 PUSH1 0x1 PUSH1 0x40 SHL SUB DUP2 GT ISZERO PUSH2 0x1BCB JUMPI PUSH2 0x1BCB PUSH2 0x2B8D JUMP JUMPDEST PUSH1 0x40 MLOAD SWAP1 DUP1 DUP3 MSTORE DUP1 PUSH1 0x20 MUL PUSH1 0x20 ADD DUP3 ADD PUSH1 0x40 MSTORE DUP1 ISZERO PUSH2 0x1C04 JUMPI DUP2 PUSH1 0x20 ADD JUMPDEST PUSH2 0x1BF1 PUSH2 0x2830 JUMP JUMPDEST DUP2 MSTORE PUSH1 0x20 ADD SWAP1 PUSH1 0x1 SWAP1 SUB SWAP1 DUP2 PUSH2 0x1BE9 JUMPI SWAP1 POP JUMPDEST POP SWAP1 POP PUSH0 JUMPDEST DUP3 DUP2 LT ISZERO PUSH2 0x1C50 JUMPI DUP4 DUP2 DUP2 MLOAD DUP2 LT PUSH2 0x1C23 JUMPI PUSH2 0x1C23 PUSH2 0x34C4 JUMP JUMPDEST PUSH1 0x20 MUL PUSH1 0x20 ADD ADD MLOAD DUP3 DUP3 DUP2 MLOAD DUP2 LT PUSH2 0x1C3D JUMPI PUSH2 0x1C3D PUSH2 0x34C4 JUMP JUMPDEST PUSH1 0x20 SWAP1 DUP2 MUL SWAP2 SWAP1 SWAP2 ADD ADD MSTORE PUSH1 0x1 ADD PUSH2 0x1C09 JUMP JUMPDEST POP SWAP3 POP POP POP JUMPDEST SWAP4 SWAP3 POP POP POP JUMP JUMPDEST PUSH2 0x1C65 PUSH2 0x216E JUMP JUMPDEST PUSH0 DUP10 GT PUSH2 0x1CC0 JUMPI PUSH1 0x40 MLOAD PUSH3 0x461BCD PUSH1 0xE5 SHL DUP2 MSTORE PUSH1 0x20 PUSH1 0x4 DUP3 ADD MSTORE PUSH1 0x24 DUP1 DUP3 ADD MSTORE PUSH32 0x4D697373696F6E204944206D7573742062652067726561746572207468616E20 PUSH1 0x44 DUP3 ADD MSTORE PUSH4 0x7A65726F PUSH1 0xE0 SHL PUSH1 0x64 DUP3 ADD MSTORE PUSH1 0x84 ADD PUSH2 0x564 JUMP JUMPDEST PUSH1 0x3 SLOAD PUSH2 0x1CCE SWAP1 PUSH1 0x1 PUSH2 0x3508 JUMP JUMPDEST DUP10 GT ISZERO PUSH2 0x1D29 JUMPI PUSH1 0x40 MLOAD PUSH3 0x461BCD PUSH1 0xE5 SHL DUP2 MSTORE PUSH1 0x20 PUSH1 0x4 DUP3 ADD MSTORE PUSH1 0x24 DUP1 DUP3 ADD MSTORE PUSH32 0x4D697373696F6E2049442065786365656473206E65787420617661696C61626C PUSH1 0x44 DUP3 ADD MSTORE PUSH4 0x19481251 PUSH1 0xE2 SHL PUSH1 0x64 DUP3 ADD MSTORE PUSH1 0x84 ADD PUSH2 0x564 JUMP JUMPDEST PUSH1 0x3 SLOAD DUP10 GT PUSH2 0x1DDA JUMPI PUSH0 DUP10 DUP2 MSTORE PUSH1 0x2 PUSH1 0x20 DUP2 DUP2 MSTORE PUSH1 0x40 SWAP1 SWAP3 KECCAK256 PUSH1 0x1 DUP2 ADD DUP12 SWAP1 SSTORE PUSH1 0x3 DUP2 ADD DUP10 SWAP1 SSTORE SWAP1 DUP2 ADD DUP10 SWAP1 SSTORE PUSH1 0x4 DUP2 ADD DUP8 SWAP1 SSTORE PUSH1 0x5 DUP2 ADD DUP7 SWAP1 SSTORE PUSH1 0x6 DUP2 ADD DUP6 SWAP1 SSTORE PUSH1 0x8 DUP2 ADD DUP1 SLOAD PUSH1 0xFF NOT AND DUP6 ISZERO ISZERO OR SWAP1 SSTORE DUP3 MLOAD PUSH2 0x1D8F SWAP3 PUSH1 0x7 SWAP1 SWAP3 ADD SWAP2 DUP5 ADD SWAP1 PUSH2 0x27E7 JUMP JUMPDEST POP PUSH0 DUP10 DUP2 MSTORE PUSH1 0x2 PUSH1 0x20 MSTORE PUSH1 0x40 DUP1 DUP3 KECCAK256 SWAP1 MLOAD PUSH32 0x5BF76A866F4180B9074BE9EC53EADD0EE4DFAEEFD563216BDAF35E113211DF1C SWAP3 PUSH2 0x1DCD SWAP3 SWAP1 SWAP2 PUSH2 0x354D JUMP JUMPDEST PUSH1 0x40 MLOAD DUP1 SWAP2 SUB SWAP1 LOG1 PUSH2 0x1F0C JUMP JUMPDEST PUSH0 PUSH1 0x40 MLOAD DUP1 PUSH2 0x120 ADD PUSH1 0x40 MSTORE DUP1 PUSH1 0x3 SLOAD PUSH1 0x1 PUSH2 0x1DF6 SWAP2 SWAP1 PUSH2 0x3508 JUMP JUMPDEST DUP2 MSTORE PUSH1 0x20 ADD DUP11 DUP2 MSTORE PUSH1 0x20 ADD DUP10 DUP2 MSTORE PUSH1 0x20 ADD DUP9 DUP2 MSTORE PUSH1 0x20 ADD DUP8 DUP2 MSTORE PUSH1 0x20 ADD DUP7 DUP2 MSTORE PUSH1 0x20 ADD DUP6 DUP2 MSTORE PUSH1 0x20 ADD DUP4 DUP2 MSTORE PUSH1 0x20 ADD DUP5 ISZERO ISZERO DUP2 MSTORE POP SWAP1 POP DUP1 PUSH1 0x2 PUSH0 PUSH1 0x3 PUSH0 DUP2 SLOAD PUSH2 0x1E3F SWAP1 PUSH2 0x32DF JUMP JUMPDEST SWAP2 SWAP1 POP DUP2 SWAP1 SSTORE DUP2 MSTORE PUSH1 0x20 ADD SWAP1 DUP2 MSTORE PUSH1 0x20 ADD PUSH0 KECCAK256 PUSH0 DUP3 ADD MLOAD DUP2 PUSH0 ADD SSTORE PUSH1 0x20 DUP3 ADD MLOAD DUP2 PUSH1 0x1 ADD SSTORE PUSH1 0x40 DUP3 ADD MLOAD DUP2 PUSH1 0x2 ADD SSTORE PUSH1 0x60 DUP3 ADD MLOAD DUP2 PUSH1 0x3 ADD SSTORE PUSH1 0x80 DUP3 ADD MLOAD DUP2 PUSH1 0x4 ADD SSTORE PUSH1 0xA0 DUP3 ADD MLOAD DUP2 PUSH1 0x5 ADD SSTORE PUSH1 0xC0 DUP3 ADD MLOAD DUP2 PUSH1 0x6 ADD SSTORE PUSH1 0xE0 DUP3 ADD MLOAD DUP2 PUSH1 0x7 ADD SWAP1 DUP1 MLOAD SWAP1 PUSH1 0x20 ADD SWAP1 PUSH2 0x1EB2 SWAP3 SWAP2 SWAP1 PUSH2 0x27E7 JUMP JUMPDEST POP PUSH2 0x100 SWAP2 SWAP1 SWAP2 ADD MLOAD PUSH1 0x8 SWAP1 SWAP2 ADD DUP1 SLOAD PUSH1 0xFF NOT AND SWAP2 ISZERO ISZERO SWAP2 SWAP1 SWAP2 OR SWAP1 SSTORE PUSH1 0x40 MLOAD PUSH32 0x5BF76A866F4180B9074BE9EC53EADD0EE4DFAEEFD563216BDAF35E113211DF1C SWAP1 PUSH2 0x1F02 SWAP1 PUSH1 0x1 SWAP1 DUP5 SWAP1 PUSH2 0x35D2 JUMP JUMPDEST PUSH1 0x40 MLOAD DUP1 SWAP2 SUB SWAP1 LOG1 POP JUMPDEST POP POP POP POP POP POP POP POP POP JUMP JUMPDEST PUSH2 0x1F1F PUSH2 0x216E JUMP JUMPDEST PUSH1 0x1 PUSH1 0x1 PUSH1 0xA0 SHL SUB DUP2 AND PUSH2 0x1F66 JUMPI PUSH1 0x40 MLOAD PUSH3 0x461BCD PUSH1 0xE5 SHL DUP2 MSTORE PUSH1 0x20 PUSH1 0x4 DUP3 ADD MSTORE PUSH1 0xE PUSH1 0x24 DUP3 ADD MSTORE PUSH14 0x10D85B9B9BDD081899481B9D5B1B PUSH1 0x92 SHL PUSH1 0x44 DUP3 ADD MSTORE PUSH1 0x64 ADD PUSH2 0x564 JUMP JUMPDEST PUSH0 DUP1 SLOAD PUSH1 0x1 PUSH1 0x1 PUSH1 0xA0 SHL SUB NOT AND PUSH1 0x1 PUSH1 0x1 PUSH1 0xA0 SHL SUB SWAP3 SWAP1 SWAP3 AND SWAP2 SWAP1 SWAP2 OR SWAP1 SSTORE JUMP JUMPDEST PUSH2 0x1F8F PUSH2 0x290A JUMP JUMPDEST PUSH1 0x60 PUSH0 PUSH1 0x2 PUSH0 DUP6 DUP2 MSTORE PUSH1 0x20 ADD SWAP1 DUP2 MSTORE PUSH1 0x20 ADD PUSH0 KECCAK256 PUSH1 0x40 MLOAD DUP1 PUSH2 0x120 ADD PUSH1 0x40 MSTORE SWAP1 DUP2 PUSH0 DUP3 ADD SLOAD DUP2 MSTORE PUSH1 0x20 ADD PUSH1 0x1 DUP3 ADD SLOAD DUP2 MSTORE PUSH1 0x20 ADD PUSH1 0x2 DUP3 ADD SLOAD DUP2 MSTORE PUSH1 0x20 ADD PUSH1 0x3 DUP3 ADD SLOAD DUP2 MSTORE PUSH1 0x20 ADD PUSH1 0x4 DUP3 ADD SLOAD DUP2 MSTORE PUSH1 0x20 ADD PUSH1 0x5 DUP3 ADD SLOAD DUP2 MSTORE PUSH1 0x20 ADD PUSH1 0x6 DUP3 ADD SLOAD DUP2 MSTORE PUSH1 0x20 ADD PUSH1 0x7 DUP3 ADD DUP1 SLOAD DUP1 PUSH1 0x20 MUL PUSH1 0x20 ADD PUSH1 0x40 MLOAD SWAP1 DUP2 ADD PUSH1 0x40 MSTORE DUP1 SWAP3 SWAP2 SWAP1 DUP2 DUP2 MSTORE PUSH1 0x20 ADD DUP3 DUP1 SLOAD DUP1 ISZERO PUSH2 0x2041 JUMPI PUSH1 0x20 MUL DUP3 ADD SWAP2 SWAP1 PUSH0 MSTORE PUSH1 0x20 PUSH0 KECCAK256 SWAP1 JUMPDEST DUP2 SLOAD DUP2 MSTORE PUSH1 0x20 ADD SWAP1 PUSH1 0x1 ADD SWAP1 DUP1 DUP4 GT PUSH2 0x202D JUMPI JUMPDEST POP POP POP SWAP2 DUP4 MSTORE POP POP PUSH1 0x8 SWAP2 SWAP1 SWAP2 ADD SLOAD PUSH1 0xFF AND ISZERO ISZERO PUSH1 0x20 SWAP2 DUP3 ADD MSTORE PUSH0 DUP7 DUP2 MSTORE PUSH1 0x2 DUP1 DUP4 MSTORE PUSH1 0x40 SWAP2 DUP3 SWAP1 KECCAK256 PUSH1 0xE0 DUP1 DUP7 ADD MLOAD DUP5 MLOAD PUSH2 0x120 DUP2 ADD DUP7 MSTORE DUP4 SLOAD DUP2 MSTORE PUSH1 0x1 DUP5 ADD SLOAD DUP2 DUP9 ADD MSTORE SWAP4 DUP4 ADD SLOAD DUP5 DUP7 ADD MSTORE PUSH1 0x3 DUP4 ADD SLOAD PUSH1 0x60 DUP6 ADD MSTORE PUSH1 0x4 DUP4 ADD SLOAD PUSH1 0x80 DUP6 ADD MSTORE PUSH1 0x5 DUP4 ADD SLOAD PUSH1 0xA0 DUP6 ADD MSTORE PUSH1 0x6 DUP4 ADD SLOAD PUSH1 0xC0 DUP6 ADD MSTORE PUSH1 0x7 DUP4 ADD DUP1 SLOAD DUP7 MLOAD DUP2 DUP10 MUL DUP2 ADD DUP10 ADD SWAP1 SWAP8 MSTORE DUP1 DUP8 MSTORE SWAP8 SWAP9 POP SWAP3 SWAP7 SWAP1 SWAP6 SWAP4 SWAP5 DUP8 SWAP5 SWAP3 DUP7 ADD SWAP4 SWAP1 SWAP3 SWAP1 SWAP2 SWAP1 DUP4 ADD DUP3 DUP3 DUP1 ISZERO PUSH2 0x210C JUMPI PUSH1 0x20 MUL DUP3 ADD SWAP2 SWAP1 PUSH0 MSTORE PUSH1 0x20 PUSH0 KECCAK256 SWAP1 JUMPDEST DUP2 SLOAD DUP2 MSTORE PUSH1 0x20 ADD SWAP1 PUSH1 0x1 ADD SWAP1 DUP1 DUP4 GT PUSH2 0x20F8 JUMPI JUMPDEST POP POP POP SWAP2 DUP4 MSTORE POP POP PUSH1 0x8 SWAP2 SWAP1 SWAP2 ADD SLOAD PUSH1 0xFF AND ISZERO ISZERO PUSH1 0x20 SWAP1 SWAP2 ADD MSTORE SWAP7 SWAP1 SWAP6 POP SWAP4 POP POP POP POP JUMP JUMPDEST PUSH2 0x2139 PUSH2 0x216E JUMP JUMPDEST PUSH1 0x1 PUSH1 0x1 PUSH1 0xA0 SHL SUB DUP2 AND PUSH2 0x2162 JUMPI PUSH1 0x40 MLOAD PUSH4 0x1E4FBDF7 PUSH1 0xE0 SHL DUP2 MSTORE PUSH0 PUSH1 0x4 DUP3 ADD MSTORE PUSH1 0x24 ADD PUSH2 0x564 JUMP JUMPDEST PUSH2 0x216B DUP2 PUSH2 0x247E JUMP JUMPDEST POP JUMP JUMPDEST CALLER PUSH2 0x21A0 PUSH32 0x9016D09D72D40FDAE2FD8CEAC6B6234C7706214FD39C1CD1E609A0528C199300 SLOAD PUSH1 0x1 PUSH1 0x1 PUSH1 0xA0 SHL SUB AND SWAP1 JUMP JUMPDEST PUSH1 0x1 PUSH1 0x1 PUSH1 0xA0 SHL SUB AND EQ PUSH2 0x782 JUMPI PUSH1 0x40 MLOAD PUSH4 0x118CDAA7 PUSH1 0xE0 SHL DUP2 MSTORE CALLER PUSH1 0x4 DUP3 ADD MSTORE PUSH1 0x24 ADD PUSH2 0x564 JUMP JUMPDEST PUSH2 0x21D1 PUSH2 0x256F JUMP JUMPDEST PUSH0 DUP1 MLOAD PUSH1 0x20 PUSH2 0x363F DUP4 CODECOPY DUP2 MLOAD SWAP2 MSTORE DUP1 SLOAD PUSH1 0xFF NOT AND DUP2 SSTORE PUSH32 0x5DB9EE0A495BF2E6FF9C91A7834C1BA4FDD244A5E8AA4E537BD38AEAE4B073AA CALLER JUMPDEST PUSH1 0x40 MLOAD PUSH1 0x1 PUSH1 0x1 PUSH1 0xA0 SHL SUB SWAP1 SWAP2 AND DUP2 MSTORE PUSH1 0x20 ADD PUSH1 0x40 MLOAD DUP1 SWAP2 SUB SWAP1 LOG1 POP JUMP JUMPDEST ADDRESS PUSH1 0x1 PUSH1 0x1 PUSH1 0xA0 SHL SUB PUSH32 0x0 AND EQ DUP1 PUSH2 0x22AE JUMPI POP PUSH32 0x0 PUSH1 0x1 PUSH1 0x1 PUSH1 0xA0 SHL SUB AND PUSH2 0x22A2 PUSH0 DUP1 MLOAD PUSH1 0x20 PUSH2 0x361F DUP4 CODECOPY DUP2 MLOAD SWAP2 MSTORE SLOAD PUSH1 0x1 PUSH1 0x1 PUSH1 0xA0 SHL SUB AND SWAP1 JUMP JUMPDEST PUSH1 0x1 PUSH1 0x1 PUSH1 0xA0 SHL SUB AND EQ ISZERO JUMPDEST ISZERO PUSH2 0x782 JUMPI PUSH1 0x40 MLOAD PUSH4 0x703E46DD PUSH1 0xE1 SHL DUP2 MSTORE PUSH1 0x4 ADD PUSH1 0x40 MLOAD DUP1 SWAP2 SUB SWAP1 REVERT JUMPDEST PUSH2 0x216B PUSH2 0x216E JUMP JUMPDEST DUP2 PUSH1 0x1 PUSH1 0x1 PUSH1 0xA0 SHL SUB AND PUSH4 0x52D1902D PUSH1 0x40 MLOAD DUP2 PUSH4 0xFFFFFFFF AND PUSH1 0xE0 SHL DUP2 MSTORE PUSH1 0x4 ADD PUSH1 0x20 PUSH1 0x40 MLOAD DUP1 DUP4 SUB DUP2 DUP7 GAS STATICCALL SWAP3 POP POP POP DUP1 ISZERO PUSH2 0x232E JUMPI POP PUSH1 0x40 DUP1 MLOAD PUSH1 0x1F RETURNDATASIZE SWAP1 DUP2 ADD PUSH1 0x1F NOT AND DUP3 ADD SWAP1 SWAP3 MSTORE PUSH2 0x232B SWAP2 DUP2 ADD SWAP1 PUSH2 0x35EC JUMP JUMPDEST PUSH1 0x1 JUMPDEST PUSH2 0x2356 JUMPI PUSH1 0x40 MLOAD PUSH4 0x4C9C8CE3 PUSH1 0xE0 SHL DUP2 MSTORE PUSH1 0x1 PUSH1 0x1 PUSH1 0xA0 SHL SUB DUP4 AND PUSH1 0x4 DUP3 ADD MSTORE PUSH1 0x24 ADD PUSH2 0x564 JUMP JUMPDEST PUSH0 DUP1 MLOAD PUSH1 0x20 PUSH2 0x361F DUP4 CODECOPY DUP2 MLOAD SWAP2 MSTORE DUP2 EQ PUSH2 0x2386 JUMPI PUSH1 0x40 MLOAD PUSH4 0x2A875269 PUSH1 0xE2 SHL DUP2 MSTORE PUSH1 0x4 DUP2 ADD DUP3 SWAP1 MSTORE PUSH1 0x24 ADD PUSH2 0x564 JUMP JUMPDEST PUSH2 0x2390 DUP4 DUP4 PUSH2 0x259E JUMP JUMPDEST POP POP POP JUMP JUMPDEST ADDRESS PUSH1 0x1 PUSH1 0x1 PUSH1 0xA0 SHL SUB PUSH32 0x0 AND EQ PUSH2 0x782 JUMPI PUSH1 0x40 MLOAD PUSH4 0x703E46DD PUSH1 0xE1 SHL DUP2 MSTORE PUSH1 0x4 ADD PUSH1 0x40 MLOAD DUP1 SWAP2 SUB SWAP1 REVERT JUMPDEST PUSH0 DUP1 MLOAD PUSH1 0x20 PUSH2 0x363F DUP4 CODECOPY DUP2 MLOAD SWAP2 MSTORE SLOAD PUSH1 0xFF AND ISZERO PUSH2 0x782 JUMPI PUSH1 0x40 MLOAD PUSH4 0xD93C0665 PUSH1 0xE0 SHL DUP2 MSTORE PUSH1 0x4 ADD PUSH1 0x40 MLOAD DUP1 SWAP2 SUB SWAP1 REVERT JUMPDEST PUSH32 0x9B779B17422D0DF92223018B32B4D1FA46E071723D6817E2486D003BECC55F00 DUP1 SLOAD PUSH1 0x1 NOT ADD PUSH2 0x2452 JUMPI PUSH1 0x40 MLOAD PUSH4 0x3EE5AEB5 PUSH1 0xE0 SHL DUP2 MSTORE PUSH1 0x4 ADD PUSH1 0x40 MLOAD DUP1 SWAP2 SUB SWAP1 REVERT JUMPDEST PUSH1 0x2 SWAP1 SSTORE JUMP JUMPDEST PUSH1 0x1 PUSH32 0x9B779B17422D0DF92223018B32B4D1FA46E071723D6817E2486D003BECC55F00 SSTORE JUMP JUMPDEST PUSH32 0x9016D09D72D40FDAE2FD8CEAC6B6234C7706214FD39C1CD1E609A0528C199300 DUP1 SLOAD PUSH1 0x1 PUSH1 0x1 PUSH1 0xA0 SHL SUB NOT DUP2 AND PUSH1 0x1 PUSH1 0x1 PUSH1 0xA0 SHL SUB DUP5 DUP2 AND SWAP2 DUP3 OR DUP5 SSTORE PUSH1 0x40 MLOAD SWAP3 AND SWAP2 DUP3 SWAP1 PUSH32 0x8BE0079C531659141344CD1FD0A4F28419497F9722A3DAAFE3B4186F6B6457E0 SWAP1 PUSH0 SWAP1 LOG3 POP POP POP JUMP JUMPDEST PUSH2 0x24F6 PUSH2 0x25F3 JUMP JUMPDEST PUSH2 0x782 PUSH2 0x263C JUMP JUMPDEST PUSH2 0x2506 PUSH2 0x25F3 JUMP JUMPDEST PUSH2 0x216B DUP2 PUSH2 0x265C JUMP JUMPDEST PUSH2 0x782 PUSH2 0x25F3 JUMP JUMPDEST PUSH2 0x251F PUSH2 0x25F3 JUMP JUMPDEST PUSH2 0x782 PUSH2 0x2664 JUMP JUMPDEST PUSH2 0x252F PUSH2 0x23DE JUMP JUMPDEST PUSH0 DUP1 MLOAD PUSH1 0x20 PUSH2 0x363F DUP4 CODECOPY DUP2 MLOAD SWAP2 MSTORE DUP1 SLOAD PUSH1 0xFF NOT AND PUSH1 0x1 OR DUP2 SSTORE PUSH32 0x62E78CEA01BEE320CD4E420270B5EA74000D11B0C9F74754EBDBFC544B05A258 CALLER PUSH2 0x220A JUMP JUMPDEST PUSH0 DUP1 MLOAD PUSH1 0x20 PUSH2 0x363F DUP4 CODECOPY DUP2 MLOAD SWAP2 MSTORE SLOAD PUSH1 0xFF AND PUSH2 0x782 JUMPI PUSH1 0x40 MLOAD PUSH4 0x8DFC202B PUSH1 0xE0 SHL DUP2 MSTORE PUSH1 0x4 ADD PUSH1 0x40 MLOAD DUP1 SWAP2 SUB SWAP1 REVERT JUMPDEST PUSH2 0x25A7 DUP3 PUSH2 0x266C JUMP JUMPDEST PUSH1 0x40 MLOAD PUSH1 0x1 PUSH1 0x1 PUSH1 0xA0 SHL SUB DUP4 AND SWAP1 PUSH32 0xBC7CD75A20EE27FD9ADEBAB32041F755214DBC6BFFA90CC0225B39DA2E5C2D3B SWAP1 PUSH0 SWAP1 LOG2 DUP1 MLOAD ISZERO PUSH2 0x25EB JUMPI PUSH2 0x2390 DUP3 DUP3 PUSH2 0x26CF JUMP JUMPDEST PUSH2 0x9EE PUSH2 0x2743 JUMP JUMPDEST PUSH32 0xF0C57E16840DF040F15088DC2F81FE391C3923BEC73E23A9662EFC9C229C6A00 SLOAD PUSH1 0x1 PUSH1 0x40 SHL SWAP1 DIV PUSH1 0xFF AND PUSH2 0x782 JUMPI PUSH1 0x40 MLOAD PUSH4 0x1AFCD79F PUSH1 0xE3 SHL DUP2 MSTORE PUSH1 0x4 ADD PUSH1 0x40 MLOAD DUP1 SWAP2 SUB SWAP1 REVERT JUMPDEST PUSH2 0x2644 PUSH2 0x25F3 JUMP JUMPDEST PUSH0 DUP1 MLOAD PUSH1 0x20 PUSH2 0x363F DUP4 CODECOPY DUP2 MLOAD SWAP2 MSTORE DUP1 SLOAD PUSH1 0xFF NOT AND SWAP1 SSTORE JUMP JUMPDEST PUSH2 0x2139 PUSH2 0x25F3 JUMP JUMPDEST PUSH2 0x2458 PUSH2 0x25F3 JUMP JUMPDEST DUP1 PUSH1 0x1 PUSH1 0x1 PUSH1 0xA0 SHL SUB AND EXTCODESIZE PUSH0 SUB PUSH2 0x26A1 JUMPI PUSH1 0x40 MLOAD PUSH4 0x4C9C8CE3 PUSH1 0xE0 SHL DUP2 MSTORE PUSH1 0x1 PUSH1 0x1 PUSH1 0xA0 SHL SUB DUP3 AND PUSH1 0x4 DUP3 ADD MSTORE PUSH1 0x24 ADD PUSH2 0x564 JUMP JUMPDEST PUSH0 DUP1 MLOAD PUSH1 0x20 PUSH2 0x361F DUP4 CODECOPY DUP2 MLOAD SWAP2 MSTORE DUP1 SLOAD PUSH1 0x1 PUSH1 0x1 PUSH1 0xA0 SHL SUB NOT AND PUSH1 0x1 PUSH1 0x1 PUSH1 0xA0 SHL SUB SWAP3 SWAP1 SWAP3 AND SWAP2 SWAP1 SWAP2 OR SWAP1 SSTORE JUMP JUMPDEST PUSH1 0x60 PUSH0 DUP1 DUP5 PUSH1 0x1 PUSH1 0x1 PUSH1 0xA0 SHL SUB AND DUP5 PUSH1 0x40 MLOAD PUSH2 0x26EB SWAP2 SWAP1 PUSH2 0x3603 JUMP JUMPDEST PUSH0 PUSH1 0x40 MLOAD DUP1 DUP4 SUB DUP2 DUP6 GAS DELEGATECALL SWAP2 POP POP RETURNDATASIZE DUP1 PUSH0 DUP2 EQ PUSH2 0x2723 JUMPI PUSH1 0x40 MLOAD SWAP2 POP PUSH1 0x1F NOT PUSH1 0x3F RETURNDATASIZE ADD AND DUP3 ADD PUSH1 0x40 MSTORE RETURNDATASIZE DUP3 MSTORE RETURNDATASIZE PUSH0 PUSH1 0x20 DUP5 ADD RETURNDATACOPY PUSH2 0x2728 JUMP JUMPDEST PUSH1 0x60 SWAP2 POP JUMPDEST POP SWAP2 POP SWAP2 POP PUSH2 0x2738 DUP6 DUP4 DUP4 PUSH2 0x2762 JUMP JUMPDEST SWAP3 POP POP POP JUMPDEST SWAP3 SWAP2 POP POP JUMP JUMPDEST CALLVALUE ISZERO PUSH2 0x782 JUMPI PUSH1 0x40 MLOAD PUSH4 0xB398979F PUSH1 0xE0 SHL DUP2 MSTORE PUSH1 0x4 ADD PUSH1 0x40 MLOAD DUP1 SWAP2 SUB SWAP1 REVERT JUMPDEST PUSH1 0x60 DUP3 PUSH2 0x2777 JUMPI PUSH2 0x2772 DUP3 PUSH2 0x27BE JUMP JUMPDEST PUSH2 0x1C56 JUMP JUMPDEST DUP2 MLOAD ISZERO DUP1 ISZERO PUSH2 0x278E JUMPI POP PUSH1 0x1 PUSH1 0x1 PUSH1 0xA0 SHL SUB DUP5 AND EXTCODESIZE ISZERO JUMPDEST ISZERO PUSH2 0x27B7 JUMPI PUSH1 0x40 MLOAD PUSH4 0x9996B315 PUSH1 0xE0 SHL DUP2 MSTORE PUSH1 0x1 PUSH1 0x1 PUSH1 0xA0 SHL SUB DUP6 AND PUSH1 0x4 DUP3 ADD MSTORE PUSH1 0x24 ADD PUSH2 0x564 JUMP JUMPDEST POP DUP1 PUSH2 0x1C56 JUMP JUMPDEST DUP1 MLOAD ISZERO PUSH2 0x27CE JUMPI DUP1 MLOAD DUP1 DUP3 PUSH1 0x20 ADD REVERT JUMPDEST PUSH1 0x40 MLOAD PUSH4 0xD6BDA275 PUSH1 0xE0 SHL DUP2 MSTORE PUSH1 0x4 ADD PUSH1 0x40 MLOAD DUP1 SWAP2 SUB SWAP1 REVERT JUMPDEST DUP3 DUP1 SLOAD DUP3 DUP3 SSTORE SWAP1 PUSH0 MSTORE PUSH1 0x20 PUSH0 KECCAK256 SWAP1 DUP2 ADD SWAP3 DUP3 ISZERO PUSH2 0x2820 JUMPI SWAP2 PUSH1 0x20 MUL DUP3 ADD JUMPDEST DUP3 DUP2 GT ISZERO PUSH2 0x2820 JUMPI DUP3 MLOAD DUP3 SSTORE SWAP2 PUSH1 0x20 ADD SWAP2 SWAP1 PUSH1 0x1 ADD SWAP1 PUSH2 0x2805 JUMP JUMPDEST POP PUSH2 0x282C SWAP3 SWAP2 POP PUSH2 0x2950 JUMP JUMPDEST POP SWAP1 JUMP JUMPDEST PUSH1 0x40 MLOAD DUP1 PUSH2 0x180 ADD PUSH1 0x40 MSTORE DUP1 PUSH0 DUP2 MSTORE PUSH1 0x20 ADD PUSH0 DUP2 MSTORE PUSH1 0x20 ADD PUSH2 0x2850 PUSH2 0x290A JUMP JUMPDEST DUP2 MSTORE PUSH1 0x20 ADD PUSH2 0x288E PUSH1 0x40 MLOAD DUP1 PUSH1 0xE0 ADD PUSH1 0x40 MSTORE DUP1 PUSH0 DUP2 MSTORE PUSH1 0x20 ADD PUSH0 DUP2 MSTORE PUSH1 0x20 ADD PUSH0 DUP2 MSTORE PUSH1 0x20 ADD PUSH0 DUP2 MSTORE PUSH1 0x20 ADD PUSH0 DUP2 MSTORE PUSH1 0x20 ADD PUSH0 DUP2 MSTORE PUSH1 0x20 ADD PUSH0 DUP2 MSTORE POP SWAP1 JUMP JUMPDEST DUP2 MSTORE PUSH1 0x20 ADD PUSH2 0x28D9 PUSH1 0x40 MLOAD DUP1 PUSH2 0x120 ADD PUSH1 0x40 MSTORE DUP1 PUSH0 DUP2 MSTORE PUSH1 0x20 ADD PUSH0 DUP2 MSTORE PUSH1 0x20 ADD PUSH0 DUP2 MSTORE PUSH1 0x20 ADD PUSH0 DUP2 MSTORE PUSH1 0x20 ADD PUSH0 DUP2 MSTORE PUSH1 0x20 ADD PUSH0 DUP2 MSTORE PUSH1 0x20 ADD PUSH0 DUP2 MSTORE PUSH1 0x20 ADD PUSH0 DUP2 MSTORE PUSH1 0x20 ADD PUSH0 DUP2 MSTORE POP SWAP1 JUMP JUMPDEST DUP2 MSTORE PUSH1 0x20 ADD PUSH0 DUP2 MSTORE PUSH1 0x20 ADD PUSH0 DUP2 MSTORE PUSH1 0x20 ADD PUSH0 DUP2 MSTORE PUSH1 0x20 ADD PUSH0 DUP2 MSTORE PUSH1 0x20 ADD PUSH0 DUP2 MSTORE PUSH1 0x20 ADD PUSH0 DUP2 MSTORE PUSH1 0x20 ADD PUSH1 0x60 DUP2 MSTORE POP SWAP1 JUMP JUMPDEST PUSH1 0x40 MLOAD DUP1 PUSH2 0x120 ADD PUSH1 0x40 MSTORE DUP1 PUSH0 DUP2 MSTORE PUSH1 0x20 ADD PUSH0 DUP2 MSTORE PUSH1 0x20 ADD PUSH0 DUP2 MSTORE PUSH1 0x20 ADD PUSH0 DUP2 MSTORE PUSH1 0x20 ADD PUSH0 DUP2 MSTORE PUSH1 0x20 ADD PUSH0 DUP2 MSTORE PUSH1 0x20 ADD PUSH0 DUP2 MSTORE PUSH1 0x20 ADD PUSH1 0x60 DUP2 MSTORE PUSH1 0x20 ADD PUSH0 ISZERO ISZERO DUP2 MSTORE POP SWAP1 JUMP JUMPDEST JUMPDEST DUP1 DUP3 GT ISZERO PUSH2 0x282C JUMPI PUSH0 DUP2 SSTORE PUSH1 0x1 ADD PUSH2 0x2951 JUMP JUMPDEST PUSH1 0x1 PUSH1 0x1 PUSH1 0xA0 SHL SUB DUP2 AND DUP2 EQ PUSH2 0x216B JUMPI PUSH0 DUP1 REVERT JUMPDEST PUSH0 PUSH1 0x20 DUP3 DUP5 SUB SLT ISZERO PUSH2 0x2988 JUMPI PUSH0 DUP1 REVERT JUMPDEST DUP2 CALLDATALOAD PUSH2 0x1C56 DUP2 PUSH2 0x2964 JUMP JUMPDEST PUSH0 PUSH1 0x20 DUP3 DUP5 SUB SLT ISZERO PUSH2 0x29A3 JUMPI PUSH0 DUP1 REVERT JUMPDEST POP CALLDATALOAD SWAP2 SWAP1 POP JUMP JUMPDEST PUSH0 DUP1 PUSH1 0x40 DUP4 DUP6 SUB SLT ISZERO PUSH2 0x29BB JUMPI PUSH0 DUP1 REVERT JUMPDEST POP POP DUP1 CALLDATALOAD SWAP3 PUSH1 0x20 SWAP1 SWAP2 ADD CALLDATALOAD SWAP2 POP JUMP JUMPDEST PUSH0 DUP2 MLOAD DUP1 DUP5 MSTORE PUSH1 0x20 DUP1 DUP6 ADD SWAP5 POP PUSH1 0x20 DUP5 ADD PUSH0 JUMPDEST DUP4 DUP2 LT ISZERO PUSH2 0x29F9 JUMPI DUP2 MLOAD DUP8 MSTORE SWAP6 DUP3 ADD SWAP6 SWAP1 DUP3 ADD SWAP1 PUSH1 0x1 ADD PUSH2 0x29DD JUMP JUMPDEST POP SWAP5 SWAP6 SWAP5 POP POP POP POP POP JUMP JUMPDEST PUSH0 PUSH2 0x120 DUP3 MLOAD DUP5 MSTORE PUSH1 0x20 DUP4 ADD MLOAD PUSH1 0x20 DUP6 ADD MSTORE PUSH1 0x40 DUP4 ADD MLOAD PUSH1 0x40 DUP6 ADD MSTORE PUSH1 0x60 DUP4 ADD MLOAD PUSH1 0x60 DUP6 ADD MSTORE PUSH1 0x80 DUP4 ADD MLOAD PUSH1 0x80 DUP6 ADD MSTORE PUSH1 0xA0 DUP4 ADD MLOAD PUSH1 0xA0 DUP6 ADD MSTORE PUSH1 0xC0 DUP4 ADD MLOAD PUSH1 0xC0 DUP6 ADD MSTORE PUSH1 0xE0 DUP4 ADD MLOAD DUP2 PUSH1 0xE0 DUP7 ADD MSTORE PUSH2 0x2A5F DUP3 DUP7 ADD DUP3 PUSH2 0x29CA JUMP JUMPDEST PUSH2 0x100 SWAP5 DUP6 ADD MLOAD ISZERO ISZERO SWAP6 SWAP1 SWAP5 ADD SWAP5 SWAP1 SWAP5 MSTORE POP SWAP1 SWAP3 SWAP2 POP POP JUMP JUMPDEST DUP1 MLOAD DUP3 MSTORE PUSH1 0x20 DUP2 ADD MLOAD PUSH1 0x20 DUP4 ADD MSTORE PUSH1 0x40 DUP2 ADD MLOAD PUSH1 0x40 DUP4 ADD MSTORE PUSH1 0x60 DUP2 ADD MLOAD PUSH1 0x60 DUP4 ADD MSTORE PUSH1 0x80 DUP2 ADD MLOAD PUSH1 0x80 DUP4 ADD MSTORE PUSH1 0xA0 DUP2 ADD MLOAD PUSH1 0xA0 DUP4 ADD MSTORE PUSH1 0xC0 DUP2 ADD MLOAD PUSH1 0xC0 DUP4 ADD MSTORE POP POP JUMP JUMPDEST DUP1 MLOAD DUP3 MSTORE PUSH1 0x20 DUP2 ADD MLOAD PUSH1 0x20 DUP4 ADD MSTORE PUSH1 0x40 DUP2 ADD MLOAD PUSH1 0x40 DUP4 ADD MSTORE PUSH1 0x60 DUP2 ADD MLOAD PUSH1 0x60 DUP4 ADD MSTORE PUSH1 0x80 DUP2 ADD MLOAD PUSH1 0x80 DUP4 ADD MSTORE PUSH1 0xA0 DUP2 ADD MLOAD PUSH1 0xA0 DUP4 ADD MSTORE PUSH1 0xC0 DUP2 ADD MLOAD PUSH1 0xC0 DUP4 ADD MSTORE PUSH1 0xE0 DUP2 ADD MLOAD PUSH1 0xE0 DUP4 ADD MSTORE PUSH2 0x100 DUP1 DUP3 ADD MLOAD DUP2 DUP5 ADD MSTORE POP POP POP JUMP JUMPDEST PUSH0 PUSH2 0x320 DUP14 DUP4 MSTORE DUP13 PUSH1 0x20 DUP5 ADD MSTORE DUP1 PUSH1 0x40 DUP5 ADD MSTORE PUSH2 0x2B35 DUP2 DUP5 ADD DUP14 PUSH2 0x2A04 JUMP JUMPDEST SWAP2 POP POP PUSH2 0x2B45 PUSH1 0x60 DUP4 ADD DUP12 PUSH2 0x2A78 JUMP JUMPDEST PUSH2 0x2B53 PUSH2 0x140 DUP4 ADD DUP11 PUSH2 0x2ABC JUMP JUMPDEST DUP8 PUSH2 0x260 DUP4 ADD MSTORE DUP7 PUSH2 0x280 DUP4 ADD MSTORE DUP6 PUSH2 0x2A0 DUP4 ADD MSTORE DUP5 PUSH2 0x2C0 DUP4 ADD MSTORE DUP4 PUSH2 0x2E0 DUP4 ADD MSTORE DUP3 PUSH2 0x300 DUP4 ADD MSTORE SWAP13 SWAP12 POP POP POP POP POP POP POP POP POP POP POP POP JUMP JUMPDEST PUSH4 0x4E487B71 PUSH1 0xE0 SHL PUSH0 MSTORE PUSH1 0x41 PUSH1 0x4 MSTORE PUSH1 0x24 PUSH0 REVERT JUMPDEST PUSH1 0x40 MLOAD PUSH2 0x120 DUP2 ADD PUSH1 0x1 PUSH1 0x1 PUSH1 0x40 SHL SUB DUP2 GT DUP3 DUP3 LT OR ISZERO PUSH2 0x2BC4 JUMPI PUSH2 0x2BC4 PUSH2 0x2B8D JUMP JUMPDEST PUSH1 0x40 MSTORE SWAP1 JUMP JUMPDEST PUSH1 0x40 MLOAD PUSH1 0xE0 DUP2 ADD PUSH1 0x1 PUSH1 0x1 PUSH1 0x40 SHL SUB DUP2 GT DUP3 DUP3 LT OR ISZERO PUSH2 0x2BC4 JUMPI PUSH2 0x2BC4 PUSH2 0x2B8D JUMP JUMPDEST PUSH1 0x40 MLOAD PUSH2 0x180 DUP2 ADD PUSH1 0x1 PUSH1 0x1 PUSH1 0x40 SHL SUB DUP2 GT DUP3 DUP3 LT OR ISZERO PUSH2 0x2BC4 JUMPI PUSH2 0x2BC4 PUSH2 0x2B8D JUMP JUMPDEST PUSH1 0x40 MLOAD PUSH1 0x1F DUP3 ADD PUSH1 0x1F NOT AND DUP2 ADD PUSH1 0x1 PUSH1 0x1 PUSH1 0x40 SHL SUB DUP2 GT DUP3 DUP3 LT OR ISZERO PUSH2 0x2C37 JUMPI PUSH2 0x2C37 PUSH2 0x2B8D JUMP JUMPDEST PUSH1 0x40 MSTORE SWAP2 SWAP1 POP JUMP JUMPDEST PUSH0 DUP3 PUSH1 0x1F DUP4 ADD SLT PUSH2 0x2C4E JUMPI PUSH0 DUP1 REVERT JUMPDEST DUP2 CALLDATALOAD PUSH1 0x20 PUSH1 0x1 PUSH1 0x1 PUSH1 0x40 SHL SUB DUP3 GT ISZERO PUSH2 0x2C69 JUMPI PUSH2 0x2C69 PUSH2 0x2B8D JUMP JUMPDEST DUP2 PUSH1 0x5 SHL PUSH2 0x2C78 DUP3 DUP3 ADD PUSH2 0x2C0F JUMP JUMPDEST SWAP3 DUP4 MSTORE DUP5 DUP2 ADD DUP3 ADD SWAP3 DUP3 DUP2 ADD SWAP1 DUP8 DUP6 GT ISZERO PUSH2 0x2C91 JUMPI PUSH0 DUP1 REVERT JUMPDEST DUP4 DUP8 ADD SWAP3 POP JUMPDEST DUP5 DUP4 LT ISZERO PUSH2 0x2CB0 JUMPI DUP3 CALLDATALOAD DUP3 MSTORE SWAP2 DUP4 ADD SWAP2 SWAP1 DUP4 ADD SWAP1 PUSH2 0x2C97 JUMP JUMPDEST SWAP8 SWAP7 POP POP POP POP POP POP POP JUMP JUMPDEST DUP1 CALLDATALOAD DUP1 ISZERO ISZERO DUP2 EQ PUSH2 0x2CCA JUMPI PUSH0 DUP1 REVERT JUMPDEST SWAP2 SWAP1 POP JUMP JUMPDEST PUSH0 PUSH2 0x120 DUP3 DUP5 SUB SLT ISZERO PUSH2 0x2CE0 JUMPI PUSH0 DUP1 REVERT JUMPDEST PUSH2 0x2CE8 PUSH2 0x2BA1 JUMP JUMPDEST SWAP1 POP DUP2 CALLDATALOAD DUP2 MSTORE PUSH1 0x20 DUP3 ADD CALLDATALOAD PUSH1 0x20 DUP3 ADD MSTORE PUSH1 0x40 DUP3 ADD CALLDATALOAD PUSH1 0x40 DUP3 ADD MSTORE PUSH1 0x60 DUP3 ADD CALLDATALOAD PUSH1 0x60 DUP3 ADD MSTORE PUSH1 0x80 DUP3 ADD CALLDATALOAD PUSH1 0x80 DUP3 ADD MSTORE PUSH1 0xA0 DUP3 ADD CALLDATALOAD PUSH1 0xA0 DUP3 ADD MSTORE PUSH1 0xC0 DUP3 ADD CALLDATALOAD PUSH1 0xC0 DUP3 ADD MSTORE PUSH1 0xE0 DUP3 ADD CALLDATALOAD PUSH1 0x1 PUSH1 0x1 PUSH1 0x40 SHL SUB DUP2 GT ISZERO PUSH2 0x2D42 JUMPI PUSH0 DUP1 REVERT JUMPDEST PUSH2 0x2D4E DUP5 DUP3 DUP6 ADD PUSH2 0x2C3F JUMP JUMPDEST PUSH1 0xE0 DUP4 ADD MSTORE POP PUSH2 0x100 PUSH2 0x2D62 DUP2 DUP5 ADD PUSH2 0x2CBB JUMP JUMPDEST SWAP1 DUP3 ADD MSTORE SWAP3 SWAP2 POP POP JUMP JUMPDEST PUSH0 PUSH1 0xE0 DUP3 DUP5 SUB SLT ISZERO PUSH2 0x2D7C JUMPI PUSH0 DUP1 REVERT JUMPDEST PUSH2 0x2D84 PUSH2 0x2BCA JUMP JUMPDEST SWAP1 POP DUP2 CALLDATALOAD DUP2 MSTORE PUSH1 0x20 DUP3 ADD CALLDATALOAD PUSH1 0x20 DUP3 ADD MSTORE PUSH1 0x40 DUP3 ADD CALLDATALOAD PUSH1 0x40 DUP3 ADD MSTORE PUSH1 0x60 DUP3 ADD CALLDATALOAD PUSH1 0x60 DUP3 ADD MSTORE PUSH1 0x80 DUP3 ADD CALLDATALOAD PUSH1 0x80 DUP3 ADD MSTORE PUSH1 0xA0 DUP3 ADD CALLDATALOAD PUSH1 0xA0 DUP3 ADD MSTORE PUSH1 0xC0 DUP3 ADD CALLDATALOAD PUSH1 0xC0 DUP3 ADD MSTORE SWAP3 SWAP2 POP POP JUMP JUMPDEST PUSH0 PUSH2 0x120 DUP3 DUP5 SUB SLT ISZERO PUSH2 0x2DDD JUMPI PUSH0 DUP1 REVERT JUMPDEST PUSH2 0x2DE5 PUSH2 0x2BA1 JUMP JUMPDEST SWAP1 POP DUP2 CALLDATALOAD DUP2 MSTORE PUSH1 0x20 DUP3 ADD CALLDATALOAD PUSH1 0x20 DUP3 ADD MSTORE PUSH1 0x40 DUP3 ADD CALLDATALOAD PUSH1 0x40 DUP3 ADD MSTORE PUSH1 0x60 DUP3 ADD CALLDATALOAD PUSH1 0x60 DUP3 ADD MSTORE PUSH1 0x80 DUP3 ADD CALLDATALOAD PUSH1 0x80 DUP3 ADD MSTORE PUSH1 0xA0 DUP3 ADD CALLDATALOAD PUSH1 0xA0 DUP3 ADD MSTORE PUSH1 0xC0 DUP3 ADD CALLDATALOAD PUSH1 0xC0 DUP3 ADD MSTORE PUSH1 0xE0 DUP3 ADD CALLDATALOAD PUSH1 0xE0 DUP3 ADD MSTORE PUSH2 0x100 DUP1 DUP4 ADD CALLDATALOAD DUP2 DUP4 ADD MSTORE POP SWAP3 SWAP2 POP POP JUMP JUMPDEST PUSH0 PUSH2 0x340 DUP3 DUP5 SUB SLT ISZERO PUSH2 0x2E54 JUMPI PUSH0 DUP1 REVERT JUMPDEST PUSH2 0x2E5C PUSH2 0x2BEC JUMP JUMPDEST SWAP1 POP DUP2 CALLDATALOAD DUP2 MSTORE PUSH1 0x20 DUP3 ADD CALLDATALOAD PUSH1 0x20 DUP3 ADD MSTORE PUSH1 0x40 DUP3 ADD CALLDATALOAD PUSH1 0x1 PUSH1 0x1 PUSH1 0x40 SHL SUB DUP1 DUP3 GT ISZERO PUSH2 0x2E85 JUMPI PUSH0 DUP1 REVERT JUMPDEST PUSH2 0x2E91 DUP6 DUP4 DUP7 ADD PUSH2 0x2CCF JUMP JUMPDEST PUSH1 0x40 DUP5 ADD MSTORE PUSH2 0x2EA3 DUP6 PUSH1 0x60 DUP7 ADD PUSH2 0x2D6C JUMP JUMPDEST PUSH1 0x60 DUP5 ADD MSTORE PUSH2 0x140 SWAP2 POP PUSH2 0x2EB9 DUP6 DUP4 DUP7 ADD PUSH2 0x2DCC JUMP JUMPDEST PUSH1 0x80 DUP5 ADD MSTORE PUSH2 0x260 DUP5 ADD CALLDATALOAD PUSH1 0xA0 DUP5 ADD MSTORE PUSH2 0x280 DUP5 ADD CALLDATALOAD PUSH1 0xC0 DUP5 ADD MSTORE PUSH2 0x2A0 DUP5 ADD CALLDATALOAD PUSH1 0xE0 DUP5 ADD MSTORE PUSH2 0x2C0 DUP5 ADD CALLDATALOAD PUSH2 0x100 DUP5 ADD MSTORE PUSH2 0x2E0 DUP5 ADD CALLDATALOAD PUSH2 0x120 DUP5 ADD MSTORE PUSH2 0x300 DUP5 ADD CALLDATALOAD DUP3 DUP5 ADD MSTORE PUSH2 0x320 DUP5 ADD CALLDATALOAD SWAP2 POP DUP1 DUP3 GT ISZERO PUSH2 0x2F15 JUMPI PUSH0 DUP1 REVERT JUMPDEST POP PUSH2 0x2F22 DUP5 DUP3 DUP6 ADD PUSH2 0x2C3F JUMP JUMPDEST PUSH2 0x160 DUP4 ADD MSTORE POP SWAP3 SWAP2 POP POP JUMP JUMPDEST PUSH0 DUP1 PUSH1 0x40 DUP4 DUP6 SUB SLT ISZERO PUSH2 0x2F40 JUMPI PUSH0 DUP1 REVERT JUMPDEST DUP3 CALLDATALOAD SWAP2 POP PUSH1 0x20 DUP4 ADD CALLDATALOAD PUSH1 0x1 PUSH1 0x1 PUSH1 0x40 SHL SUB DUP2 GT ISZERO PUSH2 0x2F5C JUMPI PUSH0 DUP1 REVERT JUMPDEST PUSH2 0x2F68 DUP6 DUP3 DUP7 ADD PUSH2 0x2E43 JUMP JUMPDEST SWAP2 POP POP SWAP3 POP SWAP3 SWAP1 POP JUMP JUMPDEST PUSH0 DUP1 PUSH1 0x40 DUP4 DUP6 SUB SLT ISZERO PUSH2 0x2F83 JUMPI PUSH0 DUP1 REVERT JUMPDEST DUP3 CALLDATALOAD PUSH2 0x2F8E DUP2 PUSH2 0x2964 JUMP JUMPDEST SWAP2 POP PUSH1 0x20 DUP4 DUP2 ADD CALLDATALOAD PUSH1 0x1 PUSH1 0x1 PUSH1 0x40 SHL SUB DUP1 DUP3 GT ISZERO PUSH2 0x2FAA JUMPI PUSH0 DUP1 REVERT JUMPDEST DUP2 DUP7 ADD SWAP2 POP DUP7 PUSH1 0x1F DUP4 ADD SLT PUSH2 0x2FBD JUMPI PUSH0 DUP1 REVERT JUMPDEST DUP2 CALLDATALOAD DUP2 DUP2 GT ISZERO PUSH2 0x2FCF JUMPI PUSH2 0x2FCF PUSH2 0x2B8D JUMP JUMPDEST PUSH2 0x2FE1 PUSH1 0x1F DUP3 ADD PUSH1 0x1F NOT AND DUP6 ADD PUSH2 0x2C0F JUMP JUMPDEST SWAP2 POP DUP1 DUP3 MSTORE DUP8 DUP5 DUP3 DUP6 ADD ADD GT ISZERO PUSH2 0x2FF6 JUMPI PUSH0 DUP1 REVERT JUMPDEST DUP1 DUP5 DUP5 ADD DUP6 DUP5 ADD CALLDATACOPY PUSH0 DUP5 DUP3 DUP5 ADD ADD MSTORE POP DUP1 SWAP4 POP POP POP POP SWAP3 POP SWAP3 SWAP1 POP JUMP JUMPDEST PUSH0 DUP1 PUSH0 PUSH1 0x60 DUP5 DUP7 SUB SLT ISZERO PUSH2 0x3025 JUMPI PUSH0 DUP1 REVERT JUMPDEST DUP4 CALLDATALOAD SWAP3 POP PUSH1 0x20 DUP5 ADD CALLDATALOAD SWAP2 POP PUSH1 0x40 DUP5 ADD CALLDATALOAD PUSH1 0x1 PUSH1 0x1 PUSH1 0x40 SHL SUB DUP2 GT ISZERO PUSH2 0x3048 JUMPI PUSH0 DUP1 REVERT JUMPDEST PUSH2 0x3054 DUP7 DUP3 DUP8 ADD PUSH2 0x2E43 JUMP JUMPDEST SWAP2 POP POP SWAP3 POP SWAP3 POP SWAP3 JUMP JUMPDEST PUSH0 DUP1 PUSH0 PUSH1 0x60 DUP5 DUP7 SUB SLT ISZERO PUSH2 0x3070 JUMPI PUSH0 DUP1 REVERT JUMPDEST POP POP DUP2 CALLDATALOAD SWAP4 PUSH1 0x20 DUP4 ADD CALLDATALOAD SWAP4 POP PUSH1 0x40 SWAP1 SWAP3 ADD CALLDATALOAD SWAP2 SWAP1 POP JUMP JUMPDEST PUSH0 PUSH2 0x340 DUP3 MLOAD DUP5 MSTORE PUSH1 0x20 DUP4 ADD MLOAD PUSH1 0x20 DUP6 ADD MSTORE PUSH1 0x40 DUP4 ADD MLOAD DUP2 PUSH1 0x40 DUP7 ADD MSTORE PUSH2 0x30B0 DUP3 DUP7 ADD DUP3 PUSH2 0x2A04 JUMP JUMPDEST SWAP2 POP POP PUSH1 0x60 DUP4 ADD MLOAD PUSH2 0x30C5 PUSH1 0x60 DUP7 ADD DUP3 PUSH2 0x2A78 JUMP JUMPDEST POP PUSH1 0x80 DUP4 ADD MLOAD PUSH2 0x140 PUSH2 0x30DA DUP2 DUP8 ADD DUP4 PUSH2 0x2ABC JUMP JUMPDEST PUSH1 0xA0 DUP6 ADD MLOAD PUSH2 0x260 DUP8 ADD MSTORE PUSH1 0xC0 DUP6 ADD MLOAD PUSH2 0x280 DUP8 ADD MSTORE PUSH1 0xE0 DUP6 ADD MLOAD PUSH2 0x2A0 DUP8 ADD MSTORE PUSH2 0x100 DUP6 ADD MLOAD PUSH2 0x2C0 DUP8 ADD MSTORE PUSH2 0x120 DUP6 ADD MLOAD PUSH2 0x2E0 DUP8 ADD MSTORE DUP5 ADD MLOAD PUSH2 0x300 DUP7 ADD MSTORE POP PUSH2 0x160 DUP4 ADD MLOAD DUP5 DUP3 SUB PUSH2 0x320 DUP7 ADD MSTORE PUSH2 0x2738 DUP3 DUP3 PUSH2 0x29CA JUMP JUMPDEST PUSH0 PUSH1 0x20 DUP1 DUP4 ADD PUSH1 0x20 DUP5 MSTORE DUP1 DUP6 MLOAD DUP1 DUP4 MSTORE PUSH1 0x40 DUP7 ADD SWAP2 POP PUSH1 0x40 DUP2 PUSH1 0x5 SHL DUP8 ADD ADD SWAP3 POP PUSH1 0x20 DUP8 ADD PUSH0 JUMPDEST DUP3 DUP2 LT ISZERO PUSH2 0x318B JUMPI PUSH1 0x3F NOT DUP9 DUP7 SUB ADD DUP5 MSTORE PUSH2 0x3179 DUP6 DUP4 MLOAD PUSH2 0x3087 JUMP JUMPDEST SWAP5 POP SWAP3 DUP6 ADD SWAP3 SWAP1 DUP6 ADD SWAP1 PUSH1 0x1 ADD PUSH2 0x315D JUMP JUMPDEST POP SWAP3 SWAP8 SWAP7 POP POP POP POP POP POP POP JUMP JUMPDEST PUSH0 DUP1 PUSH0 DUP1 PUSH0 DUP1 PUSH0 DUP1 PUSH0 PUSH2 0x120 DUP11 DUP13 SUB SLT ISZERO PUSH2 0x31B1 JUMPI PUSH0 DUP1 REVERT JUMPDEST DUP10 CALLDATALOAD SWAP9 POP PUSH1 0x20 DUP11 ADD CALLDATALOAD SWAP8 POP PUSH1 0x40 DUP11 ADD CALLDATALOAD SWAP7 POP PUSH1 0x60 DUP11 ADD CALLDATALOAD SWAP6 POP PUSH1 0x80 DUP11 ADD CALLDATALOAD SWAP5 POP PUSH1 0xA0 DUP11 ADD CALLDATALOAD SWAP4 POP PUSH1 0xC0 DUP11 ADD CALLDATALOAD SWAP3 POP PUSH2 0x31EB PUSH1 0xE0 DUP12 ADD PUSH2 0x2CBB JUMP JUMPDEST SWAP2 POP PUSH2 0x100 DUP11 ADD CALLDATALOAD PUSH1 0x1 PUSH1 0x1 PUSH1 0x40 SHL SUB DUP2 GT ISZERO PUSH2 0x3206 JUMPI PUSH0 DUP1 REVERT JUMPDEST PUSH2 0x3212 DUP13 DUP3 DUP14 ADD PUSH2 0x2C3F JUMP JUMPDEST SWAP2 POP POP SWAP3 SWAP6 SWAP9 POP SWAP3 SWAP6 SWAP9 POP SWAP3 SWAP6 SWAP9 JUMP JUMPDEST PUSH0 JUMPDEST DUP4 DUP2 LT ISZERO PUSH2 0x323C JUMPI DUP2 DUP2 ADD MLOAD DUP4 DUP3 ADD MSTORE PUSH1 0x20 ADD PUSH2 0x3224 JUMP JUMPDEST POP POP PUSH0 SWAP2 ADD MSTORE JUMP JUMPDEST PUSH1 0x20 DUP2 MSTORE PUSH0 DUP3 MLOAD DUP1 PUSH1 0x20 DUP5 ADD MSTORE PUSH2 0x3262 DUP2 PUSH1 0x40 DUP6 ADD PUSH1 0x20 DUP8 ADD PUSH2 0x3222 JUMP JUMPDEST PUSH1 0x1F ADD PUSH1 0x1F NOT AND SWAP2 SWAP1 SWAP2 ADD PUSH1 0x40 ADD SWAP3 SWAP2 POP POP JUMP JUMPDEST PUSH1 0x40 DUP2 MSTORE PUSH0 PUSH2 0x3288 PUSH1 0x40 DUP4 ADD DUP6 PUSH2 0x2A04 JUMP JUMPDEST DUP3 DUP2 SUB PUSH1 0x20 DUP5 DUP2 ADD SWAP2 SWAP1 SWAP2 MSTORE DUP5 MLOAD DUP1 DUP4 MSTORE DUP6 DUP3 ADD SWAP3 DUP3 ADD SWAP1 PUSH0 JUMPDEST DUP2 DUP2 LT ISZERO PUSH2 0x32BE JUMPI DUP5 MLOAD DUP4 MSTORE SWAP4 DUP4 ADD SWAP4 SWAP2 DUP4 ADD SWAP2 PUSH1 0x1 ADD PUSH2 0x32A2 JUMP JUMPDEST POP SWAP1 SWAP8 SWAP7 POP POP POP POP POP POP POP JUMP JUMPDEST PUSH4 0x4E487B71 PUSH1 0xE0 SHL PUSH0 MSTORE PUSH1 0x11 PUSH1 0x4 MSTORE PUSH1 0x24 PUSH0 REVERT JUMPDEST PUSH0 PUSH1 0x1 DUP3 ADD PUSH2 0x32F0 JUMPI PUSH2 0x32F0 PUSH2 0x32CB JUMP JUMPDEST POP PUSH1 0x1 ADD SWAP1 JUMP JUMPDEST DUP3 DUP2 MSTORE PUSH1 0x40 PUSH1 0x20 DUP3 ADD MSTORE PUSH0 PUSH2 0x330F PUSH1 0x40 DUP4 ADD DUP5 PUSH2 0x3087 JUMP JUMPDEST SWAP5 SWAP4 POP POP POP POP JUMP JUMPDEST PUSH0 PUSH1 0x20 DUP3 DUP5 SUB SLT ISZERO PUSH2 0x3327 JUMPI PUSH0 DUP1 REVERT JUMPDEST DUP2 MLOAD PUSH2 0x1C56 DUP2 PUSH2 0x2964 JUMP JUMPDEST PUSH0 PUSH1 0xE0 DUP3 DUP5 SUB SLT ISZERO PUSH2 0x3342 JUMPI PUSH0 DUP1 REVERT JUMPDEST PUSH2 0x334A PUSH2 0x2BCA JUMP JUMPDEST SWAP1 POP DUP2 MLOAD DUP2 MSTORE PUSH1 0x20 DUP3 ADD MLOAD PUSH1 0x20 DUP3 ADD MSTORE PUSH1 0x40 DUP3 ADD MLOAD PUSH1 0x40 DUP3 ADD MSTORE PUSH1 0x60 DUP3 ADD MLOAD PUSH1 0x60 DUP3 ADD MSTORE PUSH1 0x80 DUP3 ADD MLOAD PUSH1 0x80 DUP3 ADD MSTORE PUSH1 0xA0 DUP3 ADD MLOAD PUSH1 0xA0 DUP3 ADD MSTORE PUSH1 0xC0 DUP3 ADD MLOAD PUSH1 0xC0 DUP3 ADD MSTORE SWAP3 SWAP2 POP POP JUMP JUMPDEST PUSH0 PUSH1 0xE0 DUP3 DUP5 SUB SLT ISZERO PUSH2 0x33A2 JUMPI PUSH0 DUP1 REVERT JUMPDEST PUSH2 0x1C56 DUP4 DUP4 PUSH2 0x3332 JUMP JUMPDEST PUSH0 PUSH2 0x120 DUP3 DUP5 SUB SLT ISZERO PUSH2 0x33BD JUMPI PUSH0 DUP1 REVERT JUMPDEST PUSH2 0x33C5 PUSH2 0x2BA1 JUMP JUMPDEST SWAP1 POP DUP2 MLOAD DUP2 MSTORE PUSH1 0x20 DUP3 ADD MLOAD PUSH1 0x20 DUP3 ADD MSTORE PUSH1 0x40 DUP3 ADD MLOAD PUSH1 0x40 DUP3 ADD MSTORE PUSH1 0x60 DUP3 ADD MLOAD PUSH1 0x60 DUP3 ADD MSTORE PUSH1 0x80 DUP3 ADD MLOAD PUSH1 0x80 DUP3 ADD MSTORE PUSH1 0xA0 DUP3 ADD MLOAD PUSH1 0xA0 DUP3 ADD MSTORE PUSH1 0xC0 DUP3 ADD MLOAD PUSH1 0xC0 DUP3 ADD MSTORE PUSH1 0xE0 DUP3 ADD MLOAD PUSH1 0xE0 DUP3 ADD MSTORE PUSH2 0x100 DUP1 DUP4 ADD MLOAD DUP2 DUP4 ADD MSTORE POP SWAP3 SWAP2 POP POP JUMP JUMPDEST PUSH0 PUSH2 0x120 DUP3 DUP5 SUB SLT ISZERO PUSH2 0x3434 JUMPI PUSH0 DUP1 REVERT JUMPDEST PUSH2 0x1C56 DUP4 DUP4 PUSH2 0x33AC JUMP JUMPDEST PUSH2 0x200 DUP2 ADD PUSH2 0x344D DUP3 DUP6 PUSH2 0x2A78 JUMP JUMPDEST PUSH2 0x1C56 PUSH1 0xE0 DUP4 ADD DUP5 PUSH2 0x2ABC JUMP JUMPDEST PUSH0 DUP1 PUSH2 0x200 DUP4 DUP6 SUB SLT ISZERO PUSH2 0x346C JUMPI PUSH0 DUP1 REVERT JUMPDEST PUSH2 0x3476 DUP5 DUP5 PUSH2 0x3332 JUMP JUMPDEST SWAP2 POP PUSH2 0x3485 DUP5 PUSH1 0xE0 DUP6 ADD PUSH2 0x33AC JUMP JUMPDEST SWAP1 POP SWAP3 POP SWAP3 SWAP1 POP JUMP JUMPDEST DUP2 DUP2 SUB DUP2 DUP2 GT ISZERO PUSH2 0x273D JUMPI PUSH2 0x273D PUSH2 0x32CB JUMP JUMPDEST DUP4 DUP2 MSTORE PUSH2 0x220 DUP2 ADD PUSH2 0x34B6 PUSH1 0x20 DUP4 ADD DUP6 PUSH2 0x2A78 JUMP JUMPDEST PUSH2 0x330F PUSH2 0x100 DUP4 ADD DUP5 PUSH2 0x2ABC JUMP JUMPDEST PUSH4 0x4E487B71 PUSH1 0xE0 SHL PUSH0 MSTORE PUSH1 0x32 PUSH1 0x4 MSTORE PUSH1 0x24 PUSH0 REVERT JUMPDEST DUP5 DUP2 MSTORE DUP4 PUSH1 0x20 DUP3 ADD MSTORE PUSH1 0x80 PUSH1 0x40 DUP3 ADD MSTORE PUSH0 PUSH2 0x34F6 PUSH1 0x80 DUP4 ADD DUP6 PUSH2 0x3087 JUMP JUMPDEST DUP3 DUP2 SUB PUSH1 0x60 DUP5 ADD MSTORE PUSH2 0x2CB0 DUP2 DUP6 PUSH2 0x3087 JUMP JUMPDEST DUP1 DUP3 ADD DUP1 DUP3 GT ISZERO PUSH2 0x273D JUMPI PUSH2 0x273D PUSH2 0x32CB JUMP JUMPDEST PUSH0 DUP2 SLOAD DUP1 DUP5 MSTORE PUSH1 0x20 DUP1 DUP6 ADD SWAP5 POP DUP4 PUSH0 MSTORE PUSH1 0x20 PUSH0 KECCAK256 PUSH0 JUMPDEST DUP4 DUP2 LT ISZERO PUSH2 0x29F9 JUMPI DUP2 SLOAD DUP8 MSTORE SWAP6 DUP3 ADD SWAP6 PUSH1 0x1 SWAP2 DUP3 ADD SWAP2 ADD PUSH2 0x3531 JUMP JUMPDEST DUP3 ISZERO ISZERO DUP2 MSTORE PUSH1 0x40 PUSH1 0x20 DUP3 ADD MSTORE DUP2 SLOAD PUSH1 0x40 DUP3 ADD MSTORE PUSH1 0x1 DUP3 ADD SLOAD PUSH1 0x60 DUP3 ADD MSTORE PUSH1 0x2 DUP3 ADD SLOAD PUSH1 0x80 DUP3 ADD MSTORE PUSH1 0x3 DUP3 ADD SLOAD PUSH1 0xA0 DUP3 ADD MSTORE PUSH1 0x4 DUP3 ADD SLOAD PUSH1 0xC0 DUP3 ADD MSTORE PUSH1 0x5 DUP3 ADD SLOAD PUSH1 0xE0 DUP3 ADD MSTORE PUSH1 0x6 DUP3 ADD SLOAD PUSH2 0x100 DUP3 ADD MSTORE PUSH0 PUSH2 0x120 DUP1 DUP2 DUP5 ADD MSTORE POP PUSH2 0x35B8 PUSH2 0x160 DUP4 ADD PUSH1 0x7 DUP6 ADD PUSH2 0x351B JUMP JUMPDEST PUSH1 0x8 DUP5 ADD SLOAD PUSH1 0xFF AND DUP1 ISZERO ISZERO PUSH2 0x140 DUP6 ADD MSTORE POP SWAP5 SWAP4 POP POP POP POP JUMP JUMPDEST DUP3 ISZERO ISZERO DUP2 MSTORE PUSH1 0x40 PUSH1 0x20 DUP3 ADD MSTORE PUSH0 PUSH2 0x330F PUSH1 0x40 DUP4 ADD DUP5 PUSH2 0x2A04 JUMP JUMPDEST PUSH0 PUSH1 0x20 DUP3 DUP5 SUB SLT ISZERO PUSH2 0x35FC JUMPI PUSH0 DUP1 REVERT JUMPDEST POP MLOAD SWAP2 SWAP1 POP JUMP JUMPDEST PUSH0 DUP3 MLOAD PUSH2 0x3614 DUP2 DUP5 PUSH1 0x20 DUP8 ADD PUSH2 0x3222 JUMP JUMPDEST SWAP2 SWAP1 SWAP2 ADD SWAP3 SWAP2 POP POP JUMP INVALID CALLDATASIZE ADDMOD SWAP5 LOG1 EXTCODESIZE LOG1 LOG3 0x21 MOD PUSH8 0xC828492DB98DCA3E KECCAK256 PUSH23 0xCC3735A920A3CA505D382BBCCD5ED15C6E187E77E9AEE8 DUP2 DUP5 0xC2 0x1F 0x4F 0x21 DUP3 0xAB PC 0x27 0xCB EXTCODESIZE PUSH31 0x7FBEDCD63F03300A2646970667358221220CEAEF234A65F8CA7AA37A510CF MOD 0xCA ADD 0xDD 0x5C PUSH10 0x7DB4786A479BB32087FE 0xDB BYTE PUSH30 0x64736F6C6343000816003300000000000000000000000000000000000000 "
		},
		"gasEstimates": {
			"creation": {
				"codeDepositCost": "2794400",
				"executionCost": "infinite",
				"totalCost": "infinite"
			},
			"external": {
				"NFTContract()": "2469",
				"UPGRADE_INTERFACE_VERSION()": "infinite",
				"addMission(uint256,uint256,uint256,uint256,uint256,uint256,uint256,bool,uint256[])": "infinite",
				"addTokenMission(uint256,(uint256,uint256,(uint256,uint256,uint256,uint256,uint256,uint256,uint256,uint256[],bool),(uint256,uint256,uint256,uint256,uint256,uint256,uint256),(uint256,uint256,uint256,uint256,uint256,uint256,uint256,uint256,uint256),uint256,uint256,uint256,uint256,uint256,uint256,uint256[]))": "infinite",
				"classContract()": "2426",
				"getMission(uint256)": "infinite",
				"getTokenMissions(uint256,uint256,uint256)": "infinite",
				"initialize()": "infinite",
				"missionCount()": "2415",
				"missions(uint256)": "17508",
				"owner()": "2441",
				"pause()": "infinite",
				"paused()": "infinite",
				"proxiableUUID()": "infinite",
				"renounceOwnership()": "infinite",
				"setClassContract(address)": "26819",
				"setNFTContract(address)": "26838",
				"startMission(uint256,uint256)": "infinite",
				"tokenMissions(uint256,uint256)": "infinite",
				"tokenTotalMissions(uint256)": "2470",
				"transferOwnership(address)": "infinite",
				"unpause()": "infinite",
				"updateTokenMission(uint256,uint256,(uint256,uint256,(uint256,uint256,uint256,uint256,uint256,uint256,uint256,uint256[],bool),(uint256,uint256,uint256,uint256,uint256,uint256,uint256),(uint256,uint256,uint256,uint256,uint256,uint256,uint256,uint256,uint256),uint256,uint256,uint256,uint256,uint256,uint256,uint256[]))": "infinite",
				"upgradeToAndCall(address,bytes)": "infinite"
			},
			"internal": {
				"_authorizeUpgrade(address)": "infinite"
			}
		},
		"methodIdentifiers": {
			"NFTContract()": "31c2273b",
			"UPGRADE_INTERFACE_VERSION()": "ad3cb1cc",
			"addMission(uint256,uint256,uint256,uint256,uint256,uint256,uint256,bool,uint256[])": "9fa6cced",
			"addTokenMission(uint256,(uint256,uint256,(uint256,uint256,uint256,uint256,uint256,uint256,uint256,uint256[],bool),(uint256,uint256,uint256,uint256,uint256,uint256,uint256),(uint256,uint256,uint256,uint256,uint256,uint256,uint256,uint256,uint256),uint256,uint256,uint256,uint256,uint256,uint256,uint256[]))": "43b3a7ec",
			"classContract()": "262e3ec3",
			"getMission(uint256)": "eb2b94b5",
			"getTokenMissions(uint256,uint256,uint256)": "9649f75e",
			"initialize()": "8129fc1c",
			"missionCount()": "ff9c08fa",
			"missions(uint256)": "2c8fe526",
			"owner()": "8da5cb5b",
			"pause()": "8456cb59",
			"paused()": "5c975abb",
			"proxiableUUID()": "52d1902d",
			"renounceOwnership()": "715018a6",
			"setClassContract(address)": "08ec6c3c",
			"setNFTContract(address)": "a7ccabdf",
			"startMission(uint256,uint256)": "54d8f632",
			"tokenMissions(uint256,uint256)": "1af02e5b",
			"tokenTotalMissions(uint256)": "19a8903c",
			"transferOwnership(address)": "f2fde38b",
			"unpause()": "3f4ba83a",
			"updateTokenMission(uint256,uint256,(uint256,uint256,(uint256,uint256,uint256,uint256,uint256,uint256,uint256,uint256[],bool),(uint256,uint256,uint256,uint256,uint256,uint256,uint256),(uint256,uint256,uint256,uint256,uint256,uint256,uint256,uint256,uint256),uint256,uint256,uint256,uint256,uint256,uint256,uint256[]))": "6bf5d216",
			"upgradeToAndCall(address,bytes)": "4f1ef286"
		}
	},
	"abi": [
		{
			"inputs": [],
			"stateMutability": "nonpayable",
			"type": "constructor"
		},
		{
			"inputs": [
				{
					"internalType": "address",
					"name": "target",
					"type": "address"
				}
			],
			"name": "AddressEmptyCode",
			"type": "error"
		},
		{
			"inputs": [
				{
					"internalType": "address",
					"name": "implementation",
					"type": "address"
				}
			],
			"name": "ERC1967InvalidImplementation",
			"type": "error"
		},
		{
			"inputs": [],
			"name": "ERC1967NonPayable",
			"type": "error"
		},
		{
			"inputs": [],
			"name": "EnforcedPause",
			"type": "error"
		},
		{
			"inputs": [],
			"name": "ExpectedPause",
			"type": "error"
		},
		{
			"inputs": [],
			"name": "FailedCall",
			"type": "error"
		},
		{
			"inputs": [],
			"name": "InvalidInitialization",
			"type": "error"
		},
		{
			"inputs": [],
			"name": "NotInitializing",
			"type": "error"
		},
		{
			"inputs": [
				{
					"internalType": "address",
					"name": "owner",
					"type": "address"
				}
			],
			"name": "OwnableInvalidOwner",
			"type": "error"
		},
		{
			"inputs": [
				{
					"internalType": "address",
					"name": "account",
					"type": "address"
				}
			],
			"name": "OwnableUnauthorizedAccount",
			"type": "error"
		},
		{
			"inputs": [],
			"name": "ReentrancyGuardReentrantCall",
			"type": "error"
		},
		{
			"inputs": [],
			"name": "UUPSUnauthorizedCallContext",
			"type": "error"
		},
		{
			"inputs": [
				{
					"internalType": "bytes32",
					"name": "slot",
					"type": "bytes32"
				}
			],
			"name": "UUPSUnsupportedProxiableUUID",
			"type": "error"
		},
		{
			"anonymous": false,
			"inputs": [
				{
					"indexed": false,
					"internalType": "uint64",
					"name": "version",
					"type": "uint64"
				}
			],
			"name": "Initialized",
			"type": "event"
		},
		{
			"anonymous": false,
			"inputs": [
				{
					"indexed": true,
					"internalType": "address",
					"name": "previousOwner",
					"type": "address"
				},
				{
					"indexed": true,
					"internalType": "address",
					"name": "newOwner",
					"type": "address"
				}
			],
			"name": "OwnershipTransferred",
			"type": "event"
		},
		{
			"anonymous": false,
			"inputs": [
				{
					"indexed": false,
					"internalType": "address",
					"name": "account",
					"type": "address"
				}
			],
			"name": "Paused",
			"type": "event"
		},
		{
			"anonymous": false,
			"inputs": [
				{
					"indexed": false,
					"internalType": "address",
					"name": "account",
					"type": "address"
				}
			],
			"name": "Unpaused",
			"type": "event"
		},
		{
			"anonymous": false,
			"inputs": [
				{
					"indexed": true,
					"internalType": "address",
					"name": "implementation",
					"type": "address"
				}
			],
			"name": "Upgraded",
			"type": "event"
		},
		{
			"anonymous": false,
			"inputs": [
				{
					"indexed": false,
					"internalType": "uint256",
					"name": "_tokenId",
					"type": "uint256"
				},
				{
					"components": [
						{
							"internalType": "uint256",
							"name": "tokenId",
							"type": "uint256"
						},
						{
							"internalType": "uint256",
							"name": "missionId",
							"type": "uint256"
						},
						{
							"components": [
								{
									"internalType": "uint256",
									"name": "missionId",
									"type": "uint256"
								},
								{
									"internalType": "uint256",
									"name": "riskLevel",
									"type": "uint256"
								},
								{
									"internalType": "uint256",
									"name": "energy",
									"type": "uint256"
								},
								{
									"internalType": "uint256",
									"name": "minTimeNeed",
									"type": "uint256"
								},
								{
									"internalType": "uint256",
									"name": "deathRate",
									"type": "uint256"
								},
								{
									"internalType": "uint256",
									"name": "successRate",
									"type": "uint256"
								},
								{
									"internalType": "uint256",
									"name": "pointsPerMinute",
									"type": "uint256"
								},
								{
									"internalType": "uint256[]",
									"name": "eligibleClasses",
									"type": "uint256[]"
								},
								{
									"internalType": "bool",
									"name": "enabled",
									"type": "bool"
								}
							],
							"internalType": "struct missionDetailsContract.missionDetails",
							"name": "missionInfo",
							"type": "tuple"
						},
						{
							"components": [
								{
									"internalType": "uint256",
									"name": "classId",
									"type": "uint256"
								},
								{
									"internalType": "uint256",
									"name": "speed",
									"type": "uint256"
								},
								{
									"internalType": "uint256",
									"name": "attack",
									"type": "uint256"
								},
								{
									"internalType": "uint256",
									"name": "evasion",
									"type": "uint256"
								},
								{
									"internalType": "uint256",
									"name": "defense",
									"type": "uint256"
								},
								{
									"internalType": "uint256",
									"name": "tokenId",
									"type": "uint256"
								},
								{
									"internalType": "uint256",
									"name": "status",
									"type": "uint256"
								}
							],
							"internalType": "struct classDetailsContract.nftProperties_1",
							"name": "nftInfo_1",
							"type": "tuple"
						},
						{
							"components": [
								{
									"internalType": "uint256",
									"name": "maxLives",
									"type": "uint256"
								},
								{
									"internalType": "uint256",
									"name": "availableLives",
									"type": "uint256"
								},
								{
									"internalType": "uint256",
									"name": "energy",
									"type": "uint256"
								},
								{
									"internalType": "uint256",
									"name": "energyTimestamp",
									"type": "uint256"
								},
								{
									"internalType": "uint256",
									"name": "mintingTimestamp",
									"type": "uint256"
								},
								{
									"internalType": "uint256",
									"name": "extra_1",
									"type": "uint256"
								},
								{
									"internalType": "uint256",
									"name": "extra_2",
									"type": "uint256"
								},
								{
									"internalType": "uint256",
									"name": "extra_3",
									"type": "uint256"
								},
								{
									"internalType": "uint256",
									"name": "maxEnergy",
									"type": "uint256"
								}
							],
							"internalType": "struct classDetailsContract.nftProperties_2",
							"name": "nftInfo_2",
							"type": "tuple"
						},
						{
							"internalType": "uint256",
							"name": "start",
							"type": "uint256"
						},
						{
							"internalType": "uint256",
							"name": "end",
							"type": "uint256"
						},
						{
							"internalType": "uint256",
							"name": "initiateEnd",
							"type": "uint256"
						},
						{
							"internalType": "uint256",
							"name": "status",
							"type": "uint256"
						},
						{
							"internalType": "uint256",
							"name": "points",
							"type": "uint256"
						},
						{
							"internalType": "uint256",
							"name": "requestId",
							"type": "uint256"
						},
						{
							"internalType": "uint256[]",
							"name": "fullFillRequestId",
							"type": "uint256[]"
						}
					],
					"indexed": false,
					"internalType": "struct missionDetailsContract.missionParameters",
					"name": "_tokenMission",
					"type": "tuple"
				}
			],
			"name": "addTokenMissionEvent",
			"type": "event"
		},
		{
			"anonymous": false,
			"inputs": [
				{
					"indexed": false,
					"internalType": "bool",
					"name": "_new",
					"type": "bool"
				},
				{
					"components": [
						{
							"internalType": "uint256",
							"name": "missionId",
							"type": "uint256"
						},
						{
							"internalType": "uint256",
							"name": "riskLevel",
							"type": "uint256"
						},
						{
							"internalType": "uint256",
							"name": "energy",
							"type": "uint256"
						},
						{
							"internalType": "uint256",
							"name": "minTimeNeed",
							"type": "uint256"
						},
						{
							"internalType": "uint256",
							"name": "deathRate",
							"type": "uint256"
						},
						{
							"internalType": "uint256",
							"name": "successRate",
							"type": "uint256"
						},
						{
							"internalType": "uint256",
							"name": "pointsPerMinute",
							"type": "uint256"
						},
						{
							"internalType": "uint256[]",
							"name": "eligibleClasses",
							"type": "uint256[]"
						},
						{
							"internalType": "bool",
							"name": "enabled",
							"type": "bool"
						}
					],
					"indexed": false,
					"internalType": "struct missionDetailsContract.missionDetails",
					"name": "_mission",
					"type": "tuple"
				}
			],
			"name": "updateMissionEvent",
			"type": "event"
		},
		{
			"anonymous": false,
			"inputs": [
				{
					"indexed": false,
					"internalType": "uint256",
					"name": "_tokenId",
					"type": "uint256"
				},
				{
					"indexed": false,
					"internalType": "uint256",
					"name": "_index",
					"type": "uint256"
				},
				{
					"components": [
						{
							"internalType": "uint256",
							"name": "tokenId",
							"type": "uint256"
						},
						{
							"internalType": "uint256",
							"name": "missionId",
							"type": "uint256"
						},
						{
							"components": [
								{
									"internalType": "uint256",
									"name": "missionId",
									"type": "uint256"
								},
								{
									"internalType": "uint256",
									"name": "riskLevel",
									"type": "uint256"
								},
								{
									"internalType": "uint256",
									"name": "energy",
									"type": "uint256"
								},
								{
									"internalType": "uint256",
									"name": "minTimeNeed",
									"type": "uint256"
								},
								{
									"internalType": "uint256",
									"name": "deathRate",
									"type": "uint256"
								},
								{
									"internalType": "uint256",
									"name": "successRate",
									"type": "uint256"
								},
								{
									"internalType": "uint256",
									"name": "pointsPerMinute",
									"type": "uint256"
								},
								{
									"internalType": "uint256[]",
									"name": "eligibleClasses",
									"type": "uint256[]"
								},
								{
									"internalType": "bool",
									"name": "enabled",
									"type": "bool"
								}
							],
							"internalType": "struct missionDetailsContract.missionDetails",
							"name": "missionInfo",
							"type": "tuple"
						},
						{
							"components": [
								{
									"internalType": "uint256",
									"name": "classId",
									"type": "uint256"
								},
								{
									"internalType": "uint256",
									"name": "speed",
									"type": "uint256"
								},
								{
									"internalType": "uint256",
									"name": "attack",
									"type": "uint256"
								},
								{
									"internalType": "uint256",
									"name": "evasion",
									"type": "uint256"
								},
								{
									"internalType": "uint256",
									"name": "defense",
									"type": "uint256"
								},
								{
									"internalType": "uint256",
									"name": "tokenId",
									"type": "uint256"
								},
								{
									"internalType": "uint256",
									"name": "status",
									"type": "uint256"
								}
							],
							"internalType": "struct classDetailsContract.nftProperties_1",
							"name": "nftInfo_1",
							"type": "tuple"
						},
						{
							"components": [
								{
									"internalType": "uint256",
									"name": "maxLives",
									"type": "uint256"
								},
								{
									"internalType": "uint256",
									"name": "availableLives",
									"type": "uint256"
								},
								{
									"internalType": "uint256",
									"name": "energy",
									"type": "uint256"
								},
								{
									"internalType": "uint256",
									"name": "energyTimestamp",
									"type": "uint256"
								},
								{
									"internalType": "uint256",
									"name": "mintingTimestamp",
									"type": "uint256"
								},
								{
									"internalType": "uint256",
									"name": "extra_1",
									"type": "uint256"
								},
								{
									"internalType": "uint256",
									"name": "extra_2",
									"type": "uint256"
								},
								{
									"internalType": "uint256",
									"name": "extra_3",
									"type": "uint256"
								},
								{
									"internalType": "uint256",
									"name": "maxEnergy",
									"type": "uint256"
								}
							],
							"internalType": "struct classDetailsContract.nftProperties_2",
							"name": "nftInfo_2",
							"type": "tuple"
						},
						{
							"internalType": "uint256",
							"name": "start",
							"type": "uint256"
						},
						{
							"internalType": "uint256",
							"name": "end",
							"type": "uint256"
						},
						{
							"internalType": "uint256",
							"name": "initiateEnd",
							"type": "uint256"
						},
						{
							"internalType": "uint256",
							"name": "status",
							"type": "uint256"
						},
						{
							"internalType": "uint256",
							"name": "points",
							"type": "uint256"
						},
						{
							"internalType": "uint256",
							"name": "requestId",
							"type": "uint256"
						},
						{
							"internalType": "uint256[]",
							"name": "fullFillRequestId",
							"type": "uint256[]"
						}
					],
					"indexed": false,
					"internalType": "struct missionDetailsContract.missionParameters",
					"name": "_oldTokenMission",
					"type": "tuple"
				},
				{
					"components": [
						{
							"internalType": "uint256",
							"name": "tokenId",
							"type": "uint256"
						},
						{
							"internalType": "uint256",
							"name": "missionId",
							"type": "uint256"
						},
						{
							"components": [
								{
									"internalType": "uint256",
									"name": "missionId",
									"type": "uint256"
								},
								{
									"internalType": "uint256",
									"name": "riskLevel",
									"type": "uint256"
								},
								{
									"internalType": "uint256",
									"name": "energy",
									"type": "uint256"
								},
								{
									"internalType": "uint256",
									"name": "minTimeNeed",
									"type": "uint256"
								},
								{
									"internalType": "uint256",
									"name": "deathRate",
									"type": "uint256"
								},
								{
									"internalType": "uint256",
									"name": "successRate",
									"type": "uint256"
								},
								{
									"internalType": "uint256",
									"name": "pointsPerMinute",
									"type": "uint256"
								},
								{
									"internalType": "uint256[]",
									"name": "eligibleClasses",
									"type": "uint256[]"
								},
								{
									"internalType": "bool",
									"name": "enabled",
									"type": "bool"
								}
							],
							"internalType": "struct missionDetailsContract.missionDetails",
							"name": "missionInfo",
							"type": "tuple"
						},
						{
							"components": [
								{
									"internalType": "uint256",
									"name": "classId",
									"type": "uint256"
								},
								{
									"internalType": "uint256",
									"name": "speed",
									"type": "uint256"
								},
								{
									"internalType": "uint256",
									"name": "attack",
									"type": "uint256"
								},
								{
									"internalType": "uint256",
									"name": "evasion",
									"type": "uint256"
								},
								{
									"internalType": "uint256",
									"name": "defense",
									"type": "uint256"
								},
								{
									"internalType": "uint256",
									"name": "tokenId",
									"type": "uint256"
								},
								{
									"internalType": "uint256",
									"name": "status",
									"type": "uint256"
								}
							],
							"internalType": "struct classDetailsContract.nftProperties_1",
							"name": "nftInfo_1",
							"type": "tuple"
						},
						{
							"components": [
								{
									"internalType": "uint256",
									"name": "maxLives",
									"type": "uint256"
								},
								{
									"internalType": "uint256",
									"name": "availableLives",
									"type": "uint256"
								},
								{
									"internalType": "uint256",
									"name": "energy",
									"type": "uint256"
								},
								{
									"internalType": "uint256",
									"name": "energyTimestamp",
									"type": "uint256"
								},
								{
									"internalType": "uint256",
									"name": "mintingTimestamp",
									"type": "uint256"
								},
								{
									"internalType": "uint256",
									"name": "extra_1",
									"type": "uint256"
								},
								{
									"internalType": "uint256",
									"name": "extra_2",
									"type": "uint256"
								},
								{
									"internalType": "uint256",
									"name": "extra_3",
									"type": "uint256"
								},
								{
									"internalType": "uint256",
									"name": "maxEnergy",
									"type": "uint256"
								}
							],
							"internalType": "struct classDetailsContract.nftProperties_2",
							"name": "nftInfo_2",
							"type": "tuple"
						},
						{
							"internalType": "uint256",
							"name": "start",
							"type": "uint256"
						},
						{
							"internalType": "uint256",
							"name": "end",
							"type": "uint256"
						},
						{
							"internalType": "uint256",
							"name": "initiateEnd",
							"type": "uint256"
						},
						{
							"internalType": "uint256",
							"name": "status",
							"type": "uint256"
						},
						{
							"internalType": "uint256",
							"name": "points",
							"type": "uint256"
						},
						{
							"internalType": "uint256",
							"name": "requestId",
							"type": "uint256"
						},
						{
							"internalType": "uint256[]",
							"name": "fullFillRequestId",
							"type": "uint256[]"
						}
					],
					"indexed": false,
					"internalType": "struct missionDetailsContract.missionParameters",
					"name": "_newTokenMission",
					"type": "tuple"
				}
			],
			"name": "updateTokenMissionEvent",
			"type": "event"
		},
		{
			"inputs": [],
			"name": "NFTContract",
			"outputs": [
				{
					"internalType": "address",
					"name": "",
					"type": "address"
				}
			],
			"stateMutability": "view",
			"type": "function"
		},
		{
			"inputs": [],
			"name": "UPGRADE_INTERFACE_VERSION",
			"outputs": [
				{
					"internalType": "string",
					"name": "",
					"type": "string"
				}
			],
			"stateMutability": "view",
			"type": "function"
		},
		{
			"inputs": [
				{
					"internalType": "uint256",
					"name": "_id",
					"type": "uint256"
				},
				{
					"internalType": "uint256",
					"name": "riskLevel",
					"type": "uint256"
				},
				{
					"internalType": "uint256",
					"name": "energy",
					"type": "uint256"
				},
				{
					"internalType": "uint256",
					"name": "minTimeNeed",
					"type": "uint256"
				},
				{
					"internalType": "uint256",
					"name": "deathRate",
					"type": "uint256"
				},
				{
					"internalType": "uint256",
					"name": "successRate",
					"type": "uint256"
				},
				{
					"internalType": "uint256",
					"name": "pointsPerMinute",
					"type": "uint256"
				},
				{
					"internalType": "bool",
					"name": "enabled",
					"type": "bool"
				},
				{
					"internalType": "uint256[]",
					"name": "eligibleClasses",
					"type": "uint256[]"
				}
			],
			"name": "addMission",
			"outputs": [],
			"stateMutability": "nonpayable",
			"type": "function"
		},
		{
			"inputs": [
				{
					"internalType": "uint256",
					"name": "_tokenId",
					"type": "uint256"
				},
				{
					"components": [
						{
							"internalType": "uint256",
							"name": "tokenId",
							"type": "uint256"
						},
						{
							"internalType": "uint256",
							"name": "missionId",
							"type": "uint256"
						},
						{
							"components": [
								{
									"internalType": "uint256",
									"name": "missionId",
									"type": "uint256"
								},
								{
									"internalType": "uint256",
									"name": "riskLevel",
									"type": "uint256"
								},
								{
									"internalType": "uint256",
									"name": "energy",
									"type": "uint256"
								},
								{
									"internalType": "uint256",
									"name": "minTimeNeed",
									"type": "uint256"
								},
								{
									"internalType": "uint256",
									"name": "deathRate",
									"type": "uint256"
								},
								{
									"internalType": "uint256",
									"name": "successRate",
									"type": "uint256"
								},
								{
									"internalType": "uint256",
									"name": "pointsPerMinute",
									"type": "uint256"
								},
								{
									"internalType": "uint256[]",
									"name": "eligibleClasses",
									"type": "uint256[]"
								},
								{
									"internalType": "bool",
									"name": "enabled",
									"type": "bool"
								}
							],
							"internalType": "struct missionDetailsContract.missionDetails",
							"name": "missionInfo",
							"type": "tuple"
						},
						{
							"components": [
								{
									"internalType": "uint256",
									"name": "classId",
									"type": "uint256"
								},
								{
									"internalType": "uint256",
									"name": "speed",
									"type": "uint256"
								},
								{
									"internalType": "uint256",
									"name": "attack",
									"type": "uint256"
								},
								{
									"internalType": "uint256",
									"name": "evasion",
									"type": "uint256"
								},
								{
									"internalType": "uint256",
									"name": "defense",
									"type": "uint256"
								},
								{
									"internalType": "uint256",
									"name": "tokenId",
									"type": "uint256"
								},
								{
									"internalType": "uint256",
									"name": "status",
									"type": "uint256"
								}
							],
							"internalType": "struct classDetailsContract.nftProperties_1",
							"name": "nftInfo_1",
							"type": "tuple"
						},
						{
							"components": [
								{
									"internalType": "uint256",
									"name": "maxLives",
									"type": "uint256"
								},
								{
									"internalType": "uint256",
									"name": "availableLives",
									"type": "uint256"
								},
								{
									"internalType": "uint256",
									"name": "energy",
									"type": "uint256"
								},
								{
									"internalType": "uint256",
									"name": "energyTimestamp",
									"type": "uint256"
								},
								{
									"internalType": "uint256",
									"name": "mintingTimestamp",
									"type": "uint256"
								},
								{
									"internalType": "uint256",
									"name": "extra_1",
									"type": "uint256"
								},
								{
									"internalType": "uint256",
									"name": "extra_2",
									"type": "uint256"
								},
								{
									"internalType": "uint256",
									"name": "extra_3",
									"type": "uint256"
								},
								{
									"internalType": "uint256",
									"name": "maxEnergy",
									"type": "uint256"
								}
							],
							"internalType": "struct classDetailsContract.nftProperties_2",
							"name": "nftInfo_2",
							"type": "tuple"
						},
						{
							"internalType": "uint256",
							"name": "start",
							"type": "uint256"
						},
						{
							"internalType": "uint256",
							"name": "end",
							"type": "uint256"
						},
						{
							"internalType": "uint256",
							"name": "initiateEnd",
							"type": "uint256"
						},
						{
							"internalType": "uint256",
							"name": "status",
							"type": "uint256"
						},
						{
							"internalType": "uint256",
							"name": "points",
							"type": "uint256"
						},
						{
							"internalType": "uint256",
							"name": "requestId",
							"type": "uint256"
						},
						{
							"internalType": "uint256[]",
							"name": "fullFillRequestId",
							"type": "uint256[]"
						}
					],
					"internalType": "struct missionDetailsContract.missionParameters",
					"name": "_mission",
					"type": "tuple"
				}
			],
			"name": "addTokenMission",
			"outputs": [],
			"stateMutability": "nonpayable",
			"type": "function"
		},
		{
			"inputs": [],
			"name": "classContract",
			"outputs": [
				{
					"internalType": "address",
					"name": "",
					"type": "address"
				}
			],
			"stateMutability": "view",
			"type": "function"
		},
		{
			"inputs": [
				{
					"internalType": "uint256",
					"name": "_id",
					"type": "uint256"
				}
			],
			"name": "getMission",
			"outputs": [
				{
					"components": [
						{
							"internalType": "uint256",
							"name": "missionId",
							"type": "uint256"
						},
						{
							"internalType": "uint256",
							"name": "riskLevel",
							"type": "uint256"
						},
						{
							"internalType": "uint256",
							"name": "energy",
							"type": "uint256"
						},
						{
							"internalType": "uint256",
							"name": "minTimeNeed",
							"type": "uint256"
						},
						{
							"internalType": "uint256",
							"name": "deathRate",
							"type": "uint256"
						},
						{
							"internalType": "uint256",
							"name": "successRate",
							"type": "uint256"
						},
						{
							"internalType": "uint256",
							"name": "pointsPerMinute",
							"type": "uint256"
						},
						{
							"internalType": "uint256[]",
							"name": "eligibleClasses",
							"type": "uint256[]"
						},
						{
							"internalType": "bool",
							"name": "enabled",
							"type": "bool"
						}
					],
					"internalType": "struct missionDetailsContract.missionDetails",
					"name": "",
					"type": "tuple"
				},
				{
					"internalType": "uint256[]",
					"name": "eligibleClasses",
					"type": "uint256[]"
				}
			],
			"stateMutability": "view",
			"type": "function"
		},
		{
			"inputs": [
				{
					"internalType": "uint256",
					"name": "_tokenId",
					"type": "uint256"
				},
				{
					"internalType": "uint256",
					"name": "_startIndex",
					"type": "uint256"
				},
				{
					"internalType": "uint256",
					"name": "_endIndex",
					"type": "uint256"
				}
			],
			"name": "getTokenMissions",
			"outputs": [
				{
					"components": [
						{
							"internalType": "uint256",
							"name": "tokenId",
							"type": "uint256"
						},
						{
							"internalType": "uint256",
							"name": "missionId",
							"type": "uint256"
						},
						{
							"components": [
								{
									"internalType": "uint256",
									"name": "missionId",
									"type": "uint256"
								},
								{
									"internalType": "uint256",
									"name": "riskLevel",
									"type": "uint256"
								},
								{
									"internalType": "uint256",
									"name": "energy",
									"type": "uint256"
								},
								{
									"internalType": "uint256",
									"name": "minTimeNeed",
									"type": "uint256"
								},
								{
									"internalType": "uint256",
									"name": "deathRate",
									"type": "uint256"
								},
								{
									"internalType": "uint256",
									"name": "successRate",
									"type": "uint256"
								},
								{
									"internalType": "uint256",
									"name": "pointsPerMinute",
									"type": "uint256"
								},
								{
									"internalType": "uint256[]",
									"name": "eligibleClasses",
									"type": "uint256[]"
								},
								{
									"internalType": "bool",
									"name": "enabled",
									"type": "bool"
								}
							],
							"internalType": "struct missionDetailsContract.missionDetails",
							"name": "missionInfo",
							"type": "tuple"
						},
						{
							"components": [
								{
									"internalType": "uint256",
									"name": "classId",
									"type": "uint256"
								},
								{
									"internalType": "uint256",
									"name": "speed",
									"type": "uint256"
								},
								{
									"internalType": "uint256",
									"name": "attack",
									"type": "uint256"
								},
								{
									"internalType": "uint256",
									"name": "evasion",
									"type": "uint256"
								},
								{
									"internalType": "uint256",
									"name": "defense",
									"type": "uint256"
								},
								{
									"internalType": "uint256",
									"name": "tokenId",
									"type": "uint256"
								},
								{
									"internalType": "uint256",
									"name": "status",
									"type": "uint256"
								}
							],
							"internalType": "struct classDetailsContract.nftProperties_1",
							"name": "nftInfo_1",
							"type": "tuple"
						},
						{
							"components": [
								{
									"internalType": "uint256",
									"name": "maxLives",
									"type": "uint256"
								},
								{
									"internalType": "uint256",
									"name": "availableLives",
									"type": "uint256"
								},
								{
									"internalType": "uint256",
									"name": "energy",
									"type": "uint256"
								},
								{
									"internalType": "uint256",
									"name": "energyTimestamp",
									"type": "uint256"
								},
								{
									"internalType": "uint256",
									"name": "mintingTimestamp",
									"type": "uint256"
								},
								{
									"internalType": "uint256",
									"name": "extra_1",
									"type": "uint256"
								},
								{
									"internalType": "uint256",
									"name": "extra_2",
									"type": "uint256"
								},
								{
									"internalType": "uint256",
									"name": "extra_3",
									"type": "uint256"
								},
								{
									"internalType": "uint256",
									"name": "maxEnergy",
									"type": "uint256"
								}
							],
							"internalType": "struct classDetailsContract.nftProperties_2",
							"name": "nftInfo_2",
							"type": "tuple"
						},
						{
							"internalType": "uint256",
							"name": "start",
							"type": "uint256"
						},
						{
							"internalType": "uint256",
							"name": "end",
							"type": "uint256"
						},
						{
							"internalType": "uint256",
							"name": "initiateEnd",
							"type": "uint256"
						},
						{
							"internalType": "uint256",
							"name": "status",
							"type": "uint256"
						},
						{
							"internalType": "uint256",
							"name": "points",
							"type": "uint256"
						},
						{
							"internalType": "uint256",
							"name": "requestId",
							"type": "uint256"
						},
						{
							"internalType": "uint256[]",
							"name": "fullFillRequestId",
							"type": "uint256[]"
						}
					],
					"internalType": "struct missionDetailsContract.missionParameters[]",
					"name": "",
					"type": "tuple[]"
				}
			],
			"stateMutability": "view",
			"type": "function"
		},
		{
			"inputs": [],
			"name": "initialize",
			"outputs": [],
			"stateMutability": "nonpayable",
			"type": "function"
		},
		{
			"inputs": [],
			"name": "missionCount",
			"outputs": [
				{
					"internalType": "uint256",
					"name": "",
					"type": "uint256"
				}
			],
			"stateMutability": "view",
			"type": "function"
		},
		{
			"inputs": [
				{
					"internalType": "uint256",
					"name": "",
					"type": "uint256"
				}
			],
			"name": "missions",
			"outputs": [
				{
					"internalType": "uint256",
					"name": "missionId",
					"type": "uint256"
				},
				{
					"internalType": "uint256",
					"name": "riskLevel",
					"type": "uint256"
				},
				{
					"internalType": "uint256",
					"name": "energy",
					"type": "uint256"
				},
				{
					"internalType": "uint256",
					"name": "minTimeNeed",
					"type": "uint256"
				},
				{
					"internalType": "uint256",
					"name": "deathRate",
					"type": "uint256"
				},
				{
					"internalType": "uint256",
					"name": "successRate",
					"type": "uint256"
				},
				{
					"internalType": "uint256",
					"name": "pointsPerMinute",
					"type": "uint256"
				},
				{
					"internalType": "bool",
					"name": "enabled",
					"type": "bool"
				}
			],
			"stateMutability": "view",
			"type": "function"
		},
		{
			"inputs": [],
			"name": "owner",
			"outputs": [
				{
					"internalType": "address",
					"name": "",
					"type": "address"
				}
			],
			"stateMutability": "view",
			"type": "function"
		},
		{
			"inputs": [],
			"name": "pause",
			"outputs": [],
			"stateMutability": "nonpayable",
			"type": "function"
		},
		{
			"inputs": [],
			"name": "paused",
			"outputs": [
				{
					"internalType": "bool",
					"name": "",
					"type": "bool"
				}
			],
			"stateMutability": "view",
			"type": "function"
		},
		{
			"inputs": [],
			"name": "proxiableUUID",
			"outputs": [
				{
					"internalType": "bytes32",
					"name": "",
					"type": "bytes32"
				}
			],
			"stateMutability": "view",
			"type": "function"
		},
		{
			"inputs": [],
			"name": "renounceOwnership",
			"outputs": [],
			"stateMutability": "nonpayable",
			"type": "function"
		},
		{
			"inputs": [
				{
					"internalType": "address",
					"name": "_contract",
					"type": "address"
				}
			],
			"name": "setClassContract",
			"outputs": [],
			"stateMutability": "nonpayable",
			"type": "function"
		},
		{
			"inputs": [
				{
					"internalType": "address",
					"name": "_contract",
					"type": "address"
				}
			],
			"name": "setNFTContract",
			"outputs": [],
			"stateMutability": "nonpayable",
			"type": "function"
		},
		{
			"inputs": [
				{
					"internalType": "uint256",
					"name": "_missionId",
					"type": "uint256"
				},
				{
					"internalType": "uint256",
					"name": "_tokenId",
					"type": "uint256"
				}
			],
			"name": "startMission",
			"outputs": [],
			"stateMutability": "nonpayable",
			"type": "function"
		},
		{
			"inputs": [
				{
					"internalType": "uint256",
					"name": "",
					"type": "uint256"
				},
				{
					"internalType": "uint256",
					"name": "",
					"type": "uint256"
				}
			],
			"name": "tokenMissions",
			"outputs": [
				{
					"internalType": "uint256",
					"name": "tokenId",
					"type": "uint256"
				},
				{
					"internalType": "uint256",
					"name": "missionId",
					"type": "uint256"
				},
				{
					"components": [
						{
							"internalType": "uint256",
							"name": "missionId",
							"type": "uint256"
						},
						{
							"internalType": "uint256",
							"name": "riskLevel",
							"type": "uint256"
						},
						{
							"internalType": "uint256",
							"name": "energy",
							"type": "uint256"
						},
						{
							"internalType": "uint256",
							"name": "minTimeNeed",
							"type": "uint256"
						},
						{
							"internalType": "uint256",
							"name": "deathRate",
							"type": "uint256"
						},
						{
							"internalType": "uint256",
							"name": "successRate",
							"type": "uint256"
						},
						{
							"internalType": "uint256",
							"name": "pointsPerMinute",
							"type": "uint256"
						},
						{
							"internalType": "uint256[]",
							"name": "eligibleClasses",
							"type": "uint256[]"
						},
						{
							"internalType": "bool",
							"name": "enabled",
							"type": "bool"
						}
					],
					"internalType": "struct missionDetailsContract.missionDetails",
					"name": "missionInfo",
					"type": "tuple"
				},
				{
					"components": [
						{
							"internalType": "uint256",
							"name": "classId",
							"type": "uint256"
						},
						{
							"internalType": "uint256",
							"name": "speed",
							"type": "uint256"
						},
						{
							"internalType": "uint256",
							"name": "attack",
							"type": "uint256"
						},
						{
							"internalType": "uint256",
							"name": "evasion",
							"type": "uint256"
						},
						{
							"internalType": "uint256",
							"name": "defense",
							"type": "uint256"
						},
						{
							"internalType": "uint256",
							"name": "tokenId",
							"type": "uint256"
						},
						{
							"internalType": "uint256",
							"name": "status",
							"type": "uint256"
						}
					],
					"internalType": "struct classDetailsContract.nftProperties_1",
					"name": "nftInfo_1",
					"type": "tuple"
				},
				{
					"components": [
						{
							"internalType": "uint256",
							"name": "maxLives",
							"type": "uint256"
						},
						{
							"internalType": "uint256",
							"name": "availableLives",
							"type": "uint256"
						},
						{
							"internalType": "uint256",
							"name": "energy",
							"type": "uint256"
						},
						{
							"internalType": "uint256",
							"name": "energyTimestamp",
							"type": "uint256"
						},
						{
							"internalType": "uint256",
							"name": "mintingTimestamp",
							"type": "uint256"
						},
						{
							"internalType": "uint256",
							"name": "extra_1",
							"type": "uint256"
						},
						{
							"internalType": "uint256",
							"name": "extra_2",
							"type": "uint256"
						},
						{
							"internalType": "uint256",
							"name": "extra_3",
							"type": "uint256"
						},
						{
							"internalType": "uint256",
							"name": "maxEnergy",
							"type": "uint256"
						}
					],
					"internalType": "struct classDetailsContract.nftProperties_2",
					"name": "nftInfo_2",
					"type": "tuple"
				},
				{
					"internalType": "uint256",
					"name": "start",
					"type": "uint256"
				},
				{
					"internalType": "uint256",
					"name": "end",
					"type": "uint256"
				},
				{
					"internalType": "uint256",
					"name": "initiateEnd",
					"type": "uint256"
				},
				{
					"internalType": "uint256",
					"name": "status",
					"type": "uint256"
				},
				{
					"internalType": "uint256",
					"name": "points",
					"type": "uint256"
				},
				{
					"internalType": "uint256",
					"name": "requestId",
					"type": "uint256"
				}
			],
			"stateMutability": "view",
			"type": "function"
		},
		{
			"inputs": [
				{
					"internalType": "uint256",
					"name": "",
					"type": "uint256"
				}
			],
			"name": "tokenTotalMissions",
			"outputs": [
				{
					"internalType": "uint256",
					"name": "",
					"type": "uint256"
				}
			],
			"stateMutability": "view",
			"type": "function"
		},
		{
			"inputs": [
				{
					"internalType": "address",
					"name": "newOwner",
					"type": "address"
				}
			],
			"name": "transferOwnership",
			"outputs": [],
			"stateMutability": "nonpayable",
			"type": "function"
		},
		{
			"inputs": [],
			"name": "unpause",
			"outputs": [],
			"stateMutability": "nonpayable",
			"type": "function"
		},
		{
			"inputs": [
				{
					"internalType": "uint256",
					"name": "_tokenId",
					"type": "uint256"
				},
				{
					"internalType": "uint256",
					"name": "_index",
					"type": "uint256"
				},
				{
					"components": [
						{
							"internalType": "uint256",
							"name": "tokenId",
							"type": "uint256"
						},
						{
							"internalType": "uint256",
							"name": "missionId",
							"type": "uint256"
						},
						{
							"components": [
								{
									"internalType": "uint256",
									"name": "missionId",
									"type": "uint256"
								},
								{
									"internalType": "uint256",
									"name": "riskLevel",
									"type": "uint256"
								},
								{
									"internalType": "uint256",
									"name": "energy",
									"type": "uint256"
								},
								{
									"internalType": "uint256",
									"name": "minTimeNeed",
									"type": "uint256"
								},
								{
									"internalType": "uint256",
									"name": "deathRate",
									"type": "uint256"
								},
								{
									"internalType": "uint256",
									"name": "successRate",
									"type": "uint256"
								},
								{
									"internalType": "uint256",
									"name": "pointsPerMinute",
									"type": "uint256"
								},
								{
									"internalType": "uint256[]",
									"name": "eligibleClasses",
									"type": "uint256[]"
								},
								{
									"internalType": "bool",
									"name": "enabled",
									"type": "bool"
								}
							],
							"internalType": "struct missionDetailsContract.missionDetails",
							"name": "missionInfo",
							"type": "tuple"
						},
						{
							"components": [
								{
									"internalType": "uint256",
									"name": "classId",
									"type": "uint256"
								},
								{
									"internalType": "uint256",
									"name": "speed",
									"type": "uint256"
								},
								{
									"internalType": "uint256",
									"name": "attack",
									"type": "uint256"
								},
								{
									"internalType": "uint256",
									"name": "evasion",
									"type": "uint256"
								},
								{
									"internalType": "uint256",
									"name": "defense",
									"type": "uint256"
								},
								{
									"internalType": "uint256",
									"name": "tokenId",
									"type": "uint256"
								},
								{
									"internalType": "uint256",
									"name": "status",
									"type": "uint256"
								}
							],
							"internalType": "struct classDetailsContract.nftProperties_1",
							"name": "nftInfo_1",
							"type": "tuple"
						},
						{
							"components": [
								{
									"internalType": "uint256",
									"name": "maxLives",
									"type": "uint256"
								},
								{
									"internalType": "uint256",
									"name": "availableLives",
									"type": "uint256"
								},
								{
									"internalType": "uint256",
									"name": "energy",
									"type": "uint256"
								},
								{
									"internalType": "uint256",
									"name": "energyTimestamp",
									"type": "uint256"
								},
								{
									"internalType": "uint256",
									"name": "mintingTimestamp",
									"type": "uint256"
								},
								{
									"internalType": "uint256",
									"name": "extra_1",
									"type": "uint256"
								},
								{
									"internalType": "uint256",
									"name": "extra_2",
									"type": "uint256"
								},
								{
									"internalType": "uint256",
									"name": "extra_3",
									"type": "uint256"
								},
								{
									"internalType": "uint256",
									"name": "maxEnergy",
									"type": "uint256"
								}
							],
							"internalType": "struct classDetailsContract.nftProperties_2",
							"name": "nftInfo_2",
							"type": "tuple"
						},
						{
							"internalType": "uint256",
							"name": "start",
							"type": "uint256"
						},
						{
							"internalType": "uint256",
							"name": "end",
							"type": "uint256"
						},
						{
							"internalType": "uint256",
							"name": "initiateEnd",
							"type": "uint256"
						},
						{
							"internalType": "uint256",
							"name": "status",
							"type": "uint256"
						},
						{
							"internalType": "uint256",
							"name": "points",
							"type": "uint256"
						},
						{
							"internalType": "uint256",
							"name": "requestId",
							"type": "uint256"
						},
						{
							"internalType": "uint256[]",
							"name": "fullFillRequestId",
							"type": "uint256[]"
						}
					],
					"internalType": "struct missionDetailsContract.missionParameters",
					"name": "_mission",
					"type": "tuple"
				}
			],
			"name": "updateTokenMission",
			"outputs": [],
			"stateMutability": "nonpayable",
			"type": "function"
		},
		{
			"inputs": [
				{
					"internalType": "address",
					"name": "newImplementation",
					"type": "address"
				},
				{
					"internalType": "bytes",
					"name": "data",
					"type": "bytes"
				}
			],
			"name": "upgradeToAndCall",
			"outputs": [],
			"stateMutability": "payable",
			"type": "function"
		}
	]
}