{
	"data": {
		"bytecode": {
			"linkReferences": {},
			"object": "60a06040523060805234801562000014575f80fd5b506200001f62000025565b620000d9565b7ff0c57e16840df040f15088dc2f81fe391c3923bec73e23a9662efc9c229c6a00805468010000000000000000900460ff1615620000765760405163f92ee8a960e01b815260040160405180910390fd5b80546001600160401b0390811614620000d65780546001600160401b0319166001600160401b0390811782556040519081527fc7f505b2f371ae2175ee4913f4499e1f2633a7b5936321eed1cdaeb6115181d29060200160405180910390a15b50565b608051615eda620001005f395f818161386c0152818161389501526139d40152615eda5ff3fe6080604052600436106104f4575f3560e01c8063715018a61161028e578063b30d92ba11610160578063dc01f60d116100c9578063f25f4b5611610083578063f25f4b5614610fdf578063f2fde38b14610ffe578063f50d390d1461101d578063f50ddbc71461103c578063fa237aea14611067578063fc2a88c31461107c575f80fd5b8063dc01f60d14610f37578063dd61b33814610f62578063e1f1c4a714610f77578063e985e9c514610f8c578063eb0d162314610fab578063ec26358914610fc0575f80fd5b8063c2d085831161011a578063c2d0858314610e7c578063c76d3a5414610e9b578063c87b56dd14610eba578063c9f2699114610ed9578063cf19d58314610ef8578063d1bb5cf114610f18575f80fd5b8063b30d92ba14610d85578063b476f88914610df5578063b578995014610e14578063b88d4fde14610e33578063b8e3effe14610e52578063bcb3962114610e67575f80fd5b806395d89b4111610202578063a91c39a9116101bc578063a91c39a914610ca4578063ad3cb1cc14610cc3578063ae0f79e514610cf3578063ae169a5014610d12578063b0fb162f14610d31578063b1bb05a614610d66575f80fd5b806395d89b4114610ba0578063965a95c214610bb45780639797a56314610bd35780639bb0543c14610bfe578063a168fa8914610c1d578063a22cb46514610c85575f80fd5b80638796ba8c116102535780638796ba8c14610b055780638ac0002114610b245780638b42426714610b395780638da5cb5b14610b4e5780638ea9811714610b625780639264274414610b81575f80fd5b8063715018a614610a9657806375794a3c14610aaa5780638129fc1c14610abe5780638456cb5914610ad257806385a7c8aa14610ae6575f80fd5b8063363bf964116103c75780634b988c141161033b5780635c975abb116102f55780635c975abb146109e2578063610b68f314610a0557806361728f3914610a245780636352211e14610a395780636f5e5e2614610a5857806370a0823114610a77575f80fd5b80634b988c14146109495780634f1ef2861461095e5780634f6ccce71461097157806352d1902d1461099057806352d84c62146109a45780635330d4f9146109c3575f80fd5b806340398d671161038c57806340398d671461089757806342842e0e146108c457806342966c68146108e3578063430bf08a1461090257806344af49c514610921578063493b296b14610936575f80fd5b8063363bf9641461080757806339e211c9146108265780633a4b3664146108455780633b2bcbf1146108645780633f4ba83a14610883575f80fd5b806318e97fd111610469578063262e3ec311610423578063262e3ec3146107565780632b5db0891461077c5780632d2f4e9d146107955780632f68f482146107aa5780632f745c59146107c95780632f84c391146107e8575f80fd5b806318e97fd11461068a57806319aae978146106a95780631fe543e3146106c857806323b872dd146106e7578063240f36101461070657806324f7469714610725575f80fd5b8063095ea7b3116104ba578063095ea7b3146105cb5780630b78f9c0146105ea5780630e37008a146106095780631102610e1461063657806313966db51461065557806318160ddd1461066a575f80fd5b806259be0d146104ff57806301ffc9a71461053b57806306fdde031461056a578063081812fc1461058b57806308ec6c3c146105aa575f80fd5b366104fb57005b5f80fd5b34801561050a575f80fd5b5060085461051e906001600160a01b031681565b6040516001600160a01b0390911681526020015b60405180910390f35b348015610546575f80fd5b5061055a610555366004614db4565b611091565b6040519015158152602001610532565b348015610575575f80fd5b5061057e6110a1565b6040516105329190614e1c565b348015610596575f80fd5b5061051e6105a5366004614e2e565b611142565b3480156105b5575f80fd5b506105c96105c4366004614e60565b611156565b005b3480156105d6575f80fd5b506105c96105e5366004614e79565b6111c1565b3480156105f5575f80fd5b506105c9610604366004614ea1565b6111d0565b348015610614575f80fd5b50610628610623366004614e2e565b6111e3565b604051908152602001610532565b348015610641575f80fd5b506105c9610650366004614e60565b611205565b348015610660575f80fd5b50610628600e5481565b348015610675575f80fd5b505f80516020615e6583398151915254610628565b348015610695575f80fd5b506105c96106a4366004614fd4565b61122f565b3480156106b4575f80fd5b506105c96106c3366004614e2e565b611241565b3480156106d3575f80fd5b506105c96106e236600461504c565b611af0565b3480156106f2575f80fd5b506105c96107013660046150e3565b611b47565b348015610711575f80fd5b506105c9610720366004614e2e565b611bd0565b348015610730575f80fd5b506007546107419063ffffffff1681565b60405163ffffffff9091168152602001610532565b348015610761575f80fd5b5060075461051e90600160301b90046001600160a01b031681565b348015610787575f80fd5b5060105461055a9060ff1681565b3480156107a0575f80fd5b5061062860165481565b3480156107b5575f80fd5b506105c96107c4366004614e2e565b611bdd565b3480156107d4575f80fd5b506106286107e3366004614e79565b611bea565b3480156107f3575f80fd5b506105c9610802366004614e60565b611c5b565b348015610812575f80fd5b506105c961082136600461511c565b611c85565b348015610831575f80fd5b506105c9610840366004614e2e565b611ccc565b348015610850575f80fd5b506105c961085f366004614e2e565b611cd9565b34801561086f575f80fd5b5060025461051e906001600160a01b031681565b34801561088e575f80fd5b506105c9611ced565b3480156108a2575f80fd5b506108b66108b1366004614e60565b611cff565b604051610532929190615196565b3480156108cf575f80fd5b506105c96108de3660046150e3565b611dbf565b3480156108ee575f80fd5b506105c96108fd366004614e2e565b611dde565b34801561090d575f80fd5b50600b5461051e906001600160a01b031681565b34801561092c575f80fd5b5061062860135481565b6105c9610944366004614e2e565b611de9565b348015610954575f80fd5b5061062860155481565b6105c961096c3660046151cc565b612334565b34801561097c575f80fd5b5061062861098b366004614e2e565b61234f565b34801561099b575f80fd5b506106286123c1565b3480156109af575f80fd5b506105c96109be36600461520c565b6123dc565b3480156109ce575f80fd5b506105c96109dd366004614e2e565b612400565b3480156109ed575f80fd5b505f80516020615e858339815191525460ff1661055a565b348015610a10575f80fd5b506105c9610a1f366004614e60565b612738565b348015610a2f575f80fd5b5061062860065481565b348015610a44575f80fd5b5061051e610a53366004614e2e565b612791565b348015610a63575f80fd5b506105c9610a72366004614ea1565b61279b565b348015610a82575f80fd5b50610628610a91366004614e60565b6127fe565b348015610aa1575f80fd5b506105c9612856565b348015610ab5575f80fd5b506106285f5481565b348015610ac9575f80fd5b506105c9612867565b348015610add575f80fd5b506105c9612b13565b348015610af1575f80fd5b50600c5461051e906001600160a01b031681565b348015610b10575f80fd5b50610628610b1f366004614e2e565b612b23565b348015610b2f575f80fd5b5061062860035481565b348015610b44575f80fd5b50610628600f5481565b348015610b59575f80fd5b5061051e612b42565b348015610b6d575f80fd5b506105c9610b7c366004614e60565b612b70565b348015610b8c575f80fd5b506105c9610b9b366004614e2e565b612bac565b348015610bab575f80fd5b5061057e612fb7565b348015610bbf575f80fd5b506105c9610bce366004614e2e565b612ff5565b348015610bde575f80fd5b50610628610bed366004614e2e565b60196020525f908152604090205481565b348015610c09575f80fd5b506105c9610c18366004614e2e565b613002565b348015610c28575f80fd5b50610c63610c37366004614e2e565b60016020525f908152604090208054600282015460039092015460ff8083169361010090930416919084565b6040805194151585529215156020850152918301526060820152608001610532565b348015610c90575f80fd5b506105c9610c9f36600461523c565b61300f565b348015610caf575f80fd5b506105c9610cbe366004614e2e565b61301a565b348015610cce575f80fd5b5061057e604051806040016040528060058152602001640352e302e360dc1b81525081565b348015610cfe575f80fd5b5061051e610d0d366004614e2e565b613027565b348015610d1d575f80fd5b506105c9610d2c366004614e2e565b61304f565b348015610d3c575f80fd5b50600754610d5390640100000000900461ffff1681565b60405161ffff9091168152602001610532565b348015610d71575f80fd5b506105c9610d80366004615271565b61312e565b348015610d90575f80fd5b50610dcd610d9f366004614e2e565b601d6020525f9081526040902080546001820154600283015460038401546004909401549293919290919085565b604080519586526020860194909452928401919091526060830152608082015260a001610532565b348015610e00575f80fd5b506105c9610e0f366004614e2e565b613149565b348015610e1f575f80fd5b506105c9610e2e366004614e79565b613156565b348015610e3e575f80fd5b506105c9610e4d36600461528c565b613172565b348015610e5d575f80fd5b5061062860125481565b348015610e72575f80fd5b50610628601a5481565b348015610e87575f80fd5b50600d5461051e906001600160a01b031681565b348015610ea6575f80fd5b506105c9610eb5366004614e79565b613189565b348015610ec5575f80fd5b5061057e610ed4366004614e2e565b6132f4565b348015610ee4575f80fd5b506105c9610ef3366004615271565b6132ff565b348015610f03575f80fd5b5060095461055a90600160a01b900460ff1681565b348015610f23575f80fd5b5060095461051e906001600160a01b031681565b348015610f42575f80fd5b50610628610f51366004614e60565b60186020525f908152604090205481565b348015610f6d575f80fd5b5061062860145481565b348015610f82575f80fd5b5061062861271081565b348015610f97575f80fd5b5061055a610fa63660046152ef565b613325565b348015610fb6575f80fd5b50610628601b5481565b348015610fcb575f80fd5b506105c9610fda366004614e2e565b613371565b348015610fea575f80fd5b50600a5461051e906001600160a01b031681565b348015611009575f80fd5b506105c9611018366004614e60565b6133d1565b348015611028575f80fd5b506105c9611037366004615320565b61340b565b348015611047575f80fd5b50610628611056366004614e60565b60176020525f908152604090205481565b348015611072575f80fd5b5061062860115481565b348015611087575f80fd5b5061062860055481565b5f61109b82613437565b92915050565b5f80516020615e2583398151915280546060919081906110c090615341565b80601f01602080910402602001604051908101604052809291908181526020018280546110ec90615341565b80156111375780601f1061110e57610100808354040283529160200191611137565b820191905f5260205f20905b81548152906001019060200180831161111a57829003601f168201915b505050505091505090565b5f61114c8261345b565b5061109b82613492565b61115e6134cb565b6001600160a01b0381166111925760405162461bcd60e51b8152602060048201525f60248201526044015b60405180910390fd5b600780546001600160a01b03909216600160301b026601000000000000600160d01b0319909216919091179055565b6111cc8282336134fd565b5050565b6111d86134cb565b600e91909155600f55565b5f806111ef834261538d565b90506111fe62093a80826153b4565b9392505050565b61120d6134cb565b600980546001600160a01b0319166001600160a01b0392909216919091179055565b6112376134cb565b6111cc828261350a565b61124961357c565b61125281612791565b6001600160a01b0316336001600160a01b03161461128b5760405162461bcd60e51b8152602060048201525f6024820152604401611189565b6007546040516309fc2d6760e11b8152600481018390525f91600160301b90046001600160a01b0316906313f85ace9060240160e060405180830381865afa1580156112d9573d5f803e3d5ffd5b505050506040513d601f19601f820116820180604052508101906112fd9190615427565b60075460405163044f261560e11b8152600481018590529192505f91600160301b9091046001600160a01b03169063089e4c2a9060240161012060405180830381865afa158015611350573d5f803e3d5ffd5b505050506040513d601f19601f8201168201806040525081019061137491906154b8565b60075460405163f61fa45360e01b8152919250600160301b90046001600160a01b03169063f61fa453906113ae9085908590600401615571565b610200604051808303815f875af11580156113cb573d5f803e3d5ffd5b505050506040513d601f19601f820116820180604052508101906113ef919061558d565b90925090505f6113fe84612791565b90508260c0015160031461142d5760405162461bcd60e51b8152602060048201525f6024820152604401611189565b600160c084015260085460405163066a240f60e21b8152600481018690525f916001600160a01b0316906319a8903c90602401602060405180830381865afa15801561147b573d5f803e3d5ffd5b505050506040513d601f19601f8201168201806040525081019061149f91906155b8565b6008549091505f906001600160a01b0316639649f75e876114c160018661538d565b6114cc60018761538d565b6040516001600160e01b031960e086901b1681526004810193909352602483019190915260448201526064015f60405180830381865afa158015611512573d5f803e3d5ffd5b505050506040513d5f823e601f3d908101601f1916820160405261153991908101906156de565b5f8151811061154a5761154a61585d565b602002602001015190505f821161157c5760405162461bcd60e51b8152602060048201525f6024820152604401611189565b8061010001516002146115aa5760405162461bcd60e51b8152602060048201525f6024820152604401611189565b60c0810151156115d55760405162461bcd60e51b8152602060048201525f6024820152604401611189565b6101408101515f9081526001602052604090205460ff166116115760405162461bcd60e51b8152602060048201525f6024820152604401611189565b5f603c8260a001518360e00151611628919061538d565b61163291906153b4565b90505f811161165c5760405162461bcd60e51b8152602060048201525f6024820152604401611189565b5f61271160015f85610140015181526020019081526020015f206001015f8154811061168a5761168a61585d565b905f5260205f20015461169d9190615871565b90508260400151602001515f141580156116bf57508260400151608001518111155b1561179457612710836040015160c00151836116db9190615884565b6116e7906103e8615884565b6116f191906153b4565b61012084015260808601515f90611707906111e3565b90506127106016548261171a9190615884565b611726906103e8615884565b61173091906153b4565b8461012001818151611742919061589b565b90525060056101008501528651156117685760208701805190611764826158ae565b9052505b602087015115801561177a5750865115155b1561178e575f60c089015261178e89611ce1565b506118a7565b6040830151608081015160a0909101516117ae919061589b565b6117ba9061271061538d565b811161184f57612710836040015160c00151836117d79190615884565b6117e3906103e8615884565b6117ed91906153b4565b61012084015260808601515f90611803906111e3565b9050612710601654826118169190615884565b611822906103e8615884565b61182c91906153b4565b846101200181815161183e919061589b565b9052505060046101008401526118a7565b604083015160c001516118629083615884565b61012084015260808601515f90611878906111e3565b9050601654816118889190615884565b846101200181815161189a919061589b565b9052505060036101008401525b4260c0840152610120830151601a545f90815260196020526040812080549091906118d390849061589b565b90915550506101208301516001600160a01b0386165f908152601760205260408120805490919061190590849061589b565b90915550506101408301515f908152600160208181526040928390209091018054835181840281018401909452808452909183018282801561196457602002820191905f5260205f20905b815481526020019060010190808311611950575b50505050508361016001819052505f805b601c548110156119c257866001600160a01b0316601c828154811061199c5761199c61585d565b5f918252602090912001546001600160a01b0316036119ba57600191505b600101611975565b5080611a1357601c80546001810182555f919091527f0e4562a10381dec21b205ed72637e6b1b523bdd0e4d4d50af5cd23dd4500a2110180546001600160a01b0319166001600160a01b0388161790555b60075460405163f6cac63f60e01b8152600160301b9091046001600160a01b03169063f6cac63f90611a4d908c908c908c906004016158c3565b5f604051808303815f87803b158015611a64575f80fd5b505af1158015611a76573d5f803e3d5ffd5b50506008546001600160a01b03169150636bf5d21690508a611a9960018961538d565b876040518463ffffffff1660e01b8152600401611ab89392919061595a565b5f604051808303815f87803b158015611acf575f80fd5b505af1158015611ae1573d5f803e3d5ffd5b50505050505050505050505050565b6002546001600160a01b03163314611b3d5760405162461bcd60e51b815260206004820152601060248201526f27b7363c9021b7b7b93234b730ba37b960811b6044820152606401611189565b6111cc82826135ac565b6001600160a01b038216611b7057604051633250574960e11b81525f6004820152602401611189565b5f611b7c838333613615565b9050836001600160a01b0316816001600160a01b031614611bca576040516364283d7b60e01b81526001600160a01b0380861660048301526024820184905282166044820152606401611189565b50505050565b611bd86134cb565b601655565b611be56134cb565b600655565b5f5f80516020615e05833981519152611c02846127fe565b8310611c335760405163295f44f760e21b81526001600160a01b038516600482015260248101849052604401611189565b6001600160a01b0384165f908152602091825260408082208583529092522054905092915050565b611c636134cb565b600d80546001600160a01b0319166001600160a01b0392909216919091179055565b611c8d6134cb565b600b80546001600160a01b039485166001600160a01b031991821617909155600a805493851693821693909317909255600c8054919093169116179055565b611cd46134cb565b601a55565b611ce16134cb565b611cea816137ae565b50565b611cf56134cb565b611cfd6137e6565b565b5f60606001600160a01b038316611d315760405162461bcd60e51b8152602060048201525f6024820152604401611189565b611d3a836127fe565b9150816001600160401b03811115611d5457611d54614ec1565b604051908082528060200260200182016040528015611d7d578160200160208202803683370190505b5090505f5b82811015611db957611d948482611bea565b828281518110611da657611da661585d565b6020908102919091010152600101611d82565b50915091565b611dd983838360405180602001604052805f815250613172565b505050565b6111cc5f8233613615565b611df161357c565b6011543414611e1b5760405162461bcd60e51b8152602060048201525f6024820152604401611189565b600a546001600160a01b0316611e4c5760405162461bcd60e51b8152602060048201525f6024820152604401611189565b600a546011546040515f926001600160a01b031691908381818185875af1925050503d805f8114611e98576040519150601f19603f3d011682016040523d82523d5f602084013e611e9d565b606091505b5050905080611ec75760405162461bcd60e51b8152602060048201525f6024820152604401611189565b611ed082612791565b6001600160a01b0316336001600160a01b031614611f095760405162461bcd60e51b8152602060048201525f6024820152604401611189565b60085460405163066a240f60e21b8152600481018490525f916001600160a01b0316906319a8903c90602401602060405180830381865afa158015611f50573d5f803e3d5ffd5b505050506040513d601f19601f82011682018060405250810190611f7491906155b8565b90505f8111611f9e5760405162461bcd60e51b8152602060048201525f6024820152604401611189565b6007546040516309fc2d6760e11b8152600481018590525f91600160301b90046001600160a01b0316906313f85ace9060240160e060405180830381865afa158015611fec573d5f803e3d5ffd5b505050506040513d601f19601f820116820180604052508101906120109190615427565b60075460405163044f261560e11b8152600481018790529192505f91600160301b9091046001600160a01b03169063089e4c2a9060240161012060405180830381865afa158015612063573d5f803e3d5ffd5b505050506040513d601f19601f8201168201806040525081019061208791906154b8565b90508160c00151600214806120a057508160c001516003145b6120c55760405162461bcd60e51b8152602060048201525f6024820152604401611189565b600360c083015260075460405163f6cac63f60e01b8152600160301b9091046001600160a01b03169063f6cac63f90612106908890869086906004016158c3565b5f604051808303815f87803b15801561211d575f80fd5b505af115801561212f573d5f803e3d5ffd5b50506008545f92506001600160a01b03169050639649f75e8761215360018861538d565b61215e60018961538d565b6040516001600160e01b031960e086901b1681526004810193909352602483019190915260448201526064015f60405180830381865afa1580156121a4573d5f803e3d5ffd5b505050506040513d5f823e601f3d908101601f191682016040526121cb91908101906156de565b5f815181106121dc576121dc61585d565b6020908102919091018101516101408101515f908152600190925260409091205490915060ff16158015612212575060e0810151155b80156122345750428160400151606001518260a00151612232919061589b565b105b8061227e57506101408101515f9081526001602052604090205460ff1615801561226d5750428160e00151603c61226b919061589b565b105b801561227e57508061010001516002145b6122a35760405162461bcd60e51b8152602060048201525f6024820152604401611189565b60026101008201526122b76001875f613845565b6101408201524260e08201526008546001600160a01b0316636bf5d216876122e060018861538d565b846040518463ffffffff1660e01b81526004016122ff9392919061595a565b5f604051808303815f87803b158015612316575f80fd5b505af1158015612328573d5f803e3d5ffd5b50505050505050505050565b61233c613861565b61234582613905565b6111cc828261390d565b5f5f80516020615e058339815191526123735f80516020615e658339815191525490565b831061239b5760405163295f44f760e21b81525f600482015260248101849052604401611189565b8060020183815481106123b0576123b061585d565b905f5260205f200154915050919050565b5f6123ca6139c9565b505f80516020615e4583398151915290565b6123e46134cb565b6007805463ffffffff191663ffffffff92909216919091179055565b6124086134cb565b5f612710600f548361241a9190615884565b61242491906153b4565b600d54600c546040516323b872dd60e01b81529293506001600160a01b03918216926323b872dd9261245f9233929116908690600401615a2c565b6020604051808303815f875af115801561247b573d5f803e3d5ffd5b505050506040513d601f19601f8201168201806040525081019061249f9190615a50565b6124c45760405162461bcd60e51b8152602060048201525f6024820152604401611189565b6124ce818361538d565b600d546040516323b872dd60e01b81529193506001600160a01b0316906323b872dd9061250390339030908790600401615a2c565b6020604051808303815f875af115801561251f573d5f803e3d5ffd5b505050506040513d601f19601f820116820180604052508101906125439190615a50565b6125685760405162461bcd60e51b8152602060048201525f6024820152604401611189565b601a545f9081526019602052604090205461259e5760405162461bcd60e51b8152602060048201525f6024820152604401611189565b5f5b601c548110156126aa575f60195f601a5481526020019081526020015f20548460175f601c86815481106125d6576125d661585d565b5f9182526020808320909101546001600160a01b031683528201929092526040019020546126049190615884565b61260e91906153b4565b90505f60175f601c85815481106126275761262761585d565b5f9182526020808320909101546001600160a01b03168352820192909252604001812091909155601c805483926018929091869081106126695761266961585d565b5f9182526020808320909101546001600160a01b031683528201929092526040018120805490919061269c90849061589b565b9091555050506001016125a0565b506040805160a081018252601a548082524260208084019182528385018781525f848152601983528681205460608701908152601c805460808901908152968352601d90945296812095518655925160018601555160028501559351600384015590516004909201919091556127209190614d27565b601a8054905f61272f83615a6b565b91905055505050565b6127406134cb565b6001600160a01b03811661276f5760405162461bcd60e51b8152602060048201525f6024820152604401611189565b600880546001600160a01b0319166001600160a01b0392909216919091179055565b5f61109b8261345b565b6127a36134cb565b5f82116127cb5760405162461bcd60e51b8152602060048201525f6024820152604401611189565b5f81116127f35760405162461bcd60e51b8152602060048201525f6024820152604401611189565b601591909155601455565b5f5f80516020615e258339815191526001600160a01b038316612836576040516322718ad960e21b81525f6004820152602401611189565b6001600160a01b039092165f908152600390920160205250604090205490565b61285e6134cb565b611cfd5f613a12565b7ff0c57e16840df040f15088dc2f81fe391c3923bec73e23a9662efc9c229c6a008054600160401b810460ff1615906001600160401b03165f811580156128ab5750825b90505f826001600160401b031660011480156128c65750303b155b9050811580156128d4575080155b156128f25760405163f92ee8a960e01b815260040160405180910390fd5b845467ffffffffffffffff19166001178555831561291c57845460ff60401b1916600160401b1785555b6129636040518060400160405280600981526020016870756e6b627974657360b81b8152506040518060400160405280600481526020016350554e4b60e01b815250613a82565b61296b613a94565b612973613a94565b61297b613a9c565b612983613a94565b61298c33613aac565b612994613a94565b7f1107a88fd666bcb4e9b668f24668c1502146a063f98e5c01acff60f18ee079026003557fea7f56be19583eeb8255aa79f16d8bd8a64cedf68e42fefee1c9ac5372b1a10260065560078054600280546001600160a01b031990811673e40895d055bccd2053dd0638c9695e326152b1a41782556403002625a065ffffffffffff1990931692909217909255600b80548216738edc29a84e86975266ef7a45bd76969b6051fd48179055600a80548216735eb62c9261e2189c9664a7953f816075b3f2e908179055600c80548216732f4f63840cb93334ee35030bb92849a66735911a1790556105dc600e556103e8600f55600d8054909116735b583db39e574c34af5c31d4b12b40ab79f90c1717905563017d7840601255624c4b406013555f601155610e1060155560145560016016558315612b0c57845460ff60401b19168555604051600181527fc7f505b2f371ae2175ee4913f4499e1f2633a7b5936321eed1cdaeb6115181d29060200160405180910390a15b5050505050565b612b1b6134cb565b611cfd613abd565b60048181548110612b32575f80fd5b5f91825260209091200154905081565b7f9016d09d72d40fdae2fd8ceac6b6234c7706214fd39c1cd1e609a0528c199300546001600160a01b031690565b612b786134cb565b6001600160a01b038116612b8a575f80fd5b600280546001600160a01b0319166001600160a01b0392909216919091179055565b612bb461357c565b60075460405163438e925f60e11b8152600481018390525f91600160301b90046001600160a01b03169063871d24be9060240161010060405180830381865afa158015612c03573d5f803e3d5ffd5b505050506040513d601f19601f82011682018060405250810190612c279190615a83565b600754604051631afe6a9160e21b8152600481018590529192505f91600160301b9091046001600160a01b031690636bf9aa44906024015f60405180830381865afa158015612c78573d5f803e3d5ffd5b505050506040513d5f823e601f3d908101601f19168201604052612c9f9190810190615b52565b602083015160075460405163c2bf8dd560e01b8152600481018790529293509091600160301b9091046001600160a01b03169063c2bf8dd590602401602060405180830381865afa158015612cf6573d5f803e3d5ffd5b505050506040513d601f19601f82011682018060405250810190612d1a91906155b8565b10612d405760405162461bcd60e51b8152602060048201525f6024820152604401611189565b8060400151612d6a5760405162461bcd60e51b8152602060048201525f6024820152604401611189565b600b546001600160a01b0316612d9b5760405162461bcd60e51b8152602060048201525f6024820152604401611189565b600a546001600160a01b0316612dcc5760405162461bcd60e51b8152602060048201525f6024820152604401611189565b6040820151600e545f9061271090612de49084615884565b612dee91906153b4565b9050612dfa818361538d565b600d54600b546040516323b872dd60e01b81529294506001600160a01b03918216926323b872dd92612e359233929116908790600401615a2c565b6020604051808303815f875af1158015612e51573d5f803e3d5ffd5b505050506040513d601f19601f82011682018060405250810190612e759190615a50565b612e9a5760405162461bcd60e51b8152602060048201525f6024820152604401611189565b600d54600a546040516323b872dd60e01b81526001600160a01b03928316926323b872dd92612ed3923392909116908690600401615a2c565b6020604051808303815f875af1158015612eef573d5f803e3d5ffd5b505050506040513d601f19601f82011682018060405250810190612f139190615a50565b612f385760405162461bcd60e51b8152602060048201525f6024820152604401611189565b6007545f54604051631b57c1f760e01b8152600481019190915260248101879052600160301b9091046001600160a01b031690631b57c1f7906044015f604051808303815f87803b158015612f8b575f80fd5b505af1158015612f9d573d5f803e3d5ffd5b50505050612faf338460600151613b05565b505050505050565b7f80bb2b638cc20bc4d0a60d66940f3ab4a00c1d7b313497ca82fb0b4ab007930180546060915f80516020615e25833981519152916110c090615341565b612ffd6134cb565b600355565b61300a6134cb565b601255565b6111cc338383613b2f565b6130226134cb565b601355565b601c8181548110613036575f80fd5b5f918252602090912001546001600160a01b0316905081565b61305761357c565b335f90815260186020526040902054811180159061307457505f81115b6130995760405162461bcd60e51b8152602060048201525f6024820152604401611189565b335f90815260186020526040812080548392906130b790849061538d565b9091555050600d5460405163a9059cbb60e01b8152336004820152602481018390526001600160a01b039091169063a9059cbb906044016020604051808303815f875af115801561310a573d5f803e3d5ffd5b505050506040513d601f19601f820116820180604052508101906111cc9190615a50565b6131366134cb565b6010805460ff1916911515919091179055565b6131516134cb565b601155565b61315e6134cb565b6111cc6001600160a01b0383163383613bde565b61317d848484611b47565b611bca84848484613c30565b613191612b42565b6001600160a01b0316336001600160a01b031614806131ba57506009546001600160a01b031633145b6131df5760405162461bcd60e51b8152602060048201525f6024820152604401611189565b6001600160a01b03821661320e5760405162461bcd60e51b8152602060048201525f6024820152604401611189565b5f81116132365760405162461bcd60e51b8152602060048201525f6024820152604401611189565b6001600160a01b0382165f90815260176020526040812054900361329f57601c80546001810182555f919091527f0e4562a10381dec21b205ed72637e6b1b523bdd0e4d4d50af5cd23dd4500a2110180546001600160a01b0319166001600160a01b0384161790555b6001600160a01b0382165f90815260176020526040812080548392906132c690849061589b565b9091555050601a545f90815260196020526040812080548392906132eb90849061589b565b90915550505050565b606061109b82613d4f565b6133076134cb565b60098054911515600160a01b0260ff60a01b19909216919091179055565b6001600160a01b039182165f9081527f80bb2b638cc20bc4d0a60d66940f3ab4a00c1d7b313497ca82fb0b4ab00793056020908152604080832093909416825291909152205460ff1690565b6133796134cb565b804710611cea576040515f90339083908381818185875af1925050503d805f81146133bf576040519150601f19603f3d011682016040523d82523d5f602084013e6133c4565b606091505b50509050806111cc575f80fd5b6133d96134cb565b6001600160a01b03811661340257604051631e4fbdf760e01b81525f6004820152602401611189565b611cea81613a12565b6134136134cb565b6007805461ffff9092166401000000000265ffff0000000019909216919091179055565b5f6001600160e01b03198216632483248360e11b148061109b575061109b82613e75565b5f8061346683613e99565b90506001600160a01b03811661109b57604051637e27328960e01b815260048101849052602401611189565b5f9081527f80bb2b638cc20bc4d0a60d66940f3ab4a00c1d7b313497ca82fb0b4ab007930460205260409020546001600160a01b031690565b336134d4612b42565b6001600160a01b031614611cfd5760405163118cdaa760e01b8152336004820152602401611189565b611dd98383836001613ed2565b5f8281527f0542a41881ee128a365a727b282c86fa859579490b9bb45aab8503648c8e7900602081905260409091206135438382615c43565b506040518381527ff8e1a15aba9398e019f0b49df1a4fde98ee17ae345cb5f6b5e2c27f5033e8ce79060200160405180910390a1505050565b5f80516020615e858339815191525460ff1615611cfd5760405163d93c066560e01b815260040160405180910390fd5b5f82815260016020526040902054610100900460ff166135e75760405162461bcd60e51b8152602060048201525f6024820152604401611189565b5f828152600160208181526040909220805460ff1916821781558351611dd993919092019190840190614d42565b5f8061362084613e99565b90506001600160a01b038116158061363f57506001600160a01b038516155b1561372d576001600160a01b038516613728576007546040516309fc2d6760e11b8152600481018690525f91600160301b90046001600160a01b0316906313f85ace9060240160e060405180830381865afa1580156136a0573d5f803e3d5ffd5b505050506040513d601f19601f820116820180604052508101906136c49190615427565b60075481516040516203eae960e01b81526004810191909152919250600160301b90046001600160a01b0316906203eae9906024015f604051808303815f87803b158015613710575f80fd5b505af1158015613722573d5f803e3d5ffd5b50505050505b61379a565b6009546001600160a01b031661374285612791565b6001600160a01b0316148061376457506009546001600160a01b038681169116145b61379a57600954600160a01b900460ff1661379a5760405162461bcd60e51b8152602060048201525f6024820152604401611189565b6137a5858585613fe5565b95945050505050565b5f6137ba5f835f613615565b90506001600160a01b0381166111cc57604051637e27328960e01b815260048101839052602401611189565b6137ee613ff9565b5f80516020615e85833981519152805460ff191681557f5db9ee0a495bf2e6ff9c91a7834c1ba4fdd244a5e8aa4e537bd38aeae4b073aa335b6040516001600160a01b03909116815260200160405180910390a150565b5f61384e61357c565b613859848484614028565b949350505050565b306001600160a01b037f00000000000000000000000000000000000000000000000000000000000000001614806138e757507f00000000000000000000000000000000000000000000000000000000000000006001600160a01b03166138db5f80516020615e45833981519152546001600160a01b031690565b6001600160a01b031614155b15611cfd5760405163703e46dd60e11b815260040160405180910390fd5b611cea6134cb565b816001600160a01b03166352d1902d6040518163ffffffff1660e01b8152600401602060405180830381865afa925050508015613967575060408051601f3d908101601f19168201909252613964918101906155b8565b60015b61398f57604051634c9c8ce360e01b81526001600160a01b0383166004820152602401611189565b5f80516020615e4583398151915281146139bf57604051632a87526960e21b815260048101829052602401611189565b611dd983836141d7565b306001600160a01b037f00000000000000000000000000000000000000000000000000000000000000001614611cfd5760405163703e46dd60e11b815260040160405180910390fd5b7f9016d09d72d40fdae2fd8ceac6b6234c7706214fd39c1cd1e609a0528c19930080546001600160a01b031981166001600160a01b03848116918217845560405192169182907f8be0079c531659141344cd1fd0a4f28419497f9722a3daafe3b4186f6b6457e0905f90a3505050565b613a8a61422c565b6111cc8282614275565b611cfd61422c565b613aa461422c565b611cfd6142a5565b613ab461422c565b611cea816142c5565b613ac561357c565b5f80516020615e85833981519152805460ff191660011781557f62e78cea01bee320cd4e420270b5ea74000d11b0c9f74754ebdbfc544b05a25833613827565b5f805481908180613b1583615a6b565b919050559050613b2584826142cd565b6111fe818461350a565b5f80516020615e258339815191526001600160a01b038316613b6f57604051630b61174360e31b81526001600160a01b0384166004820152602401611189565b6001600160a01b038481165f818152600584016020908152604080832094881680845294825291829020805460ff191687151590811790915591519182527f17307eab39ab6107e8899845ad3d59bd9653f200f220920489ca2b5937696c31910160405180910390a350505050565b604080516001600160a01b038416602482015260448082018490528251808303909101815260649091019091526020810180516001600160e01b031663a9059cbb60e01b179052611dd99084906142e6565b6001600160a01b0383163b15611bca57604051630a85bd0160e11b81526001600160a01b0384169063150b7a0290613c72903390889087908790600401615cfe565b6020604051808303815f875af1925050508015613cac575060408051601f3d908101601f19168201909252613ca991810190615d30565b60015b613d13573d808015613cd9576040519150601f19603f3d011682016040523d82523d5f602084013e613cde565b606091505b5080515f03613d0b57604051633250574960e11b81526001600160a01b0385166004820152602401611189565b805181602001fd5b6001600160e01b03198116630a85bd0160e11b14612b0c57604051633250574960e11b81526001600160a01b0385166004820152602401611189565b60607f0542a41881ee128a365a727b282c86fa859579490b9bb45aab8503648c8e7900613d7b8361345b565b505f8381526020829052604081208054613d9490615341565b80601f0160208091040260200160405190810160405280929190818152602001828054613dc090615341565b8015613e0b5780601f10613de257610100808354040283529160200191613e0b565b820191905f5260205f20905b815481529060010190602001808311613dee57829003601f168201915b505050505090505f613e2760408051602081019091525f815290565b905080515f03613e3957509392505050565b815115613e6c578082604051602001613e53929190615d4b565b6040516020818303038152906040529350505050919050565b6137a585614347565b5f6001600160e01b0319821663780e9d6360e01b148061109b575061109b826143b7565b5f9081527f80bb2b638cc20bc4d0a60d66940f3ab4a00c1d7b313497ca82fb0b4ab007930260205260409020546001600160a01b031690565b5f80516020615e258339815191528180613ef457506001600160a01b03831615155b15613fb5575f613f038561345b565b90506001600160a01b03841615801590613f2f5750836001600160a01b0316816001600160a01b031614155b8015613f425750613f408185613325565b155b15613f6b5760405163a9fbf51f60e01b81526001600160a01b0385166004820152602401611189565b8215613fb35784866001600160a01b0316826001600160a01b03167f8c5be1e5ebec7d5bd14f71427d1e84f3dd0314c0f7b2291e5b200ac8c7c3b92560405160405180910390a45b505b5f93845260040160205250506040902080546001600160a01b0319166001600160a01b0392909216919091179055565b5f613fee61357c565b613859848484614406565b5f80516020615e858339815191525460ff16611cfd57604051638dfc202b60e01b815260040160405180910390fd5b6002546040805160c081018252600654815260035460208083019190915260075461ffff6401000000008204168385015263ffffffff908116606084015287166080830152825190810190925260105460ff16151582525f926001600160a01b031691639b1c385e919060a08201906140a0906144fc565b8152506040518263ffffffff1660e01b81526004016140bf9190615d79565b6020604051808303815f875af11580156140db573d5f803e3d5ffd5b505050506040513d601f19601f820116820180604052508101906140ff91906155b8565b6040805160a0810182525f8082526001602080840182815285518481528083018752858701908152606086018b9052608086018a90528785528383529590932084518154945161ffff1990951690151561ff001916176101009415159490940293909317835593518051959650929491936141809391850192910190614d42565b5060608201516002820155608090910151600390910155600480546001810182555f919091527f8a35acfbc15ff81a39ae7d344fd709f28e8600b4aa8c65c6b64bfe7fe36bd19b0181905560058190559392505050565b6141e08261456d565b6040516001600160a01b038316907fbc7cd75a20ee27fd9adebab32041f755214dbc6bffa90cc0225b39da2e5c2d3b905f90a280511561422457611dd982826145d0565b6111cc614639565b7ff0c57e16840df040f15088dc2f81fe391c3923bec73e23a9662efc9c229c6a0054600160401b900460ff16611cfd57604051631afcd79f60e31b815260040160405180910390fd5b61427d61422c565b5f80516020615e25833981519152806142968482615c43565b5060018101611bca8382615c43565b6142ad61422c565b5f80516020615e85833981519152805460ff19169055565b6133d961422c565b6111cc828260405180602001604052805f815250614658565b5f6142fa6001600160a01b0384168361466e565b905080515f1415801561431e57508080602001905181019061431c9190615a50565b155b15611dd957604051635274afe760e01b81526001600160a01b0384166004820152602401611189565b60606143528261345b565b505f61436860408051602081019091525f815290565b90505f8151116143865760405180602001604052805f8152506111fe565b806143908461467b565b6040516020016143a1929190615d4b565b6040516020818303038152906040529392505050565b5f6001600160e01b031982166380ac58cd60e01b14806143e757506001600160e01b03198216635b5e139f60e01b145b8061109b57506301ffc9a760e01b6001600160e01b031983161461109b565b5f8061441385858561470a565b90506001600160a01b03811661449a57614495845f80516020615e6583398151915280545f8381527f645e039705490088daad89bae25049a34f4a9072d398537b1ab2425f24cbed0360205260408120829055600182018355919091527fa42f15e5d656f8155fd7419d740a6073999f19cd6e061449ce4a257150545bf20155565b6144bd565b846001600160a01b0316816001600160a01b0316146144bd576144bd818561480c565b6001600160a01b0385166144d9576144d4846148ab565b613859565b846001600160a01b0316816001600160a01b031614613859576138598585614978565b60607f92fd13387c7fe7befbc38d303d6468778fb9731bc4583f17d92989c6fcfdeaaa8260405160240161453591511515815260200190565b60408051601f198184030181529190526020810180516001600160e01b03166001600160e01b03199093169290921790915292915050565b806001600160a01b03163b5f036145a257604051634c9c8ce360e01b81526001600160a01b0382166004820152602401611189565b5f80516020615e4583398151915280546001600160a01b0319166001600160a01b0392909216919091179055565b60605f80846001600160a01b0316846040516145ec9190615dd5565b5f60405180830381855af49150503d805f8114614624576040519150601f19603f3d011682016040523d82523d5f602084013e614629565b606091505b50915091506137a58583836149d0565b3415611cfd5760405163b398979f60e01b815260040160405180910390fd5b6146628383614a2c565b611dd95f848484613c30565b60606111fe83835f614a8d565b60605f61468783614b26565b60010190505f816001600160401b038111156146a5576146a5614ec1565b6040519080825280601f01601f1916602001820160405280156146cf576020820181803683370190505b5090508181016020015b5f19016f181899199a1a9b1b9c1cb0b131b232b360811b600a86061a8153600a85049450846146d957509392505050565b5f5f80516020615e258339815191528161472385613e99565b90506001600160a01b0384161561473f5761473f818587614bfd565b6001600160a01b0381161561477b5761475a5f865f80613ed2565b6001600160a01b0381165f908152600383016020526040902080545f190190555b6001600160a01b038616156147ab576001600160a01b0386165f9081526003830160205260409020805460010190555b5f85815260028301602052604080822080546001600160a01b0319166001600160a01b038a811691821790925591518893918516917fddf252ad1be2c89b69c2b068fc378daa952ba7f163c4a11628f55a4df523b3ef91a495945050505050565b5f80516020615e058339815191525f614824846127fe565b5f848152600184016020526040902054909150808214614877576001600160a01b0385165f9081526020848152604080832085845282528083205484845281842081905583526001860190915290208190555b505f92835260018201602090815260408085208590556001600160a01b039095168452918252838320908352905290812055565b5f80516020615e65833981519152545f80516020615e05833981519152905f906148d79060019061538d565b5f8481526003840160205260408120546002850180549394509092849081106149025761490261585d565b905f5260205f2001549050808460020183815481106149235761492361585d565b5f9182526020808320909101929092558281526003860190915260408082208490558682528120556002840180548061495e5761495e615df0565b600190038181905f5260205f20015f905590555050505050565b5f80516020615e058339815191525f6001614992856127fe565b61499c919061538d565b6001600160a01b039094165f9081526020838152604080832087845282528083208690559482526001909301909252502055565b6060826149e5576149e082614c61565b6111fe565b81511580156149fc57506001600160a01b0384163b155b15614a2557604051639996b31560e01b81526001600160a01b0385166004820152602401611189565b50806111fe565b6001600160a01b038216614a5557604051633250574960e11b81525f6004820152602401611189565b5f614a6183835f613615565b90506001600160a01b03811615611dd9576040516339e3563760e11b81525f6004820152602401611189565b606081471015614ab25760405163cd78605960e01b8152306004820152602401611189565b5f80856001600160a01b03168486604051614acd9190615dd5565b5f6040518083038185875af1925050503d805f8114614b07576040519150601f19603f3d011682016040523d82523d5f602084013e614b0c565b606091505b5091509150614b1c868383614c8a565b9695505050505050565b5f8072184f03e93ff9f4daa797ed6e38ed64bf6a1f0160401b8310614b645772184f03e93ff9f4daa797ed6e38ed64bf6a1f0160401b830492506040015b6d04ee2d6d415b85acef81000000008310614b90576d04ee2d6d415b85acef8100000000830492506020015b662386f26fc100008310614bae57662386f26fc10000830492506010015b6305f5e1008310614bc6576305f5e100830492506008015b6127108310614bda57612710830492506004015b60648310614bec576064830492506002015b600a831061109b5760010192915050565b614c08838383614c9a565b611dd9576001600160a01b038316614c3657604051637e27328960e01b815260048101829052602401611189565b60405163177e802f60e01b81526001600160a01b038316600482015260248101829052604401611189565b805115614c715780518082602001fd5b60405163d6bda27560e01b815260040160405180910390fd5b6060826149e5576149e082614cfe565b5f6001600160a01b038316158015906138595750826001600160a01b0316846001600160a01b03161480614cd35750614cd38484613325565b806138595750826001600160a01b0316614cec83613492565b6001600160a01b031614949350505050565b805115614d0e5780518082602001fd5b604051630a12f52160e11b815260040160405180910390fd5b5080545f8255905f5260205f2090810190611cea9190614d8b565b828054828255905f5260205f20908101928215614d7b579160200282015b82811115614d7b578251825591602001919060010190614d60565b50614d87929150614d8b565b5090565b5b80821115614d87575f8155600101614d8c565b6001600160e01b031981168114611cea575f80fd5b5f60208284031215614dc4575f80fd5b81356111fe81614d9f565b5f5b83811015614de9578181015183820152602001614dd1565b50505f910152565b5f8151808452614e08816020860160208601614dcf565b601f01601f19169290920160200192915050565b602081525f6111fe6020830184614df1565b5f60208284031215614e3e575f80fd5b5035919050565b80356001600160a01b0381168114614e5b575f80fd5b919050565b5f60208284031215614e70575f80fd5b6111fe82614e45565b5f8060408385031215614e8a575f80fd5b614e9383614e45565b946020939093013593505050565b5f8060408385031215614eb2575f80fd5b50508035926020909101359150565b634e487b7160e01b5f52604160045260245ffd5b60405160e081016001600160401b0381118282101715614ef757614ef7614ec1565b60405290565b60405161012081016001600160401b0381118282101715614ef757614ef7614ec1565b60405161018081016001600160401b0381118282101715614ef757614ef7614ec1565b604051601f8201601f191681016001600160401b0381118282101715614f6b57614f6b614ec1565b604052919050565b5f6001600160401b03821115614f8b57614f8b614ec1565b50601f01601f191660200190565b5f614fab614fa684614f73565b614f43565b9050828152838383011115614fbe575f80fd5b828260208301375f602084830101529392505050565b5f8060408385031215614fe5575f80fd5b8235915060208301356001600160401b03811115615001575f80fd5b8301601f81018513615011575f80fd5b61502085823560208401614f99565b9150509250929050565b5f6001600160401b0382111561504257615042614ec1565b5060051b60200190565b5f806040838503121561505d575f80fd5b823591506020808401356001600160401b0381111561507a575f80fd5b8401601f8101861361508a575f80fd5b8035615098614fa68261502a565b81815260059190911b820183019083810190888311156150b6575f80fd5b928401925b828410156150d4578335825292840192908401906150bb565b80955050505050509250929050565b5f805f606084860312156150f5575f80fd5b6150fe84614e45565b925061510c60208501614e45565b9150604084013590509250925092565b5f805f6060848603121561512e575f80fd5b61513784614e45565b925061514560208501614e45565b915061515360408501614e45565b90509250925092565b5f815180845260208085019450602084015f5b8381101561518b5781518752958201959082019060010161516f565b509495945050505050565b828152604060208201525f613859604083018461515c565b5f82601f8301126151bd575f80fd5b6111fe83833560208501614f99565b5f80604083850312156151dd575f80fd5b6151e683614e45565b915060208301356001600160401b03811115615200575f80fd5b615020858286016151ae565b5f6020828403121561521c575f80fd5b813563ffffffff811681146111fe575f80fd5b8015158114611cea575f80fd5b5f806040838503121561524d575f80fd5b61525683614e45565b915060208301356152668161522f565b809150509250929050565b5f60208284031215615281575f80fd5b81356111fe8161522f565b5f805f806080858703121561529f575f80fd5b6152a885614e45565b93506152b660208601614e45565b92506040850135915060608501356001600160401b038111156152d7575f80fd5b6152e3878288016151ae565b91505092959194509250565b5f8060408385031215615300575f80fd5b61530983614e45565b915061531760208401614e45565b90509250929050565b5f60208284031215615330575f80fd5b813561ffff811681146111fe575f80fd5b600181811c9082168061535557607f821691505b60208210810361537357634e487b7160e01b5f52602260045260245ffd5b50919050565b634e487b7160e01b5f52601160045260245ffd5b8181038181111561109b5761109b615379565b634e487b7160e01b5f52601260045260245ffd5b5f826153c2576153c26153a0565b500490565b5f60e082840312156153d7575f80fd5b6153df614ed5565b9050815181526020820151602082015260408201516040820152606082015160608201526080820151608082015260a082015160a082015260c082015160c082015292915050565b5f60e08284031215615437575f80fd5b6111fe83836153c7565b5f6101208284031215615452575f80fd5b61545a614efd565b9050815181526020820151602082015260408201516040820152606082015160608201526080820151608082015260a082015160a082015260c082015160c082015260e082015160e082015261010080830151818301525092915050565b5f61012082840312156154c9575f80fd5b6111fe8383615441565b805182526020810151602083015260408101516040830152606081015160608301526080810151608083015260a081015160a083015260c081015160c08301525050565b805182526020810151602083015260408101516040830152606081015160608301526080810151608083015260a081015160a083015260c081015160c083015260e081015160e08301526101008082015181840152505050565b610200810161558082856154d3565b6111fe60e0830184615517565b5f80610200838503121561559f575f80fd5b6155a984846153c7565b91506153178460e08501615441565b5f602082840312156155c8575f80fd5b5051919050565b5f82601f8301126155de575f80fd5b815160206155ee614fa68361502a565b8083825260208201915060208460051b87010193508684111561560f575f80fd5b602086015b8481101561562b5780518352918301918301615614565b509695505050505050565b8051614e5b8161522f565b5f6101208284031215615652575f80fd5b61565a614efd565b9050815181526020820151602082015260408201516040820152606082015160608201526080820151608082015260a082015160a082015260c082015160c082015260e08201516001600160401b038111156156b4575f80fd5b6156c0848285016155cf565b60e0830152506101006156d4818401615636565b9082015292915050565b5f60208083850312156156ef575f80fd5b82516001600160401b0380821115615705575f80fd5b818501915085601f830112615718575f80fd5b8151615726614fa68261502a565b81815260059190911b83018401908481019088831115615744575f80fd5b8585015b838110156158505780518581111561575e575f80fd5b8601610340818c03601f1901811315615775575f80fd5b61577d614f20565b89830151815260408301518a8201526060808401518981111561579e575f80fd5b6157ac8f8d83880101615641565b60408401525060806157c08f8287016153c7565b8284015261016091506157d58f838701615441565b9083015261028084015160a08301526102a084015160c08301526102c084015160e08301526102e084015161010083015261030084015161012083015261032084015161014083015291830151918883111561582f575f80fd5b61583d8e8c858701016155cf565b9082015285525050918601918601615748565b5098975050505050505050565b634e487b7160e01b5f52603260045260245ffd5b5f8261587f5761587f6153a0565b500690565b808202811582820484141761109b5761109b615379565b8082018082111561109b5761109b615379565b5f816158bc576158bc615379565b505f190190565b83815261022081016158d860208301856154d3565b613859610100830184615517565b5f610120825184526020830151602085015260408301516040850152606083015160608501526080830151608085015260a083015160a085015260c083015160c085015260e08301518160e08601526159418286018261515c565b6101009485015115159590940194909452509092915050565b8381528260208201526060604082015281516060820152602082015160808201525f60408301516103408060a08501526159986103a08501836158e6565b915060608501516159ac60c08601826154d3565b5060808501516159c06101a0860182615517565b5060a08501516102c085015260c08501516102e085015260e085015161030085015261010085015161032085015261012085015190840152610140840151610360840152610160840151838203605f1901610380850152615a21828261515c565b979650505050505050565b6001600160a01b039384168152919092166020820152604081019190915260600190565b5f60208284031215615a60575f80fd5b81516111fe8161522f565b5f60018201615a7c57615a7c615379565b5060010190565b5f610100808385031215615a95575f80fd5b604051908101906001600160401b0382118183101715615ab757615ab7614ec1565b81604052835181526020840151602082015260408401516040820152606084015160608201526080840151608082015260a084015160a082015260c084015160c082015260e084015160e0820152809250505092915050565b5f82601f830112615b1f575f80fd5b8151615b2d614fa682614f73565b818152846020838601011115615b41575f80fd5b613859826020830160208701614dcf565b5f60208284031215615b62575f80fd5b81516001600160401b0380821115615b78575f80fd5b9083019060e08286031215615b8b575f80fd5b615b93614ed5565b8251815260208301516020820152615bad60408401615636565b6040820152606083015182811115615bc3575f80fd5b615bcf87828601615b10565b6060830152506080830151608082015260a083015160a082015260c083015160c082015280935050505092915050565b601f821115611dd957805f5260205f20601f840160051c81016020851015615c245750805b601f840160051c820191505b81811015612b0c575f8155600101615c30565b81516001600160401b03811115615c5c57615c5c614ec1565b615c7081615c6a8454615341565b84615bff565b602080601f831160018114615ca3575f8415615c8c5750858301515b5f19600386901b1c1916600185901b178555612faf565b5f85815260208120601f198616915b82811015615cd157888601518255948401946001909101908401615cb2565b5085821015615cee57878501515f19600388901b60f8161c191681555b5050505050600190811b01905550565b6001600160a01b03858116825284166020820152604081018390526080606082018190525f90614b1c90830184614df1565b5f60208284031215615d40575f80fd5b81516111fe81614d9f565b5f8351615d5c818460208801614dcf565b835190830190615d70818360208801614dcf565b01949350505050565b60208152815160208201526020820151604082015261ffff60408301511660608201525f606083015163ffffffff80821660808501528060808601511660a0850152505060a083015160c08084015261385960e0840182614df1565b5f8251615de6818460208701614dcf565b9190910192915050565b634e487b7160e01b5f52603160045260245ffdfe645e039705490088daad89bae25049a34f4a9072d398537b1ab2425f24cbed0080bb2b638cc20bc4d0a60d66940f3ab4a00c1d7b313497ca82fb0b4ab0079300360894a13ba1a3210667c828492db98dca3e2076cc3735a920a3ca505d382bbc645e039705490088daad89bae25049a34f4a9072d398537b1ab2425f24cbed02cd5ed15c6e187e77e9aee88184c21f4f2182ab5827cb3b7e07fbedcd63f03300a26469706673582212200cd8e1893606a28b0c8170c4a4cc661e88e82f895b1d2b7f48607baeca5c20d364736f6c63430008160033",
			"opcodes": "PUSH1 0xA0 PUSH1 0x40 MSTORE ADDRESS PUSH1 0x80 MSTORE CALLVALUE DUP1 ISZERO PUSH3 0x14 JUMPI PUSH0 DUP1 REVERT JUMPDEST POP PUSH3 0x1F PUSH3 0x25 JUMP JUMPDEST PUSH3 0xD9 JUMP JUMPDEST PUSH32 0xF0C57E16840DF040F15088DC2F81FE391C3923BEC73E23A9662EFC9C229C6A00 DUP1 SLOAD PUSH9 0x10000000000000000 SWAP1 DIV PUSH1 0xFF AND ISZERO PUSH3 0x76 JUMPI PUSH1 0x40 MLOAD PUSH4 0xF92EE8A9 PUSH1 0xE0 SHL DUP2 MSTORE PUSH1 0x4 ADD PUSH1 0x40 MLOAD DUP1 SWAP2 SUB SWAP1 REVERT JUMPDEST DUP1 SLOAD PUSH1 0x1 PUSH1 0x1 PUSH1 0x40 SHL SUB SWAP1 DUP2 AND EQ PUSH3 0xD6 JUMPI DUP1 SLOAD PUSH1 0x1 PUSH1 0x1 PUSH1 0x40 SHL SUB NOT AND PUSH1 0x1 PUSH1 0x1 PUSH1 0x40 SHL SUB SWAP1 DUP2 OR DUP3 SSTORE PUSH1 0x40 MLOAD SWAP1 DUP2 MSTORE PUSH32 0xC7F505B2F371AE2175EE4913F4499E1F2633A7B5936321EED1CDAEB6115181D2 SWAP1 PUSH1 0x20 ADD PUSH1 0x40 MLOAD DUP1 SWAP2 SUB SWAP1 LOG1 JUMPDEST POP JUMP JUMPDEST PUSH1 0x80 MLOAD PUSH2 0x5EDA PUSH3 0x100 PUSH0 CODECOPY PUSH0 DUP2 DUP2 PUSH2 0x386C ADD MSTORE DUP2 DUP2 PUSH2 0x3895 ADD MSTORE PUSH2 0x39D4 ADD MSTORE PUSH2 0x5EDA PUSH0 RETURN INVALID PUSH1 0x80 PUSH1 0x40 MSTORE PUSH1 0x4 CALLDATASIZE LT PUSH2 0x4F4 JUMPI PUSH0 CALLDATALOAD PUSH1 0xE0 SHR DUP1 PUSH4 0x715018A6 GT PUSH2 0x28E JUMPI DUP1 PUSH4 0xB30D92BA GT PUSH2 0x160 JUMPI DUP1 PUSH4 0xDC01F60D GT PUSH2 0xC9 JUMPI DUP1 PUSH4 0xF25F4B56 GT PUSH2 0x83 JUMPI DUP1 PUSH4 0xF25F4B56 EQ PUSH2 0xFDF JUMPI DUP1 PUSH4 0xF2FDE38B EQ PUSH2 0xFFE JUMPI DUP1 PUSH4 0xF50D390D EQ PUSH2 0x101D JUMPI DUP1 PUSH4 0xF50DDBC7 EQ PUSH2 0x103C JUMPI DUP1 PUSH4 0xFA237AEA EQ PUSH2 0x1067 JUMPI DUP1 PUSH4 0xFC2A88C3 EQ PUSH2 0x107C JUMPI PUSH0 DUP1 REVERT JUMPDEST DUP1 PUSH4 0xDC01F60D EQ PUSH2 0xF37 JUMPI DUP1 PUSH4 0xDD61B338 EQ PUSH2 0xF62 JUMPI DUP1 PUSH4 0xE1F1C4A7 EQ PUSH2 0xF77 JUMPI DUP1 PUSH4 0xE985E9C5 EQ PUSH2 0xF8C JUMPI DUP1 PUSH4 0xEB0D1623 EQ PUSH2 0xFAB JUMPI DUP1 PUSH4 0xEC263589 EQ PUSH2 0xFC0 JUMPI PUSH0 DUP1 REVERT JUMPDEST DUP1 PUSH4 0xC2D08583 GT PUSH2 0x11A JUMPI DUP1 PUSH4 0xC2D08583 EQ PUSH2 0xE7C JUMPI DUP1 PUSH4 0xC76D3A54 EQ PUSH2 0xE9B JUMPI DUP1 PUSH4 0xC87B56DD EQ PUSH2 0xEBA JUMPI DUP1 PUSH4 0xC9F26991 EQ PUSH2 0xED9 JUMPI DUP1 PUSH4 0xCF19D583 EQ PUSH2 0xEF8 JUMPI DUP1 PUSH4 0xD1BB5CF1 EQ PUSH2 0xF18 JUMPI PUSH0 DUP1 REVERT JUMPDEST DUP1 PUSH4 0xB30D92BA EQ PUSH2 0xD85 JUMPI DUP1 PUSH4 0xB476F889 EQ PUSH2 0xDF5 JUMPI DUP1 PUSH4 0xB5789950 EQ PUSH2 0xE14 JUMPI DUP1 PUSH4 0xB88D4FDE EQ PUSH2 0xE33 JUMPI DUP1 PUSH4 0xB8E3EFFE EQ PUSH2 0xE52 JUMPI DUP1 PUSH4 0xBCB39621 EQ PUSH2 0xE67 JUMPI PUSH0 DUP1 REVERT JUMPDEST DUP1 PUSH4 0x95D89B41 GT PUSH2 0x202 JUMPI DUP1 PUSH4 0xA91C39A9 GT PUSH2 0x1BC JUMPI DUP1 PUSH4 0xA91C39A9 EQ PUSH2 0xCA4 JUMPI DUP1 PUSH4 0xAD3CB1CC EQ PUSH2 0xCC3 JUMPI DUP1 PUSH4 0xAE0F79E5 EQ PUSH2 0xCF3 JUMPI DUP1 PUSH4 0xAE169A50 EQ PUSH2 0xD12 JUMPI DUP1 PUSH4 0xB0FB162F EQ PUSH2 0xD31 JUMPI DUP1 PUSH4 0xB1BB05A6 EQ PUSH2 0xD66 JUMPI PUSH0 DUP1 REVERT JUMPDEST DUP1 PUSH4 0x95D89B41 EQ PUSH2 0xBA0 JUMPI DUP1 PUSH4 0x965A95C2 EQ PUSH2 0xBB4 JUMPI DUP1 PUSH4 0x9797A563 EQ PUSH2 0xBD3 JUMPI DUP1 PUSH4 0x9BB0543C EQ PUSH2 0xBFE JUMPI DUP1 PUSH4 0xA168FA89 EQ PUSH2 0xC1D JUMPI DUP1 PUSH4 0xA22CB465 EQ PUSH2 0xC85 JUMPI PUSH0 DUP1 REVERT JUMPDEST DUP1 PUSH4 0x8796BA8C GT PUSH2 0x253 JUMPI DUP1 PUSH4 0x8796BA8C EQ PUSH2 0xB05 JUMPI DUP1 PUSH4 0x8AC00021 EQ PUSH2 0xB24 JUMPI DUP1 PUSH4 0x8B424267 EQ PUSH2 0xB39 JUMPI DUP1 PUSH4 0x8DA5CB5B EQ PUSH2 0xB4E JUMPI DUP1 PUSH4 0x8EA98117 EQ PUSH2 0xB62 JUMPI DUP1 PUSH4 0x92642744 EQ PUSH2 0xB81 JUMPI PUSH0 DUP1 REVERT JUMPDEST DUP1 PUSH4 0x715018A6 EQ PUSH2 0xA96 JUMPI DUP1 PUSH4 0x75794A3C EQ PUSH2 0xAAA JUMPI DUP1 PUSH4 0x8129FC1C EQ PUSH2 0xABE JUMPI DUP1 PUSH4 0x8456CB59 EQ PUSH2 0xAD2 JUMPI DUP1 PUSH4 0x85A7C8AA EQ PUSH2 0xAE6 JUMPI PUSH0 DUP1 REVERT JUMPDEST DUP1 PUSH4 0x363BF964 GT PUSH2 0x3C7 JUMPI DUP1 PUSH4 0x4B988C14 GT PUSH2 0x33B JUMPI DUP1 PUSH4 0x5C975ABB GT PUSH2 0x2F5 JUMPI DUP1 PUSH4 0x5C975ABB EQ PUSH2 0x9E2 JUMPI DUP1 PUSH4 0x610B68F3 EQ PUSH2 0xA05 JUMPI DUP1 PUSH4 0x61728F39 EQ PUSH2 0xA24 JUMPI DUP1 PUSH4 0x6352211E EQ PUSH2 0xA39 JUMPI DUP1 PUSH4 0x6F5E5E26 EQ PUSH2 0xA58 JUMPI DUP1 PUSH4 0x70A08231 EQ PUSH2 0xA77 JUMPI PUSH0 DUP1 REVERT JUMPDEST DUP1 PUSH4 0x4B988C14 EQ PUSH2 0x949 JUMPI DUP1 PUSH4 0x4F1EF286 EQ PUSH2 0x95E JUMPI DUP1 PUSH4 0x4F6CCCE7 EQ PUSH2 0x971 JUMPI DUP1 PUSH4 0x52D1902D EQ PUSH2 0x990 JUMPI DUP1 PUSH4 0x52D84C62 EQ PUSH2 0x9A4 JUMPI DUP1 PUSH4 0x5330D4F9 EQ PUSH2 0x9C3 JUMPI PUSH0 DUP1 REVERT JUMPDEST DUP1 PUSH4 0x40398D67 GT PUSH2 0x38C JUMPI DUP1 PUSH4 0x40398D67 EQ PUSH2 0x897 JUMPI DUP1 PUSH4 0x42842E0E EQ PUSH2 0x8C4 JUMPI DUP1 PUSH4 0x42966C68 EQ PUSH2 0x8E3 JUMPI DUP1 PUSH4 0x430BF08A EQ PUSH2 0x902 JUMPI DUP1 PUSH4 0x44AF49C5 EQ PUSH2 0x921 JUMPI DUP1 PUSH4 0x493B296B EQ PUSH2 0x936 JUMPI PUSH0 DUP1 REVERT JUMPDEST DUP1 PUSH4 0x363BF964 EQ PUSH2 0x807 JUMPI DUP1 PUSH4 0x39E211C9 EQ PUSH2 0x826 JUMPI DUP1 PUSH4 0x3A4B3664 EQ PUSH2 0x845 JUMPI DUP1 PUSH4 0x3B2BCBF1 EQ PUSH2 0x864 JUMPI DUP1 PUSH4 0x3F4BA83A EQ PUSH2 0x883 JUMPI PUSH0 DUP1 REVERT JUMPDEST DUP1 PUSH4 0x18E97FD1 GT PUSH2 0x469 JUMPI DUP1 PUSH4 0x262E3EC3 GT PUSH2 0x423 JUMPI DUP1 PUSH4 0x262E3EC3 EQ PUSH2 0x756 JUMPI DUP1 PUSH4 0x2B5DB089 EQ PUSH2 0x77C JUMPI DUP1 PUSH4 0x2D2F4E9D EQ PUSH2 0x795 JUMPI DUP1 PUSH4 0x2F68F482 EQ PUSH2 0x7AA JUMPI DUP1 PUSH4 0x2F745C59 EQ PUSH2 0x7C9 JUMPI DUP1 PUSH4 0x2F84C391 EQ PUSH2 0x7E8 JUMPI PUSH0 DUP1 REVERT JUMPDEST DUP1 PUSH4 0x18E97FD1 EQ PUSH2 0x68A JUMPI DUP1 PUSH4 0x19AAE978 EQ PUSH2 0x6A9 JUMPI DUP1 PUSH4 0x1FE543E3 EQ PUSH2 0x6C8 JUMPI DUP1 PUSH4 0x23B872DD EQ PUSH2 0x6E7 JUMPI DUP1 PUSH4 0x240F3610 EQ PUSH2 0x706 JUMPI DUP1 PUSH4 0x24F74697 EQ PUSH2 0x725 JUMPI PUSH0 DUP1 REVERT JUMPDEST DUP1 PUSH4 0x95EA7B3 GT PUSH2 0x4BA JUMPI DUP1 PUSH4 0x95EA7B3 EQ PUSH2 0x5CB JUMPI DUP1 PUSH4 0xB78F9C0 EQ PUSH2 0x5EA JUMPI DUP1 PUSH4 0xE37008A EQ PUSH2 0x609 JUMPI DUP1 PUSH4 0x1102610E EQ PUSH2 0x636 JUMPI DUP1 PUSH4 0x13966DB5 EQ PUSH2 0x655 JUMPI DUP1 PUSH4 0x18160DDD EQ PUSH2 0x66A JUMPI PUSH0 DUP1 REVERT JUMPDEST DUP1 PUSH3 0x59BE0D EQ PUSH2 0x4FF JUMPI DUP1 PUSH4 0x1FFC9A7 EQ PUSH2 0x53B JUMPI DUP1 PUSH4 0x6FDDE03 EQ PUSH2 0x56A JUMPI DUP1 PUSH4 0x81812FC EQ PUSH2 0x58B JUMPI DUP1 PUSH4 0x8EC6C3C EQ PUSH2 0x5AA JUMPI PUSH0 DUP1 REVERT JUMPDEST CALLDATASIZE PUSH2 0x4FB JUMPI STOP JUMPDEST PUSH0 DUP1 REVERT JUMPDEST CALLVALUE DUP1 ISZERO PUSH2 0x50A JUMPI PUSH0 DUP1 REVERT JUMPDEST POP PUSH1 0x8 SLOAD PUSH2 0x51E SWAP1 PUSH1 0x1 PUSH1 0x1 PUSH1 0xA0 SHL SUB AND DUP2 JUMP JUMPDEST PUSH1 0x40 MLOAD PUSH1 0x1 PUSH1 0x1 PUSH1 0xA0 SHL SUB SWAP1 SWAP2 AND DUP2 MSTORE PUSH1 0x20 ADD JUMPDEST PUSH1 0x40 MLOAD DUP1 SWAP2 SUB SWAP1 RETURN JUMPDEST CALLVALUE DUP1 ISZERO PUSH2 0x546 JUMPI PUSH0 DUP1 REVERT JUMPDEST POP PUSH2 0x55A PUSH2 0x555 CALLDATASIZE PUSH1 0x4 PUSH2 0x4DB4 JUMP JUMPDEST PUSH2 0x1091 JUMP JUMPDEST PUSH1 0x40 MLOAD SWAP1 ISZERO ISZERO DUP2 MSTORE PUSH1 0x20 ADD PUSH2 0x532 JUMP JUMPDEST CALLVALUE DUP1 ISZERO PUSH2 0x575 JUMPI PUSH0 DUP1 REVERT JUMPDEST POP PUSH2 0x57E PUSH2 0x10A1 JUMP JUMPDEST PUSH1 0x40 MLOAD PUSH2 0x532 SWAP2 SWAP1 PUSH2 0x4E1C JUMP JUMPDEST CALLVALUE DUP1 ISZERO PUSH2 0x596 JUMPI PUSH0 DUP1 REVERT JUMPDEST POP PUSH2 0x51E PUSH2 0x5A5 CALLDATASIZE PUSH1 0x4 PUSH2 0x4E2E JUMP JUMPDEST PUSH2 0x1142 JUMP JUMPDEST CALLVALUE DUP1 ISZERO PUSH2 0x5B5 JUMPI PUSH0 DUP1 REVERT JUMPDEST POP PUSH2 0x5C9 PUSH2 0x5C4 CALLDATASIZE PUSH1 0x4 PUSH2 0x4E60 JUMP JUMPDEST PUSH2 0x1156 JUMP JUMPDEST STOP JUMPDEST CALLVALUE DUP1 ISZERO PUSH2 0x5D6 JUMPI PUSH0 DUP1 REVERT JUMPDEST POP PUSH2 0x5C9 PUSH2 0x5E5 CALLDATASIZE PUSH1 0x4 PUSH2 0x4E79 JUMP JUMPDEST PUSH2 0x11C1 JUMP JUMPDEST CALLVALUE DUP1 ISZERO PUSH2 0x5F5 JUMPI PUSH0 DUP1 REVERT JUMPDEST POP PUSH2 0x5C9 PUSH2 0x604 CALLDATASIZE PUSH1 0x4 PUSH2 0x4EA1 JUMP JUMPDEST PUSH2 0x11D0 JUMP JUMPDEST CALLVALUE DUP1 ISZERO PUSH2 0x614 JUMPI PUSH0 DUP1 REVERT JUMPDEST POP PUSH2 0x628 PUSH2 0x623 CALLDATASIZE PUSH1 0x4 PUSH2 0x4E2E JUMP JUMPDEST PUSH2 0x11E3 JUMP JUMPDEST PUSH1 0x40 MLOAD SWAP1 DUP2 MSTORE PUSH1 0x20 ADD PUSH2 0x532 JUMP JUMPDEST CALLVALUE DUP1 ISZERO PUSH2 0x641 JUMPI PUSH0 DUP1 REVERT JUMPDEST POP PUSH2 0x5C9 PUSH2 0x650 CALLDATASIZE PUSH1 0x4 PUSH2 0x4E60 JUMP JUMPDEST PUSH2 0x1205 JUMP JUMPDEST CALLVALUE DUP1 ISZERO PUSH2 0x660 JUMPI PUSH0 DUP1 REVERT JUMPDEST POP PUSH2 0x628 PUSH1 0xE SLOAD DUP2 JUMP JUMPDEST CALLVALUE DUP1 ISZERO PUSH2 0x675 JUMPI PUSH0 DUP1 REVERT JUMPDEST POP PUSH0 DUP1 MLOAD PUSH1 0x20 PUSH2 0x5E65 DUP4 CODECOPY DUP2 MLOAD SWAP2 MSTORE SLOAD PUSH2 0x628 JUMP JUMPDEST CALLVALUE DUP1 ISZERO PUSH2 0x695 JUMPI PUSH0 DUP1 REVERT JUMPDEST POP PUSH2 0x5C9 PUSH2 0x6A4 CALLDATASIZE PUSH1 0x4 PUSH2 0x4FD4 JUMP JUMPDEST PUSH2 0x122F JUMP JUMPDEST CALLVALUE DUP1 ISZERO PUSH2 0x6B4 JUMPI PUSH0 DUP1 REVERT JUMPDEST POP PUSH2 0x5C9 PUSH2 0x6C3 CALLDATASIZE PUSH1 0x4 PUSH2 0x4E2E JUMP JUMPDEST PUSH2 0x1241 JUMP JUMPDEST CALLVALUE DUP1 ISZERO PUSH2 0x6D3 JUMPI PUSH0 DUP1 REVERT JUMPDEST POP PUSH2 0x5C9 PUSH2 0x6E2 CALLDATASIZE PUSH1 0x4 PUSH2 0x504C JUMP JUMPDEST PUSH2 0x1AF0 JUMP JUMPDEST CALLVALUE DUP1 ISZERO PUSH2 0x6F2 JUMPI PUSH0 DUP1 REVERT JUMPDEST POP PUSH2 0x5C9 PUSH2 0x701 CALLDATASIZE PUSH1 0x4 PUSH2 0x50E3 JUMP JUMPDEST PUSH2 0x1B47 JUMP JUMPDEST CALLVALUE DUP1 ISZERO PUSH2 0x711 JUMPI PUSH0 DUP1 REVERT JUMPDEST POP PUSH2 0x5C9 PUSH2 0x720 CALLDATASIZE PUSH1 0x4 PUSH2 0x4E2E JUMP JUMPDEST PUSH2 0x1BD0 JUMP JUMPDEST CALLVALUE DUP1 ISZERO PUSH2 0x730 JUMPI PUSH0 DUP1 REVERT JUMPDEST POP PUSH1 0x7 SLOAD PUSH2 0x741 SWAP1 PUSH4 0xFFFFFFFF AND DUP2 JUMP JUMPDEST PUSH1 0x40 MLOAD PUSH4 0xFFFFFFFF SWAP1 SWAP2 AND DUP2 MSTORE PUSH1 0x20 ADD PUSH2 0x532 JUMP JUMPDEST CALLVALUE DUP1 ISZERO PUSH2 0x761 JUMPI PUSH0 DUP1 REVERT JUMPDEST POP PUSH1 0x7 SLOAD PUSH2 0x51E SWAP1 PUSH1 0x1 PUSH1 0x30 SHL SWAP1 DIV PUSH1 0x1 PUSH1 0x1 PUSH1 0xA0 SHL SUB AND DUP2 JUMP JUMPDEST CALLVALUE DUP1 ISZERO PUSH2 0x787 JUMPI PUSH0 DUP1 REVERT JUMPDEST POP PUSH1 0x10 SLOAD PUSH2 0x55A SWAP1 PUSH1 0xFF AND DUP2 JUMP JUMPDEST CALLVALUE DUP1 ISZERO PUSH2 0x7A0 JUMPI PUSH0 DUP1 REVERT JUMPDEST POP PUSH2 0x628 PUSH1 0x16 SLOAD DUP2 JUMP JUMPDEST CALLVALUE DUP1 ISZERO PUSH2 0x7B5 JUMPI PUSH0 DUP1 REVERT JUMPDEST POP PUSH2 0x5C9 PUSH2 0x7C4 CALLDATASIZE PUSH1 0x4 PUSH2 0x4E2E JUMP JUMPDEST PUSH2 0x1BDD JUMP JUMPDEST CALLVALUE DUP1 ISZERO PUSH2 0x7D4 JUMPI PUSH0 DUP1 REVERT JUMPDEST POP PUSH2 0x628 PUSH2 0x7E3 CALLDATASIZE PUSH1 0x4 PUSH2 0x4E79 JUMP JUMPDEST PUSH2 0x1BEA JUMP JUMPDEST CALLVALUE DUP1 ISZERO PUSH2 0x7F3 JUMPI PUSH0 DUP1 REVERT JUMPDEST POP PUSH2 0x5C9 PUSH2 0x802 CALLDATASIZE PUSH1 0x4 PUSH2 0x4E60 JUMP JUMPDEST PUSH2 0x1C5B JUMP JUMPDEST CALLVALUE DUP1 ISZERO PUSH2 0x812 JUMPI PUSH0 DUP1 REVERT JUMPDEST POP PUSH2 0x5C9 PUSH2 0x821 CALLDATASIZE PUSH1 0x4 PUSH2 0x511C JUMP JUMPDEST PUSH2 0x1C85 JUMP JUMPDEST CALLVALUE DUP1 ISZERO PUSH2 0x831 JUMPI PUSH0 DUP1 REVERT JUMPDEST POP PUSH2 0x5C9 PUSH2 0x840 CALLDATASIZE PUSH1 0x4 PUSH2 0x4E2E JUMP JUMPDEST PUSH2 0x1CCC JUMP JUMPDEST CALLVALUE DUP1 ISZERO PUSH2 0x850 JUMPI PUSH0 DUP1 REVERT JUMPDEST POP PUSH2 0x5C9 PUSH2 0x85F CALLDATASIZE PUSH1 0x4 PUSH2 0x4E2E JUMP JUMPDEST PUSH2 0x1CD9 JUMP JUMPDEST CALLVALUE DUP1 ISZERO PUSH2 0x86F JUMPI PUSH0 DUP1 REVERT JUMPDEST POP PUSH1 0x2 SLOAD PUSH2 0x51E SWAP1 PUSH1 0x1 PUSH1 0x1 PUSH1 0xA0 SHL SUB AND DUP2 JUMP JUMPDEST CALLVALUE DUP1 ISZERO PUSH2 0x88E JUMPI PUSH0 DUP1 REVERT JUMPDEST POP PUSH2 0x5C9 PUSH2 0x1CED JUMP JUMPDEST CALLVALUE DUP1 ISZERO PUSH2 0x8A2 JUMPI PUSH0 DUP1 REVERT JUMPDEST POP PUSH2 0x8B6 PUSH2 0x8B1 CALLDATASIZE PUSH1 0x4 PUSH2 0x4E60 JUMP JUMPDEST PUSH2 0x1CFF JUMP JUMPDEST PUSH1 0x40 MLOAD PUSH2 0x532 SWAP3 SWAP2 SWAP1 PUSH2 0x5196 JUMP JUMPDEST CALLVALUE DUP1 ISZERO PUSH2 0x8CF JUMPI PUSH0 DUP1 REVERT JUMPDEST POP PUSH2 0x5C9 PUSH2 0x8DE CALLDATASIZE PUSH1 0x4 PUSH2 0x50E3 JUMP JUMPDEST PUSH2 0x1DBF JUMP JUMPDEST CALLVALUE DUP1 ISZERO PUSH2 0x8EE JUMPI PUSH0 DUP1 REVERT JUMPDEST POP PUSH2 0x5C9 PUSH2 0x8FD CALLDATASIZE PUSH1 0x4 PUSH2 0x4E2E JUMP JUMPDEST PUSH2 0x1DDE JUMP JUMPDEST CALLVALUE DUP1 ISZERO PUSH2 0x90D JUMPI PUSH0 DUP1 REVERT JUMPDEST POP PUSH1 0xB SLOAD PUSH2 0x51E SWAP1 PUSH1 0x1 PUSH1 0x1 PUSH1 0xA0 SHL SUB AND DUP2 JUMP JUMPDEST CALLVALUE DUP1 ISZERO PUSH2 0x92C JUMPI PUSH0 DUP1 REVERT JUMPDEST POP PUSH2 0x628 PUSH1 0x13 SLOAD DUP2 JUMP JUMPDEST PUSH2 0x5C9 PUSH2 0x944 CALLDATASIZE PUSH1 0x4 PUSH2 0x4E2E JUMP JUMPDEST PUSH2 0x1DE9 JUMP JUMPDEST CALLVALUE DUP1 ISZERO PUSH2 0x954 JUMPI PUSH0 DUP1 REVERT JUMPDEST POP PUSH2 0x628 PUSH1 0x15 SLOAD DUP2 JUMP JUMPDEST PUSH2 0x5C9 PUSH2 0x96C CALLDATASIZE PUSH1 0x4 PUSH2 0x51CC JUMP JUMPDEST PUSH2 0x2334 JUMP JUMPDEST CALLVALUE DUP1 ISZERO PUSH2 0x97C JUMPI PUSH0 DUP1 REVERT JUMPDEST POP PUSH2 0x628 PUSH2 0x98B CALLDATASIZE PUSH1 0x4 PUSH2 0x4E2E JUMP JUMPDEST PUSH2 0x234F JUMP JUMPDEST CALLVALUE DUP1 ISZERO PUSH2 0x99B JUMPI PUSH0 DUP1 REVERT JUMPDEST POP PUSH2 0x628 PUSH2 0x23C1 JUMP JUMPDEST CALLVALUE DUP1 ISZERO PUSH2 0x9AF JUMPI PUSH0 DUP1 REVERT JUMPDEST POP PUSH2 0x5C9 PUSH2 0x9BE CALLDATASIZE PUSH1 0x4 PUSH2 0x520C JUMP JUMPDEST PUSH2 0x23DC JUMP JUMPDEST CALLVALUE DUP1 ISZERO PUSH2 0x9CE JUMPI PUSH0 DUP1 REVERT JUMPDEST POP PUSH2 0x5C9 PUSH2 0x9DD CALLDATASIZE PUSH1 0x4 PUSH2 0x4E2E JUMP JUMPDEST PUSH2 0x2400 JUMP JUMPDEST CALLVALUE DUP1 ISZERO PUSH2 0x9ED JUMPI PUSH0 DUP1 REVERT JUMPDEST POP PUSH0 DUP1 MLOAD PUSH1 0x20 PUSH2 0x5E85 DUP4 CODECOPY DUP2 MLOAD SWAP2 MSTORE SLOAD PUSH1 0xFF AND PUSH2 0x55A JUMP JUMPDEST CALLVALUE DUP1 ISZERO PUSH2 0xA10 JUMPI PUSH0 DUP1 REVERT JUMPDEST POP PUSH2 0x5C9 PUSH2 0xA1F CALLDATASIZE PUSH1 0x4 PUSH2 0x4E60 JUMP JUMPDEST PUSH2 0x2738 JUMP JUMPDEST CALLVALUE DUP1 ISZERO PUSH2 0xA2F JUMPI PUSH0 DUP1 REVERT JUMPDEST POP PUSH2 0x628 PUSH1 0x6 SLOAD DUP2 JUMP JUMPDEST CALLVALUE DUP1 ISZERO PUSH2 0xA44 JUMPI PUSH0 DUP1 REVERT JUMPDEST POP PUSH2 0x51E PUSH2 0xA53 CALLDATASIZE PUSH1 0x4 PUSH2 0x4E2E JUMP JUMPDEST PUSH2 0x2791 JUMP JUMPDEST CALLVALUE DUP1 ISZERO PUSH2 0xA63 JUMPI PUSH0 DUP1 REVERT JUMPDEST POP PUSH2 0x5C9 PUSH2 0xA72 CALLDATASIZE PUSH1 0x4 PUSH2 0x4EA1 JUMP JUMPDEST PUSH2 0x279B JUMP JUMPDEST CALLVALUE DUP1 ISZERO PUSH2 0xA82 JUMPI PUSH0 DUP1 REVERT JUMPDEST POP PUSH2 0x628 PUSH2 0xA91 CALLDATASIZE PUSH1 0x4 PUSH2 0x4E60 JUMP JUMPDEST PUSH2 0x27FE JUMP JUMPDEST CALLVALUE DUP1 ISZERO PUSH2 0xAA1 JUMPI PUSH0 DUP1 REVERT JUMPDEST POP PUSH2 0x5C9 PUSH2 0x2856 JUMP JUMPDEST CALLVALUE DUP1 ISZERO PUSH2 0xAB5 JUMPI PUSH0 DUP1 REVERT JUMPDEST POP PUSH2 0x628 PUSH0 SLOAD DUP2 JUMP JUMPDEST CALLVALUE DUP1 ISZERO PUSH2 0xAC9 JUMPI PUSH0 DUP1 REVERT JUMPDEST POP PUSH2 0x5C9 PUSH2 0x2867 JUMP JUMPDEST CALLVALUE DUP1 ISZERO PUSH2 0xADD JUMPI PUSH0 DUP1 REVERT JUMPDEST POP PUSH2 0x5C9 PUSH2 0x2B13 JUMP JUMPDEST CALLVALUE DUP1 ISZERO PUSH2 0xAF1 JUMPI PUSH0 DUP1 REVERT JUMPDEST POP PUSH1 0xC SLOAD PUSH2 0x51E SWAP1 PUSH1 0x1 PUSH1 0x1 PUSH1 0xA0 SHL SUB AND DUP2 JUMP JUMPDEST CALLVALUE DUP1 ISZERO PUSH2 0xB10 JUMPI PUSH0 DUP1 REVERT JUMPDEST POP PUSH2 0x628 PUSH2 0xB1F CALLDATASIZE PUSH1 0x4 PUSH2 0x4E2E JUMP JUMPDEST PUSH2 0x2B23 JUMP JUMPDEST CALLVALUE DUP1 ISZERO PUSH2 0xB2F JUMPI PUSH0 DUP1 REVERT JUMPDEST POP PUSH2 0x628 PUSH1 0x3 SLOAD DUP2 JUMP JUMPDEST CALLVALUE DUP1 ISZERO PUSH2 0xB44 JUMPI PUSH0 DUP1 REVERT JUMPDEST POP PUSH2 0x628 PUSH1 0xF SLOAD DUP2 JUMP JUMPDEST CALLVALUE DUP1 ISZERO PUSH2 0xB59 JUMPI PUSH0 DUP1 REVERT JUMPDEST POP PUSH2 0x51E PUSH2 0x2B42 JUMP JUMPDEST CALLVALUE DUP1 ISZERO PUSH2 0xB6D JUMPI PUSH0 DUP1 REVERT JUMPDEST POP PUSH2 0x5C9 PUSH2 0xB7C CALLDATASIZE PUSH1 0x4 PUSH2 0x4E60 JUMP JUMPDEST PUSH2 0x2B70 JUMP JUMPDEST CALLVALUE DUP1 ISZERO PUSH2 0xB8C JUMPI PUSH0 DUP1 REVERT JUMPDEST POP PUSH2 0x5C9 PUSH2 0xB9B CALLDATASIZE PUSH1 0x4 PUSH2 0x4E2E JUMP JUMPDEST PUSH2 0x2BAC JUMP JUMPDEST CALLVALUE DUP1 ISZERO PUSH2 0xBAB JUMPI PUSH0 DUP1 REVERT JUMPDEST POP PUSH2 0x57E PUSH2 0x2FB7 JUMP JUMPDEST CALLVALUE DUP1 ISZERO PUSH2 0xBBF JUMPI PUSH0 DUP1 REVERT JUMPDEST POP PUSH2 0x5C9 PUSH2 0xBCE CALLDATASIZE PUSH1 0x4 PUSH2 0x4E2E JUMP JUMPDEST PUSH2 0x2FF5 JUMP JUMPDEST CALLVALUE DUP1 ISZERO PUSH2 0xBDE JUMPI PUSH0 DUP1 REVERT JUMPDEST POP PUSH2 0x628 PUSH2 0xBED CALLDATASIZE PUSH1 0x4 PUSH2 0x4E2E JUMP JUMPDEST PUSH1 0x19 PUSH1 0x20 MSTORE PUSH0 SWAP1 DUP2 MSTORE PUSH1 0x40 SWAP1 KECCAK256 SLOAD DUP2 JUMP JUMPDEST CALLVALUE DUP1 ISZERO PUSH2 0xC09 JUMPI PUSH0 DUP1 REVERT JUMPDEST POP PUSH2 0x5C9 PUSH2 0xC18 CALLDATASIZE PUSH1 0x4 PUSH2 0x4E2E JUMP JUMPDEST PUSH2 0x3002 JUMP JUMPDEST CALLVALUE DUP1 ISZERO PUSH2 0xC28 JUMPI PUSH0 DUP1 REVERT JUMPDEST POP PUSH2 0xC63 PUSH2 0xC37 CALLDATASIZE PUSH1 0x4 PUSH2 0x4E2E JUMP JUMPDEST PUSH1 0x1 PUSH1 0x20 MSTORE PUSH0 SWAP1 DUP2 MSTORE PUSH1 0x40 SWAP1 KECCAK256 DUP1 SLOAD PUSH1 0x2 DUP3 ADD SLOAD PUSH1 0x3 SWAP1 SWAP3 ADD SLOAD PUSH1 0xFF DUP1 DUP4 AND SWAP4 PUSH2 0x100 SWAP1 SWAP4 DIV AND SWAP2 SWAP1 DUP5 JUMP JUMPDEST PUSH1 0x40 DUP1 MLOAD SWAP5 ISZERO ISZERO DUP6 MSTORE SWAP3 ISZERO ISZERO PUSH1 0x20 DUP6 ADD MSTORE SWAP2 DUP4 ADD MSTORE PUSH1 0x60 DUP3 ADD MSTORE PUSH1 0x80 ADD PUSH2 0x532 JUMP JUMPDEST CALLVALUE DUP1 ISZERO PUSH2 0xC90 JUMPI PUSH0 DUP1 REVERT JUMPDEST POP PUSH2 0x5C9 PUSH2 0xC9F CALLDATASIZE PUSH1 0x4 PUSH2 0x523C JUMP JUMPDEST PUSH2 0x300F JUMP JUMPDEST CALLVALUE DUP1 ISZERO PUSH2 0xCAF JUMPI PUSH0 DUP1 REVERT JUMPDEST POP PUSH2 0x5C9 PUSH2 0xCBE CALLDATASIZE PUSH1 0x4 PUSH2 0x4E2E JUMP JUMPDEST PUSH2 0x301A JUMP JUMPDEST CALLVALUE DUP1 ISZERO PUSH2 0xCCE JUMPI PUSH0 DUP1 REVERT JUMPDEST POP PUSH2 0x57E PUSH1 0x40 MLOAD DUP1 PUSH1 0x40 ADD PUSH1 0x40 MSTORE DUP1 PUSH1 0x5 DUP2 MSTORE PUSH1 0x20 ADD PUSH5 0x352E302E3 PUSH1 0xDC SHL DUP2 MSTORE POP DUP2 JUMP JUMPDEST CALLVALUE DUP1 ISZERO PUSH2 0xCFE JUMPI PUSH0 DUP1 REVERT JUMPDEST POP PUSH2 0x51E PUSH2 0xD0D CALLDATASIZE PUSH1 0x4 PUSH2 0x4E2E JUMP JUMPDEST PUSH2 0x3027 JUMP JUMPDEST CALLVALUE DUP1 ISZERO PUSH2 0xD1D JUMPI PUSH0 DUP1 REVERT JUMPDEST POP PUSH2 0x5C9 PUSH2 0xD2C CALLDATASIZE PUSH1 0x4 PUSH2 0x4E2E JUMP JUMPDEST PUSH2 0x304F JUMP JUMPDEST CALLVALUE DUP1 ISZERO PUSH2 0xD3C JUMPI PUSH0 DUP1 REVERT JUMPDEST POP PUSH1 0x7 SLOAD PUSH2 0xD53 SWAP1 PUSH5 0x100000000 SWAP1 DIV PUSH2 0xFFFF AND DUP2 JUMP JUMPDEST PUSH1 0x40 MLOAD PUSH2 0xFFFF SWAP1 SWAP2 AND DUP2 MSTORE PUSH1 0x20 ADD PUSH2 0x532 JUMP JUMPDEST CALLVALUE DUP1 ISZERO PUSH2 0xD71 JUMPI PUSH0 DUP1 REVERT JUMPDEST POP PUSH2 0x5C9 PUSH2 0xD80 CALLDATASIZE PUSH1 0x4 PUSH2 0x5271 JUMP JUMPDEST PUSH2 0x312E JUMP JUMPDEST CALLVALUE DUP1 ISZERO PUSH2 0xD90 JUMPI PUSH0 DUP1 REVERT JUMPDEST POP PUSH2 0xDCD PUSH2 0xD9F CALLDATASIZE PUSH1 0x4 PUSH2 0x4E2E JUMP JUMPDEST PUSH1 0x1D PUSH1 0x20 MSTORE PUSH0 SWAP1 DUP2 MSTORE PUSH1 0x40 SWAP1 KECCAK256 DUP1 SLOAD PUSH1 0x1 DUP3 ADD SLOAD PUSH1 0x2 DUP4 ADD SLOAD PUSH1 0x3 DUP5 ADD SLOAD PUSH1 0x4 SWAP1 SWAP5 ADD SLOAD SWAP3 SWAP4 SWAP2 SWAP3 SWAP1 SWAP2 SWAP1 DUP6 JUMP JUMPDEST PUSH1 0x40 DUP1 MLOAD SWAP6 DUP7 MSTORE PUSH1 0x20 DUP7 ADD SWAP5 SWAP1 SWAP5 MSTORE SWAP3 DUP5 ADD SWAP2 SWAP1 SWAP2 MSTORE PUSH1 0x60 DUP4 ADD MSTORE PUSH1 0x80 DUP3 ADD MSTORE PUSH1 0xA0 ADD PUSH2 0x532 JUMP JUMPDEST CALLVALUE DUP1 ISZERO PUSH2 0xE00 JUMPI PUSH0 DUP1 REVERT JUMPDEST POP PUSH2 0x5C9 PUSH2 0xE0F CALLDATASIZE PUSH1 0x4 PUSH2 0x4E2E JUMP JUMPDEST PUSH2 0x3149 JUMP JUMPDEST CALLVALUE DUP1 ISZERO PUSH2 0xE1F JUMPI PUSH0 DUP1 REVERT JUMPDEST POP PUSH2 0x5C9 PUSH2 0xE2E CALLDATASIZE PUSH1 0x4 PUSH2 0x4E79 JUMP JUMPDEST PUSH2 0x3156 JUMP JUMPDEST CALLVALUE DUP1 ISZERO PUSH2 0xE3E JUMPI PUSH0 DUP1 REVERT JUMPDEST POP PUSH2 0x5C9 PUSH2 0xE4D CALLDATASIZE PUSH1 0x4 PUSH2 0x528C JUMP JUMPDEST PUSH2 0x3172 JUMP JUMPDEST CALLVALUE DUP1 ISZERO PUSH2 0xE5D JUMPI PUSH0 DUP1 REVERT JUMPDEST POP PUSH2 0x628 PUSH1 0x12 SLOAD DUP2 JUMP JUMPDEST CALLVALUE DUP1 ISZERO PUSH2 0xE72 JUMPI PUSH0 DUP1 REVERT JUMPDEST POP PUSH2 0x628 PUSH1 0x1A SLOAD DUP2 JUMP JUMPDEST CALLVALUE DUP1 ISZERO PUSH2 0xE87 JUMPI PUSH0 DUP1 REVERT JUMPDEST POP PUSH1 0xD SLOAD PUSH2 0x51E SWAP1 PUSH1 0x1 PUSH1 0x1 PUSH1 0xA0 SHL SUB AND DUP2 JUMP JUMPDEST CALLVALUE DUP1 ISZERO PUSH2 0xEA6 JUMPI PUSH0 DUP1 REVERT JUMPDEST POP PUSH2 0x5C9 PUSH2 0xEB5 CALLDATASIZE PUSH1 0x4 PUSH2 0x4E79 JUMP JUMPDEST PUSH2 0x3189 JUMP JUMPDEST CALLVALUE DUP1 ISZERO PUSH2 0xEC5 JUMPI PUSH0 DUP1 REVERT JUMPDEST POP PUSH2 0x57E PUSH2 0xED4 CALLDATASIZE PUSH1 0x4 PUSH2 0x4E2E JUMP JUMPDEST PUSH2 0x32F4 JUMP JUMPDEST CALLVALUE DUP1 ISZERO PUSH2 0xEE4 JUMPI PUSH0 DUP1 REVERT JUMPDEST POP PUSH2 0x5C9 PUSH2 0xEF3 CALLDATASIZE PUSH1 0x4 PUSH2 0x5271 JUMP JUMPDEST PUSH2 0x32FF JUMP JUMPDEST CALLVALUE DUP1 ISZERO PUSH2 0xF03 JUMPI PUSH0 DUP1 REVERT JUMPDEST POP PUSH1 0x9 SLOAD PUSH2 0x55A SWAP1 PUSH1 0x1 PUSH1 0xA0 SHL SWAP1 DIV PUSH1 0xFF AND DUP2 JUMP JUMPDEST CALLVALUE DUP1 ISZERO PUSH2 0xF23 JUMPI PUSH0 DUP1 REVERT JUMPDEST POP PUSH1 0x9 SLOAD PUSH2 0x51E SWAP1 PUSH1 0x1 PUSH1 0x1 PUSH1 0xA0 SHL SUB AND DUP2 JUMP JUMPDEST CALLVALUE DUP1 ISZERO PUSH2 0xF42 JUMPI PUSH0 DUP1 REVERT JUMPDEST POP PUSH2 0x628 PUSH2 0xF51 CALLDATASIZE PUSH1 0x4 PUSH2 0x4E60 JUMP JUMPDEST PUSH1 0x18 PUSH1 0x20 MSTORE PUSH0 SWAP1 DUP2 MSTORE PUSH1 0x40 SWAP1 KECCAK256 SLOAD DUP2 JUMP JUMPDEST CALLVALUE DUP1 ISZERO PUSH2 0xF6D JUMPI PUSH0 DUP1 REVERT JUMPDEST POP PUSH2 0x628 PUSH1 0x14 SLOAD DUP2 JUMP JUMPDEST CALLVALUE DUP1 ISZERO PUSH2 0xF82 JUMPI PUSH0 DUP1 REVERT JUMPDEST POP PUSH2 0x628 PUSH2 0x2710 DUP2 JUMP JUMPDEST CALLVALUE DUP1 ISZERO PUSH2 0xF97 JUMPI PUSH0 DUP1 REVERT JUMPDEST POP PUSH2 0x55A PUSH2 0xFA6 CALLDATASIZE PUSH1 0x4 PUSH2 0x52EF JUMP JUMPDEST PUSH2 0x3325 JUMP JUMPDEST CALLVALUE DUP1 ISZERO PUSH2 0xFB6 JUMPI PUSH0 DUP1 REVERT JUMPDEST POP PUSH2 0x628 PUSH1 0x1B SLOAD DUP2 JUMP JUMPDEST CALLVALUE DUP1 ISZERO PUSH2 0xFCB JUMPI PUSH0 DUP1 REVERT JUMPDEST POP PUSH2 0x5C9 PUSH2 0xFDA CALLDATASIZE PUSH1 0x4 PUSH2 0x4E2E JUMP JUMPDEST PUSH2 0x3371 JUMP JUMPDEST CALLVALUE DUP1 ISZERO PUSH2 0xFEA JUMPI PUSH0 DUP1 REVERT JUMPDEST POP PUSH1 0xA SLOAD PUSH2 0x51E SWAP1 PUSH1 0x1 PUSH1 0x1 PUSH1 0xA0 SHL SUB AND DUP2 JUMP JUMPDEST CALLVALUE DUP1 ISZERO PUSH2 0x1009 JUMPI PUSH0 DUP1 REVERT JUMPDEST POP PUSH2 0x5C9 PUSH2 0x1018 CALLDATASIZE PUSH1 0x4 PUSH2 0x4E60 JUMP JUMPDEST PUSH2 0x33D1 JUMP JUMPDEST CALLVALUE DUP1 ISZERO PUSH2 0x1028 JUMPI PUSH0 DUP1 REVERT JUMPDEST POP PUSH2 0x5C9 PUSH2 0x1037 CALLDATASIZE PUSH1 0x4 PUSH2 0x5320 JUMP JUMPDEST PUSH2 0x340B JUMP JUMPDEST CALLVALUE DUP1 ISZERO PUSH2 0x1047 JUMPI PUSH0 DUP1 REVERT JUMPDEST POP PUSH2 0x628 PUSH2 0x1056 CALLDATASIZE PUSH1 0x4 PUSH2 0x4E60 JUMP JUMPDEST PUSH1 0x17 PUSH1 0x20 MSTORE PUSH0 SWAP1 DUP2 MSTORE PUSH1 0x40 SWAP1 KECCAK256 SLOAD DUP2 JUMP JUMPDEST CALLVALUE DUP1 ISZERO PUSH2 0x1072 JUMPI PUSH0 DUP1 REVERT JUMPDEST POP PUSH2 0x628 PUSH1 0x11 SLOAD DUP2 JUMP JUMPDEST CALLVALUE DUP1 ISZERO PUSH2 0x1087 JUMPI PUSH0 DUP1 REVERT JUMPDEST POP PUSH2 0x628 PUSH1 0x5 SLOAD DUP2 JUMP JUMPDEST PUSH0 PUSH2 0x109B DUP3 PUSH2 0x3437 JUMP JUMPDEST SWAP3 SWAP2 POP POP JUMP JUMPDEST PUSH0 DUP1 MLOAD PUSH1 0x20 PUSH2 0x5E25 DUP4 CODECOPY DUP2 MLOAD SWAP2 MSTORE DUP1 SLOAD PUSH1 0x60 SWAP2 SWAP1 DUP2 SWAP1 PUSH2 0x10C0 SWAP1 PUSH2 0x5341 JUMP JUMPDEST DUP1 PUSH1 0x1F ADD PUSH1 0x20 DUP1 SWAP2 DIV MUL PUSH1 0x20 ADD PUSH1 0x40 MLOAD SWAP1 DUP2 ADD PUSH1 0x40 MSTORE DUP1 SWAP3 SWAP2 SWAP1 DUP2 DUP2 MSTORE PUSH1 0x20 ADD DUP3 DUP1 SLOAD PUSH2 0x10EC SWAP1 PUSH2 0x5341 JUMP JUMPDEST DUP1 ISZERO PUSH2 0x1137 JUMPI DUP1 PUSH1 0x1F LT PUSH2 0x110E JUMPI PUSH2 0x100 DUP1 DUP4 SLOAD DIV MUL DUP4 MSTORE SWAP2 PUSH1 0x20 ADD SWAP2 PUSH2 0x1137 JUMP JUMPDEST DUP3 ADD SWAP2 SWAP1 PUSH0 MSTORE PUSH1 0x20 PUSH0 KECCAK256 SWAP1 JUMPDEST DUP2 SLOAD DUP2 MSTORE SWAP1 PUSH1 0x1 ADD SWAP1 PUSH1 0x20 ADD DUP1 DUP4 GT PUSH2 0x111A JUMPI DUP3 SWAP1 SUB PUSH1 0x1F AND DUP3 ADD SWAP2 JUMPDEST POP POP POP POP POP SWAP2 POP POP SWAP1 JUMP JUMPDEST PUSH0 PUSH2 0x114C DUP3 PUSH2 0x345B JUMP JUMPDEST POP PUSH2 0x109B DUP3 PUSH2 0x3492 JUMP JUMPDEST PUSH2 0x115E PUSH2 0x34CB JUMP JUMPDEST PUSH1 0x1 PUSH1 0x1 PUSH1 0xA0 SHL SUB DUP2 AND PUSH2 0x1192 JUMPI PUSH1 0x40 MLOAD PUSH3 0x461BCD PUSH1 0xE5 SHL DUP2 MSTORE PUSH1 0x20 PUSH1 0x4 DUP3 ADD MSTORE PUSH0 PUSH1 0x24 DUP3 ADD MSTORE PUSH1 0x44 ADD JUMPDEST PUSH1 0x40 MLOAD DUP1 SWAP2 SUB SWAP1 REVERT JUMPDEST PUSH1 0x7 DUP1 SLOAD PUSH1 0x1 PUSH1 0x1 PUSH1 0xA0 SHL SUB SWAP1 SWAP3 AND PUSH1 0x1 PUSH1 0x30 SHL MUL PUSH7 0x1000000000000 PUSH1 0x1 PUSH1 0xD0 SHL SUB NOT SWAP1 SWAP3 AND SWAP2 SWAP1 SWAP2 OR SWAP1 SSTORE JUMP JUMPDEST PUSH2 0x11CC DUP3 DUP3 CALLER PUSH2 0x34FD JUMP JUMPDEST POP POP JUMP JUMPDEST PUSH2 0x11D8 PUSH2 0x34CB JUMP JUMPDEST PUSH1 0xE SWAP2 SWAP1 SWAP2 SSTORE PUSH1 0xF SSTORE JUMP JUMPDEST PUSH0 DUP1 PUSH2 0x11EF DUP4 TIMESTAMP PUSH2 0x538D JUMP JUMPDEST SWAP1 POP PUSH2 0x11FE PUSH3 0x93A80 DUP3 PUSH2 0x53B4 JUMP JUMPDEST SWAP4 SWAP3 POP POP POP JUMP JUMPDEST PUSH2 0x120D PUSH2 0x34CB JUMP JUMPDEST PUSH1 0x9 DUP1 SLOAD PUSH1 0x1 PUSH1 0x1 PUSH1 0xA0 SHL SUB NOT AND PUSH1 0x1 PUSH1 0x1 PUSH1 0xA0 SHL SUB SWAP3 SWAP1 SWAP3 AND SWAP2 SWAP1 SWAP2 OR SWAP1 SSTORE JUMP JUMPDEST PUSH2 0x1237 PUSH2 0x34CB JUMP JUMPDEST PUSH2 0x11CC DUP3 DUP3 PUSH2 0x350A JUMP JUMPDEST PUSH2 0x1249 PUSH2 0x357C JUMP JUMPDEST PUSH2 0x1252 DUP2 PUSH2 0x2791 JUMP JUMPDEST PUSH1 0x1 PUSH1 0x1 PUSH1 0xA0 SHL SUB AND CALLER PUSH1 0x1 PUSH1 0x1 PUSH1 0xA0 SHL SUB AND EQ PUSH2 0x128B JUMPI PUSH1 0x40 MLOAD PUSH3 0x461BCD PUSH1 0xE5 SHL DUP2 MSTORE PUSH1 0x20 PUSH1 0x4 DUP3 ADD MSTORE PUSH0 PUSH1 0x24 DUP3 ADD MSTORE PUSH1 0x44 ADD PUSH2 0x1189 JUMP JUMPDEST PUSH1 0x7 SLOAD PUSH1 0x40 MLOAD PUSH4 0x9FC2D67 PUSH1 0xE1 SHL DUP2 MSTORE PUSH1 0x4 DUP2 ADD DUP4 SWAP1 MSTORE PUSH0 SWAP2 PUSH1 0x1 PUSH1 0x30 SHL SWAP1 DIV PUSH1 0x1 PUSH1 0x1 PUSH1 0xA0 SHL SUB AND SWAP1 PUSH4 0x13F85ACE SWAP1 PUSH1 0x24 ADD PUSH1 0xE0 PUSH1 0x40 MLOAD DUP1 DUP4 SUB DUP2 DUP7 GAS STATICCALL ISZERO DUP1 ISZERO PUSH2 0x12D9 JUMPI RETURNDATASIZE PUSH0 DUP1 RETURNDATACOPY RETURNDATASIZE PUSH0 REVERT JUMPDEST POP POP POP POP PUSH1 0x40 MLOAD RETURNDATASIZE PUSH1 0x1F NOT PUSH1 0x1F DUP3 ADD AND DUP3 ADD DUP1 PUSH1 0x40 MSTORE POP DUP2 ADD SWAP1 PUSH2 0x12FD SWAP2 SWAP1 PUSH2 0x5427 JUMP JUMPDEST PUSH1 0x7 SLOAD PUSH1 0x40 MLOAD PUSH4 0x44F2615 PUSH1 0xE1 SHL DUP2 MSTORE PUSH1 0x4 DUP2 ADD DUP6 SWAP1 MSTORE SWAP2 SWAP3 POP PUSH0 SWAP2 PUSH1 0x1 PUSH1 0x30 SHL SWAP1 SWAP2 DIV PUSH1 0x1 PUSH1 0x1 PUSH1 0xA0 SHL SUB AND SWAP1 PUSH4 0x89E4C2A SWAP1 PUSH1 0x24 ADD PUSH2 0x120 PUSH1 0x40 MLOAD DUP1 DUP4 SUB DUP2 DUP7 GAS STATICCALL ISZERO DUP1 ISZERO PUSH2 0x1350 JUMPI RETURNDATASIZE PUSH0 DUP1 RETURNDATACOPY RETURNDATASIZE PUSH0 REVERT JUMPDEST POP POP POP POP PUSH1 0x40 MLOAD RETURNDATASIZE PUSH1 0x1F NOT PUSH1 0x1F DUP3 ADD AND DUP3 ADD DUP1 PUSH1 0x40 MSTORE POP DUP2 ADD SWAP1 PUSH2 0x1374 SWAP2 SWAP1 PUSH2 0x54B8 JUMP JUMPDEST PUSH1 0x7 SLOAD PUSH1 0x40 MLOAD PUSH4 0xF61FA453 PUSH1 0xE0 SHL DUP2 MSTORE SWAP2 SWAP3 POP PUSH1 0x1 PUSH1 0x30 SHL SWAP1 DIV PUSH1 0x1 PUSH1 0x1 PUSH1 0xA0 SHL SUB AND SWAP1 PUSH4 0xF61FA453 SWAP1 PUSH2 0x13AE SWAP1 DUP6 SWAP1 DUP6 SWAP1 PUSH1 0x4 ADD PUSH2 0x5571 JUMP JUMPDEST PUSH2 0x200 PUSH1 0x40 MLOAD DUP1 DUP4 SUB DUP2 PUSH0 DUP8 GAS CALL ISZERO DUP1 ISZERO PUSH2 0x13CB JUMPI RETURNDATASIZE PUSH0 DUP1 RETURNDATACOPY RETURNDATASIZE PUSH0 REVERT JUMPDEST POP POP POP POP PUSH1 0x40 MLOAD RETURNDATASIZE PUSH1 0x1F NOT PUSH1 0x1F DUP3 ADD AND DUP3 ADD DUP1 PUSH1 0x40 MSTORE POP DUP2 ADD SWAP1 PUSH2 0x13EF SWAP2 SWAP1 PUSH2 0x558D JUMP JUMPDEST SWAP1 SWAP3 POP SWAP1 POP PUSH0 PUSH2 0x13FE DUP5 PUSH2 0x2791 JUMP JUMPDEST SWAP1 POP DUP3 PUSH1 0xC0 ADD MLOAD PUSH1 0x3 EQ PUSH2 0x142D JUMPI PUSH1 0x40 MLOAD PUSH3 0x461BCD PUSH1 0xE5 SHL DUP2 MSTORE PUSH1 0x20 PUSH1 0x4 DUP3 ADD MSTORE PUSH0 PUSH1 0x24 DUP3 ADD MSTORE PUSH1 0x44 ADD PUSH2 0x1189 JUMP JUMPDEST PUSH1 0x1 PUSH1 0xC0 DUP5 ADD MSTORE PUSH1 0x8 SLOAD PUSH1 0x40 MLOAD PUSH4 0x66A240F PUSH1 0xE2 SHL DUP2 MSTORE PUSH1 0x4 DUP2 ADD DUP7 SWAP1 MSTORE PUSH0 SWAP2 PUSH1 0x1 PUSH1 0x1 PUSH1 0xA0 SHL SUB AND SWAP1 PUSH4 0x19A8903C SWAP1 PUSH1 0x24 ADD PUSH1 0x20 PUSH1 0x40 MLOAD DUP1 DUP4 SUB DUP2 DUP7 GAS STATICCALL ISZERO DUP1 ISZERO PUSH2 0x147B JUMPI RETURNDATASIZE PUSH0 DUP1 RETURNDATACOPY RETURNDATASIZE PUSH0 REVERT JUMPDEST POP POP POP POP PUSH1 0x40 MLOAD RETURNDATASIZE PUSH1 0x1F NOT PUSH1 0x1F DUP3 ADD AND DUP3 ADD DUP1 PUSH1 0x40 MSTORE POP DUP2 ADD SWAP1 PUSH2 0x149F SWAP2 SWAP1 PUSH2 0x55B8 JUMP JUMPDEST PUSH1 0x8 SLOAD SWAP1 SWAP2 POP PUSH0 SWAP1 PUSH1 0x1 PUSH1 0x1 PUSH1 0xA0 SHL SUB AND PUSH4 0x9649F75E DUP8 PUSH2 0x14C1 PUSH1 0x1 DUP7 PUSH2 0x538D JUMP JUMPDEST PUSH2 0x14CC PUSH1 0x1 DUP8 PUSH2 0x538D JUMP JUMPDEST PUSH1 0x40 MLOAD PUSH1 0x1 PUSH1 0x1 PUSH1 0xE0 SHL SUB NOT PUSH1 0xE0 DUP7 SWAP1 SHL AND DUP2 MSTORE PUSH1 0x4 DUP2 ADD SWAP4 SWAP1 SWAP4 MSTORE PUSH1 0x24 DUP4 ADD SWAP2 SWAP1 SWAP2 MSTORE PUSH1 0x44 DUP3 ADD MSTORE PUSH1 0x64 ADD PUSH0 PUSH1 0x40 MLOAD DUP1 DUP4 SUB DUP2 DUP7 GAS STATICCALL ISZERO DUP1 ISZERO PUSH2 0x1512 JUMPI RETURNDATASIZE PUSH0 DUP1 RETURNDATACOPY RETURNDATASIZE PUSH0 REVERT JUMPDEST POP POP POP POP PUSH1 0x40 MLOAD RETURNDATASIZE PUSH0 DUP3 RETURNDATACOPY PUSH1 0x1F RETURNDATASIZE SWAP1 DUP2 ADD PUSH1 0x1F NOT AND DUP3 ADD PUSH1 0x40 MSTORE PUSH2 0x1539 SWAP2 SWAP1 DUP2 ADD SWAP1 PUSH2 0x56DE JUMP JUMPDEST PUSH0 DUP2 MLOAD DUP2 LT PUSH2 0x154A JUMPI PUSH2 0x154A PUSH2 0x585D JUMP JUMPDEST PUSH1 0x20 MUL PUSH1 0x20 ADD ADD MLOAD SWAP1 POP PUSH0 DUP3 GT PUSH2 0x157C JUMPI PUSH1 0x40 MLOAD PUSH3 0x461BCD PUSH1 0xE5 SHL DUP2 MSTORE PUSH1 0x20 PUSH1 0x4 DUP3 ADD MSTORE PUSH0 PUSH1 0x24 DUP3 ADD MSTORE PUSH1 0x44 ADD PUSH2 0x1189 JUMP JUMPDEST DUP1 PUSH2 0x100 ADD MLOAD PUSH1 0x2 EQ PUSH2 0x15AA JUMPI PUSH1 0x40 MLOAD PUSH3 0x461BCD PUSH1 0xE5 SHL DUP2 MSTORE PUSH1 0x20 PUSH1 0x4 DUP3 ADD MSTORE PUSH0 PUSH1 0x24 DUP3 ADD MSTORE PUSH1 0x44 ADD PUSH2 0x1189 JUMP JUMPDEST PUSH1 0xC0 DUP2 ADD MLOAD ISZERO PUSH2 0x15D5 JUMPI PUSH1 0x40 MLOAD PUSH3 0x461BCD PUSH1 0xE5 SHL DUP2 MSTORE PUSH1 0x20 PUSH1 0x4 DUP3 ADD MSTORE PUSH0 PUSH1 0x24 DUP3 ADD MSTORE PUSH1 0x44 ADD PUSH2 0x1189 JUMP JUMPDEST PUSH2 0x140 DUP2 ADD MLOAD PUSH0 SWAP1 DUP2 MSTORE PUSH1 0x1 PUSH1 0x20 MSTORE PUSH1 0x40 SWAP1 KECCAK256 SLOAD PUSH1 0xFF AND PUSH2 0x1611 JUMPI PUSH1 0x40 MLOAD PUSH3 0x461BCD PUSH1 0xE5 SHL DUP2 MSTORE PUSH1 0x20 PUSH1 0x4 DUP3 ADD MSTORE PUSH0 PUSH1 0x24 DUP3 ADD MSTORE PUSH1 0x44 ADD PUSH2 0x1189 JUMP JUMPDEST PUSH0 PUSH1 0x3C DUP3 PUSH1 0xA0 ADD MLOAD DUP4 PUSH1 0xE0 ADD MLOAD PUSH2 0x1628 SWAP2 SWAP1 PUSH2 0x538D JUMP JUMPDEST PUSH2 0x1632 SWAP2 SWAP1 PUSH2 0x53B4 JUMP JUMPDEST SWAP1 POP PUSH0 DUP2 GT PUSH2 0x165C JUMPI PUSH1 0x40 MLOAD PUSH3 0x461BCD PUSH1 0xE5 SHL DUP2 MSTORE PUSH1 0x20 PUSH1 0x4 DUP3 ADD MSTORE PUSH0 PUSH1 0x24 DUP3 ADD MSTORE PUSH1 0x44 ADD PUSH2 0x1189 JUMP JUMPDEST PUSH0 PUSH2 0x2711 PUSH1 0x1 PUSH0 DUP6 PUSH2 0x140 ADD MLOAD DUP2 MSTORE PUSH1 0x20 ADD SWAP1 DUP2 MSTORE PUSH1 0x20 ADD PUSH0 KECCAK256 PUSH1 0x1 ADD PUSH0 DUP2 SLOAD DUP2 LT PUSH2 0x168A JUMPI PUSH2 0x168A PUSH2 0x585D JUMP JUMPDEST SWAP1 PUSH0 MSTORE PUSH1 0x20 PUSH0 KECCAK256 ADD SLOAD PUSH2 0x169D SWAP2 SWAP1 PUSH2 0x5871 JUMP JUMPDEST SWAP1 POP DUP3 PUSH1 0x40 ADD MLOAD PUSH1 0x20 ADD MLOAD PUSH0 EQ ISZERO DUP1 ISZERO PUSH2 0x16BF JUMPI POP DUP3 PUSH1 0x40 ADD MLOAD PUSH1 0x80 ADD MLOAD DUP2 GT ISZERO JUMPDEST ISZERO PUSH2 0x1794 JUMPI PUSH2 0x2710 DUP4 PUSH1 0x40 ADD MLOAD PUSH1 0xC0 ADD MLOAD DUP4 PUSH2 0x16DB SWAP2 SWAP1 PUSH2 0x5884 JUMP JUMPDEST PUSH2 0x16E7 SWAP1 PUSH2 0x3E8 PUSH2 0x5884 JUMP JUMPDEST PUSH2 0x16F1 SWAP2 SWAP1 PUSH2 0x53B4 JUMP JUMPDEST PUSH2 0x120 DUP5 ADD MSTORE PUSH1 0x80 DUP7 ADD MLOAD PUSH0 SWAP1 PUSH2 0x1707 SWAP1 PUSH2 0x11E3 JUMP JUMPDEST SWAP1 POP PUSH2 0x2710 PUSH1 0x16 SLOAD DUP3 PUSH2 0x171A SWAP2 SWAP1 PUSH2 0x5884 JUMP JUMPDEST PUSH2 0x1726 SWAP1 PUSH2 0x3E8 PUSH2 0x5884 JUMP JUMPDEST PUSH2 0x1730 SWAP2 SWAP1 PUSH2 0x53B4 JUMP JUMPDEST DUP5 PUSH2 0x120 ADD DUP2 DUP2 MLOAD PUSH2 0x1742 SWAP2 SWAP1 PUSH2 0x589B JUMP JUMPDEST SWAP1 MSTORE POP PUSH1 0x5 PUSH2 0x100 DUP6 ADD MSTORE DUP7 MLOAD ISZERO PUSH2 0x1768 JUMPI PUSH1 0x20 DUP8 ADD DUP1 MLOAD SWAP1 PUSH2 0x1764 DUP3 PUSH2 0x58AE JUMP JUMPDEST SWAP1 MSTORE POP JUMPDEST PUSH1 0x20 DUP8 ADD MLOAD ISZERO DUP1 ISZERO PUSH2 0x177A JUMPI POP DUP7 MLOAD ISZERO ISZERO JUMPDEST ISZERO PUSH2 0x178E JUMPI PUSH0 PUSH1 0xC0 DUP10 ADD MSTORE PUSH2 0x178E DUP10 PUSH2 0x1CE1 JUMP JUMPDEST POP PUSH2 0x18A7 JUMP JUMPDEST PUSH1 0x40 DUP4 ADD MLOAD PUSH1 0x80 DUP2 ADD MLOAD PUSH1 0xA0 SWAP1 SWAP2 ADD MLOAD PUSH2 0x17AE SWAP2 SWAP1 PUSH2 0x589B JUMP JUMPDEST PUSH2 0x17BA SWAP1 PUSH2 0x2710 PUSH2 0x538D JUMP JUMPDEST DUP2 GT PUSH2 0x184F JUMPI PUSH2 0x2710 DUP4 PUSH1 0x40 ADD MLOAD PUSH1 0xC0 ADD MLOAD DUP4 PUSH2 0x17D7 SWAP2 SWAP1 PUSH2 0x5884 JUMP JUMPDEST PUSH2 0x17E3 SWAP1 PUSH2 0x3E8 PUSH2 0x5884 JUMP JUMPDEST PUSH2 0x17ED SWAP2 SWAP1 PUSH2 0x53B4 JUMP JUMPDEST PUSH2 0x120 DUP5 ADD MSTORE PUSH1 0x80 DUP7 ADD MLOAD PUSH0 SWAP1 PUSH2 0x1803 SWAP1 PUSH2 0x11E3 JUMP JUMPDEST SWAP1 POP PUSH2 0x2710 PUSH1 0x16 SLOAD DUP3 PUSH2 0x1816 SWAP2 SWAP1 PUSH2 0x5884 JUMP JUMPDEST PUSH2 0x1822 SWAP1 PUSH2 0x3E8 PUSH2 0x5884 JUMP JUMPDEST PUSH2 0x182C SWAP2 SWAP1 PUSH2 0x53B4 JUMP JUMPDEST DUP5 PUSH2 0x120 ADD DUP2 DUP2 MLOAD PUSH2 0x183E SWAP2 SWAP1 PUSH2 0x589B JUMP JUMPDEST SWAP1 MSTORE POP POP PUSH1 0x4 PUSH2 0x100 DUP5 ADD MSTORE PUSH2 0x18A7 JUMP JUMPDEST PUSH1 0x40 DUP4 ADD MLOAD PUSH1 0xC0 ADD MLOAD PUSH2 0x1862 SWAP1 DUP4 PUSH2 0x5884 JUMP JUMPDEST PUSH2 0x120 DUP5 ADD MSTORE PUSH1 0x80 DUP7 ADD MLOAD PUSH0 SWAP1 PUSH2 0x1878 SWAP1 PUSH2 0x11E3 JUMP JUMPDEST SWAP1 POP PUSH1 0x16 SLOAD DUP2 PUSH2 0x1888 SWAP2 SWAP1 PUSH2 0x5884 JUMP JUMPDEST DUP5 PUSH2 0x120 ADD DUP2 DUP2 MLOAD PUSH2 0x189A SWAP2 SWAP1 PUSH2 0x589B JUMP JUMPDEST SWAP1 MSTORE POP POP PUSH1 0x3 PUSH2 0x100 DUP5 ADD MSTORE JUMPDEST TIMESTAMP PUSH1 0xC0 DUP5 ADD MSTORE PUSH2 0x120 DUP4 ADD MLOAD PUSH1 0x1A SLOAD PUSH0 SWAP1 DUP2 MSTORE PUSH1 0x19 PUSH1 0x20 MSTORE PUSH1 0x40 DUP2 KECCAK256 DUP1 SLOAD SWAP1 SWAP2 SWAP1 PUSH2 0x18D3 SWAP1 DUP5 SWAP1 PUSH2 0x589B JUMP JUMPDEST SWAP1 SWAP2 SSTORE POP POP PUSH2 0x120 DUP4 ADD MLOAD PUSH1 0x1 PUSH1 0x1 PUSH1 0xA0 SHL SUB DUP7 AND PUSH0 SWAP1 DUP2 MSTORE PUSH1 0x17 PUSH1 0x20 MSTORE PUSH1 0x40 DUP2 KECCAK256 DUP1 SLOAD SWAP1 SWAP2 SWAP1 PUSH2 0x1905 SWAP1 DUP5 SWAP1 PUSH2 0x589B JUMP JUMPDEST SWAP1 SWAP2 SSTORE POP POP PUSH2 0x140 DUP4 ADD MLOAD PUSH0 SWAP1 DUP2 MSTORE PUSH1 0x1 PUSH1 0x20 DUP2 DUP2 MSTORE PUSH1 0x40 SWAP3 DUP4 SWAP1 KECCAK256 SWAP1 SWAP2 ADD DUP1 SLOAD DUP4 MLOAD DUP2 DUP5 MUL DUP2 ADD DUP5 ADD SWAP1 SWAP5 MSTORE DUP1 DUP5 MSTORE SWAP1 SWAP2 DUP4 ADD DUP3 DUP3 DUP1 ISZERO PUSH2 0x1964 JUMPI PUSH1 0x20 MUL DUP3 ADD SWAP2 SWAP1 PUSH0 MSTORE PUSH1 0x20 PUSH0 KECCAK256 SWAP1 JUMPDEST DUP2 SLOAD DUP2 MSTORE PUSH1 0x20 ADD SWAP1 PUSH1 0x1 ADD SWAP1 DUP1 DUP4 GT PUSH2 0x1950 JUMPI JUMPDEST POP POP POP POP POP DUP4 PUSH2 0x160 ADD DUP2 SWAP1 MSTORE POP PUSH0 DUP1 JUMPDEST PUSH1 0x1C SLOAD DUP2 LT ISZERO PUSH2 0x19C2 JUMPI DUP7 PUSH1 0x1 PUSH1 0x1 PUSH1 0xA0 SHL SUB AND PUSH1 0x1C DUP3 DUP2 SLOAD DUP2 LT PUSH2 0x199C JUMPI PUSH2 0x199C PUSH2 0x585D JUMP JUMPDEST PUSH0 SWAP2 DUP3 MSTORE PUSH1 0x20 SWAP1 SWAP2 KECCAK256 ADD SLOAD PUSH1 0x1 PUSH1 0x1 PUSH1 0xA0 SHL SUB AND SUB PUSH2 0x19BA JUMPI PUSH1 0x1 SWAP2 POP JUMPDEST PUSH1 0x1 ADD PUSH2 0x1975 JUMP JUMPDEST POP DUP1 PUSH2 0x1A13 JUMPI PUSH1 0x1C DUP1 SLOAD PUSH1 0x1 DUP2 ADD DUP3 SSTORE PUSH0 SWAP2 SWAP1 SWAP2 MSTORE PUSH32 0xE4562A10381DEC21B205ED72637E6B1B523BDD0E4D4D50AF5CD23DD4500A211 ADD DUP1 SLOAD PUSH1 0x1 PUSH1 0x1 PUSH1 0xA0 SHL SUB NOT AND PUSH1 0x1 PUSH1 0x1 PUSH1 0xA0 SHL SUB DUP9 AND OR SWAP1 SSTORE JUMPDEST PUSH1 0x7 SLOAD PUSH1 0x40 MLOAD PUSH4 0xF6CAC63F PUSH1 0xE0 SHL DUP2 MSTORE PUSH1 0x1 PUSH1 0x30 SHL SWAP1 SWAP2 DIV PUSH1 0x1 PUSH1 0x1 PUSH1 0xA0 SHL SUB AND SWAP1 PUSH4 0xF6CAC63F SWAP1 PUSH2 0x1A4D SWAP1 DUP13 SWAP1 DUP13 SWAP1 DUP13 SWAP1 PUSH1 0x4 ADD PUSH2 0x58C3 JUMP JUMPDEST PUSH0 PUSH1 0x40 MLOAD DUP1 DUP4 SUB DUP2 PUSH0 DUP8 DUP1 EXTCODESIZE ISZERO DUP1 ISZERO PUSH2 0x1A64 JUMPI PUSH0 DUP1 REVERT JUMPDEST POP GAS CALL ISZERO DUP1 ISZERO PUSH2 0x1A76 JUMPI RETURNDATASIZE PUSH0 DUP1 RETURNDATACOPY RETURNDATASIZE PUSH0 REVERT JUMPDEST POP POP PUSH1 0x8 SLOAD PUSH1 0x1 PUSH1 0x1 PUSH1 0xA0 SHL SUB AND SWAP2 POP PUSH4 0x6BF5D216 SWAP1 POP DUP11 PUSH2 0x1A99 PUSH1 0x1 DUP10 PUSH2 0x538D JUMP JUMPDEST DUP8 PUSH1 0x40 MLOAD DUP5 PUSH4 0xFFFFFFFF AND PUSH1 0xE0 SHL DUP2 MSTORE PUSH1 0x4 ADD PUSH2 0x1AB8 SWAP4 SWAP3 SWAP2 SWAP1 PUSH2 0x595A JUMP JUMPDEST PUSH0 PUSH1 0x40 MLOAD DUP1 DUP4 SUB DUP2 PUSH0 DUP8 DUP1 EXTCODESIZE ISZERO DUP1 ISZERO PUSH2 0x1ACF JUMPI PUSH0 DUP1 REVERT JUMPDEST POP GAS CALL ISZERO DUP1 ISZERO PUSH2 0x1AE1 JUMPI RETURNDATASIZE PUSH0 DUP1 RETURNDATACOPY RETURNDATASIZE PUSH0 REVERT JUMPDEST POP POP POP POP POP POP POP POP POP POP POP POP POP JUMP JUMPDEST PUSH1 0x2 SLOAD PUSH1 0x1 PUSH1 0x1 PUSH1 0xA0 SHL SUB AND CALLER EQ PUSH2 0x1B3D JUMPI PUSH1 0x40 MLOAD PUSH3 0x461BCD PUSH1 0xE5 SHL DUP2 MSTORE PUSH1 0x20 PUSH1 0x4 DUP3 ADD MSTORE PUSH1 0x10 PUSH1 0x24 DUP3 ADD MSTORE PUSH16 0x27B7363C9021B7B7B93234B730BA37B9 PUSH1 0x81 SHL PUSH1 0x44 DUP3 ADD MSTORE PUSH1 0x64 ADD PUSH2 0x1189 JUMP JUMPDEST PUSH2 0x11CC DUP3 DUP3 PUSH2 0x35AC JUMP JUMPDEST PUSH1 0x1 PUSH1 0x1 PUSH1 0xA0 SHL SUB DUP3 AND PUSH2 0x1B70 JUMPI PUSH1 0x40 MLOAD PUSH4 0x32505749 PUSH1 0xE1 SHL DUP2 MSTORE PUSH0 PUSH1 0x4 DUP3 ADD MSTORE PUSH1 0x24 ADD PUSH2 0x1189 JUMP JUMPDEST PUSH0 PUSH2 0x1B7C DUP4 DUP4 CALLER PUSH2 0x3615 JUMP JUMPDEST SWAP1 POP DUP4 PUSH1 0x1 PUSH1 0x1 PUSH1 0xA0 SHL SUB AND DUP2 PUSH1 0x1 PUSH1 0x1 PUSH1 0xA0 SHL SUB AND EQ PUSH2 0x1BCA JUMPI PUSH1 0x40 MLOAD PUSH4 0x64283D7B PUSH1 0xE0 SHL DUP2 MSTORE PUSH1 0x1 PUSH1 0x1 PUSH1 0xA0 SHL SUB DUP1 DUP7 AND PUSH1 0x4 DUP4 ADD MSTORE PUSH1 0x24 DUP3 ADD DUP5 SWAP1 MSTORE DUP3 AND PUSH1 0x44 DUP3 ADD MSTORE PUSH1 0x64 ADD PUSH2 0x1189 JUMP JUMPDEST POP POP POP POP JUMP JUMPDEST PUSH2 0x1BD8 PUSH2 0x34CB JUMP JUMPDEST PUSH1 0x16 SSTORE JUMP JUMPDEST PUSH2 0x1BE5 PUSH2 0x34CB JUMP JUMPDEST PUSH1 0x6 SSTORE JUMP JUMPDEST PUSH0 PUSH0 DUP1 MLOAD PUSH1 0x20 PUSH2 0x5E05 DUP4 CODECOPY DUP2 MLOAD SWAP2 MSTORE PUSH2 0x1C02 DUP5 PUSH2 0x27FE JUMP JUMPDEST DUP4 LT PUSH2 0x1C33 JUMPI PUSH1 0x40 MLOAD PUSH4 0x295F44F7 PUSH1 0xE2 SHL DUP2 MSTORE PUSH1 0x1 PUSH1 0x1 PUSH1 0xA0 SHL SUB DUP6 AND PUSH1 0x4 DUP3 ADD MSTORE PUSH1 0x24 DUP2 ADD DUP5 SWAP1 MSTORE PUSH1 0x44 ADD PUSH2 0x1189 JUMP JUMPDEST PUSH1 0x1 PUSH1 0x1 PUSH1 0xA0 SHL SUB DUP5 AND PUSH0 SWAP1 DUP2 MSTORE PUSH1 0x20 SWAP2 DUP3 MSTORE PUSH1 0x40 DUP1 DUP3 KECCAK256 DUP6 DUP4 MSTORE SWAP1 SWAP3 MSTORE KECCAK256 SLOAD SWAP1 POP SWAP3 SWAP2 POP POP JUMP JUMPDEST PUSH2 0x1C63 PUSH2 0x34CB JUMP JUMPDEST PUSH1 0xD DUP1 SLOAD PUSH1 0x1 PUSH1 0x1 PUSH1 0xA0 SHL SUB NOT AND PUSH1 0x1 PUSH1 0x1 PUSH1 0xA0 SHL SUB SWAP3 SWAP1 SWAP3 AND SWAP2 SWAP1 SWAP2 OR SWAP1 SSTORE JUMP JUMPDEST PUSH2 0x1C8D PUSH2 0x34CB JUMP JUMPDEST PUSH1 0xB DUP1 SLOAD PUSH1 0x1 PUSH1 0x1 PUSH1 0xA0 SHL SUB SWAP5 DUP6 AND PUSH1 0x1 PUSH1 0x1 PUSH1 0xA0 SHL SUB NOT SWAP2 DUP3 AND OR SWAP1 SWAP2 SSTORE PUSH1 0xA DUP1 SLOAD SWAP4 DUP6 AND SWAP4 DUP3 AND SWAP4 SWAP1 SWAP4 OR SWAP1 SWAP3 SSTORE PUSH1 0xC DUP1 SLOAD SWAP2 SWAP1 SWAP4 AND SWAP2 AND OR SWAP1 SSTORE JUMP JUMPDEST PUSH2 0x1CD4 PUSH2 0x34CB JUMP JUMPDEST PUSH1 0x1A SSTORE JUMP JUMPDEST PUSH2 0x1CE1 PUSH2 0x34CB JUMP JUMPDEST PUSH2 0x1CEA DUP2 PUSH2 0x37AE JUMP JUMPDEST POP JUMP JUMPDEST PUSH2 0x1CF5 PUSH2 0x34CB JUMP JUMPDEST PUSH2 0x1CFD PUSH2 0x37E6 JUMP JUMPDEST JUMP JUMPDEST PUSH0 PUSH1 0x60 PUSH1 0x1 PUSH1 0x1 PUSH1 0xA0 SHL SUB DUP4 AND PUSH2 0x1D31 JUMPI PUSH1 0x40 MLOAD PUSH3 0x461BCD PUSH1 0xE5 SHL DUP2 MSTORE PUSH1 0x20 PUSH1 0x4 DUP3 ADD MSTORE PUSH0 PUSH1 0x24 DUP3 ADD MSTORE PUSH1 0x44 ADD PUSH2 0x1189 JUMP JUMPDEST PUSH2 0x1D3A DUP4 PUSH2 0x27FE JUMP JUMPDEST SWAP2 POP DUP2 PUSH1 0x1 PUSH1 0x1 PUSH1 0x40 SHL SUB DUP2 GT ISZERO PUSH2 0x1D54 JUMPI PUSH2 0x1D54 PUSH2 0x4EC1 JUMP JUMPDEST PUSH1 0x40 MLOAD SWAP1 DUP1 DUP3 MSTORE DUP1 PUSH1 0x20 MUL PUSH1 0x20 ADD DUP3 ADD PUSH1 0x40 MSTORE DUP1 ISZERO PUSH2 0x1D7D JUMPI DUP2 PUSH1 0x20 ADD PUSH1 0x20 DUP3 MUL DUP1 CALLDATASIZE DUP4 CALLDATACOPY ADD SWAP1 POP JUMPDEST POP SWAP1 POP PUSH0 JUMPDEST DUP3 DUP2 LT ISZERO PUSH2 0x1DB9 JUMPI PUSH2 0x1D94 DUP5 DUP3 PUSH2 0x1BEA JUMP JUMPDEST DUP3 DUP3 DUP2 MLOAD DUP2 LT PUSH2 0x1DA6 JUMPI PUSH2 0x1DA6 PUSH2 0x585D JUMP JUMPDEST PUSH1 0x20 SWAP1 DUP2 MUL SWAP2 SWAP1 SWAP2 ADD ADD MSTORE PUSH1 0x1 ADD PUSH2 0x1D82 JUMP JUMPDEST POP SWAP2 POP SWAP2 JUMP JUMPDEST PUSH2 0x1DD9 DUP4 DUP4 DUP4 PUSH1 0x40 MLOAD DUP1 PUSH1 0x20 ADD PUSH1 0x40 MSTORE DUP1 PUSH0 DUP2 MSTORE POP PUSH2 0x3172 JUMP JUMPDEST POP POP POP JUMP JUMPDEST PUSH2 0x11CC PUSH0 DUP3 CALLER PUSH2 0x3615 JUMP JUMPDEST PUSH2 0x1DF1 PUSH2 0x357C JUMP JUMPDEST PUSH1 0x11 SLOAD CALLVALUE EQ PUSH2 0x1E1B JUMPI PUSH1 0x40 MLOAD PUSH3 0x461BCD PUSH1 0xE5 SHL DUP2 MSTORE PUSH1 0x20 PUSH1 0x4 DUP3 ADD MSTORE PUSH0 PUSH1 0x24 DUP3 ADD MSTORE PUSH1 0x44 ADD PUSH2 0x1189 JUMP JUMPDEST PUSH1 0xA SLOAD PUSH1 0x1 PUSH1 0x1 PUSH1 0xA0 SHL SUB AND PUSH2 0x1E4C JUMPI PUSH1 0x40 MLOAD PUSH3 0x461BCD PUSH1 0xE5 SHL DUP2 MSTORE PUSH1 0x20 PUSH1 0x4 DUP3 ADD MSTORE PUSH0 PUSH1 0x24 DUP3 ADD MSTORE PUSH1 0x44 ADD PUSH2 0x1189 JUMP JUMPDEST PUSH1 0xA SLOAD PUSH1 0x11 SLOAD PUSH1 0x40 MLOAD PUSH0 SWAP3 PUSH1 0x1 PUSH1 0x1 PUSH1 0xA0 SHL SUB AND SWAP2 SWAP1 DUP4 DUP2 DUP2 DUP2 DUP6 DUP8 GAS CALL SWAP3 POP POP POP RETURNDATASIZE DUP1 PUSH0 DUP2 EQ PUSH2 0x1E98 JUMPI PUSH1 0x40 MLOAD SWAP2 POP PUSH1 0x1F NOT PUSH1 0x3F RETURNDATASIZE ADD AND DUP3 ADD PUSH1 0x40 MSTORE RETURNDATASIZE DUP3 MSTORE RETURNDATASIZE PUSH0 PUSH1 0x20 DUP5 ADD RETURNDATACOPY PUSH2 0x1E9D JUMP JUMPDEST PUSH1 0x60 SWAP2 POP JUMPDEST POP POP SWAP1 POP DUP1 PUSH2 0x1EC7 JUMPI PUSH1 0x40 MLOAD PUSH3 0x461BCD PUSH1 0xE5 SHL DUP2 MSTORE PUSH1 0x20 PUSH1 0x4 DUP3 ADD MSTORE PUSH0 PUSH1 0x24 DUP3 ADD MSTORE PUSH1 0x44 ADD PUSH2 0x1189 JUMP JUMPDEST PUSH2 0x1ED0 DUP3 PUSH2 0x2791 JUMP JUMPDEST PUSH1 0x1 PUSH1 0x1 PUSH1 0xA0 SHL SUB AND CALLER PUSH1 0x1 PUSH1 0x1 PUSH1 0xA0 SHL SUB AND EQ PUSH2 0x1F09 JUMPI PUSH1 0x40 MLOAD PUSH3 0x461BCD PUSH1 0xE5 SHL DUP2 MSTORE PUSH1 0x20 PUSH1 0x4 DUP3 ADD MSTORE PUSH0 PUSH1 0x24 DUP3 ADD MSTORE PUSH1 0x44 ADD PUSH2 0x1189 JUMP JUMPDEST PUSH1 0x8 SLOAD PUSH1 0x40 MLOAD PUSH4 0x66A240F PUSH1 0xE2 SHL DUP2 MSTORE PUSH1 0x4 DUP2 ADD DUP5 SWAP1 MSTORE PUSH0 SWAP2 PUSH1 0x1 PUSH1 0x1 PUSH1 0xA0 SHL SUB AND SWAP1 PUSH4 0x19A8903C SWAP1 PUSH1 0x24 ADD PUSH1 0x20 PUSH1 0x40 MLOAD DUP1 DUP4 SUB DUP2 DUP7 GAS STATICCALL ISZERO DUP1 ISZERO PUSH2 0x1F50 JUMPI RETURNDATASIZE PUSH0 DUP1 RETURNDATACOPY RETURNDATASIZE PUSH0 REVERT JUMPDEST POP POP POP POP PUSH1 0x40 MLOAD RETURNDATASIZE PUSH1 0x1F NOT PUSH1 0x1F DUP3 ADD AND DUP3 ADD DUP1 PUSH1 0x40 MSTORE POP DUP2 ADD SWAP1 PUSH2 0x1F74 SWAP2 SWAP1 PUSH2 0x55B8 JUMP JUMPDEST SWAP1 POP PUSH0 DUP2 GT PUSH2 0x1F9E JUMPI PUSH1 0x40 MLOAD PUSH3 0x461BCD PUSH1 0xE5 SHL DUP2 MSTORE PUSH1 0x20 PUSH1 0x4 DUP3 ADD MSTORE PUSH0 PUSH1 0x24 DUP3 ADD MSTORE PUSH1 0x44 ADD PUSH2 0x1189 JUMP JUMPDEST PUSH1 0x7 SLOAD PUSH1 0x40 MLOAD PUSH4 0x9FC2D67 PUSH1 0xE1 SHL DUP2 MSTORE PUSH1 0x4 DUP2 ADD DUP6 SWAP1 MSTORE PUSH0 SWAP2 PUSH1 0x1 PUSH1 0x30 SHL SWAP1 DIV PUSH1 0x1 PUSH1 0x1 PUSH1 0xA0 SHL SUB AND SWAP1 PUSH4 0x13F85ACE SWAP1 PUSH1 0x24 ADD PUSH1 0xE0 PUSH1 0x40 MLOAD DUP1 DUP4 SUB DUP2 DUP7 GAS STATICCALL ISZERO DUP1 ISZERO PUSH2 0x1FEC JUMPI RETURNDATASIZE PUSH0 DUP1 RETURNDATACOPY RETURNDATASIZE PUSH0 REVERT JUMPDEST POP POP POP POP PUSH1 0x40 MLOAD RETURNDATASIZE PUSH1 0x1F NOT PUSH1 0x1F DUP3 ADD AND DUP3 ADD DUP1 PUSH1 0x40 MSTORE POP DUP2 ADD SWAP1 PUSH2 0x2010 SWAP2 SWAP1 PUSH2 0x5427 JUMP JUMPDEST PUSH1 0x7 SLOAD PUSH1 0x40 MLOAD PUSH4 0x44F2615 PUSH1 0xE1 SHL DUP2 MSTORE PUSH1 0x4 DUP2 ADD DUP8 SWAP1 MSTORE SWAP2 SWAP3 POP PUSH0 SWAP2 PUSH1 0x1 PUSH1 0x30 SHL SWAP1 SWAP2 DIV PUSH1 0x1 PUSH1 0x1 PUSH1 0xA0 SHL SUB AND SWAP1 PUSH4 0x89E4C2A SWAP1 PUSH1 0x24 ADD PUSH2 0x120 PUSH1 0x40 MLOAD DUP1 DUP4 SUB DUP2 DUP7 GAS STATICCALL ISZERO DUP1 ISZERO PUSH2 0x2063 JUMPI RETURNDATASIZE PUSH0 DUP1 RETURNDATACOPY RETURNDATASIZE PUSH0 REVERT JUMPDEST POP POP POP POP PUSH1 0x40 MLOAD RETURNDATASIZE PUSH1 0x1F NOT PUSH1 0x1F DUP3 ADD AND DUP3 ADD DUP1 PUSH1 0x40 MSTORE POP DUP2 ADD SWAP1 PUSH2 0x2087 SWAP2 SWAP1 PUSH2 0x54B8 JUMP JUMPDEST SWAP1 POP DUP2 PUSH1 0xC0 ADD MLOAD PUSH1 0x2 EQ DUP1 PUSH2 0x20A0 JUMPI POP DUP2 PUSH1 0xC0 ADD MLOAD PUSH1 0x3 EQ JUMPDEST PUSH2 0x20C5 JUMPI PUSH1 0x40 MLOAD PUSH3 0x461BCD PUSH1 0xE5 SHL DUP2 MSTORE PUSH1 0x20 PUSH1 0x4 DUP3 ADD MSTORE PUSH0 PUSH1 0x24 DUP3 ADD MSTORE PUSH1 0x44 ADD PUSH2 0x1189 JUMP JUMPDEST PUSH1 0x3 PUSH1 0xC0 DUP4 ADD MSTORE PUSH1 0x7 SLOAD PUSH1 0x40 MLOAD PUSH4 0xF6CAC63F PUSH1 0xE0 SHL DUP2 MSTORE PUSH1 0x1 PUSH1 0x30 SHL SWAP1 SWAP2 DIV PUSH1 0x1 PUSH1 0x1 PUSH1 0xA0 SHL SUB AND SWAP1 PUSH4 0xF6CAC63F SWAP1 PUSH2 0x2106 SWAP1 DUP9 SWAP1 DUP7 SWAP1 DUP7 SWAP1 PUSH1 0x4 ADD PUSH2 0x58C3 JUMP JUMPDEST PUSH0 PUSH1 0x40 MLOAD DUP1 DUP4 SUB DUP2 PUSH0 DUP8 DUP1 EXTCODESIZE ISZERO DUP1 ISZERO PUSH2 0x211D JUMPI PUSH0 DUP1 REVERT JUMPDEST POP GAS CALL ISZERO DUP1 ISZERO PUSH2 0x212F JUMPI RETURNDATASIZE PUSH0 DUP1 RETURNDATACOPY RETURNDATASIZE PUSH0 REVERT JUMPDEST POP POP PUSH1 0x8 SLOAD PUSH0 SWAP3 POP PUSH1 0x1 PUSH1 0x1 PUSH1 0xA0 SHL SUB AND SWAP1 POP PUSH4 0x9649F75E DUP8 PUSH2 0x2153 PUSH1 0x1 DUP9 PUSH2 0x538D JUMP JUMPDEST PUSH2 0x215E PUSH1 0x1 DUP10 PUSH2 0x538D JUMP JUMPDEST PUSH1 0x40 MLOAD PUSH1 0x1 PUSH1 0x1 PUSH1 0xE0 SHL SUB NOT PUSH1 0xE0 DUP7 SWAP1 SHL AND DUP2 MSTORE PUSH1 0x4 DUP2 ADD SWAP4 SWAP1 SWAP4 MSTORE PUSH1 0x24 DUP4 ADD SWAP2 SWAP1 SWAP2 MSTORE PUSH1 0x44 DUP3 ADD MSTORE PUSH1 0x64 ADD PUSH0 PUSH1 0x40 MLOAD DUP1 DUP4 SUB DUP2 DUP7 GAS STATICCALL ISZERO DUP1 ISZERO PUSH2 0x21A4 JUMPI RETURNDATASIZE PUSH0 DUP1 RETURNDATACOPY RETURNDATASIZE PUSH0 REVERT JUMPDEST POP POP POP POP PUSH1 0x40 MLOAD RETURNDATASIZE PUSH0 DUP3 RETURNDATACOPY PUSH1 0x1F RETURNDATASIZE SWAP1 DUP2 ADD PUSH1 0x1F NOT AND DUP3 ADD PUSH1 0x40 MSTORE PUSH2 0x21CB SWAP2 SWAP1 DUP2 ADD SWAP1 PUSH2 0x56DE JUMP JUMPDEST PUSH0 DUP2 MLOAD DUP2 LT PUSH2 0x21DC JUMPI PUSH2 0x21DC PUSH2 0x585D JUMP JUMPDEST PUSH1 0x20 SWAP1 DUP2 MUL SWAP2 SWAP1 SWAP2 ADD DUP2 ADD MLOAD PUSH2 0x140 DUP2 ADD MLOAD PUSH0 SWAP1 DUP2 MSTORE PUSH1 0x1 SWAP1 SWAP3 MSTORE PUSH1 0x40 SWAP1 SWAP2 KECCAK256 SLOAD SWAP1 SWAP2 POP PUSH1 0xFF AND ISZERO DUP1 ISZERO PUSH2 0x2212 JUMPI POP PUSH1 0xE0 DUP2 ADD MLOAD ISZERO JUMPDEST DUP1 ISZERO PUSH2 0x2234 JUMPI POP TIMESTAMP DUP2 PUSH1 0x40 ADD MLOAD PUSH1 0x60 ADD MLOAD DUP3 PUSH1 0xA0 ADD MLOAD PUSH2 0x2232 SWAP2 SWAP1 PUSH2 0x589B JUMP JUMPDEST LT JUMPDEST DUP1 PUSH2 0x227E JUMPI POP PUSH2 0x140 DUP2 ADD MLOAD PUSH0 SWAP1 DUP2 MSTORE PUSH1 0x1 PUSH1 0x20 MSTORE PUSH1 0x40 SWAP1 KECCAK256 SLOAD PUSH1 0xFF AND ISZERO DUP1 ISZERO PUSH2 0x226D JUMPI POP TIMESTAMP DUP2 PUSH1 0xE0 ADD MLOAD PUSH1 0x3C PUSH2 0x226B SWAP2 SWAP1 PUSH2 0x589B JUMP JUMPDEST LT JUMPDEST DUP1 ISZERO PUSH2 0x227E JUMPI POP DUP1 PUSH2 0x100 ADD MLOAD PUSH1 0x2 EQ JUMPDEST PUSH2 0x22A3 JUMPI PUSH1 0x40 MLOAD PUSH3 0x461BCD PUSH1 0xE5 SHL DUP2 MSTORE PUSH1 0x20 PUSH1 0x4 DUP3 ADD MSTORE PUSH0 PUSH1 0x24 DUP3 ADD MSTORE PUSH1 0x44 ADD PUSH2 0x1189 JUMP JUMPDEST PUSH1 0x2 PUSH2 0x100 DUP3 ADD MSTORE PUSH2 0x22B7 PUSH1 0x1 DUP8 PUSH0 PUSH2 0x3845 JUMP JUMPDEST PUSH2 0x140 DUP3 ADD MSTORE TIMESTAMP PUSH1 0xE0 DUP3 ADD MSTORE PUSH1 0x8 SLOAD PUSH1 0x1 PUSH1 0x1 PUSH1 0xA0 SHL SUB AND PUSH4 0x6BF5D216 DUP8 PUSH2 0x22E0 PUSH1 0x1 DUP9 PUSH2 0x538D JUMP JUMPDEST DUP5 PUSH1 0x40 MLOAD DUP5 PUSH4 0xFFFFFFFF AND PUSH1 0xE0 SHL DUP2 MSTORE PUSH1 0x4 ADD PUSH2 0x22FF SWAP4 SWAP3 SWAP2 SWAP1 PUSH2 0x595A JUMP JUMPDEST PUSH0 PUSH1 0x40 MLOAD DUP1 DUP4 SUB DUP2 PUSH0 DUP8 DUP1 EXTCODESIZE ISZERO DUP1 ISZERO PUSH2 0x2316 JUMPI PUSH0 DUP1 REVERT JUMPDEST POP GAS CALL ISZERO DUP1 ISZERO PUSH2 0x2328 JUMPI RETURNDATASIZE PUSH0 DUP1 RETURNDATACOPY RETURNDATASIZE PUSH0 REVERT JUMPDEST POP POP POP POP POP POP POP POP POP POP JUMP JUMPDEST PUSH2 0x233C PUSH2 0x3861 JUMP JUMPDEST PUSH2 0x2345 DUP3 PUSH2 0x3905 JUMP JUMPDEST PUSH2 0x11CC DUP3 DUP3 PUSH2 0x390D JUMP JUMPDEST PUSH0 PUSH0 DUP1 MLOAD PUSH1 0x20 PUSH2 0x5E05 DUP4 CODECOPY DUP2 MLOAD SWAP2 MSTORE PUSH2 0x2373 PUSH0 DUP1 MLOAD PUSH1 0x20 PUSH2 0x5E65 DUP4 CODECOPY DUP2 MLOAD SWAP2 MSTORE SLOAD SWAP1 JUMP JUMPDEST DUP4 LT PUSH2 0x239B JUMPI PUSH1 0x40 MLOAD PUSH4 0x295F44F7 PUSH1 0xE2 SHL DUP2 MSTORE PUSH0 PUSH1 0x4 DUP3 ADD MSTORE PUSH1 0x24 DUP2 ADD DUP5 SWAP1 MSTORE PUSH1 0x44 ADD PUSH2 0x1189 JUMP JUMPDEST DUP1 PUSH1 0x2 ADD DUP4 DUP2 SLOAD DUP2 LT PUSH2 0x23B0 JUMPI PUSH2 0x23B0 PUSH2 0x585D JUMP JUMPDEST SWAP1 PUSH0 MSTORE PUSH1 0x20 PUSH0 KECCAK256 ADD SLOAD SWAP2 POP POP SWAP2 SWAP1 POP JUMP JUMPDEST PUSH0 PUSH2 0x23CA PUSH2 0x39C9 JUMP JUMPDEST POP PUSH0 DUP1 MLOAD PUSH1 0x20 PUSH2 0x5E45 DUP4 CODECOPY DUP2 MLOAD SWAP2 MSTORE SWAP1 JUMP JUMPDEST PUSH2 0x23E4 PUSH2 0x34CB JUMP JUMPDEST PUSH1 0x7 DUP1 SLOAD PUSH4 0xFFFFFFFF NOT AND PUSH4 0xFFFFFFFF SWAP3 SWAP1 SWAP3 AND SWAP2 SWAP1 SWAP2 OR SWAP1 SSTORE JUMP JUMPDEST PUSH2 0x2408 PUSH2 0x34CB JUMP JUMPDEST PUSH0 PUSH2 0x2710 PUSH1 0xF SLOAD DUP4 PUSH2 0x241A SWAP2 SWAP1 PUSH2 0x5884 JUMP JUMPDEST PUSH2 0x2424 SWAP2 SWAP1 PUSH2 0x53B4 JUMP JUMPDEST PUSH1 0xD SLOAD PUSH1 0xC SLOAD PUSH1 0x40 MLOAD PUSH4 0x23B872DD PUSH1 0xE0 SHL DUP2 MSTORE SWAP3 SWAP4 POP PUSH1 0x1 PUSH1 0x1 PUSH1 0xA0 SHL SUB SWAP2 DUP3 AND SWAP3 PUSH4 0x23B872DD SWAP3 PUSH2 0x245F SWAP3 CALLER SWAP3 SWAP2 AND SWAP1 DUP7 SWAP1 PUSH1 0x4 ADD PUSH2 0x5A2C JUMP JUMPDEST PUSH1 0x20 PUSH1 0x40 MLOAD DUP1 DUP4 SUB DUP2 PUSH0 DUP8 GAS CALL ISZERO DUP1 ISZERO PUSH2 0x247B JUMPI RETURNDATASIZE PUSH0 DUP1 RETURNDATACOPY RETURNDATASIZE PUSH0 REVERT JUMPDEST POP POP POP POP PUSH1 0x40 MLOAD RETURNDATASIZE PUSH1 0x1F NOT PUSH1 0x1F DUP3 ADD AND DUP3 ADD DUP1 PUSH1 0x40 MSTORE POP DUP2 ADD SWAP1 PUSH2 0x249F SWAP2 SWAP1 PUSH2 0x5A50 JUMP JUMPDEST PUSH2 0x24C4 JUMPI PUSH1 0x40 MLOAD PUSH3 0x461BCD PUSH1 0xE5 SHL DUP2 MSTORE PUSH1 0x20 PUSH1 0x4 DUP3 ADD MSTORE PUSH0 PUSH1 0x24 DUP3 ADD MSTORE PUSH1 0x44 ADD PUSH2 0x1189 JUMP JUMPDEST PUSH2 0x24CE DUP2 DUP4 PUSH2 0x538D JUMP JUMPDEST PUSH1 0xD SLOAD PUSH1 0x40 MLOAD PUSH4 0x23B872DD PUSH1 0xE0 SHL DUP2 MSTORE SWAP2 SWAP4 POP PUSH1 0x1 PUSH1 0x1 PUSH1 0xA0 SHL SUB AND SWAP1 PUSH4 0x23B872DD SWAP1 PUSH2 0x2503 SWAP1 CALLER SWAP1 ADDRESS SWAP1 DUP8 SWAP1 PUSH1 0x4 ADD PUSH2 0x5A2C JUMP JUMPDEST PUSH1 0x20 PUSH1 0x40 MLOAD DUP1 DUP4 SUB DUP2 PUSH0 DUP8 GAS CALL ISZERO DUP1 ISZERO PUSH2 0x251F JUMPI RETURNDATASIZE PUSH0 DUP1 RETURNDATACOPY RETURNDATASIZE PUSH0 REVERT JUMPDEST POP POP POP POP PUSH1 0x40 MLOAD RETURNDATASIZE PUSH1 0x1F NOT PUSH1 0x1F DUP3 ADD AND DUP3 ADD DUP1 PUSH1 0x40 MSTORE POP DUP2 ADD SWAP1 PUSH2 0x2543 SWAP2 SWAP1 PUSH2 0x5A50 JUMP JUMPDEST PUSH2 0x2568 JUMPI PUSH1 0x40 MLOAD PUSH3 0x461BCD PUSH1 0xE5 SHL DUP2 MSTORE PUSH1 0x20 PUSH1 0x4 DUP3 ADD MSTORE PUSH0 PUSH1 0x24 DUP3 ADD MSTORE PUSH1 0x44 ADD PUSH2 0x1189 JUMP JUMPDEST PUSH1 0x1A SLOAD PUSH0 SWAP1 DUP2 MSTORE PUSH1 0x19 PUSH1 0x20 MSTORE PUSH1 0x40 SWAP1 KECCAK256 SLOAD PUSH2 0x259E JUMPI PUSH1 0x40 MLOAD PUSH3 0x461BCD PUSH1 0xE5 SHL DUP2 MSTORE PUSH1 0x20 PUSH1 0x4 DUP3 ADD MSTORE PUSH0 PUSH1 0x24 DUP3 ADD MSTORE PUSH1 0x44 ADD PUSH2 0x1189 JUMP JUMPDEST PUSH0 JUMPDEST PUSH1 0x1C SLOAD DUP2 LT ISZERO PUSH2 0x26AA JUMPI PUSH0 PUSH1 0x19 PUSH0 PUSH1 0x1A SLOAD DUP2 MSTORE PUSH1 0x20 ADD SWAP1 DUP2 MSTORE PUSH1 0x20 ADD PUSH0 KECCAK256 SLOAD DUP5 PUSH1 0x17 PUSH0 PUSH1 0x1C DUP7 DUP2 SLOAD DUP2 LT PUSH2 0x25D6 JUMPI PUSH2 0x25D6 PUSH2 0x585D JUMP JUMPDEST PUSH0 SWAP2 DUP3 MSTORE PUSH1 0x20 DUP1 DUP4 KECCAK256 SWAP1 SWAP2 ADD SLOAD PUSH1 0x1 PUSH1 0x1 PUSH1 0xA0 SHL SUB AND DUP4 MSTORE DUP3 ADD SWAP3 SWAP1 SWAP3 MSTORE PUSH1 0x40 ADD SWAP1 KECCAK256 SLOAD PUSH2 0x2604 SWAP2 SWAP1 PUSH2 0x5884 JUMP JUMPDEST PUSH2 0x260E SWAP2 SWAP1 PUSH2 0x53B4 JUMP JUMPDEST SWAP1 POP PUSH0 PUSH1 0x17 PUSH0 PUSH1 0x1C DUP6 DUP2 SLOAD DUP2 LT PUSH2 0x2627 JUMPI PUSH2 0x2627 PUSH2 0x585D JUMP JUMPDEST PUSH0 SWAP2 DUP3 MSTORE PUSH1 0x20 DUP1 DUP4 KECCAK256 SWAP1 SWAP2 ADD SLOAD PUSH1 0x1 PUSH1 0x1 PUSH1 0xA0 SHL SUB AND DUP4 MSTORE DUP3 ADD SWAP3 SWAP1 SWAP3 MSTORE PUSH1 0x40 ADD DUP2 KECCAK256 SWAP2 SWAP1 SWAP2 SSTORE PUSH1 0x1C DUP1 SLOAD DUP4 SWAP3 PUSH1 0x18 SWAP3 SWAP1 SWAP2 DUP7 SWAP1 DUP2 LT PUSH2 0x2669 JUMPI PUSH2 0x2669 PUSH2 0x585D JUMP JUMPDEST PUSH0 SWAP2 DUP3 MSTORE PUSH1 0x20 DUP1 DUP4 KECCAK256 SWAP1 SWAP2 ADD SLOAD PUSH1 0x1 PUSH1 0x1 PUSH1 0xA0 SHL SUB AND DUP4 MSTORE DUP3 ADD SWAP3 SWAP1 SWAP3 MSTORE PUSH1 0x40 ADD DUP2 KECCAK256 DUP1 SLOAD SWAP1 SWAP2 SWAP1 PUSH2 0x269C SWAP1 DUP5 SWAP1 PUSH2 0x589B JUMP JUMPDEST SWAP1 SWAP2 SSTORE POP POP POP PUSH1 0x1 ADD PUSH2 0x25A0 JUMP JUMPDEST POP PUSH1 0x40 DUP1 MLOAD PUSH1 0xA0 DUP2 ADD DUP3 MSTORE PUSH1 0x1A SLOAD DUP1 DUP3 MSTORE TIMESTAMP PUSH1 0x20 DUP1 DUP5 ADD SWAP2 DUP3 MSTORE DUP4 DUP6 ADD DUP8 DUP2 MSTORE PUSH0 DUP5 DUP2 MSTORE PUSH1 0x19 DUP4 MSTORE DUP7 DUP2 KECCAK256 SLOAD PUSH1 0x60 DUP8 ADD SWAP1 DUP2 MSTORE PUSH1 0x1C DUP1 SLOAD PUSH1 0x80 DUP10 ADD SWAP1 DUP2 MSTORE SWAP7 DUP4 MSTORE PUSH1 0x1D SWAP1 SWAP5 MSTORE SWAP7 DUP2 KECCAK256 SWAP6 MLOAD DUP7 SSTORE SWAP3 MLOAD PUSH1 0x1 DUP7 ADD SSTORE MLOAD PUSH1 0x2 DUP6 ADD SSTORE SWAP4 MLOAD PUSH1 0x3 DUP5 ADD SSTORE SWAP1 MLOAD PUSH1 0x4 SWAP1 SWAP3 ADD SWAP2 SWAP1 SWAP2 SSTORE PUSH2 0x2720 SWAP2 SWAP1 PUSH2 0x4D27 JUMP JUMPDEST PUSH1 0x1A DUP1 SLOAD SWAP1 PUSH0 PUSH2 0x272F DUP4 PUSH2 0x5A6B JUMP JUMPDEST SWAP2 SWAP1 POP SSTORE POP POP POP JUMP JUMPDEST PUSH2 0x2740 PUSH2 0x34CB JUMP JUMPDEST PUSH1 0x1 PUSH1 0x1 PUSH1 0xA0 SHL SUB DUP2 AND PUSH2 0x276F JUMPI PUSH1 0x40 MLOAD PUSH3 0x461BCD PUSH1 0xE5 SHL DUP2 MSTORE PUSH1 0x20 PUSH1 0x4 DUP3 ADD MSTORE PUSH0 PUSH1 0x24 DUP3 ADD MSTORE PUSH1 0x44 ADD PUSH2 0x1189 JUMP JUMPDEST PUSH1 0x8 DUP1 SLOAD PUSH1 0x1 PUSH1 0x1 PUSH1 0xA0 SHL SUB NOT AND PUSH1 0x1 PUSH1 0x1 PUSH1 0xA0 SHL SUB SWAP3 SWAP1 SWAP3 AND SWAP2 SWAP1 SWAP2 OR SWAP1 SSTORE JUMP JUMPDEST PUSH0 PUSH2 0x109B DUP3 PUSH2 0x345B JUMP JUMPDEST PUSH2 0x27A3 PUSH2 0x34CB JUMP JUMPDEST PUSH0 DUP3 GT PUSH2 0x27CB JUMPI PUSH1 0x40 MLOAD PUSH3 0x461BCD PUSH1 0xE5 SHL DUP2 MSTORE PUSH1 0x20 PUSH1 0x4 DUP3 ADD MSTORE PUSH0 PUSH1 0x24 DUP3 ADD MSTORE PUSH1 0x44 ADD PUSH2 0x1189 JUMP JUMPDEST PUSH0 DUP2 GT PUSH2 0x27F3 JUMPI PUSH1 0x40 MLOAD PUSH3 0x461BCD PUSH1 0xE5 SHL DUP2 MSTORE PUSH1 0x20 PUSH1 0x4 DUP3 ADD MSTORE PUSH0 PUSH1 0x24 DUP3 ADD MSTORE PUSH1 0x44 ADD PUSH2 0x1189 JUMP JUMPDEST PUSH1 0x15 SWAP2 SWAP1 SWAP2 SSTORE PUSH1 0x14 SSTORE JUMP JUMPDEST PUSH0 PUSH0 DUP1 MLOAD PUSH1 0x20 PUSH2 0x5E25 DUP4 CODECOPY DUP2 MLOAD SWAP2 MSTORE PUSH1 0x1 PUSH1 0x1 PUSH1 0xA0 SHL SUB DUP4 AND PUSH2 0x2836 JUMPI PUSH1 0x40 MLOAD PUSH4 0x22718AD9 PUSH1 0xE2 SHL DUP2 MSTORE PUSH0 PUSH1 0x4 DUP3 ADD MSTORE PUSH1 0x24 ADD PUSH2 0x1189 JUMP JUMPDEST PUSH1 0x1 PUSH1 0x1 PUSH1 0xA0 SHL SUB SWAP1 SWAP3 AND PUSH0 SWAP1 DUP2 MSTORE PUSH1 0x3 SWAP1 SWAP3 ADD PUSH1 0x20 MSTORE POP PUSH1 0x40 SWAP1 KECCAK256 SLOAD SWAP1 JUMP JUMPDEST PUSH2 0x285E PUSH2 0x34CB JUMP JUMPDEST PUSH2 0x1CFD PUSH0 PUSH2 0x3A12 JUMP JUMPDEST PUSH32 0xF0C57E16840DF040F15088DC2F81FE391C3923BEC73E23A9662EFC9C229C6A00 DUP1 SLOAD PUSH1 0x1 PUSH1 0x40 SHL DUP2 DIV PUSH1 0xFF AND ISZERO SWAP1 PUSH1 0x1 PUSH1 0x1 PUSH1 0x40 SHL SUB AND PUSH0 DUP2 ISZERO DUP1 ISZERO PUSH2 0x28AB JUMPI POP DUP3 JUMPDEST SWAP1 POP PUSH0 DUP3 PUSH1 0x1 PUSH1 0x1 PUSH1 0x40 SHL SUB AND PUSH1 0x1 EQ DUP1 ISZERO PUSH2 0x28C6 JUMPI POP ADDRESS EXTCODESIZE ISZERO JUMPDEST SWAP1 POP DUP2 ISZERO DUP1 ISZERO PUSH2 0x28D4 JUMPI POP DUP1 ISZERO JUMPDEST ISZERO PUSH2 0x28F2 JUMPI PUSH1 0x40 MLOAD PUSH4 0xF92EE8A9 PUSH1 0xE0 SHL DUP2 MSTORE PUSH1 0x4 ADD PUSH1 0x40 MLOAD DUP1 SWAP2 SUB SWAP1 REVERT JUMPDEST DUP5 SLOAD PUSH8 0xFFFFFFFFFFFFFFFF NOT AND PUSH1 0x1 OR DUP6 SSTORE DUP4 ISZERO PUSH2 0x291C JUMPI DUP5 SLOAD PUSH1 0xFF PUSH1 0x40 SHL NOT AND PUSH1 0x1 PUSH1 0x40 SHL OR DUP6 SSTORE JUMPDEST PUSH2 0x2963 PUSH1 0x40 MLOAD DUP1 PUSH1 0x40 ADD PUSH1 0x40 MSTORE DUP1 PUSH1 0x9 DUP2 MSTORE PUSH1 0x20 ADD PUSH9 0x70756E6B6279746573 PUSH1 0xB8 SHL DUP2 MSTORE POP PUSH1 0x40 MLOAD DUP1 PUSH1 0x40 ADD PUSH1 0x40 MSTORE DUP1 PUSH1 0x4 DUP2 MSTORE PUSH1 0x20 ADD PUSH4 0x50554E4B PUSH1 0xE0 SHL DUP2 MSTORE POP PUSH2 0x3A82 JUMP JUMPDEST PUSH2 0x296B PUSH2 0x3A94 JUMP JUMPDEST PUSH2 0x2973 PUSH2 0x3A94 JUMP JUMPDEST PUSH2 0x297B PUSH2 0x3A9C JUMP JUMPDEST PUSH2 0x2983 PUSH2 0x3A94 JUMP JUMPDEST PUSH2 0x298C CALLER PUSH2 0x3AAC JUMP JUMPDEST PUSH2 0x2994 PUSH2 0x3A94 JUMP JUMPDEST PUSH32 0x1107A88FD666BCB4E9B668F24668C1502146A063F98E5C01ACFF60F18EE07902 PUSH1 0x3 SSTORE PUSH32 0xEA7F56BE19583EEB8255AA79F16D8BD8A64CEDF68E42FEFEE1C9AC5372B1A102 PUSH1 0x6 SSTORE PUSH1 0x7 DUP1 SLOAD PUSH1 0x2 DUP1 SLOAD PUSH1 0x1 PUSH1 0x1 PUSH1 0xA0 SHL SUB NOT SWAP1 DUP2 AND PUSH20 0xE40895D055BCCD2053DD0638C9695E326152B1A4 OR DUP3 SSTORE PUSH5 0x3002625A0 PUSH6 0xFFFFFFFFFFFF NOT SWAP1 SWAP4 AND SWAP3 SWAP1 SWAP3 OR SWAP1 SWAP3 SSTORE PUSH1 0xB DUP1 SLOAD DUP3 AND PUSH20 0x8EDC29A84E86975266EF7A45BD76969B6051FD48 OR SWAP1 SSTORE PUSH1 0xA DUP1 SLOAD DUP3 AND PUSH20 0x5EB62C9261E2189C9664A7953F816075B3F2E908 OR SWAP1 SSTORE PUSH1 0xC DUP1 SLOAD DUP3 AND PUSH20 0x2F4F63840CB93334EE35030BB92849A66735911A OR SWAP1 SSTORE PUSH2 0x5DC PUSH1 0xE SSTORE PUSH2 0x3E8 PUSH1 0xF SSTORE PUSH1 0xD DUP1 SLOAD SWAP1 SWAP2 AND PUSH20 0x5B583DB39E574C34AF5C31D4B12B40AB79F90C17 OR SWAP1 SSTORE PUSH4 0x17D7840 PUSH1 0x12 SSTORE PUSH3 0x4C4B40 PUSH1 0x13 SSTORE PUSH0 PUSH1 0x11 SSTORE PUSH2 0xE10 PUSH1 0x15 SSTORE PUSH1 0x14 SSTORE PUSH1 0x1 PUSH1 0x16 SSTORE DUP4 ISZERO PUSH2 0x2B0C JUMPI DUP5 SLOAD PUSH1 0xFF PUSH1 0x40 SHL NOT AND DUP6 SSTORE PUSH1 0x40 MLOAD PUSH1 0x1 DUP2 MSTORE PUSH32 0xC7F505B2F371AE2175EE4913F4499E1F2633A7B5936321EED1CDAEB6115181D2 SWAP1 PUSH1 0x20 ADD PUSH1 0x40 MLOAD DUP1 SWAP2 SUB SWAP1 LOG1 JUMPDEST POP POP POP POP POP JUMP JUMPDEST PUSH2 0x2B1B PUSH2 0x34CB JUMP JUMPDEST PUSH2 0x1CFD PUSH2 0x3ABD JUMP JUMPDEST PUSH1 0x4 DUP2 DUP2 SLOAD DUP2 LT PUSH2 0x2B32 JUMPI PUSH0 DUP1 REVERT JUMPDEST PUSH0 SWAP2 DUP3 MSTORE PUSH1 0x20 SWAP1 SWAP2 KECCAK256 ADD SLOAD SWAP1 POP DUP2 JUMP JUMPDEST PUSH32 0x9016D09D72D40FDAE2FD8CEAC6B6234C7706214FD39C1CD1E609A0528C199300 SLOAD PUSH1 0x1 PUSH1 0x1 PUSH1 0xA0 SHL SUB AND SWAP1 JUMP JUMPDEST PUSH2 0x2B78 PUSH2 0x34CB JUMP JUMPDEST PUSH1 0x1 PUSH1 0x1 PUSH1 0xA0 SHL SUB DUP2 AND PUSH2 0x2B8A JUMPI PUSH0 DUP1 REVERT JUMPDEST PUSH1 0x2 DUP1 SLOAD PUSH1 0x1 PUSH1 0x1 PUSH1 0xA0 SHL SUB NOT AND PUSH1 0x1 PUSH1 0x1 PUSH1 0xA0 SHL SUB SWAP3 SWAP1 SWAP3 AND SWAP2 SWAP1 SWAP2 OR SWAP1 SSTORE JUMP JUMPDEST PUSH2 0x2BB4 PUSH2 0x357C JUMP JUMPDEST PUSH1 0x7 SLOAD PUSH1 0x40 MLOAD PUSH4 0x438E925F PUSH1 0xE1 SHL DUP2 MSTORE PUSH1 0x4 DUP2 ADD DUP4 SWAP1 MSTORE PUSH0 SWAP2 PUSH1 0x1 PUSH1 0x30 SHL SWAP1 DIV PUSH1 0x1 PUSH1 0x1 PUSH1 0xA0 SHL SUB AND SWAP1 PUSH4 0x871D24BE SWAP1 PUSH1 0x24 ADD PUSH2 0x100 PUSH1 0x40 MLOAD DUP1 DUP4 SUB DUP2 DUP7 GAS STATICCALL ISZERO DUP1 ISZERO PUSH2 0x2C03 JUMPI RETURNDATASIZE PUSH0 DUP1 RETURNDATACOPY RETURNDATASIZE PUSH0 REVERT JUMPDEST POP POP POP POP PUSH1 0x40 MLOAD RETURNDATASIZE PUSH1 0x1F NOT PUSH1 0x1F DUP3 ADD AND DUP3 ADD DUP1 PUSH1 0x40 MSTORE POP DUP2 ADD SWAP1 PUSH2 0x2C27 SWAP2 SWAP1 PUSH2 0x5A83 JUMP JUMPDEST PUSH1 0x7 SLOAD PUSH1 0x40 MLOAD PUSH4 0x1AFE6A91 PUSH1 0xE2 SHL DUP2 MSTORE PUSH1 0x4 DUP2 ADD DUP6 SWAP1 MSTORE SWAP2 SWAP3 POP PUSH0 SWAP2 PUSH1 0x1 PUSH1 0x30 SHL SWAP1 SWAP2 DIV PUSH1 0x1 PUSH1 0x1 PUSH1 0xA0 SHL SUB AND SWAP1 PUSH4 0x6BF9AA44 SWAP1 PUSH1 0x24 ADD PUSH0 PUSH1 0x40 MLOAD DUP1 DUP4 SUB DUP2 DUP7 GAS STATICCALL ISZERO DUP1 ISZERO PUSH2 0x2C78 JUMPI RETURNDATASIZE PUSH0 DUP1 RETURNDATACOPY RETURNDATASIZE PUSH0 REVERT JUMPDEST POP POP POP POP PUSH1 0x40 MLOAD RETURNDATASIZE PUSH0 DUP3 RETURNDATACOPY PUSH1 0x1F RETURNDATASIZE SWAP1 DUP2 ADD PUSH1 0x1F NOT AND DUP3 ADD PUSH1 0x40 MSTORE PUSH2 0x2C9F SWAP2 SWAP1 DUP2 ADD SWAP1 PUSH2 0x5B52 JUMP JUMPDEST PUSH1 0x20 DUP4 ADD MLOAD PUSH1 0x7 SLOAD PUSH1 0x40 MLOAD PUSH4 0xC2BF8DD5 PUSH1 0xE0 SHL DUP2 MSTORE PUSH1 0x4 DUP2 ADD DUP8 SWAP1 MSTORE SWAP3 SWAP4 POP SWAP1 SWAP2 PUSH1 0x1 PUSH1 0x30 SHL SWAP1 SWAP2 DIV PUSH1 0x1 PUSH1 0x1 PUSH1 0xA0 SHL SUB AND SWAP1 PUSH4 0xC2BF8DD5 SWAP1 PUSH1 0x24 ADD PUSH1 0x20 PUSH1 0x40 MLOAD DUP1 DUP4 SUB DUP2 DUP7 GAS STATICCALL ISZERO DUP1 ISZERO PUSH2 0x2CF6 JUMPI RETURNDATASIZE PUSH0 DUP1 RETURNDATACOPY RETURNDATASIZE PUSH0 REVERT JUMPDEST POP POP POP POP PUSH1 0x40 MLOAD RETURNDATASIZE PUSH1 0x1F NOT PUSH1 0x1F DUP3 ADD AND DUP3 ADD DUP1 PUSH1 0x40 MSTORE POP DUP2 ADD SWAP1 PUSH2 0x2D1A SWAP2 SWAP1 PUSH2 0x55B8 JUMP JUMPDEST LT PUSH2 0x2D40 JUMPI PUSH1 0x40 MLOAD PUSH3 0x461BCD PUSH1 0xE5 SHL DUP2 MSTORE PUSH1 0x20 PUSH1 0x4 DUP3 ADD MSTORE PUSH0 PUSH1 0x24 DUP3 ADD MSTORE PUSH1 0x44 ADD PUSH2 0x1189 JUMP JUMPDEST DUP1 PUSH1 0x40 ADD MLOAD PUSH2 0x2D6A JUMPI PUSH1 0x40 MLOAD PUSH3 0x461BCD PUSH1 0xE5 SHL DUP2 MSTORE PUSH1 0x20 PUSH1 0x4 DUP3 ADD MSTORE PUSH0 PUSH1 0x24 DUP3 ADD MSTORE PUSH1 0x44 ADD PUSH2 0x1189 JUMP JUMPDEST PUSH1 0xB SLOAD PUSH1 0x1 PUSH1 0x1 PUSH1 0xA0 SHL SUB AND PUSH2 0x2D9B JUMPI PUSH1 0x40 MLOAD PUSH3 0x461BCD PUSH1 0xE5 SHL DUP2 MSTORE PUSH1 0x20 PUSH1 0x4 DUP3 ADD MSTORE PUSH0 PUSH1 0x24 DUP3 ADD MSTORE PUSH1 0x44 ADD PUSH2 0x1189 JUMP JUMPDEST PUSH1 0xA SLOAD PUSH1 0x1 PUSH1 0x1 PUSH1 0xA0 SHL SUB AND PUSH2 0x2DCC JUMPI PUSH1 0x40 MLOAD PUSH3 0x461BCD PUSH1 0xE5 SHL DUP2 MSTORE PUSH1 0x20 PUSH1 0x4 DUP3 ADD MSTORE PUSH0 PUSH1 0x24 DUP3 ADD MSTORE PUSH1 0x44 ADD PUSH2 0x1189 JUMP JUMPDEST PUSH1 0x40 DUP3 ADD MLOAD PUSH1 0xE SLOAD PUSH0 SWAP1 PUSH2 0x2710 SWAP1 PUSH2 0x2DE4 SWAP1 DUP5 PUSH2 0x5884 JUMP JUMPDEST PUSH2 0x2DEE SWAP2 SWAP1 PUSH2 0x53B4 JUMP JUMPDEST SWAP1 POP PUSH2 0x2DFA DUP2 DUP4 PUSH2 0x538D JUMP JUMPDEST PUSH1 0xD SLOAD PUSH1 0xB SLOAD PUSH1 0x40 MLOAD PUSH4 0x23B872DD PUSH1 0xE0 SHL DUP2 MSTORE SWAP3 SWAP5 POP PUSH1 0x1 PUSH1 0x1 PUSH1 0xA0 SHL SUB SWAP2 DUP3 AND SWAP3 PUSH4 0x23B872DD SWAP3 PUSH2 0x2E35 SWAP3 CALLER SWAP3 SWAP2 AND SWAP1 DUP8 SWAP1 PUSH1 0x4 ADD PUSH2 0x5A2C JUMP JUMPDEST PUSH1 0x20 PUSH1 0x40 MLOAD DUP1 DUP4 SUB DUP2 PUSH0 DUP8 GAS CALL ISZERO DUP1 ISZERO PUSH2 0x2E51 JUMPI RETURNDATASIZE PUSH0 DUP1 RETURNDATACOPY RETURNDATASIZE PUSH0 REVERT JUMPDEST POP POP POP POP PUSH1 0x40 MLOAD RETURNDATASIZE PUSH1 0x1F NOT PUSH1 0x1F DUP3 ADD AND DUP3 ADD DUP1 PUSH1 0x40 MSTORE POP DUP2 ADD SWAP1 PUSH2 0x2E75 SWAP2 SWAP1 PUSH2 0x5A50 JUMP JUMPDEST PUSH2 0x2E9A JUMPI PUSH1 0x40 MLOAD PUSH3 0x461BCD PUSH1 0xE5 SHL DUP2 MSTORE PUSH1 0x20 PUSH1 0x4 DUP3 ADD MSTORE PUSH0 PUSH1 0x24 DUP3 ADD MSTORE PUSH1 0x44 ADD PUSH2 0x1189 JUMP JUMPDEST PUSH1 0xD SLOAD PUSH1 0xA SLOAD PUSH1 0x40 MLOAD PUSH4 0x23B872DD PUSH1 0xE0 SHL DUP2 MSTORE PUSH1 0x1 PUSH1 0x1 PUSH1 0xA0 SHL SUB SWAP3 DUP4 AND SWAP3 PUSH4 0x23B872DD SWAP3 PUSH2 0x2ED3 SWAP3 CALLER SWAP3 SWAP1 SWAP2 AND SWAP1 DUP7 SWAP1 PUSH1 0x4 ADD PUSH2 0x5A2C JUMP JUMPDEST PUSH1 0x20 PUSH1 0x40 MLOAD DUP1 DUP4 SUB DUP2 PUSH0 DUP8 GAS CALL ISZERO DUP1 ISZERO PUSH2 0x2EEF JUMPI RETURNDATASIZE PUSH0 DUP1 RETURNDATACOPY RETURNDATASIZE PUSH0 REVERT JUMPDEST POP POP POP POP PUSH1 0x40 MLOAD RETURNDATASIZE PUSH1 0x1F NOT PUSH1 0x1F DUP3 ADD AND DUP3 ADD DUP1 PUSH1 0x40 MSTORE POP DUP2 ADD SWAP1 PUSH2 0x2F13 SWAP2 SWAP1 PUSH2 0x5A50 JUMP JUMPDEST PUSH2 0x2F38 JUMPI PUSH1 0x40 MLOAD PUSH3 0x461BCD PUSH1 0xE5 SHL DUP2 MSTORE PUSH1 0x20 PUSH1 0x4 DUP3 ADD MSTORE PUSH0 PUSH1 0x24 DUP3 ADD MSTORE PUSH1 0x44 ADD PUSH2 0x1189 JUMP JUMPDEST PUSH1 0x7 SLOAD PUSH0 SLOAD PUSH1 0x40 MLOAD PUSH4 0x1B57C1F7 PUSH1 0xE0 SHL DUP2 MSTORE PUSH1 0x4 DUP2 ADD SWAP2 SWAP1 SWAP2 MSTORE PUSH1 0x24 DUP2 ADD DUP8 SWAP1 MSTORE PUSH1 0x1 PUSH1 0x30 SHL SWAP1 SWAP2 DIV PUSH1 0x1 PUSH1 0x1 PUSH1 0xA0 SHL SUB AND SWAP1 PUSH4 0x1B57C1F7 SWAP1 PUSH1 0x44 ADD PUSH0 PUSH1 0x40 MLOAD DUP1 DUP4 SUB DUP2 PUSH0 DUP8 DUP1 EXTCODESIZE ISZERO DUP1 ISZERO PUSH2 0x2F8B JUMPI PUSH0 DUP1 REVERT JUMPDEST POP GAS CALL ISZERO DUP1 ISZERO PUSH2 0x2F9D JUMPI RETURNDATASIZE PUSH0 DUP1 RETURNDATACOPY RETURNDATASIZE PUSH0 REVERT JUMPDEST POP POP POP POP PUSH2 0x2FAF CALLER DUP5 PUSH1 0x60 ADD MLOAD PUSH2 0x3B05 JUMP JUMPDEST POP POP POP POP POP POP JUMP JUMPDEST PUSH32 0x80BB2B638CC20BC4D0A60D66940F3AB4A00C1D7B313497CA82FB0B4AB0079301 DUP1 SLOAD PUSH1 0x60 SWAP2 PUSH0 DUP1 MLOAD PUSH1 0x20 PUSH2 0x5E25 DUP4 CODECOPY DUP2 MLOAD SWAP2 MSTORE SWAP2 PUSH2 0x10C0 SWAP1 PUSH2 0x5341 JUMP JUMPDEST PUSH2 0x2FFD PUSH2 0x34CB JUMP JUMPDEST PUSH1 0x3 SSTORE JUMP JUMPDEST PUSH2 0x300A PUSH2 0x34CB JUMP JUMPDEST PUSH1 0x12 SSTORE JUMP JUMPDEST PUSH2 0x11CC CALLER DUP4 DUP4 PUSH2 0x3B2F JUMP JUMPDEST PUSH2 0x3022 PUSH2 0x34CB JUMP JUMPDEST PUSH1 0x13 SSTORE JUMP JUMPDEST PUSH1 0x1C DUP2 DUP2 SLOAD DUP2 LT PUSH2 0x3036 JUMPI PUSH0 DUP1 REVERT JUMPDEST PUSH0 SWAP2 DUP3 MSTORE PUSH1 0x20 SWAP1 SWAP2 KECCAK256 ADD SLOAD PUSH1 0x1 PUSH1 0x1 PUSH1 0xA0 SHL SUB AND SWAP1 POP DUP2 JUMP JUMPDEST PUSH2 0x3057 PUSH2 0x357C JUMP JUMPDEST CALLER PUSH0 SWAP1 DUP2 MSTORE PUSH1 0x18 PUSH1 0x20 MSTORE PUSH1 0x40 SWAP1 KECCAK256 SLOAD DUP2 GT DUP1 ISZERO SWAP1 PUSH2 0x3074 JUMPI POP PUSH0 DUP2 GT JUMPDEST PUSH2 0x3099 JUMPI PUSH1 0x40 MLOAD PUSH3 0x461BCD PUSH1 0xE5 SHL DUP2 MSTORE PUSH1 0x20 PUSH1 0x4 DUP3 ADD MSTORE PUSH0 PUSH1 0x24 DUP3 ADD MSTORE PUSH1 0x44 ADD PUSH2 0x1189 JUMP JUMPDEST CALLER PUSH0 SWAP1 DUP2 MSTORE PUSH1 0x18 PUSH1 0x20 MSTORE PUSH1 0x40 DUP2 KECCAK256 DUP1 SLOAD DUP4 SWAP3 SWAP1 PUSH2 0x30B7 SWAP1 DUP5 SWAP1 PUSH2 0x538D JUMP JUMPDEST SWAP1 SWAP2 SSTORE POP POP PUSH1 0xD SLOAD PUSH1 0x40 MLOAD PUSH4 0xA9059CBB PUSH1 0xE0 SHL DUP2 MSTORE CALLER PUSH1 0x4 DUP3 ADD MSTORE PUSH1 0x24 DUP2 ADD DUP4 SWAP1 MSTORE PUSH1 0x1 PUSH1 0x1 PUSH1 0xA0 SHL SUB SWAP1 SWAP2 AND SWAP1 PUSH4 0xA9059CBB SWAP1 PUSH1 0x44 ADD PUSH1 0x20 PUSH1 0x40 MLOAD DUP1 DUP4 SUB DUP2 PUSH0 DUP8 GAS CALL ISZERO DUP1 ISZERO PUSH2 0x310A JUMPI RETURNDATASIZE PUSH0 DUP1 RETURNDATACOPY RETURNDATASIZE PUSH0 REVERT JUMPDEST POP POP POP POP PUSH1 0x40 MLOAD RETURNDATASIZE PUSH1 0x1F NOT PUSH1 0x1F DUP3 ADD AND DUP3 ADD DUP1 PUSH1 0x40 MSTORE POP DUP2 ADD SWAP1 PUSH2 0x11CC SWAP2 SWAP1 PUSH2 0x5A50 JUMP JUMPDEST PUSH2 0x3136 PUSH2 0x34CB JUMP JUMPDEST PUSH1 0x10 DUP1 SLOAD PUSH1 0xFF NOT AND SWAP2 ISZERO ISZERO SWAP2 SWAP1 SWAP2 OR SWAP1 SSTORE JUMP JUMPDEST PUSH2 0x3151 PUSH2 0x34CB JUMP JUMPDEST PUSH1 0x11 SSTORE JUMP JUMPDEST PUSH2 0x315E PUSH2 0x34CB JUMP JUMPDEST PUSH2 0x11CC PUSH1 0x1 PUSH1 0x1 PUSH1 0xA0 SHL SUB DUP4 AND CALLER DUP4 PUSH2 0x3BDE JUMP JUMPDEST PUSH2 0x317D DUP5 DUP5 DUP5 PUSH2 0x1B47 JUMP JUMPDEST PUSH2 0x1BCA DUP5 DUP5 DUP5 DUP5 PUSH2 0x3C30 JUMP JUMPDEST PUSH2 0x3191 PUSH2 0x2B42 JUMP JUMPDEST PUSH1 0x1 PUSH1 0x1 PUSH1 0xA0 SHL SUB AND CALLER PUSH1 0x1 PUSH1 0x1 PUSH1 0xA0 SHL SUB AND EQ DUP1 PUSH2 0x31BA JUMPI POP PUSH1 0x9 SLOAD PUSH1 0x1 PUSH1 0x1 PUSH1 0xA0 SHL SUB AND CALLER EQ JUMPDEST PUSH2 0x31DF JUMPI PUSH1 0x40 MLOAD PUSH3 0x461BCD PUSH1 0xE5 SHL DUP2 MSTORE PUSH1 0x20 PUSH1 0x4 DUP3 ADD MSTORE PUSH0 PUSH1 0x24 DUP3 ADD MSTORE PUSH1 0x44 ADD PUSH2 0x1189 JUMP JUMPDEST PUSH1 0x1 PUSH1 0x1 PUSH1 0xA0 SHL SUB DUP3 AND PUSH2 0x320E JUMPI PUSH1 0x40 MLOAD PUSH3 0x461BCD PUSH1 0xE5 SHL DUP2 MSTORE PUSH1 0x20 PUSH1 0x4 DUP3 ADD MSTORE PUSH0 PUSH1 0x24 DUP3 ADD MSTORE PUSH1 0x44 ADD PUSH2 0x1189 JUMP JUMPDEST PUSH0 DUP2 GT PUSH2 0x3236 JUMPI PUSH1 0x40 MLOAD PUSH3 0x461BCD PUSH1 0xE5 SHL DUP2 MSTORE PUSH1 0x20 PUSH1 0x4 DUP3 ADD MSTORE PUSH0 PUSH1 0x24 DUP3 ADD MSTORE PUSH1 0x44 ADD PUSH2 0x1189 JUMP JUMPDEST PUSH1 0x1 PUSH1 0x1 PUSH1 0xA0 SHL SUB DUP3 AND PUSH0 SWAP1 DUP2 MSTORE PUSH1 0x17 PUSH1 0x20 MSTORE PUSH1 0x40 DUP2 KECCAK256 SLOAD SWAP1 SUB PUSH2 0x329F JUMPI PUSH1 0x1C DUP1 SLOAD PUSH1 0x1 DUP2 ADD DUP3 SSTORE PUSH0 SWAP2 SWAP1 SWAP2 MSTORE PUSH32 0xE4562A10381DEC21B205ED72637E6B1B523BDD0E4D4D50AF5CD23DD4500A211 ADD DUP1 SLOAD PUSH1 0x1 PUSH1 0x1 PUSH1 0xA0 SHL SUB NOT AND PUSH1 0x1 PUSH1 0x1 PUSH1 0xA0 SHL SUB DUP5 AND OR SWAP1 SSTORE JUMPDEST PUSH1 0x1 PUSH1 0x1 PUSH1 0xA0 SHL SUB DUP3 AND PUSH0 SWAP1 DUP2 MSTORE PUSH1 0x17 PUSH1 0x20 MSTORE PUSH1 0x40 DUP2 KECCAK256 DUP1 SLOAD DUP4 SWAP3 SWAP1 PUSH2 0x32C6 SWAP1 DUP5 SWAP1 PUSH2 0x589B JUMP JUMPDEST SWAP1 SWAP2 SSTORE POP POP PUSH1 0x1A SLOAD PUSH0 SWAP1 DUP2 MSTORE PUSH1 0x19 PUSH1 0x20 MSTORE PUSH1 0x40 DUP2 KECCAK256 DUP1 SLOAD DUP4 SWAP3 SWAP1 PUSH2 0x32EB SWAP1 DUP5 SWAP1 PUSH2 0x589B JUMP JUMPDEST SWAP1 SWAP2 SSTORE POP POP POP POP JUMP JUMPDEST PUSH1 0x60 PUSH2 0x109B DUP3 PUSH2 0x3D4F JUMP JUMPDEST PUSH2 0x3307 PUSH2 0x34CB JUMP JUMPDEST PUSH1 0x9 DUP1 SLOAD SWAP2 ISZERO ISZERO PUSH1 0x1 PUSH1 0xA0 SHL MUL PUSH1 0xFF PUSH1 0xA0 SHL NOT SWAP1 SWAP3 AND SWAP2 SWAP1 SWAP2 OR SWAP1 SSTORE JUMP JUMPDEST PUSH1 0x1 PUSH1 0x1 PUSH1 0xA0 SHL SUB SWAP2 DUP3 AND PUSH0 SWAP1 DUP2 MSTORE PUSH32 0x80BB2B638CC20BC4D0A60D66940F3AB4A00C1D7B313497CA82FB0B4AB0079305 PUSH1 0x20 SWAP1 DUP2 MSTORE PUSH1 0x40 DUP1 DUP4 KECCAK256 SWAP4 SWAP1 SWAP5 AND DUP3 MSTORE SWAP2 SWAP1 SWAP2 MSTORE KECCAK256 SLOAD PUSH1 0xFF AND SWAP1 JUMP JUMPDEST PUSH2 0x3379 PUSH2 0x34CB JUMP JUMPDEST DUP1 SELFBALANCE LT PUSH2 0x1CEA JUMPI PUSH1 0x40 MLOAD PUSH0 SWAP1 CALLER SWAP1 DUP4 SWAP1 DUP4 DUP2 DUP2 DUP2 DUP6 DUP8 GAS CALL SWAP3 POP POP POP RETURNDATASIZE DUP1 PUSH0 DUP2 EQ PUSH2 0x33BF JUMPI PUSH1 0x40 MLOAD SWAP2 POP PUSH1 0x1F NOT PUSH1 0x3F RETURNDATASIZE ADD AND DUP3 ADD PUSH1 0x40 MSTORE RETURNDATASIZE DUP3 MSTORE RETURNDATASIZE PUSH0 PUSH1 0x20 DUP5 ADD RETURNDATACOPY PUSH2 0x33C4 JUMP JUMPDEST PUSH1 0x60 SWAP2 POP JUMPDEST POP POP SWAP1 POP DUP1 PUSH2 0x11CC JUMPI PUSH0 DUP1 REVERT JUMPDEST PUSH2 0x33D9 PUSH2 0x34CB JUMP JUMPDEST PUSH1 0x1 PUSH1 0x1 PUSH1 0xA0 SHL SUB DUP2 AND PUSH2 0x3402 JUMPI PUSH1 0x40 MLOAD PUSH4 0x1E4FBDF7 PUSH1 0xE0 SHL DUP2 MSTORE PUSH0 PUSH1 0x4 DUP3 ADD MSTORE PUSH1 0x24 ADD PUSH2 0x1189 JUMP JUMPDEST PUSH2 0x1CEA DUP2 PUSH2 0x3A12 JUMP JUMPDEST PUSH2 0x3413 PUSH2 0x34CB JUMP JUMPDEST PUSH1 0x7 DUP1 SLOAD PUSH2 0xFFFF SWAP1 SWAP3 AND PUSH5 0x100000000 MUL PUSH6 0xFFFF00000000 NOT SWAP1 SWAP3 AND SWAP2 SWAP1 SWAP2 OR SWAP1 SSTORE JUMP JUMPDEST PUSH0 PUSH1 0x1 PUSH1 0x1 PUSH1 0xE0 SHL SUB NOT DUP3 AND PUSH4 0x24832483 PUSH1 0xE1 SHL EQ DUP1 PUSH2 0x109B JUMPI POP PUSH2 0x109B DUP3 PUSH2 0x3E75 JUMP JUMPDEST PUSH0 DUP1 PUSH2 0x3466 DUP4 PUSH2 0x3E99 JUMP JUMPDEST SWAP1 POP PUSH1 0x1 PUSH1 0x1 PUSH1 0xA0 SHL SUB DUP2 AND PUSH2 0x109B JUMPI PUSH1 0x40 MLOAD PUSH4 0x7E273289 PUSH1 0xE0 SHL DUP2 MSTORE PUSH1 0x4 DUP2 ADD DUP5 SWAP1 MSTORE PUSH1 0x24 ADD PUSH2 0x1189 JUMP JUMPDEST PUSH0 SWAP1 DUP2 MSTORE PUSH32 0x80BB2B638CC20BC4D0A60D66940F3AB4A00C1D7B313497CA82FB0B4AB0079304 PUSH1 0x20 MSTORE PUSH1 0x40 SWAP1 KECCAK256 SLOAD PUSH1 0x1 PUSH1 0x1 PUSH1 0xA0 SHL SUB AND SWAP1 JUMP JUMPDEST CALLER PUSH2 0x34D4 PUSH2 0x2B42 JUMP JUMPDEST PUSH1 0x1 PUSH1 0x1 PUSH1 0xA0 SHL SUB AND EQ PUSH2 0x1CFD JUMPI PUSH1 0x40 MLOAD PUSH4 0x118CDAA7 PUSH1 0xE0 SHL DUP2 MSTORE CALLER PUSH1 0x4 DUP3 ADD MSTORE PUSH1 0x24 ADD PUSH2 0x1189 JUMP JUMPDEST PUSH2 0x1DD9 DUP4 DUP4 DUP4 PUSH1 0x1 PUSH2 0x3ED2 JUMP JUMPDEST PUSH0 DUP3 DUP2 MSTORE PUSH32 0x542A41881EE128A365A727B282C86FA859579490B9BB45AAB8503648C8E7900 PUSH1 0x20 DUP2 SWAP1 MSTORE PUSH1 0x40 SWAP1 SWAP2 KECCAK256 PUSH2 0x3543 DUP4 DUP3 PUSH2 0x5C43 JUMP JUMPDEST POP PUSH1 0x40 MLOAD DUP4 DUP2 MSTORE PUSH32 0xF8E1A15ABA9398E019F0B49DF1A4FDE98EE17AE345CB5F6B5E2C27F5033E8CE7 SWAP1 PUSH1 0x20 ADD PUSH1 0x40 MLOAD DUP1 SWAP2 SUB SWAP1 LOG1 POP POP POP JUMP JUMPDEST PUSH0 DUP1 MLOAD PUSH1 0x20 PUSH2 0x5E85 DUP4 CODECOPY DUP2 MLOAD SWAP2 MSTORE SLOAD PUSH1 0xFF AND ISZERO PUSH2 0x1CFD JUMPI PUSH1 0x40 MLOAD PUSH4 0xD93C0665 PUSH1 0xE0 SHL DUP2 MSTORE PUSH1 0x4 ADD PUSH1 0x40 MLOAD DUP1 SWAP2 SUB SWAP1 REVERT JUMPDEST PUSH0 DUP3 DUP2 MSTORE PUSH1 0x1 PUSH1 0x20 MSTORE PUSH1 0x40 SWAP1 KECCAK256 SLOAD PUSH2 0x100 SWAP1 DIV PUSH1 0xFF AND PUSH2 0x35E7 JUMPI PUSH1 0x40 MLOAD PUSH3 0x461BCD PUSH1 0xE5 SHL DUP2 MSTORE PUSH1 0x20 PUSH1 0x4 DUP3 ADD MSTORE PUSH0 PUSH1 0x24 DUP3 ADD MSTORE PUSH1 0x44 ADD PUSH2 0x1189 JUMP JUMPDEST PUSH0 DUP3 DUP2 MSTORE PUSH1 0x1 PUSH1 0x20 DUP2 DUP2 MSTORE PUSH1 0x40 SWAP1 SWAP3 KECCAK256 DUP1 SLOAD PUSH1 0xFF NOT AND DUP3 OR DUP2 SSTORE DUP4 MLOAD PUSH2 0x1DD9 SWAP4 SWAP2 SWAP1 SWAP3 ADD SWAP2 SWAP1 DUP5 ADD SWAP1 PUSH2 0x4D42 JUMP JUMPDEST PUSH0 DUP1 PUSH2 0x3620 DUP5 PUSH2 0x3E99 JUMP JUMPDEST SWAP1 POP PUSH1 0x1 PUSH1 0x1 PUSH1 0xA0 SHL SUB DUP2 AND ISZERO DUP1 PUSH2 0x363F JUMPI POP PUSH1 0x1 PUSH1 0x1 PUSH1 0xA0 SHL SUB DUP6 AND ISZERO JUMPDEST ISZERO PUSH2 0x372D JUMPI PUSH1 0x1 PUSH1 0x1 PUSH1 0xA0 SHL SUB DUP6 AND PUSH2 0x3728 JUMPI PUSH1 0x7 SLOAD PUSH1 0x40 MLOAD PUSH4 0x9FC2D67 PUSH1 0xE1 SHL DUP2 MSTORE PUSH1 0x4 DUP2 ADD DUP7 SWAP1 MSTORE PUSH0 SWAP2 PUSH1 0x1 PUSH1 0x30 SHL SWAP1 DIV PUSH1 0x1 PUSH1 0x1 PUSH1 0xA0 SHL SUB AND SWAP1 PUSH4 0x13F85ACE SWAP1 PUSH1 0x24 ADD PUSH1 0xE0 PUSH1 0x40 MLOAD DUP1 DUP4 SUB DUP2 DUP7 GAS STATICCALL ISZERO DUP1 ISZERO PUSH2 0x36A0 JUMPI RETURNDATASIZE PUSH0 DUP1 RETURNDATACOPY RETURNDATASIZE PUSH0 REVERT JUMPDEST POP POP POP POP PUSH1 0x40 MLOAD RETURNDATASIZE PUSH1 0x1F NOT PUSH1 0x1F DUP3 ADD AND DUP3 ADD DUP1 PUSH1 0x40 MSTORE POP DUP2 ADD SWAP1 PUSH2 0x36C4 SWAP2 SWAP1 PUSH2 0x5427 JUMP JUMPDEST PUSH1 0x7 SLOAD DUP2 MLOAD PUSH1 0x40 MLOAD PUSH3 0x3EAE9 PUSH1 0xE0 SHL DUP2 MSTORE PUSH1 0x4 DUP2 ADD SWAP2 SWAP1 SWAP2 MSTORE SWAP2 SWAP3 POP PUSH1 0x1 PUSH1 0x30 SHL SWAP1 DIV PUSH1 0x1 PUSH1 0x1 PUSH1 0xA0 SHL SUB AND SWAP1 PUSH3 0x3EAE9 SWAP1 PUSH1 0x24 ADD PUSH0 PUSH1 0x40 MLOAD DUP1 DUP4 SUB DUP2 PUSH0 DUP8 DUP1 EXTCODESIZE ISZERO DUP1 ISZERO PUSH2 0x3710 JUMPI PUSH0 DUP1 REVERT JUMPDEST POP GAS CALL ISZERO DUP1 ISZERO PUSH2 0x3722 JUMPI RETURNDATASIZE PUSH0 DUP1 RETURNDATACOPY RETURNDATASIZE PUSH0 REVERT JUMPDEST POP POP POP POP POP JUMPDEST PUSH2 0x379A JUMP JUMPDEST PUSH1 0x9 SLOAD PUSH1 0x1 PUSH1 0x1 PUSH1 0xA0 SHL SUB AND PUSH2 0x3742 DUP6 PUSH2 0x2791 JUMP JUMPDEST PUSH1 0x1 PUSH1 0x1 PUSH1 0xA0 SHL SUB AND EQ DUP1 PUSH2 0x3764 JUMPI POP PUSH1 0x9 SLOAD PUSH1 0x1 PUSH1 0x1 PUSH1 0xA0 SHL SUB DUP7 DUP2 AND SWAP2 AND EQ JUMPDEST PUSH2 0x379A JUMPI PUSH1 0x9 SLOAD PUSH1 0x1 PUSH1 0xA0 SHL SWAP1 DIV PUSH1 0xFF AND PUSH2 0x379A JUMPI PUSH1 0x40 MLOAD PUSH3 0x461BCD PUSH1 0xE5 SHL DUP2 MSTORE PUSH1 0x20 PUSH1 0x4 DUP3 ADD MSTORE PUSH0 PUSH1 0x24 DUP3 ADD MSTORE PUSH1 0x44 ADD PUSH2 0x1189 JUMP JUMPDEST PUSH2 0x37A5 DUP6 DUP6 DUP6 PUSH2 0x3FE5 JUMP JUMPDEST SWAP6 SWAP5 POP POP POP POP POP JUMP JUMPDEST PUSH0 PUSH2 0x37BA PUSH0 DUP4 PUSH0 PUSH2 0x3615 JUMP JUMPDEST SWAP1 POP PUSH1 0x1 PUSH1 0x1 PUSH1 0xA0 SHL SUB DUP2 AND PUSH2 0x11CC JUMPI PUSH1 0x40 MLOAD PUSH4 0x7E273289 PUSH1 0xE0 SHL DUP2 MSTORE PUSH1 0x4 DUP2 ADD DUP4 SWAP1 MSTORE PUSH1 0x24 ADD PUSH2 0x1189 JUMP JUMPDEST PUSH2 0x37EE PUSH2 0x3FF9 JUMP JUMPDEST PUSH0 DUP1 MLOAD PUSH1 0x20 PUSH2 0x5E85 DUP4 CODECOPY DUP2 MLOAD SWAP2 MSTORE DUP1 SLOAD PUSH1 0xFF NOT AND DUP2 SSTORE PUSH32 0x5DB9EE0A495BF2E6FF9C91A7834C1BA4FDD244A5E8AA4E537BD38AEAE4B073AA CALLER JUMPDEST PUSH1 0x40 MLOAD PUSH1 0x1 PUSH1 0x1 PUSH1 0xA0 SHL SUB SWAP1 SWAP2 AND DUP2 MSTORE PUSH1 0x20 ADD PUSH1 0x40 MLOAD DUP1 SWAP2 SUB SWAP1 LOG1 POP JUMP JUMPDEST PUSH0 PUSH2 0x384E PUSH2 0x357C JUMP JUMPDEST PUSH2 0x3859 DUP5 DUP5 DUP5 PUSH2 0x4028 JUMP JUMPDEST SWAP5 SWAP4 POP POP POP POP JUMP JUMPDEST ADDRESS PUSH1 0x1 PUSH1 0x1 PUSH1 0xA0 SHL SUB PUSH32 0x0 AND EQ DUP1 PUSH2 0x38E7 JUMPI POP PUSH32 0x0 PUSH1 0x1 PUSH1 0x1 PUSH1 0xA0 SHL SUB AND PUSH2 0x38DB PUSH0 DUP1 MLOAD PUSH1 0x20 PUSH2 0x5E45 DUP4 CODECOPY DUP2 MLOAD SWAP2 MSTORE SLOAD PUSH1 0x1 PUSH1 0x1 PUSH1 0xA0 SHL SUB AND SWAP1 JUMP JUMPDEST PUSH1 0x1 PUSH1 0x1 PUSH1 0xA0 SHL SUB AND EQ ISZERO JUMPDEST ISZERO PUSH2 0x1CFD JUMPI PUSH1 0x40 MLOAD PUSH4 0x703E46DD PUSH1 0xE1 SHL DUP2 MSTORE PUSH1 0x4 ADD PUSH1 0x40 MLOAD DUP1 SWAP2 SUB SWAP1 REVERT JUMPDEST PUSH2 0x1CEA PUSH2 0x34CB JUMP JUMPDEST DUP2 PUSH1 0x1 PUSH1 0x1 PUSH1 0xA0 SHL SUB AND PUSH4 0x52D1902D PUSH1 0x40 MLOAD DUP2 PUSH4 0xFFFFFFFF AND PUSH1 0xE0 SHL DUP2 MSTORE PUSH1 0x4 ADD PUSH1 0x20 PUSH1 0x40 MLOAD DUP1 DUP4 SUB DUP2 DUP7 GAS STATICCALL SWAP3 POP POP POP DUP1 ISZERO PUSH2 0x3967 JUMPI POP PUSH1 0x40 DUP1 MLOAD PUSH1 0x1F RETURNDATASIZE SWAP1 DUP2 ADD PUSH1 0x1F NOT AND DUP3 ADD SWAP1 SWAP3 MSTORE PUSH2 0x3964 SWAP2 DUP2 ADD SWAP1 PUSH2 0x55B8 JUMP JUMPDEST PUSH1 0x1 JUMPDEST PUSH2 0x398F JUMPI PUSH1 0x40 MLOAD PUSH4 0x4C9C8CE3 PUSH1 0xE0 SHL DUP2 MSTORE PUSH1 0x1 PUSH1 0x1 PUSH1 0xA0 SHL SUB DUP4 AND PUSH1 0x4 DUP3 ADD MSTORE PUSH1 0x24 ADD PUSH2 0x1189 JUMP JUMPDEST PUSH0 DUP1 MLOAD PUSH1 0x20 PUSH2 0x5E45 DUP4 CODECOPY DUP2 MLOAD SWAP2 MSTORE DUP2 EQ PUSH2 0x39BF JUMPI PUSH1 0x40 MLOAD PUSH4 0x2A875269 PUSH1 0xE2 SHL DUP2 MSTORE PUSH1 0x4 DUP2 ADD DUP3 SWAP1 MSTORE PUSH1 0x24 ADD PUSH2 0x1189 JUMP JUMPDEST PUSH2 0x1DD9 DUP4 DUP4 PUSH2 0x41D7 JUMP JUMPDEST ADDRESS PUSH1 0x1 PUSH1 0x1 PUSH1 0xA0 SHL SUB PUSH32 0x0 AND EQ PUSH2 0x1CFD JUMPI PUSH1 0x40 MLOAD PUSH4 0x703E46DD PUSH1 0xE1 SHL DUP2 MSTORE PUSH1 0x4 ADD PUSH1 0x40 MLOAD DUP1 SWAP2 SUB SWAP1 REVERT JUMPDEST PUSH32 0x9016D09D72D40FDAE2FD8CEAC6B6234C7706214FD39C1CD1E609A0528C199300 DUP1 SLOAD PUSH1 0x1 PUSH1 0x1 PUSH1 0xA0 SHL SUB NOT DUP2 AND PUSH1 0x1 PUSH1 0x1 PUSH1 0xA0 SHL SUB DUP5 DUP2 AND SWAP2 DUP3 OR DUP5 SSTORE PUSH1 0x40 MLOAD SWAP3 AND SWAP2 DUP3 SWAP1 PUSH32 0x8BE0079C531659141344CD1FD0A4F28419497F9722A3DAAFE3B4186F6B6457E0 SWAP1 PUSH0 SWAP1 LOG3 POP POP POP JUMP JUMPDEST PUSH2 0x3A8A PUSH2 0x422C JUMP JUMPDEST PUSH2 0x11CC DUP3 DUP3 PUSH2 0x4275 JUMP JUMPDEST PUSH2 0x1CFD PUSH2 0x422C JUMP JUMPDEST PUSH2 0x3AA4 PUSH2 0x422C JUMP JUMPDEST PUSH2 0x1CFD PUSH2 0x42A5 JUMP JUMPDEST PUSH2 0x3AB4 PUSH2 0x422C JUMP JUMPDEST PUSH2 0x1CEA DUP2 PUSH2 0x42C5 JUMP JUMPDEST PUSH2 0x3AC5 PUSH2 0x357C JUMP JUMPDEST PUSH0 DUP1 MLOAD PUSH1 0x20 PUSH2 0x5E85 DUP4 CODECOPY DUP2 MLOAD SWAP2 MSTORE DUP1 SLOAD PUSH1 0xFF NOT AND PUSH1 0x1 OR DUP2 SSTORE PUSH32 0x62E78CEA01BEE320CD4E420270B5EA74000D11B0C9F74754EBDBFC544B05A258 CALLER PUSH2 0x3827 JUMP JUMPDEST PUSH0 DUP1 SLOAD DUP2 SWAP1 DUP2 DUP1 PUSH2 0x3B15 DUP4 PUSH2 0x5A6B JUMP JUMPDEST SWAP2 SWAP1 POP SSTORE SWAP1 POP PUSH2 0x3B25 DUP5 DUP3 PUSH2 0x42CD JUMP JUMPDEST PUSH2 0x11FE DUP2 DUP5 PUSH2 0x350A JUMP JUMPDEST PUSH0 DUP1 MLOAD PUSH1 0x20 PUSH2 0x5E25 DUP4 CODECOPY DUP2 MLOAD SWAP2 MSTORE PUSH1 0x1 PUSH1 0x1 PUSH1 0xA0 SHL SUB DUP4 AND PUSH2 0x3B6F JUMPI PUSH1 0x40 MLOAD PUSH4 0xB611743 PUSH1 0xE3 SHL DUP2 MSTORE PUSH1 0x1 PUSH1 0x1 PUSH1 0xA0 SHL SUB DUP5 AND PUSH1 0x4 DUP3 ADD MSTORE PUSH1 0x24 ADD PUSH2 0x1189 JUMP JUMPDEST PUSH1 0x1 PUSH1 0x1 PUSH1 0xA0 SHL SUB DUP5 DUP2 AND PUSH0 DUP2 DUP2 MSTORE PUSH1 0x5 DUP5 ADD PUSH1 0x20 SWAP1 DUP2 MSTORE PUSH1 0x40 DUP1 DUP4 KECCAK256 SWAP5 DUP9 AND DUP1 DUP5 MSTORE SWAP5 DUP3 MSTORE SWAP2 DUP3 SWAP1 KECCAK256 DUP1 SLOAD PUSH1 0xFF NOT AND DUP8 ISZERO ISZERO SWAP1 DUP2 OR SWAP1 SWAP2 SSTORE SWAP2 MLOAD SWAP2 DUP3 MSTORE PUSH32 0x17307EAB39AB6107E8899845AD3D59BD9653F200F220920489CA2B5937696C31 SWAP2 ADD PUSH1 0x40 MLOAD DUP1 SWAP2 SUB SWAP1 LOG3 POP POP POP POP JUMP JUMPDEST PUSH1 0x40 DUP1 MLOAD PUSH1 0x1 PUSH1 0x1 PUSH1 0xA0 SHL SUB DUP5 AND PUSH1 0x24 DUP3 ADD MSTORE PUSH1 0x44 DUP1 DUP3 ADD DUP5 SWAP1 MSTORE DUP3 MLOAD DUP1 DUP4 SUB SWAP1 SWAP2 ADD DUP2 MSTORE PUSH1 0x64 SWAP1 SWAP2 ADD SWAP1 SWAP2 MSTORE PUSH1 0x20 DUP2 ADD DUP1 MLOAD PUSH1 0x1 PUSH1 0x1 PUSH1 0xE0 SHL SUB AND PUSH4 0xA9059CBB PUSH1 0xE0 SHL OR SWAP1 MSTORE PUSH2 0x1DD9 SWAP1 DUP5 SWAP1 PUSH2 0x42E6 JUMP JUMPDEST PUSH1 0x1 PUSH1 0x1 PUSH1 0xA0 SHL SUB DUP4 AND EXTCODESIZE ISZERO PUSH2 0x1BCA JUMPI PUSH1 0x40 MLOAD PUSH4 0xA85BD01 PUSH1 0xE1 SHL DUP2 MSTORE PUSH1 0x1 PUSH1 0x1 PUSH1 0xA0 SHL SUB DUP5 AND SWAP1 PUSH4 0x150B7A02 SWAP1 PUSH2 0x3C72 SWAP1 CALLER SWAP1 DUP9 SWAP1 DUP8 SWAP1 DUP8 SWAP1 PUSH1 0x4 ADD PUSH2 0x5CFE JUMP JUMPDEST PUSH1 0x20 PUSH1 0x40 MLOAD DUP1 DUP4 SUB DUP2 PUSH0 DUP8 GAS CALL SWAP3 POP POP POP DUP1 ISZERO PUSH2 0x3CAC JUMPI POP PUSH1 0x40 DUP1 MLOAD PUSH1 0x1F RETURNDATASIZE SWAP1 DUP2 ADD PUSH1 0x1F NOT AND DUP3 ADD SWAP1 SWAP3 MSTORE PUSH2 0x3CA9 SWAP2 DUP2 ADD SWAP1 PUSH2 0x5D30 JUMP JUMPDEST PUSH1 0x1 JUMPDEST PUSH2 0x3D13 JUMPI RETURNDATASIZE DUP1 DUP1 ISZERO PUSH2 0x3CD9 JUMPI PUSH1 0x40 MLOAD SWAP2 POP PUSH1 0x1F NOT PUSH1 0x3F RETURNDATASIZE ADD AND DUP3 ADD PUSH1 0x40 MSTORE RETURNDATASIZE DUP3 MSTORE RETURNDATASIZE PUSH0 PUSH1 0x20 DUP5 ADD RETURNDATACOPY PUSH2 0x3CDE JUMP JUMPDEST PUSH1 0x60 SWAP2 POP JUMPDEST POP DUP1 MLOAD PUSH0 SUB PUSH2 0x3D0B JUMPI PUSH1 0x40 MLOAD PUSH4 0x32505749 PUSH1 0xE1 SHL DUP2 MSTORE PUSH1 0x1 PUSH1 0x1 PUSH1 0xA0 SHL SUB DUP6 AND PUSH1 0x4 DUP3 ADD MSTORE PUSH1 0x24 ADD PUSH2 0x1189 JUMP JUMPDEST DUP1 MLOAD DUP2 PUSH1 0x20 ADD REVERT JUMPDEST PUSH1 0x1 PUSH1 0x1 PUSH1 0xE0 SHL SUB NOT DUP2 AND PUSH4 0xA85BD01 PUSH1 0xE1 SHL EQ PUSH2 0x2B0C JUMPI PUSH1 0x40 MLOAD PUSH4 0x32505749 PUSH1 0xE1 SHL DUP2 MSTORE PUSH1 0x1 PUSH1 0x1 PUSH1 0xA0 SHL SUB DUP6 AND PUSH1 0x4 DUP3 ADD MSTORE PUSH1 0x24 ADD PUSH2 0x1189 JUMP JUMPDEST PUSH1 0x60 PUSH32 0x542A41881EE128A365A727B282C86FA859579490B9BB45AAB8503648C8E7900 PUSH2 0x3D7B DUP4 PUSH2 0x345B JUMP JUMPDEST POP PUSH0 DUP4 DUP2 MSTORE PUSH1 0x20 DUP3 SWAP1 MSTORE PUSH1 0x40 DUP2 KECCAK256 DUP1 SLOAD PUSH2 0x3D94 SWAP1 PUSH2 0x5341 JUMP JUMPDEST DUP1 PUSH1 0x1F ADD PUSH1 0x20 DUP1 SWAP2 DIV MUL PUSH1 0x20 ADD PUSH1 0x40 MLOAD SWAP1 DUP2 ADD PUSH1 0x40 MSTORE DUP1 SWAP3 SWAP2 SWAP1 DUP2 DUP2 MSTORE PUSH1 0x20 ADD DUP3 DUP1 SLOAD PUSH2 0x3DC0 SWAP1 PUSH2 0x5341 JUMP JUMPDEST DUP1 ISZERO PUSH2 0x3E0B JUMPI DUP1 PUSH1 0x1F LT PUSH2 0x3DE2 JUMPI PUSH2 0x100 DUP1 DUP4 SLOAD DIV MUL DUP4 MSTORE SWAP2 PUSH1 0x20 ADD SWAP2 PUSH2 0x3E0B JUMP JUMPDEST DUP3 ADD SWAP2 SWAP1 PUSH0 MSTORE PUSH1 0x20 PUSH0 KECCAK256 SWAP1 JUMPDEST DUP2 SLOAD DUP2 MSTORE SWAP1 PUSH1 0x1 ADD SWAP1 PUSH1 0x20 ADD DUP1 DUP4 GT PUSH2 0x3DEE JUMPI DUP3 SWAP1 SUB PUSH1 0x1F AND DUP3 ADD SWAP2 JUMPDEST POP POP POP POP POP SWAP1 POP PUSH0 PUSH2 0x3E27 PUSH1 0x40 DUP1 MLOAD PUSH1 0x20 DUP2 ADD SWAP1 SWAP2 MSTORE PUSH0 DUP2 MSTORE SWAP1 JUMP JUMPDEST SWAP1 POP DUP1 MLOAD PUSH0 SUB PUSH2 0x3E39 JUMPI POP SWAP4 SWAP3 POP POP POP JUMP JUMPDEST DUP2 MLOAD ISZERO PUSH2 0x3E6C JUMPI DUP1 DUP3 PUSH1 0x40 MLOAD PUSH1 0x20 ADD PUSH2 0x3E53 SWAP3 SWAP2 SWAP1 PUSH2 0x5D4B JUMP JUMPDEST PUSH1 0x40 MLOAD PUSH1 0x20 DUP2 DUP4 SUB SUB DUP2 MSTORE SWAP1 PUSH1 0x40 MSTORE SWAP4 POP POP POP POP SWAP2 SWAP1 POP JUMP JUMPDEST PUSH2 0x37A5 DUP6 PUSH2 0x4347 JUMP JUMPDEST PUSH0 PUSH1 0x1 PUSH1 0x1 PUSH1 0xE0 SHL SUB NOT DUP3 AND PUSH4 0x780E9D63 PUSH1 0xE0 SHL EQ DUP1 PUSH2 0x109B JUMPI POP PUSH2 0x109B DUP3 PUSH2 0x43B7 JUMP JUMPDEST PUSH0 SWAP1 DUP2 MSTORE PUSH32 0x80BB2B638CC20BC4D0A60D66940F3AB4A00C1D7B313497CA82FB0B4AB0079302 PUSH1 0x20 MSTORE PUSH1 0x40 SWAP1 KECCAK256 SLOAD PUSH1 0x1 PUSH1 0x1 PUSH1 0xA0 SHL SUB AND SWAP1 JUMP JUMPDEST PUSH0 DUP1 MLOAD PUSH1 0x20 PUSH2 0x5E25 DUP4 CODECOPY DUP2 MLOAD SWAP2 MSTORE DUP2 DUP1 PUSH2 0x3EF4 JUMPI POP PUSH1 0x1 PUSH1 0x1 PUSH1 0xA0 SHL SUB DUP4 AND ISZERO ISZERO JUMPDEST ISZERO PUSH2 0x3FB5 JUMPI PUSH0 PUSH2 0x3F03 DUP6 PUSH2 0x345B JUMP JUMPDEST SWAP1 POP PUSH1 0x1 PUSH1 0x1 PUSH1 0xA0 SHL SUB DUP5 AND ISZERO DUP1 ISZERO SWAP1 PUSH2 0x3F2F JUMPI POP DUP4 PUSH1 0x1 PUSH1 0x1 PUSH1 0xA0 SHL SUB AND DUP2 PUSH1 0x1 PUSH1 0x1 PUSH1 0xA0 SHL SUB AND EQ ISZERO JUMPDEST DUP1 ISZERO PUSH2 0x3F42 JUMPI POP PUSH2 0x3F40 DUP2 DUP6 PUSH2 0x3325 JUMP JUMPDEST ISZERO JUMPDEST ISZERO PUSH2 0x3F6B JUMPI PUSH1 0x40 MLOAD PUSH4 0xA9FBF51F PUSH1 0xE0 SHL DUP2 MSTORE PUSH1 0x1 PUSH1 0x1 PUSH1 0xA0 SHL SUB DUP6 AND PUSH1 0x4 DUP3 ADD MSTORE PUSH1 0x24 ADD PUSH2 0x1189 JUMP JUMPDEST DUP3 ISZERO PUSH2 0x3FB3 JUMPI DUP5 DUP7 PUSH1 0x1 PUSH1 0x1 PUSH1 0xA0 SHL SUB AND DUP3 PUSH1 0x1 PUSH1 0x1 PUSH1 0xA0 SHL SUB AND PUSH32 0x8C5BE1E5EBEC7D5BD14F71427D1E84F3DD0314C0F7B2291E5B200AC8C7C3B925 PUSH1 0x40 MLOAD PUSH1 0x40 MLOAD DUP1 SWAP2 SUB SWAP1 LOG4 JUMPDEST POP JUMPDEST PUSH0 SWAP4 DUP5 MSTORE PUSH1 0x4 ADD PUSH1 0x20 MSTORE POP POP PUSH1 0x40 SWAP1 KECCAK256 DUP1 SLOAD PUSH1 0x1 PUSH1 0x1 PUSH1 0xA0 SHL SUB NOT AND PUSH1 0x1 PUSH1 0x1 PUSH1 0xA0 SHL SUB SWAP3 SWAP1 SWAP3 AND SWAP2 SWAP1 SWAP2 OR SWAP1 SSTORE JUMP JUMPDEST PUSH0 PUSH2 0x3FEE PUSH2 0x357C JUMP JUMPDEST PUSH2 0x3859 DUP5 DUP5 DUP5 PUSH2 0x4406 JUMP JUMPDEST PUSH0 DUP1 MLOAD PUSH1 0x20 PUSH2 0x5E85 DUP4 CODECOPY DUP2 MLOAD SWAP2 MSTORE SLOAD PUSH1 0xFF AND PUSH2 0x1CFD JUMPI PUSH1 0x40 MLOAD PUSH4 0x8DFC202B PUSH1 0xE0 SHL DUP2 MSTORE PUSH1 0x4 ADD PUSH1 0x40 MLOAD DUP1 SWAP2 SUB SWAP1 REVERT JUMPDEST PUSH1 0x2 SLOAD PUSH1 0x40 DUP1 MLOAD PUSH1 0xC0 DUP2 ADD DUP3 MSTORE PUSH1 0x6 SLOAD DUP2 MSTORE PUSH1 0x3 SLOAD PUSH1 0x20 DUP1 DUP4 ADD SWAP2 SWAP1 SWAP2 MSTORE PUSH1 0x7 SLOAD PUSH2 0xFFFF PUSH5 0x100000000 DUP3 DIV AND DUP4 DUP6 ADD MSTORE PUSH4 0xFFFFFFFF SWAP1 DUP2 AND PUSH1 0x60 DUP5 ADD MSTORE DUP8 AND PUSH1 0x80 DUP4 ADD MSTORE DUP3 MLOAD SWAP1 DUP2 ADD SWAP1 SWAP3 MSTORE PUSH1 0x10 SLOAD PUSH1 0xFF AND ISZERO ISZERO DUP3 MSTORE PUSH0 SWAP3 PUSH1 0x1 PUSH1 0x1 PUSH1 0xA0 SHL SUB AND SWAP2 PUSH4 0x9B1C385E SWAP2 SWAP1 PUSH1 0xA0 DUP3 ADD SWAP1 PUSH2 0x40A0 SWAP1 PUSH2 0x44FC JUMP JUMPDEST DUP2 MSTORE POP PUSH1 0x40 MLOAD DUP3 PUSH4 0xFFFFFFFF AND PUSH1 0xE0 SHL DUP2 MSTORE PUSH1 0x4 ADD PUSH2 0x40BF SWAP2 SWAP1 PUSH2 0x5D79 JUMP JUMPDEST PUSH1 0x20 PUSH1 0x40 MLOAD DUP1 DUP4 SUB DUP2 PUSH0 DUP8 GAS CALL ISZERO DUP1 ISZERO PUSH2 0x40DB JUMPI RETURNDATASIZE PUSH0 DUP1 RETURNDATACOPY RETURNDATASIZE PUSH0 REVERT JUMPDEST POP POP POP POP PUSH1 0x40 MLOAD RETURNDATASIZE PUSH1 0x1F NOT PUSH1 0x1F DUP3 ADD AND DUP3 ADD DUP1 PUSH1 0x40 MSTORE POP DUP2 ADD SWAP1 PUSH2 0x40FF SWAP2 SWAP1 PUSH2 0x55B8 JUMP JUMPDEST PUSH1 0x40 DUP1 MLOAD PUSH1 0xA0 DUP2 ADD DUP3 MSTORE PUSH0 DUP1 DUP3 MSTORE PUSH1 0x1 PUSH1 0x20 DUP1 DUP5 ADD DUP3 DUP2 MSTORE DUP6 MLOAD DUP5 DUP2 MSTORE DUP1 DUP4 ADD DUP8 MSTORE DUP6 DUP8 ADD SWAP1 DUP2 MSTORE PUSH1 0x60 DUP7 ADD DUP12 SWAP1 MSTORE PUSH1 0x80 DUP7 ADD DUP11 SWAP1 MSTORE DUP8 DUP6 MSTORE DUP4 DUP4 MSTORE SWAP6 SWAP1 SWAP4 KECCAK256 DUP5 MLOAD DUP2 SLOAD SWAP5 MLOAD PUSH2 0xFFFF NOT SWAP1 SWAP6 AND SWAP1 ISZERO ISZERO PUSH2 0xFF00 NOT AND OR PUSH2 0x100 SWAP5 ISZERO ISZERO SWAP5 SWAP1 SWAP5 MUL SWAP4 SWAP1 SWAP4 OR DUP4 SSTORE SWAP4 MLOAD DUP1 MLOAD SWAP6 SWAP7 POP SWAP3 SWAP5 SWAP2 SWAP4 PUSH2 0x4180 SWAP4 SWAP2 DUP6 ADD SWAP3 SWAP2 ADD SWAP1 PUSH2 0x4D42 JUMP JUMPDEST POP PUSH1 0x60 DUP3 ADD MLOAD PUSH1 0x2 DUP3 ADD SSTORE PUSH1 0x80 SWAP1 SWAP2 ADD MLOAD PUSH1 0x3 SWAP1 SWAP2 ADD SSTORE PUSH1 0x4 DUP1 SLOAD PUSH1 0x1 DUP2 ADD DUP3 SSTORE PUSH0 SWAP2 SWAP1 SWAP2 MSTORE PUSH32 0x8A35ACFBC15FF81A39AE7D344FD709F28E8600B4AA8C65C6B64BFE7FE36BD19B ADD DUP2 SWAP1 SSTORE PUSH1 0x5 DUP2 SWAP1 SSTORE SWAP4 SWAP3 POP POP POP JUMP JUMPDEST PUSH2 0x41E0 DUP3 PUSH2 0x456D JUMP JUMPDEST PUSH1 0x40 MLOAD PUSH1 0x1 PUSH1 0x1 PUSH1 0xA0 SHL SUB DUP4 AND SWAP1 PUSH32 0xBC7CD75A20EE27FD9ADEBAB32041F755214DBC6BFFA90CC0225B39DA2E5C2D3B SWAP1 PUSH0 SWAP1 LOG2 DUP1 MLOAD ISZERO PUSH2 0x4224 JUMPI PUSH2 0x1DD9 DUP3 DUP3 PUSH2 0x45D0 JUMP JUMPDEST PUSH2 0x11CC PUSH2 0x4639 JUMP JUMPDEST PUSH32 0xF0C57E16840DF040F15088DC2F81FE391C3923BEC73E23A9662EFC9C229C6A00 SLOAD PUSH1 0x1 PUSH1 0x40 SHL SWAP1 DIV PUSH1 0xFF AND PUSH2 0x1CFD JUMPI PUSH1 0x40 MLOAD PUSH4 0x1AFCD79F PUSH1 0xE3 SHL DUP2 MSTORE PUSH1 0x4 ADD PUSH1 0x40 MLOAD DUP1 SWAP2 SUB SWAP1 REVERT JUMPDEST PUSH2 0x427D PUSH2 0x422C JUMP JUMPDEST PUSH0 DUP1 MLOAD PUSH1 0x20 PUSH2 0x5E25 DUP4 CODECOPY DUP2 MLOAD SWAP2 MSTORE DUP1 PUSH2 0x4296 DUP5 DUP3 PUSH2 0x5C43 JUMP JUMPDEST POP PUSH1 0x1 DUP2 ADD PUSH2 0x1BCA DUP4 DUP3 PUSH2 0x5C43 JUMP JUMPDEST PUSH2 0x42AD PUSH2 0x422C JUMP JUMPDEST PUSH0 DUP1 MLOAD PUSH1 0x20 PUSH2 0x5E85 DUP4 CODECOPY DUP2 MLOAD SWAP2 MSTORE DUP1 SLOAD PUSH1 0xFF NOT AND SWAP1 SSTORE JUMP JUMPDEST PUSH2 0x33D9 PUSH2 0x422C JUMP JUMPDEST PUSH2 0x11CC DUP3 DUP3 PUSH1 0x40 MLOAD DUP1 PUSH1 0x20 ADD PUSH1 0x40 MSTORE DUP1 PUSH0 DUP2 MSTORE POP PUSH2 0x4658 JUMP JUMPDEST PUSH0 PUSH2 0x42FA PUSH1 0x1 PUSH1 0x1 PUSH1 0xA0 SHL SUB DUP5 AND DUP4 PUSH2 0x466E JUMP JUMPDEST SWAP1 POP DUP1 MLOAD PUSH0 EQ ISZERO DUP1 ISZERO PUSH2 0x431E JUMPI POP DUP1 DUP1 PUSH1 0x20 ADD SWAP1 MLOAD DUP2 ADD SWAP1 PUSH2 0x431C SWAP2 SWAP1 PUSH2 0x5A50 JUMP JUMPDEST ISZERO JUMPDEST ISZERO PUSH2 0x1DD9 JUMPI PUSH1 0x40 MLOAD PUSH4 0x5274AFE7 PUSH1 0xE0 SHL DUP2 MSTORE PUSH1 0x1 PUSH1 0x1 PUSH1 0xA0 SHL SUB DUP5 AND PUSH1 0x4 DUP3 ADD MSTORE PUSH1 0x24 ADD PUSH2 0x1189 JUMP JUMPDEST PUSH1 0x60 PUSH2 0x4352 DUP3 PUSH2 0x345B JUMP JUMPDEST POP PUSH0 PUSH2 0x4368 PUSH1 0x40 DUP1 MLOAD PUSH1 0x20 DUP2 ADD SWAP1 SWAP2 MSTORE PUSH0 DUP2 MSTORE SWAP1 JUMP JUMPDEST SWAP1 POP PUSH0 DUP2 MLOAD GT PUSH2 0x4386 JUMPI PUSH1 0x40 MLOAD DUP1 PUSH1 0x20 ADD PUSH1 0x40 MSTORE DUP1 PUSH0 DUP2 MSTORE POP PUSH2 0x11FE JUMP JUMPDEST DUP1 PUSH2 0x4390 DUP5 PUSH2 0x467B JUMP JUMPDEST PUSH1 0x40 MLOAD PUSH1 0x20 ADD PUSH2 0x43A1 SWAP3 SWAP2 SWAP1 PUSH2 0x5D4B JUMP JUMPDEST PUSH1 0x40 MLOAD PUSH1 0x20 DUP2 DUP4 SUB SUB DUP2 MSTORE SWAP1 PUSH1 0x40 MSTORE SWAP4 SWAP3 POP POP POP JUMP JUMPDEST PUSH0 PUSH1 0x1 PUSH1 0x1 PUSH1 0xE0 SHL SUB NOT DUP3 AND PUSH4 0x80AC58CD PUSH1 0xE0 SHL EQ DUP1 PUSH2 0x43E7 JUMPI POP PUSH1 0x1 PUSH1 0x1 PUSH1 0xE0 SHL SUB NOT DUP3 AND PUSH4 0x5B5E139F PUSH1 0xE0 SHL EQ JUMPDEST DUP1 PUSH2 0x109B JUMPI POP PUSH4 0x1FFC9A7 PUSH1 0xE0 SHL PUSH1 0x1 PUSH1 0x1 PUSH1 0xE0 SHL SUB NOT DUP4 AND EQ PUSH2 0x109B JUMP JUMPDEST PUSH0 DUP1 PUSH2 0x4413 DUP6 DUP6 DUP6 PUSH2 0x470A JUMP JUMPDEST SWAP1 POP PUSH1 0x1 PUSH1 0x1 PUSH1 0xA0 SHL SUB DUP2 AND PUSH2 0x449A JUMPI PUSH2 0x4495 DUP5 PUSH0 DUP1 MLOAD PUSH1 0x20 PUSH2 0x5E65 DUP4 CODECOPY DUP2 MLOAD SWAP2 MSTORE DUP1 SLOAD PUSH0 DUP4 DUP2 MSTORE PUSH32 0x645E039705490088DAAD89BAE25049A34F4A9072D398537B1AB2425F24CBED03 PUSH1 0x20 MSTORE PUSH1 0x40 DUP2 KECCAK256 DUP3 SWAP1 SSTORE PUSH1 0x1 DUP3 ADD DUP4 SSTORE SWAP2 SWAP1 SWAP2 MSTORE PUSH32 0xA42F15E5D656F8155FD7419D740A6073999F19CD6E061449CE4A257150545BF2 ADD SSTORE JUMP JUMPDEST PUSH2 0x44BD JUMP JUMPDEST DUP5 PUSH1 0x1 PUSH1 0x1 PUSH1 0xA0 SHL SUB AND DUP2 PUSH1 0x1 PUSH1 0x1 PUSH1 0xA0 SHL SUB AND EQ PUSH2 0x44BD JUMPI PUSH2 0x44BD DUP2 DUP6 PUSH2 0x480C JUMP JUMPDEST PUSH1 0x1 PUSH1 0x1 PUSH1 0xA0 SHL SUB DUP6 AND PUSH2 0x44D9 JUMPI PUSH2 0x44D4 DUP5 PUSH2 0x48AB JUMP JUMPDEST PUSH2 0x3859 JUMP JUMPDEST DUP5 PUSH1 0x1 PUSH1 0x1 PUSH1 0xA0 SHL SUB AND DUP2 PUSH1 0x1 PUSH1 0x1 PUSH1 0xA0 SHL SUB AND EQ PUSH2 0x3859 JUMPI PUSH2 0x3859 DUP6 DUP6 PUSH2 0x4978 JUMP JUMPDEST PUSH1 0x60 PUSH32 0x92FD13387C7FE7BEFBC38D303D6468778FB9731BC4583F17D92989C6FCFDEAAA DUP3 PUSH1 0x40 MLOAD PUSH1 0x24 ADD PUSH2 0x4535 SWAP2 MLOAD ISZERO ISZERO DUP2 MSTORE PUSH1 0x20 ADD SWAP1 JUMP JUMPDEST PUSH1 0x40 DUP1 MLOAD PUSH1 0x1F NOT DUP2 DUP5 SUB ADD DUP2 MSTORE SWAP2 SWAP1 MSTORE PUSH1 0x20 DUP2 ADD DUP1 MLOAD PUSH1 0x1 PUSH1 0x1 PUSH1 0xE0 SHL SUB AND PUSH1 0x1 PUSH1 0x1 PUSH1 0xE0 SHL SUB NOT SWAP1 SWAP4 AND SWAP3 SWAP1 SWAP3 OR SWAP1 SWAP2 MSTORE SWAP3 SWAP2 POP POP JUMP JUMPDEST DUP1 PUSH1 0x1 PUSH1 0x1 PUSH1 0xA0 SHL SUB AND EXTCODESIZE PUSH0 SUB PUSH2 0x45A2 JUMPI PUSH1 0x40 MLOAD PUSH4 0x4C9C8CE3 PUSH1 0xE0 SHL DUP2 MSTORE PUSH1 0x1 PUSH1 0x1 PUSH1 0xA0 SHL SUB DUP3 AND PUSH1 0x4 DUP3 ADD MSTORE PUSH1 0x24 ADD PUSH2 0x1189 JUMP JUMPDEST PUSH0 DUP1 MLOAD PUSH1 0x20 PUSH2 0x5E45 DUP4 CODECOPY DUP2 MLOAD SWAP2 MSTORE DUP1 SLOAD PUSH1 0x1 PUSH1 0x1 PUSH1 0xA0 SHL SUB NOT AND PUSH1 0x1 PUSH1 0x1 PUSH1 0xA0 SHL SUB SWAP3 SWAP1 SWAP3 AND SWAP2 SWAP1 SWAP2 OR SWAP1 SSTORE JUMP JUMPDEST PUSH1 0x60 PUSH0 DUP1 DUP5 PUSH1 0x1 PUSH1 0x1 PUSH1 0xA0 SHL SUB AND DUP5 PUSH1 0x40 MLOAD PUSH2 0x45EC SWAP2 SWAP1 PUSH2 0x5DD5 JUMP JUMPDEST PUSH0 PUSH1 0x40 MLOAD DUP1 DUP4 SUB DUP2 DUP6 GAS DELEGATECALL SWAP2 POP POP RETURNDATASIZE DUP1 PUSH0 DUP2 EQ PUSH2 0x4624 JUMPI PUSH1 0x40 MLOAD SWAP2 POP PUSH1 0x1F NOT PUSH1 0x3F RETURNDATASIZE ADD AND DUP3 ADD PUSH1 0x40 MSTORE RETURNDATASIZE DUP3 MSTORE RETURNDATASIZE PUSH0 PUSH1 0x20 DUP5 ADD RETURNDATACOPY PUSH2 0x4629 JUMP JUMPDEST PUSH1 0x60 SWAP2 POP JUMPDEST POP SWAP2 POP SWAP2 POP PUSH2 0x37A5 DUP6 DUP4 DUP4 PUSH2 0x49D0 JUMP JUMPDEST CALLVALUE ISZERO PUSH2 0x1CFD JUMPI PUSH1 0x40 MLOAD PUSH4 0xB398979F PUSH1 0xE0 SHL DUP2 MSTORE PUSH1 0x4 ADD PUSH1 0x40 MLOAD DUP1 SWAP2 SUB SWAP1 REVERT JUMPDEST PUSH2 0x4662 DUP4 DUP4 PUSH2 0x4A2C JUMP JUMPDEST PUSH2 0x1DD9 PUSH0 DUP5 DUP5 DUP5 PUSH2 0x3C30 JUMP JUMPDEST PUSH1 0x60 PUSH2 0x11FE DUP4 DUP4 PUSH0 PUSH2 0x4A8D JUMP JUMPDEST PUSH1 0x60 PUSH0 PUSH2 0x4687 DUP4 PUSH2 0x4B26 JUMP JUMPDEST PUSH1 0x1 ADD SWAP1 POP PUSH0 DUP2 PUSH1 0x1 PUSH1 0x1 PUSH1 0x40 SHL SUB DUP2 GT ISZERO PUSH2 0x46A5 JUMPI PUSH2 0x46A5 PUSH2 0x4EC1 JUMP JUMPDEST PUSH1 0x40 MLOAD SWAP1 DUP1 DUP3 MSTORE DUP1 PUSH1 0x1F ADD PUSH1 0x1F NOT AND PUSH1 0x20 ADD DUP3 ADD PUSH1 0x40 MSTORE DUP1 ISZERO PUSH2 0x46CF JUMPI PUSH1 0x20 DUP3 ADD DUP2 DUP1 CALLDATASIZE DUP4 CALLDATACOPY ADD SWAP1 POP JUMPDEST POP SWAP1 POP DUP2 DUP2 ADD PUSH1 0x20 ADD JUMPDEST PUSH0 NOT ADD PUSH16 0x181899199A1A9B1B9C1CB0B131B232B3 PUSH1 0x81 SHL PUSH1 0xA DUP7 MOD BYTE DUP2 MSTORE8 PUSH1 0xA DUP6 DIV SWAP5 POP DUP5 PUSH2 0x46D9 JUMPI POP SWAP4 SWAP3 POP POP POP JUMP JUMPDEST PUSH0 PUSH0 DUP1 MLOAD PUSH1 0x20 PUSH2 0x5E25 DUP4 CODECOPY DUP2 MLOAD SWAP2 MSTORE DUP2 PUSH2 0x4723 DUP6 PUSH2 0x3E99 JUMP JUMPDEST SWAP1 POP PUSH1 0x1 PUSH1 0x1 PUSH1 0xA0 SHL SUB DUP5 AND ISZERO PUSH2 0x473F JUMPI PUSH2 0x473F DUP2 DUP6 DUP8 PUSH2 0x4BFD JUMP JUMPDEST PUSH1 0x1 PUSH1 0x1 PUSH1 0xA0 SHL SUB DUP2 AND ISZERO PUSH2 0x477B JUMPI PUSH2 0x475A PUSH0 DUP7 PUSH0 DUP1 PUSH2 0x3ED2 JUMP JUMPDEST PUSH1 0x1 PUSH1 0x1 PUSH1 0xA0 SHL SUB DUP2 AND PUSH0 SWAP1 DUP2 MSTORE PUSH1 0x3 DUP4 ADD PUSH1 0x20 MSTORE PUSH1 0x40 SWAP1 KECCAK256 DUP1 SLOAD PUSH0 NOT ADD SWAP1 SSTORE JUMPDEST PUSH1 0x1 PUSH1 0x1 PUSH1 0xA0 SHL SUB DUP7 AND ISZERO PUSH2 0x47AB JUMPI PUSH1 0x1 PUSH1 0x1 PUSH1 0xA0 SHL SUB DUP7 AND PUSH0 SWAP1 DUP2 MSTORE PUSH1 0x3 DUP4 ADD PUSH1 0x20 MSTORE PUSH1 0x40 SWAP1 KECCAK256 DUP1 SLOAD PUSH1 0x1 ADD SWAP1 SSTORE JUMPDEST PUSH0 DUP6 DUP2 MSTORE PUSH1 0x2 DUP4 ADD PUSH1 0x20 MSTORE PUSH1 0x40 DUP1 DUP3 KECCAK256 DUP1 SLOAD PUSH1 0x1 PUSH1 0x1 PUSH1 0xA0 SHL SUB NOT AND PUSH1 0x1 PUSH1 0x1 PUSH1 0xA0 SHL SUB DUP11 DUP2 AND SWAP2 DUP3 OR SWAP1 SWAP3 SSTORE SWAP2 MLOAD DUP9 SWAP4 SWAP2 DUP6 AND SWAP2 PUSH32 0xDDF252AD1BE2C89B69C2B068FC378DAA952BA7F163C4A11628F55A4DF523B3EF SWAP2 LOG4 SWAP6 SWAP5 POP POP POP POP POP JUMP JUMPDEST PUSH0 DUP1 MLOAD PUSH1 0x20 PUSH2 0x5E05 DUP4 CODECOPY DUP2 MLOAD SWAP2 MSTORE PUSH0 PUSH2 0x4824 DUP5 PUSH2 0x27FE JUMP JUMPDEST PUSH0 DUP5 DUP2 MSTORE PUSH1 0x1 DUP5 ADD PUSH1 0x20 MSTORE PUSH1 0x40 SWAP1 KECCAK256 SLOAD SWAP1 SWAP2 POP DUP1 DUP3 EQ PUSH2 0x4877 JUMPI PUSH1 0x1 PUSH1 0x1 PUSH1 0xA0 SHL SUB DUP6 AND PUSH0 SWAP1 DUP2 MSTORE PUSH1 0x20 DUP5 DUP2 MSTORE PUSH1 0x40 DUP1 DUP4 KECCAK256 DUP6 DUP5 MSTORE DUP3 MSTORE DUP1 DUP4 KECCAK256 SLOAD DUP5 DUP5 MSTORE DUP2 DUP5 KECCAK256 DUP2 SWAP1 SSTORE DUP4 MSTORE PUSH1 0x1 DUP7 ADD SWAP1 SWAP2 MSTORE SWAP1 KECCAK256 DUP2 SWAP1 SSTORE JUMPDEST POP PUSH0 SWAP3 DUP4 MSTORE PUSH1 0x1 DUP3 ADD PUSH1 0x20 SWAP1 DUP2 MSTORE PUSH1 0x40 DUP1 DUP6 KECCAK256 DUP6 SWAP1 SSTORE PUSH1 0x1 PUSH1 0x1 PUSH1 0xA0 SHL SUB SWAP1 SWAP6 AND DUP5 MSTORE SWAP2 DUP3 MSTORE DUP4 DUP4 KECCAK256 SWAP1 DUP4 MSTORE SWAP1 MSTORE SWAP1 DUP2 KECCAK256 SSTORE JUMP JUMPDEST PUSH0 DUP1 MLOAD PUSH1 0x20 PUSH2 0x5E65 DUP4 CODECOPY DUP2 MLOAD SWAP2 MSTORE SLOAD PUSH0 DUP1 MLOAD PUSH1 0x20 PUSH2 0x5E05 DUP4 CODECOPY DUP2 MLOAD SWAP2 MSTORE SWAP1 PUSH0 SWAP1 PUSH2 0x48D7 SWAP1 PUSH1 0x1 SWAP1 PUSH2 0x538D JUMP JUMPDEST PUSH0 DUP5 DUP2 MSTORE PUSH1 0x3 DUP5 ADD PUSH1 0x20 MSTORE PUSH1 0x40 DUP2 KECCAK256 SLOAD PUSH1 0x2 DUP6 ADD DUP1 SLOAD SWAP4 SWAP5 POP SWAP1 SWAP3 DUP5 SWAP1 DUP2 LT PUSH2 0x4902 JUMPI PUSH2 0x4902 PUSH2 0x585D JUMP JUMPDEST SWAP1 PUSH0 MSTORE PUSH1 0x20 PUSH0 KECCAK256 ADD SLOAD SWAP1 POP DUP1 DUP5 PUSH1 0x2 ADD DUP4 DUP2 SLOAD DUP2 LT PUSH2 0x4923 JUMPI PUSH2 0x4923 PUSH2 0x585D JUMP JUMPDEST PUSH0 SWAP2 DUP3 MSTORE PUSH1 0x20 DUP1 DUP4 KECCAK256 SWAP1 SWAP2 ADD SWAP3 SWAP1 SWAP3 SSTORE DUP3 DUP2 MSTORE PUSH1 0x3 DUP7 ADD SWAP1 SWAP2 MSTORE PUSH1 0x40 DUP1 DUP3 KECCAK256 DUP5 SWAP1 SSTORE DUP7 DUP3 MSTORE DUP2 KECCAK256 SSTORE PUSH1 0x2 DUP5 ADD DUP1 SLOAD DUP1 PUSH2 0x495E JUMPI PUSH2 0x495E PUSH2 0x5DF0 JUMP JUMPDEST PUSH1 0x1 SWAP1 SUB DUP2 DUP2 SWAP1 PUSH0 MSTORE PUSH1 0x20 PUSH0 KECCAK256 ADD PUSH0 SWAP1 SSTORE SWAP1 SSTORE POP POP POP POP POP JUMP JUMPDEST PUSH0 DUP1 MLOAD PUSH1 0x20 PUSH2 0x5E05 DUP4 CODECOPY DUP2 MLOAD SWAP2 MSTORE PUSH0 PUSH1 0x1 PUSH2 0x4992 DUP6 PUSH2 0x27FE JUMP JUMPDEST PUSH2 0x499C SWAP2 SWAP1 PUSH2 0x538D JUMP JUMPDEST PUSH1 0x1 PUSH1 0x1 PUSH1 0xA0 SHL SUB SWAP1 SWAP5 AND PUSH0 SWAP1 DUP2 MSTORE PUSH1 0x20 DUP4 DUP2 MSTORE PUSH1 0x40 DUP1 DUP4 KECCAK256 DUP8 DUP5 MSTORE DUP3 MSTORE DUP1 DUP4 KECCAK256 DUP7 SWAP1 SSTORE SWAP5 DUP3 MSTORE PUSH1 0x1 SWAP1 SWAP4 ADD SWAP1 SWAP3 MSTORE POP KECCAK256 SSTORE JUMP JUMPDEST PUSH1 0x60 DUP3 PUSH2 0x49E5 JUMPI PUSH2 0x49E0 DUP3 PUSH2 0x4C61 JUMP JUMPDEST PUSH2 0x11FE JUMP JUMPDEST DUP2 MLOAD ISZERO DUP1 ISZERO PUSH2 0x49FC JUMPI POP PUSH1 0x1 PUSH1 0x1 PUSH1 0xA0 SHL SUB DUP5 AND EXTCODESIZE ISZERO JUMPDEST ISZERO PUSH2 0x4A25 JUMPI PUSH1 0x40 MLOAD PUSH4 0x9996B315 PUSH1 0xE0 SHL DUP2 MSTORE PUSH1 0x1 PUSH1 0x1 PUSH1 0xA0 SHL SUB DUP6 AND PUSH1 0x4 DUP3 ADD MSTORE PUSH1 0x24 ADD PUSH2 0x1189 JUMP JUMPDEST POP DUP1 PUSH2 0x11FE JUMP JUMPDEST PUSH1 0x1 PUSH1 0x1 PUSH1 0xA0 SHL SUB DUP3 AND PUSH2 0x4A55 JUMPI PUSH1 0x40 MLOAD PUSH4 0x32505749 PUSH1 0xE1 SHL DUP2 MSTORE PUSH0 PUSH1 0x4 DUP3 ADD MSTORE PUSH1 0x24 ADD PUSH2 0x1189 JUMP JUMPDEST PUSH0 PUSH2 0x4A61 DUP4 DUP4 PUSH0 PUSH2 0x3615 JUMP JUMPDEST SWAP1 POP PUSH1 0x1 PUSH1 0x1 PUSH1 0xA0 SHL SUB DUP2 AND ISZERO PUSH2 0x1DD9 JUMPI PUSH1 0x40 MLOAD PUSH4 0x39E35637 PUSH1 0xE1 SHL DUP2 MSTORE PUSH0 PUSH1 0x4 DUP3 ADD MSTORE PUSH1 0x24 ADD PUSH2 0x1189 JUMP JUMPDEST PUSH1 0x60 DUP2 SELFBALANCE LT ISZERO PUSH2 0x4AB2 JUMPI PUSH1 0x40 MLOAD PUSH4 0xCD786059 PUSH1 0xE0 SHL DUP2 MSTORE ADDRESS PUSH1 0x4 DUP3 ADD MSTORE PUSH1 0x24 ADD PUSH2 0x1189 JUMP JUMPDEST PUSH0 DUP1 DUP6 PUSH1 0x1 PUSH1 0x1 PUSH1 0xA0 SHL SUB AND DUP5 DUP7 PUSH1 0x40 MLOAD PUSH2 0x4ACD SWAP2 SWAP1 PUSH2 0x5DD5 JUMP JUMPDEST PUSH0 PUSH1 0x40 MLOAD DUP1 DUP4 SUB DUP2 DUP6 DUP8 GAS CALL SWAP3 POP POP POP RETURNDATASIZE DUP1 PUSH0 DUP2 EQ PUSH2 0x4B07 JUMPI PUSH1 0x40 MLOAD SWAP2 POP PUSH1 0x1F NOT PUSH1 0x3F RETURNDATASIZE ADD AND DUP3 ADD PUSH1 0x40 MSTORE RETURNDATASIZE DUP3 MSTORE RETURNDATASIZE PUSH0 PUSH1 0x20 DUP5 ADD RETURNDATACOPY PUSH2 0x4B0C JUMP JUMPDEST PUSH1 0x60 SWAP2 POP JUMPDEST POP SWAP2 POP SWAP2 POP PUSH2 0x4B1C DUP7 DUP4 DUP4 PUSH2 0x4C8A JUMP JUMPDEST SWAP7 SWAP6 POP POP POP POP POP POP JUMP JUMPDEST PUSH0 DUP1 PUSH19 0x184F03E93FF9F4DAA797ED6E38ED64BF6A1F01 PUSH1 0x40 SHL DUP4 LT PUSH2 0x4B64 JUMPI PUSH19 0x184F03E93FF9F4DAA797ED6E38ED64BF6A1F01 PUSH1 0x40 SHL DUP4 DIV SWAP3 POP PUSH1 0x40 ADD JUMPDEST PUSH14 0x4EE2D6D415B85ACEF8100000000 DUP4 LT PUSH2 0x4B90 JUMPI PUSH14 0x4EE2D6D415B85ACEF8100000000 DUP4 DIV SWAP3 POP PUSH1 0x20 ADD JUMPDEST PUSH7 0x2386F26FC10000 DUP4 LT PUSH2 0x4BAE JUMPI PUSH7 0x2386F26FC10000 DUP4 DIV SWAP3 POP PUSH1 0x10 ADD JUMPDEST PUSH4 0x5F5E100 DUP4 LT PUSH2 0x4BC6 JUMPI PUSH4 0x5F5E100 DUP4 DIV SWAP3 POP PUSH1 0x8 ADD JUMPDEST PUSH2 0x2710 DUP4 LT PUSH2 0x4BDA JUMPI PUSH2 0x2710 DUP4 DIV SWAP3 POP PUSH1 0x4 ADD JUMPDEST PUSH1 0x64 DUP4 LT PUSH2 0x4BEC JUMPI PUSH1 0x64 DUP4 DIV SWAP3 POP PUSH1 0x2 ADD JUMPDEST PUSH1 0xA DUP4 LT PUSH2 0x109B JUMPI PUSH1 0x1 ADD SWAP3 SWAP2 POP POP JUMP JUMPDEST PUSH2 0x4C08 DUP4 DUP4 DUP4 PUSH2 0x4C9A JUMP JUMPDEST PUSH2 0x1DD9 JUMPI PUSH1 0x1 PUSH1 0x1 PUSH1 0xA0 SHL SUB DUP4 AND PUSH2 0x4C36 JUMPI PUSH1 0x40 MLOAD PUSH4 0x7E273289 PUSH1 0xE0 SHL DUP2 MSTORE PUSH1 0x4 DUP2 ADD DUP3 SWAP1 MSTORE PUSH1 0x24 ADD PUSH2 0x1189 JUMP JUMPDEST PUSH1 0x40 MLOAD PUSH4 0x177E802F PUSH1 0xE0 SHL DUP2 MSTORE PUSH1 0x1 PUSH1 0x1 PUSH1 0xA0 SHL SUB DUP4 AND PUSH1 0x4 DUP3 ADD MSTORE PUSH1 0x24 DUP2 ADD DUP3 SWAP1 MSTORE PUSH1 0x44 ADD PUSH2 0x1189 JUMP JUMPDEST DUP1 MLOAD ISZERO PUSH2 0x4C71 JUMPI DUP1 MLOAD DUP1 DUP3 PUSH1 0x20 ADD REVERT JUMPDEST PUSH1 0x40 MLOAD PUSH4 0xD6BDA275 PUSH1 0xE0 SHL DUP2 MSTORE PUSH1 0x4 ADD PUSH1 0x40 MLOAD DUP1 SWAP2 SUB SWAP1 REVERT JUMPDEST PUSH1 0x60 DUP3 PUSH2 0x49E5 JUMPI PUSH2 0x49E0 DUP3 PUSH2 0x4CFE JUMP JUMPDEST PUSH0 PUSH1 0x1 PUSH1 0x1 PUSH1 0xA0 SHL SUB DUP4 AND ISZERO DUP1 ISZERO SWAP1 PUSH2 0x3859 JUMPI POP DUP3 PUSH1 0x1 PUSH1 0x1 PUSH1 0xA0 SHL SUB AND DUP5 PUSH1 0x1 PUSH1 0x1 PUSH1 0xA0 SHL SUB AND EQ DUP1 PUSH2 0x4CD3 JUMPI POP PUSH2 0x4CD3 DUP5 DUP5 PUSH2 0x3325 JUMP JUMPDEST DUP1 PUSH2 0x3859 JUMPI POP DUP3 PUSH1 0x1 PUSH1 0x1 PUSH1 0xA0 SHL SUB AND PUSH2 0x4CEC DUP4 PUSH2 0x3492 JUMP JUMPDEST PUSH1 0x1 PUSH1 0x1 PUSH1 0xA0 SHL SUB AND EQ SWAP5 SWAP4 POP POP POP POP JUMP JUMPDEST DUP1 MLOAD ISZERO PUSH2 0x4D0E JUMPI DUP1 MLOAD DUP1 DUP3 PUSH1 0x20 ADD REVERT JUMPDEST PUSH1 0x40 MLOAD PUSH4 0xA12F521 PUSH1 0xE1 SHL DUP2 MSTORE PUSH1 0x4 ADD PUSH1 0x40 MLOAD DUP1 SWAP2 SUB SWAP1 REVERT JUMPDEST POP DUP1 SLOAD PUSH0 DUP3 SSTORE SWAP1 PUSH0 MSTORE PUSH1 0x20 PUSH0 KECCAK256 SWAP1 DUP2 ADD SWAP1 PUSH2 0x1CEA SWAP2 SWAP1 PUSH2 0x4D8B JUMP JUMPDEST DUP3 DUP1 SLOAD DUP3 DUP3 SSTORE SWAP1 PUSH0 MSTORE PUSH1 0x20 PUSH0 KECCAK256 SWAP1 DUP2 ADD SWAP3 DUP3 ISZERO PUSH2 0x4D7B JUMPI SWAP2 PUSH1 0x20 MUL DUP3 ADD JUMPDEST DUP3 DUP2 GT ISZERO PUSH2 0x4D7B JUMPI DUP3 MLOAD DUP3 SSTORE SWAP2 PUSH1 0x20 ADD SWAP2 SWAP1 PUSH1 0x1 ADD SWAP1 PUSH2 0x4D60 JUMP JUMPDEST POP PUSH2 0x4D87 SWAP3 SWAP2 POP PUSH2 0x4D8B JUMP JUMPDEST POP SWAP1 JUMP JUMPDEST JUMPDEST DUP1 DUP3 GT ISZERO PUSH2 0x4D87 JUMPI PUSH0 DUP2 SSTORE PUSH1 0x1 ADD PUSH2 0x4D8C JUMP JUMPDEST PUSH1 0x1 PUSH1 0x1 PUSH1 0xE0 SHL SUB NOT DUP2 AND DUP2 EQ PUSH2 0x1CEA JUMPI PUSH0 DUP1 REVERT JUMPDEST PUSH0 PUSH1 0x20 DUP3 DUP5 SUB SLT ISZERO PUSH2 0x4DC4 JUMPI PUSH0 DUP1 REVERT JUMPDEST DUP2 CALLDATALOAD PUSH2 0x11FE DUP2 PUSH2 0x4D9F JUMP JUMPDEST PUSH0 JUMPDEST DUP4 DUP2 LT ISZERO PUSH2 0x4DE9 JUMPI DUP2 DUP2 ADD MLOAD DUP4 DUP3 ADD MSTORE PUSH1 0x20 ADD PUSH2 0x4DD1 JUMP JUMPDEST POP POP PUSH0 SWAP2 ADD MSTORE JUMP JUMPDEST PUSH0 DUP2 MLOAD DUP1 DUP5 MSTORE PUSH2 0x4E08 DUP2 PUSH1 0x20 DUP7 ADD PUSH1 0x20 DUP7 ADD PUSH2 0x4DCF JUMP JUMPDEST PUSH1 0x1F ADD PUSH1 0x1F NOT AND SWAP3 SWAP1 SWAP3 ADD PUSH1 0x20 ADD SWAP3 SWAP2 POP POP JUMP JUMPDEST PUSH1 0x20 DUP2 MSTORE PUSH0 PUSH2 0x11FE PUSH1 0x20 DUP4 ADD DUP5 PUSH2 0x4DF1 JUMP JUMPDEST PUSH0 PUSH1 0x20 DUP3 DUP5 SUB SLT ISZERO PUSH2 0x4E3E JUMPI PUSH0 DUP1 REVERT JUMPDEST POP CALLDATALOAD SWAP2 SWAP1 POP JUMP JUMPDEST DUP1 CALLDATALOAD PUSH1 0x1 PUSH1 0x1 PUSH1 0xA0 SHL SUB DUP2 AND DUP2 EQ PUSH2 0x4E5B JUMPI PUSH0 DUP1 REVERT JUMPDEST SWAP2 SWAP1 POP JUMP JUMPDEST PUSH0 PUSH1 0x20 DUP3 DUP5 SUB SLT ISZERO PUSH2 0x4E70 JUMPI PUSH0 DUP1 REVERT JUMPDEST PUSH2 0x11FE DUP3 PUSH2 0x4E45 JUMP JUMPDEST PUSH0 DUP1 PUSH1 0x40 DUP4 DUP6 SUB SLT ISZERO PUSH2 0x4E8A JUMPI PUSH0 DUP1 REVERT JUMPDEST PUSH2 0x4E93 DUP4 PUSH2 0x4E45 JUMP JUMPDEST SWAP5 PUSH1 0x20 SWAP4 SWAP1 SWAP4 ADD CALLDATALOAD SWAP4 POP POP POP JUMP JUMPDEST PUSH0 DUP1 PUSH1 0x40 DUP4 DUP6 SUB SLT ISZERO PUSH2 0x4EB2 JUMPI PUSH0 DUP1 REVERT JUMPDEST POP POP DUP1 CALLDATALOAD SWAP3 PUSH1 0x20 SWAP1 SWAP2 ADD CALLDATALOAD SWAP2 POP JUMP JUMPDEST PUSH4 0x4E487B71 PUSH1 0xE0 SHL PUSH0 MSTORE PUSH1 0x41 PUSH1 0x4 MSTORE PUSH1 0x24 PUSH0 REVERT JUMPDEST PUSH1 0x40 MLOAD PUSH1 0xE0 DUP2 ADD PUSH1 0x1 PUSH1 0x1 PUSH1 0x40 SHL SUB DUP2 GT DUP3 DUP3 LT OR ISZERO PUSH2 0x4EF7 JUMPI PUSH2 0x4EF7 PUSH2 0x4EC1 JUMP JUMPDEST PUSH1 0x40 MSTORE SWAP1 JUMP JUMPDEST PUSH1 0x40 MLOAD PUSH2 0x120 DUP2 ADD PUSH1 0x1 PUSH1 0x1 PUSH1 0x40 SHL SUB DUP2 GT DUP3 DUP3 LT OR ISZERO PUSH2 0x4EF7 JUMPI PUSH2 0x4EF7 PUSH2 0x4EC1 JUMP JUMPDEST PUSH1 0x40 MLOAD PUSH2 0x180 DUP2 ADD PUSH1 0x1 PUSH1 0x1 PUSH1 0x40 SHL SUB DUP2 GT DUP3 DUP3 LT OR ISZERO PUSH2 0x4EF7 JUMPI PUSH2 0x4EF7 PUSH2 0x4EC1 JUMP JUMPDEST PUSH1 0x40 MLOAD PUSH1 0x1F DUP3 ADD PUSH1 0x1F NOT AND DUP2 ADD PUSH1 0x1 PUSH1 0x1 PUSH1 0x40 SHL SUB DUP2 GT DUP3 DUP3 LT OR ISZERO PUSH2 0x4F6B JUMPI PUSH2 0x4F6B PUSH2 0x4EC1 JUMP JUMPDEST PUSH1 0x40 MSTORE SWAP2 SWAP1 POP JUMP JUMPDEST PUSH0 PUSH1 0x1 PUSH1 0x1 PUSH1 0x40 SHL SUB DUP3 GT ISZERO PUSH2 0x4F8B JUMPI PUSH2 0x4F8B PUSH2 0x4EC1 JUMP JUMPDEST POP PUSH1 0x1F ADD PUSH1 0x1F NOT AND PUSH1 0x20 ADD SWAP1 JUMP JUMPDEST PUSH0 PUSH2 0x4FAB PUSH2 0x4FA6 DUP5 PUSH2 0x4F73 JUMP JUMPDEST PUSH2 0x4F43 JUMP JUMPDEST SWAP1 POP DUP3 DUP2 MSTORE DUP4 DUP4 DUP4 ADD GT ISZERO PUSH2 0x4FBE JUMPI PUSH0 DUP1 REVERT JUMPDEST DUP3 DUP3 PUSH1 0x20 DUP4 ADD CALLDATACOPY PUSH0 PUSH1 0x20 DUP5 DUP4 ADD ADD MSTORE SWAP4 SWAP3 POP POP POP JUMP JUMPDEST PUSH0 DUP1 PUSH1 0x40 DUP4 DUP6 SUB SLT ISZERO PUSH2 0x4FE5 JUMPI PUSH0 DUP1 REVERT JUMPDEST DUP3 CALLDATALOAD SWAP2 POP PUSH1 0x20 DUP4 ADD CALLDATALOAD PUSH1 0x1 PUSH1 0x1 PUSH1 0x40 SHL SUB DUP2 GT ISZERO PUSH2 0x5001 JUMPI PUSH0 DUP1 REVERT JUMPDEST DUP4 ADD PUSH1 0x1F DUP2 ADD DUP6 SGT PUSH2 0x5011 JUMPI PUSH0 DUP1 REVERT JUMPDEST PUSH2 0x5020 DUP6 DUP3 CALLDATALOAD PUSH1 0x20 DUP5 ADD PUSH2 0x4F99 JUMP JUMPDEST SWAP2 POP POP SWAP3 POP SWAP3 SWAP1 POP JUMP JUMPDEST PUSH0 PUSH1 0x1 PUSH1 0x1 PUSH1 0x40 SHL SUB DUP3 GT ISZERO PUSH2 0x5042 JUMPI PUSH2 0x5042 PUSH2 0x4EC1 JUMP JUMPDEST POP PUSH1 0x5 SHL PUSH1 0x20 ADD SWAP1 JUMP JUMPDEST PUSH0 DUP1 PUSH1 0x40 DUP4 DUP6 SUB SLT ISZERO PUSH2 0x505D JUMPI PUSH0 DUP1 REVERT JUMPDEST DUP3 CALLDATALOAD SWAP2 POP PUSH1 0x20 DUP1 DUP5 ADD CALLDATALOAD PUSH1 0x1 PUSH1 0x1 PUSH1 0x40 SHL SUB DUP2 GT ISZERO PUSH2 0x507A JUMPI PUSH0 DUP1 REVERT JUMPDEST DUP5 ADD PUSH1 0x1F DUP2 ADD DUP7 SGT PUSH2 0x508A JUMPI PUSH0 DUP1 REVERT JUMPDEST DUP1 CALLDATALOAD PUSH2 0x5098 PUSH2 0x4FA6 DUP3 PUSH2 0x502A JUMP JUMPDEST DUP2 DUP2 MSTORE PUSH1 0x5 SWAP2 SWAP1 SWAP2 SHL DUP3 ADD DUP4 ADD SWAP1 DUP4 DUP2 ADD SWAP1 DUP9 DUP4 GT ISZERO PUSH2 0x50B6 JUMPI PUSH0 DUP1 REVERT JUMPDEST SWAP3 DUP5 ADD SWAP3 JUMPDEST DUP3 DUP5 LT ISZERO PUSH2 0x50D4 JUMPI DUP4 CALLDATALOAD DUP3 MSTORE SWAP3 DUP5 ADD SWAP3 SWAP1 DUP5 ADD SWAP1 PUSH2 0x50BB JUMP JUMPDEST DUP1 SWAP6 POP POP POP POP POP POP SWAP3 POP SWAP3 SWAP1 POP JUMP JUMPDEST PUSH0 DUP1 PUSH0 PUSH1 0x60 DUP5 DUP7 SUB SLT ISZERO PUSH2 0x50F5 JUMPI PUSH0 DUP1 REVERT JUMPDEST PUSH2 0x50FE DUP5 PUSH2 0x4E45 JUMP JUMPDEST SWAP3 POP PUSH2 0x510C PUSH1 0x20 DUP6 ADD PUSH2 0x4E45 JUMP JUMPDEST SWAP2 POP PUSH1 0x40 DUP5 ADD CALLDATALOAD SWAP1 POP SWAP3 POP SWAP3 POP SWAP3 JUMP JUMPDEST PUSH0 DUP1 PUSH0 PUSH1 0x60 DUP5 DUP7 SUB SLT ISZERO PUSH2 0x512E JUMPI PUSH0 DUP1 REVERT JUMPDEST PUSH2 0x5137 DUP5 PUSH2 0x4E45 JUMP JUMPDEST SWAP3 POP PUSH2 0x5145 PUSH1 0x20 DUP6 ADD PUSH2 0x4E45 JUMP JUMPDEST SWAP2 POP PUSH2 0x5153 PUSH1 0x40 DUP6 ADD PUSH2 0x4E45 JUMP JUMPDEST SWAP1 POP SWAP3 POP SWAP3 POP SWAP3 JUMP JUMPDEST PUSH0 DUP2 MLOAD DUP1 DUP5 MSTORE PUSH1 0x20 DUP1 DUP6 ADD SWAP5 POP PUSH1 0x20 DUP5 ADD PUSH0 JUMPDEST DUP4 DUP2 LT ISZERO PUSH2 0x518B JUMPI DUP2 MLOAD DUP8 MSTORE SWAP6 DUP3 ADD SWAP6 SWAP1 DUP3 ADD SWAP1 PUSH1 0x1 ADD PUSH2 0x516F JUMP JUMPDEST POP SWAP5 SWAP6 SWAP5 POP POP POP POP POP JUMP JUMPDEST DUP3 DUP2 MSTORE PUSH1 0x40 PUSH1 0x20 DUP3 ADD MSTORE PUSH0 PUSH2 0x3859 PUSH1 0x40 DUP4 ADD DUP5 PUSH2 0x515C JUMP JUMPDEST PUSH0 DUP3 PUSH1 0x1F DUP4 ADD SLT PUSH2 0x51BD JUMPI PUSH0 DUP1 REVERT JUMPDEST PUSH2 0x11FE DUP4 DUP4 CALLDATALOAD PUSH1 0x20 DUP6 ADD PUSH2 0x4F99 JUMP JUMPDEST PUSH0 DUP1 PUSH1 0x40 DUP4 DUP6 SUB SLT ISZERO PUSH2 0x51DD JUMPI PUSH0 DUP1 REVERT JUMPDEST PUSH2 0x51E6 DUP4 PUSH2 0x4E45 JUMP JUMPDEST SWAP2 POP PUSH1 0x20 DUP4 ADD CALLDATALOAD PUSH1 0x1 PUSH1 0x1 PUSH1 0x40 SHL SUB DUP2 GT ISZERO PUSH2 0x5200 JUMPI PUSH0 DUP1 REVERT JUMPDEST PUSH2 0x5020 DUP6 DUP3 DUP7 ADD PUSH2 0x51AE JUMP JUMPDEST PUSH0 PUSH1 0x20 DUP3 DUP5 SUB SLT ISZERO PUSH2 0x521C JUMPI PUSH0 DUP1 REVERT JUMPDEST DUP2 CALLDATALOAD PUSH4 0xFFFFFFFF DUP2 AND DUP2 EQ PUSH2 0x11FE JUMPI PUSH0 DUP1 REVERT JUMPDEST DUP1 ISZERO ISZERO DUP2 EQ PUSH2 0x1CEA JUMPI PUSH0 DUP1 REVERT JUMPDEST PUSH0 DUP1 PUSH1 0x40 DUP4 DUP6 SUB SLT ISZERO PUSH2 0x524D JUMPI PUSH0 DUP1 REVERT JUMPDEST PUSH2 0x5256 DUP4 PUSH2 0x4E45 JUMP JUMPDEST SWAP2 POP PUSH1 0x20 DUP4 ADD CALLDATALOAD PUSH2 0x5266 DUP2 PUSH2 0x522F JUMP JUMPDEST DUP1 SWAP2 POP POP SWAP3 POP SWAP3 SWAP1 POP JUMP JUMPDEST PUSH0 PUSH1 0x20 DUP3 DUP5 SUB SLT ISZERO PUSH2 0x5281 JUMPI PUSH0 DUP1 REVERT JUMPDEST DUP2 CALLDATALOAD PUSH2 0x11FE DUP2 PUSH2 0x522F JUMP JUMPDEST PUSH0 DUP1 PUSH0 DUP1 PUSH1 0x80 DUP6 DUP8 SUB SLT ISZERO PUSH2 0x529F JUMPI PUSH0 DUP1 REVERT JUMPDEST PUSH2 0x52A8 DUP6 PUSH2 0x4E45 JUMP JUMPDEST SWAP4 POP PUSH2 0x52B6 PUSH1 0x20 DUP7 ADD PUSH2 0x4E45 JUMP JUMPDEST SWAP3 POP PUSH1 0x40 DUP6 ADD CALLDATALOAD SWAP2 POP PUSH1 0x60 DUP6 ADD CALLDATALOAD PUSH1 0x1 PUSH1 0x1 PUSH1 0x40 SHL SUB DUP2 GT ISZERO PUSH2 0x52D7 JUMPI PUSH0 DUP1 REVERT JUMPDEST PUSH2 0x52E3 DUP8 DUP3 DUP9 ADD PUSH2 0x51AE JUMP JUMPDEST SWAP2 POP POP SWAP3 SWAP6 SWAP2 SWAP5 POP SWAP3 POP JUMP JUMPDEST PUSH0 DUP1 PUSH1 0x40 DUP4 DUP6 SUB SLT ISZERO PUSH2 0x5300 JUMPI PUSH0 DUP1 REVERT JUMPDEST PUSH2 0x5309 DUP4 PUSH2 0x4E45 JUMP JUMPDEST SWAP2 POP PUSH2 0x5317 PUSH1 0x20 DUP5 ADD PUSH2 0x4E45 JUMP JUMPDEST SWAP1 POP SWAP3 POP SWAP3 SWAP1 POP JUMP JUMPDEST PUSH0 PUSH1 0x20 DUP3 DUP5 SUB SLT ISZERO PUSH2 0x5330 JUMPI PUSH0 DUP1 REVERT JUMPDEST DUP2 CALLDATALOAD PUSH2 0xFFFF DUP2 AND DUP2 EQ PUSH2 0x11FE JUMPI PUSH0 DUP1 REVERT JUMPDEST PUSH1 0x1 DUP2 DUP2 SHR SWAP1 DUP3 AND DUP1 PUSH2 0x5355 JUMPI PUSH1 0x7F DUP3 AND SWAP2 POP JUMPDEST PUSH1 0x20 DUP3 LT DUP2 SUB PUSH2 0x5373 JUMPI PUSH4 0x4E487B71 PUSH1 0xE0 SHL PUSH0 MSTORE PUSH1 0x22 PUSH1 0x4 MSTORE PUSH1 0x24 PUSH0 REVERT JUMPDEST POP SWAP2 SWAP1 POP JUMP JUMPDEST PUSH4 0x4E487B71 PUSH1 0xE0 SHL PUSH0 MSTORE PUSH1 0x11 PUSH1 0x4 MSTORE PUSH1 0x24 PUSH0 REVERT JUMPDEST DUP2 DUP2 SUB DUP2 DUP2 GT ISZERO PUSH2 0x109B JUMPI PUSH2 0x109B PUSH2 0x5379 JUMP JUMPDEST PUSH4 0x4E487B71 PUSH1 0xE0 SHL PUSH0 MSTORE PUSH1 0x12 PUSH1 0x4 MSTORE PUSH1 0x24 PUSH0 REVERT JUMPDEST PUSH0 DUP3 PUSH2 0x53C2 JUMPI PUSH2 0x53C2 PUSH2 0x53A0 JUMP JUMPDEST POP DIV SWAP1 JUMP JUMPDEST PUSH0 PUSH1 0xE0 DUP3 DUP5 SUB SLT ISZERO PUSH2 0x53D7 JUMPI PUSH0 DUP1 REVERT JUMPDEST PUSH2 0x53DF PUSH2 0x4ED5 JUMP JUMPDEST SWAP1 POP DUP2 MLOAD DUP2 MSTORE PUSH1 0x20 DUP3 ADD MLOAD PUSH1 0x20 DUP3 ADD MSTORE PUSH1 0x40 DUP3 ADD MLOAD PUSH1 0x40 DUP3 ADD MSTORE PUSH1 0x60 DUP3 ADD MLOAD PUSH1 0x60 DUP3 ADD MSTORE PUSH1 0x80 DUP3 ADD MLOAD PUSH1 0x80 DUP3 ADD MSTORE PUSH1 0xA0 DUP3 ADD MLOAD PUSH1 0xA0 DUP3 ADD MSTORE PUSH1 0xC0 DUP3 ADD MLOAD PUSH1 0xC0 DUP3 ADD MSTORE SWAP3 SWAP2 POP POP JUMP JUMPDEST PUSH0 PUSH1 0xE0 DUP3 DUP5 SUB SLT ISZERO PUSH2 0x5437 JUMPI PUSH0 DUP1 REVERT JUMPDEST PUSH2 0x11FE DUP4 DUP4 PUSH2 0x53C7 JUMP JUMPDEST PUSH0 PUSH2 0x120 DUP3 DUP5 SUB SLT ISZERO PUSH2 0x5452 JUMPI PUSH0 DUP1 REVERT JUMPDEST PUSH2 0x545A PUSH2 0x4EFD JUMP JUMPDEST SWAP1 POP DUP2 MLOAD DUP2 MSTORE PUSH1 0x20 DUP3 ADD MLOAD PUSH1 0x20 DUP3 ADD MSTORE PUSH1 0x40 DUP3 ADD MLOAD PUSH1 0x40 DUP3 ADD MSTORE PUSH1 0x60 DUP3 ADD MLOAD PUSH1 0x60 DUP3 ADD MSTORE PUSH1 0x80 DUP3 ADD MLOAD PUSH1 0x80 DUP3 ADD MSTORE PUSH1 0xA0 DUP3 ADD MLOAD PUSH1 0xA0 DUP3 ADD MSTORE PUSH1 0xC0 DUP3 ADD MLOAD PUSH1 0xC0 DUP3 ADD MSTORE PUSH1 0xE0 DUP3 ADD MLOAD PUSH1 0xE0 DUP3 ADD MSTORE PUSH2 0x100 DUP1 DUP4 ADD MLOAD DUP2 DUP4 ADD MSTORE POP SWAP3 SWAP2 POP POP JUMP JUMPDEST PUSH0 PUSH2 0x120 DUP3 DUP5 SUB SLT ISZERO PUSH2 0x54C9 JUMPI PUSH0 DUP1 REVERT JUMPDEST PUSH2 0x11FE DUP4 DUP4 PUSH2 0x5441 JUMP JUMPDEST DUP1 MLOAD DUP3 MSTORE PUSH1 0x20 DUP2 ADD MLOAD PUSH1 0x20 DUP4 ADD MSTORE PUSH1 0x40 DUP2 ADD MLOAD PUSH1 0x40 DUP4 ADD MSTORE PUSH1 0x60 DUP2 ADD MLOAD PUSH1 0x60 DUP4 ADD MSTORE PUSH1 0x80 DUP2 ADD MLOAD PUSH1 0x80 DUP4 ADD MSTORE PUSH1 0xA0 DUP2 ADD MLOAD PUSH1 0xA0 DUP4 ADD MSTORE PUSH1 0xC0 DUP2 ADD MLOAD PUSH1 0xC0 DUP4 ADD MSTORE POP POP JUMP JUMPDEST DUP1 MLOAD DUP3 MSTORE PUSH1 0x20 DUP2 ADD MLOAD PUSH1 0x20 DUP4 ADD MSTORE PUSH1 0x40 DUP2 ADD MLOAD PUSH1 0x40 DUP4 ADD MSTORE PUSH1 0x60 DUP2 ADD MLOAD PUSH1 0x60 DUP4 ADD MSTORE PUSH1 0x80 DUP2 ADD MLOAD PUSH1 0x80 DUP4 ADD MSTORE PUSH1 0xA0 DUP2 ADD MLOAD PUSH1 0xA0 DUP4 ADD MSTORE PUSH1 0xC0 DUP2 ADD MLOAD PUSH1 0xC0 DUP4 ADD MSTORE PUSH1 0xE0 DUP2 ADD MLOAD PUSH1 0xE0 DUP4 ADD MSTORE PUSH2 0x100 DUP1 DUP3 ADD MLOAD DUP2 DUP5 ADD MSTORE POP POP POP JUMP JUMPDEST PUSH2 0x200 DUP2 ADD PUSH2 0x5580 DUP3 DUP6 PUSH2 0x54D3 JUMP JUMPDEST PUSH2 0x11FE PUSH1 0xE0 DUP4 ADD DUP5 PUSH2 0x5517 JUMP JUMPDEST PUSH0 DUP1 PUSH2 0x200 DUP4 DUP6 SUB SLT ISZERO PUSH2 0x559F JUMPI PUSH0 DUP1 REVERT JUMPDEST PUSH2 0x55A9 DUP5 DUP5 PUSH2 0x53C7 JUMP JUMPDEST SWAP2 POP PUSH2 0x5317 DUP5 PUSH1 0xE0 DUP6 ADD PUSH2 0x5441 JUMP JUMPDEST PUSH0 PUSH1 0x20 DUP3 DUP5 SUB SLT ISZERO PUSH2 0x55C8 JUMPI PUSH0 DUP1 REVERT JUMPDEST POP MLOAD SWAP2 SWAP1 POP JUMP JUMPDEST PUSH0 DUP3 PUSH1 0x1F DUP4 ADD SLT PUSH2 0x55DE JUMPI PUSH0 DUP1 REVERT JUMPDEST DUP2 MLOAD PUSH1 0x20 PUSH2 0x55EE PUSH2 0x4FA6 DUP4 PUSH2 0x502A JUMP JUMPDEST DUP1 DUP4 DUP3 MSTORE PUSH1 0x20 DUP3 ADD SWAP2 POP PUSH1 0x20 DUP5 PUSH1 0x5 SHL DUP8 ADD ADD SWAP4 POP DUP7 DUP5 GT ISZERO PUSH2 0x560F JUMPI PUSH0 DUP1 REVERT JUMPDEST PUSH1 0x20 DUP7 ADD JUMPDEST DUP5 DUP2 LT ISZERO PUSH2 0x562B JUMPI DUP1 MLOAD DUP4 MSTORE SWAP2 DUP4 ADD SWAP2 DUP4 ADD PUSH2 0x5614 JUMP JUMPDEST POP SWAP7 SWAP6 POP POP POP POP POP POP JUMP JUMPDEST DUP1 MLOAD PUSH2 0x4E5B DUP2 PUSH2 0x522F JUMP JUMPDEST PUSH0 PUSH2 0x120 DUP3 DUP5 SUB SLT ISZERO PUSH2 0x5652 JUMPI PUSH0 DUP1 REVERT JUMPDEST PUSH2 0x565A PUSH2 0x4EFD JUMP JUMPDEST SWAP1 POP DUP2 MLOAD DUP2 MSTORE PUSH1 0x20 DUP3 ADD MLOAD PUSH1 0x20 DUP3 ADD MSTORE PUSH1 0x40 DUP3 ADD MLOAD PUSH1 0x40 DUP3 ADD MSTORE PUSH1 0x60 DUP3 ADD MLOAD PUSH1 0x60 DUP3 ADD MSTORE PUSH1 0x80 DUP3 ADD MLOAD PUSH1 0x80 DUP3 ADD MSTORE PUSH1 0xA0 DUP3 ADD MLOAD PUSH1 0xA0 DUP3 ADD MSTORE PUSH1 0xC0 DUP3 ADD MLOAD PUSH1 0xC0 DUP3 ADD MSTORE PUSH1 0xE0 DUP3 ADD MLOAD PUSH1 0x1 PUSH1 0x1 PUSH1 0x40 SHL SUB DUP2 GT ISZERO PUSH2 0x56B4 JUMPI PUSH0 DUP1 REVERT JUMPDEST PUSH2 0x56C0 DUP5 DUP3 DUP6 ADD PUSH2 0x55CF JUMP JUMPDEST PUSH1 0xE0 DUP4 ADD MSTORE POP PUSH2 0x100 PUSH2 0x56D4 DUP2 DUP5 ADD PUSH2 0x5636 JUMP JUMPDEST SWAP1 DUP3 ADD MSTORE SWAP3 SWAP2 POP POP JUMP JUMPDEST PUSH0 PUSH1 0x20 DUP1 DUP4 DUP6 SUB SLT ISZERO PUSH2 0x56EF JUMPI PUSH0 DUP1 REVERT JUMPDEST DUP3 MLOAD PUSH1 0x1 PUSH1 0x1 PUSH1 0x40 SHL SUB DUP1 DUP3 GT ISZERO PUSH2 0x5705 JUMPI PUSH0 DUP1 REVERT JUMPDEST DUP2 DUP6 ADD SWAP2 POP DUP6 PUSH1 0x1F DUP4 ADD SLT PUSH2 0x5718 JUMPI PUSH0 DUP1 REVERT JUMPDEST DUP2 MLOAD PUSH2 0x5726 PUSH2 0x4FA6 DUP3 PUSH2 0x502A JUMP JUMPDEST DUP2 DUP2 MSTORE PUSH1 0x5 SWAP2 SWAP1 SWAP2 SHL DUP4 ADD DUP5 ADD SWAP1 DUP5 DUP2 ADD SWAP1 DUP9 DUP4 GT ISZERO PUSH2 0x5744 JUMPI PUSH0 DUP1 REVERT JUMPDEST DUP6 DUP6 ADD JUMPDEST DUP4 DUP2 LT ISZERO PUSH2 0x5850 JUMPI DUP1 MLOAD DUP6 DUP2 GT ISZERO PUSH2 0x575E JUMPI PUSH0 DUP1 REVERT JUMPDEST DUP7 ADD PUSH2 0x340 DUP2 DUP13 SUB PUSH1 0x1F NOT ADD DUP2 SGT ISZERO PUSH2 0x5775 JUMPI PUSH0 DUP1 REVERT JUMPDEST PUSH2 0x577D PUSH2 0x4F20 JUMP JUMPDEST DUP10 DUP4 ADD MLOAD DUP2 MSTORE PUSH1 0x40 DUP4 ADD MLOAD DUP11 DUP3 ADD MSTORE PUSH1 0x60 DUP1 DUP5 ADD MLOAD DUP10 DUP2 GT ISZERO PUSH2 0x579E JUMPI PUSH0 DUP1 REVERT JUMPDEST PUSH2 0x57AC DUP16 DUP14 DUP4 DUP9 ADD ADD PUSH2 0x5641 JUMP JUMPDEST PUSH1 0x40 DUP5 ADD MSTORE POP PUSH1 0x80 PUSH2 0x57C0 DUP16 DUP3 DUP8 ADD PUSH2 0x53C7 JUMP JUMPDEST DUP3 DUP5 ADD MSTORE PUSH2 0x160 SWAP2 POP PUSH2 0x57D5 DUP16 DUP4 DUP8 ADD PUSH2 0x5441 JUMP JUMPDEST SWAP1 DUP4 ADD MSTORE PUSH2 0x280 DUP5 ADD MLOAD PUSH1 0xA0 DUP4 ADD MSTORE PUSH2 0x2A0 DUP5 ADD MLOAD PUSH1 0xC0 DUP4 ADD MSTORE PUSH2 0x2C0 DUP5 ADD MLOAD PUSH1 0xE0 DUP4 ADD MSTORE PUSH2 0x2E0 DUP5 ADD MLOAD PUSH2 0x100 DUP4 ADD MSTORE PUSH2 0x300 DUP5 ADD MLOAD PUSH2 0x120 DUP4 ADD MSTORE PUSH2 0x320 DUP5 ADD MLOAD PUSH2 0x140 DUP4 ADD MSTORE SWAP2 DUP4 ADD MLOAD SWAP2 DUP9 DUP4 GT ISZERO PUSH2 0x582F JUMPI PUSH0 DUP1 REVERT JUMPDEST PUSH2 0x583D DUP15 DUP13 DUP6 DUP8 ADD ADD PUSH2 0x55CF JUMP JUMPDEST SWAP1 DUP3 ADD MSTORE DUP6 MSTORE POP POP SWAP2 DUP7 ADD SWAP2 DUP7 ADD PUSH2 0x5748 JUMP JUMPDEST POP SWAP9 SWAP8 POP POP POP POP POP POP POP POP JUMP JUMPDEST PUSH4 0x4E487B71 PUSH1 0xE0 SHL PUSH0 MSTORE PUSH1 0x32 PUSH1 0x4 MSTORE PUSH1 0x24 PUSH0 REVERT JUMPDEST PUSH0 DUP3 PUSH2 0x587F JUMPI PUSH2 0x587F PUSH2 0x53A0 JUMP JUMPDEST POP MOD SWAP1 JUMP JUMPDEST DUP1 DUP3 MUL DUP2 ISZERO DUP3 DUP3 DIV DUP5 EQ OR PUSH2 0x109B JUMPI PUSH2 0x109B PUSH2 0x5379 JUMP JUMPDEST DUP1 DUP3 ADD DUP1 DUP3 GT ISZERO PUSH2 0x109B JUMPI PUSH2 0x109B PUSH2 0x5379 JUMP JUMPDEST PUSH0 DUP2 PUSH2 0x58BC JUMPI PUSH2 0x58BC PUSH2 0x5379 JUMP JUMPDEST POP PUSH0 NOT ADD SWAP1 JUMP JUMPDEST DUP4 DUP2 MSTORE PUSH2 0x220 DUP2 ADD PUSH2 0x58D8 PUSH1 0x20 DUP4 ADD DUP6 PUSH2 0x54D3 JUMP JUMPDEST PUSH2 0x3859 PUSH2 0x100 DUP4 ADD DUP5 PUSH2 0x5517 JUMP JUMPDEST PUSH0 PUSH2 0x120 DUP3 MLOAD DUP5 MSTORE PUSH1 0x20 DUP4 ADD MLOAD PUSH1 0x20 DUP6 ADD MSTORE PUSH1 0x40 DUP4 ADD MLOAD PUSH1 0x40 DUP6 ADD MSTORE PUSH1 0x60 DUP4 ADD MLOAD PUSH1 0x60 DUP6 ADD MSTORE PUSH1 0x80 DUP4 ADD MLOAD PUSH1 0x80 DUP6 ADD MSTORE PUSH1 0xA0 DUP4 ADD MLOAD PUSH1 0xA0 DUP6 ADD MSTORE PUSH1 0xC0 DUP4 ADD MLOAD PUSH1 0xC0 DUP6 ADD MSTORE PUSH1 0xE0 DUP4 ADD MLOAD DUP2 PUSH1 0xE0 DUP7 ADD MSTORE PUSH2 0x5941 DUP3 DUP7 ADD DUP3 PUSH2 0x515C JUMP JUMPDEST PUSH2 0x100 SWAP5 DUP6 ADD MLOAD ISZERO ISZERO SWAP6 SWAP1 SWAP5 ADD SWAP5 SWAP1 SWAP5 MSTORE POP SWAP1 SWAP3 SWAP2 POP POP JUMP JUMPDEST DUP4 DUP2 MSTORE DUP3 PUSH1 0x20 DUP3 ADD MSTORE PUSH1 0x60 PUSH1 0x40 DUP3 ADD MSTORE DUP2 MLOAD PUSH1 0x60 DUP3 ADD MSTORE PUSH1 0x20 DUP3 ADD MLOAD PUSH1 0x80 DUP3 ADD MSTORE PUSH0 PUSH1 0x40 DUP4 ADD MLOAD PUSH2 0x340 DUP1 PUSH1 0xA0 DUP6 ADD MSTORE PUSH2 0x5998 PUSH2 0x3A0 DUP6 ADD DUP4 PUSH2 0x58E6 JUMP JUMPDEST SWAP2 POP PUSH1 0x60 DUP6 ADD MLOAD PUSH2 0x59AC PUSH1 0xC0 DUP7 ADD DUP3 PUSH2 0x54D3 JUMP JUMPDEST POP PUSH1 0x80 DUP6 ADD MLOAD PUSH2 0x59C0 PUSH2 0x1A0 DUP7 ADD DUP3 PUSH2 0x5517 JUMP JUMPDEST POP PUSH1 0xA0 DUP6 ADD MLOAD PUSH2 0x2C0 DUP6 ADD MSTORE PUSH1 0xC0 DUP6 ADD MLOAD PUSH2 0x2E0 DUP6 ADD MSTORE PUSH1 0xE0 DUP6 ADD MLOAD PUSH2 0x300 DUP6 ADD MSTORE PUSH2 0x100 DUP6 ADD MLOAD PUSH2 0x320 DUP6 ADD MSTORE PUSH2 0x120 DUP6 ADD MLOAD SWAP1 DUP5 ADD MSTORE PUSH2 0x140 DUP5 ADD MLOAD PUSH2 0x360 DUP5 ADD MSTORE PUSH2 0x160 DUP5 ADD MLOAD DUP4 DUP3 SUB PUSH1 0x5F NOT ADD PUSH2 0x380 DUP6 ADD MSTORE PUSH2 0x5A21 DUP3 DUP3 PUSH2 0x515C JUMP JUMPDEST SWAP8 SWAP7 POP POP POP POP POP POP POP JUMP JUMPDEST PUSH1 0x1 PUSH1 0x1 PUSH1 0xA0 SHL SUB SWAP4 DUP5 AND DUP2 MSTORE SWAP2 SWAP1 SWAP3 AND PUSH1 0x20 DUP3 ADD MSTORE PUSH1 0x40 DUP2 ADD SWAP2 SWAP1 SWAP2 MSTORE PUSH1 0x60 ADD SWAP1 JUMP JUMPDEST PUSH0 PUSH1 0x20 DUP3 DUP5 SUB SLT ISZERO PUSH2 0x5A60 JUMPI PUSH0 DUP1 REVERT JUMPDEST DUP2 MLOAD PUSH2 0x11FE DUP2 PUSH2 0x522F JUMP JUMPDEST PUSH0 PUSH1 0x1 DUP3 ADD PUSH2 0x5A7C JUMPI PUSH2 0x5A7C PUSH2 0x5379 JUMP JUMPDEST POP PUSH1 0x1 ADD SWAP1 JUMP JUMPDEST PUSH0 PUSH2 0x100 DUP1 DUP4 DUP6 SUB SLT ISZERO PUSH2 0x5A95 JUMPI PUSH0 DUP1 REVERT JUMPDEST PUSH1 0x40 MLOAD SWAP1 DUP2 ADD SWAP1 PUSH1 0x1 PUSH1 0x1 PUSH1 0x40 SHL SUB DUP3 GT DUP2 DUP4 LT OR ISZERO PUSH2 0x5AB7 JUMPI PUSH2 0x5AB7 PUSH2 0x4EC1 JUMP JUMPDEST DUP2 PUSH1 0x40 MSTORE DUP4 MLOAD DUP2 MSTORE PUSH1 0x20 DUP5 ADD MLOAD PUSH1 0x20 DUP3 ADD MSTORE PUSH1 0x40 DUP5 ADD MLOAD PUSH1 0x40 DUP3 ADD MSTORE PUSH1 0x60 DUP5 ADD MLOAD PUSH1 0x60 DUP3 ADD MSTORE PUSH1 0x80 DUP5 ADD MLOAD PUSH1 0x80 DUP3 ADD MSTORE PUSH1 0xA0 DUP5 ADD MLOAD PUSH1 0xA0 DUP3 ADD MSTORE PUSH1 0xC0 DUP5 ADD MLOAD PUSH1 0xC0 DUP3 ADD MSTORE PUSH1 0xE0 DUP5 ADD MLOAD PUSH1 0xE0 DUP3 ADD MSTORE DUP1 SWAP3 POP POP POP SWAP3 SWAP2 POP POP JUMP JUMPDEST PUSH0 DUP3 PUSH1 0x1F DUP4 ADD SLT PUSH2 0x5B1F JUMPI PUSH0 DUP1 REVERT JUMPDEST DUP2 MLOAD PUSH2 0x5B2D PUSH2 0x4FA6 DUP3 PUSH2 0x4F73 JUMP JUMPDEST DUP2 DUP2 MSTORE DUP5 PUSH1 0x20 DUP4 DUP7 ADD ADD GT ISZERO PUSH2 0x5B41 JUMPI PUSH0 DUP1 REVERT JUMPDEST PUSH2 0x3859 DUP3 PUSH1 0x20 DUP4 ADD PUSH1 0x20 DUP8 ADD PUSH2 0x4DCF JUMP JUMPDEST PUSH0 PUSH1 0x20 DUP3 DUP5 SUB SLT ISZERO PUSH2 0x5B62 JUMPI PUSH0 DUP1 REVERT JUMPDEST DUP2 MLOAD PUSH1 0x1 PUSH1 0x1 PUSH1 0x40 SHL SUB DUP1 DUP3 GT ISZERO PUSH2 0x5B78 JUMPI PUSH0 DUP1 REVERT JUMPDEST SWAP1 DUP4 ADD SWAP1 PUSH1 0xE0 DUP3 DUP7 SUB SLT ISZERO PUSH2 0x5B8B JUMPI PUSH0 DUP1 REVERT JUMPDEST PUSH2 0x5B93 PUSH2 0x4ED5 JUMP JUMPDEST DUP3 MLOAD DUP2 MSTORE PUSH1 0x20 DUP4 ADD MLOAD PUSH1 0x20 DUP3 ADD MSTORE PUSH2 0x5BAD PUSH1 0x40 DUP5 ADD PUSH2 0x5636 JUMP JUMPDEST PUSH1 0x40 DUP3 ADD MSTORE PUSH1 0x60 DUP4 ADD MLOAD DUP3 DUP2 GT ISZERO PUSH2 0x5BC3 JUMPI PUSH0 DUP1 REVERT JUMPDEST PUSH2 0x5BCF DUP8 DUP3 DUP7 ADD PUSH2 0x5B10 JUMP JUMPDEST PUSH1 0x60 DUP4 ADD MSTORE POP PUSH1 0x80 DUP4 ADD MLOAD PUSH1 0x80 DUP3 ADD MSTORE PUSH1 0xA0 DUP4 ADD MLOAD PUSH1 0xA0 DUP3 ADD MSTORE PUSH1 0xC0 DUP4 ADD MLOAD PUSH1 0xC0 DUP3 ADD MSTORE DUP1 SWAP4 POP POP POP POP SWAP3 SWAP2 POP POP JUMP JUMPDEST PUSH1 0x1F DUP3 GT ISZERO PUSH2 0x1DD9 JUMPI DUP1 PUSH0 MSTORE PUSH1 0x20 PUSH0 KECCAK256 PUSH1 0x1F DUP5 ADD PUSH1 0x5 SHR DUP2 ADD PUSH1 0x20 DUP6 LT ISZERO PUSH2 0x5C24 JUMPI POP DUP1 JUMPDEST PUSH1 0x1F DUP5 ADD PUSH1 0x5 SHR DUP3 ADD SWAP2 POP JUMPDEST DUP2 DUP2 LT ISZERO PUSH2 0x2B0C JUMPI PUSH0 DUP2 SSTORE PUSH1 0x1 ADD PUSH2 0x5C30 JUMP JUMPDEST DUP2 MLOAD PUSH1 0x1 PUSH1 0x1 PUSH1 0x40 SHL SUB DUP2 GT ISZERO PUSH2 0x5C5C JUMPI PUSH2 0x5C5C PUSH2 0x4EC1 JUMP JUMPDEST PUSH2 0x5C70 DUP2 PUSH2 0x5C6A DUP5 SLOAD PUSH2 0x5341 JUMP JUMPDEST DUP5 PUSH2 0x5BFF JUMP JUMPDEST PUSH1 0x20 DUP1 PUSH1 0x1F DUP4 GT PUSH1 0x1 DUP2 EQ PUSH2 0x5CA3 JUMPI PUSH0 DUP5 ISZERO PUSH2 0x5C8C JUMPI POP DUP6 DUP4 ADD MLOAD JUMPDEST PUSH0 NOT PUSH1 0x3 DUP7 SWAP1 SHL SHR NOT AND PUSH1 0x1 DUP6 SWAP1 SHL OR DUP6 SSTORE PUSH2 0x2FAF JUMP JUMPDEST PUSH0 DUP6 DUP2 MSTORE PUSH1 0x20 DUP2 KECCAK256 PUSH1 0x1F NOT DUP7 AND SWAP2 JUMPDEST DUP3 DUP2 LT ISZERO PUSH2 0x5CD1 JUMPI DUP9 DUP7 ADD MLOAD DUP3 SSTORE SWAP5 DUP5 ADD SWAP5 PUSH1 0x1 SWAP1 SWAP2 ADD SWAP1 DUP5 ADD PUSH2 0x5CB2 JUMP JUMPDEST POP DUP6 DUP3 LT ISZERO PUSH2 0x5CEE JUMPI DUP8 DUP6 ADD MLOAD PUSH0 NOT PUSH1 0x3 DUP9 SWAP1 SHL PUSH1 0xF8 AND SHR NOT AND DUP2 SSTORE JUMPDEST POP POP POP POP POP PUSH1 0x1 SWAP1 DUP2 SHL ADD SWAP1 SSTORE POP JUMP JUMPDEST PUSH1 0x1 PUSH1 0x1 PUSH1 0xA0 SHL SUB DUP6 DUP2 AND DUP3 MSTORE DUP5 AND PUSH1 0x20 DUP3 ADD MSTORE PUSH1 0x40 DUP2 ADD DUP4 SWAP1 MSTORE PUSH1 0x80 PUSH1 0x60 DUP3 ADD DUP2 SWAP1 MSTORE PUSH0 SWAP1 PUSH2 0x4B1C SWAP1 DUP4 ADD DUP5 PUSH2 0x4DF1 JUMP JUMPDEST PUSH0 PUSH1 0x20 DUP3 DUP5 SUB SLT ISZERO PUSH2 0x5D40 JUMPI PUSH0 DUP1 REVERT JUMPDEST DUP2 MLOAD PUSH2 0x11FE DUP2 PUSH2 0x4D9F JUMP JUMPDEST PUSH0 DUP4 MLOAD PUSH2 0x5D5C DUP2 DUP5 PUSH1 0x20 DUP9 ADD PUSH2 0x4DCF JUMP JUMPDEST DUP4 MLOAD SWAP1 DUP4 ADD SWAP1 PUSH2 0x5D70 DUP2 DUP4 PUSH1 0x20 DUP9 ADD PUSH2 0x4DCF JUMP JUMPDEST ADD SWAP5 SWAP4 POP POP POP POP JUMP JUMPDEST PUSH1 0x20 DUP2 MSTORE DUP2 MLOAD PUSH1 0x20 DUP3 ADD MSTORE PUSH1 0x20 DUP3 ADD MLOAD PUSH1 0x40 DUP3 ADD MSTORE PUSH2 0xFFFF PUSH1 0x40 DUP4 ADD MLOAD AND PUSH1 0x60 DUP3 ADD MSTORE PUSH0 PUSH1 0x60 DUP4 ADD MLOAD PUSH4 0xFFFFFFFF DUP1 DUP3 AND PUSH1 0x80 DUP6 ADD MSTORE DUP1 PUSH1 0x80 DUP7 ADD MLOAD AND PUSH1 0xA0 DUP6 ADD MSTORE POP POP PUSH1 0xA0 DUP4 ADD MLOAD PUSH1 0xC0 DUP1 DUP5 ADD MSTORE PUSH2 0x3859 PUSH1 0xE0 DUP5 ADD DUP3 PUSH2 0x4DF1 JUMP JUMPDEST PUSH0 DUP3 MLOAD PUSH2 0x5DE6 DUP2 DUP5 PUSH1 0x20 DUP8 ADD PUSH2 0x4DCF JUMP JUMPDEST SWAP2 SWAP1 SWAP2 ADD SWAP3 SWAP2 POP POP JUMP JUMPDEST PUSH4 0x4E487B71 PUSH1 0xE0 SHL PUSH0 MSTORE PUSH1 0x31 PUSH1 0x4 MSTORE PUSH1 0x24 PUSH0 REVERT INVALID PUSH5 0x5E03970549 STOP DUP9 0xDA 0xAD DUP10 0xBA 0xE2 POP 0x49 LOG3 0x4F 0x4A SWAP1 PUSH19 0xD398537B1AB2425F24CBED0080BB2B638CC20B 0xC4 0xD0 0xA6 0xD PUSH7 0x940F3AB4A00C1D PUSH28 0x313497CA82FB0B4AB0079300360894A13BA1A3210667C828492DB98D 0xCA RETURNDATACOPY KECCAK256 PUSH23 0xCC3735A920A3CA505D382BBC645E039705490088DAAD89 0xBA 0xE2 POP 0x49 LOG3 0x4F 0x4A SWAP1 PUSH19 0xD398537B1AB2425F24CBED02CD5ED15C6E187E PUSH24 0xE9AEE88184C21F4F2182AB5827CB3B7E07FBEDCD63F03300 LOG2 PUSH5 0x6970667358 0x22 SLT KECCAK256 0xC 0xD8 0xE1 DUP10 CALLDATASIZE MOD LOG2 DUP12 0xC DUP2 PUSH17 0xC4A4CC661E88E82F895B1D2B7F48607BAE 0xCA 0x5C KECCAK256 0xD3 PUSH5 0x736F6C6343 STOP ADDMOD AND STOP CALLER "
		},
		"gasEstimates": {
			"creation": {
				"codeDepositCost": "4856400",
				"executionCost": "infinite",
				"totalCost": "infinite"
			},
			"external": {
				"BASIS_POINTS()": "305",
				"COORDINATOR()": "2460",
				"LifeCost()": "2450",
				"UPGRADE_INTERFACE_VERSION()": "infinite",
				"allSeasons(uint256)": "11047",
				"approve(address,uint256)": "infinite",
				"assignPoints(address,uint256)": "infinite",
				"balanceOf(address)": "infinite",
				"burn(uint256)": "infinite",
				"callbackGasLimit()": "2491",
				"changeKeyHash(bytes32)": "24665",
				"changeRequestConfirmations(uint16)": "26828",
				"changeSubsriberID(uint256)": "24621",
				"claimReward(uint256)": "infinite",
				"claimableRewards(address)": "2583",
				"classContract()": "2410",
				"completeMission(uint256)": "infinite",
				"currentSeason()": "2472",
				"endSeason(uint256)": "infinite",
				"energyCost()": "2450",
				"energyRegenAmount()": "2383",
				"energyRegenInterval()": "2362",
				"feeWallet()": "2391",
				"getAge(uint256)": "544",
				"getApproved(uint256)": "infinite",
				"getMissionVRF(uint256)": "infinite",
				"getTokensByOwner(address)": "infinite",
				"initialize()": "infinite",
				"isApprovedForAll(address,address)": "infinite",
				"keyHash()": "2405",
				"lastRequestId()": "2470",
				"loyaltyPoint()": "2406",
				"marketplaceContract()": "2502",
				"mintCurrency()": "2392",
				"mintFee()": "2451",
				"mintNFT(uint256)": "infinite",
				"missionContract()": "2395",
				"name()": "infinite",
				"nextTokenId()": "2384",
				"nftTransfers()": "2481",
				"owner()": "2468",
				"ownerBurn(uint256)": "infinite",
				"ownerOf(uint256)": "infinite",
				"pause()": "infinite",
				"paused()": "infinite",
				"proxiableUUID()": "infinite",
				"rawFulfillRandomWords(uint256,uint256[])": "infinite",
				"renounceOwnership()": "infinite",
				"requestConfirmations()": "2478",
				"requestIds(uint256)": "4640",
				"rewardFee()": "2406",
				"rewardFeeWallet()": "2482",
				"s_requests(uint256)": "6916",
				"s_subscriptionId()": "2384",
				"safeTransferFrom(address,address,uint256)": "infinite",
				"safeTransferFrom(address,address,uint256,bytes)": "infinite",
				"seasonAddresses(uint256)": "4711",
				"seasonTotalPoints(uint256)": "2547",
				"setAddresses(address,address,address)": "infinite",
				"setApprovalForAll(address,bool)": "infinite",
				"setClassContract(address)": "26988",
				"setCoordinator(address)": "26969",
				"setCurrency(address)": "26956",
				"setCurrentSeason(uint256)": "24622",
				"setEnergyCost(uint256)": "24598",
				"setEnergyRegenParam(uint256,uint256)": "46865",
				"setFees(uint256,uint256)": "46757",
				"setGasLimit(uint32)": "26863",
				"setLifeCost(uint256)": "24665",
				"setLoyaltyPoint(uint256)": "24688",
				"setMarketplaceContract(address)": "26913",
				"setMissionContract(address)": "26902",
				"setNFTTransfers(bool)": "26889",
				"setVRFCost(uint256)": "24621",
				"setVRFNative(bool)": "26907",
				"supportsInterface(bytes4)": "infinite",
				"symbol()": "infinite",
				"tokenByIndex(uint256)": "infinite",
				"tokenOfOwnerByIndex(address,uint256)": "infinite",
				"tokenURI(uint256)": "infinite",
				"totalSeasonCount()": "2449",
				"totalSupply()": "infinite",
				"transferFrom(address,address,uint256)": "infinite",
				"transferOwnership(address)": "28465",
				"unpause()": "infinite",
				"updateTokenURI(uint256,string)": "infinite",
				"upgradeToAndCall(address,bytes)": "infinite",
				"userPoints(address)": "2648",
				"vaultAddress()": "2459",
				"vrfCost()": "2448",
				"vrfNative()": "2399",
				"withdrawFundsERC20(address,uint256)": "infinite",
				"withdrawFundsNative(uint256)": "infinite"
			},
			"internal": {
				"_authorizeUpgrade(address)": "infinite",
				"_increaseBalance(address,uint128)": "infinite",
				"_update(address,uint256,address)": "infinite",
				"fulfillRandomWords(uint256,uint256[] memory)": "infinite",
				"getRandomNumber(uint32,uint256,uint256)": "infinite",
				"internalBurn(uint256)": "infinite",
				"requestRandomWords(uint32,uint256,uint256)": "infinite",
				"safeMint(address,string memory)": "infinite"
			}
		},
		"methodIdentifiers": {
			"BASIS_POINTS()": "e1f1c4a7",
			"COORDINATOR()": "3b2bcbf1",
			"LifeCost()": "b8e3effe",
			"UPGRADE_INTERFACE_VERSION()": "ad3cb1cc",
			"allSeasons(uint256)": "b30d92ba",
			"approve(address,uint256)": "095ea7b3",
			"assignPoints(address,uint256)": "c76d3a54",
			"balanceOf(address)": "70a08231",
			"burn(uint256)": "42966c68",
			"callbackGasLimit()": "24f74697",
			"changeKeyHash(bytes32)": "2f68f482",
			"changeRequestConfirmations(uint16)": "f50d390d",
			"changeSubsriberID(uint256)": "965a95c2",
			"claimReward(uint256)": "ae169a50",
			"claimableRewards(address)": "dc01f60d",
			"classContract()": "262e3ec3",
			"completeMission(uint256)": "19aae978",
			"currentSeason()": "bcb39621",
			"endSeason(uint256)": "5330d4f9",
			"energyCost()": "44af49c5",
			"energyRegenAmount()": "dd61b338",
			"energyRegenInterval()": "4b988c14",
			"feeWallet()": "f25f4b56",
			"getAge(uint256)": "0e37008a",
			"getApproved(uint256)": "081812fc",
			"getMissionVRF(uint256)": "493b296b",
			"getTokensByOwner(address)": "40398d67",
			"initialize()": "8129fc1c",
			"isApprovedForAll(address,address)": "e985e9c5",
			"keyHash()": "61728f39",
			"lastRequestId()": "fc2a88c3",
			"loyaltyPoint()": "2d2f4e9d",
			"marketplaceContract()": "d1bb5cf1",
			"mintCurrency()": "c2d08583",
			"mintFee()": "13966db5",
			"mintNFT(uint256)": "92642744",
			"missionContract()": "0059be0d",
			"name()": "06fdde03",
			"nextTokenId()": "75794a3c",
			"nftTransfers()": "cf19d583",
			"owner()": "8da5cb5b",
			"ownerBurn(uint256)": "3a4b3664",
			"ownerOf(uint256)": "6352211e",
			"pause()": "8456cb59",
			"paused()": "5c975abb",
			"proxiableUUID()": "52d1902d",
			"rawFulfillRandomWords(uint256,uint256[])": "1fe543e3",
			"renounceOwnership()": "715018a6",
			"requestConfirmations()": "b0fb162f",
			"requestIds(uint256)": "8796ba8c",
			"rewardFee()": "8b424267",
			"rewardFeeWallet()": "85a7c8aa",
			"s_requests(uint256)": "a168fa89",
			"s_subscriptionId()": "8ac00021",
			"safeTransferFrom(address,address,uint256)": "42842e0e",
			"safeTransferFrom(address,address,uint256,bytes)": "b88d4fde",
			"seasonAddresses(uint256)": "ae0f79e5",
			"seasonTotalPoints(uint256)": "9797a563",
			"setAddresses(address,address,address)": "363bf964",
			"setApprovalForAll(address,bool)": "a22cb465",
			"setClassContract(address)": "08ec6c3c",
			"setCoordinator(address)": "8ea98117",
			"setCurrency(address)": "2f84c391",
			"setCurrentSeason(uint256)": "39e211c9",
			"setEnergyCost(uint256)": "a91c39a9",
			"setEnergyRegenParam(uint256,uint256)": "6f5e5e26",
			"setFees(uint256,uint256)": "0b78f9c0",
			"setGasLimit(uint32)": "52d84c62",
			"setLifeCost(uint256)": "9bb0543c",
			"setLoyaltyPoint(uint256)": "240f3610",
			"setMarketplaceContract(address)": "1102610e",
			"setMissionContract(address)": "610b68f3",
			"setNFTTransfers(bool)": "c9f26991",
			"setVRFCost(uint256)": "b476f889",
			"setVRFNative(bool)": "b1bb05a6",
			"supportsInterface(bytes4)": "01ffc9a7",
			"symbol()": "95d89b41",
			"tokenByIndex(uint256)": "4f6ccce7",
			"tokenOfOwnerByIndex(address,uint256)": "2f745c59",
			"tokenURI(uint256)": "c87b56dd",
			"totalSeasonCount()": "eb0d1623",
			"totalSupply()": "18160ddd",
			"transferFrom(address,address,uint256)": "23b872dd",
			"transferOwnership(address)": "f2fde38b",
			"unpause()": "3f4ba83a",
			"updateTokenURI(uint256,string)": "18e97fd1",
			"upgradeToAndCall(address,bytes)": "4f1ef286",
			"userPoints(address)": "f50ddbc7",
			"vaultAddress()": "430bf08a",
			"vrfCost()": "fa237aea",
			"vrfNative()": "2b5db089",
			"withdrawFundsERC20(address,uint256)": "b5789950",
			"withdrawFundsNative(uint256)": "ec263589"
		}
	},
	"abi": [
		{
			"inputs": [],
			"stateMutability": "nonpayable",
			"type": "constructor"
		},
		{
			"inputs": [
				{
					"internalType": "address",
					"name": "target",
					"type": "address"
				}
			],
			"name": "AddressEmptyCode",
			"type": "error"
		},
		{
			"inputs": [
				{
					"internalType": "address",
					"name": "target",
					"type": "address"
				}
			],
			"name": "AddressEmptyCode",
			"type": "error"
		},
		{
			"inputs": [
				{
					"internalType": "address",
					"name": "account",
					"type": "address"
				}
			],
			"name": "AddressInsufficientBalance",
			"type": "error"
		},
		{
			"inputs": [
				{
					"internalType": "address",
					"name": "implementation",
					"type": "address"
				}
			],
			"name": "ERC1967InvalidImplementation",
			"type": "error"
		},
		{
			"inputs": [],
			"name": "ERC1967NonPayable",
			"type": "error"
		},
		{
			"inputs": [],
			"name": "ERC721EnumerableForbiddenBatchMint",
			"type": "error"
		},
		{
			"inputs": [
				{
					"internalType": "address",
					"name": "sender",
					"type": "address"
				},
				{
					"internalType": "uint256",
					"name": "tokenId",
					"type": "uint256"
				},
				{
					"internalType": "address",
					"name": "owner",
					"type": "address"
				}
			],
			"name": "ERC721IncorrectOwner",
			"type": "error"
		},
		{
			"inputs": [
				{
					"internalType": "address",
					"name": "operator",
					"type": "address"
				},
				{
					"internalType": "uint256",
					"name": "tokenId",
					"type": "uint256"
				}
			],
			"name": "ERC721InsufficientApproval",
			"type": "error"
		},
		{
			"inputs": [
				{
					"internalType": "address",
					"name": "approver",
					"type": "address"
				}
			],
			"name": "ERC721InvalidApprover",
			"type": "error"
		},
		{
			"inputs": [
				{
					"internalType": "address",
					"name": "operator",
					"type": "address"
				}
			],
			"name": "ERC721InvalidOperator",
			"type": "error"
		},
		{
			"inputs": [
				{
					"internalType": "address",
					"name": "owner",
					"type": "address"
				}
			],
			"name": "ERC721InvalidOwner",
			"type": "error"
		},
		{
			"inputs": [
				{
					"internalType": "address",
					"name": "receiver",
					"type": "address"
				}
			],
			"name": "ERC721InvalidReceiver",
			"type": "error"
		},
		{
			"inputs": [
				{
					"internalType": "address",
					"name": "sender",
					"type": "address"
				}
			],
			"name": "ERC721InvalidSender",
			"type": "error"
		},
		{
			"inputs": [
				{
					"internalType": "uint256",
					"name": "tokenId",
					"type": "uint256"
				}
			],
			"name": "ERC721NonexistentToken",
			"type": "error"
		},
		{
			"inputs": [
				{
					"internalType": "address",
					"name": "owner",
					"type": "address"
				},
				{
					"internalType": "uint256",
					"name": "index",
					"type": "uint256"
				}
			],
			"name": "ERC721OutOfBoundsIndex",
			"type": "error"
		},
		{
			"inputs": [],
			"name": "EnforcedPause",
			"type": "error"
		},
		{
			"inputs": [],
			"name": "ExpectedPause",
			"type": "error"
		},
		{
			"inputs": [],
			"name": "FailedCall",
			"type": "error"
		},
		{
			"inputs": [],
			"name": "FailedInnerCall",
			"type": "error"
		},
		{
			"inputs": [],
			"name": "InvalidInitialization",
			"type": "error"
		},
		{
			"inputs": [],
			"name": "NotInitializing",
			"type": "error"
		},
		{
			"inputs": [
				{
					"internalType": "address",
					"name": "owner",
					"type": "address"
				}
			],
			"name": "OwnableInvalidOwner",
			"type": "error"
		},
		{
			"inputs": [
				{
					"internalType": "address",
					"name": "account",
					"type": "address"
				}
			],
			"name": "OwnableUnauthorizedAccount",
			"type": "error"
		},
		{
			"inputs": [
				{
					"internalType": "address",
					"name": "token",
					"type": "address"
				}
			],
			"name": "SafeERC20FailedOperation",
			"type": "error"
		},
		{
			"inputs": [],
			"name": "UUPSUnauthorizedCallContext",
			"type": "error"
		},
		{
			"inputs": [
				{
					"internalType": "bytes32",
					"name": "slot",
					"type": "bytes32"
				}
			],
			"name": "UUPSUnsupportedProxiableUUID",
			"type": "error"
		},
		{
			"anonymous": false,
			"inputs": [
				{
					"indexed": true,
					"internalType": "address",
					"name": "owner",
					"type": "address"
				},
				{
					"indexed": true,
					"internalType": "address",
					"name": "approved",
					"type": "address"
				},
				{
					"indexed": true,
					"internalType": "uint256",
					"name": "tokenId",
					"type": "uint256"
				}
			],
			"name": "Approval",
			"type": "event"
		},
		{
			"anonymous": false,
			"inputs": [
				{
					"indexed": true,
					"internalType": "address",
					"name": "owner",
					"type": "address"
				},
				{
					"indexed": true,
					"internalType": "address",
					"name": "operator",
					"type": "address"
				},
				{
					"indexed": false,
					"internalType": "bool",
					"name": "approved",
					"type": "bool"
				}
			],
			"name": "ApprovalForAll",
			"type": "event"
		},
		{
			"anonymous": false,
			"inputs": [
				{
					"indexed": false,
					"internalType": "uint256",
					"name": "_fromTokenId",
					"type": "uint256"
				},
				{
					"indexed": false,
					"internalType": "uint256",
					"name": "_toTokenId",
					"type": "uint256"
				}
			],
			"name": "BatchMetadataUpdate",
			"type": "event"
		},
		{
			"anonymous": false,
			"inputs": [
				{
					"indexed": false,
					"internalType": "address",
					"name": "owner",
					"type": "address"
				}
			],
			"name": "ContractInitialized",
			"type": "event"
		},
		{
			"anonymous": false,
			"inputs": [
				{
					"indexed": false,
					"internalType": "uint64",
					"name": "version",
					"type": "uint64"
				}
			],
			"name": "Initialized",
			"type": "event"
		},
		{
			"anonymous": false,
			"inputs": [
				{
					"indexed": false,
					"internalType": "uint256",
					"name": "_tokenId",
					"type": "uint256"
				}
			],
			"name": "MetadataUpdate",
			"type": "event"
		},
		{
			"anonymous": false,
			"inputs": [
				{
					"indexed": true,
					"internalType": "address",
					"name": "previousOwner",
					"type": "address"
				},
				{
					"indexed": true,
					"internalType": "address",
					"name": "newOwner",
					"type": "address"
				}
			],
			"name": "OwnershipTransferred",
			"type": "event"
		},
		{
			"anonymous": false,
			"inputs": [
				{
					"indexed": false,
					"internalType": "address",
					"name": "account",
					"type": "address"
				}
			],
			"name": "Paused",
			"type": "event"
		},
		{
			"anonymous": false,
			"inputs": [
				{
					"indexed": true,
					"internalType": "address",
					"name": "from",
					"type": "address"
				},
				{
					"indexed": true,
					"internalType": "address",
					"name": "to",
					"type": "address"
				},
				{
					"indexed": true,
					"internalType": "uint256",
					"name": "tokenId",
					"type": "uint256"
				}
			],
			"name": "Transfer",
			"type": "event"
		},
		{
			"anonymous": false,
			"inputs": [
				{
					"indexed": false,
					"internalType": "address",
					"name": "account",
					"type": "address"
				}
			],
			"name": "Unpaused",
			"type": "event"
		},
		{
			"anonymous": false,
			"inputs": [
				{
					"indexed": true,
					"internalType": "address",
					"name": "implementation",
					"type": "address"
				}
			],
			"name": "Upgraded",
			"type": "event"
		},
		{
			"inputs": [],
			"name": "BASIS_POINTS",
			"outputs": [
				{
					"internalType": "uint256",
					"name": "",
					"type": "uint256"
				}
			],
			"stateMutability": "view",
			"type": "function"
		},
		{
			"inputs": [],
			"name": "COORDINATOR",
			"outputs": [
				{
					"internalType": "contract IVRFCoordinatorV2Plus",
					"name": "",
					"type": "address"
				}
			],
			"stateMutability": "view",
			"type": "function"
		},
		{
			"inputs": [],
			"name": "LifeCost",
			"outputs": [
				{
					"internalType": "uint256",
					"name": "",
					"type": "uint256"
				}
			],
			"stateMutability": "view",
			"type": "function"
		},
		{
			"inputs": [],
			"name": "UPGRADE_INTERFACE_VERSION",
			"outputs": [
				{
					"internalType": "string",
					"name": "",
					"type": "string"
				}
			],
			"stateMutability": "view",
			"type": "function"
		},
		{
			"inputs": [
				{
					"internalType": "uint256",
					"name": "",
					"type": "uint256"
				}
			],
			"name": "allSeasons",
			"outputs": [
				{
					"internalType": "uint256",
					"name": "seasonId",
					"type": "uint256"
				},
				{
					"internalType": "uint256",
					"name": "endDate",
					"type": "uint256"
				},
				{
					"internalType": "uint256",
					"name": "totalRewards",
					"type": "uint256"
				},
				{
					"internalType": "uint256",
					"name": "totalPoints",
					"type": "uint256"
				},
				{
					"internalType": "uint256",
					"name": "totalAddresses",
					"type": "uint256"
				}
			],
			"stateMutability": "view",
			"type": "function"
		},
		{
			"inputs": [
				{
					"internalType": "address",
					"name": "to",
					"type": "address"
				},
				{
					"internalType": "uint256",
					"name": "tokenId",
					"type": "uint256"
				}
			],
			"name": "approve",
			"outputs": [],
			"stateMutability": "nonpayable",
			"type": "function"
		},
		{
			"inputs": [
				{
					"internalType": "address",
					"name": "_user",
					"type": "address"
				},
				{
					"internalType": "uint256",
					"name": "_points",
					"type": "uint256"
				}
			],
			"name": "assignPoints",
			"outputs": [],
			"stateMutability": "nonpayable",
			"type": "function"
		},
		{
			"inputs": [
				{
					"internalType": "address",
					"name": "owner",
					"type": "address"
				}
			],
			"name": "balanceOf",
			"outputs": [
				{
					"internalType": "uint256",
					"name": "",
					"type": "uint256"
				}
			],
			"stateMutability": "view",
			"type": "function"
		},
		{
			"inputs": [
				{
					"internalType": "uint256",
					"name": "tokenId",
					"type": "uint256"
				}
			],
			"name": "burn",
			"outputs": [],
			"stateMutability": "nonpayable",
			"type": "function"
		},
		{
			"inputs": [],
			"name": "callbackGasLimit",
			"outputs": [
				{
					"internalType": "uint32",
					"name": "",
					"type": "uint32"
				}
			],
			"stateMutability": "view",
			"type": "function"
		},
		{
			"inputs": [
				{
					"internalType": "bytes32",
					"name": "_keyhash",
					"type": "bytes32"
				}
			],
			"name": "changeKeyHash",
			"outputs": [],
			"stateMutability": "nonpayable",
			"type": "function"
		},
		{
			"inputs": [
				{
					"internalType": "uint16",
					"name": "_requestConfirmations",
					"type": "uint16"
				}
			],
			"name": "changeRequestConfirmations",
			"outputs": [],
			"stateMutability": "nonpayable",
			"type": "function"
		},
		{
			"inputs": [
				{
					"internalType": "uint256",
					"name": "_id",
					"type": "uint256"
				}
			],
			"name": "changeSubsriberID",
			"outputs": [],
			"stateMutability": "nonpayable",
			"type": "function"
		},
		{
			"inputs": [
				{
					"internalType": "uint256",
					"name": "_amount",
					"type": "uint256"
				}
			],
			"name": "claimReward",
			"outputs": [],
			"stateMutability": "nonpayable",
			"type": "function"
		},
		{
			"inputs": [
				{
					"internalType": "address",
					"name": "",
					"type": "address"
				}
			],
			"name": "claimableRewards",
			"outputs": [
				{
					"internalType": "uint256",
					"name": "",
					"type": "uint256"
				}
			],
			"stateMutability": "view",
			"type": "function"
		},
		{
			"inputs": [],
			"name": "classContract",
			"outputs": [
				{
					"internalType": "address",
					"name": "",
					"type": "address"
				}
			],
			"stateMutability": "view",
			"type": "function"
		},
		{
			"inputs": [
				{
					"internalType": "uint256",
					"name": "_tokenId",
					"type": "uint256"
				}
			],
			"name": "completeMission",
			"outputs": [],
			"stateMutability": "nonpayable",
			"type": "function"
		},
		{
			"inputs": [],
			"name": "currentSeason",
			"outputs": [
				{
					"internalType": "uint256",
					"name": "",
					"type": "uint256"
				}
			],
			"stateMutability": "view",
			"type": "function"
		},
		{
			"inputs": [
				{
					"internalType": "uint256",
					"name": "_totalRewards",
					"type": "uint256"
				}
			],
			"name": "endSeason",
			"outputs": [],
			"stateMutability": "nonpayable",
			"type": "function"
		},
		{
			"inputs": [],
			"name": "energyCost",
			"outputs": [
				{
					"internalType": "uint256",
					"name": "",
					"type": "uint256"
				}
			],
			"stateMutability": "view",
			"type": "function"
		},
		{
			"inputs": [],
			"name": "energyRegenAmount",
			"outputs": [
				{
					"internalType": "uint256",
					"name": "",
					"type": "uint256"
				}
			],
			"stateMutability": "view",
			"type": "function"
		},
		{
			"inputs": [],
			"name": "energyRegenInterval",
			"outputs": [
				{
					"internalType": "uint256",
					"name": "",
					"type": "uint256"
				}
			],
			"stateMutability": "view",
			"type": "function"
		},
		{
			"inputs": [],
			"name": "feeWallet",
			"outputs": [
				{
					"internalType": "address",
					"name": "",
					"type": "address"
				}
			],
			"stateMutability": "view",
			"type": "function"
		},
		{
			"inputs": [
				{
					"internalType": "uint256",
					"name": "_mintTimestamp",
					"type": "uint256"
				}
			],
			"name": "getAge",
			"outputs": [
				{
					"internalType": "uint256",
					"name": "_age",
					"type": "uint256"
				}
			],
			"stateMutability": "view",
			"type": "function"
		},
		{
			"inputs": [
				{
					"internalType": "uint256",
					"name": "tokenId",
					"type": "uint256"
				}
			],
			"name": "getApproved",
			"outputs": [
				{
					"internalType": "address",
					"name": "",
					"type": "address"
				}
			],
			"stateMutability": "view",
			"type": "function"
		},
		{
			"inputs": [
				{
					"internalType": "uint256",
					"name": "_tokenId",
					"type": "uint256"
				}
			],
			"name": "getMissionVRF",
			"outputs": [],
			"stateMutability": "payable",
			"type": "function"
		},
		{
			"inputs": [
				{
					"internalType": "address",
					"name": "wallet",
					"type": "address"
				}
			],
			"name": "getTokensByOwner",
			"outputs": [
				{
					"internalType": "uint256",
					"name": "count",
					"type": "uint256"
				},
				{
					"internalType": "uint256[]",
					"name": "tokenIds",
					"type": "uint256[]"
				}
			],
			"stateMutability": "view",
			"type": "function"
		},
		{
			"inputs": [],
			"name": "initialize",
			"outputs": [],
			"stateMutability": "nonpayable",
			"type": "function"
		},
		{
			"inputs": [
				{
					"internalType": "address",
					"name": "owner",
					"type": "address"
				},
				{
					"internalType": "address",
					"name": "operator",
					"type": "address"
				}
			],
			"name": "isApprovedForAll",
			"outputs": [
				{
					"internalType": "bool",
					"name": "",
					"type": "bool"
				}
			],
			"stateMutability": "view",
			"type": "function"
		},
		{
			"inputs": [],
			"name": "keyHash",
			"outputs": [
				{
					"internalType": "bytes32",
					"name": "",
					"type": "bytes32"
				}
			],
			"stateMutability": "view",
			"type": "function"
		},
		{
			"inputs": [],
			"name": "lastRequestId",
			"outputs": [
				{
					"internalType": "uint256",
					"name": "",
					"type": "uint256"
				}
			],
			"stateMutability": "view",
			"type": "function"
		},
		{
			"inputs": [],
			"name": "loyaltyPoint",
			"outputs": [
				{
					"internalType": "uint256",
					"name": "",
					"type": "uint256"
				}
			],
			"stateMutability": "view",
			"type": "function"
		},
		{
			"inputs": [],
			"name": "marketplaceContract",
			"outputs": [
				{
					"internalType": "address",
					"name": "",
					"type": "address"
				}
			],
			"stateMutability": "view",
			"type": "function"
		},
		{
			"inputs": [],
			"name": "mintCurrency",
			"outputs": [
				{
					"internalType": "contract IERC20Extended",
					"name": "",
					"type": "address"
				}
			],
			"stateMutability": "view",
			"type": "function"
		},
		{
			"inputs": [],
			"name": "mintFee",
			"outputs": [
				{
					"internalType": "uint256",
					"name": "",
					"type": "uint256"
				}
			],
			"stateMutability": "view",
			"type": "function"
		},
		{
			"inputs": [
				{
					"internalType": "uint256",
					"name": "_classId",
					"type": "uint256"
				}
			],
			"name": "mintNFT",
			"outputs": [],
			"stateMutability": "nonpayable",
			"type": "function"
		},
		{
			"inputs": [],
			"name": "missionContract",
			"outputs": [
				{
					"internalType": "address",
					"name": "",
					"type": "address"
				}
			],
			"stateMutability": "view",
			"type": "function"
		},
		{
			"inputs": [],
			"name": "name",
			"outputs": [
				{
					"internalType": "string",
					"name": "",
					"type": "string"
				}
			],
			"stateMutability": "view",
			"type": "function"
		},
		{
			"inputs": [],
			"name": "nextTokenId",
			"outputs": [
				{
					"internalType": "uint256",
					"name": "",
					"type": "uint256"
				}
			],
			"stateMutability": "view",
			"type": "function"
		},
		{
			"inputs": [],
			"name": "nftTransfers",
			"outputs": [
				{
					"internalType": "bool",
					"name": "",
					"type": "bool"
				}
			],
			"stateMutability": "view",
			"type": "function"
		},
		{
			"inputs": [],
			"name": "owner",
			"outputs": [
				{
					"internalType": "address",
					"name": "",
					"type": "address"
				}
			],
			"stateMutability": "view",
			"type": "function"
		},
		{
			"inputs": [
				{
					"internalType": "uint256",
					"name": "_tokenId",
					"type": "uint256"
				}
			],
			"name": "ownerBurn",
			"outputs": [],
			"stateMutability": "nonpayable",
			"type": "function"
		},
		{
			"inputs": [
				{
					"internalType": "uint256",
					"name": "tokenId",
					"type": "uint256"
				}
			],
			"name": "ownerOf",
			"outputs": [
				{
					"internalType": "address",
					"name": "",
					"type": "address"
				}
			],
			"stateMutability": "view",
			"type": "function"
		},
		{
			"inputs": [],
			"name": "pause",
			"outputs": [],
			"stateMutability": "nonpayable",
			"type": "function"
		},
		{
			"inputs": [],
			"name": "paused",
			"outputs": [
				{
					"internalType": "bool",
					"name": "",
					"type": "bool"
				}
			],
			"stateMutability": "view",
			"type": "function"
		},
		{
			"inputs": [],
			"name": "proxiableUUID",
			"outputs": [
				{
					"internalType": "bytes32",
					"name": "",
					"type": "bytes32"
				}
			],
			"stateMutability": "view",
			"type": "function"
		},
		{
			"inputs": [
				{
					"internalType": "uint256",
					"name": "requestId",
					"type": "uint256"
				},
				{
					"internalType": "uint256[]",
					"name": "randomWords",
					"type": "uint256[]"
				}
			],
			"name": "rawFulfillRandomWords",
			"outputs": [],
			"stateMutability": "nonpayable",
			"type": "function"
		},
		{
			"inputs": [],
			"name": "renounceOwnership",
			"outputs": [],
			"stateMutability": "nonpayable",
			"type": "function"
		},
		{
			"inputs": [],
			"name": "requestConfirmations",
			"outputs": [
				{
					"internalType": "uint16",
					"name": "",
					"type": "uint16"
				}
			],
			"stateMutability": "view",
			"type": "function"
		},
		{
			"inputs": [
				{
					"internalType": "uint256",
					"name": "",
					"type": "uint256"
				}
			],
			"name": "requestIds",
			"outputs": [
				{
					"internalType": "uint256",
					"name": "",
					"type": "uint256"
				}
			],
			"stateMutability": "view",
			"type": "function"
		},
		{
			"inputs": [],
			"name": "rewardFee",
			"outputs": [
				{
					"internalType": "uint256",
					"name": "",
					"type": "uint256"
				}
			],
			"stateMutability": "view",
			"type": "function"
		},
		{
			"inputs": [],
			"name": "rewardFeeWallet",
			"outputs": [
				{
					"internalType": "address",
					"name": "",
					"type": "address"
				}
			],
			"stateMutability": "view",
			"type": "function"
		},
		{
			"inputs": [
				{
					"internalType": "uint256",
					"name": "",
					"type": "uint256"
				}
			],
			"name": "s_requests",
			"outputs": [
				{
					"internalType": "bool",
					"name": "fulfilled",
					"type": "bool"
				},
				{
					"internalType": "bool",
					"name": "exists",
					"type": "bool"
				},
				{
					"internalType": "uint256",
					"name": "tokenId",
					"type": "uint256"
				},
				{
					"internalType": "uint256",
					"name": "vrfType",
					"type": "uint256"
				}
			],
			"stateMutability": "view",
			"type": "function"
		},
		{
			"inputs": [],
			"name": "s_subscriptionId",
			"outputs": [
				{
					"internalType": "uint256",
					"name": "",
					"type": "uint256"
				}
			],
			"stateMutability": "view",
			"type": "function"
		},
		{
			"inputs": [
				{
					"internalType": "address",
					"name": "from",
					"type": "address"
				},
				{
					"internalType": "address",
					"name": "to",
					"type": "address"
				},
				{
					"internalType": "uint256",
					"name": "tokenId",
					"type": "uint256"
				}
			],
			"name": "safeTransferFrom",
			"outputs": [],
			"stateMutability": "nonpayable",
			"type": "function"
		},
		{
			"inputs": [
				{
					"internalType": "address",
					"name": "from",
					"type": "address"
				},
				{
					"internalType": "address",
					"name": "to",
					"type": "address"
				},
				{
					"internalType": "uint256",
					"name": "tokenId",
					"type": "uint256"
				},
				{
					"internalType": "bytes",
					"name": "data",
					"type": "bytes"
				}
			],
			"name": "safeTransferFrom",
			"outputs": [],
			"stateMutability": "nonpayable",
			"type": "function"
		},
		{
			"inputs": [
				{
					"internalType": "uint256",
					"name": "",
					"type": "uint256"
				}
			],
			"name": "seasonAddresses",
			"outputs": [
				{
					"internalType": "address",
					"name": "",
					"type": "address"
				}
			],
			"stateMutability": "view",
			"type": "function"
		},
		{
			"inputs": [
				{
					"internalType": "uint256",
					"name": "",
					"type": "uint256"
				}
			],
			"name": "seasonTotalPoints",
			"outputs": [
				{
					"internalType": "uint256",
					"name": "",
					"type": "uint256"
				}
			],
			"stateMutability": "view",
			"type": "function"
		},
		{
			"inputs": [
				{
					"internalType": "address",
					"name": "_vaultAddress",
					"type": "address"
				},
				{
					"internalType": "address",
					"name": "_feeWallet",
					"type": "address"
				},
				{
					"internalType": "address",
					"name": "_rewardFeeWallet",
					"type": "address"
				}
			],
			"name": "setAddresses",
			"outputs": [],
			"stateMutability": "nonpayable",
			"type": "function"
		},
		{
			"inputs": [
				{
					"internalType": "address",
					"name": "operator",
					"type": "address"
				},
				{
					"internalType": "bool",
					"name": "approved",
					"type": "bool"
				}
			],
			"name": "setApprovalForAll",
			"outputs": [],
			"stateMutability": "nonpayable",
			"type": "function"
		},
		{
			"inputs": [
				{
					"internalType": "address",
					"name": "_class",
					"type": "address"
				}
			],
			"name": "setClassContract",
			"outputs": [],
			"stateMutability": "nonpayable",
			"type": "function"
		},
		{
			"inputs": [
				{
					"internalType": "address",
					"name": "_address",
					"type": "address"
				}
			],
			"name": "setCoordinator",
			"outputs": [],
			"stateMutability": "nonpayable",
			"type": "function"
		},
		{
			"inputs": [
				{
					"internalType": "address",
					"name": "_mintCurrency",
					"type": "address"
				}
			],
			"name": "setCurrency",
			"outputs": [],
			"stateMutability": "nonpayable",
			"type": "function"
		},
		{
			"inputs": [
				{
					"internalType": "uint256",
					"name": "_season",
					"type": "uint256"
				}
			],
			"name": "setCurrentSeason",
			"outputs": [],
			"stateMutability": "nonpayable",
			"type": "function"
		},
		{
			"inputs": [
				{
					"internalType": "uint256",
					"name": "_cost",
					"type": "uint256"
				}
			],
			"name": "setEnergyCost",
			"outputs": [],
			"stateMutability": "nonpayable",
			"type": "function"
		},
		{
			"inputs": [
				{
					"internalType": "uint256",
					"name": "_energyRegenInterval",
					"type": "uint256"
				},
				{
					"internalType": "uint256",
					"name": "_energyRegenAmount",
					"type": "uint256"
				}
			],
			"name": "setEnergyRegenParam",
			"outputs": [],
			"stateMutability": "nonpayable",
			"type": "function"
		},
		{
			"inputs": [
				{
					"internalType": "uint256",
					"name": "_mintFee",
					"type": "uint256"
				},
				{
					"internalType": "uint256",
					"name": "_rewardFee",
					"type": "uint256"
				}
			],
			"name": "setFees",
			"outputs": [],
			"stateMutability": "nonpayable",
			"type": "function"
		},
		{
			"inputs": [
				{
					"internalType": "uint32",
					"name": "gas",
					"type": "uint32"
				}
			],
			"name": "setGasLimit",
			"outputs": [],
			"stateMutability": "nonpayable",
			"type": "function"
		},
		{
			"inputs": [
				{
					"internalType": "uint256",
					"name": "_lifeCost",
					"type": "uint256"
				}
			],
			"name": "setLifeCost",
			"outputs": [],
			"stateMutability": "nonpayable",
			"type": "function"
		},
		{
			"inputs": [
				{
					"internalType": "uint256",
					"name": "_loyaltyPoint",
					"type": "uint256"
				}
			],
			"name": "setLoyaltyPoint",
			"outputs": [],
			"stateMutability": "nonpayable",
			"type": "function"
		},
		{
			"inputs": [
				{
					"internalType": "address",
					"name": "_market",
					"type": "address"
				}
			],
			"name": "setMarketplaceContract",
			"outputs": [],
			"stateMutability": "nonpayable",
			"type": "function"
		},
		{
			"inputs": [
				{
					"internalType": "address",
					"name": "_mission",
					"type": "address"
				}
			],
			"name": "setMissionContract",
			"outputs": [],
			"stateMutability": "nonpayable",
			"type": "function"
		},
		{
			"inputs": [
				{
					"internalType": "bool",
					"name": "_status",
					"type": "bool"
				}
			],
			"name": "setNFTTransfers",
			"outputs": [],
			"stateMutability": "nonpayable",
			"type": "function"
		},
		{
			"inputs": [
				{
					"internalType": "uint256",
					"name": "_vrfCost",
					"type": "uint256"
				}
			],
			"name": "setVRFCost",
			"outputs": [],
			"stateMutability": "nonpayable",
			"type": "function"
		},
		{
			"inputs": [
				{
					"internalType": "bool",
					"name": "_status",
					"type": "bool"
				}
			],
			"name": "setVRFNative",
			"outputs": [],
			"stateMutability": "nonpayable",
			"type": "function"
		},
		{
			"inputs": [
				{
					"internalType": "bytes4",
					"name": "interfaceId",
					"type": "bytes4"
				}
			],
			"name": "supportsInterface",
			"outputs": [
				{
					"internalType": "bool",
					"name": "",
					"type": "bool"
				}
			],
			"stateMutability": "view",
			"type": "function"
		},
		{
			"inputs": [],
			"name": "symbol",
			"outputs": [
				{
					"internalType": "string",
					"name": "",
					"type": "string"
				}
			],
			"stateMutability": "view",
			"type": "function"
		},
		{
			"inputs": [
				{
					"internalType": "uint256",
					"name": "index",
					"type": "uint256"
				}
			],
			"name": "tokenByIndex",
			"outputs": [
				{
					"internalType": "uint256",
					"name": "",
					"type": "uint256"
				}
			],
			"stateMutability": "view",
			"type": "function"
		},
		{
			"inputs": [
				{
					"internalType": "address",
					"name": "owner",
					"type": "address"
				},
				{
					"internalType": "uint256",
					"name": "index",
					"type": "uint256"
				}
			],
			"name": "tokenOfOwnerByIndex",
			"outputs": [
				{
					"internalType": "uint256",
					"name": "",
					"type": "uint256"
				}
			],
			"stateMutability": "view",
			"type": "function"
		},
		{
			"inputs": [
				{
					"internalType": "uint256",
					"name": "tokenId",
					"type": "uint256"
				}
			],
			"name": "tokenURI",
			"outputs": [
				{
					"internalType": "string",
					"name": "",
					"type": "string"
				}
			],
			"stateMutability": "view",
			"type": "function"
		},
		{
			"inputs": [],
			"name": "totalSeasonCount",
			"outputs": [
				{
					"internalType": "uint256",
					"name": "",
					"type": "uint256"
				}
			],
			"stateMutability": "view",
			"type": "function"
		},
		{
			"inputs": [],
			"name": "totalSupply",
			"outputs": [
				{
					"internalType": "uint256",
					"name": "",
					"type": "uint256"
				}
			],
			"stateMutability": "view",
			"type": "function"
		},
		{
			"inputs": [
				{
					"internalType": "address",
					"name": "from",
					"type": "address"
				},
				{
					"internalType": "address",
					"name": "to",
					"type": "address"
				},
				{
					"internalType": "uint256",
					"name": "tokenId",
					"type": "uint256"
				}
			],
			"name": "transferFrom",
			"outputs": [],
			"stateMutability": "nonpayable",
			"type": "function"
		},
		{
			"inputs": [
				{
					"internalType": "address",
					"name": "newOwner",
					"type": "address"
				}
			],
			"name": "transferOwnership",
			"outputs": [],
			"stateMutability": "nonpayable",
			"type": "function"
		},
		{
			"inputs": [],
			"name": "unpause",
			"outputs": [],
			"stateMutability": "nonpayable",
			"type": "function"
		},
		{
			"inputs": [
				{
					"internalType": "uint256",
					"name": "tokenId",
					"type": "uint256"
				},
				{
					"internalType": "string",
					"name": "newURI",
					"type": "string"
				}
			],
			"name": "updateTokenURI",
			"outputs": [],
			"stateMutability": "nonpayable",
			"type": "function"
		},
		{
			"inputs": [
				{
					"internalType": "address",
					"name": "newImplementation",
					"type": "address"
				},
				{
					"internalType": "bytes",
					"name": "data",
					"type": "bytes"
				}
			],
			"name": "upgradeToAndCall",
			"outputs": [],
			"stateMutability": "payable",
			"type": "function"
		},
		{
			"inputs": [
				{
					"internalType": "address",
					"name": "",
					"type": "address"
				}
			],
			"name": "userPoints",
			"outputs": [
				{
					"internalType": "uint256",
					"name": "",
					"type": "uint256"
				}
			],
			"stateMutability": "view",
			"type": "function"
		},
		{
			"inputs": [],
			"name": "vaultAddress",
			"outputs": [
				{
					"internalType": "address",
					"name": "",
					"type": "address"
				}
			],
			"stateMutability": "view",
			"type": "function"
		},
		{
			"inputs": [],
			"name": "vrfCost",
			"outputs": [
				{
					"internalType": "uint256",
					"name": "",
					"type": "uint256"
				}
			],
			"stateMutability": "view",
			"type": "function"
		},
		{
			"inputs": [],
			"name": "vrfNative",
			"outputs": [
				{
					"internalType": "bool",
					"name": "",
					"type": "bool"
				}
			],
			"stateMutability": "view",
			"type": "function"
		},
		{
			"inputs": [
				{
					"internalType": "address",
					"name": "erc20",
					"type": "address"
				},
				{
					"internalType": "uint256",
					"name": "amount",
					"type": "uint256"
				}
			],
			"name": "withdrawFundsERC20",
			"outputs": [],
			"stateMutability": "nonpayable",
			"type": "function"
		},
		{
			"inputs": [
				{
					"internalType": "uint256",
					"name": "amount",
					"type": "uint256"
				}
			],
			"name": "withdrawFundsNative",
			"outputs": [],
			"stateMutability": "nonpayable",
			"type": "function"
		},
		{
			"stateMutability": "payable",
			"type": "receive"
		}
	]
}