{
	"data": {
		"bytecode": {
			"linkReferences": {},
			"object": "60a06040523060805234801562000014575f80fd5b506200001f62000025565b620000d9565b7ff0c57e16840df040f15088dc2f81fe391c3923bec73e23a9662efc9c229c6a00805468010000000000000000900460ff1615620000765760405163f92ee8a960e01b815260040160405180910390fd5b80546001600160401b0390811614620000d65780546001600160401b0319166001600160401b0390811782556040519081527fc7f505b2f371ae2175ee4913f4499e1f2633a7b5936321eed1cdaeb6115181d29060200160405180910390a15b50565b60805161297c620001005f395f8181611d7f01528181611da80152611eec015261297c5ff3fe6080604052600436106101c5575f3560e01c80638129fc1c116100f2578063a7ccabdf11610092578063e1f1c4a711610062578063e1f1c4a714610520578063e5a6b10f14610535578063e74b981b14610554578063f2fde38b14610573575f80fd5b8063a7ccabdf14610492578063ad3cb1cc146104b1578063b5144fe5146104ee578063d56d229d14610502575f80fd5b806387c35bc0116100cd57806387c35bc01461040e5780638da5cb5b14610422578063938792341461045e578063a4107a781461047d575f80fd5b80638129fc1c146103d15780638206e91e146103e55780638456cb59146103fa575f80fd5b80634f1ef2861161016857806364d574361161013857806364d5743614610353578063715018a61461037f57806372c27b62146103935780637aa85528146103b2575f80fd5b80634f1ef286146102df57806352d1902d146102f25780635c975abb1461030657806363712d8414610334575f80fd5b80632f84c391116101a35780632f84c39114610256578063305a67a8146102755780633f4ba83a1461029457806346904840146102a8575f80fd5b80630179ea88146101c9578063150b7a02146101ea57806324a9d85314610233575b5f80fd5b3480156101d4575f80fd5b506101e86101e336600461246a565b610592565b005b3480156101f5575f80fd5b5061021561020436600461249e565b630a85bd0160e11b95945050505050565b6040516001600160e01b031990911681526020015b60405180910390f35b34801561023e575f80fd5b5061024860035481565b60405190815260200161022a565b348015610261575f80fd5b506101e8610270366004612535565b610779565b348015610280575f80fd5b506101e861028f366004612550565b6107c9565b34801561029f575f80fd5b506101e86108fd565b3480156102b3575f80fd5b506002546102c7906001600160a01b031681565b6040516001600160a01b03909116815260200161022a565b6101e86102ed3660046125ac565b610943565b3480156102fd575f80fd5b5061024861095e565b348015610311575f80fd5b505f805160206129078339815191525460ff16604051901515815260200161022a565b34801561033f575f80fd5b506101e861034e36600461246a565b610979565b34801561035e575f80fd5b5061037261036d366004612535565b610f3b565b60405161022a919061264e565b34801561038a575f80fd5b506101e8611140565b34801561039e575f80fd5b506101e86103ad366004612550565b611153565b3480156103bd575f80fd5b506101e86103cc36600461246a565b6111a1565b3480156103dc575f80fd5b506101e8611271565b3480156103f0575f80fd5b5061024860055481565b348015610405575f80fd5b506101e86113f2565b348015610419575f80fd5b50610372611432565b34801561042d575f80fd5b507f9016d09d72d40fdae2fd8ceac6b6234c7706214fd39c1cd1e609a0528c199300546001600160a01b03166102c7565b348015610469575f80fd5b506101e861047836600461246a565b61159d565b348015610488575f80fd5b5061024860045481565b34801561049d575f80fd5b506101e86104ac366004612535565b611a89565b3480156104bc575f80fd5b506104e1604051806040016040528060058152602001640352e302e360dc1b81525081565b60405161022a91906126e8565b3480156104f9575f80fd5b506101e8611ad8565b34801561050d575f80fd5b505f546102c7906001600160a01b031681565b34801561052b575f80fd5b5061024861271081565b348015610540575f80fd5b506001546102c7906001600160a01b031681565b34801561055f575f80fd5b506101e861056e366004612535565b611bb6565b34801561057e575f80fd5b506101e861058d366004612535565b611c06565b61059a611c40565b6105a2611c70565b5f82815260066020908152604091829020825160a0810184528154815260018201546001600160a01b031692810192909252600281015492820192909252600382015460ff161515606082018190526004909201546080820152906106225760405162461bcd60e51b81526004016106199061271a565b60405180910390fd5b60208101516001600160a01b031633146106735760405162461bcd60e51b81526020600482015260126024820152712737ba103634b9ba34b7339039b2b63632b960711b6044820152606401610619565b5f82116106c25760405162461bcd60e51b815260206004820152601f60248201527f5072696365206d7573742062652067726561746572207468616e207a65726f006044820152606401610619565b6003546106d0905f1961275a565b8211156107105760405162461bcd60e51b815260206004820152600e60248201526d0a0e4d2c6ca40e8dede40d0d2ced60931b6044820152606401610619565b5f838152600660205260409081902083905551839081907ff7adc9a0380a940c6058d78194df6a9b9fa5bb431bbad15194913bb611f3f4f7906107569086815260200190565b60405180910390a35061077560015f8051602061292783398151915255565b5050565b610781611cba565b6001600160a01b0381166107a75760405162461bcd60e51b815260040161061990612779565b600180546001600160a01b0319166001600160a01b0392909216919091179055565b6107d1611c40565b6107d9611c70565b5f81815260066020908152604091829020825160a0810184528154815260018201546001600160a01b031692810192909252600281015492820192909252600382015460ff161515606082018190526004909201546080820152906108505760405162461bcd60e51b81526004016106199061271a565b60208101516001600160a01b031633146108a15760405162461bcd60e51b81526020600482015260126024820152712737ba103634b9ba34b7339039b2b63632b960711b6044820152606401610619565b5f82815260066020526040808220600301805460ff1916905551839182917fafd0a85a3f09cebbc7d9fcde08e8a7d0ebb0aa7d768a030915c3816a053d3c7a9190a3506108fa60015f8051602061292783398151915255565b50565b610905611cba565b61090d611d15565b6040513381527f5db9ee0a495bf2e6ff9c91a7834c1ba4fdd244a5e8aa4e537bd38aeae4b073aa906020015b60405180910390a1565b61094b611d74565b61095482611e18565b6107758282611e20565b5f610967611ee1565b505f805160206128e783398151915290565b610981611c40565b610989611c70565b5f82815260066020908152604091829020825160a0810184528154815260018201546001600160a01b031692810192909252600281015492820192909252600382015460ff16151560608201819052600490920154608082015290610a005760405162461bcd60e51b81526004016106199061271a565b60208101515f546040516331a9108f60e11b8152600481018590526001600160a01b039283169290911690636352211e90602401602060405180830381865afa158015610a4f573d5f803e3d5ffd5b505050506040513d601f19601f82011682018060405250810190610a7391906127a2565b6001600160a01b031614610ac95760405162461bcd60e51b815260206004820152601960248201527f53656c6c6572206e6f206c6f6e676572206f776e73204e4654000000000000006044820152606401610619565b5f5460405163020604bf60e21b81526004810184905230916001600160a01b03169063081812fc90602401602060405180830381865afa158015610b0f573d5f803e3d5ffd5b505050506040513d601f19601f82011682018060405250810190610b3391906127a2565b6001600160a01b03161480610bb857505f54602082015160405163e985e9c560e01b81526001600160a01b03918216600482015230602482015291169063e985e9c590604401602060405180830381865afa158015610b94573d5f803e3d5ffd5b505050506040513d601f19601f82011682018060405250810190610bb891906127bd565b610bff5760405162461bcd60e51b815260206004820152601860248201527713585c9ad95d1c1b1858d9481b9bdd08185c1c1c9bdd995960421b6044820152606401610619565b5f805f9054906101000a90046001600160a01b03166001600160a01b031663262e3ec36040518163ffffffff1660e01b8152600401602060405180830381865afa158015610c4f573d5f803e3d5ffd5b505050506040513d601f19601f82011682018060405250810190610c7391906127a2565b6001600160a01b03166313f85ace846040518263ffffffff1660e01b8152600401610ca091815260200190565b60e060405180830381865afa158015610cbb573d5f803e3d5ffd5b505050506040513d601f19601f82011682018060405250810190610cdf91906127dc565b90508060c00151600114610d265760405162461bcd60e51b815260206004820152600e60248201526d27232a1037b71036b4b9b9b4b7b760911b6044820152606401610619565b5f612710600354845f0151610d3b919061285e565b610d45919061275a565b90505f81845f0151610d579190612875565b600254600154919250610d79916001600160a01b039081169133911685611f2a565b6020840151600154610d99916001600160a01b0390911690339084611f2a565b5f54600480546040516331db4e9560e21b8152339281019290925260248201526001600160a01b039091169063c76d3a54906044015f604051808303815f87803b158015610de5575f80fd5b505af1158015610df7573d5f803e3d5ffd5b50505f5460208701516005546040516331db4e9560e21b81526001600160a01b03928316600482015260248101919091529116925063c76d3a5491506044015f604051808303815f87803b158015610e4d575f80fd5b505af1158015610e5f573d5f803e3d5ffd5b50505f546020870151604051632142170760e11b81526001600160a01b039182166004820152336024820152604481018a9052911692506342842e0e91506064015f604051808303815f87803b158015610eb7575f80fd5b505af1158015610ec9573d5f803e3d5ffd5b5050505f87815260066020908152604091829020600301805460ff1916905586519151918252339250879189917f282f31083d7e842b9c65653aa612e0d3b5eed0226700784e314a48d82a3c2a5e910160405180910390a45050505061077560015f8051602061292783398151915255565b60606001600160a01b038216610f8c5760405162461bcd60e51b8152602060048201526016602482015275496e76616c69642077616c6c6574206164647265737360501b6044820152606401610619565b5f60015b600754811015610ff0575f8181526006602052604090206003015460ff168015610fd557505f818152600660205260409020600101546001600160a01b038581169116145b15610fe85781610fe481612888565b9250505b600101610f90565b505f8167ffffffffffffffff81111561100b5761100b612567565b60405190808252806020026020018201604052801561104457816020015b611031612435565b8152602001906001900390816110295790505b5090505f60015b6007548110801561105b57508382105b15611136575f8181526006602052604090206003015460ff16801561109b57505f818152600660205260409020600101546001600160a01b038781169116145b15611124576040805160a0810182528281525f8381526006602081815284832060018101546001600160a01b031682860152805495850195909552600385015460ff16151560608501529185905290526002909101546080820152835184908490811061110a5761110a6128a0565b6020026020010181905250818061112090612888565b9250505b8061112e81612888565b91505061104b565b5090949350505050565b611148611cba565b6111515f611f8a565b565b61115b611cba565b61271081111561119c5760405162461bcd60e51b815260206004820152600c60248201526b08ccaca40e8dede40d0d2ced60a31b6044820152606401610619565b600355565b6111a9611cba565b5f82116112075760405162461bcd60e51b815260206004820152602660248201527f427579657220706f696e7473206d7573742062652067726561746572207468616044820152656e207a65726f60d01b6064820152608401610619565b5f81116112665760405162461bcd60e51b815260206004820152602760248201527f53656c6c657220706f696e7473206d7573742062652067726561746572207468604482015266616e207a65726f60c81b6064820152608401610619565b600491909155600555565b7ff0c57e16840df040f15088dc2f81fe391c3923bec73e23a9662efc9c229c6a008054600160401b810460ff16159067ffffffffffffffff165f811580156112b65750825b90505f8267ffffffffffffffff1660011480156112d25750303b155b9050811580156112e0575080155b156112fe5760405163f92ee8a960e01b815260040160405180910390fd5b845467ffffffffffffffff19166001178555831561132857845460ff60401b1916600160401b1785555b61133133611ffa565b61133961200b565b61134161201b565b611349612023565b600180546001600160a01b031990811673f0877917ae5e44772bb9977508ed368a5332d1111782556002805490911673b81f514b1488d971647e1164554e9a504c0a27291790556109c46003556113886004556101f460055560075583156113eb57845460ff60401b19168555604051600181527fc7f505b2f371ae2175ee4913f4499e1f2633a7b5936321eed1cdaeb6115181d29060200160405180910390a15b5050505050565b6113fa611cba565b611402612033565b6040513381527f62e78cea01bee320cd4e420270b5ea74000d11b0c9f74754ebdbfc544b05a25890602001610939565b60605f60015b600754811015611471575f8181526006602052604090206003015460ff1615611469578161146581612888565b9250505b600101611438565b505f8167ffffffffffffffff81111561148c5761148c612567565b6040519080825280602002602001820160405280156114c557816020015b6114b2612435565b8152602001906001900390816114aa5790505b5090505f60015b600754811080156114dc57508382105b15611594575f8181526006602052604090206003015460ff1615611582576040805160a0810182525f838152600660208181528483206004810154855260018101546001600160a01b031682860152805495850195909552600385015460ff161515606085015291859052905260029091015460808201528351849084908110611568576115686128a0565b6020026020010181905250818061157e90612888565b9250505b8061158c81612888565b9150506114cc565b50909392505050565b6115a5611c40565b6115ad611c70565b5f546001600160a01b03166115fb5760405162461bcd60e51b81526020600482015260146024820152731391950818dbdb9d1c9858dd081b9bdd081cd95d60621b6044820152606401610619565b5f811161164a5760405162461bcd60e51b815260206004820152601f60248201527f5072696365206d7573742062652067726561746572207468616e207a65726f006044820152606401610619565b600354611658905f1961275a565b8111156116985760405162461bcd60e51b815260206004820152600e60248201526d0a0e4d2c6ca40e8dede40d0d2ced60931b6044820152606401610619565b5f546040516331a9108f60e11b81526004810184905233916001600160a01b031690636352211e90602401602060405180830381865afa1580156116de573d5f803e3d5ffd5b505050506040513d601f19601f8201168201806040525081019061170291906127a2565b6001600160a01b03161461174a5760405162461bcd60e51b815260206004820152600f60248201526e2737ba103a37b5b2b71037bbb732b960891b6044820152606401610619565b5f5460405163020604bf60e21b81526004810184905230916001600160a01b03169063081812fc90602401602060405180830381865afa158015611790573d5f803e3d5ffd5b505050506040513d601f19601f820116820180604052508101906117b491906127a2565b6001600160a01b0316148061183357505f5460405163e985e9c560e01b81523360048201523060248201526001600160a01b039091169063e985e9c590604401602060405180830381865afa15801561180f573d5f803e3d5ffd5b505050506040513d601f19601f8201168201806040525081019061183391906127bd565b61187a5760405162461bcd60e51b815260206004820152601860248201527713585c9ad95d1c1b1858d9481b9bdd08185c1c1c9bdd995960421b6044820152606401610619565b5f805f9054906101000a90046001600160a01b03166001600160a01b031663262e3ec36040518163ffffffff1660e01b8152600401602060405180830381865afa1580156118ca573d5f803e3d5ffd5b505050506040513d601f19601f820116820180604052508101906118ee91906127a2565b6001600160a01b03166313f85ace846040518263ffffffff1660e01b815260040161191b91815260200190565b60e060405180830381865afa158015611936573d5f803e3d5ffd5b505050506040513d601f19601f8201168201806040525081019061195a91906127dc565b90508060c001516001146119a15760405162461bcd60e51b815260206004820152600e60248201526d27232a1037b71036b4b9b9b4b7b760911b6044820152606401610619565b600780545f91826119b183612888565b909155506040805160a081018252858152336020808301828152838501868152600160608601818152608087018d81525f8a81526006875289902097518855935191870180546001600160a01b0319166001600160a01b0390931692909217909155905160028601555160038501805460ff19169115159190911790555160049093019290925591518681529293509091869184917f6ef37e39d2e46cfe264addbe7be8373e001f86ef6a9f4fa7e51aa343f3d80725910160405180910390a4505061077560015f8051602061292783398151915255565b611a91611cba565b6001600160a01b038116611ab75760405162461bcd60e51b815260040161061990612779565b5f80546001600160a01b0319166001600160a01b0392909216919091179055565b611ae0611cba565b611ae8611c70565b5f60015b600754811015611b6b575f8181526006602052604090206003015460ff1615611b63575f818152600660205260409020600301805460ff1916905581611b3181612888565b92505080817fafd0a85a3f09cebbc7d9fcde08e8a7d0ebb0aa7d768a030915c3816a053d3c7a60405160405180910390a35b600101611aec565b506040518181527f2e69ddc08b8f7179d105e8ecf149432aa6b0c0003e8ef8efef6e46ed60256e949060200160405180910390a15061115160015f8051602061292783398151915255565b611bbe611cba565b6001600160a01b038116611be45760405162461bcd60e51b815260040161061990612779565b600280546001600160a01b0319166001600160a01b0392909216919091179055565b611c0e611cba565b6001600160a01b038116611c3757604051631e4fbdf760e01b81525f6004820152602401610619565b6108fa81611f8a565b5f805160206129078339815191525460ff16156111515760405163d93c066560e01b815260040160405180910390fd5b5f80516020612927833981519152805460011901611ca157604051633ee5aeb560e01b815260040160405180910390fd5b60029055565b60015f8051602061292783398151915255565b33611cec7f9016d09d72d40fdae2fd8ceac6b6234c7706214fd39c1cd1e609a0528c199300546001600160a01b031690565b6001600160a01b0316146111515760405163118cdaa760e01b8152336004820152602401610619565b611d1d61207b565b5f80516020612907833981519152805460ff191681557f5db9ee0a495bf2e6ff9c91a7834c1ba4fdd244a5e8aa4e537bd38aeae4b073aa335b6040516001600160a01b03909116815260200160405180910390a150565b306001600160a01b037f0000000000000000000000000000000000000000000000000000000000000000161480611dfa57507f00000000000000000000000000000000000000000000000000000000000000006001600160a01b0316611dee5f805160206128e7833981519152546001600160a01b031690565b6001600160a01b031614155b156111515760405163703e46dd60e11b815260040160405180910390fd5b6108fa611cba565b816001600160a01b03166352d1902d6040518163ffffffff1660e01b8152600401602060405180830381865afa925050508015611e7a575060408051601f3d908101601f19168201909252611e77918101906128b4565b60015b611ea257604051634c9c8ce360e01b81526001600160a01b0383166004820152602401610619565b5f805160206128e78339815191528114611ed257604051632a87526960e21b815260048101829052602401610619565b611edc83836120aa565b505050565b306001600160a01b037f000000000000000000000000000000000000000000000000000000000000000016146111515760405163703e46dd60e11b815260040160405180910390fd5b604080516001600160a01b0385811660248301528416604482015260648082018490528251808303909101815260849091019091526020810180516001600160e01b03166323b872dd60e01b179052611f849085906120ff565b50505050565b7f9016d09d72d40fdae2fd8ceac6b6234c7706214fd39c1cd1e609a0528c19930080546001600160a01b031981166001600160a01b03848116918217845560405192169182907f8be0079c531659141344cd1fd0a4f28419497f9722a3daafe3b4186f6b6457e0905f90a3505050565b612002612160565b6108fa816121a9565b612013612160565b6111516121b1565b611151612160565b61202b612160565b6111516121d1565b61203b611c40565b5f80516020612907833981519152805460ff191660011781557f62e78cea01bee320cd4e420270b5ea74000d11b0c9f74754ebdbfc544b05a25833611d56565b5f805160206129078339815191525460ff1661115157604051638dfc202b60e01b815260040160405180910390fd5b6120b3826121d9565b6040516001600160a01b038316907fbc7cd75a20ee27fd9adebab32041f755214dbc6bffa90cc0225b39da2e5c2d3b905f90a28051156120f757611edc828261223c565b6107756122b0565b5f6121136001600160a01b038416836122cf565b905080515f1415801561213757508080602001905181019061213591906127bd565b155b15611edc57604051635274afe760e01b81526001600160a01b0384166004820152602401610619565b7ff0c57e16840df040f15088dc2f81fe391c3923bec73e23a9662efc9c229c6a0054600160401b900460ff1661115157604051631afcd79f60e31b815260040160405180910390fd5b611c0e612160565b6121b9612160565b5f80516020612907833981519152805460ff19169055565b611ca7612160565b806001600160a01b03163b5f0361220e57604051634c9c8ce360e01b81526001600160a01b0382166004820152602401610619565b5f805160206128e783398151915280546001600160a01b0319166001600160a01b0392909216919091179055565b60605f80846001600160a01b03168460405161225891906128cb565b5f60405180830381855af49150503d805f8114612290576040519150601f19603f3d011682016040523d82523d5f602084013e612295565b606091505b50915091506122a58583836122e3565b925050505b92915050565b34156111515760405163b398979f60e01b815260040160405180910390fd5b60606122dc83835f61233f565b9392505050565b6060826122f8576122f3826123d8565b6122dc565b815115801561230f57506001600160a01b0384163b155b1561233857604051639996b31560e01b81526001600160a01b0385166004820152602401610619565b5092915050565b6060814710156123645760405163cd78605960e01b8152306004820152602401610619565b5f80856001600160a01b0316848660405161237f91906128cb565b5f6040518083038185875af1925050503d805f81146123b9576040519150601f19603f3d011682016040523d82523d5f602084013e6123be565b606091505b50915091506123ce868383612401565b9695505050505050565b8051156123e85780518082602001fd5b60405163d6bda27560e01b815260040160405180910390fd5b6060826122f8576122f38280511561241c5780518082602001fd5b604051630a12f52160e11b815260040160405180910390fd5b6040518060a001604052805f81526020015f6001600160a01b031681526020015f81526020015f151581526020015f81525090565b5f806040838503121561247b575f80fd5b50508035926020909101359150565b6001600160a01b03811681146108fa575f80fd5b5f805f805f608086880312156124b2575f80fd5b85356124bd8161248a565b945060208601356124cd8161248a565b935060408601359250606086013567ffffffffffffffff808211156124f0575f80fd5b818801915088601f830112612503575f80fd5b813581811115612511575f80fd5b896020828501011115612522575f80fd5b9699959850939650602001949392505050565b5f60208284031215612545575f80fd5b81356122dc8161248a565b5f60208284031215612560575f80fd5b5035919050565b634e487b7160e01b5f52604160045260245ffd5b604051601f8201601f1916810167ffffffffffffffff811182821017156125a4576125a4612567565b604052919050565b5f80604083850312156125bd575f80fd5b82356125c88161248a565b915060208381013567ffffffffffffffff808211156125e5575f80fd5b818601915086601f8301126125f8575f80fd5b81358181111561260a5761260a612567565b61261c601f8201601f1916850161257b565b91508082528784828501011115612631575f80fd5b80848401858401375f848284010152508093505050509250929050565b602080825282518282018190525f919060409081850190868401855b828110156126b957815180518552868101516001600160a01b03168786015285810151868601526060808201511515908601526080908101519085015260a0909301929085019060010161266a565b5091979650505050505050565b5f5b838110156126e05781810151838201526020016126c8565b50505f910152565b602081525f82518060208401526127068160408501602087016126c6565b601f01601f19169190910160400192915050565b6020808252601290820152714c697374696e67206e6f742061637469766560701b604082015260600190565b634e487b7160e01b5f52601160045260245ffd5b5f8261277457634e487b7160e01b5f52601260045260245ffd5b500490565b6020808252600f908201526e496e76616c6964206164647265737360881b604082015260600190565b5f602082840312156127b2575f80fd5b81516122dc8161248a565b5f602082840312156127cd575f80fd5b815180151581146122dc575f80fd5b5f60e082840312156127ec575f80fd5b60405160e0810181811067ffffffffffffffff8211171561280f5761280f612567565b8060405250825181526020830151602082015260408301516040820152606083015160608201526080830151608082015260a083015160a082015260c083015160c08201528091505092915050565b80820281158282048414176122aa576122aa612746565b818103818111156122aa576122aa612746565b5f6001820161289957612899612746565b5060010190565b634e487b7160e01b5f52603260045260245ffd5b5f602082840312156128c4575f80fd5b5051919050565b5f82516128dc8184602087016126c6565b919091019291505056fe360894a13ba1a3210667c828492db98dca3e2076cc3735a920a3ca505d382bbccd5ed15c6e187e77e9aee88184c21f4f2182ab5827cb3b7e07fbedcd63f033009b779b17422d0df92223018b32b4d1fa46e071723d6817e2486d003becc55f00a264697066735822122002e48d3b18bd005ece1f597afdf6c439547549649c5808bd8d444f332d5957e064736f6c63430008180033",
			"opcodes": "PUSH1 0xA0 PUSH1 0x40 MSTORE ADDRESS PUSH1 0x80 MSTORE CALLVALUE DUP1 ISZERO PUSH3 0x14 JUMPI PUSH0 DUP1 REVERT JUMPDEST POP PUSH3 0x1F PUSH3 0x25 JUMP JUMPDEST PUSH3 0xD9 JUMP JUMPDEST PUSH32 0xF0C57E16840DF040F15088DC2F81FE391C3923BEC73E23A9662EFC9C229C6A00 DUP1 SLOAD PUSH9 0x10000000000000000 SWAP1 DIV PUSH1 0xFF AND ISZERO PUSH3 0x76 JUMPI PUSH1 0x40 MLOAD PUSH4 0xF92EE8A9 PUSH1 0xE0 SHL DUP2 MSTORE PUSH1 0x4 ADD PUSH1 0x40 MLOAD DUP1 SWAP2 SUB SWAP1 REVERT JUMPDEST DUP1 SLOAD PUSH1 0x1 PUSH1 0x1 PUSH1 0x40 SHL SUB SWAP1 DUP2 AND EQ PUSH3 0xD6 JUMPI DUP1 SLOAD PUSH1 0x1 PUSH1 0x1 PUSH1 0x40 SHL SUB NOT AND PUSH1 0x1 PUSH1 0x1 PUSH1 0x40 SHL SUB SWAP1 DUP2 OR DUP3 SSTORE PUSH1 0x40 MLOAD SWAP1 DUP2 MSTORE PUSH32 0xC7F505B2F371AE2175EE4913F4499E1F2633A7B5936321EED1CDAEB6115181D2 SWAP1 PUSH1 0x20 ADD PUSH1 0x40 MLOAD DUP1 SWAP2 SUB SWAP1 LOG1 JUMPDEST POP JUMP JUMPDEST PUSH1 0x80 MLOAD PUSH2 0x297C PUSH3 0x100 PUSH0 CODECOPY PUSH0 DUP2 DUP2 PUSH2 0x1D7F ADD MSTORE DUP2 DUP2 PUSH2 0x1DA8 ADD MSTORE PUSH2 0x1EEC ADD MSTORE PUSH2 0x297C PUSH0 RETURN INVALID PUSH1 0x80 PUSH1 0x40 MSTORE PUSH1 0x4 CALLDATASIZE LT PUSH2 0x1C5 JUMPI PUSH0 CALLDATALOAD PUSH1 0xE0 SHR DUP1 PUSH4 0x8129FC1C GT PUSH2 0xF2 JUMPI DUP1 PUSH4 0xA7CCABDF GT PUSH2 0x92 JUMPI DUP1 PUSH4 0xE1F1C4A7 GT PUSH2 0x62 JUMPI DUP1 PUSH4 0xE1F1C4A7 EQ PUSH2 0x520 JUMPI DUP1 PUSH4 0xE5A6B10F EQ PUSH2 0x535 JUMPI DUP1 PUSH4 0xE74B981B EQ PUSH2 0x554 JUMPI DUP1 PUSH4 0xF2FDE38B EQ PUSH2 0x573 JUMPI PUSH0 DUP1 REVERT JUMPDEST DUP1 PUSH4 0xA7CCABDF EQ PUSH2 0x492 JUMPI DUP1 PUSH4 0xAD3CB1CC EQ PUSH2 0x4B1 JUMPI DUP1 PUSH4 0xB5144FE5 EQ PUSH2 0x4EE JUMPI DUP1 PUSH4 0xD56D229D EQ PUSH2 0x502 JUMPI PUSH0 DUP1 REVERT JUMPDEST DUP1 PUSH4 0x87C35BC0 GT PUSH2 0xCD JUMPI DUP1 PUSH4 0x87C35BC0 EQ PUSH2 0x40E JUMPI DUP1 PUSH4 0x8DA5CB5B EQ PUSH2 0x422 JUMPI DUP1 PUSH4 0x93879234 EQ PUSH2 0x45E JUMPI DUP1 PUSH4 0xA4107A78 EQ PUSH2 0x47D JUMPI PUSH0 DUP1 REVERT JUMPDEST DUP1 PUSH4 0x8129FC1C EQ PUSH2 0x3D1 JUMPI DUP1 PUSH4 0x8206E91E EQ PUSH2 0x3E5 JUMPI DUP1 PUSH4 0x8456CB59 EQ PUSH2 0x3FA JUMPI PUSH0 DUP1 REVERT JUMPDEST DUP1 PUSH4 0x4F1EF286 GT PUSH2 0x168 JUMPI DUP1 PUSH4 0x64D57436 GT PUSH2 0x138 JUMPI DUP1 PUSH4 0x64D57436 EQ PUSH2 0x353 JUMPI DUP1 PUSH4 0x715018A6 EQ PUSH2 0x37F JUMPI DUP1 PUSH4 0x72C27B62 EQ PUSH2 0x393 JUMPI DUP1 PUSH4 0x7AA85528 EQ PUSH2 0x3B2 JUMPI PUSH0 DUP1 REVERT JUMPDEST DUP1 PUSH4 0x4F1EF286 EQ PUSH2 0x2DF JUMPI DUP1 PUSH4 0x52D1902D EQ PUSH2 0x2F2 JUMPI DUP1 PUSH4 0x5C975ABB EQ PUSH2 0x306 JUMPI DUP1 PUSH4 0x63712D84 EQ PUSH2 0x334 JUMPI PUSH0 DUP1 REVERT JUMPDEST DUP1 PUSH4 0x2F84C391 GT PUSH2 0x1A3 JUMPI DUP1 PUSH4 0x2F84C391 EQ PUSH2 0x256 JUMPI DUP1 PUSH4 0x305A67A8 EQ PUSH2 0x275 JUMPI DUP1 PUSH4 0x3F4BA83A EQ PUSH2 0x294 JUMPI DUP1 PUSH4 0x46904840 EQ PUSH2 0x2A8 JUMPI PUSH0 DUP1 REVERT JUMPDEST DUP1 PUSH4 0x179EA88 EQ PUSH2 0x1C9 JUMPI DUP1 PUSH4 0x150B7A02 EQ PUSH2 0x1EA JUMPI DUP1 PUSH4 0x24A9D853 EQ PUSH2 0x233 JUMPI JUMPDEST PUSH0 DUP1 REVERT JUMPDEST CALLVALUE DUP1 ISZERO PUSH2 0x1D4 JUMPI PUSH0 DUP1 REVERT JUMPDEST POP PUSH2 0x1E8 PUSH2 0x1E3 CALLDATASIZE PUSH1 0x4 PUSH2 0x246A JUMP JUMPDEST PUSH2 0x592 JUMP JUMPDEST STOP JUMPDEST CALLVALUE DUP1 ISZERO PUSH2 0x1F5 JUMPI PUSH0 DUP1 REVERT JUMPDEST POP PUSH2 0x215 PUSH2 0x204 CALLDATASIZE PUSH1 0x4 PUSH2 0x249E JUMP JUMPDEST PUSH4 0xA85BD01 PUSH1 0xE1 SHL SWAP6 SWAP5 POP POP POP POP POP JUMP JUMPDEST PUSH1 0x40 MLOAD PUSH1 0x1 PUSH1 0x1 PUSH1 0xE0 SHL SUB NOT SWAP1 SWAP2 AND DUP2 MSTORE PUSH1 0x20 ADD JUMPDEST PUSH1 0x40 MLOAD DUP1 SWAP2 SUB SWAP1 RETURN JUMPDEST CALLVALUE DUP1 ISZERO PUSH2 0x23E JUMPI PUSH0 DUP1 REVERT JUMPDEST POP PUSH2 0x248 PUSH1 0x3 SLOAD DUP2 JUMP JUMPDEST PUSH1 0x40 MLOAD SWAP1 DUP2 MSTORE PUSH1 0x20 ADD PUSH2 0x22A JUMP JUMPDEST CALLVALUE DUP1 ISZERO PUSH2 0x261 JUMPI PUSH0 DUP1 REVERT JUMPDEST POP PUSH2 0x1E8 PUSH2 0x270 CALLDATASIZE PUSH1 0x4 PUSH2 0x2535 JUMP JUMPDEST PUSH2 0x779 JUMP JUMPDEST CALLVALUE DUP1 ISZERO PUSH2 0x280 JUMPI PUSH0 DUP1 REVERT JUMPDEST POP PUSH2 0x1E8 PUSH2 0x28F CALLDATASIZE PUSH1 0x4 PUSH2 0x2550 JUMP JUMPDEST PUSH2 0x7C9 JUMP JUMPDEST CALLVALUE DUP1 ISZERO PUSH2 0x29F JUMPI PUSH0 DUP1 REVERT JUMPDEST POP PUSH2 0x1E8 PUSH2 0x8FD JUMP JUMPDEST CALLVALUE DUP1 ISZERO PUSH2 0x2B3 JUMPI PUSH0 DUP1 REVERT JUMPDEST POP PUSH1 0x2 SLOAD PUSH2 0x2C7 SWAP1 PUSH1 0x1 PUSH1 0x1 PUSH1 0xA0 SHL SUB AND DUP2 JUMP JUMPDEST PUSH1 0x40 MLOAD PUSH1 0x1 PUSH1 0x1 PUSH1 0xA0 SHL SUB SWAP1 SWAP2 AND DUP2 MSTORE PUSH1 0x20 ADD PUSH2 0x22A JUMP JUMPDEST PUSH2 0x1E8 PUSH2 0x2ED CALLDATASIZE PUSH1 0x4 PUSH2 0x25AC JUMP JUMPDEST PUSH2 0x943 JUMP JUMPDEST CALLVALUE DUP1 ISZERO PUSH2 0x2FD JUMPI PUSH0 DUP1 REVERT JUMPDEST POP PUSH2 0x248 PUSH2 0x95E JUMP JUMPDEST CALLVALUE DUP1 ISZERO PUSH2 0x311 JUMPI PUSH0 DUP1 REVERT JUMPDEST POP PUSH0 DUP1 MLOAD PUSH1 0x20 PUSH2 0x2907 DUP4 CODECOPY DUP2 MLOAD SWAP2 MSTORE SLOAD PUSH1 0xFF AND PUSH1 0x40 MLOAD SWAP1 ISZERO ISZERO DUP2 MSTORE PUSH1 0x20 ADD PUSH2 0x22A JUMP JUMPDEST CALLVALUE DUP1 ISZERO PUSH2 0x33F JUMPI PUSH0 DUP1 REVERT JUMPDEST POP PUSH2 0x1E8 PUSH2 0x34E CALLDATASIZE PUSH1 0x4 PUSH2 0x246A JUMP JUMPDEST PUSH2 0x979 JUMP JUMPDEST CALLVALUE DUP1 ISZERO PUSH2 0x35E JUMPI PUSH0 DUP1 REVERT JUMPDEST POP PUSH2 0x372 PUSH2 0x36D CALLDATASIZE PUSH1 0x4 PUSH2 0x2535 JUMP JUMPDEST PUSH2 0xF3B JUMP JUMPDEST PUSH1 0x40 MLOAD PUSH2 0x22A SWAP2 SWAP1 PUSH2 0x264E JUMP JUMPDEST CALLVALUE DUP1 ISZERO PUSH2 0x38A JUMPI PUSH0 DUP1 REVERT JUMPDEST POP PUSH2 0x1E8 PUSH2 0x1140 JUMP JUMPDEST CALLVALUE DUP1 ISZERO PUSH2 0x39E JUMPI PUSH0 DUP1 REVERT JUMPDEST POP PUSH2 0x1E8 PUSH2 0x3AD CALLDATASIZE PUSH1 0x4 PUSH2 0x2550 JUMP JUMPDEST PUSH2 0x1153 JUMP JUMPDEST CALLVALUE DUP1 ISZERO PUSH2 0x3BD JUMPI PUSH0 DUP1 REVERT JUMPDEST POP PUSH2 0x1E8 PUSH2 0x3CC CALLDATASIZE PUSH1 0x4 PUSH2 0x246A JUMP JUMPDEST PUSH2 0x11A1 JUMP JUMPDEST CALLVALUE DUP1 ISZERO PUSH2 0x3DC JUMPI PUSH0 DUP1 REVERT JUMPDEST POP PUSH2 0x1E8 PUSH2 0x1271 JUMP JUMPDEST CALLVALUE DUP1 ISZERO PUSH2 0x3F0 JUMPI PUSH0 DUP1 REVERT JUMPDEST POP PUSH2 0x248 PUSH1 0x5 SLOAD DUP2 JUMP JUMPDEST CALLVALUE DUP1 ISZERO PUSH2 0x405 JUMPI PUSH0 DUP1 REVERT JUMPDEST POP PUSH2 0x1E8 PUSH2 0x13F2 JUMP JUMPDEST CALLVALUE DUP1 ISZERO PUSH2 0x419 JUMPI PUSH0 DUP1 REVERT JUMPDEST POP PUSH2 0x372 PUSH2 0x1432 JUMP JUMPDEST CALLVALUE DUP1 ISZERO PUSH2 0x42D JUMPI PUSH0 DUP1 REVERT JUMPDEST POP PUSH32 0x9016D09D72D40FDAE2FD8CEAC6B6234C7706214FD39C1CD1E609A0528C199300 SLOAD PUSH1 0x1 PUSH1 0x1 PUSH1 0xA0 SHL SUB AND PUSH2 0x2C7 JUMP JUMPDEST CALLVALUE DUP1 ISZERO PUSH2 0x469 JUMPI PUSH0 DUP1 REVERT JUMPDEST POP PUSH2 0x1E8 PUSH2 0x478 CALLDATASIZE PUSH1 0x4 PUSH2 0x246A JUMP JUMPDEST PUSH2 0x159D JUMP JUMPDEST CALLVALUE DUP1 ISZERO PUSH2 0x488 JUMPI PUSH0 DUP1 REVERT JUMPDEST POP PUSH2 0x248 PUSH1 0x4 SLOAD DUP2 JUMP JUMPDEST CALLVALUE DUP1 ISZERO PUSH2 0x49D JUMPI PUSH0 DUP1 REVERT JUMPDEST POP PUSH2 0x1E8 PUSH2 0x4AC CALLDATASIZE PUSH1 0x4 PUSH2 0x2535 JUMP JUMPDEST PUSH2 0x1A89 JUMP JUMPDEST CALLVALUE DUP1 ISZERO PUSH2 0x4BC JUMPI PUSH0 DUP1 REVERT JUMPDEST POP PUSH2 0x4E1 PUSH1 0x40 MLOAD DUP1 PUSH1 0x40 ADD PUSH1 0x40 MSTORE DUP1 PUSH1 0x5 DUP2 MSTORE PUSH1 0x20 ADD PUSH5 0x352E302E3 PUSH1 0xDC SHL DUP2 MSTORE POP DUP2 JUMP JUMPDEST PUSH1 0x40 MLOAD PUSH2 0x22A SWAP2 SWAP1 PUSH2 0x26E8 JUMP JUMPDEST CALLVALUE DUP1 ISZERO PUSH2 0x4F9 JUMPI PUSH0 DUP1 REVERT JUMPDEST POP PUSH2 0x1E8 PUSH2 0x1AD8 JUMP JUMPDEST CALLVALUE DUP1 ISZERO PUSH2 0x50D JUMPI PUSH0 DUP1 REVERT JUMPDEST POP PUSH0 SLOAD PUSH2 0x2C7 SWAP1 PUSH1 0x1 PUSH1 0x1 PUSH1 0xA0 SHL SUB AND DUP2 JUMP JUMPDEST CALLVALUE DUP1 ISZERO PUSH2 0x52B JUMPI PUSH0 DUP1 REVERT JUMPDEST POP PUSH2 0x248 PUSH2 0x2710 DUP2 JUMP JUMPDEST CALLVALUE DUP1 ISZERO PUSH2 0x540 JUMPI PUSH0 DUP1 REVERT JUMPDEST POP PUSH1 0x1 SLOAD PUSH2 0x2C7 SWAP1 PUSH1 0x1 PUSH1 0x1 PUSH1 0xA0 SHL SUB AND DUP2 JUMP JUMPDEST CALLVALUE DUP1 ISZERO PUSH2 0x55F JUMPI PUSH0 DUP1 REVERT JUMPDEST POP PUSH2 0x1E8 PUSH2 0x56E CALLDATASIZE PUSH1 0x4 PUSH2 0x2535 JUMP JUMPDEST PUSH2 0x1BB6 JUMP JUMPDEST CALLVALUE DUP1 ISZERO PUSH2 0x57E JUMPI PUSH0 DUP1 REVERT JUMPDEST POP PUSH2 0x1E8 PUSH2 0x58D CALLDATASIZE PUSH1 0x4 PUSH2 0x2535 JUMP JUMPDEST PUSH2 0x1C06 JUMP JUMPDEST PUSH2 0x59A PUSH2 0x1C40 JUMP JUMPDEST PUSH2 0x5A2 PUSH2 0x1C70 JUMP JUMPDEST PUSH0 DUP3 DUP2 MSTORE PUSH1 0x6 PUSH1 0x20 SWAP1 DUP2 MSTORE PUSH1 0x40 SWAP2 DUP3 SWAP1 KECCAK256 DUP3 MLOAD PUSH1 0xA0 DUP2 ADD DUP5 MSTORE DUP2 SLOAD DUP2 MSTORE PUSH1 0x1 DUP3 ADD SLOAD PUSH1 0x1 PUSH1 0x1 PUSH1 0xA0 SHL SUB AND SWAP3 DUP2 ADD SWAP3 SWAP1 SWAP3 MSTORE PUSH1 0x2 DUP2 ADD SLOAD SWAP3 DUP3 ADD SWAP3 SWAP1 SWAP3 MSTORE PUSH1 0x3 DUP3 ADD SLOAD PUSH1 0xFF AND ISZERO ISZERO PUSH1 0x60 DUP3 ADD DUP2 SWAP1 MSTORE PUSH1 0x4 SWAP1 SWAP3 ADD SLOAD PUSH1 0x80 DUP3 ADD MSTORE SWAP1 PUSH2 0x622 JUMPI PUSH1 0x40 MLOAD PUSH3 0x461BCD PUSH1 0xE5 SHL DUP2 MSTORE PUSH1 0x4 ADD PUSH2 0x619 SWAP1 PUSH2 0x271A JUMP JUMPDEST PUSH1 0x40 MLOAD DUP1 SWAP2 SUB SWAP1 REVERT JUMPDEST PUSH1 0x20 DUP2 ADD MLOAD PUSH1 0x1 PUSH1 0x1 PUSH1 0xA0 SHL SUB AND CALLER EQ PUSH2 0x673 JUMPI PUSH1 0x40 MLOAD PUSH3 0x461BCD PUSH1 0xE5 SHL DUP2 MSTORE PUSH1 0x20 PUSH1 0x4 DUP3 ADD MSTORE PUSH1 0x12 PUSH1 0x24 DUP3 ADD MSTORE PUSH18 0x2737BA103634B9BA34B7339039B2B63632B9 PUSH1 0x71 SHL PUSH1 0x44 DUP3 ADD MSTORE PUSH1 0x64 ADD PUSH2 0x619 JUMP JUMPDEST PUSH0 DUP3 GT PUSH2 0x6C2 JUMPI PUSH1 0x40 MLOAD PUSH3 0x461BCD PUSH1 0xE5 SHL DUP2 MSTORE PUSH1 0x20 PUSH1 0x4 DUP3 ADD MSTORE PUSH1 0x1F PUSH1 0x24 DUP3 ADD MSTORE PUSH32 0x5072696365206D7573742062652067726561746572207468616E207A65726F00 PUSH1 0x44 DUP3 ADD MSTORE PUSH1 0x64 ADD PUSH2 0x619 JUMP JUMPDEST PUSH1 0x3 SLOAD PUSH2 0x6D0 SWAP1 PUSH0 NOT PUSH2 0x275A JUMP JUMPDEST DUP3 GT ISZERO PUSH2 0x710 JUMPI PUSH1 0x40 MLOAD PUSH3 0x461BCD PUSH1 0xE5 SHL DUP2 MSTORE PUSH1 0x20 PUSH1 0x4 DUP3 ADD MSTORE PUSH1 0xE PUSH1 0x24 DUP3 ADD MSTORE PUSH14 0xA0E4D2C6CA40E8DEDE40D0D2CED PUSH1 0x93 SHL PUSH1 0x44 DUP3 ADD MSTORE PUSH1 0x64 ADD PUSH2 0x619 JUMP JUMPDEST PUSH0 DUP4 DUP2 MSTORE PUSH1 0x6 PUSH1 0x20 MSTORE PUSH1 0x40 SWAP1 DUP2 SWAP1 KECCAK256 DUP4 SWAP1 SSTORE MLOAD DUP4 SWAP1 DUP2 SWAP1 PUSH32 0xF7ADC9A0380A940C6058D78194DF6A9B9FA5BB431BBAD15194913BB611F3F4F7 SWAP1 PUSH2 0x756 SWAP1 DUP7 DUP2 MSTORE PUSH1 0x20 ADD SWAP1 JUMP JUMPDEST PUSH1 0x40 MLOAD DUP1 SWAP2 SUB SWAP1 LOG3 POP PUSH2 0x775 PUSH1 0x1 PUSH0 DUP1 MLOAD PUSH1 0x20 PUSH2 0x2927 DUP4 CODECOPY DUP2 MLOAD SWAP2 MSTORE SSTORE JUMP JUMPDEST POP POP JUMP JUMPDEST PUSH2 0x781 PUSH2 0x1CBA JUMP JUMPDEST PUSH1 0x1 PUSH1 0x1 PUSH1 0xA0 SHL SUB DUP2 AND PUSH2 0x7A7 JUMPI PUSH1 0x40 MLOAD PUSH3 0x461BCD PUSH1 0xE5 SHL DUP2 MSTORE PUSH1 0x4 ADD PUSH2 0x619 SWAP1 PUSH2 0x2779 JUMP JUMPDEST PUSH1 0x1 DUP1 SLOAD PUSH1 0x1 PUSH1 0x1 PUSH1 0xA0 SHL SUB NOT AND PUSH1 0x1 PUSH1 0x1 PUSH1 0xA0 SHL SUB SWAP3 SWAP1 SWAP3 AND SWAP2 SWAP1 SWAP2 OR SWAP1 SSTORE JUMP JUMPDEST PUSH2 0x7D1 PUSH2 0x1C40 JUMP JUMPDEST PUSH2 0x7D9 PUSH2 0x1C70 JUMP JUMPDEST PUSH0 DUP2 DUP2 MSTORE PUSH1 0x6 PUSH1 0x20 SWAP1 DUP2 MSTORE PUSH1 0x40 SWAP2 DUP3 SWAP1 KECCAK256 DUP3 MLOAD PUSH1 0xA0 DUP2 ADD DUP5 MSTORE DUP2 SLOAD DUP2 MSTORE PUSH1 0x1 DUP3 ADD SLOAD PUSH1 0x1 PUSH1 0x1 PUSH1 0xA0 SHL SUB AND SWAP3 DUP2 ADD SWAP3 SWAP1 SWAP3 MSTORE PUSH1 0x2 DUP2 ADD SLOAD SWAP3 DUP3 ADD SWAP3 SWAP1 SWAP3 MSTORE PUSH1 0x3 DUP3 ADD SLOAD PUSH1 0xFF AND ISZERO ISZERO PUSH1 0x60 DUP3 ADD DUP2 SWAP1 MSTORE PUSH1 0x4 SWAP1 SWAP3 ADD SLOAD PUSH1 0x80 DUP3 ADD MSTORE SWAP1 PUSH2 0x850 JUMPI PUSH1 0x40 MLOAD PUSH3 0x461BCD PUSH1 0xE5 SHL DUP2 MSTORE PUSH1 0x4 ADD PUSH2 0x619 SWAP1 PUSH2 0x271A JUMP JUMPDEST PUSH1 0x20 DUP2 ADD MLOAD PUSH1 0x1 PUSH1 0x1 PUSH1 0xA0 SHL SUB AND CALLER EQ PUSH2 0x8A1 JUMPI PUSH1 0x40 MLOAD PUSH3 0x461BCD PUSH1 0xE5 SHL DUP2 MSTORE PUSH1 0x20 PUSH1 0x4 DUP3 ADD MSTORE PUSH1 0x12 PUSH1 0x24 DUP3 ADD MSTORE PUSH18 0x2737BA103634B9BA34B7339039B2B63632B9 PUSH1 0x71 SHL PUSH1 0x44 DUP3 ADD MSTORE PUSH1 0x64 ADD PUSH2 0x619 JUMP JUMPDEST PUSH0 DUP3 DUP2 MSTORE PUSH1 0x6 PUSH1 0x20 MSTORE PUSH1 0x40 DUP1 DUP3 KECCAK256 PUSH1 0x3 ADD DUP1 SLOAD PUSH1 0xFF NOT AND SWAP1 SSTORE MLOAD DUP4 SWAP2 DUP3 SWAP2 PUSH32 0xAFD0A85A3F09CEBBC7D9FCDE08E8A7D0EBB0AA7D768A030915C3816A053D3C7A SWAP2 SWAP1 LOG3 POP PUSH2 0x8FA PUSH1 0x1 PUSH0 DUP1 MLOAD PUSH1 0x20 PUSH2 0x2927 DUP4 CODECOPY DUP2 MLOAD SWAP2 MSTORE SSTORE JUMP JUMPDEST POP JUMP JUMPDEST PUSH2 0x905 PUSH2 0x1CBA JUMP JUMPDEST PUSH2 0x90D PUSH2 0x1D15 JUMP JUMPDEST PUSH1 0x40 MLOAD CALLER DUP2 MSTORE PUSH32 0x5DB9EE0A495BF2E6FF9C91A7834C1BA4FDD244A5E8AA4E537BD38AEAE4B073AA SWAP1 PUSH1 0x20 ADD JUMPDEST PUSH1 0x40 MLOAD DUP1 SWAP2 SUB SWAP1 LOG1 JUMP JUMPDEST PUSH2 0x94B PUSH2 0x1D74 JUMP JUMPDEST PUSH2 0x954 DUP3 PUSH2 0x1E18 JUMP JUMPDEST PUSH2 0x775 DUP3 DUP3 PUSH2 0x1E20 JUMP JUMPDEST PUSH0 PUSH2 0x967 PUSH2 0x1EE1 JUMP JUMPDEST POP PUSH0 DUP1 MLOAD PUSH1 0x20 PUSH2 0x28E7 DUP4 CODECOPY DUP2 MLOAD SWAP2 MSTORE SWAP1 JUMP JUMPDEST PUSH2 0x981 PUSH2 0x1C40 JUMP JUMPDEST PUSH2 0x989 PUSH2 0x1C70 JUMP JUMPDEST PUSH0 DUP3 DUP2 MSTORE PUSH1 0x6 PUSH1 0x20 SWAP1 DUP2 MSTORE PUSH1 0x40 SWAP2 DUP3 SWAP1 KECCAK256 DUP3 MLOAD PUSH1 0xA0 DUP2 ADD DUP5 MSTORE DUP2 SLOAD DUP2 MSTORE PUSH1 0x1 DUP3 ADD SLOAD PUSH1 0x1 PUSH1 0x1 PUSH1 0xA0 SHL SUB AND SWAP3 DUP2 ADD SWAP3 SWAP1 SWAP3 MSTORE PUSH1 0x2 DUP2 ADD SLOAD SWAP3 DUP3 ADD SWAP3 SWAP1 SWAP3 MSTORE PUSH1 0x3 DUP3 ADD SLOAD PUSH1 0xFF AND ISZERO ISZERO PUSH1 0x60 DUP3 ADD DUP2 SWAP1 MSTORE PUSH1 0x4 SWAP1 SWAP3 ADD SLOAD PUSH1 0x80 DUP3 ADD MSTORE SWAP1 PUSH2 0xA00 JUMPI PUSH1 0x40 MLOAD PUSH3 0x461BCD PUSH1 0xE5 SHL DUP2 MSTORE PUSH1 0x4 ADD PUSH2 0x619 SWAP1 PUSH2 0x271A JUMP JUMPDEST PUSH1 0x20 DUP2 ADD MLOAD PUSH0 SLOAD PUSH1 0x40 MLOAD PUSH4 0x31A9108F PUSH1 0xE1 SHL DUP2 MSTORE PUSH1 0x4 DUP2 ADD DUP6 SWAP1 MSTORE PUSH1 0x1 PUSH1 0x1 PUSH1 0xA0 SHL SUB SWAP3 DUP4 AND SWAP3 SWAP1 SWAP2 AND SWAP1 PUSH4 0x6352211E SWAP1 PUSH1 0x24 ADD PUSH1 0x20 PUSH1 0x40 MLOAD DUP1 DUP4 SUB DUP2 DUP7 GAS STATICCALL ISZERO DUP1 ISZERO PUSH2 0xA4F JUMPI RETURNDATASIZE PUSH0 DUP1 RETURNDATACOPY RETURNDATASIZE PUSH0 REVERT JUMPDEST POP POP POP POP PUSH1 0x40 MLOAD RETURNDATASIZE PUSH1 0x1F NOT PUSH1 0x1F DUP3 ADD AND DUP3 ADD DUP1 PUSH1 0x40 MSTORE POP DUP2 ADD SWAP1 PUSH2 0xA73 SWAP2 SWAP1 PUSH2 0x27A2 JUMP JUMPDEST PUSH1 0x1 PUSH1 0x1 PUSH1 0xA0 SHL SUB AND EQ PUSH2 0xAC9 JUMPI PUSH1 0x40 MLOAD PUSH3 0x461BCD PUSH1 0xE5 SHL DUP2 MSTORE PUSH1 0x20 PUSH1 0x4 DUP3 ADD MSTORE PUSH1 0x19 PUSH1 0x24 DUP3 ADD MSTORE PUSH32 0x53656C6C6572206E6F206C6F6E676572206F776E73204E465400000000000000 PUSH1 0x44 DUP3 ADD MSTORE PUSH1 0x64 ADD PUSH2 0x619 JUMP JUMPDEST PUSH0 SLOAD PUSH1 0x40 MLOAD PUSH4 0x20604BF PUSH1 0xE2 SHL DUP2 MSTORE PUSH1 0x4 DUP2 ADD DUP5 SWAP1 MSTORE ADDRESS SWAP2 PUSH1 0x1 PUSH1 0x1 PUSH1 0xA0 SHL SUB AND SWAP1 PUSH4 0x81812FC SWAP1 PUSH1 0x24 ADD PUSH1 0x20 PUSH1 0x40 MLOAD DUP1 DUP4 SUB DUP2 DUP7 GAS STATICCALL ISZERO DUP1 ISZERO PUSH2 0xB0F JUMPI RETURNDATASIZE PUSH0 DUP1 RETURNDATACOPY RETURNDATASIZE PUSH0 REVERT JUMPDEST POP POP POP POP PUSH1 0x40 MLOAD RETURNDATASIZE PUSH1 0x1F NOT PUSH1 0x1F DUP3 ADD AND DUP3 ADD DUP1 PUSH1 0x40 MSTORE POP DUP2 ADD SWAP1 PUSH2 0xB33 SWAP2 SWAP1 PUSH2 0x27A2 JUMP JUMPDEST PUSH1 0x1 PUSH1 0x1 PUSH1 0xA0 SHL SUB AND EQ DUP1 PUSH2 0xBB8 JUMPI POP PUSH0 SLOAD PUSH1 0x20 DUP3 ADD MLOAD PUSH1 0x40 MLOAD PUSH4 0xE985E9C5 PUSH1 0xE0 SHL DUP2 MSTORE PUSH1 0x1 PUSH1 0x1 PUSH1 0xA0 SHL SUB SWAP2 DUP3 AND PUSH1 0x4 DUP3 ADD MSTORE ADDRESS PUSH1 0x24 DUP3 ADD MSTORE SWAP2 AND SWAP1 PUSH4 0xE985E9C5 SWAP1 PUSH1 0x44 ADD PUSH1 0x20 PUSH1 0x40 MLOAD DUP1 DUP4 SUB DUP2 DUP7 GAS STATICCALL ISZERO DUP1 ISZERO PUSH2 0xB94 JUMPI RETURNDATASIZE PUSH0 DUP1 RETURNDATACOPY RETURNDATASIZE PUSH0 REVERT JUMPDEST POP POP POP POP PUSH1 0x40 MLOAD RETURNDATASIZE PUSH1 0x1F NOT PUSH1 0x1F DUP3 ADD AND DUP3 ADD DUP1 PUSH1 0x40 MSTORE POP DUP2 ADD SWAP1 PUSH2 0xBB8 SWAP2 SWAP1 PUSH2 0x27BD JUMP JUMPDEST PUSH2 0xBFF JUMPI PUSH1 0x40 MLOAD PUSH3 0x461BCD PUSH1 0xE5 SHL DUP2 MSTORE PUSH1 0x20 PUSH1 0x4 DUP3 ADD MSTORE PUSH1 0x18 PUSH1 0x24 DUP3 ADD MSTORE PUSH24 0x13585C9AD95D1C1B1858D9481B9BDD08185C1C1C9BDD9959 PUSH1 0x42 SHL PUSH1 0x44 DUP3 ADD MSTORE PUSH1 0x64 ADD PUSH2 0x619 JUMP JUMPDEST PUSH0 DUP1 PUSH0 SWAP1 SLOAD SWAP1 PUSH2 0x100 EXP SWAP1 DIV PUSH1 0x1 PUSH1 0x1 PUSH1 0xA0 SHL SUB AND PUSH1 0x1 PUSH1 0x1 PUSH1 0xA0 SHL SUB AND PUSH4 0x262E3EC3 PUSH1 0x40 MLOAD DUP2 PUSH4 0xFFFFFFFF AND PUSH1 0xE0 SHL DUP2 MSTORE PUSH1 0x4 ADD PUSH1 0x20 PUSH1 0x40 MLOAD DUP1 DUP4 SUB DUP2 DUP7 GAS STATICCALL ISZERO DUP1 ISZERO PUSH2 0xC4F JUMPI RETURNDATASIZE PUSH0 DUP1 RETURNDATACOPY RETURNDATASIZE PUSH0 REVERT JUMPDEST POP POP POP POP PUSH1 0x40 MLOAD RETURNDATASIZE PUSH1 0x1F NOT PUSH1 0x1F DUP3 ADD AND DUP3 ADD DUP1 PUSH1 0x40 MSTORE POP DUP2 ADD SWAP1 PUSH2 0xC73 SWAP2 SWAP1 PUSH2 0x27A2 JUMP JUMPDEST PUSH1 0x1 PUSH1 0x1 PUSH1 0xA0 SHL SUB AND PUSH4 0x13F85ACE DUP5 PUSH1 0x40 MLOAD DUP3 PUSH4 0xFFFFFFFF AND PUSH1 0xE0 SHL DUP2 MSTORE PUSH1 0x4 ADD PUSH2 0xCA0 SWAP2 DUP2 MSTORE PUSH1 0x20 ADD SWAP1 JUMP JUMPDEST PUSH1 0xE0 PUSH1 0x40 MLOAD DUP1 DUP4 SUB DUP2 DUP7 GAS STATICCALL ISZERO DUP1 ISZERO PUSH2 0xCBB JUMPI RETURNDATASIZE PUSH0 DUP1 RETURNDATACOPY RETURNDATASIZE PUSH0 REVERT JUMPDEST POP POP POP POP PUSH1 0x40 MLOAD RETURNDATASIZE PUSH1 0x1F NOT PUSH1 0x1F DUP3 ADD AND DUP3 ADD DUP1 PUSH1 0x40 MSTORE POP DUP2 ADD SWAP1 PUSH2 0xCDF SWAP2 SWAP1 PUSH2 0x27DC JUMP JUMPDEST SWAP1 POP DUP1 PUSH1 0xC0 ADD MLOAD PUSH1 0x1 EQ PUSH2 0xD26 JUMPI PUSH1 0x40 MLOAD PUSH3 0x461BCD PUSH1 0xE5 SHL DUP2 MSTORE PUSH1 0x20 PUSH1 0x4 DUP3 ADD MSTORE PUSH1 0xE PUSH1 0x24 DUP3 ADD MSTORE PUSH14 0x27232A1037B71036B4B9B9B4B7B7 PUSH1 0x91 SHL PUSH1 0x44 DUP3 ADD MSTORE PUSH1 0x64 ADD PUSH2 0x619 JUMP JUMPDEST PUSH0 PUSH2 0x2710 PUSH1 0x3 SLOAD DUP5 PUSH0 ADD MLOAD PUSH2 0xD3B SWAP2 SWAP1 PUSH2 0x285E JUMP JUMPDEST PUSH2 0xD45 SWAP2 SWAP1 PUSH2 0x275A JUMP JUMPDEST SWAP1 POP PUSH0 DUP2 DUP5 PUSH0 ADD MLOAD PUSH2 0xD57 SWAP2 SWAP1 PUSH2 0x2875 JUMP JUMPDEST PUSH1 0x2 SLOAD PUSH1 0x1 SLOAD SWAP2 SWAP3 POP PUSH2 0xD79 SWAP2 PUSH1 0x1 PUSH1 0x1 PUSH1 0xA0 SHL SUB SWAP1 DUP2 AND SWAP2 CALLER SWAP2 AND DUP6 PUSH2 0x1F2A JUMP JUMPDEST PUSH1 0x20 DUP5 ADD MLOAD PUSH1 0x1 SLOAD PUSH2 0xD99 SWAP2 PUSH1 0x1 PUSH1 0x1 PUSH1 0xA0 SHL SUB SWAP1 SWAP2 AND SWAP1 CALLER SWAP1 DUP5 PUSH2 0x1F2A JUMP JUMPDEST PUSH0 SLOAD PUSH1 0x4 DUP1 SLOAD PUSH1 0x40 MLOAD PUSH4 0x31DB4E95 PUSH1 0xE2 SHL DUP2 MSTORE CALLER SWAP3 DUP2 ADD SWAP3 SWAP1 SWAP3 MSTORE PUSH1 0x24 DUP3 ADD MSTORE PUSH1 0x1 PUSH1 0x1 PUSH1 0xA0 SHL SUB SWAP1 SWAP2 AND SWAP1 PUSH4 0xC76D3A54 SWAP1 PUSH1 0x44 ADD PUSH0 PUSH1 0x40 MLOAD DUP1 DUP4 SUB DUP2 PUSH0 DUP8 DUP1 EXTCODESIZE ISZERO DUP1 ISZERO PUSH2 0xDE5 JUMPI PUSH0 DUP1 REVERT JUMPDEST POP GAS CALL ISZERO DUP1 ISZERO PUSH2 0xDF7 JUMPI RETURNDATASIZE PUSH0 DUP1 RETURNDATACOPY RETURNDATASIZE PUSH0 REVERT JUMPDEST POP POP PUSH0 SLOAD PUSH1 0x20 DUP8 ADD MLOAD PUSH1 0x5 SLOAD PUSH1 0x40 MLOAD PUSH4 0x31DB4E95 PUSH1 0xE2 SHL DUP2 MSTORE PUSH1 0x1 PUSH1 0x1 PUSH1 0xA0 SHL SUB SWAP3 DUP4 AND PUSH1 0x4 DUP3 ADD MSTORE PUSH1 0x24 DUP2 ADD SWAP2 SWAP1 SWAP2 MSTORE SWAP2 AND SWAP3 POP PUSH4 0xC76D3A54 SWAP2 POP PUSH1 0x44 ADD PUSH0 PUSH1 0x40 MLOAD DUP1 DUP4 SUB DUP2 PUSH0 DUP8 DUP1 EXTCODESIZE ISZERO DUP1 ISZERO PUSH2 0xE4D JUMPI PUSH0 DUP1 REVERT JUMPDEST POP GAS CALL ISZERO DUP1 ISZERO PUSH2 0xE5F JUMPI RETURNDATASIZE PUSH0 DUP1 RETURNDATACOPY RETURNDATASIZE PUSH0 REVERT JUMPDEST POP POP PUSH0 SLOAD PUSH1 0x20 DUP8 ADD MLOAD PUSH1 0x40 MLOAD PUSH4 0x21421707 PUSH1 0xE1 SHL DUP2 MSTORE PUSH1 0x1 PUSH1 0x1 PUSH1 0xA0 SHL SUB SWAP2 DUP3 AND PUSH1 0x4 DUP3 ADD MSTORE CALLER PUSH1 0x24 DUP3 ADD MSTORE PUSH1 0x44 DUP2 ADD DUP11 SWAP1 MSTORE SWAP2 AND SWAP3 POP PUSH4 0x42842E0E SWAP2 POP PUSH1 0x64 ADD PUSH0 PUSH1 0x40 MLOAD DUP1 DUP4 SUB DUP2 PUSH0 DUP8 DUP1 EXTCODESIZE ISZERO DUP1 ISZERO PUSH2 0xEB7 JUMPI PUSH0 DUP1 REVERT JUMPDEST POP GAS CALL ISZERO DUP1 ISZERO PUSH2 0xEC9 JUMPI RETURNDATASIZE PUSH0 DUP1 RETURNDATACOPY RETURNDATASIZE PUSH0 REVERT JUMPDEST POP POP POP PUSH0 DUP8 DUP2 MSTORE PUSH1 0x6 PUSH1 0x20 SWAP1 DUP2 MSTORE PUSH1 0x40 SWAP2 DUP3 SWAP1 KECCAK256 PUSH1 0x3 ADD DUP1 SLOAD PUSH1 0xFF NOT AND SWAP1 SSTORE DUP7 MLOAD SWAP2 MLOAD SWAP2 DUP3 MSTORE CALLER SWAP3 POP DUP8 SWAP2 DUP10 SWAP2 PUSH32 0x282F31083D7E842B9C65653AA612E0D3B5EED0226700784E314A48D82A3C2A5E SWAP2 ADD PUSH1 0x40 MLOAD DUP1 SWAP2 SUB SWAP1 LOG4 POP POP POP POP PUSH2 0x775 PUSH1 0x1 PUSH0 DUP1 MLOAD PUSH1 0x20 PUSH2 0x2927 DUP4 CODECOPY DUP2 MLOAD SWAP2 MSTORE SSTORE JUMP JUMPDEST PUSH1 0x60 PUSH1 0x1 PUSH1 0x1 PUSH1 0xA0 SHL SUB DUP3 AND PUSH2 0xF8C JUMPI PUSH1 0x40 MLOAD PUSH3 0x461BCD PUSH1 0xE5 SHL DUP2 MSTORE PUSH1 0x20 PUSH1 0x4 DUP3 ADD MSTORE PUSH1 0x16 PUSH1 0x24 DUP3 ADD MSTORE PUSH22 0x496E76616C69642077616C6C65742061646472657373 PUSH1 0x50 SHL PUSH1 0x44 DUP3 ADD MSTORE PUSH1 0x64 ADD PUSH2 0x619 JUMP JUMPDEST PUSH0 PUSH1 0x1 JUMPDEST PUSH1 0x7 SLOAD DUP2 LT ISZERO PUSH2 0xFF0 JUMPI PUSH0 DUP2 DUP2 MSTORE PUSH1 0x6 PUSH1 0x20 MSTORE PUSH1 0x40 SWAP1 KECCAK256 PUSH1 0x3 ADD SLOAD PUSH1 0xFF AND DUP1 ISZERO PUSH2 0xFD5 JUMPI POP PUSH0 DUP2 DUP2 MSTORE PUSH1 0x6 PUSH1 0x20 MSTORE PUSH1 0x40 SWAP1 KECCAK256 PUSH1 0x1 ADD SLOAD PUSH1 0x1 PUSH1 0x1 PUSH1 0xA0 SHL SUB DUP6 DUP2 AND SWAP2 AND EQ JUMPDEST ISZERO PUSH2 0xFE8 JUMPI DUP2 PUSH2 0xFE4 DUP2 PUSH2 0x2888 JUMP JUMPDEST SWAP3 POP POP JUMPDEST PUSH1 0x1 ADD PUSH2 0xF90 JUMP JUMPDEST POP PUSH0 DUP2 PUSH8 0xFFFFFFFFFFFFFFFF DUP2 GT ISZERO PUSH2 0x100B JUMPI PUSH2 0x100B PUSH2 0x2567 JUMP JUMPDEST PUSH1 0x40 MLOAD SWAP1 DUP1 DUP3 MSTORE DUP1 PUSH1 0x20 MUL PUSH1 0x20 ADD DUP3 ADD PUSH1 0x40 MSTORE DUP1 ISZERO PUSH2 0x1044 JUMPI DUP2 PUSH1 0x20 ADD JUMPDEST PUSH2 0x1031 PUSH2 0x2435 JUMP JUMPDEST DUP2 MSTORE PUSH1 0x20 ADD SWAP1 PUSH1 0x1 SWAP1 SUB SWAP1 DUP2 PUSH2 0x1029 JUMPI SWAP1 POP JUMPDEST POP SWAP1 POP PUSH0 PUSH1 0x1 JUMPDEST PUSH1 0x7 SLOAD DUP2 LT DUP1 ISZERO PUSH2 0x105B JUMPI POP DUP4 DUP3 LT JUMPDEST ISZERO PUSH2 0x1136 JUMPI PUSH0 DUP2 DUP2 MSTORE PUSH1 0x6 PUSH1 0x20 MSTORE PUSH1 0x40 SWAP1 KECCAK256 PUSH1 0x3 ADD SLOAD PUSH1 0xFF AND DUP1 ISZERO PUSH2 0x109B JUMPI POP PUSH0 DUP2 DUP2 MSTORE PUSH1 0x6 PUSH1 0x20 MSTORE PUSH1 0x40 SWAP1 KECCAK256 PUSH1 0x1 ADD SLOAD PUSH1 0x1 PUSH1 0x1 PUSH1 0xA0 SHL SUB DUP8 DUP2 AND SWAP2 AND EQ JUMPDEST ISZERO PUSH2 0x1124 JUMPI PUSH1 0x40 DUP1 MLOAD PUSH1 0xA0 DUP2 ADD DUP3 MSTORE DUP3 DUP2 MSTORE PUSH0 DUP4 DUP2 MSTORE PUSH1 0x6 PUSH1 0x20 DUP2 DUP2 MSTORE DUP5 DUP4 KECCAK256 PUSH1 0x1 DUP2 ADD SLOAD PUSH1 0x1 PUSH1 0x1 PUSH1 0xA0 SHL SUB AND DUP3 DUP7 ADD MSTORE DUP1 SLOAD SWAP6 DUP6 ADD SWAP6 SWAP1 SWAP6 MSTORE PUSH1 0x3 DUP6 ADD SLOAD PUSH1 0xFF AND ISZERO ISZERO PUSH1 0x60 DUP6 ADD MSTORE SWAP2 DUP6 SWAP1 MSTORE SWAP1 MSTORE PUSH1 0x2 SWAP1 SWAP2 ADD SLOAD PUSH1 0x80 DUP3 ADD MSTORE DUP4 MLOAD DUP5 SWAP1 DUP5 SWAP1 DUP2 LT PUSH2 0x110A JUMPI PUSH2 0x110A PUSH2 0x28A0 JUMP JUMPDEST PUSH1 0x20 MUL PUSH1 0x20 ADD ADD DUP2 SWAP1 MSTORE POP DUP2 DUP1 PUSH2 0x1120 SWAP1 PUSH2 0x2888 JUMP JUMPDEST SWAP3 POP POP JUMPDEST DUP1 PUSH2 0x112E DUP2 PUSH2 0x2888 JUMP JUMPDEST SWAP2 POP POP PUSH2 0x104B JUMP JUMPDEST POP SWAP1 SWAP5 SWAP4 POP POP POP POP JUMP JUMPDEST PUSH2 0x1148 PUSH2 0x1CBA JUMP JUMPDEST PUSH2 0x1151 PUSH0 PUSH2 0x1F8A JUMP JUMPDEST JUMP JUMPDEST PUSH2 0x115B PUSH2 0x1CBA JUMP JUMPDEST PUSH2 0x2710 DUP2 GT ISZERO PUSH2 0x119C JUMPI PUSH1 0x40 MLOAD PUSH3 0x461BCD PUSH1 0xE5 SHL DUP2 MSTORE PUSH1 0x20 PUSH1 0x4 DUP3 ADD MSTORE PUSH1 0xC PUSH1 0x24 DUP3 ADD MSTORE PUSH12 0x8CCACA40E8DEDE40D0D2CED PUSH1 0xA3 SHL PUSH1 0x44 DUP3 ADD MSTORE PUSH1 0x64 ADD PUSH2 0x619 JUMP JUMPDEST PUSH1 0x3 SSTORE JUMP JUMPDEST PUSH2 0x11A9 PUSH2 0x1CBA JUMP JUMPDEST PUSH0 DUP3 GT PUSH2 0x1207 JUMPI PUSH1 0x40 MLOAD PUSH3 0x461BCD PUSH1 0xE5 SHL DUP2 MSTORE PUSH1 0x20 PUSH1 0x4 DUP3 ADD MSTORE PUSH1 0x26 PUSH1 0x24 DUP3 ADD MSTORE PUSH32 0x427579657220706F696E7473206D757374206265206772656174657220746861 PUSH1 0x44 DUP3 ADD MSTORE PUSH6 0x6E207A65726F PUSH1 0xD0 SHL PUSH1 0x64 DUP3 ADD MSTORE PUSH1 0x84 ADD PUSH2 0x619 JUMP JUMPDEST PUSH0 DUP2 GT PUSH2 0x1266 JUMPI PUSH1 0x40 MLOAD PUSH3 0x461BCD PUSH1 0xE5 SHL DUP2 MSTORE PUSH1 0x20 PUSH1 0x4 DUP3 ADD MSTORE PUSH1 0x27 PUSH1 0x24 DUP3 ADD MSTORE PUSH32 0x53656C6C657220706F696E7473206D7573742062652067726561746572207468 PUSH1 0x44 DUP3 ADD MSTORE PUSH7 0x616E207A65726F PUSH1 0xC8 SHL PUSH1 0x64 DUP3 ADD MSTORE PUSH1 0x84 ADD PUSH2 0x619 JUMP JUMPDEST PUSH1 0x4 SWAP2 SWAP1 SWAP2 SSTORE PUSH1 0x5 SSTORE JUMP JUMPDEST PUSH32 0xF0C57E16840DF040F15088DC2F81FE391C3923BEC73E23A9662EFC9C229C6A00 DUP1 SLOAD PUSH1 0x1 PUSH1 0x40 SHL DUP2 DIV PUSH1 0xFF AND ISZERO SWAP1 PUSH8 0xFFFFFFFFFFFFFFFF AND PUSH0 DUP2 ISZERO DUP1 ISZERO PUSH2 0x12B6 JUMPI POP DUP3 JUMPDEST SWAP1 POP PUSH0 DUP3 PUSH8 0xFFFFFFFFFFFFFFFF AND PUSH1 0x1 EQ DUP1 ISZERO PUSH2 0x12D2 JUMPI POP ADDRESS EXTCODESIZE ISZERO JUMPDEST SWAP1 POP DUP2 ISZERO DUP1 ISZERO PUSH2 0x12E0 JUMPI POP DUP1 ISZERO JUMPDEST ISZERO PUSH2 0x12FE JUMPI PUSH1 0x40 MLOAD PUSH4 0xF92EE8A9 PUSH1 0xE0 SHL DUP2 MSTORE PUSH1 0x4 ADD PUSH1 0x40 MLOAD DUP1 SWAP2 SUB SWAP1 REVERT JUMPDEST DUP5 SLOAD PUSH8 0xFFFFFFFFFFFFFFFF NOT AND PUSH1 0x1 OR DUP6 SSTORE DUP4 ISZERO PUSH2 0x1328 JUMPI DUP5 SLOAD PUSH1 0xFF PUSH1 0x40 SHL NOT AND PUSH1 0x1 PUSH1 0x40 SHL OR DUP6 SSTORE JUMPDEST PUSH2 0x1331 CALLER PUSH2 0x1FFA JUMP JUMPDEST PUSH2 0x1339 PUSH2 0x200B JUMP JUMPDEST PUSH2 0x1341 PUSH2 0x201B JUMP JUMPDEST PUSH2 0x1349 PUSH2 0x2023 JUMP JUMPDEST PUSH1 0x1 DUP1 SLOAD PUSH1 0x1 PUSH1 0x1 PUSH1 0xA0 SHL SUB NOT SWAP1 DUP2 AND PUSH20 0xF0877917AE5E44772BB9977508ED368A5332D111 OR DUP3 SSTORE PUSH1 0x2 DUP1 SLOAD SWAP1 SWAP2 AND PUSH20 0xB81F514B1488D971647E1164554E9A504C0A2729 OR SWAP1 SSTORE PUSH2 0x9C4 PUSH1 0x3 SSTORE PUSH2 0x1388 PUSH1 0x4 SSTORE PUSH2 0x1F4 PUSH1 0x5 SSTORE PUSH1 0x7 SSTORE DUP4 ISZERO PUSH2 0x13EB JUMPI DUP5 SLOAD PUSH1 0xFF PUSH1 0x40 SHL NOT AND DUP6 SSTORE PUSH1 0x40 MLOAD PUSH1 0x1 DUP2 MSTORE PUSH32 0xC7F505B2F371AE2175EE4913F4499E1F2633A7B5936321EED1CDAEB6115181D2 SWAP1 PUSH1 0x20 ADD PUSH1 0x40 MLOAD DUP1 SWAP2 SUB SWAP1 LOG1 JUMPDEST POP POP POP POP POP JUMP JUMPDEST PUSH2 0x13FA PUSH2 0x1CBA JUMP JUMPDEST PUSH2 0x1402 PUSH2 0x2033 JUMP JUMPDEST PUSH1 0x40 MLOAD CALLER DUP2 MSTORE PUSH32 0x62E78CEA01BEE320CD4E420270B5EA74000D11B0C9F74754EBDBFC544B05A258 SWAP1 PUSH1 0x20 ADD PUSH2 0x939 JUMP JUMPDEST PUSH1 0x60 PUSH0 PUSH1 0x1 JUMPDEST PUSH1 0x7 SLOAD DUP2 LT ISZERO PUSH2 0x1471 JUMPI PUSH0 DUP2 DUP2 MSTORE PUSH1 0x6 PUSH1 0x20 MSTORE PUSH1 0x40 SWAP1 KECCAK256 PUSH1 0x3 ADD SLOAD PUSH1 0xFF AND ISZERO PUSH2 0x1469 JUMPI DUP2 PUSH2 0x1465 DUP2 PUSH2 0x2888 JUMP JUMPDEST SWAP3 POP POP JUMPDEST PUSH1 0x1 ADD PUSH2 0x1438 JUMP JUMPDEST POP PUSH0 DUP2 PUSH8 0xFFFFFFFFFFFFFFFF DUP2 GT ISZERO PUSH2 0x148C JUMPI PUSH2 0x148C PUSH2 0x2567 JUMP JUMPDEST PUSH1 0x40 MLOAD SWAP1 DUP1 DUP3 MSTORE DUP1 PUSH1 0x20 MUL PUSH1 0x20 ADD DUP3 ADD PUSH1 0x40 MSTORE DUP1 ISZERO PUSH2 0x14C5 JUMPI DUP2 PUSH1 0x20 ADD JUMPDEST PUSH2 0x14B2 PUSH2 0x2435 JUMP JUMPDEST DUP2 MSTORE PUSH1 0x20 ADD SWAP1 PUSH1 0x1 SWAP1 SUB SWAP1 DUP2 PUSH2 0x14AA JUMPI SWAP1 POP JUMPDEST POP SWAP1 POP PUSH0 PUSH1 0x1 JUMPDEST PUSH1 0x7 SLOAD DUP2 LT DUP1 ISZERO PUSH2 0x14DC JUMPI POP DUP4 DUP3 LT JUMPDEST ISZERO PUSH2 0x1594 JUMPI PUSH0 DUP2 DUP2 MSTORE PUSH1 0x6 PUSH1 0x20 MSTORE PUSH1 0x40 SWAP1 KECCAK256 PUSH1 0x3 ADD SLOAD PUSH1 0xFF AND ISZERO PUSH2 0x1582 JUMPI PUSH1 0x40 DUP1 MLOAD PUSH1 0xA0 DUP2 ADD DUP3 MSTORE PUSH0 DUP4 DUP2 MSTORE PUSH1 0x6 PUSH1 0x20 DUP2 DUP2 MSTORE DUP5 DUP4 KECCAK256 PUSH1 0x4 DUP2 ADD SLOAD DUP6 MSTORE PUSH1 0x1 DUP2 ADD SLOAD PUSH1 0x1 PUSH1 0x1 PUSH1 0xA0 SHL SUB AND DUP3 DUP7 ADD MSTORE DUP1 SLOAD SWAP6 DUP6 ADD SWAP6 SWAP1 SWAP6 MSTORE PUSH1 0x3 DUP6 ADD SLOAD PUSH1 0xFF AND ISZERO ISZERO PUSH1 0x60 DUP6 ADD MSTORE SWAP2 DUP6 SWAP1 MSTORE SWAP1 MSTORE PUSH1 0x2 SWAP1 SWAP2 ADD SLOAD PUSH1 0x80 DUP3 ADD MSTORE DUP4 MLOAD DUP5 SWAP1 DUP5 SWAP1 DUP2 LT PUSH2 0x1568 JUMPI PUSH2 0x1568 PUSH2 0x28A0 JUMP JUMPDEST PUSH1 0x20 MUL PUSH1 0x20 ADD ADD DUP2 SWAP1 MSTORE POP DUP2 DUP1 PUSH2 0x157E SWAP1 PUSH2 0x2888 JUMP JUMPDEST SWAP3 POP POP JUMPDEST DUP1 PUSH2 0x158C DUP2 PUSH2 0x2888 JUMP JUMPDEST SWAP2 POP POP PUSH2 0x14CC JUMP JUMPDEST POP SWAP1 SWAP4 SWAP3 POP POP POP JUMP JUMPDEST PUSH2 0x15A5 PUSH2 0x1C40 JUMP JUMPDEST PUSH2 0x15AD PUSH2 0x1C70 JUMP JUMPDEST PUSH0 SLOAD PUSH1 0x1 PUSH1 0x1 PUSH1 0xA0 SHL SUB AND PUSH2 0x15FB JUMPI PUSH1 0x40 MLOAD PUSH3 0x461BCD PUSH1 0xE5 SHL DUP2 MSTORE PUSH1 0x20 PUSH1 0x4 DUP3 ADD MSTORE PUSH1 0x14 PUSH1 0x24 DUP3 ADD MSTORE PUSH20 0x1391950818DBDB9D1C9858DD081B9BDD081CD95D PUSH1 0x62 SHL PUSH1 0x44 DUP3 ADD MSTORE PUSH1 0x64 ADD PUSH2 0x619 JUMP JUMPDEST PUSH0 DUP2 GT PUSH2 0x164A JUMPI PUSH1 0x40 MLOAD PUSH3 0x461BCD PUSH1 0xE5 SHL DUP2 MSTORE PUSH1 0x20 PUSH1 0x4 DUP3 ADD MSTORE PUSH1 0x1F PUSH1 0x24 DUP3 ADD MSTORE PUSH32 0x5072696365206D7573742062652067726561746572207468616E207A65726F00 PUSH1 0x44 DUP3 ADD MSTORE PUSH1 0x64 ADD PUSH2 0x619 JUMP JUMPDEST PUSH1 0x3 SLOAD PUSH2 0x1658 SWAP1 PUSH0 NOT PUSH2 0x275A JUMP JUMPDEST DUP2 GT ISZERO PUSH2 0x1698 JUMPI PUSH1 0x40 MLOAD PUSH3 0x461BCD PUSH1 0xE5 SHL DUP2 MSTORE PUSH1 0x20 PUSH1 0x4 DUP3 ADD MSTORE PUSH1 0xE PUSH1 0x24 DUP3 ADD MSTORE PUSH14 0xA0E4D2C6CA40E8DEDE40D0D2CED PUSH1 0x93 SHL PUSH1 0x44 DUP3 ADD MSTORE PUSH1 0x64 ADD PUSH2 0x619 JUMP JUMPDEST PUSH0 SLOAD PUSH1 0x40 MLOAD PUSH4 0x31A9108F PUSH1 0xE1 SHL DUP2 MSTORE PUSH1 0x4 DUP2 ADD DUP5 SWAP1 MSTORE CALLER SWAP2 PUSH1 0x1 PUSH1 0x1 PUSH1 0xA0 SHL SUB AND SWAP1 PUSH4 0x6352211E SWAP1 PUSH1 0x24 ADD PUSH1 0x20 PUSH1 0x40 MLOAD DUP1 DUP4 SUB DUP2 DUP7 GAS STATICCALL ISZERO DUP1 ISZERO PUSH2 0x16DE JUMPI RETURNDATASIZE PUSH0 DUP1 RETURNDATACOPY RETURNDATASIZE PUSH0 REVERT JUMPDEST POP POP POP POP PUSH1 0x40 MLOAD RETURNDATASIZE PUSH1 0x1F NOT PUSH1 0x1F DUP3 ADD AND DUP3 ADD DUP1 PUSH1 0x40 MSTORE POP DUP2 ADD SWAP1 PUSH2 0x1702 SWAP2 SWAP1 PUSH2 0x27A2 JUMP JUMPDEST PUSH1 0x1 PUSH1 0x1 PUSH1 0xA0 SHL SUB AND EQ PUSH2 0x174A JUMPI PUSH1 0x40 MLOAD PUSH3 0x461BCD PUSH1 0xE5 SHL DUP2 MSTORE PUSH1 0x20 PUSH1 0x4 DUP3 ADD MSTORE PUSH1 0xF PUSH1 0x24 DUP3 ADD MSTORE PUSH15 0x2737BA103A37B5B2B71037BBB732B9 PUSH1 0x89 SHL PUSH1 0x44 DUP3 ADD MSTORE PUSH1 0x64 ADD PUSH2 0x619 JUMP JUMPDEST PUSH0 SLOAD PUSH1 0x40 MLOAD PUSH4 0x20604BF PUSH1 0xE2 SHL DUP2 MSTORE PUSH1 0x4 DUP2 ADD DUP5 SWAP1 MSTORE ADDRESS SWAP2 PUSH1 0x1 PUSH1 0x1 PUSH1 0xA0 SHL SUB AND SWAP1 PUSH4 0x81812FC SWAP1 PUSH1 0x24 ADD PUSH1 0x20 PUSH1 0x40 MLOAD DUP1 DUP4 SUB DUP2 DUP7 GAS STATICCALL ISZERO DUP1 ISZERO PUSH2 0x1790 JUMPI RETURNDATASIZE PUSH0 DUP1 RETURNDATACOPY RETURNDATASIZE PUSH0 REVERT JUMPDEST POP POP POP POP PUSH1 0x40 MLOAD RETURNDATASIZE PUSH1 0x1F NOT PUSH1 0x1F DUP3 ADD AND DUP3 ADD DUP1 PUSH1 0x40 MSTORE POP DUP2 ADD SWAP1 PUSH2 0x17B4 SWAP2 SWAP1 PUSH2 0x27A2 JUMP JUMPDEST PUSH1 0x1 PUSH1 0x1 PUSH1 0xA0 SHL SUB AND EQ DUP1 PUSH2 0x1833 JUMPI POP PUSH0 SLOAD PUSH1 0x40 MLOAD PUSH4 0xE985E9C5 PUSH1 0xE0 SHL DUP2 MSTORE CALLER PUSH1 0x4 DUP3 ADD MSTORE ADDRESS PUSH1 0x24 DUP3 ADD MSTORE PUSH1 0x1 PUSH1 0x1 PUSH1 0xA0 SHL SUB SWAP1 SWAP2 AND SWAP1 PUSH4 0xE985E9C5 SWAP1 PUSH1 0x44 ADD PUSH1 0x20 PUSH1 0x40 MLOAD DUP1 DUP4 SUB DUP2 DUP7 GAS STATICCALL ISZERO DUP1 ISZERO PUSH2 0x180F JUMPI RETURNDATASIZE PUSH0 DUP1 RETURNDATACOPY RETURNDATASIZE PUSH0 REVERT JUMPDEST POP POP POP POP PUSH1 0x40 MLOAD RETURNDATASIZE PUSH1 0x1F NOT PUSH1 0x1F DUP3 ADD AND DUP3 ADD DUP1 PUSH1 0x40 MSTORE POP DUP2 ADD SWAP1 PUSH2 0x1833 SWAP2 SWAP1 PUSH2 0x27BD JUMP JUMPDEST PUSH2 0x187A JUMPI PUSH1 0x40 MLOAD PUSH3 0x461BCD PUSH1 0xE5 SHL DUP2 MSTORE PUSH1 0x20 PUSH1 0x4 DUP3 ADD MSTORE PUSH1 0x18 PUSH1 0x24 DUP3 ADD MSTORE PUSH24 0x13585C9AD95D1C1B1858D9481B9BDD08185C1C1C9BDD9959 PUSH1 0x42 SHL PUSH1 0x44 DUP3 ADD MSTORE PUSH1 0x64 ADD PUSH2 0x619 JUMP JUMPDEST PUSH0 DUP1 PUSH0 SWAP1 SLOAD SWAP1 PUSH2 0x100 EXP SWAP1 DIV PUSH1 0x1 PUSH1 0x1 PUSH1 0xA0 SHL SUB AND PUSH1 0x1 PUSH1 0x1 PUSH1 0xA0 SHL SUB AND PUSH4 0x262E3EC3 PUSH1 0x40 MLOAD DUP2 PUSH4 0xFFFFFFFF AND PUSH1 0xE0 SHL DUP2 MSTORE PUSH1 0x4 ADD PUSH1 0x20 PUSH1 0x40 MLOAD DUP1 DUP4 SUB DUP2 DUP7 GAS STATICCALL ISZERO DUP1 ISZERO PUSH2 0x18CA JUMPI RETURNDATASIZE PUSH0 DUP1 RETURNDATACOPY RETURNDATASIZE PUSH0 REVERT JUMPDEST POP POP POP POP PUSH1 0x40 MLOAD RETURNDATASIZE PUSH1 0x1F NOT PUSH1 0x1F DUP3 ADD AND DUP3 ADD DUP1 PUSH1 0x40 MSTORE POP DUP2 ADD SWAP1 PUSH2 0x18EE SWAP2 SWAP1 PUSH2 0x27A2 JUMP JUMPDEST PUSH1 0x1 PUSH1 0x1 PUSH1 0xA0 SHL SUB AND PUSH4 0x13F85ACE DUP5 PUSH1 0x40 MLOAD DUP3 PUSH4 0xFFFFFFFF AND PUSH1 0xE0 SHL DUP2 MSTORE PUSH1 0x4 ADD PUSH2 0x191B SWAP2 DUP2 MSTORE PUSH1 0x20 ADD SWAP1 JUMP JUMPDEST PUSH1 0xE0 PUSH1 0x40 MLOAD DUP1 DUP4 SUB DUP2 DUP7 GAS STATICCALL ISZERO DUP1 ISZERO PUSH2 0x1936 JUMPI RETURNDATASIZE PUSH0 DUP1 RETURNDATACOPY RETURNDATASIZE PUSH0 REVERT JUMPDEST POP POP POP POP PUSH1 0x40 MLOAD RETURNDATASIZE PUSH1 0x1F NOT PUSH1 0x1F DUP3 ADD AND DUP3 ADD DUP1 PUSH1 0x40 MSTORE POP DUP2 ADD SWAP1 PUSH2 0x195A SWAP2 SWAP1 PUSH2 0x27DC JUMP JUMPDEST SWAP1 POP DUP1 PUSH1 0xC0 ADD MLOAD PUSH1 0x1 EQ PUSH2 0x19A1 JUMPI PUSH1 0x40 MLOAD PUSH3 0x461BCD PUSH1 0xE5 SHL DUP2 MSTORE PUSH1 0x20 PUSH1 0x4 DUP3 ADD MSTORE PUSH1 0xE PUSH1 0x24 DUP3 ADD MSTORE PUSH14 0x27232A1037B71036B4B9B9B4B7B7 PUSH1 0x91 SHL PUSH1 0x44 DUP3 ADD MSTORE PUSH1 0x64 ADD PUSH2 0x619 JUMP JUMPDEST PUSH1 0x7 DUP1 SLOAD PUSH0 SWAP2 DUP3 PUSH2 0x19B1 DUP4 PUSH2 0x2888 JUMP JUMPDEST SWAP1 SWAP2 SSTORE POP PUSH1 0x40 DUP1 MLOAD PUSH1 0xA0 DUP2 ADD DUP3 MSTORE DUP6 DUP2 MSTORE CALLER PUSH1 0x20 DUP1 DUP4 ADD DUP3 DUP2 MSTORE DUP4 DUP6 ADD DUP7 DUP2 MSTORE PUSH1 0x1 PUSH1 0x60 DUP7 ADD DUP2 DUP2 MSTORE PUSH1 0x80 DUP8 ADD DUP14 DUP2 MSTORE PUSH0 DUP11 DUP2 MSTORE PUSH1 0x6 DUP8 MSTORE DUP10 SWAP1 KECCAK256 SWAP8 MLOAD DUP9 SSTORE SWAP4 MLOAD SWAP2 DUP8 ADD DUP1 SLOAD PUSH1 0x1 PUSH1 0x1 PUSH1 0xA0 SHL SUB NOT AND PUSH1 0x1 PUSH1 0x1 PUSH1 0xA0 SHL SUB SWAP1 SWAP4 AND SWAP3 SWAP1 SWAP3 OR SWAP1 SWAP2 SSTORE SWAP1 MLOAD PUSH1 0x2 DUP7 ADD SSTORE MLOAD PUSH1 0x3 DUP6 ADD DUP1 SLOAD PUSH1 0xFF NOT AND SWAP2 ISZERO ISZERO SWAP2 SWAP1 SWAP2 OR SWAP1 SSTORE MLOAD PUSH1 0x4 SWAP1 SWAP4 ADD SWAP3 SWAP1 SWAP3 SSTORE SWAP2 MLOAD DUP7 DUP2 MSTORE SWAP3 SWAP4 POP SWAP1 SWAP2 DUP7 SWAP2 DUP5 SWAP2 PUSH32 0x6EF37E39D2E46CFE264ADDBE7BE8373E001F86EF6A9F4FA7E51AA343F3D80725 SWAP2 ADD PUSH1 0x40 MLOAD DUP1 SWAP2 SUB SWAP1 LOG4 POP POP PUSH2 0x775 PUSH1 0x1 PUSH0 DUP1 MLOAD PUSH1 0x20 PUSH2 0x2927 DUP4 CODECOPY DUP2 MLOAD SWAP2 MSTORE SSTORE JUMP JUMPDEST PUSH2 0x1A91 PUSH2 0x1CBA JUMP JUMPDEST PUSH1 0x1 PUSH1 0x1 PUSH1 0xA0 SHL SUB DUP2 AND PUSH2 0x1AB7 JUMPI PUSH1 0x40 MLOAD PUSH3 0x461BCD PUSH1 0xE5 SHL DUP2 MSTORE PUSH1 0x4 ADD PUSH2 0x619 SWAP1 PUSH2 0x2779 JUMP JUMPDEST PUSH0 DUP1 SLOAD PUSH1 0x1 PUSH1 0x1 PUSH1 0xA0 SHL SUB NOT AND PUSH1 0x1 PUSH1 0x1 PUSH1 0xA0 SHL SUB SWAP3 SWAP1 SWAP3 AND SWAP2 SWAP1 SWAP2 OR SWAP1 SSTORE JUMP JUMPDEST PUSH2 0x1AE0 PUSH2 0x1CBA JUMP JUMPDEST PUSH2 0x1AE8 PUSH2 0x1C70 JUMP JUMPDEST PUSH0 PUSH1 0x1 JUMPDEST PUSH1 0x7 SLOAD DUP2 LT ISZERO PUSH2 0x1B6B JUMPI PUSH0 DUP2 DUP2 MSTORE PUSH1 0x6 PUSH1 0x20 MSTORE PUSH1 0x40 SWAP1 KECCAK256 PUSH1 0x3 ADD SLOAD PUSH1 0xFF AND ISZERO PUSH2 0x1B63 JUMPI PUSH0 DUP2 DUP2 MSTORE PUSH1 0x6 PUSH1 0x20 MSTORE PUSH1 0x40 SWAP1 KECCAK256 PUSH1 0x3 ADD DUP1 SLOAD PUSH1 0xFF NOT AND SWAP1 SSTORE DUP2 PUSH2 0x1B31 DUP2 PUSH2 0x2888 JUMP JUMPDEST SWAP3 POP POP DUP1 DUP2 PUSH32 0xAFD0A85A3F09CEBBC7D9FCDE08E8A7D0EBB0AA7D768A030915C3816A053D3C7A PUSH1 0x40 MLOAD PUSH1 0x40 MLOAD DUP1 SWAP2 SUB SWAP1 LOG3 JUMPDEST PUSH1 0x1 ADD PUSH2 0x1AEC JUMP JUMPDEST POP PUSH1 0x40 MLOAD DUP2 DUP2 MSTORE PUSH32 0x2E69DDC08B8F7179D105E8ECF149432AA6B0C0003E8EF8EFEF6E46ED60256E94 SWAP1 PUSH1 0x20 ADD PUSH1 0x40 MLOAD DUP1 SWAP2 SUB SWAP1 LOG1 POP PUSH2 0x1151 PUSH1 0x1 PUSH0 DUP1 MLOAD PUSH1 0x20 PUSH2 0x2927 DUP4 CODECOPY DUP2 MLOAD SWAP2 MSTORE SSTORE JUMP JUMPDEST PUSH2 0x1BBE PUSH2 0x1CBA JUMP JUMPDEST PUSH1 0x1 PUSH1 0x1 PUSH1 0xA0 SHL SUB DUP2 AND PUSH2 0x1BE4 JUMPI PUSH1 0x40 MLOAD PUSH3 0x461BCD PUSH1 0xE5 SHL DUP2 MSTORE PUSH1 0x4 ADD PUSH2 0x619 SWAP1 PUSH2 0x2779 JUMP JUMPDEST PUSH1 0x2 DUP1 SLOAD PUSH1 0x1 PUSH1 0x1 PUSH1 0xA0 SHL SUB NOT AND PUSH1 0x1 PUSH1 0x1 PUSH1 0xA0 SHL SUB SWAP3 SWAP1 SWAP3 AND SWAP2 SWAP1 SWAP2 OR SWAP1 SSTORE JUMP JUMPDEST PUSH2 0x1C0E PUSH2 0x1CBA JUMP JUMPDEST PUSH1 0x1 PUSH1 0x1 PUSH1 0xA0 SHL SUB DUP2 AND PUSH2 0x1C37 JUMPI PUSH1 0x40 MLOAD PUSH4 0x1E4FBDF7 PUSH1 0xE0 SHL DUP2 MSTORE PUSH0 PUSH1 0x4 DUP3 ADD MSTORE PUSH1 0x24 ADD PUSH2 0x619 JUMP JUMPDEST PUSH2 0x8FA DUP2 PUSH2 0x1F8A JUMP JUMPDEST PUSH0 DUP1 MLOAD PUSH1 0x20 PUSH2 0x2907 DUP4 CODECOPY DUP2 MLOAD SWAP2 MSTORE SLOAD PUSH1 0xFF AND ISZERO PUSH2 0x1151 JUMPI PUSH1 0x40 MLOAD PUSH4 0xD93C0665 PUSH1 0xE0 SHL DUP2 MSTORE PUSH1 0x4 ADD PUSH1 0x40 MLOAD DUP1 SWAP2 SUB SWAP1 REVERT JUMPDEST PUSH0 DUP1 MLOAD PUSH1 0x20 PUSH2 0x2927 DUP4 CODECOPY DUP2 MLOAD SWAP2 MSTORE DUP1 SLOAD PUSH1 0x1 NOT ADD PUSH2 0x1CA1 JUMPI PUSH1 0x40 MLOAD PUSH4 0x3EE5AEB5 PUSH1 0xE0 SHL DUP2 MSTORE PUSH1 0x4 ADD PUSH1 0x40 MLOAD DUP1 SWAP2 SUB SWAP1 REVERT JUMPDEST PUSH1 0x2 SWAP1 SSTORE JUMP JUMPDEST PUSH1 0x1 PUSH0 DUP1 MLOAD PUSH1 0x20 PUSH2 0x2927 DUP4 CODECOPY DUP2 MLOAD SWAP2 MSTORE SSTORE JUMP JUMPDEST CALLER PUSH2 0x1CEC PUSH32 0x9016D09D72D40FDAE2FD8CEAC6B6234C7706214FD39C1CD1E609A0528C199300 SLOAD PUSH1 0x1 PUSH1 0x1 PUSH1 0xA0 SHL SUB AND SWAP1 JUMP JUMPDEST PUSH1 0x1 PUSH1 0x1 PUSH1 0xA0 SHL SUB AND EQ PUSH2 0x1151 JUMPI PUSH1 0x40 MLOAD PUSH4 0x118CDAA7 PUSH1 0xE0 SHL DUP2 MSTORE CALLER PUSH1 0x4 DUP3 ADD MSTORE PUSH1 0x24 ADD PUSH2 0x619 JUMP JUMPDEST PUSH2 0x1D1D PUSH2 0x207B JUMP JUMPDEST PUSH0 DUP1 MLOAD PUSH1 0x20 PUSH2 0x2907 DUP4 CODECOPY DUP2 MLOAD SWAP2 MSTORE DUP1 SLOAD PUSH1 0xFF NOT AND DUP2 SSTORE PUSH32 0x5DB9EE0A495BF2E6FF9C91A7834C1BA4FDD244A5E8AA4E537BD38AEAE4B073AA CALLER JUMPDEST PUSH1 0x40 MLOAD PUSH1 0x1 PUSH1 0x1 PUSH1 0xA0 SHL SUB SWAP1 SWAP2 AND DUP2 MSTORE PUSH1 0x20 ADD PUSH1 0x40 MLOAD DUP1 SWAP2 SUB SWAP1 LOG1 POP JUMP JUMPDEST ADDRESS PUSH1 0x1 PUSH1 0x1 PUSH1 0xA0 SHL SUB PUSH32 0x0 AND EQ DUP1 PUSH2 0x1DFA JUMPI POP PUSH32 0x0 PUSH1 0x1 PUSH1 0x1 PUSH1 0xA0 SHL SUB AND PUSH2 0x1DEE PUSH0 DUP1 MLOAD PUSH1 0x20 PUSH2 0x28E7 DUP4 CODECOPY DUP2 MLOAD SWAP2 MSTORE SLOAD PUSH1 0x1 PUSH1 0x1 PUSH1 0xA0 SHL SUB AND SWAP1 JUMP JUMPDEST PUSH1 0x1 PUSH1 0x1 PUSH1 0xA0 SHL SUB AND EQ ISZERO JUMPDEST ISZERO PUSH2 0x1151 JUMPI PUSH1 0x40 MLOAD PUSH4 0x703E46DD PUSH1 0xE1 SHL DUP2 MSTORE PUSH1 0x4 ADD PUSH1 0x40 MLOAD DUP1 SWAP2 SUB SWAP1 REVERT JUMPDEST PUSH2 0x8FA PUSH2 0x1CBA JUMP JUMPDEST DUP2 PUSH1 0x1 PUSH1 0x1 PUSH1 0xA0 SHL SUB AND PUSH4 0x52D1902D PUSH1 0x40 MLOAD DUP2 PUSH4 0xFFFFFFFF AND PUSH1 0xE0 SHL DUP2 MSTORE PUSH1 0x4 ADD PUSH1 0x20 PUSH1 0x40 MLOAD DUP1 DUP4 SUB DUP2 DUP7 GAS STATICCALL SWAP3 POP POP POP DUP1 ISZERO PUSH2 0x1E7A JUMPI POP PUSH1 0x40 DUP1 MLOAD PUSH1 0x1F RETURNDATASIZE SWAP1 DUP2 ADD PUSH1 0x1F NOT AND DUP3 ADD SWAP1 SWAP3 MSTORE PUSH2 0x1E77 SWAP2 DUP2 ADD SWAP1 PUSH2 0x28B4 JUMP JUMPDEST PUSH1 0x1 JUMPDEST PUSH2 0x1EA2 JUMPI PUSH1 0x40 MLOAD PUSH4 0x4C9C8CE3 PUSH1 0xE0 SHL DUP2 MSTORE PUSH1 0x1 PUSH1 0x1 PUSH1 0xA0 SHL SUB DUP4 AND PUSH1 0x4 DUP3 ADD MSTORE PUSH1 0x24 ADD PUSH2 0x619 JUMP JUMPDEST PUSH0 DUP1 MLOAD PUSH1 0x20 PUSH2 0x28E7 DUP4 CODECOPY DUP2 MLOAD SWAP2 MSTORE DUP2 EQ PUSH2 0x1ED2 JUMPI PUSH1 0x40 MLOAD PUSH4 0x2A875269 PUSH1 0xE2 SHL DUP2 MSTORE PUSH1 0x4 DUP2 ADD DUP3 SWAP1 MSTORE PUSH1 0x24 ADD PUSH2 0x619 JUMP JUMPDEST PUSH2 0x1EDC DUP4 DUP4 PUSH2 0x20AA JUMP JUMPDEST POP POP POP JUMP JUMPDEST ADDRESS PUSH1 0x1 PUSH1 0x1 PUSH1 0xA0 SHL SUB PUSH32 0x0 AND EQ PUSH2 0x1151 JUMPI PUSH1 0x40 MLOAD PUSH4 0x703E46DD PUSH1 0xE1 SHL DUP2 MSTORE PUSH1 0x4 ADD PUSH1 0x40 MLOAD DUP1 SWAP2 SUB SWAP1 REVERT JUMPDEST PUSH1 0x40 DUP1 MLOAD PUSH1 0x1 PUSH1 0x1 PUSH1 0xA0 SHL SUB DUP6 DUP2 AND PUSH1 0x24 DUP4 ADD MSTORE DUP5 AND PUSH1 0x44 DUP3 ADD MSTORE PUSH1 0x64 DUP1 DUP3 ADD DUP5 SWAP1 MSTORE DUP3 MLOAD DUP1 DUP4 SUB SWAP1 SWAP2 ADD DUP2 MSTORE PUSH1 0x84 SWAP1 SWAP2 ADD SWAP1 SWAP2 MSTORE PUSH1 0x20 DUP2 ADD DUP1 MLOAD PUSH1 0x1 PUSH1 0x1 PUSH1 0xE0 SHL SUB AND PUSH4 0x23B872DD PUSH1 0xE0 SHL OR SWAP1 MSTORE PUSH2 0x1F84 SWAP1 DUP6 SWAP1 PUSH2 0x20FF JUMP JUMPDEST POP POP POP POP JUMP JUMPDEST PUSH32 0x9016D09D72D40FDAE2FD8CEAC6B6234C7706214FD39C1CD1E609A0528C199300 DUP1 SLOAD PUSH1 0x1 PUSH1 0x1 PUSH1 0xA0 SHL SUB NOT DUP2 AND PUSH1 0x1 PUSH1 0x1 PUSH1 0xA0 SHL SUB DUP5 DUP2 AND SWAP2 DUP3 OR DUP5 SSTORE PUSH1 0x40 MLOAD SWAP3 AND SWAP2 DUP3 SWAP1 PUSH32 0x8BE0079C531659141344CD1FD0A4F28419497F9722A3DAAFE3B4186F6B6457E0 SWAP1 PUSH0 SWAP1 LOG3 POP POP POP JUMP JUMPDEST PUSH2 0x2002 PUSH2 0x2160 JUMP JUMPDEST PUSH2 0x8FA DUP2 PUSH2 0x21A9 JUMP JUMPDEST PUSH2 0x2013 PUSH2 0x2160 JUMP JUMPDEST PUSH2 0x1151 PUSH2 0x21B1 JUMP JUMPDEST PUSH2 0x1151 PUSH2 0x2160 JUMP JUMPDEST PUSH2 0x202B PUSH2 0x2160 JUMP JUMPDEST PUSH2 0x1151 PUSH2 0x21D1 JUMP JUMPDEST PUSH2 0x203B PUSH2 0x1C40 JUMP JUMPDEST PUSH0 DUP1 MLOAD PUSH1 0x20 PUSH2 0x2907 DUP4 CODECOPY DUP2 MLOAD SWAP2 MSTORE DUP1 SLOAD PUSH1 0xFF NOT AND PUSH1 0x1 OR DUP2 SSTORE PUSH32 0x62E78CEA01BEE320CD4E420270B5EA74000D11B0C9F74754EBDBFC544B05A258 CALLER PUSH2 0x1D56 JUMP JUMPDEST PUSH0 DUP1 MLOAD PUSH1 0x20 PUSH2 0x2907 DUP4 CODECOPY DUP2 MLOAD SWAP2 MSTORE SLOAD PUSH1 0xFF AND PUSH2 0x1151 JUMPI PUSH1 0x40 MLOAD PUSH4 0x8DFC202B PUSH1 0xE0 SHL DUP2 MSTORE PUSH1 0x4 ADD PUSH1 0x40 MLOAD DUP1 SWAP2 SUB SWAP1 REVERT JUMPDEST PUSH2 0x20B3 DUP3 PUSH2 0x21D9 JUMP JUMPDEST PUSH1 0x40 MLOAD PUSH1 0x1 PUSH1 0x1 PUSH1 0xA0 SHL SUB DUP4 AND SWAP1 PUSH32 0xBC7CD75A20EE27FD9ADEBAB32041F755214DBC6BFFA90CC0225B39DA2E5C2D3B SWAP1 PUSH0 SWAP1 LOG2 DUP1 MLOAD ISZERO PUSH2 0x20F7 JUMPI PUSH2 0x1EDC DUP3 DUP3 PUSH2 0x223C JUMP JUMPDEST PUSH2 0x775 PUSH2 0x22B0 JUMP JUMPDEST PUSH0 PUSH2 0x2113 PUSH1 0x1 PUSH1 0x1 PUSH1 0xA0 SHL SUB DUP5 AND DUP4 PUSH2 0x22CF JUMP JUMPDEST SWAP1 POP DUP1 MLOAD PUSH0 EQ ISZERO DUP1 ISZERO PUSH2 0x2137 JUMPI POP DUP1 DUP1 PUSH1 0x20 ADD SWAP1 MLOAD DUP2 ADD SWAP1 PUSH2 0x2135 SWAP2 SWAP1 PUSH2 0x27BD JUMP JUMPDEST ISZERO JUMPDEST ISZERO PUSH2 0x1EDC JUMPI PUSH1 0x40 MLOAD PUSH4 0x5274AFE7 PUSH1 0xE0 SHL DUP2 MSTORE PUSH1 0x1 PUSH1 0x1 PUSH1 0xA0 SHL SUB DUP5 AND PUSH1 0x4 DUP3 ADD MSTORE PUSH1 0x24 ADD PUSH2 0x619 JUMP JUMPDEST PUSH32 0xF0C57E16840DF040F15088DC2F81FE391C3923BEC73E23A9662EFC9C229C6A00 SLOAD PUSH1 0x1 PUSH1 0x40 SHL SWAP1 DIV PUSH1 0xFF AND PUSH2 0x1151 JUMPI PUSH1 0x40 MLOAD PUSH4 0x1AFCD79F PUSH1 0xE3 SHL DUP2 MSTORE PUSH1 0x4 ADD PUSH1 0x40 MLOAD DUP1 SWAP2 SUB SWAP1 REVERT JUMPDEST PUSH2 0x1C0E PUSH2 0x2160 JUMP JUMPDEST PUSH2 0x21B9 PUSH2 0x2160 JUMP JUMPDEST PUSH0 DUP1 MLOAD PUSH1 0x20 PUSH2 0x2907 DUP4 CODECOPY DUP2 MLOAD SWAP2 MSTORE DUP1 SLOAD PUSH1 0xFF NOT AND SWAP1 SSTORE JUMP JUMPDEST PUSH2 0x1CA7 PUSH2 0x2160 JUMP JUMPDEST DUP1 PUSH1 0x1 PUSH1 0x1 PUSH1 0xA0 SHL SUB AND EXTCODESIZE PUSH0 SUB PUSH2 0x220E JUMPI PUSH1 0x40 MLOAD PUSH4 0x4C9C8CE3 PUSH1 0xE0 SHL DUP2 MSTORE PUSH1 0x1 PUSH1 0x1 PUSH1 0xA0 SHL SUB DUP3 AND PUSH1 0x4 DUP3 ADD MSTORE PUSH1 0x24 ADD PUSH2 0x619 JUMP JUMPDEST PUSH0 DUP1 MLOAD PUSH1 0x20 PUSH2 0x28E7 DUP4 CODECOPY DUP2 MLOAD SWAP2 MSTORE DUP1 SLOAD PUSH1 0x1 PUSH1 0x1 PUSH1 0xA0 SHL SUB NOT AND PUSH1 0x1 PUSH1 0x1 PUSH1 0xA0 SHL SUB SWAP3 SWAP1 SWAP3 AND SWAP2 SWAP1 SWAP2 OR SWAP1 SSTORE JUMP JUMPDEST PUSH1 0x60 PUSH0 DUP1 DUP5 PUSH1 0x1 PUSH1 0x1 PUSH1 0xA0 SHL SUB AND DUP5 PUSH1 0x40 MLOAD PUSH2 0x2258 SWAP2 SWAP1 PUSH2 0x28CB JUMP JUMPDEST PUSH0 PUSH1 0x40 MLOAD DUP1 DUP4 SUB DUP2 DUP6 GAS DELEGATECALL SWAP2 POP POP RETURNDATASIZE DUP1 PUSH0 DUP2 EQ PUSH2 0x2290 JUMPI PUSH1 0x40 MLOAD SWAP2 POP PUSH1 0x1F NOT PUSH1 0x3F RETURNDATASIZE ADD AND DUP3 ADD PUSH1 0x40 MSTORE RETURNDATASIZE DUP3 MSTORE RETURNDATASIZE PUSH0 PUSH1 0x20 DUP5 ADD RETURNDATACOPY PUSH2 0x2295 JUMP JUMPDEST PUSH1 0x60 SWAP2 POP JUMPDEST POP SWAP2 POP SWAP2 POP PUSH2 0x22A5 DUP6 DUP4 DUP4 PUSH2 0x22E3 JUMP JUMPDEST SWAP3 POP POP POP JUMPDEST SWAP3 SWAP2 POP POP JUMP JUMPDEST CALLVALUE ISZERO PUSH2 0x1151 JUMPI PUSH1 0x40 MLOAD PUSH4 0xB398979F PUSH1 0xE0 SHL DUP2 MSTORE PUSH1 0x4 ADD PUSH1 0x40 MLOAD DUP1 SWAP2 SUB SWAP1 REVERT JUMPDEST PUSH1 0x60 PUSH2 0x22DC DUP4 DUP4 PUSH0 PUSH2 0x233F JUMP JUMPDEST SWAP4 SWAP3 POP POP POP JUMP JUMPDEST PUSH1 0x60 DUP3 PUSH2 0x22F8 JUMPI PUSH2 0x22F3 DUP3 PUSH2 0x23D8 JUMP JUMPDEST PUSH2 0x22DC JUMP JUMPDEST DUP2 MLOAD ISZERO DUP1 ISZERO PUSH2 0x230F JUMPI POP PUSH1 0x1 PUSH1 0x1 PUSH1 0xA0 SHL SUB DUP5 AND EXTCODESIZE ISZERO JUMPDEST ISZERO PUSH2 0x2338 JUMPI PUSH1 0x40 MLOAD PUSH4 0x9996B315 PUSH1 0xE0 SHL DUP2 MSTORE PUSH1 0x1 PUSH1 0x1 PUSH1 0xA0 SHL SUB DUP6 AND PUSH1 0x4 DUP3 ADD MSTORE PUSH1 0x24 ADD PUSH2 0x619 JUMP JUMPDEST POP SWAP3 SWAP2 POP POP JUMP JUMPDEST PUSH1 0x60 DUP2 SELFBALANCE LT ISZERO PUSH2 0x2364 JUMPI PUSH1 0x40 MLOAD PUSH4 0xCD786059 PUSH1 0xE0 SHL DUP2 MSTORE ADDRESS PUSH1 0x4 DUP3 ADD MSTORE PUSH1 0x24 ADD PUSH2 0x619 JUMP JUMPDEST PUSH0 DUP1 DUP6 PUSH1 0x1 PUSH1 0x1 PUSH1 0xA0 SHL SUB AND DUP5 DUP7 PUSH1 0x40 MLOAD PUSH2 0x237F SWAP2 SWAP1 PUSH2 0x28CB JUMP JUMPDEST PUSH0 PUSH1 0x40 MLOAD DUP1 DUP4 SUB DUP2 DUP6 DUP8 GAS CALL SWAP3 POP POP POP RETURNDATASIZE DUP1 PUSH0 DUP2 EQ PUSH2 0x23B9 JUMPI PUSH1 0x40 MLOAD SWAP2 POP PUSH1 0x1F NOT PUSH1 0x3F RETURNDATASIZE ADD AND DUP3 ADD PUSH1 0x40 MSTORE RETURNDATASIZE DUP3 MSTORE RETURNDATASIZE PUSH0 PUSH1 0x20 DUP5 ADD RETURNDATACOPY PUSH2 0x23BE JUMP JUMPDEST PUSH1 0x60 SWAP2 POP JUMPDEST POP SWAP2 POP SWAP2 POP PUSH2 0x23CE DUP7 DUP4 DUP4 PUSH2 0x2401 JUMP JUMPDEST SWAP7 SWAP6 POP POP POP POP POP POP JUMP JUMPDEST DUP1 MLOAD ISZERO PUSH2 0x23E8 JUMPI DUP1 MLOAD DUP1 DUP3 PUSH1 0x20 ADD REVERT JUMPDEST PUSH1 0x40 MLOAD PUSH4 0xD6BDA275 PUSH1 0xE0 SHL DUP2 MSTORE PUSH1 0x4 ADD PUSH1 0x40 MLOAD DUP1 SWAP2 SUB SWAP1 REVERT JUMPDEST PUSH1 0x60 DUP3 PUSH2 0x22F8 JUMPI PUSH2 0x22F3 DUP3 DUP1 MLOAD ISZERO PUSH2 0x241C JUMPI DUP1 MLOAD DUP1 DUP3 PUSH1 0x20 ADD REVERT JUMPDEST PUSH1 0x40 MLOAD PUSH4 0xA12F521 PUSH1 0xE1 SHL DUP2 MSTORE PUSH1 0x4 ADD PUSH1 0x40 MLOAD DUP1 SWAP2 SUB SWAP1 REVERT JUMPDEST PUSH1 0x40 MLOAD DUP1 PUSH1 0xA0 ADD PUSH1 0x40 MSTORE DUP1 PUSH0 DUP2 MSTORE PUSH1 0x20 ADD PUSH0 PUSH1 0x1 PUSH1 0x1 PUSH1 0xA0 SHL SUB AND DUP2 MSTORE PUSH1 0x20 ADD PUSH0 DUP2 MSTORE PUSH1 0x20 ADD PUSH0 ISZERO ISZERO DUP2 MSTORE PUSH1 0x20 ADD PUSH0 DUP2 MSTORE POP SWAP1 JUMP JUMPDEST PUSH0 DUP1 PUSH1 0x40 DUP4 DUP6 SUB SLT ISZERO PUSH2 0x247B JUMPI PUSH0 DUP1 REVERT JUMPDEST POP POP DUP1 CALLDATALOAD SWAP3 PUSH1 0x20 SWAP1 SWAP2 ADD CALLDATALOAD SWAP2 POP JUMP JUMPDEST PUSH1 0x1 PUSH1 0x1 PUSH1 0xA0 SHL SUB DUP2 AND DUP2 EQ PUSH2 0x8FA JUMPI PUSH0 DUP1 REVERT JUMPDEST PUSH0 DUP1 PUSH0 DUP1 PUSH0 PUSH1 0x80 DUP7 DUP9 SUB SLT ISZERO PUSH2 0x24B2 JUMPI PUSH0 DUP1 REVERT JUMPDEST DUP6 CALLDATALOAD PUSH2 0x24BD DUP2 PUSH2 0x248A JUMP JUMPDEST SWAP5 POP PUSH1 0x20 DUP7 ADD CALLDATALOAD PUSH2 0x24CD DUP2 PUSH2 0x248A JUMP JUMPDEST SWAP4 POP PUSH1 0x40 DUP7 ADD CALLDATALOAD SWAP3 POP PUSH1 0x60 DUP7 ADD CALLDATALOAD PUSH8 0xFFFFFFFFFFFFFFFF DUP1 DUP3 GT ISZERO PUSH2 0x24F0 JUMPI PUSH0 DUP1 REVERT JUMPDEST DUP2 DUP9 ADD SWAP2 POP DUP9 PUSH1 0x1F DUP4 ADD SLT PUSH2 0x2503 JUMPI PUSH0 DUP1 REVERT JUMPDEST DUP2 CALLDATALOAD DUP2 DUP2 GT ISZERO PUSH2 0x2511 JUMPI PUSH0 DUP1 REVERT JUMPDEST DUP10 PUSH1 0x20 DUP3 DUP6 ADD ADD GT ISZERO PUSH2 0x2522 JUMPI PUSH0 DUP1 REVERT JUMPDEST SWAP7 SWAP10 SWAP6 SWAP9 POP SWAP4 SWAP7 POP PUSH1 0x20 ADD SWAP5 SWAP4 SWAP3 POP POP POP JUMP JUMPDEST PUSH0 PUSH1 0x20 DUP3 DUP5 SUB SLT ISZERO PUSH2 0x2545 JUMPI PUSH0 DUP1 REVERT JUMPDEST DUP2 CALLDATALOAD PUSH2 0x22DC DUP2 PUSH2 0x248A JUMP JUMPDEST PUSH0 PUSH1 0x20 DUP3 DUP5 SUB SLT ISZERO PUSH2 0x2560 JUMPI PUSH0 DUP1 REVERT JUMPDEST POP CALLDATALOAD SWAP2 SWAP1 POP JUMP JUMPDEST PUSH4 0x4E487B71 PUSH1 0xE0 SHL PUSH0 MSTORE PUSH1 0x41 PUSH1 0x4 MSTORE PUSH1 0x24 PUSH0 REVERT JUMPDEST PUSH1 0x40 MLOAD PUSH1 0x1F DUP3 ADD PUSH1 0x1F NOT AND DUP2 ADD PUSH8 0xFFFFFFFFFFFFFFFF DUP2 GT DUP3 DUP3 LT OR ISZERO PUSH2 0x25A4 JUMPI PUSH2 0x25A4 PUSH2 0x2567 JUMP JUMPDEST PUSH1 0x40 MSTORE SWAP2 SWAP1 POP JUMP JUMPDEST PUSH0 DUP1 PUSH1 0x40 DUP4 DUP6 SUB SLT ISZERO PUSH2 0x25BD JUMPI PUSH0 DUP1 REVERT JUMPDEST DUP3 CALLDATALOAD PUSH2 0x25C8 DUP2 PUSH2 0x248A JUMP JUMPDEST SWAP2 POP PUSH1 0x20 DUP4 DUP2 ADD CALLDATALOAD PUSH8 0xFFFFFFFFFFFFFFFF DUP1 DUP3 GT ISZERO PUSH2 0x25E5 JUMPI PUSH0 DUP1 REVERT JUMPDEST DUP2 DUP7 ADD SWAP2 POP DUP7 PUSH1 0x1F DUP4 ADD SLT PUSH2 0x25F8 JUMPI PUSH0 DUP1 REVERT JUMPDEST DUP2 CALLDATALOAD DUP2 DUP2 GT ISZERO PUSH2 0x260A JUMPI PUSH2 0x260A PUSH2 0x2567 JUMP JUMPDEST PUSH2 0x261C PUSH1 0x1F DUP3 ADD PUSH1 0x1F NOT AND DUP6 ADD PUSH2 0x257B JUMP JUMPDEST SWAP2 POP DUP1 DUP3 MSTORE DUP8 DUP5 DUP3 DUP6 ADD ADD GT ISZERO PUSH2 0x2631 JUMPI PUSH0 DUP1 REVERT JUMPDEST DUP1 DUP5 DUP5 ADD DUP6 DUP5 ADD CALLDATACOPY PUSH0 DUP5 DUP3 DUP5 ADD ADD MSTORE POP DUP1 SWAP4 POP POP POP POP SWAP3 POP SWAP3 SWAP1 POP JUMP JUMPDEST PUSH1 0x20 DUP1 DUP3 MSTORE DUP3 MLOAD DUP3 DUP3 ADD DUP2 SWAP1 MSTORE PUSH0 SWAP2 SWAP1 PUSH1 0x40 SWAP1 DUP2 DUP6 ADD SWAP1 DUP7 DUP5 ADD DUP6 JUMPDEST DUP3 DUP2 LT ISZERO PUSH2 0x26B9 JUMPI DUP2 MLOAD DUP1 MLOAD DUP6 MSTORE DUP7 DUP2 ADD MLOAD PUSH1 0x1 PUSH1 0x1 PUSH1 0xA0 SHL SUB AND DUP8 DUP7 ADD MSTORE DUP6 DUP2 ADD MLOAD DUP7 DUP7 ADD MSTORE PUSH1 0x60 DUP1 DUP3 ADD MLOAD ISZERO ISZERO SWAP1 DUP7 ADD MSTORE PUSH1 0x80 SWAP1 DUP2 ADD MLOAD SWAP1 DUP6 ADD MSTORE PUSH1 0xA0 SWAP1 SWAP4 ADD SWAP3 SWAP1 DUP6 ADD SWAP1 PUSH1 0x1 ADD PUSH2 0x266A JUMP JUMPDEST POP SWAP2 SWAP8 SWAP7 POP POP POP POP POP POP POP JUMP JUMPDEST PUSH0 JUMPDEST DUP4 DUP2 LT ISZERO PUSH2 0x26E0 JUMPI DUP2 DUP2 ADD MLOAD DUP4 DUP3 ADD MSTORE PUSH1 0x20 ADD PUSH2 0x26C8 JUMP JUMPDEST POP POP PUSH0 SWAP2 ADD MSTORE JUMP JUMPDEST PUSH1 0x20 DUP2 MSTORE PUSH0 DUP3 MLOAD DUP1 PUSH1 0x20 DUP5 ADD MSTORE PUSH2 0x2706 DUP2 PUSH1 0x40 DUP6 ADD PUSH1 0x20 DUP8 ADD PUSH2 0x26C6 JUMP JUMPDEST PUSH1 0x1F ADD PUSH1 0x1F NOT AND SWAP2 SWAP1 SWAP2 ADD PUSH1 0x40 ADD SWAP3 SWAP2 POP POP JUMP JUMPDEST PUSH1 0x20 DUP1 DUP3 MSTORE PUSH1 0x12 SWAP1 DUP3 ADD MSTORE PUSH18 0x4C697374696E67206E6F7420616374697665 PUSH1 0x70 SHL PUSH1 0x40 DUP3 ADD MSTORE PUSH1 0x60 ADD SWAP1 JUMP JUMPDEST PUSH4 0x4E487B71 PUSH1 0xE0 SHL PUSH0 MSTORE PUSH1 0x11 PUSH1 0x4 MSTORE PUSH1 0x24 PUSH0 REVERT JUMPDEST PUSH0 DUP3 PUSH2 0x2774 JUMPI PUSH4 0x4E487B71 PUSH1 0xE0 SHL PUSH0 MSTORE PUSH1 0x12 PUSH1 0x4 MSTORE PUSH1 0x24 PUSH0 REVERT JUMPDEST POP DIV SWAP1 JUMP JUMPDEST PUSH1 0x20 DUP1 DUP3 MSTORE PUSH1 0xF SWAP1 DUP3 ADD MSTORE PUSH15 0x496E76616C69642061646472657373 PUSH1 0x88 SHL PUSH1 0x40 DUP3 ADD MSTORE PUSH1 0x60 ADD SWAP1 JUMP JUMPDEST PUSH0 PUSH1 0x20 DUP3 DUP5 SUB SLT ISZERO PUSH2 0x27B2 JUMPI PUSH0 DUP1 REVERT JUMPDEST DUP2 MLOAD PUSH2 0x22DC DUP2 PUSH2 0x248A JUMP JUMPDEST PUSH0 PUSH1 0x20 DUP3 DUP5 SUB SLT ISZERO PUSH2 0x27CD JUMPI PUSH0 DUP1 REVERT JUMPDEST DUP2 MLOAD DUP1 ISZERO ISZERO DUP2 EQ PUSH2 0x22DC JUMPI PUSH0 DUP1 REVERT JUMPDEST PUSH0 PUSH1 0xE0 DUP3 DUP5 SUB SLT ISZERO PUSH2 0x27EC JUMPI PUSH0 DUP1 REVERT JUMPDEST PUSH1 0x40 MLOAD PUSH1 0xE0 DUP2 ADD DUP2 DUP2 LT PUSH8 0xFFFFFFFFFFFFFFFF DUP3 GT OR ISZERO PUSH2 0x280F JUMPI PUSH2 0x280F PUSH2 0x2567 JUMP JUMPDEST DUP1 PUSH1 0x40 MSTORE POP DUP3 MLOAD DUP2 MSTORE PUSH1 0x20 DUP4 ADD MLOAD PUSH1 0x20 DUP3 ADD MSTORE PUSH1 0x40 DUP4 ADD MLOAD PUSH1 0x40 DUP3 ADD MSTORE PUSH1 0x60 DUP4 ADD MLOAD PUSH1 0x60 DUP3 ADD MSTORE PUSH1 0x80 DUP4 ADD MLOAD PUSH1 0x80 DUP3 ADD MSTORE PUSH1 0xA0 DUP4 ADD MLOAD PUSH1 0xA0 DUP3 ADD MSTORE PUSH1 0xC0 DUP4 ADD MLOAD PUSH1 0xC0 DUP3 ADD MSTORE DUP1 SWAP2 POP POP SWAP3 SWAP2 POP POP JUMP JUMPDEST DUP1 DUP3 MUL DUP2 ISZERO DUP3 DUP3 DIV DUP5 EQ OR PUSH2 0x22AA JUMPI PUSH2 0x22AA PUSH2 0x2746 JUMP JUMPDEST DUP2 DUP2 SUB DUP2 DUP2 GT ISZERO PUSH2 0x22AA JUMPI PUSH2 0x22AA PUSH2 0x2746 JUMP JUMPDEST PUSH0 PUSH1 0x1 DUP3 ADD PUSH2 0x2899 JUMPI PUSH2 0x2899 PUSH2 0x2746 JUMP JUMPDEST POP PUSH1 0x1 ADD SWAP1 JUMP JUMPDEST PUSH4 0x4E487B71 PUSH1 0xE0 SHL PUSH0 MSTORE PUSH1 0x32 PUSH1 0x4 MSTORE PUSH1 0x24 PUSH0 REVERT JUMPDEST PUSH0 PUSH1 0x20 DUP3 DUP5 SUB SLT ISZERO PUSH2 0x28C4 JUMPI PUSH0 DUP1 REVERT JUMPDEST POP MLOAD SWAP2 SWAP1 POP JUMP JUMPDEST PUSH0 DUP3 MLOAD PUSH2 0x28DC DUP2 DUP5 PUSH1 0x20 DUP8 ADD PUSH2 0x26C6 JUMP JUMPDEST SWAP2 SWAP1 SWAP2 ADD SWAP3 SWAP2 POP POP JUMP INVALID CALLDATASIZE ADDMOD SWAP5 LOG1 EXTCODESIZE LOG1 LOG3 0x21 MOD PUSH8 0xC828492DB98DCA3E KECCAK256 PUSH23 0xCC3735A920A3CA505D382BBCCD5ED15C6E187E77E9AEE8 DUP2 DUP5 0xC2 0x1F 0x4F 0x21 DUP3 0xAB PC 0x27 0xCB EXTCODESIZE PUSH31 0x7FBEDCD63F033009B779B17422D0DF92223018B32B4D1FA46E071723D6817 0xE2 BASEFEE PUSH14 0x3BECC55F00A264697066735822 SLT KECCAK256 MUL 0xE4 DUP14 EXTCODESIZE XOR 0xBD STOP MCOPY 0xCE 0x1F MSIZE PUSH27 0xFDF6C439547549649C5808BD8D444F332D5957E064736F6C634300 ADDMOD XOR STOP CALLER "
		},
		"gasEstimates": {
			"creation": {
				"codeDepositCost": "2124000",
				"executionCost": "infinite",
				"totalCost": "infinite"
			},
			"external": {
				"BASIS_POINTS()": "238",
				"UPGRADE_INTERFACE_VERSION()": "infinite",
				"buyCharacter(uint256,uint256)": "infinite",
				"buyerPoints()": "2405",
				"cancelListing(uint256)": "infinite",
				"currency()": "2402",
				"feeBps()": "2385",
				"feeRecipient()": "2448",
				"getActiveListings()": "infinite",
				"getWalletListings(address)": "infinite",
				"initialize()": "infinite",
				"listCharacter(uint256,uint256)": "infinite",
				"nftContract()": "2446",
				"onERC721Received(address,address,uint256,bytes)": "infinite",
				"owner()": "2397",
				"ownerCancelEveryListing()": "infinite",
				"pause()": "infinite",
				"paused()": "infinite",
				"proxiableUUID()": "infinite",
				"renounceOwnership()": "infinite",
				"sellerPoints()": "2362",
				"setCurrency(address)": "26841",
				"setFeeBps(uint256)": "24634",
				"setFeeRecipient(address)": "26883",
				"setNFTContract(address)": "26839",
				"setPoints(uint256,uint256)": "46809",
				"transferOwnership(address)": "infinite",
				"unpause()": "infinite",
				"updateListing(uint256,uint256)": "infinite",
				"upgradeToAndCall(address,bytes)": "infinite"
			},
			"internal": {
				"_authorizeUpgrade(address)": "infinite"
			}
		},
		"methodIdentifiers": {
			"BASIS_POINTS()": "e1f1c4a7",
			"UPGRADE_INTERFACE_VERSION()": "ad3cb1cc",
			"buyCharacter(uint256,uint256)": "63712d84",
			"buyerPoints()": "a4107a78",
			"cancelListing(uint256)": "305a67a8",
			"currency()": "e5a6b10f",
			"feeBps()": "24a9d853",
			"feeRecipient()": "46904840",
			"getActiveListings()": "87c35bc0",
			"getWalletListings(address)": "64d57436",
			"initialize()": "8129fc1c",
			"listCharacter(uint256,uint256)": "93879234",
			"nftContract()": "d56d229d",
			"onERC721Received(address,address,uint256,bytes)": "150b7a02",
			"owner()": "8da5cb5b",
			"ownerCancelEveryListing()": "b5144fe5",
			"pause()": "8456cb59",
			"paused()": "5c975abb",
			"proxiableUUID()": "52d1902d",
			"renounceOwnership()": "715018a6",
			"sellerPoints()": "8206e91e",
			"setCurrency(address)": "2f84c391",
			"setFeeBps(uint256)": "72c27b62",
			"setFeeRecipient(address)": "e74b981b",
			"setNFTContract(address)": "a7ccabdf",
			"setPoints(uint256,uint256)": "7aa85528",
			"transferOwnership(address)": "f2fde38b",
			"unpause()": "3f4ba83a",
			"updateListing(uint256,uint256)": "0179ea88",
			"upgradeToAndCall(address,bytes)": "4f1ef286"
		}
	},
	"abi": [
		{
			"inputs": [],
			"stateMutability": "nonpayable",
			"type": "constructor"
		},
		{
			"inputs": [
				{
					"internalType": "address",
					"name": "target",
					"type": "address"
				}
			],
			"name": "AddressEmptyCode",
			"type": "error"
		},
		{
			"inputs": [
				{
					"internalType": "address",
					"name": "target",
					"type": "address"
				}
			],
			"name": "AddressEmptyCode",
			"type": "error"
		},
		{
			"inputs": [
				{
					"internalType": "address",
					"name": "account",
					"type": "address"
				}
			],
			"name": "AddressInsufficientBalance",
			"type": "error"
		},
		{
			"inputs": [
				{
					"internalType": "address",
					"name": "implementation",
					"type": "address"
				}
			],
			"name": "ERC1967InvalidImplementation",
			"type": "error"
		},
		{
			"inputs": [],
			"name": "ERC1967NonPayable",
			"type": "error"
		},
		{
			"inputs": [],
			"name": "EnforcedPause",
			"type": "error"
		},
		{
			"inputs": [],
			"name": "ExpectedPause",
			"type": "error"
		},
		{
			"inputs": [],
			"name": "FailedCall",
			"type": "error"
		},
		{
			"inputs": [],
			"name": "FailedInnerCall",
			"type": "error"
		},
		{
			"inputs": [],
			"name": "InvalidInitialization",
			"type": "error"
		},
		{
			"inputs": [],
			"name": "NotInitializing",
			"type": "error"
		},
		{
			"inputs": [
				{
					"internalType": "address",
					"name": "owner",
					"type": "address"
				}
			],
			"name": "OwnableInvalidOwner",
			"type": "error"
		},
		{
			"inputs": [
				{
					"internalType": "address",
					"name": "account",
					"type": "address"
				}
			],
			"name": "OwnableUnauthorizedAccount",
			"type": "error"
		},
		{
			"inputs": [],
			"name": "ReentrancyGuardReentrantCall",
			"type": "error"
		},
		{
			"inputs": [
				{
					"internalType": "address",
					"name": "token",
					"type": "address"
				}
			],
			"name": "SafeERC20FailedOperation",
			"type": "error"
		},
		{
			"inputs": [],
			"name": "UUPSUnauthorizedCallContext",
			"type": "error"
		},
		{
			"inputs": [
				{
					"internalType": "bytes32",
					"name": "slot",
					"type": "bytes32"
				}
			],
			"name": "UUPSUnsupportedProxiableUUID",
			"type": "error"
		},
		{
			"anonymous": false,
			"inputs": [
				{
					"indexed": false,
					"internalType": "uint256",
					"name": "count",
					"type": "uint256"
				}
			],
			"name": "AllListingsCancelled",
			"type": "event"
		},
		{
			"anonymous": false,
			"inputs": [
				{
					"indexed": true,
					"internalType": "uint256",
					"name": "listingId",
					"type": "uint256"
				},
				{
					"indexed": true,
					"internalType": "uint256",
					"name": "tokenId",
					"type": "uint256"
				},
				{
					"indexed": true,
					"internalType": "address",
					"name": "buyer",
					"type": "address"
				},
				{
					"indexed": false,
					"internalType": "uint256",
					"name": "price",
					"type": "uint256"
				}
			],
			"name": "CharacterBought",
			"type": "event"
		},
		{
			"anonymous": false,
			"inputs": [
				{
					"indexed": true,
					"internalType": "uint256",
					"name": "listingId",
					"type": "uint256"
				},
				{
					"indexed": true,
					"internalType": "uint256",
					"name": "tokenId",
					"type": "uint256"
				},
				{
					"indexed": true,
					"internalType": "address",
					"name": "seller",
					"type": "address"
				},
				{
					"indexed": false,
					"internalType": "uint256",
					"name": "price",
					"type": "uint256"
				}
			],
			"name": "CharacterListed",
			"type": "event"
		},
		{
			"anonymous": false,
			"inputs": [
				{
					"indexed": false,
					"internalType": "uint64",
					"name": "version",
					"type": "uint64"
				}
			],
			"name": "Initialized",
			"type": "event"
		},
		{
			"anonymous": false,
			"inputs": [
				{
					"indexed": true,
					"internalType": "uint256",
					"name": "listingId",
					"type": "uint256"
				},
				{
					"indexed": true,
					"internalType": "uint256",
					"name": "tokenId",
					"type": "uint256"
				}
			],
			"name": "ListingCancelled",
			"type": "event"
		},
		{
			"anonymous": false,
			"inputs": [
				{
					"indexed": true,
					"internalType": "uint256",
					"name": "listingId",
					"type": "uint256"
				},
				{
					"indexed": true,
					"internalType": "uint256",
					"name": "tokenId",
					"type": "uint256"
				},
				{
					"indexed": false,
					"internalType": "uint256",
					"name": "newPrice",
					"type": "uint256"
				}
			],
			"name": "ListingUpdated",
			"type": "event"
		},
		{
			"anonymous": false,
			"inputs": [
				{
					"indexed": true,
					"internalType": "address",
					"name": "previousOwner",
					"type": "address"
				},
				{
					"indexed": true,
					"internalType": "address",
					"name": "newOwner",
					"type": "address"
				}
			],
			"name": "OwnershipTransferred",
			"type": "event"
		},
		{
			"anonymous": false,
			"inputs": [
				{
					"indexed": false,
					"internalType": "address",
					"name": "account",
					"type": "address"
				}
			],
			"name": "Paused",
			"type": "event"
		},
		{
			"anonymous": false,
			"inputs": [
				{
					"indexed": false,
					"internalType": "address",
					"name": "account",
					"type": "address"
				}
			],
			"name": "Unpaused",
			"type": "event"
		},
		{
			"anonymous": false,
			"inputs": [
				{
					"indexed": true,
					"internalType": "address",
					"name": "implementation",
					"type": "address"
				}
			],
			"name": "Upgraded",
			"type": "event"
		},
		{
			"inputs": [],
			"name": "BASIS_POINTS",
			"outputs": [
				{
					"internalType": "uint256",
					"name": "",
					"type": "uint256"
				}
			],
			"stateMutability": "view",
			"type": "function"
		},
		{
			"inputs": [],
			"name": "UPGRADE_INTERFACE_VERSION",
			"outputs": [
				{
					"internalType": "string",
					"name": "",
					"type": "string"
				}
			],
			"stateMutability": "view",
			"type": "function"
		},
		{
			"inputs": [
				{
					"internalType": "uint256",
					"name": "_listingId",
					"type": "uint256"
				},
				{
					"internalType": "uint256",
					"name": "_tokenId",
					"type": "uint256"
				}
			],
			"name": "buyCharacter",
			"outputs": [],
			"stateMutability": "nonpayable",
			"type": "function"
		},
		{
			"inputs": [],
			"name": "buyerPoints",
			"outputs": [
				{
					"internalType": "uint256",
					"name": "",
					"type": "uint256"
				}
			],
			"stateMutability": "view",
			"type": "function"
		},
		{
			"inputs": [
				{
					"internalType": "uint256",
					"name": "_listingId",
					"type": "uint256"
				}
			],
			"name": "cancelListing",
			"outputs": [],
			"stateMutability": "nonpayable",
			"type": "function"
		},
		{
			"inputs": [],
			"name": "currency",
			"outputs": [
				{
					"internalType": "contract IERC20Extended",
					"name": "",
					"type": "address"
				}
			],
			"stateMutability": "view",
			"type": "function"
		},
		{
			"inputs": [],
			"name": "feeBps",
			"outputs": [
				{
					"internalType": "uint256",
					"name": "",
					"type": "uint256"
				}
			],
			"stateMutability": "view",
			"type": "function"
		},
		{
			"inputs": [],
			"name": "feeRecipient",
			"outputs": [
				{
					"internalType": "address",
					"name": "",
					"type": "address"
				}
			],
			"stateMutability": "view",
			"type": "function"
		},
		{
			"inputs": [],
			"name": "getActiveListings",
			"outputs": [
				{
					"components": [
						{
							"internalType": "uint256",
							"name": "tokenId",
							"type": "uint256"
						},
						{
							"internalType": "address",
							"name": "seller",
							"type": "address"
						},
						{
							"internalType": "uint256",
							"name": "price",
							"type": "uint256"
						},
						{
							"internalType": "bool",
							"name": "active",
							"type": "bool"
						},
						{
							"internalType": "uint256",
							"name": "listingId",
							"type": "uint256"
						}
					],
					"internalType": "struct PunkBytesMarketplace.ListingDetails[]",
					"name": "",
					"type": "tuple[]"
				}
			],
			"stateMutability": "view",
			"type": "function"
		},
		{
			"inputs": [
				{
					"internalType": "address",
					"name": "_wallet",
					"type": "address"
				}
			],
			"name": "getWalletListings",
			"outputs": [
				{
					"components": [
						{
							"internalType": "uint256",
							"name": "tokenId",
							"type": "uint256"
						},
						{
							"internalType": "address",
							"name": "seller",
							"type": "address"
						},
						{
							"internalType": "uint256",
							"name": "price",
							"type": "uint256"
						},
						{
							"internalType": "bool",
							"name": "active",
							"type": "bool"
						},
						{
							"internalType": "uint256",
							"name": "listingId",
							"type": "uint256"
						}
					],
					"internalType": "struct PunkBytesMarketplace.ListingDetails[]",
					"name": "",
					"type": "tuple[]"
				}
			],
			"stateMutability": "view",
			"type": "function"
		},
		{
			"inputs": [],
			"name": "initialize",
			"outputs": [],
			"stateMutability": "nonpayable",
			"type": "function"
		},
		{
			"inputs": [
				{
					"internalType": "uint256",
					"name": "_tokenId",
					"type": "uint256"
				},
				{
					"internalType": "uint256",
					"name": "_price",
					"type": "uint256"
				}
			],
			"name": "listCharacter",
			"outputs": [],
			"stateMutability": "nonpayable",
			"type": "function"
		},
		{
			"inputs": [],
			"name": "nftContract",
			"outputs": [
				{
					"internalType": "contract INFTContract",
					"name": "",
					"type": "address"
				}
			],
			"stateMutability": "view",
			"type": "function"
		},
		{
			"inputs": [
				{
					"internalType": "address",
					"name": "",
					"type": "address"
				},
				{
					"internalType": "address",
					"name": "",
					"type": "address"
				},
				{
					"internalType": "uint256",
					"name": "",
					"type": "uint256"
				},
				{
					"internalType": "bytes",
					"name": "",
					"type": "bytes"
				}
			],
			"name": "onERC721Received",
			"outputs": [
				{
					"internalType": "bytes4",
					"name": "",
					"type": "bytes4"
				}
			],
			"stateMutability": "pure",
			"type": "function"
		},
		{
			"inputs": [],
			"name": "owner",
			"outputs": [
				{
					"internalType": "address",
					"name": "",
					"type": "address"
				}
			],
			"stateMutability": "view",
			"type": "function"
		},
		{
			"inputs": [],
			"name": "ownerCancelEveryListing",
			"outputs": [],
			"stateMutability": "nonpayable",
			"type": "function"
		},
		{
			"inputs": [],
			"name": "pause",
			"outputs": [],
			"stateMutability": "nonpayable",
			"type": "function"
		},
		{
			"inputs": [],
			"name": "paused",
			"outputs": [
				{
					"internalType": "bool",
					"name": "",
					"type": "bool"
				}
			],
			"stateMutability": "view",
			"type": "function"
		},
		{
			"inputs": [],
			"name": "proxiableUUID",
			"outputs": [
				{
					"internalType": "bytes32",
					"name": "",
					"type": "bytes32"
				}
			],
			"stateMutability": "view",
			"type": "function"
		},
		{
			"inputs": [],
			"name": "renounceOwnership",
			"outputs": [],
			"stateMutability": "nonpayable",
			"type": "function"
		},
		{
			"inputs": [],
			"name": "sellerPoints",
			"outputs": [
				{
					"internalType": "uint256",
					"name": "",
					"type": "uint256"
				}
			],
			"stateMutability": "view",
			"type": "function"
		},
		{
			"inputs": [
				{
					"internalType": "address",
					"name": "_currency",
					"type": "address"
				}
			],
			"name": "setCurrency",
			"outputs": [],
			"stateMutability": "nonpayable",
			"type": "function"
		},
		{
			"inputs": [
				{
					"internalType": "uint256",
					"name": "_newFeeBps",
					"type": "uint256"
				}
			],
			"name": "setFeeBps",
			"outputs": [],
			"stateMutability": "nonpayable",
			"type": "function"
		},
		{
			"inputs": [
				{
					"internalType": "address",
					"name": "_newFeeRecipient",
					"type": "address"
				}
			],
			"name": "setFeeRecipient",
			"outputs": [],
			"stateMutability": "nonpayable",
			"type": "function"
		},
		{
			"inputs": [
				{
					"internalType": "address payable",
					"name": "_nftContract",
					"type": "address"
				}
			],
			"name": "setNFTContract",
			"outputs": [],
			"stateMutability": "nonpayable",
			"type": "function"
		},
		{
			"inputs": [
				{
					"internalType": "uint256",
					"name": "_newBuyerPoints",
					"type": "uint256"
				},
				{
					"internalType": "uint256",
					"name": "_newSellerPoints",
					"type": "uint256"
				}
			],
			"name": "setPoints",
			"outputs": [],
			"stateMutability": "nonpayable",
			"type": "function"
		},
		{
			"inputs": [
				{
					"internalType": "address",
					"name": "newOwner",
					"type": "address"
				}
			],
			"name": "transferOwnership",
			"outputs": [],
			"stateMutability": "nonpayable",
			"type": "function"
		},
		{
			"inputs": [],
			"name": "unpause",
			"outputs": [],
			"stateMutability": "nonpayable",
			"type": "function"
		},
		{
			"inputs": [
				{
					"internalType": "uint256",
					"name": "_listingId",
					"type": "uint256"
				},
				{
					"internalType": "uint256",
					"name": "_newPrice",
					"type": "uint256"
				}
			],
			"name": "updateListing",
			"outputs": [],
			"stateMutability": "nonpayable",
			"type": "function"
		},
		{
			"inputs": [
				{
					"internalType": "address",
					"name": "newImplementation",
					"type": "address"
				},
				{
					"internalType": "bytes",
					"name": "data",
					"type": "bytes"
				}
			],
			"name": "upgradeToAndCall",
			"outputs": [],
			"stateMutability": "payable",
			"type": "function"
		}
	]
}