{
	"data": {
		"bytecode": {
			"linkReferences": {},
			"object": "60a06040523060805234801562000014575f80fd5b506200001f62000025565b620000d9565b7ff0c57e16840df040f15088dc2f81fe391c3923bec73e23a9662efc9c229c6a00805468010000000000000000900460ff1615620000765760405163f92ee8a960e01b815260040160405180910390fd5b80546001600160401b0390811614620000d65780546001600160401b0319166001600160401b0390811782556040519081527fc7f505b2f371ae2175ee4913f4499e1f2633a7b5936321eed1cdaeb6115181d29060200160405180910390a15b50565b608051615f92620001005f395f81816138fe015281816139270152613a660152615f925ff3fe6080604052600436106104ff575f3560e01c806375794a3c1161028e578063b30d92ba11610160578063dc01f60d116100c9578063f25f4b5611610083578063f25f4b5614611000578063f2fde38b1461101f578063f50d390d1461103e578063f50ddbc71461105d578063fa237aea14611088578063fc2a88c31461109d575f80fd5b8063dc01f60d14610f58578063dd61b33814610f83578063e1f1c4a714610f98578063e985e9c514610fad578063eb0d162314610fcc578063ec26358914610fe1575f80fd5b8063c2d085831161011a578063c2d0858314610e9d578063c76d3a5414610ebc578063c87b56dd14610edb578063c9f2699114610efa578063cf19d58314610f19578063d1bb5cf114610f39575f80fd5b8063b30d92ba14610da6578063b476f88914610e16578063b578995014610e35578063b88d4fde14610e54578063b8e3effe14610e73578063bcb3962114610e88575f80fd5b806395d89b4111610202578063a91c39a9116101bc578063a91c39a914610cc5578063ad3cb1cc14610ce4578063ae0f79e514610d14578063ae169a5014610d33578063b0fb162f14610d52578063b1bb05a614610d87575f80fd5b806395d89b4114610bc0578063965a95c214610bd45780639797a56314610bf35780639bb0543c14610c1e578063a168fa8914610c3d578063a22cb46514610ca6575f80fd5b80638796ba8c116102535780638796ba8c14610b255780638ac0002114610b445780638b42426714610b595780638da5cb5b14610b6e5780638ea9811714610b825780639264274414610ba1575f80fd5b806375794a3c14610aa85780638129fc1c14610abd5780638456cb5914610ad157806384a4e7a714610ae557806385a7c8aa14610b06575f80fd5b8063363bf964116103d25780634f1ef2861161033b578063610b68f3116102f5578063610b68f314610a0357806361728f3914610a225780636352211e14610a375780636f5e5e2614610a5657806370a0823114610a75578063715018a614610a94575f80fd5b80634f1ef2861461095c5780634f6ccce71461096f57806352d1902d1461098e57806352d84c62146109a25780635330d4f9146109c15780635c975abb146109e0575f80fd5b806342842e0e1161038c57806342842e0e146108c257806342966c68146108e1578063430bf08a1461090057806344af49c51461091f578063493b296b146109345780634b988c1414610947575f80fd5b8063363bf9641461080557806339e211c9146108245780633a4b3664146108435780633b2bcbf1146108625780633f4ba83a1461088157806340398d6714610895575f80fd5b806318e97fd111610474578063262e3ec31161042e578063262e3ec3146107545780632b5db089146107735780632d2f4e9d146107935780632f68f482146107a85780632f745c59146107c75780632f84c391146107e6575f80fd5b806318e97fd11461068857806319aae978146106a75780631fe543e3146106c657806323b872dd146106e5578063240f36101461070457806324f7469714610723575f80fd5b8063095ea7b3116104c5578063095ea7b3146105d65780630b78f9c0146105f55780630e37008a146106145780631102610e1461064157806313966db51461066057806318160ddd14610675575f80fd5b806259be0d1461050a57806301ffc9a71461054657806306fdde0314610575578063081812fc1461059657806308ec6c3c146105b5575f80fd5b3661050657005b5f80fd5b348015610515575f80fd5b50600c54610529906001600160a01b031681565b6040516001600160a01b0390911681526020015b60405180910390f35b348015610551575f80fd5b50610565610560366004614e7a565b6110b2565b604051901515815260200161053d565b348015610580575f80fd5b506105896110c2565b60405161053d9190614ee2565b3480156105a1575f80fd5b506105296105b0366004614ef4565b611163565b3480156105c0575f80fd5b506105d46105cf366004614f26565b611177565b005b3480156105e1575f80fd5b506105d46105f0366004614f3f565b6111d5565b348015610600575f80fd5b506105d461060f366004614f67565b6111e4565b34801561061f575f80fd5b5061063361062e366004614ef4565b6111f7565b60405190815260200161053d565b34801561064c575f80fd5b506105d461065b366004614f26565b611219565b34801561066b575f80fd5b5061063360115481565b348015610680575f80fd5b505f54610633565b348015610693575f80fd5b506105d46106a236600461509a565b611243565b3480156106b2575f80fd5b506105d46106c1366004614ef4565b611255565b3480156106d1575f80fd5b506105d46106e0366004615112565b611ae7565b3480156106f0575f80fd5b506105d46106ff3660046151a9565b611b3e565b34801561070f575f80fd5b506105d461071e366004614ef4565b611bc7565b34801561072e575f80fd5b5060085461073f9063ffffffff1681565b60405163ffffffff909116815260200161053d565b34801561075f575f80fd5b50600b54610529906001600160a01b031681565b34801561077e575f80fd5b5060085461056590600160301b900460ff1681565b34801561079e575f80fd5b5061063360175481565b3480156107b3575f80fd5b506105d46107c2366004614ef4565b611bd4565b3480156107d2575f80fd5b506106336107e1366004614f3f565b611be1565b3480156107f1575f80fd5b506105d4610800366004614f26565b611c52565b348015610810575f80fd5b506105d461081f3660046151e2565b611c7c565b34801561082f575f80fd5b506105d461083e366004614ef4565b611d50565b34801561084e575f80fd5b506105d461085d366004614ef4565b611d5d565b34801561086d575f80fd5b50600554610529906001600160a01b031681565b34801561088c575f80fd5b506105d4611d71565b3480156108a0575f80fd5b506108b46108af366004614f26565b611d83565b60405161053d92919061525c565b3480156108cd575f80fd5b506105d46108dc3660046151a9565b611e43565b3480156108ec575f80fd5b506105d46108fb366004614ef4565b611e62565b34801561090b575f80fd5b50600f54610529906001600160a01b031681565b34801561092a575f80fd5b5061063360145481565b6105d4610942366004614ef4565b611e6d565b348015610952575f80fd5b5061063360165481565b6105d461096a366004615292565b6123a5565b34801561097a575f80fd5b50610633610989366004614ef4565b6123c0565b348015610999575f80fd5b50610633612420565b3480156109ad575f80fd5b506105d46109bc3660046152d2565b61243b565b3480156109cc575f80fd5b506105d46109db366004614ef4565b61245f565b3480156109eb575f80fd5b505f80516020615f3d8339815191525460ff16610565565b348015610a0e575f80fd5b506105d4610a1d366004614f26565b6127a9565b348015610a2d575f80fd5b5061063360075481565b348015610a42575f80fd5b50610529610a51366004614ef4565b612802565b348015610a61575f80fd5b506105d4610a70366004614f67565b61280c565b348015610a80575f80fd5b50610633610a8f366004614f26565b61286f565b348015610a9f575f80fd5b506105d46128c7565b348015610ab3575f80fd5b5061063360015481565b348015610ac8575f80fd5b506105d46128d8565b348015610adc575f80fd5b506105d4612b87565b348015610af0575f80fd5b50610af9612b97565b60405161053d91906152f5565b348015610b11575f80fd5b50601054610529906001600160a01b031681565b348015610b30575f80fd5b50610633610b3f366004614ef4565b612c25565b348015610b4f575f80fd5b5061063360065481565b348015610b64575f80fd5b5061063360125481565b348015610b79575f80fd5b50610529612c44565b348015610b8d575f80fd5b506105d4610b9c366004614f26565b612c72565b348015610bac575f80fd5b506105d4610bbb366004614ef4565b612cae565b348015610bcb575f80fd5b506105896130a6565b348015610bdf575f80fd5b506105d4610bee366004614ef4565b6130e4565b348015610bfe575f80fd5b50610633610c0d366004614ef4565b601a6020525f908152604090205481565b348015610c29575f80fd5b506105d4610c38366004614ef4565b6130f1565b348015610c48575f80fd5b50610c84610c57366004614ef4565b600260208190525f918252604090912080549181015460039091015460ff80841693610100900416919084565b604080519415158552921515602085015291830152606082015260800161053d565b348015610cb1575f80fd5b506105d4610cc0366004615314565b6130fe565b348015610cd0575f80fd5b506105d4610cdf366004614ef4565b613109565b348015610cef575f80fd5b50610589604051806040016040528060058152602001640352e302e360dc1b81525081565b348015610d1f575f80fd5b50610529610d2e366004614ef4565b613116565b348015610d3e575f80fd5b506105d4610d4d366004614ef4565b61313e565b348015610d5d575f80fd5b50600854610d7490640100000000900461ffff1681565b60405161ffff909116815260200161053d565b348015610d92575f80fd5b506105d4610da1366004615349565b6131be565b348015610db1575f80fd5b50610dee610dc0366004614ef4565b601e6020525f9081526040902080546001820154600283015460038401546004909401549293919290919085565b604080519586526020860194909452928401919091526060830152608082015260a00161053d565b348015610e21575f80fd5b506105d4610e30366004614ef4565b6131e7565b348015610e40575f80fd5b506105d4610e4f366004614f3f565b6131f4565b348015610e5f575f80fd5b506105d4610e6e366004615364565b613210565b348015610e7e575f80fd5b5061063360135481565b348015610e93575f80fd5b50610633601b5481565b348015610ea8575f80fd5b50600a54610529906001600160a01b031681565b348015610ec7575f80fd5b506105d4610ed6366004614f3f565b613227565b348015610ee6575f80fd5b50610589610ef5366004614ef4565b613392565b348015610f05575f80fd5b506105d4610f14366004615349565b61339d565b348015610f24575f80fd5b50600d5461056590600160a01b900460ff1681565b348015610f44575f80fd5b50600d54610529906001600160a01b031681565b348015610f63575f80fd5b50610633610f72366004614f26565b60196020525f908152604090205481565b348015610f8e575f80fd5b5061063360155481565b348015610fa3575f80fd5b5061063361271081565b348015610fb8575f80fd5b50610565610fc73660046153c7565b6133c3565b348015610fd7575f80fd5b50610633601c5481565b348015610fec575f80fd5b506105d4610ffb366004614ef4565b61340f565b34801561100b575f80fd5b50600e54610529906001600160a01b031681565b34801561102a575f80fd5b506105d4611039366004614f26565b61346f565b348015611049575f80fd5b506105d46110583660046153f8565b6134a9565b348015611068575f80fd5b50610633611077366004614f26565b60186020525f908152604090205481565b348015611093575f80fd5b5061063360095481565b3480156110a8575f80fd5b5061063360045481565b5f6110bc826134d5565b92915050565b5f80516020615efd83398151915280546060919081906110e190615419565b80601f016020809104026020016040519081016040528092919081815260200182805461110d90615419565b80156111585780601f1061112f57610100808354040283529160200191611158565b820191905f5260205f20905b81548152906001019060200180831161113b57829003601f168201915b505050505091505090565b5f61116d826134f9565b506110bc82613530565b61117f613569565b6001600160a01b0381166111b35760405162461bcd60e51b8152602060048201525f60248201526044015b60405180910390fd5b600b80546001600160a01b0319166001600160a01b0392909216919091179055565b6111e082823361359b565b5050565b6111ec613569565b601191909155601255565b5f806112038342615465565b905061121262093a808261548c565b9392505050565b611221613569565b600d80546001600160a01b0319166001600160a01b0392909216919091179055565b61124b613569565b6111e082826135a8565b61125d61361a565b61126681612802565b6001600160a01b0316336001600160a01b03161461129f5760405162461bcd60e51b8152602060048201525f60248201526044016111aa565b600b546040516309fc2d6760e11b8152600481018390525f916001600160a01b0316906313f85ace9060240160e060405180830381865afa1580156112e6573d5f803e3d5ffd5b505050506040513d601f19601f8201168201806040525081019061130a91906154ff565b600b5460405163044f261560e11b8152600481018590529192505f916001600160a01b039091169063089e4c2a9060240161012060405180830381865afa158015611357573d5f803e3d5ffd5b505050506040513d601f19601f8201168201806040525081019061137b9190615590565b600b5460405163f61fa45360e01b81529192506001600160a01b03169063f61fa453906113ae9085908590600401615649565b610200604051808303815f875af11580156113cb573d5f803e3d5ffd5b505050506040513d601f19601f820116820180604052508101906113ef9190615665565b90925090505f6113fe84612802565b90508260c0015160031461142d5760405162461bcd60e51b8152602060048201525f60248201526044016111aa565b600160c0840152600c5460405163066a240f60e21b8152600481018690525f916001600160a01b0316906319a8903c90602401602060405180830381865afa15801561147b573d5f803e3d5ffd5b505050506040513d601f19601f8201168201806040525081019061149f9190615690565b600c549091505f906001600160a01b0316639649f75e876114c1600186615465565b6114cc600187615465565b6040516001600160e01b031960e086901b1681526004810193909352602483019190915260448201526064015f60405180830381865afa158015611512573d5f803e3d5ffd5b505050506040513d5f823e601f3d908101601f1916820160405261153991908101906157b6565b5f8151811061154a5761154a615935565b602002602001015190505f821161157c5760405162461bcd60e51b8152602060048201525f60248201526044016111aa565b8061010001516002146115aa5760405162461bcd60e51b8152602060048201525f60248201526044016111aa565b60c0810151156115d55760405162461bcd60e51b8152602060048201525f60248201526044016111aa565b6101408101515f9081526002602052604090205460ff166116115760405162461bcd60e51b8152602060048201525f60248201526044016111aa565b5f603c8260a001518360e001516116289190615465565b611632919061548c565b90505f811161165c5760405162461bcd60e51b8152602060048201525f60248201526044016111aa565b6101408201515f90815260026020526040812060010180546127119190839061168757611687615935565b905f5260205f20015461169a9190615949565b90508260400151602001515f141580156116bc57508260400151608001518111155b1561179157612710836040015160c00151836116d8919061595c565b6116e4906103e861595c565b6116ee919061548c565b61012084015260808601515f90611704906111f7565b905061271060175482611717919061595c565b611723906103e861595c565b61172d919061548c565b846101200181815161173f9190615973565b9052506005610100850152865115611765576020870180519061176182615986565b9052505b60208701511580156117775750865115155b1561178b575f60c089015261178b89611d65565b506118a4565b6040830151608081015160a0909101516117ab9190615973565b6117b790612710615465565b811161184c57612710836040015160c00151836117d4919061595c565b6117e0906103e861595c565b6117ea919061548c565b61012084015260808601515f90611800906111f7565b905061271060175482611813919061595c565b61181f906103e861595c565b611829919061548c565b846101200181815161183b9190615973565b9052505060046101008401526118a4565b604083015160c0015161185f908361595c565b61012084015260808601515f90611875906111f7565b905060175481611885919061595c565b84610120018181516118979190615973565b9052505060036101008401525b4260c0840152610120830151601b545f908152601a6020526040812080549091906118d0908490615973565b90915550506101208301516001600160a01b0386165f9081526018602052604081208054909190611902908490615973565b90915550506101408301515f908152600260209081526040918290206001018054835181840281018401909452808452909183018282801561196157602002820191905f5260205f20905b81548152602001906001019080831161194d575b50505050508361016001819052505f805b601d548110156119bf57866001600160a01b0316601d828154811061199957611999615935565b5f918252602090912001546001600160a01b0316036119b757600191505b600101611972565b5080611a1057601d80546001810182555f919091527f6d4407e7be21f808e6509aa9fa9143369579dd7d760fe20a2c09680fc146134f0180546001600160a01b0319166001600160a01b0388161790555b600b5460405163f6cac63f60e01b81526001600160a01b039091169063f6cac63f90611a44908c908c908c9060040161599b565b5f604051808303815f87803b158015611a5b575f80fd5b505af1158015611a6d573d5f803e3d5ffd5b5050600c546001600160a01b03169150636bf5d21690508a611a90600189615465565b876040518463ffffffff1660e01b8152600401611aaf93929190615a32565b5f604051808303815f87803b158015611ac6575f80fd5b505af1158015611ad8573d5f803e3d5ffd5b50505050505050505050505050565b6005546001600160a01b03163314611b345760405162461bcd60e51b815260206004820152601060248201526f27b7363c9021b7b7b93234b730ba37b960811b60448201526064016111aa565b6111e0828261364a565b6001600160a01b038216611b6757604051633250574960e11b81525f60048201526024016111aa565b5f611b738383336136b5565b9050836001600160a01b0316816001600160a01b031614611bc1576040516364283d7b60e01b81526001600160a01b03808616600483015260248201849052821660448201526064016111aa565b50505050565b611bcf613569565b601755565b611bdc613569565b600755565b5f5f80516020615edd833981519152611bf98461286f565b8310611c2a5760405163295f44f760e21b81526001600160a01b0385166004820152602481018490526044016111aa565b6001600160a01b0384165f908152602091825260408082208583529092522054905092915050565b611c5a613569565b600a80546001600160a01b0319166001600160a01b0392909216919091179055565b611c84613569565b6001600160a01b038316611cb35760405162461bcd60e51b8152602060048201525f60248201526044016111aa565b6001600160a01b038216611ce25760405162461bcd60e51b8152602060048201525f60248201526044016111aa565b6001600160a01b038116611d115760405162461bcd60e51b8152602060048201525f60248201526044016111aa565b600f80546001600160a01b039485166001600160a01b031991821617909155600e80549385169382169390931790925560108054919093169116179055565b611d58613569565b601b55565b611d65613569565b611d6e81613840565b50565b611d79613569565b611d81613878565b565b5f60606001600160a01b038316611db55760405162461bcd60e51b8152602060048201525f60248201526044016111aa565b611dbe8361286f565b9150816001600160401b03811115611dd857611dd8614f87565b604051908082528060200260200182016040528015611e01578160200160208202803683370190505b5090505f5b82811015611e3d57611e188482611be1565b828281518110611e2a57611e2a615935565b6020908102919091010152600101611e06565b50915091565b611e5d83838360405180602001604052805f815250613210565b505050565b6111e05f82336136b5565b611e7561361a565b6009543414611e9f5760405162461bcd60e51b8152602060048201525f60248201526044016111aa565b600e546001600160a01b0316611ed05760405162461bcd60e51b8152602060048201525f60248201526044016111aa565b600e546009546040515f926001600160a01b031691908381818185875af1925050503d805f8114611f1c576040519150601f19603f3d011682016040523d82523d5f602084013e611f21565b606091505b5050905080611f4b5760405162461bcd60e51b8152602060048201525f60248201526044016111aa565b611f5482612802565b6001600160a01b0316336001600160a01b031614611f8d5760405162461bcd60e51b8152602060048201525f60248201526044016111aa565b600c5460405163066a240f60e21b8152600481018490525f916001600160a01b0316906319a8903c90602401602060405180830381865afa158015611fd4573d5f803e3d5ffd5b505050506040513d601f19601f82011682018060405250810190611ff89190615690565b90505f81116120225760405162461bcd60e51b8152602060048201525f60248201526044016111aa565b600b546040516309fc2d6760e11b8152600481018590525f916001600160a01b0316906313f85ace9060240160e060405180830381865afa158015612069573d5f803e3d5ffd5b505050506040513d601f19601f8201168201806040525081019061208d91906154ff565b600b5460405163044f261560e11b8152600481018790529192505f916001600160a01b039091169063089e4c2a9060240161012060405180830381865afa1580156120da573d5f803e3d5ffd5b505050506040513d601f19601f820116820180604052508101906120fe9190615590565b90508160c001516002148061211757508160c001516003145b61213c5760405162461bcd60e51b8152602060048201525f60248201526044016111aa565b600360c0830152600b5460405163f6cac63f60e01b81526001600160a01b039091169063f6cac63f906121779088908690869060040161599b565b5f604051808303815f87803b15801561218e575f80fd5b505af11580156121a0573d5f803e3d5ffd5b5050600c545f92506001600160a01b03169050639649f75e876121c4600188615465565b6121cf600189615465565b6040516001600160e01b031960e086901b1681526004810193909352602483019190915260448201526064015f60405180830381865afa158015612215573d5f803e3d5ffd5b505050506040513d5f823e601f3d908101601f1916820160405261223c91908101906157b6565b5f8151811061224d5761224d615935565b6020908102919091018101516101408101515f908152600290925260409091205490915060ff16158015612283575060e0810151155b80156122a55750428160400151606001518260a001516122a39190615973565b105b806122ef57506101408101515f9081526002602052604090205460ff161580156122de5750428160e00151603c6122dc9190615973565b105b80156122ef57508061010001516002145b6123145760405162461bcd60e51b8152602060048201525f60248201526044016111aa565b60026101008201526123286001875f6138d7565b6101408201524260e0820152600c546001600160a01b0316636bf5d21687612351600188615465565b846040518463ffffffff1660e01b815260040161237093929190615a32565b5f604051808303815f87803b158015612387575f80fd5b505af1158015612399573d5f803e3d5ffd5b50505050505050505050565b6123ad6138f3565b6123b682613997565b6111e0828261399f565b5f80545f80516020615edd8339815191529083106123fa5760405163295f44f760e21b81525f6004820152602481018490526044016111aa565b80600201838154811061240f5761240f615935565b905f5260205f200154915050919050565b5f612429613a5b565b505f80516020615f1d83398151915290565b612443613569565b6008805463ffffffff191663ffffffff92909216919091179055565b612467613569565b5f61271060125483612479919061595c565b612483919061548c565b600a546010546040516323b872dd60e01b81529293506001600160a01b03918216926323b872dd926124be9233929116908690600401615b04565b6020604051808303815f875af11580156124da573d5f803e3d5ffd5b505050506040513d601f19601f820116820180604052508101906124fe9190615b28565b6125235760405162461bcd60e51b8152602060048201525f60248201526044016111aa565b61252d8183615465565b600a546040516323b872dd60e01b81529193506001600160a01b0316906323b872dd9061256290339030908790600401615b04565b6020604051808303815f875af115801561257e573d5f803e3d5ffd5b505050506040513d601f19601f820116820180604052508101906125a29190615b28565b6125c75760405162461bcd60e51b8152602060048201525f60248201526044016111aa565b601b545f908152601a60205260409020546125fd5760405162461bcd60e51b8152602060048201525f60248201526044016111aa565b5f5b601d54811015612709575f601a5f601b5481526020019081526020015f20548460185f601d868154811061263557612635615935565b5f9182526020808320909101546001600160a01b03168352820192909252604001902054612663919061595c565b61266d919061548c565b90505f60185f601d858154811061268657612686615935565b5f9182526020808320909101546001600160a01b03168352820192909252604001812091909155601d805483926019929091869081106126c8576126c8615935565b5f9182526020808320909101546001600160a01b03168352820192909252604001812080549091906126fb908490615973565b9091555050506001016125ff565b506040805160a081018252601b548082524260208084019182528385018781525f848152601a83528681205460608701908152601d805460808901908152968352601e909452968120955186559251600186015551600285015593516003840155905160049092019190915561277f9190614ded565b601b80545f908152601a60205260408120819055815491906127a083615b43565b91905055505050565b6127b1613569565b6001600160a01b0381166127e05760405162461bcd60e51b8152602060048201525f60248201526044016111aa565b600c80546001600160a01b0319166001600160a01b0392909216919091179055565b5f6110bc826134f9565b612814613569565b5f821161283c5760405162461bcd60e51b8152602060048201525f60248201526044016111aa565b5f81116128645760405162461bcd60e51b8152602060048201525f60248201526044016111aa565b601691909155601555565b5f5f80516020615efd8339815191526001600160a01b0383166128a7576040516322718ad960e21b81525f60048201526024016111aa565b6001600160a01b039092165f908152600390920160205250604090205490565b6128cf613569565b611d815f613aa4565b7ff0c57e16840df040f15088dc2f81fe391c3923bec73e23a9662efc9c229c6a008054600160401b810460ff1615906001600160401b03165f8115801561291c5750825b90505f826001600160401b031660011480156129375750303b155b905081158015612945575080155b156129635760405163f92ee8a960e01b815260040160405180910390fd5b845467ffffffffffffffff19166001178555831561298d57845460ff60401b1916600160401b1785555b6129d46040518060400160405280600981526020016870756e6b627974657360b81b8152506040518060400160405280600481526020016350554e4b60e01b815250613b14565b6129dc613b26565b6129e4613b26565b6129ec613b2e565b6129f4613b26565b6129fd33613b3e565b612a05613b26565b7f1107a88fd666bcb4e9b668f24668c1502146a063f98e5c01acff60f18ee079026006557fea7f56be19583eeb8255aa79f16d8bd8a64cedf68e42fefee1c9ac5372b1a10260075560088054600580546001600160a01b031990811673e40895d055bccd2053dd0638c9695e326152b1a4179091556403002625a065ffffffffffff1990921691909117909155600f80548216738edc29a84e86975266ef7a45bd76969b6051fd48179055600e80548216735eb62c9261e2189c9664a7953f816075b3f2e908179055601080548216732f4f63840cb93334ee35030bb92849a66735911a1790556105dc6011556103e8601255600a8054909116735b583db39e574c34af5c31d4b12b40ab79f90c1717905563017d7840601355624c4b406014555f600955610e10601655600260155560016017558315612b8057845460ff60401b19168555604051600181527fc7f505b2f371ae2175ee4913f4499e1f2633a7b5936321eed1cdaeb6115181d29060200160405180910390a15b5050505050565b612b8f613569565b611d81613b4f565b60605f612ba25f5490565b9050806001600160401b03811115612bbc57612bbc614f87565b604051908082528060200260200182016040528015612be5578160200160208202803683370190505b5091505f5b81811015612c2057612bfb816123c0565b838281518110612c0d57612c0d615935565b6020908102919091010152600101612bea565b505090565b60038181548110612c34575f80fd5b5f91825260209091200154905081565b7f9016d09d72d40fdae2fd8ceac6b6234c7706214fd39c1cd1e609a0528c199300546001600160a01b031690565b612c7a613569565b6001600160a01b038116612c8c575f80fd5b600580546001600160a01b0319166001600160a01b0392909216919091179055565b612cb661361a565b600b5460405163438e925f60e11b8152600481018390525f916001600160a01b03169063871d24be9060240161010060405180830381865afa158015612cfe573d5f803e3d5ffd5b505050506040513d601f19601f82011682018060405250810190612d229190615b5b565b600b54604051631afe6a9160e21b8152600481018590529192505f916001600160a01b0390911690636bf9aa44906024015f60405180830381865afa158015612d6d573d5f803e3d5ffd5b505050506040513d5f823e601f3d908101601f19168201604052612d949190810190615c2a565b6020830151600b5460405163c2bf8dd560e01b81526004810187905292935090916001600160a01b039091169063c2bf8dd590602401602060405180830381865afa158015612de5573d5f803e3d5ffd5b505050506040513d601f19601f82011682018060405250810190612e099190615690565b10612e2f5760405162461bcd60e51b8152602060048201525f60248201526044016111aa565b8060400151612e595760405162461bcd60e51b8152602060048201525f60248201526044016111aa565b600f546001600160a01b0316612e8a5760405162461bcd60e51b8152602060048201525f60248201526044016111aa565b600e546001600160a01b0316612ebb5760405162461bcd60e51b8152602060048201525f60248201526044016111aa565b60408201516011545f9061271090612ed3908461595c565b612edd919061548c565b9050612ee98183615465565b600a54600f546040516323b872dd60e01b81529294506001600160a01b03918216926323b872dd92612f249233929116908790600401615b04565b6020604051808303815f875af1158015612f40573d5f803e3d5ffd5b505050506040513d601f19601f82011682018060405250810190612f649190615b28565b612f895760405162461bcd60e51b8152602060048201525f60248201526044016111aa565b600a54600e546040516323b872dd60e01b81526001600160a01b03928316926323b872dd92612fc2923392909116908690600401615b04565b6020604051808303815f875af1158015612fde573d5f803e3d5ffd5b505050506040513d601f19601f820116820180604052508101906130029190615b28565b6130275760405162461bcd60e51b8152602060048201525f60248201526044016111aa565b600b54600154604051631b57c1f760e01b81526001600160a01b0390921691631b57c1f791613063918990600401918252602082015260400190565b5f604051808303815f87803b15801561307a575f80fd5b505af115801561308c573d5f803e3d5ffd5b5050505061309e338460600151613b97565b505050505050565b7f80bb2b638cc20bc4d0a60d66940f3ab4a00c1d7b313497ca82fb0b4ab007930180546060915f80516020615efd833981519152916110e190615419565b6130ec613569565b600655565b6130f9613569565b601355565b6111e0338383613bcb565b613111613569565b601455565b601d8181548110613125575f80fd5b5f918252602090912001546001600160a01b0316905081565b61314661361a565b335f9081526019602052604090205481811080159061316457505f82115b6131895760405162461bcd60e51b8152602060048201525f60248201526044016111aa565b6131938282615465565b335f81815260196020526040902091909155600a546111e0916001600160a01b039091169084613c7a565b6131c6613569565b60088054911515600160301b0266ff00000000000019909216919091179055565b6131ef613569565b600955565b6131fc613569565b6111e06001600160a01b0383163383613c7a565b61321b848484611b3e565b611bc184848484613ccc565b61322f612c44565b6001600160a01b0316336001600160a01b031614806132585750600d546001600160a01b031633145b61327d5760405162461bcd60e51b8152602060048201525f60248201526044016111aa565b6001600160a01b0382166132ac5760405162461bcd60e51b8152602060048201525f60248201526044016111aa565b5f81116132d45760405162461bcd60e51b8152602060048201525f60248201526044016111aa565b6001600160a01b0382165f90815260186020526040812054900361333d57601d80546001810182555f919091527f6d4407e7be21f808e6509aa9fa9143369579dd7d760fe20a2c09680fc146134f0180546001600160a01b0319166001600160a01b0384161790555b6001600160a01b0382165f9081526018602052604081208054839290613364908490615973565b9091555050601b545f908152601a602052604081208054839290613389908490615973565b90915550505050565b60606110bc82613deb565b6133a5613569565b600d8054911515600160a01b0260ff60a01b19909216919091179055565b6001600160a01b039182165f9081527f80bb2b638cc20bc4d0a60d66940f3ab4a00c1d7b313497ca82fb0b4ab00793056020908152604080832093909416825291909152205460ff1690565b613417613569565b804710611d6e576040515f90339083908381818185875af1925050503d805f811461345d576040519150601f19603f3d011682016040523d82523d5f602084013e613462565b606091505b50509050806111e0575f80fd5b613477613569565b6001600160a01b0381166134a057604051631e4fbdf760e01b81525f60048201526024016111aa565b611d6e81613aa4565b6134b1613569565b6008805461ffff9092166401000000000265ffff0000000019909216919091179055565b5f6001600160e01b03198216632483248360e11b14806110bc57506110bc82613f11565b5f8061350483613f35565b90506001600160a01b0381166110bc57604051637e27328960e01b8152600481018490526024016111aa565b5f9081527f80bb2b638cc20bc4d0a60d66940f3ab4a00c1d7b313497ca82fb0b4ab007930460205260409020546001600160a01b031690565b33613572612c44565b6001600160a01b031614611d815760405163118cdaa760e01b81523360048201526024016111aa565b611e5d8383836001613f6e565b5f8281527f0542a41881ee128a365a727b282c86fa859579490b9bb45aab8503648c8e7900602081905260409091206135e18382615d1b565b506040518381527ff8e1a15aba9398e019f0b49df1a4fde98ee17ae345cb5f6b5e2c27f5033e8ce79060200160405180910390a1505050565b5f80516020615f3d8339815191525460ff1615611d815760405163d93c066560e01b815260040160405180910390fd5b5f82815260026020526040902054610100900460ff166136855760405162461bcd60e51b8152602060048201525f60248201526044016111aa565b5f828152600260209081526040909120805460ff1916600190811782558351611e5d939290910191840190614e08565b5f806136c084613f35565b90506001600160a01b03811615806136df57506001600160a01b038516155b156137bf576001600160a01b0385166137ba57600b546040516309fc2d6760e11b8152600481018690525f916001600160a01b0316906313f85ace9060240160e060405180830381865afa158015613739573d5f803e3d5ffd5b505050506040513d601f19601f8201168201806040525081019061375d91906154ff565b600b5481516040516203eae960e01b815260048101919091529192506001600160a01b0316906203eae9906024015f604051808303815f87803b1580156137a2575f80fd5b505af11580156137b4573d5f803e3d5ffd5b50505050505b61382c565b600d546001600160a01b03166137d485612802565b6001600160a01b031614806137f65750600d546001600160a01b038681169116145b61382c57600d54600160a01b900460ff1661382c5760405162461bcd60e51b8152602060048201525f60248201526044016111aa565b613837858585614081565b95945050505050565b5f61384c5f835f6136b5565b90506001600160a01b0381166111e057604051637e27328960e01b8152600481018390526024016111aa565b613880614095565b5f80516020615f3d833981519152805460ff191681557f5db9ee0a495bf2e6ff9c91a7834c1ba4fdd244a5e8aa4e537bd38aeae4b073aa335b6040516001600160a01b03909116815260200160405180910390a150565b5f6138e061361a565b6138eb8484846140c4565b949350505050565b306001600160a01b037f000000000000000000000000000000000000000000000000000000000000000016148061397957507f00000000000000000000000000000000000000000000000000000000000000006001600160a01b031661396d5f80516020615f1d833981519152546001600160a01b031690565b6001600160a01b031614155b15611d815760405163703e46dd60e11b815260040160405180910390fd5b611d6e613569565b816001600160a01b03166352d1902d6040518163ffffffff1660e01b8152600401602060405180830381865afa9250505080156139f9575060408051601f3d908101601f191682019092526139f691810190615690565b60015b613a2157604051634c9c8ce360e01b81526001600160a01b03831660048201526024016111aa565b5f80516020615f1d8339815191528114613a5157604051632a87526960e21b8152600481018290526024016111aa565b611e5d8383614277565b306001600160a01b037f00000000000000000000000000000000000000000000000000000000000000001614611d815760405163703e46dd60e11b815260040160405180910390fd5b7f9016d09d72d40fdae2fd8ceac6b6234c7706214fd39c1cd1e609a0528c19930080546001600160a01b031981166001600160a01b03848116918217845560405192169182907f8be0079c531659141344cd1fd0a4f28419497f9722a3daafe3b4186f6b6457e0905f90a3505050565b613b1c6142cc565b6111e08282614315565b611d816142cc565b613b366142cc565b611d81614345565b613b466142cc565b611d6e81614365565b613b5761361a565b5f80516020615f3d833981519152805460ff191660011781557f62e78cea01bee320cd4e420270b5ea74000d11b0c9f74754ebdbfc544b05a258336138b9565b6001545f90613ba6848261436d565b613bb081846135a8565b5f80549080613bbe83615b43565b9091555090949350505050565b5f80516020615efd8339815191526001600160a01b038316613c0b57604051630b61174360e31b81526001600160a01b03841660048201526024016111aa565b6001600160a01b038481165f818152600584016020908152604080832094881680845294825291829020805460ff191687151590811790915591519182527f17307eab39ab6107e8899845ad3d59bd9653f200f220920489ca2b5937696c31910160405180910390a350505050565b604080516001600160a01b038416602482015260448082018490528251808303909101815260649091019091526020810180516001600160e01b031663a9059cbb60e01b179052611e5d908490614386565b6001600160a01b0383163b15611bc157604051630a85bd0160e11b81526001600160a01b0384169063150b7a0290613d0e903390889087908790600401615dd6565b6020604051808303815f875af1925050508015613d48575060408051601f3d908101601f19168201909252613d4591810190615e08565b60015b613daf573d808015613d75576040519150601f19603f3d011682016040523d82523d5f602084013e613d7a565b606091505b5080515f03613da757604051633250574960e11b81526001600160a01b03851660048201526024016111aa565b805181602001fd5b6001600160e01b03198116630a85bd0160e11b14612b8057604051633250574960e11b81526001600160a01b03851660048201526024016111aa565b60607f0542a41881ee128a365a727b282c86fa859579490b9bb45aab8503648c8e7900613e17836134f9565b505f8381526020829052604081208054613e3090615419565b80601f0160208091040260200160405190810160405280929190818152602001828054613e5c90615419565b8015613ea75780601f10613e7e57610100808354040283529160200191613ea7565b820191905f5260205f20905b815481529060010190602001808311613e8a57829003601f168201915b505050505090505f613ec360408051602081019091525f815290565b905080515f03613ed557509392505050565b815115613f08578082604051602001613eef929190615e23565b6040516020818303038152906040529350505050919050565b613837856143e7565b5f6001600160e01b0319821663780e9d6360e01b14806110bc57506110bc82614457565b5f9081527f80bb2b638cc20bc4d0a60d66940f3ab4a00c1d7b313497ca82fb0b4ab007930260205260409020546001600160a01b031690565b5f80516020615efd8339815191528180613f9057506001600160a01b03831615155b15614051575f613f9f856134f9565b90506001600160a01b03841615801590613fcb5750836001600160a01b0316816001600160a01b031614155b8015613fde5750613fdc81856133c3565b155b156140075760405163a9fbf51f60e01b81526001600160a01b03851660048201526024016111aa565b821561404f5784866001600160a01b0316826001600160a01b03167f8c5be1e5ebec7d5bd14f71427d1e84f3dd0314c0f7b2291e5b200ac8c7c3b92560405160405180910390a45b505b5f93845260040160205250506040902080546001600160a01b0319166001600160a01b0392909216919091179055565b5f61408a61361a565b6138eb8484846144a6565b5f80516020615f3d8339815191525460ff16611d8157604051638dfc202b60e01b815260040160405180910390fd5b6005546040805160c0810182526007548152600654602080830191909152600854640100000000810461ffff168385015263ffffffff8082166060850152881660808401528351918201909352600160301b90920460ff16151582525f926001600160a01b031691639b1c385e919060a0820190614141906145af565b8152506040518263ffffffff1660e01b81526004016141609190615e51565b6020604051808303815f875af115801561417c573d5f803e3d5ffd5b505050506040513d601f19601f820116820180604052508101906141a09190615690565b6040805160a0810182525f8082526001602080840182815285518481528083018752858701908152606086018b9052608086018a9052878552600283529590932084518154945161ffff1990951690151561ff001916176101009415159490940293909317835593518051959650929491936142229391850192910190614e08565b506060820151600282015560809091015160039182015580546001810182555f919091527fc2575a0e9e593c00f959f8c92f12db2869c3395a3b0502d05e2516446f71f85b0181905560048190559392505050565b61428082614620565b6040516001600160a01b038316907fbc7cd75a20ee27fd9adebab32041f755214dbc6bffa90cc0225b39da2e5c2d3b905f90a28051156142c457611e5d8282614683565b6111e06146ec565b7ff0c57e16840df040f15088dc2f81fe391c3923bec73e23a9662efc9c229c6a0054600160401b900460ff16611d8157604051631afcd79f60e31b815260040160405180910390fd5b61431d6142cc565b5f80516020615efd833981519152806143368482615d1b565b5060018101611bc18382615d1b565b61434d6142cc565b5f80516020615f3d833981519152805460ff19169055565b6134776142cc565b6111e0828260405180602001604052805f81525061470b565b5f61439a6001600160a01b03841683614721565b905080515f141580156143be5750808060200190518101906143bc9190615b28565b155b15611e5d57604051635274afe760e01b81526001600160a01b03841660048201526024016111aa565b60606143f2826134f9565b505f61440860408051602081019091525f815290565b90505f8151116144265760405180602001604052805f815250611212565b806144308461472e565b604051602001614441929190615e23565b6040516020818303038152906040529392505050565b5f6001600160e01b031982166380ac58cd60e01b148061448757506001600160e01b03198216635b5e139f60e01b145b806110bc57506301ffc9a760e01b6001600160e01b03198316146110bc565b5f806144b38585856147bd565b90506001600160a01b03811661454d57614548847f645e039705490088daad89bae25049a34f4a9072d398537b1ab2425f24cbed0280545f8381527f645e039705490088daad89bae25049a34f4a9072d398537b1ab2425f24cbed0360205260408120829055600182018355919091527fa42f15e5d656f8155fd7419d740a6073999f19cd6e061449ce4a257150545bf20155565b614570565b846001600160a01b0316816001600160a01b0316146145705761457081856148bf565b6001600160a01b03851661458c576145878461495e565b6138eb565b846001600160a01b0316816001600160a01b0316146138eb576138eb8585614a3e565b60607f92fd13387c7fe7befbc38d303d6468778fb9731bc4583f17d92989c6fcfdeaaa826040516024016145e891511515815260200190565b60408051601f198184030181529190526020810180516001600160e01b03166001600160e01b03199093169290921790915292915050565b806001600160a01b03163b5f0361465557604051634c9c8ce360e01b81526001600160a01b03821660048201526024016111aa565b5f80516020615f1d83398151915280546001600160a01b0319166001600160a01b0392909216919091179055565b60605f80846001600160a01b03168460405161469f9190615ead565b5f60405180830381855af49150503d805f81146146d7576040519150601f19603f3d011682016040523d82523d5f602084013e6146dc565b606091505b5091509150613837858383614a96565b3415611d815760405163b398979f60e01b815260040160405180910390fd5b6147158383614af2565b611e5d5f848484613ccc565b606061121283835f614b53565b60605f61473a83614bec565b60010190505f816001600160401b0381111561475857614758614f87565b6040519080825280601f01601f191660200182016040528015614782576020820181803683370190505b5090508181016020015b5f19016f181899199a1a9b1b9c1cb0b131b232b360811b600a86061a8153600a850494508461478c57509392505050565b5f5f80516020615efd833981519152816147d685613f35565b90506001600160a01b038416156147f2576147f2818587614cc3565b6001600160a01b0381161561482e5761480d5f865f80613f6e565b6001600160a01b0381165f908152600383016020526040902080545f190190555b6001600160a01b0386161561485e576001600160a01b0386165f9081526003830160205260409020805460010190555b5f85815260028301602052604080822080546001600160a01b0319166001600160a01b038a811691821790925591518893918516917fddf252ad1be2c89b69c2b068fc378daa952ba7f163c4a11628f55a4df523b3ef91a495945050505050565b5f80516020615edd8339815191525f6148d78461286f565b5f84815260018401602052604090205490915080821461492a576001600160a01b0385165f9081526020848152604080832085845282528083205484845281842081905583526001860190915290208190555b505f92835260018201602090815260408085208590556001600160a01b039095168452918252838320908352905290812055565b7f645e039705490088daad89bae25049a34f4a9072d398537b1ab2425f24cbed02545f80516020615edd833981519152905f9061499d90600190615465565b5f8481526003840160205260408120546002850180549394509092849081106149c8576149c8615935565b905f5260205f2001549050808460020183815481106149e9576149e9615935565b5f91825260208083209091019290925582815260038601909152604080822084905586825281205560028401805480614a2457614a24615ec8565b600190038181905f5260205f20015f905590555050505050565b5f80516020615edd8339815191525f6001614a588561286f565b614a629190615465565b6001600160a01b039094165f9081526020838152604080832087845282528083208690559482526001909301909252502055565b606082614aab57614aa682614d27565b611212565b8151158015614ac257506001600160a01b0384163b155b15614aeb57604051639996b31560e01b81526001600160a01b03851660048201526024016111aa565b5080611212565b6001600160a01b038216614b1b57604051633250574960e11b81525f60048201526024016111aa565b5f614b2783835f6136b5565b90506001600160a01b03811615611e5d576040516339e3563760e11b81525f60048201526024016111aa565b606081471015614b785760405163cd78605960e01b81523060048201526024016111aa565b5f80856001600160a01b03168486604051614b939190615ead565b5f6040518083038185875af1925050503d805f8114614bcd576040519150601f19603f3d011682016040523d82523d5f602084013e614bd2565b606091505b5091509150614be2868383614d50565b9695505050505050565b5f8072184f03e93ff9f4daa797ed6e38ed64bf6a1f0160401b8310614c2a5772184f03e93ff9f4daa797ed6e38ed64bf6a1f0160401b830492506040015b6d04ee2d6d415b85acef81000000008310614c56576d04ee2d6d415b85acef8100000000830492506020015b662386f26fc100008310614c7457662386f26fc10000830492506010015b6305f5e1008310614c8c576305f5e100830492506008015b6127108310614ca057612710830492506004015b60648310614cb2576064830492506002015b600a83106110bc5760010192915050565b614cce838383614d60565b611e5d576001600160a01b038316614cfc57604051637e27328960e01b8152600481018290526024016111aa565b60405163177e802f60e01b81526001600160a01b0383166004820152602481018290526044016111aa565b805115614d375780518082602001fd5b60405163d6bda27560e01b815260040160405180910390fd5b606082614aab57614aa682614dc4565b5f6001600160a01b038316158015906138eb5750826001600160a01b0316846001600160a01b03161480614d995750614d9984846133c3565b806138eb5750826001600160a01b0316614db283613530565b6001600160a01b031614949350505050565b805115614dd45780518082602001fd5b604051630a12f52160e11b815260040160405180910390fd5b5080545f8255905f5260205f2090810190611d6e9190614e51565b828054828255905f5260205f20908101928215614e41579160200282015b82811115614e41578251825591602001919060010190614e26565b50614e4d929150614e51565b5090565b5b80821115614e4d575f8155600101614e52565b6001600160e01b031981168114611d6e575f80fd5b5f60208284031215614e8a575f80fd5b813561121281614e65565b5f5b83811015614eaf578181015183820152602001614e97565b50505f910152565b5f8151808452614ece816020860160208601614e95565b601f01601f19169290920160200192915050565b602081525f6112126020830184614eb7565b5f60208284031215614f04575f80fd5b5035919050565b80356001600160a01b0381168114614f21575f80fd5b919050565b5f60208284031215614f36575f80fd5b61121282614f0b565b5f8060408385031215614f50575f80fd5b614f5983614f0b565b946020939093013593505050565b5f8060408385031215614f78575f80fd5b50508035926020909101359150565b634e487b7160e01b5f52604160045260245ffd5b60405160e081016001600160401b0381118282101715614fbd57614fbd614f87565b60405290565b60405161012081016001600160401b0381118282101715614fbd57614fbd614f87565b60405161018081016001600160401b0381118282101715614fbd57614fbd614f87565b604051601f8201601f191681016001600160401b038111828210171561503157615031614f87565b604052919050565b5f6001600160401b0382111561505157615051614f87565b50601f01601f191660200190565b5f61507161506c84615039565b615009565b9050828152838383011115615084575f80fd5b828260208301375f602084830101529392505050565b5f80604083850312156150ab575f80fd5b8235915060208301356001600160401b038111156150c7575f80fd5b8301601f810185136150d7575f80fd5b6150e68582356020840161505f565b9150509250929050565b5f6001600160401b0382111561510857615108614f87565b5060051b60200190565b5f8060408385031215615123575f80fd5b823591506020808401356001600160401b03811115615140575f80fd5b8401601f81018613615150575f80fd5b803561515e61506c826150f0565b81815260059190911b8201830190838101908883111561517c575f80fd5b928401925b8284101561519a57833582529284019290840190615181565b80955050505050509250929050565b5f805f606084860312156151bb575f80fd5b6151c484614f0b565b92506151d260208501614f0b565b9150604084013590509250925092565b5f805f606084860312156151f4575f80fd5b6151fd84614f0b565b925061520b60208501614f0b565b915061521960408501614f0b565b90509250925092565b5f815180845260208085019450602084015f5b8381101561525157815187529582019590820190600101615235565b509495945050505050565b828152604060208201525f6138eb6040830184615222565b5f82601f830112615283575f80fd5b6112128383356020850161505f565b5f80604083850312156152a3575f80fd5b6152ac83614f0b565b915060208301356001600160401b038111156152c6575f80fd5b6150e685828601615274565b5f602082840312156152e2575f80fd5b813563ffffffff81168114611212575f80fd5b602081525f6112126020830184615222565b8015158114611d6e575f80fd5b5f8060408385031215615325575f80fd5b61532e83614f0b565b9150602083013561533e81615307565b809150509250929050565b5f60208284031215615359575f80fd5b813561121281615307565b5f805f8060808587031215615377575f80fd5b61538085614f0b565b935061538e60208601614f0b565b92506040850135915060608501356001600160401b038111156153af575f80fd5b6153bb87828801615274565b91505092959194509250565b5f80604083850312156153d8575f80fd5b6153e183614f0b565b91506153ef60208401614f0b565b90509250929050565b5f60208284031215615408575f80fd5b813561ffff81168114611212575f80fd5b600181811c9082168061542d57607f821691505b60208210810361544b57634e487b7160e01b5f52602260045260245ffd5b50919050565b634e487b7160e01b5f52601160045260245ffd5b818103818111156110bc576110bc615451565b634e487b7160e01b5f52601260045260245ffd5b5f8261549a5761549a615478565b500490565b5f60e082840312156154af575f80fd5b6154b7614f9b565b9050815181526020820151602082015260408201516040820152606082015160608201526080820151608082015260a082015160a082015260c082015160c082015292915050565b5f60e0828403121561550f575f80fd5b611212838361549f565b5f610120828403121561552a575f80fd5b615532614fc3565b9050815181526020820151602082015260408201516040820152606082015160608201526080820151608082015260a082015160a082015260c082015160c082015260e082015160e082015261010080830151818301525092915050565b5f61012082840312156155a1575f80fd5b6112128383615519565b805182526020810151602083015260408101516040830152606081015160608301526080810151608083015260a081015160a083015260c081015160c08301525050565b805182526020810151602083015260408101516040830152606081015160608301526080810151608083015260a081015160a083015260c081015160c083015260e081015160e08301526101008082015181840152505050565b610200810161565882856155ab565b61121260e08301846155ef565b5f806102008385031215615677575f80fd5b615681848461549f565b91506153ef8460e08501615519565b5f602082840312156156a0575f80fd5b5051919050565b5f82601f8301126156b6575f80fd5b815160206156c661506c836150f0565b8083825260208201915060208460051b8701019350868411156156e7575f80fd5b602086015b8481101561570357805183529183019183016156ec565b509695505050505050565b8051614f2181615307565b5f610120828403121561572a575f80fd5b615732614fc3565b9050815181526020820151602082015260408201516040820152606082015160608201526080820151608082015260a082015160a082015260c082015160c082015260e08201516001600160401b0381111561578c575f80fd5b615798848285016156a7565b60e0830152506101006157ac81840161570e565b9082015292915050565b5f60208083850312156157c7575f80fd5b82516001600160401b03808211156157dd575f80fd5b818501915085601f8301126157f0575f80fd5b81516157fe61506c826150f0565b81815260059190911b8301840190848101908883111561581c575f80fd5b8585015b8381101561592857805185811115615836575f80fd5b8601610340818c03601f190181131561584d575f80fd5b615855614fe6565b89830151815260408301518a82015260608084015189811115615876575f80fd5b6158848f8d83880101615719565b60408401525060806158988f82870161549f565b8284015261016091506158ad8f838701615519565b9083015261028084015160a08301526102a084015160c08301526102c084015160e08301526102e0840151610100830152610300840151610120830152610320840151610140830152918301519188831115615907575f80fd5b6159158e8c858701016156a7565b9082015285525050918601918601615820565b5098975050505050505050565b634e487b7160e01b5f52603260045260245ffd5b5f8261595757615957615478565b500690565b80820281158282048414176110bc576110bc615451565b808201808211156110bc576110bc615451565b5f8161599457615994615451565b505f190190565b83815261022081016159b060208301856155ab565b6138eb6101008301846155ef565b5f610120825184526020830151602085015260408301516040850152606083015160608501526080830151608085015260a083015160a085015260c083015160c085015260e08301518160e0860152615a1982860182615222565b6101009485015115159590940194909452509092915050565b8381528260208201526060604082015281516060820152602082015160808201525f60408301516103408060a0850152615a706103a08501836159be565b91506060850151615a8460c08601826155ab565b506080850151615a986101a08601826155ef565b5060a08501516102c085015260c08501516102e085015260e085015161030085015261010085015161032085015261012085015190840152610140840151610360840152610160840151838203605f1901610380850152615af98282615222565b979650505050505050565b6001600160a01b039384168152919092166020820152604081019190915260600190565b5f60208284031215615b38575f80fd5b815161121281615307565b5f60018201615b5457615b54615451565b5060010190565b5f610100808385031215615b6d575f80fd5b604051908101906001600160401b0382118183101715615b8f57615b8f614f87565b81604052835181526020840151602082015260408401516040820152606084015160608201526080840151608082015260a084015160a082015260c084015160c082015260e084015160e0820152809250505092915050565b5f82601f830112615bf7575f80fd5b8151615c0561506c82615039565b818152846020838601011115615c19575f80fd5b6138eb826020830160208701614e95565b5f60208284031215615c3a575f80fd5b81516001600160401b0380821115615c50575f80fd5b9083019060e08286031215615c63575f80fd5b615c6b614f9b565b8251815260208301516020820152615c856040840161570e565b6040820152606083015182811115615c9b575f80fd5b615ca787828601615be8565b6060830152506080830151608082015260a083015160a082015260c083015160c082015280935050505092915050565b601f821115611e5d57805f5260205f20601f840160051c81016020851015615cfc5750805b601f840160051c820191505b81811015612b80575f8155600101615d08565b81516001600160401b03811115615d3457615d34614f87565b615d4881615d428454615419565b84615cd7565b602080601f831160018114615d7b575f8415615d645750858301515b5f19600386901b1c1916600185901b17855561309e565b5f85815260208120601f198616915b82811015615da957888601518255948401946001909101908401615d8a565b5085821015615dc657878501515f19600388901b60f8161c191681555b5050505050600190811b01905550565b6001600160a01b03858116825284166020820152604081018390526080606082018190525f90614be290830184614eb7565b5f60208284031215615e18575f80fd5b815161121281614e65565b5f8351615e34818460208801614e95565b835190830190615e48818360208801614e95565b01949350505050565b60208152815160208201526020820151604082015261ffff60408301511660608201525f606083015163ffffffff80821660808501528060808601511660a0850152505060a083015160c0808401526138eb60e0840182614eb7565b5f8251615ebe818460208701614e95565b9190910192915050565b634e487b7160e01b5f52603160045260245ffdfe645e039705490088daad89bae25049a34f4a9072d398537b1ab2425f24cbed0080bb2b638cc20bc4d0a60d66940f3ab4a00c1d7b313497ca82fb0b4ab0079300360894a13ba1a3210667c828492db98dca3e2076cc3735a920a3ca505d382bbccd5ed15c6e187e77e9aee88184c21f4f2182ab5827cb3b7e07fbedcd63f03300a2646970667358221220b5041bca2b10f74a2fc30a7550ea14260a784d5eb9f49344ff859109926cec8a64736f6c63430008160033",
			"opcodes": "PUSH1 0xA0 PUSH1 0x40 MSTORE ADDRESS PUSH1 0x80 MSTORE CALLVALUE DUP1 ISZERO PUSH3 0x14 JUMPI PUSH0 DUP1 REVERT JUMPDEST POP PUSH3 0x1F PUSH3 0x25 JUMP JUMPDEST PUSH3 0xD9 JUMP JUMPDEST PUSH32 0xF0C57E16840DF040F15088DC2F81FE391C3923BEC73E23A9662EFC9C229C6A00 DUP1 SLOAD PUSH9 0x10000000000000000 SWAP1 DIV PUSH1 0xFF AND ISZERO PUSH3 0x76 JUMPI PUSH1 0x40 MLOAD PUSH4 0xF92EE8A9 PUSH1 0xE0 SHL DUP2 MSTORE PUSH1 0x4 ADD PUSH1 0x40 MLOAD DUP1 SWAP2 SUB SWAP1 REVERT JUMPDEST DUP1 SLOAD PUSH1 0x1 PUSH1 0x1 PUSH1 0x40 SHL SUB SWAP1 DUP2 AND EQ PUSH3 0xD6 JUMPI DUP1 SLOAD PUSH1 0x1 PUSH1 0x1 PUSH1 0x40 SHL SUB NOT AND PUSH1 0x1 PUSH1 0x1 PUSH1 0x40 SHL SUB SWAP1 DUP2 OR DUP3 SSTORE PUSH1 0x40 MLOAD SWAP1 DUP2 MSTORE PUSH32 0xC7F505B2F371AE2175EE4913F4499E1F2633A7B5936321EED1CDAEB6115181D2 SWAP1 PUSH1 0x20 ADD PUSH1 0x40 MLOAD DUP1 SWAP2 SUB SWAP1 LOG1 JUMPDEST POP JUMP JUMPDEST PUSH1 0x80 MLOAD PUSH2 0x5F92 PUSH3 0x100 PUSH0 CODECOPY PUSH0 DUP2 DUP2 PUSH2 0x38FE ADD MSTORE DUP2 DUP2 PUSH2 0x3927 ADD MSTORE PUSH2 0x3A66 ADD MSTORE PUSH2 0x5F92 PUSH0 RETURN INVALID PUSH1 0x80 PUSH1 0x40 MSTORE PUSH1 0x4 CALLDATASIZE LT PUSH2 0x4FF JUMPI PUSH0 CALLDATALOAD PUSH1 0xE0 SHR DUP1 PUSH4 0x75794A3C GT PUSH2 0x28E JUMPI DUP1 PUSH4 0xB30D92BA GT PUSH2 0x160 JUMPI DUP1 PUSH4 0xDC01F60D GT PUSH2 0xC9 JUMPI DUP1 PUSH4 0xF25F4B56 GT PUSH2 0x83 JUMPI DUP1 PUSH4 0xF25F4B56 EQ PUSH2 0x1000 JUMPI DUP1 PUSH4 0xF2FDE38B EQ PUSH2 0x101F JUMPI DUP1 PUSH4 0xF50D390D EQ PUSH2 0x103E JUMPI DUP1 PUSH4 0xF50DDBC7 EQ PUSH2 0x105D JUMPI DUP1 PUSH4 0xFA237AEA EQ PUSH2 0x1088 JUMPI DUP1 PUSH4 0xFC2A88C3 EQ PUSH2 0x109D JUMPI PUSH0 DUP1 REVERT JUMPDEST DUP1 PUSH4 0xDC01F60D EQ PUSH2 0xF58 JUMPI DUP1 PUSH4 0xDD61B338 EQ PUSH2 0xF83 JUMPI DUP1 PUSH4 0xE1F1C4A7 EQ PUSH2 0xF98 JUMPI DUP1 PUSH4 0xE985E9C5 EQ PUSH2 0xFAD JUMPI DUP1 PUSH4 0xEB0D1623 EQ PUSH2 0xFCC JUMPI DUP1 PUSH4 0xEC263589 EQ PUSH2 0xFE1 JUMPI PUSH0 DUP1 REVERT JUMPDEST DUP1 PUSH4 0xC2D08583 GT PUSH2 0x11A JUMPI DUP1 PUSH4 0xC2D08583 EQ PUSH2 0xE9D JUMPI DUP1 PUSH4 0xC76D3A54 EQ PUSH2 0xEBC JUMPI DUP1 PUSH4 0xC87B56DD EQ PUSH2 0xEDB JUMPI DUP1 PUSH4 0xC9F26991 EQ PUSH2 0xEFA JUMPI DUP1 PUSH4 0xCF19D583 EQ PUSH2 0xF19 JUMPI DUP1 PUSH4 0xD1BB5CF1 EQ PUSH2 0xF39 JUMPI PUSH0 DUP1 REVERT JUMPDEST DUP1 PUSH4 0xB30D92BA EQ PUSH2 0xDA6 JUMPI DUP1 PUSH4 0xB476F889 EQ PUSH2 0xE16 JUMPI DUP1 PUSH4 0xB5789950 EQ PUSH2 0xE35 JUMPI DUP1 PUSH4 0xB88D4FDE EQ PUSH2 0xE54 JUMPI DUP1 PUSH4 0xB8E3EFFE EQ PUSH2 0xE73 JUMPI DUP1 PUSH4 0xBCB39621 EQ PUSH2 0xE88 JUMPI PUSH0 DUP1 REVERT JUMPDEST DUP1 PUSH4 0x95D89B41 GT PUSH2 0x202 JUMPI DUP1 PUSH4 0xA91C39A9 GT PUSH2 0x1BC JUMPI DUP1 PUSH4 0xA91C39A9 EQ PUSH2 0xCC5 JUMPI DUP1 PUSH4 0xAD3CB1CC EQ PUSH2 0xCE4 JUMPI DUP1 PUSH4 0xAE0F79E5 EQ PUSH2 0xD14 JUMPI DUP1 PUSH4 0xAE169A50 EQ PUSH2 0xD33 JUMPI DUP1 PUSH4 0xB0FB162F EQ PUSH2 0xD52 JUMPI DUP1 PUSH4 0xB1BB05A6 EQ PUSH2 0xD87 JUMPI PUSH0 DUP1 REVERT JUMPDEST DUP1 PUSH4 0x95D89B41 EQ PUSH2 0xBC0 JUMPI DUP1 PUSH4 0x965A95C2 EQ PUSH2 0xBD4 JUMPI DUP1 PUSH4 0x9797A563 EQ PUSH2 0xBF3 JUMPI DUP1 PUSH4 0x9BB0543C EQ PUSH2 0xC1E JUMPI DUP1 PUSH4 0xA168FA89 EQ PUSH2 0xC3D JUMPI DUP1 PUSH4 0xA22CB465 EQ PUSH2 0xCA6 JUMPI PUSH0 DUP1 REVERT JUMPDEST DUP1 PUSH4 0x8796BA8C GT PUSH2 0x253 JUMPI DUP1 PUSH4 0x8796BA8C EQ PUSH2 0xB25 JUMPI DUP1 PUSH4 0x8AC00021 EQ PUSH2 0xB44 JUMPI DUP1 PUSH4 0x8B424267 EQ PUSH2 0xB59 JUMPI DUP1 PUSH4 0x8DA5CB5B EQ PUSH2 0xB6E JUMPI DUP1 PUSH4 0x8EA98117 EQ PUSH2 0xB82 JUMPI DUP1 PUSH4 0x92642744 EQ PUSH2 0xBA1 JUMPI PUSH0 DUP1 REVERT JUMPDEST DUP1 PUSH4 0x75794A3C EQ PUSH2 0xAA8 JUMPI DUP1 PUSH4 0x8129FC1C EQ PUSH2 0xABD JUMPI DUP1 PUSH4 0x8456CB59 EQ PUSH2 0xAD1 JUMPI DUP1 PUSH4 0x84A4E7A7 EQ PUSH2 0xAE5 JUMPI DUP1 PUSH4 0x85A7C8AA EQ PUSH2 0xB06 JUMPI PUSH0 DUP1 REVERT JUMPDEST DUP1 PUSH4 0x363BF964 GT PUSH2 0x3D2 JUMPI DUP1 PUSH4 0x4F1EF286 GT PUSH2 0x33B JUMPI DUP1 PUSH4 0x610B68F3 GT PUSH2 0x2F5 JUMPI DUP1 PUSH4 0x610B68F3 EQ PUSH2 0xA03 JUMPI DUP1 PUSH4 0x61728F39 EQ PUSH2 0xA22 JUMPI DUP1 PUSH4 0x6352211E EQ PUSH2 0xA37 JUMPI DUP1 PUSH4 0x6F5E5E26 EQ PUSH2 0xA56 JUMPI DUP1 PUSH4 0x70A08231 EQ PUSH2 0xA75 JUMPI DUP1 PUSH4 0x715018A6 EQ PUSH2 0xA94 JUMPI PUSH0 DUP1 REVERT JUMPDEST DUP1 PUSH4 0x4F1EF286 EQ PUSH2 0x95C JUMPI DUP1 PUSH4 0x4F6CCCE7 EQ PUSH2 0x96F JUMPI DUP1 PUSH4 0x52D1902D EQ PUSH2 0x98E JUMPI DUP1 PUSH4 0x52D84C62 EQ PUSH2 0x9A2 JUMPI DUP1 PUSH4 0x5330D4F9 EQ PUSH2 0x9C1 JUMPI DUP1 PUSH4 0x5C975ABB EQ PUSH2 0x9E0 JUMPI PUSH0 DUP1 REVERT JUMPDEST DUP1 PUSH4 0x42842E0E GT PUSH2 0x38C JUMPI DUP1 PUSH4 0x42842E0E EQ PUSH2 0x8C2 JUMPI DUP1 PUSH4 0x42966C68 EQ PUSH2 0x8E1 JUMPI DUP1 PUSH4 0x430BF08A EQ PUSH2 0x900 JUMPI DUP1 PUSH4 0x44AF49C5 EQ PUSH2 0x91F JUMPI DUP1 PUSH4 0x493B296B EQ PUSH2 0x934 JUMPI DUP1 PUSH4 0x4B988C14 EQ PUSH2 0x947 JUMPI PUSH0 DUP1 REVERT JUMPDEST DUP1 PUSH4 0x363BF964 EQ PUSH2 0x805 JUMPI DUP1 PUSH4 0x39E211C9 EQ PUSH2 0x824 JUMPI DUP1 PUSH4 0x3A4B3664 EQ PUSH2 0x843 JUMPI DUP1 PUSH4 0x3B2BCBF1 EQ PUSH2 0x862 JUMPI DUP1 PUSH4 0x3F4BA83A EQ PUSH2 0x881 JUMPI DUP1 PUSH4 0x40398D67 EQ PUSH2 0x895 JUMPI PUSH0 DUP1 REVERT JUMPDEST DUP1 PUSH4 0x18E97FD1 GT PUSH2 0x474 JUMPI DUP1 PUSH4 0x262E3EC3 GT PUSH2 0x42E JUMPI DUP1 PUSH4 0x262E3EC3 EQ PUSH2 0x754 JUMPI DUP1 PUSH4 0x2B5DB089 EQ PUSH2 0x773 JUMPI DUP1 PUSH4 0x2D2F4E9D EQ PUSH2 0x793 JUMPI DUP1 PUSH4 0x2F68F482 EQ PUSH2 0x7A8 JUMPI DUP1 PUSH4 0x2F745C59 EQ PUSH2 0x7C7 JUMPI DUP1 PUSH4 0x2F84C391 EQ PUSH2 0x7E6 JUMPI PUSH0 DUP1 REVERT JUMPDEST DUP1 PUSH4 0x18E97FD1 EQ PUSH2 0x688 JUMPI DUP1 PUSH4 0x19AAE978 EQ PUSH2 0x6A7 JUMPI DUP1 PUSH4 0x1FE543E3 EQ PUSH2 0x6C6 JUMPI DUP1 PUSH4 0x23B872DD EQ PUSH2 0x6E5 JUMPI DUP1 PUSH4 0x240F3610 EQ PUSH2 0x704 JUMPI DUP1 PUSH4 0x24F74697 EQ PUSH2 0x723 JUMPI PUSH0 DUP1 REVERT JUMPDEST DUP1 PUSH4 0x95EA7B3 GT PUSH2 0x4C5 JUMPI DUP1 PUSH4 0x95EA7B3 EQ PUSH2 0x5D6 JUMPI DUP1 PUSH4 0xB78F9C0 EQ PUSH2 0x5F5 JUMPI DUP1 PUSH4 0xE37008A EQ PUSH2 0x614 JUMPI DUP1 PUSH4 0x1102610E EQ PUSH2 0x641 JUMPI DUP1 PUSH4 0x13966DB5 EQ PUSH2 0x660 JUMPI DUP1 PUSH4 0x18160DDD EQ PUSH2 0x675 JUMPI PUSH0 DUP1 REVERT JUMPDEST DUP1 PUSH3 0x59BE0D EQ PUSH2 0x50A JUMPI DUP1 PUSH4 0x1FFC9A7 EQ PUSH2 0x546 JUMPI DUP1 PUSH4 0x6FDDE03 EQ PUSH2 0x575 JUMPI DUP1 PUSH4 0x81812FC EQ PUSH2 0x596 JUMPI DUP1 PUSH4 0x8EC6C3C EQ PUSH2 0x5B5 JUMPI PUSH0 DUP1 REVERT JUMPDEST CALLDATASIZE PUSH2 0x506 JUMPI STOP JUMPDEST PUSH0 DUP1 REVERT JUMPDEST CALLVALUE DUP1 ISZERO PUSH2 0x515 JUMPI PUSH0 DUP1 REVERT JUMPDEST POP PUSH1 0xC SLOAD PUSH2 0x529 SWAP1 PUSH1 0x1 PUSH1 0x1 PUSH1 0xA0 SHL SUB AND DUP2 JUMP JUMPDEST PUSH1 0x40 MLOAD PUSH1 0x1 PUSH1 0x1 PUSH1 0xA0 SHL SUB SWAP1 SWAP2 AND DUP2 MSTORE PUSH1 0x20 ADD JUMPDEST PUSH1 0x40 MLOAD DUP1 SWAP2 SUB SWAP1 RETURN JUMPDEST CALLVALUE DUP1 ISZERO PUSH2 0x551 JUMPI PUSH0 DUP1 REVERT JUMPDEST POP PUSH2 0x565 PUSH2 0x560 CALLDATASIZE PUSH1 0x4 PUSH2 0x4E7A JUMP JUMPDEST PUSH2 0x10B2 JUMP JUMPDEST PUSH1 0x40 MLOAD SWAP1 ISZERO ISZERO DUP2 MSTORE PUSH1 0x20 ADD PUSH2 0x53D JUMP JUMPDEST CALLVALUE DUP1 ISZERO PUSH2 0x580 JUMPI PUSH0 DUP1 REVERT JUMPDEST POP PUSH2 0x589 PUSH2 0x10C2 JUMP JUMPDEST PUSH1 0x40 MLOAD PUSH2 0x53D SWAP2 SWAP1 PUSH2 0x4EE2 JUMP JUMPDEST CALLVALUE DUP1 ISZERO PUSH2 0x5A1 JUMPI PUSH0 DUP1 REVERT JUMPDEST POP PUSH2 0x529 PUSH2 0x5B0 CALLDATASIZE PUSH1 0x4 PUSH2 0x4EF4 JUMP JUMPDEST PUSH2 0x1163 JUMP JUMPDEST CALLVALUE DUP1 ISZERO PUSH2 0x5C0 JUMPI PUSH0 DUP1 REVERT JUMPDEST POP PUSH2 0x5D4 PUSH2 0x5CF CALLDATASIZE PUSH1 0x4 PUSH2 0x4F26 JUMP JUMPDEST PUSH2 0x1177 JUMP JUMPDEST STOP JUMPDEST CALLVALUE DUP1 ISZERO PUSH2 0x5E1 JUMPI PUSH0 DUP1 REVERT JUMPDEST POP PUSH2 0x5D4 PUSH2 0x5F0 CALLDATASIZE PUSH1 0x4 PUSH2 0x4F3F JUMP JUMPDEST PUSH2 0x11D5 JUMP JUMPDEST CALLVALUE DUP1 ISZERO PUSH2 0x600 JUMPI PUSH0 DUP1 REVERT JUMPDEST POP PUSH2 0x5D4 PUSH2 0x60F CALLDATASIZE PUSH1 0x4 PUSH2 0x4F67 JUMP JUMPDEST PUSH2 0x11E4 JUMP JUMPDEST CALLVALUE DUP1 ISZERO PUSH2 0x61F JUMPI PUSH0 DUP1 REVERT JUMPDEST POP PUSH2 0x633 PUSH2 0x62E CALLDATASIZE PUSH1 0x4 PUSH2 0x4EF4 JUMP JUMPDEST PUSH2 0x11F7 JUMP JUMPDEST PUSH1 0x40 MLOAD SWAP1 DUP2 MSTORE PUSH1 0x20 ADD PUSH2 0x53D JUMP JUMPDEST CALLVALUE DUP1 ISZERO PUSH2 0x64C JUMPI PUSH0 DUP1 REVERT JUMPDEST POP PUSH2 0x5D4 PUSH2 0x65B CALLDATASIZE PUSH1 0x4 PUSH2 0x4F26 JUMP JUMPDEST PUSH2 0x1219 JUMP JUMPDEST CALLVALUE DUP1 ISZERO PUSH2 0x66B JUMPI PUSH0 DUP1 REVERT JUMPDEST POP PUSH2 0x633 PUSH1 0x11 SLOAD DUP2 JUMP JUMPDEST CALLVALUE DUP1 ISZERO PUSH2 0x680 JUMPI PUSH0 DUP1 REVERT JUMPDEST POP PUSH0 SLOAD PUSH2 0x633 JUMP JUMPDEST CALLVALUE DUP1 ISZERO PUSH2 0x693 JUMPI PUSH0 DUP1 REVERT JUMPDEST POP PUSH2 0x5D4 PUSH2 0x6A2 CALLDATASIZE PUSH1 0x4 PUSH2 0x509A JUMP JUMPDEST PUSH2 0x1243 JUMP JUMPDEST CALLVALUE DUP1 ISZERO PUSH2 0x6B2 JUMPI PUSH0 DUP1 REVERT JUMPDEST POP PUSH2 0x5D4 PUSH2 0x6C1 CALLDATASIZE PUSH1 0x4 PUSH2 0x4EF4 JUMP JUMPDEST PUSH2 0x1255 JUMP JUMPDEST CALLVALUE DUP1 ISZERO PUSH2 0x6D1 JUMPI PUSH0 DUP1 REVERT JUMPDEST POP PUSH2 0x5D4 PUSH2 0x6E0 CALLDATASIZE PUSH1 0x4 PUSH2 0x5112 JUMP JUMPDEST PUSH2 0x1AE7 JUMP JUMPDEST CALLVALUE DUP1 ISZERO PUSH2 0x6F0 JUMPI PUSH0 DUP1 REVERT JUMPDEST POP PUSH2 0x5D4 PUSH2 0x6FF CALLDATASIZE PUSH1 0x4 PUSH2 0x51A9 JUMP JUMPDEST PUSH2 0x1B3E JUMP JUMPDEST CALLVALUE DUP1 ISZERO PUSH2 0x70F JUMPI PUSH0 DUP1 REVERT JUMPDEST POP PUSH2 0x5D4 PUSH2 0x71E CALLDATASIZE PUSH1 0x4 PUSH2 0x4EF4 JUMP JUMPDEST PUSH2 0x1BC7 JUMP JUMPDEST CALLVALUE DUP1 ISZERO PUSH2 0x72E JUMPI PUSH0 DUP1 REVERT JUMPDEST POP PUSH1 0x8 SLOAD PUSH2 0x73F SWAP1 PUSH4 0xFFFFFFFF AND DUP2 JUMP JUMPDEST PUSH1 0x40 MLOAD PUSH4 0xFFFFFFFF SWAP1 SWAP2 AND DUP2 MSTORE PUSH1 0x20 ADD PUSH2 0x53D JUMP JUMPDEST CALLVALUE DUP1 ISZERO PUSH2 0x75F JUMPI PUSH0 DUP1 REVERT JUMPDEST POP PUSH1 0xB SLOAD PUSH2 0x529 SWAP1 PUSH1 0x1 PUSH1 0x1 PUSH1 0xA0 SHL SUB AND DUP2 JUMP JUMPDEST CALLVALUE DUP1 ISZERO PUSH2 0x77E JUMPI PUSH0 DUP1 REVERT JUMPDEST POP PUSH1 0x8 SLOAD PUSH2 0x565 SWAP1 PUSH1 0x1 PUSH1 0x30 SHL SWAP1 DIV PUSH1 0xFF AND DUP2 JUMP JUMPDEST CALLVALUE DUP1 ISZERO PUSH2 0x79E JUMPI PUSH0 DUP1 REVERT JUMPDEST POP PUSH2 0x633 PUSH1 0x17 SLOAD DUP2 JUMP JUMPDEST CALLVALUE DUP1 ISZERO PUSH2 0x7B3 JUMPI PUSH0 DUP1 REVERT JUMPDEST POP PUSH2 0x5D4 PUSH2 0x7C2 CALLDATASIZE PUSH1 0x4 PUSH2 0x4EF4 JUMP JUMPDEST PUSH2 0x1BD4 JUMP JUMPDEST CALLVALUE DUP1 ISZERO PUSH2 0x7D2 JUMPI PUSH0 DUP1 REVERT JUMPDEST POP PUSH2 0x633 PUSH2 0x7E1 CALLDATASIZE PUSH1 0x4 PUSH2 0x4F3F JUMP JUMPDEST PUSH2 0x1BE1 JUMP JUMPDEST CALLVALUE DUP1 ISZERO PUSH2 0x7F1 JUMPI PUSH0 DUP1 REVERT JUMPDEST POP PUSH2 0x5D4 PUSH2 0x800 CALLDATASIZE PUSH1 0x4 PUSH2 0x4F26 JUMP JUMPDEST PUSH2 0x1C52 JUMP JUMPDEST CALLVALUE DUP1 ISZERO PUSH2 0x810 JUMPI PUSH0 DUP1 REVERT JUMPDEST POP PUSH2 0x5D4 PUSH2 0x81F CALLDATASIZE PUSH1 0x4 PUSH2 0x51E2 JUMP JUMPDEST PUSH2 0x1C7C JUMP JUMPDEST CALLVALUE DUP1 ISZERO PUSH2 0x82F JUMPI PUSH0 DUP1 REVERT JUMPDEST POP PUSH2 0x5D4 PUSH2 0x83E CALLDATASIZE PUSH1 0x4 PUSH2 0x4EF4 JUMP JUMPDEST PUSH2 0x1D50 JUMP JUMPDEST CALLVALUE DUP1 ISZERO PUSH2 0x84E JUMPI PUSH0 DUP1 REVERT JUMPDEST POP PUSH2 0x5D4 PUSH2 0x85D CALLDATASIZE PUSH1 0x4 PUSH2 0x4EF4 JUMP JUMPDEST PUSH2 0x1D5D JUMP JUMPDEST CALLVALUE DUP1 ISZERO PUSH2 0x86D JUMPI PUSH0 DUP1 REVERT JUMPDEST POP PUSH1 0x5 SLOAD PUSH2 0x529 SWAP1 PUSH1 0x1 PUSH1 0x1 PUSH1 0xA0 SHL SUB AND DUP2 JUMP JUMPDEST CALLVALUE DUP1 ISZERO PUSH2 0x88C JUMPI PUSH0 DUP1 REVERT JUMPDEST POP PUSH2 0x5D4 PUSH2 0x1D71 JUMP JUMPDEST CALLVALUE DUP1 ISZERO PUSH2 0x8A0 JUMPI PUSH0 DUP1 REVERT JUMPDEST POP PUSH2 0x8B4 PUSH2 0x8AF CALLDATASIZE PUSH1 0x4 PUSH2 0x4F26 JUMP JUMPDEST PUSH2 0x1D83 JUMP JUMPDEST PUSH1 0x40 MLOAD PUSH2 0x53D SWAP3 SWAP2 SWAP1 PUSH2 0x525C JUMP JUMPDEST CALLVALUE DUP1 ISZERO PUSH2 0x8CD JUMPI PUSH0 DUP1 REVERT JUMPDEST POP PUSH2 0x5D4 PUSH2 0x8DC CALLDATASIZE PUSH1 0x4 PUSH2 0x51A9 JUMP JUMPDEST PUSH2 0x1E43 JUMP JUMPDEST CALLVALUE DUP1 ISZERO PUSH2 0x8EC JUMPI PUSH0 DUP1 REVERT JUMPDEST POP PUSH2 0x5D4 PUSH2 0x8FB CALLDATASIZE PUSH1 0x4 PUSH2 0x4EF4 JUMP JUMPDEST PUSH2 0x1E62 JUMP JUMPDEST CALLVALUE DUP1 ISZERO PUSH2 0x90B JUMPI PUSH0 DUP1 REVERT JUMPDEST POP PUSH1 0xF SLOAD PUSH2 0x529 SWAP1 PUSH1 0x1 PUSH1 0x1 PUSH1 0xA0 SHL SUB AND DUP2 JUMP JUMPDEST CALLVALUE DUP1 ISZERO PUSH2 0x92A JUMPI PUSH0 DUP1 REVERT JUMPDEST POP PUSH2 0x633 PUSH1 0x14 SLOAD DUP2 JUMP JUMPDEST PUSH2 0x5D4 PUSH2 0x942 CALLDATASIZE PUSH1 0x4 PUSH2 0x4EF4 JUMP JUMPDEST PUSH2 0x1E6D JUMP JUMPDEST CALLVALUE DUP1 ISZERO PUSH2 0x952 JUMPI PUSH0 DUP1 REVERT JUMPDEST POP PUSH2 0x633 PUSH1 0x16 SLOAD DUP2 JUMP JUMPDEST PUSH2 0x5D4 PUSH2 0x96A CALLDATASIZE PUSH1 0x4 PUSH2 0x5292 JUMP JUMPDEST PUSH2 0x23A5 JUMP JUMPDEST CALLVALUE DUP1 ISZERO PUSH2 0x97A JUMPI PUSH0 DUP1 REVERT JUMPDEST POP PUSH2 0x633 PUSH2 0x989 CALLDATASIZE PUSH1 0x4 PUSH2 0x4EF4 JUMP JUMPDEST PUSH2 0x23C0 JUMP JUMPDEST CALLVALUE DUP1 ISZERO PUSH2 0x999 JUMPI PUSH0 DUP1 REVERT JUMPDEST POP PUSH2 0x633 PUSH2 0x2420 JUMP JUMPDEST CALLVALUE DUP1 ISZERO PUSH2 0x9AD JUMPI PUSH0 DUP1 REVERT JUMPDEST POP PUSH2 0x5D4 PUSH2 0x9BC CALLDATASIZE PUSH1 0x4 PUSH2 0x52D2 JUMP JUMPDEST PUSH2 0x243B JUMP JUMPDEST CALLVALUE DUP1 ISZERO PUSH2 0x9CC JUMPI PUSH0 DUP1 REVERT JUMPDEST POP PUSH2 0x5D4 PUSH2 0x9DB CALLDATASIZE PUSH1 0x4 PUSH2 0x4EF4 JUMP JUMPDEST PUSH2 0x245F JUMP JUMPDEST CALLVALUE DUP1 ISZERO PUSH2 0x9EB JUMPI PUSH0 DUP1 REVERT JUMPDEST POP PUSH0 DUP1 MLOAD PUSH1 0x20 PUSH2 0x5F3D DUP4 CODECOPY DUP2 MLOAD SWAP2 MSTORE SLOAD PUSH1 0xFF AND PUSH2 0x565 JUMP JUMPDEST CALLVALUE DUP1 ISZERO PUSH2 0xA0E JUMPI PUSH0 DUP1 REVERT JUMPDEST POP PUSH2 0x5D4 PUSH2 0xA1D CALLDATASIZE PUSH1 0x4 PUSH2 0x4F26 JUMP JUMPDEST PUSH2 0x27A9 JUMP JUMPDEST CALLVALUE DUP1 ISZERO PUSH2 0xA2D JUMPI PUSH0 DUP1 REVERT JUMPDEST POP PUSH2 0x633 PUSH1 0x7 SLOAD DUP2 JUMP JUMPDEST CALLVALUE DUP1 ISZERO PUSH2 0xA42 JUMPI PUSH0 DUP1 REVERT JUMPDEST POP PUSH2 0x529 PUSH2 0xA51 CALLDATASIZE PUSH1 0x4 PUSH2 0x4EF4 JUMP JUMPDEST PUSH2 0x2802 JUMP JUMPDEST CALLVALUE DUP1 ISZERO PUSH2 0xA61 JUMPI PUSH0 DUP1 REVERT JUMPDEST POP PUSH2 0x5D4 PUSH2 0xA70 CALLDATASIZE PUSH1 0x4 PUSH2 0x4F67 JUMP JUMPDEST PUSH2 0x280C JUMP JUMPDEST CALLVALUE DUP1 ISZERO PUSH2 0xA80 JUMPI PUSH0 DUP1 REVERT JUMPDEST POP PUSH2 0x633 PUSH2 0xA8F CALLDATASIZE PUSH1 0x4 PUSH2 0x4F26 JUMP JUMPDEST PUSH2 0x286F JUMP JUMPDEST CALLVALUE DUP1 ISZERO PUSH2 0xA9F JUMPI PUSH0 DUP1 REVERT JUMPDEST POP PUSH2 0x5D4 PUSH2 0x28C7 JUMP JUMPDEST CALLVALUE DUP1 ISZERO PUSH2 0xAB3 JUMPI PUSH0 DUP1 REVERT JUMPDEST POP PUSH2 0x633 PUSH1 0x1 SLOAD DUP2 JUMP JUMPDEST CALLVALUE DUP1 ISZERO PUSH2 0xAC8 JUMPI PUSH0 DUP1 REVERT JUMPDEST POP PUSH2 0x5D4 PUSH2 0x28D8 JUMP JUMPDEST CALLVALUE DUP1 ISZERO PUSH2 0xADC JUMPI PUSH0 DUP1 REVERT JUMPDEST POP PUSH2 0x5D4 PUSH2 0x2B87 JUMP JUMPDEST CALLVALUE DUP1 ISZERO PUSH2 0xAF0 JUMPI PUSH0 DUP1 REVERT JUMPDEST POP PUSH2 0xAF9 PUSH2 0x2B97 JUMP JUMPDEST PUSH1 0x40 MLOAD PUSH2 0x53D SWAP2 SWAP1 PUSH2 0x52F5 JUMP JUMPDEST CALLVALUE DUP1 ISZERO PUSH2 0xB11 JUMPI PUSH0 DUP1 REVERT JUMPDEST POP PUSH1 0x10 SLOAD PUSH2 0x529 SWAP1 PUSH1 0x1 PUSH1 0x1 PUSH1 0xA0 SHL SUB AND DUP2 JUMP JUMPDEST CALLVALUE DUP1 ISZERO PUSH2 0xB30 JUMPI PUSH0 DUP1 REVERT JUMPDEST POP PUSH2 0x633 PUSH2 0xB3F CALLDATASIZE PUSH1 0x4 PUSH2 0x4EF4 JUMP JUMPDEST PUSH2 0x2C25 JUMP JUMPDEST CALLVALUE DUP1 ISZERO PUSH2 0xB4F JUMPI PUSH0 DUP1 REVERT JUMPDEST POP PUSH2 0x633 PUSH1 0x6 SLOAD DUP2 JUMP JUMPDEST CALLVALUE DUP1 ISZERO PUSH2 0xB64 JUMPI PUSH0 DUP1 REVERT JUMPDEST POP PUSH2 0x633 PUSH1 0x12 SLOAD DUP2 JUMP JUMPDEST CALLVALUE DUP1 ISZERO PUSH2 0xB79 JUMPI PUSH0 DUP1 REVERT JUMPDEST POP PUSH2 0x529 PUSH2 0x2C44 JUMP JUMPDEST CALLVALUE DUP1 ISZERO PUSH2 0xB8D JUMPI PUSH0 DUP1 REVERT JUMPDEST POP PUSH2 0x5D4 PUSH2 0xB9C CALLDATASIZE PUSH1 0x4 PUSH2 0x4F26 JUMP JUMPDEST PUSH2 0x2C72 JUMP JUMPDEST CALLVALUE DUP1 ISZERO PUSH2 0xBAC JUMPI PUSH0 DUP1 REVERT JUMPDEST POP PUSH2 0x5D4 PUSH2 0xBBB CALLDATASIZE PUSH1 0x4 PUSH2 0x4EF4 JUMP JUMPDEST PUSH2 0x2CAE JUMP JUMPDEST CALLVALUE DUP1 ISZERO PUSH2 0xBCB JUMPI PUSH0 DUP1 REVERT JUMPDEST POP PUSH2 0x589 PUSH2 0x30A6 JUMP JUMPDEST CALLVALUE DUP1 ISZERO PUSH2 0xBDF JUMPI PUSH0 DUP1 REVERT JUMPDEST POP PUSH2 0x5D4 PUSH2 0xBEE CALLDATASIZE PUSH1 0x4 PUSH2 0x4EF4 JUMP JUMPDEST PUSH2 0x30E4 JUMP JUMPDEST CALLVALUE DUP1 ISZERO PUSH2 0xBFE JUMPI PUSH0 DUP1 REVERT JUMPDEST POP PUSH2 0x633 PUSH2 0xC0D CALLDATASIZE PUSH1 0x4 PUSH2 0x4EF4 JUMP JUMPDEST PUSH1 0x1A PUSH1 0x20 MSTORE PUSH0 SWAP1 DUP2 MSTORE PUSH1 0x40 SWAP1 KECCAK256 SLOAD DUP2 JUMP JUMPDEST CALLVALUE DUP1 ISZERO PUSH2 0xC29 JUMPI PUSH0 DUP1 REVERT JUMPDEST POP PUSH2 0x5D4 PUSH2 0xC38 CALLDATASIZE PUSH1 0x4 PUSH2 0x4EF4 JUMP JUMPDEST PUSH2 0x30F1 JUMP JUMPDEST CALLVALUE DUP1 ISZERO PUSH2 0xC48 JUMPI PUSH0 DUP1 REVERT JUMPDEST POP PUSH2 0xC84 PUSH2 0xC57 CALLDATASIZE PUSH1 0x4 PUSH2 0x4EF4 JUMP JUMPDEST PUSH1 0x2 PUSH1 0x20 DUP2 SWAP1 MSTORE PUSH0 SWAP2 DUP3 MSTORE PUSH1 0x40 SWAP1 SWAP2 KECCAK256 DUP1 SLOAD SWAP2 DUP2 ADD SLOAD PUSH1 0x3 SWAP1 SWAP2 ADD SLOAD PUSH1 0xFF DUP1 DUP5 AND SWAP4 PUSH2 0x100 SWAP1 DIV AND SWAP2 SWAP1 DUP5 JUMP JUMPDEST PUSH1 0x40 DUP1 MLOAD SWAP5 ISZERO ISZERO DUP6 MSTORE SWAP3 ISZERO ISZERO PUSH1 0x20 DUP6 ADD MSTORE SWAP2 DUP4 ADD MSTORE PUSH1 0x60 DUP3 ADD MSTORE PUSH1 0x80 ADD PUSH2 0x53D JUMP JUMPDEST CALLVALUE DUP1 ISZERO PUSH2 0xCB1 JUMPI PUSH0 DUP1 REVERT JUMPDEST POP PUSH2 0x5D4 PUSH2 0xCC0 CALLDATASIZE PUSH1 0x4 PUSH2 0x5314 JUMP JUMPDEST PUSH2 0x30FE JUMP JUMPDEST CALLVALUE DUP1 ISZERO PUSH2 0xCD0 JUMPI PUSH0 DUP1 REVERT JUMPDEST POP PUSH2 0x5D4 PUSH2 0xCDF CALLDATASIZE PUSH1 0x4 PUSH2 0x4EF4 JUMP JUMPDEST PUSH2 0x3109 JUMP JUMPDEST CALLVALUE DUP1 ISZERO PUSH2 0xCEF JUMPI PUSH0 DUP1 REVERT JUMPDEST POP PUSH2 0x589 PUSH1 0x40 MLOAD DUP1 PUSH1 0x40 ADD PUSH1 0x40 MSTORE DUP1 PUSH1 0x5 DUP2 MSTORE PUSH1 0x20 ADD PUSH5 0x352E302E3 PUSH1 0xDC SHL DUP2 MSTORE POP DUP2 JUMP JUMPDEST CALLVALUE DUP1 ISZERO PUSH2 0xD1F JUMPI PUSH0 DUP1 REVERT JUMPDEST POP PUSH2 0x529 PUSH2 0xD2E CALLDATASIZE PUSH1 0x4 PUSH2 0x4EF4 JUMP JUMPDEST PUSH2 0x3116 JUMP JUMPDEST CALLVALUE DUP1 ISZERO PUSH2 0xD3E JUMPI PUSH0 DUP1 REVERT JUMPDEST POP PUSH2 0x5D4 PUSH2 0xD4D CALLDATASIZE PUSH1 0x4 PUSH2 0x4EF4 JUMP JUMPDEST PUSH2 0x313E JUMP JUMPDEST CALLVALUE DUP1 ISZERO PUSH2 0xD5D JUMPI PUSH0 DUP1 REVERT JUMPDEST POP PUSH1 0x8 SLOAD PUSH2 0xD74 SWAP1 PUSH5 0x100000000 SWAP1 DIV PUSH2 0xFFFF AND DUP2 JUMP JUMPDEST PUSH1 0x40 MLOAD PUSH2 0xFFFF SWAP1 SWAP2 AND DUP2 MSTORE PUSH1 0x20 ADD PUSH2 0x53D JUMP JUMPDEST CALLVALUE DUP1 ISZERO PUSH2 0xD92 JUMPI PUSH0 DUP1 REVERT JUMPDEST POP PUSH2 0x5D4 PUSH2 0xDA1 CALLDATASIZE PUSH1 0x4 PUSH2 0x5349 JUMP JUMPDEST PUSH2 0x31BE JUMP JUMPDEST CALLVALUE DUP1 ISZERO PUSH2 0xDB1 JUMPI PUSH0 DUP1 REVERT JUMPDEST POP PUSH2 0xDEE PUSH2 0xDC0 CALLDATASIZE PUSH1 0x4 PUSH2 0x4EF4 JUMP JUMPDEST PUSH1 0x1E PUSH1 0x20 MSTORE PUSH0 SWAP1 DUP2 MSTORE PUSH1 0x40 SWAP1 KECCAK256 DUP1 SLOAD PUSH1 0x1 DUP3 ADD SLOAD PUSH1 0x2 DUP4 ADD SLOAD PUSH1 0x3 DUP5 ADD SLOAD PUSH1 0x4 SWAP1 SWAP5 ADD SLOAD SWAP3 SWAP4 SWAP2 SWAP3 SWAP1 SWAP2 SWAP1 DUP6 JUMP JUMPDEST PUSH1 0x40 DUP1 MLOAD SWAP6 DUP7 MSTORE PUSH1 0x20 DUP7 ADD SWAP5 SWAP1 SWAP5 MSTORE SWAP3 DUP5 ADD SWAP2 SWAP1 SWAP2 MSTORE PUSH1 0x60 DUP4 ADD MSTORE PUSH1 0x80 DUP3 ADD MSTORE PUSH1 0xA0 ADD PUSH2 0x53D JUMP JUMPDEST CALLVALUE DUP1 ISZERO PUSH2 0xE21 JUMPI PUSH0 DUP1 REVERT JUMPDEST POP PUSH2 0x5D4 PUSH2 0xE30 CALLDATASIZE PUSH1 0x4 PUSH2 0x4EF4 JUMP JUMPDEST PUSH2 0x31E7 JUMP JUMPDEST CALLVALUE DUP1 ISZERO PUSH2 0xE40 JUMPI PUSH0 DUP1 REVERT JUMPDEST POP PUSH2 0x5D4 PUSH2 0xE4F CALLDATASIZE PUSH1 0x4 PUSH2 0x4F3F JUMP JUMPDEST PUSH2 0x31F4 JUMP JUMPDEST CALLVALUE DUP1 ISZERO PUSH2 0xE5F JUMPI PUSH0 DUP1 REVERT JUMPDEST POP PUSH2 0x5D4 PUSH2 0xE6E CALLDATASIZE PUSH1 0x4 PUSH2 0x5364 JUMP JUMPDEST PUSH2 0x3210 JUMP JUMPDEST CALLVALUE DUP1 ISZERO PUSH2 0xE7E JUMPI PUSH0 DUP1 REVERT JUMPDEST POP PUSH2 0x633 PUSH1 0x13 SLOAD DUP2 JUMP JUMPDEST CALLVALUE DUP1 ISZERO PUSH2 0xE93 JUMPI PUSH0 DUP1 REVERT JUMPDEST POP PUSH2 0x633 PUSH1 0x1B SLOAD DUP2 JUMP JUMPDEST CALLVALUE DUP1 ISZERO PUSH2 0xEA8 JUMPI PUSH0 DUP1 REVERT JUMPDEST POP PUSH1 0xA SLOAD PUSH2 0x529 SWAP1 PUSH1 0x1 PUSH1 0x1 PUSH1 0xA0 SHL SUB AND DUP2 JUMP JUMPDEST CALLVALUE DUP1 ISZERO PUSH2 0xEC7 JUMPI PUSH0 DUP1 REVERT JUMPDEST POP PUSH2 0x5D4 PUSH2 0xED6 CALLDATASIZE PUSH1 0x4 PUSH2 0x4F3F JUMP JUMPDEST PUSH2 0x3227 JUMP JUMPDEST CALLVALUE DUP1 ISZERO PUSH2 0xEE6 JUMPI PUSH0 DUP1 REVERT JUMPDEST POP PUSH2 0x589 PUSH2 0xEF5 CALLDATASIZE PUSH1 0x4 PUSH2 0x4EF4 JUMP JUMPDEST PUSH2 0x3392 JUMP JUMPDEST CALLVALUE DUP1 ISZERO PUSH2 0xF05 JUMPI PUSH0 DUP1 REVERT JUMPDEST POP PUSH2 0x5D4 PUSH2 0xF14 CALLDATASIZE PUSH1 0x4 PUSH2 0x5349 JUMP JUMPDEST PUSH2 0x339D JUMP JUMPDEST CALLVALUE DUP1 ISZERO PUSH2 0xF24 JUMPI PUSH0 DUP1 REVERT JUMPDEST POP PUSH1 0xD SLOAD PUSH2 0x565 SWAP1 PUSH1 0x1 PUSH1 0xA0 SHL SWAP1 DIV PUSH1 0xFF AND DUP2 JUMP JUMPDEST CALLVALUE DUP1 ISZERO PUSH2 0xF44 JUMPI PUSH0 DUP1 REVERT JUMPDEST POP PUSH1 0xD SLOAD PUSH2 0x529 SWAP1 PUSH1 0x1 PUSH1 0x1 PUSH1 0xA0 SHL SUB AND DUP2 JUMP JUMPDEST CALLVALUE DUP1 ISZERO PUSH2 0xF63 JUMPI PUSH0 DUP1 REVERT JUMPDEST POP PUSH2 0x633 PUSH2 0xF72 CALLDATASIZE PUSH1 0x4 PUSH2 0x4F26 JUMP JUMPDEST PUSH1 0x19 PUSH1 0x20 MSTORE PUSH0 SWAP1 DUP2 MSTORE PUSH1 0x40 SWAP1 KECCAK256 SLOAD DUP2 JUMP JUMPDEST CALLVALUE DUP1 ISZERO PUSH2 0xF8E JUMPI PUSH0 DUP1 REVERT JUMPDEST POP PUSH2 0x633 PUSH1 0x15 SLOAD DUP2 JUMP JUMPDEST CALLVALUE DUP1 ISZERO PUSH2 0xFA3 JUMPI PUSH0 DUP1 REVERT JUMPDEST POP PUSH2 0x633 PUSH2 0x2710 DUP2 JUMP JUMPDEST CALLVALUE DUP1 ISZERO PUSH2 0xFB8 JUMPI PUSH0 DUP1 REVERT JUMPDEST POP PUSH2 0x565 PUSH2 0xFC7 CALLDATASIZE PUSH1 0x4 PUSH2 0x53C7 JUMP JUMPDEST PUSH2 0x33C3 JUMP JUMPDEST CALLVALUE DUP1 ISZERO PUSH2 0xFD7 JUMPI PUSH0 DUP1 REVERT JUMPDEST POP PUSH2 0x633 PUSH1 0x1C SLOAD DUP2 JUMP JUMPDEST CALLVALUE DUP1 ISZERO PUSH2 0xFEC JUMPI PUSH0 DUP1 REVERT JUMPDEST POP PUSH2 0x5D4 PUSH2 0xFFB CALLDATASIZE PUSH1 0x4 PUSH2 0x4EF4 JUMP JUMPDEST PUSH2 0x340F JUMP JUMPDEST CALLVALUE DUP1 ISZERO PUSH2 0x100B JUMPI PUSH0 DUP1 REVERT JUMPDEST POP PUSH1 0xE SLOAD PUSH2 0x529 SWAP1 PUSH1 0x1 PUSH1 0x1 PUSH1 0xA0 SHL SUB AND DUP2 JUMP JUMPDEST CALLVALUE DUP1 ISZERO PUSH2 0x102A JUMPI PUSH0 DUP1 REVERT JUMPDEST POP PUSH2 0x5D4 PUSH2 0x1039 CALLDATASIZE PUSH1 0x4 PUSH2 0x4F26 JUMP JUMPDEST PUSH2 0x346F JUMP JUMPDEST CALLVALUE DUP1 ISZERO PUSH2 0x1049 JUMPI PUSH0 DUP1 REVERT JUMPDEST POP PUSH2 0x5D4 PUSH2 0x1058 CALLDATASIZE PUSH1 0x4 PUSH2 0x53F8 JUMP JUMPDEST PUSH2 0x34A9 JUMP JUMPDEST CALLVALUE DUP1 ISZERO PUSH2 0x1068 JUMPI PUSH0 DUP1 REVERT JUMPDEST POP PUSH2 0x633 PUSH2 0x1077 CALLDATASIZE PUSH1 0x4 PUSH2 0x4F26 JUMP JUMPDEST PUSH1 0x18 PUSH1 0x20 MSTORE PUSH0 SWAP1 DUP2 MSTORE PUSH1 0x40 SWAP1 KECCAK256 SLOAD DUP2 JUMP JUMPDEST CALLVALUE DUP1 ISZERO PUSH2 0x1093 JUMPI PUSH0 DUP1 REVERT JUMPDEST POP PUSH2 0x633 PUSH1 0x9 SLOAD DUP2 JUMP JUMPDEST CALLVALUE DUP1 ISZERO PUSH2 0x10A8 JUMPI PUSH0 DUP1 REVERT JUMPDEST POP PUSH2 0x633 PUSH1 0x4 SLOAD DUP2 JUMP JUMPDEST PUSH0 PUSH2 0x10BC DUP3 PUSH2 0x34D5 JUMP JUMPDEST SWAP3 SWAP2 POP POP JUMP JUMPDEST PUSH0 DUP1 MLOAD PUSH1 0x20 PUSH2 0x5EFD DUP4 CODECOPY DUP2 MLOAD SWAP2 MSTORE DUP1 SLOAD PUSH1 0x60 SWAP2 SWAP1 DUP2 SWAP1 PUSH2 0x10E1 SWAP1 PUSH2 0x5419 JUMP JUMPDEST DUP1 PUSH1 0x1F ADD PUSH1 0x20 DUP1 SWAP2 DIV MUL PUSH1 0x20 ADD PUSH1 0x40 MLOAD SWAP1 DUP2 ADD PUSH1 0x40 MSTORE DUP1 SWAP3 SWAP2 SWAP1 DUP2 DUP2 MSTORE PUSH1 0x20 ADD DUP3 DUP1 SLOAD PUSH2 0x110D SWAP1 PUSH2 0x5419 JUMP JUMPDEST DUP1 ISZERO PUSH2 0x1158 JUMPI DUP1 PUSH1 0x1F LT PUSH2 0x112F JUMPI PUSH2 0x100 DUP1 DUP4 SLOAD DIV MUL DUP4 MSTORE SWAP2 PUSH1 0x20 ADD SWAP2 PUSH2 0x1158 JUMP JUMPDEST DUP3 ADD SWAP2 SWAP1 PUSH0 MSTORE PUSH1 0x20 PUSH0 KECCAK256 SWAP1 JUMPDEST DUP2 SLOAD DUP2 MSTORE SWAP1 PUSH1 0x1 ADD SWAP1 PUSH1 0x20 ADD DUP1 DUP4 GT PUSH2 0x113B JUMPI DUP3 SWAP1 SUB PUSH1 0x1F AND DUP3 ADD SWAP2 JUMPDEST POP POP POP POP POP SWAP2 POP POP SWAP1 JUMP JUMPDEST PUSH0 PUSH2 0x116D DUP3 PUSH2 0x34F9 JUMP JUMPDEST POP PUSH2 0x10BC DUP3 PUSH2 0x3530 JUMP JUMPDEST PUSH2 0x117F PUSH2 0x3569 JUMP JUMPDEST PUSH1 0x1 PUSH1 0x1 PUSH1 0xA0 SHL SUB DUP2 AND PUSH2 0x11B3 JUMPI PUSH1 0x40 MLOAD PUSH3 0x461BCD PUSH1 0xE5 SHL DUP2 MSTORE PUSH1 0x20 PUSH1 0x4 DUP3 ADD MSTORE PUSH0 PUSH1 0x24 DUP3 ADD MSTORE PUSH1 0x44 ADD JUMPDEST PUSH1 0x40 MLOAD DUP1 SWAP2 SUB SWAP1 REVERT JUMPDEST PUSH1 0xB DUP1 SLOAD PUSH1 0x1 PUSH1 0x1 PUSH1 0xA0 SHL SUB NOT AND PUSH1 0x1 PUSH1 0x1 PUSH1 0xA0 SHL SUB SWAP3 SWAP1 SWAP3 AND SWAP2 SWAP1 SWAP2 OR SWAP1 SSTORE JUMP JUMPDEST PUSH2 0x11E0 DUP3 DUP3 CALLER PUSH2 0x359B JUMP JUMPDEST POP POP JUMP JUMPDEST PUSH2 0x11EC PUSH2 0x3569 JUMP JUMPDEST PUSH1 0x11 SWAP2 SWAP1 SWAP2 SSTORE PUSH1 0x12 SSTORE JUMP JUMPDEST PUSH0 DUP1 PUSH2 0x1203 DUP4 TIMESTAMP PUSH2 0x5465 JUMP JUMPDEST SWAP1 POP PUSH2 0x1212 PUSH3 0x93A80 DUP3 PUSH2 0x548C JUMP JUMPDEST SWAP4 SWAP3 POP POP POP JUMP JUMPDEST PUSH2 0x1221 PUSH2 0x3569 JUMP JUMPDEST PUSH1 0xD DUP1 SLOAD PUSH1 0x1 PUSH1 0x1 PUSH1 0xA0 SHL SUB NOT AND PUSH1 0x1 PUSH1 0x1 PUSH1 0xA0 SHL SUB SWAP3 SWAP1 SWAP3 AND SWAP2 SWAP1 SWAP2 OR SWAP1 SSTORE JUMP JUMPDEST PUSH2 0x124B PUSH2 0x3569 JUMP JUMPDEST PUSH2 0x11E0 DUP3 DUP3 PUSH2 0x35A8 JUMP JUMPDEST PUSH2 0x125D PUSH2 0x361A JUMP JUMPDEST PUSH2 0x1266 DUP2 PUSH2 0x2802 JUMP JUMPDEST PUSH1 0x1 PUSH1 0x1 PUSH1 0xA0 SHL SUB AND CALLER PUSH1 0x1 PUSH1 0x1 PUSH1 0xA0 SHL SUB AND EQ PUSH2 0x129F JUMPI PUSH1 0x40 MLOAD PUSH3 0x461BCD PUSH1 0xE5 SHL DUP2 MSTORE PUSH1 0x20 PUSH1 0x4 DUP3 ADD MSTORE PUSH0 PUSH1 0x24 DUP3 ADD MSTORE PUSH1 0x44 ADD PUSH2 0x11AA JUMP JUMPDEST PUSH1 0xB SLOAD PUSH1 0x40 MLOAD PUSH4 0x9FC2D67 PUSH1 0xE1 SHL DUP2 MSTORE PUSH1 0x4 DUP2 ADD DUP4 SWAP1 MSTORE PUSH0 SWAP2 PUSH1 0x1 PUSH1 0x1 PUSH1 0xA0 SHL SUB AND SWAP1 PUSH4 0x13F85ACE SWAP1 PUSH1 0x24 ADD PUSH1 0xE0 PUSH1 0x40 MLOAD DUP1 DUP4 SUB DUP2 DUP7 GAS STATICCALL ISZERO DUP1 ISZERO PUSH2 0x12E6 JUMPI RETURNDATASIZE PUSH0 DUP1 RETURNDATACOPY RETURNDATASIZE PUSH0 REVERT JUMPDEST POP POP POP POP PUSH1 0x40 MLOAD RETURNDATASIZE PUSH1 0x1F NOT PUSH1 0x1F DUP3 ADD AND DUP3 ADD DUP1 PUSH1 0x40 MSTORE POP DUP2 ADD SWAP1 PUSH2 0x130A SWAP2 SWAP1 PUSH2 0x54FF JUMP JUMPDEST PUSH1 0xB SLOAD PUSH1 0x40 MLOAD PUSH4 0x44F2615 PUSH1 0xE1 SHL DUP2 MSTORE PUSH1 0x4 DUP2 ADD DUP6 SWAP1 MSTORE SWAP2 SWAP3 POP PUSH0 SWAP2 PUSH1 0x1 PUSH1 0x1 PUSH1 0xA0 SHL SUB SWAP1 SWAP2 AND SWAP1 PUSH4 0x89E4C2A SWAP1 PUSH1 0x24 ADD PUSH2 0x120 PUSH1 0x40 MLOAD DUP1 DUP4 SUB DUP2 DUP7 GAS STATICCALL ISZERO DUP1 ISZERO PUSH2 0x1357 JUMPI RETURNDATASIZE PUSH0 DUP1 RETURNDATACOPY RETURNDATASIZE PUSH0 REVERT JUMPDEST POP POP POP POP PUSH1 0x40 MLOAD RETURNDATASIZE PUSH1 0x1F NOT PUSH1 0x1F DUP3 ADD AND DUP3 ADD DUP1 PUSH1 0x40 MSTORE POP DUP2 ADD SWAP1 PUSH2 0x137B SWAP2 SWAP1 PUSH2 0x5590 JUMP JUMPDEST PUSH1 0xB SLOAD PUSH1 0x40 MLOAD PUSH4 0xF61FA453 PUSH1 0xE0 SHL DUP2 MSTORE SWAP2 SWAP3 POP PUSH1 0x1 PUSH1 0x1 PUSH1 0xA0 SHL SUB AND SWAP1 PUSH4 0xF61FA453 SWAP1 PUSH2 0x13AE SWAP1 DUP6 SWAP1 DUP6 SWAP1 PUSH1 0x4 ADD PUSH2 0x5649 JUMP JUMPDEST PUSH2 0x200 PUSH1 0x40 MLOAD DUP1 DUP4 SUB DUP2 PUSH0 DUP8 GAS CALL ISZERO DUP1 ISZERO PUSH2 0x13CB JUMPI RETURNDATASIZE PUSH0 DUP1 RETURNDATACOPY RETURNDATASIZE PUSH0 REVERT JUMPDEST POP POP POP POP PUSH1 0x40 MLOAD RETURNDATASIZE PUSH1 0x1F NOT PUSH1 0x1F DUP3 ADD AND DUP3 ADD DUP1 PUSH1 0x40 MSTORE POP DUP2 ADD SWAP1 PUSH2 0x13EF SWAP2 SWAP1 PUSH2 0x5665 JUMP JUMPDEST SWAP1 SWAP3 POP SWAP1 POP PUSH0 PUSH2 0x13FE DUP5 PUSH2 0x2802 JUMP JUMPDEST SWAP1 POP DUP3 PUSH1 0xC0 ADD MLOAD PUSH1 0x3 EQ PUSH2 0x142D JUMPI PUSH1 0x40 MLOAD PUSH3 0x461BCD PUSH1 0xE5 SHL DUP2 MSTORE PUSH1 0x20 PUSH1 0x4 DUP3 ADD MSTORE PUSH0 PUSH1 0x24 DUP3 ADD MSTORE PUSH1 0x44 ADD PUSH2 0x11AA JUMP JUMPDEST PUSH1 0x1 PUSH1 0xC0 DUP5 ADD MSTORE PUSH1 0xC SLOAD PUSH1 0x40 MLOAD PUSH4 0x66A240F PUSH1 0xE2 SHL DUP2 MSTORE PUSH1 0x4 DUP2 ADD DUP7 SWAP1 MSTORE PUSH0 SWAP2 PUSH1 0x1 PUSH1 0x1 PUSH1 0xA0 SHL SUB AND SWAP1 PUSH4 0x19A8903C SWAP1 PUSH1 0x24 ADD PUSH1 0x20 PUSH1 0x40 MLOAD DUP1 DUP4 SUB DUP2 DUP7 GAS STATICCALL ISZERO DUP1 ISZERO PUSH2 0x147B JUMPI RETURNDATASIZE PUSH0 DUP1 RETURNDATACOPY RETURNDATASIZE PUSH0 REVERT JUMPDEST POP POP POP POP PUSH1 0x40 MLOAD RETURNDATASIZE PUSH1 0x1F NOT PUSH1 0x1F DUP3 ADD AND DUP3 ADD DUP1 PUSH1 0x40 MSTORE POP DUP2 ADD SWAP1 PUSH2 0x149F SWAP2 SWAP1 PUSH2 0x5690 JUMP JUMPDEST PUSH1 0xC SLOAD SWAP1 SWAP2 POP PUSH0 SWAP1 PUSH1 0x1 PUSH1 0x1 PUSH1 0xA0 SHL SUB AND PUSH4 0x9649F75E DUP8 PUSH2 0x14C1 PUSH1 0x1 DUP7 PUSH2 0x5465 JUMP JUMPDEST PUSH2 0x14CC PUSH1 0x1 DUP8 PUSH2 0x5465 JUMP JUMPDEST PUSH1 0x40 MLOAD PUSH1 0x1 PUSH1 0x1 PUSH1 0xE0 SHL SUB NOT PUSH1 0xE0 DUP7 SWAP1 SHL AND DUP2 MSTORE PUSH1 0x4 DUP2 ADD SWAP4 SWAP1 SWAP4 MSTORE PUSH1 0x24 DUP4 ADD SWAP2 SWAP1 SWAP2 MSTORE PUSH1 0x44 DUP3 ADD MSTORE PUSH1 0x64 ADD PUSH0 PUSH1 0x40 MLOAD DUP1 DUP4 SUB DUP2 DUP7 GAS STATICCALL ISZERO DUP1 ISZERO PUSH2 0x1512 JUMPI RETURNDATASIZE PUSH0 DUP1 RETURNDATACOPY RETURNDATASIZE PUSH0 REVERT JUMPDEST POP POP POP POP PUSH1 0x40 MLOAD RETURNDATASIZE PUSH0 DUP3 RETURNDATACOPY PUSH1 0x1F RETURNDATASIZE SWAP1 DUP2 ADD PUSH1 0x1F NOT AND DUP3 ADD PUSH1 0x40 MSTORE PUSH2 0x1539 SWAP2 SWAP1 DUP2 ADD SWAP1 PUSH2 0x57B6 JUMP JUMPDEST PUSH0 DUP2 MLOAD DUP2 LT PUSH2 0x154A JUMPI PUSH2 0x154A PUSH2 0x5935 JUMP JUMPDEST PUSH1 0x20 MUL PUSH1 0x20 ADD ADD MLOAD SWAP1 POP PUSH0 DUP3 GT PUSH2 0x157C JUMPI PUSH1 0x40 MLOAD PUSH3 0x461BCD PUSH1 0xE5 SHL DUP2 MSTORE PUSH1 0x20 PUSH1 0x4 DUP3 ADD MSTORE PUSH0 PUSH1 0x24 DUP3 ADD MSTORE PUSH1 0x44 ADD PUSH2 0x11AA JUMP JUMPDEST DUP1 PUSH2 0x100 ADD MLOAD PUSH1 0x2 EQ PUSH2 0x15AA JUMPI PUSH1 0x40 MLOAD PUSH3 0x461BCD PUSH1 0xE5 SHL DUP2 MSTORE PUSH1 0x20 PUSH1 0x4 DUP3 ADD MSTORE PUSH0 PUSH1 0x24 DUP3 ADD MSTORE PUSH1 0x44 ADD PUSH2 0x11AA JUMP JUMPDEST PUSH1 0xC0 DUP2 ADD MLOAD ISZERO PUSH2 0x15D5 JUMPI PUSH1 0x40 MLOAD PUSH3 0x461BCD PUSH1 0xE5 SHL DUP2 MSTORE PUSH1 0x20 PUSH1 0x4 DUP3 ADD MSTORE PUSH0 PUSH1 0x24 DUP3 ADD MSTORE PUSH1 0x44 ADD PUSH2 0x11AA JUMP JUMPDEST PUSH2 0x140 DUP2 ADD MLOAD PUSH0 SWAP1 DUP2 MSTORE PUSH1 0x2 PUSH1 0x20 MSTORE PUSH1 0x40 SWAP1 KECCAK256 SLOAD PUSH1 0xFF AND PUSH2 0x1611 JUMPI PUSH1 0x40 MLOAD PUSH3 0x461BCD PUSH1 0xE5 SHL DUP2 MSTORE PUSH1 0x20 PUSH1 0x4 DUP3 ADD MSTORE PUSH0 PUSH1 0x24 DUP3 ADD MSTORE PUSH1 0x44 ADD PUSH2 0x11AA JUMP JUMPDEST PUSH0 PUSH1 0x3C DUP3 PUSH1 0xA0 ADD MLOAD DUP4 PUSH1 0xE0 ADD MLOAD PUSH2 0x1628 SWAP2 SWAP1 PUSH2 0x5465 JUMP JUMPDEST PUSH2 0x1632 SWAP2 SWAP1 PUSH2 0x548C JUMP JUMPDEST SWAP1 POP PUSH0 DUP2 GT PUSH2 0x165C JUMPI PUSH1 0x40 MLOAD PUSH3 0x461BCD PUSH1 0xE5 SHL DUP2 MSTORE PUSH1 0x20 PUSH1 0x4 DUP3 ADD MSTORE PUSH0 PUSH1 0x24 DUP3 ADD MSTORE PUSH1 0x44 ADD PUSH2 0x11AA JUMP JUMPDEST PUSH2 0x140 DUP3 ADD MLOAD PUSH0 SWAP1 DUP2 MSTORE PUSH1 0x2 PUSH1 0x20 MSTORE PUSH1 0x40 DUP2 KECCAK256 PUSH1 0x1 ADD DUP1 SLOAD PUSH2 0x2711 SWAP2 SWAP1 DUP4 SWAP1 PUSH2 0x1687 JUMPI PUSH2 0x1687 PUSH2 0x5935 JUMP JUMPDEST SWAP1 PUSH0 MSTORE PUSH1 0x20 PUSH0 KECCAK256 ADD SLOAD PUSH2 0x169A SWAP2 SWAP1 PUSH2 0x5949 JUMP JUMPDEST SWAP1 POP DUP3 PUSH1 0x40 ADD MLOAD PUSH1 0x20 ADD MLOAD PUSH0 EQ ISZERO DUP1 ISZERO PUSH2 0x16BC JUMPI POP DUP3 PUSH1 0x40 ADD MLOAD PUSH1 0x80 ADD MLOAD DUP2 GT ISZERO JUMPDEST ISZERO PUSH2 0x1791 JUMPI PUSH2 0x2710 DUP4 PUSH1 0x40 ADD MLOAD PUSH1 0xC0 ADD MLOAD DUP4 PUSH2 0x16D8 SWAP2 SWAP1 PUSH2 0x595C JUMP JUMPDEST PUSH2 0x16E4 SWAP1 PUSH2 0x3E8 PUSH2 0x595C JUMP JUMPDEST PUSH2 0x16EE SWAP2 SWAP1 PUSH2 0x548C JUMP JUMPDEST PUSH2 0x120 DUP5 ADD MSTORE PUSH1 0x80 DUP7 ADD MLOAD PUSH0 SWAP1 PUSH2 0x1704 SWAP1 PUSH2 0x11F7 JUMP JUMPDEST SWAP1 POP PUSH2 0x2710 PUSH1 0x17 SLOAD DUP3 PUSH2 0x1717 SWAP2 SWAP1 PUSH2 0x595C JUMP JUMPDEST PUSH2 0x1723 SWAP1 PUSH2 0x3E8 PUSH2 0x595C JUMP JUMPDEST PUSH2 0x172D SWAP2 SWAP1 PUSH2 0x548C JUMP JUMPDEST DUP5 PUSH2 0x120 ADD DUP2 DUP2 MLOAD PUSH2 0x173F SWAP2 SWAP1 PUSH2 0x5973 JUMP JUMPDEST SWAP1 MSTORE POP PUSH1 0x5 PUSH2 0x100 DUP6 ADD MSTORE DUP7 MLOAD ISZERO PUSH2 0x1765 JUMPI PUSH1 0x20 DUP8 ADD DUP1 MLOAD SWAP1 PUSH2 0x1761 DUP3 PUSH2 0x5986 JUMP JUMPDEST SWAP1 MSTORE POP JUMPDEST PUSH1 0x20 DUP8 ADD MLOAD ISZERO DUP1 ISZERO PUSH2 0x1777 JUMPI POP DUP7 MLOAD ISZERO ISZERO JUMPDEST ISZERO PUSH2 0x178B JUMPI PUSH0 PUSH1 0xC0 DUP10 ADD MSTORE PUSH2 0x178B DUP10 PUSH2 0x1D65 JUMP JUMPDEST POP PUSH2 0x18A4 JUMP JUMPDEST PUSH1 0x40 DUP4 ADD MLOAD PUSH1 0x80 DUP2 ADD MLOAD PUSH1 0xA0 SWAP1 SWAP2 ADD MLOAD PUSH2 0x17AB SWAP2 SWAP1 PUSH2 0x5973 JUMP JUMPDEST PUSH2 0x17B7 SWAP1 PUSH2 0x2710 PUSH2 0x5465 JUMP JUMPDEST DUP2 GT PUSH2 0x184C JUMPI PUSH2 0x2710 DUP4 PUSH1 0x40 ADD MLOAD PUSH1 0xC0 ADD MLOAD DUP4 PUSH2 0x17D4 SWAP2 SWAP1 PUSH2 0x595C JUMP JUMPDEST PUSH2 0x17E0 SWAP1 PUSH2 0x3E8 PUSH2 0x595C JUMP JUMPDEST PUSH2 0x17EA SWAP2 SWAP1 PUSH2 0x548C JUMP JUMPDEST PUSH2 0x120 DUP5 ADD MSTORE PUSH1 0x80 DUP7 ADD MLOAD PUSH0 SWAP1 PUSH2 0x1800 SWAP1 PUSH2 0x11F7 JUMP JUMPDEST SWAP1 POP PUSH2 0x2710 PUSH1 0x17 SLOAD DUP3 PUSH2 0x1813 SWAP2 SWAP1 PUSH2 0x595C JUMP JUMPDEST PUSH2 0x181F SWAP1 PUSH2 0x3E8 PUSH2 0x595C JUMP JUMPDEST PUSH2 0x1829 SWAP2 SWAP1 PUSH2 0x548C JUMP JUMPDEST DUP5 PUSH2 0x120 ADD DUP2 DUP2 MLOAD PUSH2 0x183B SWAP2 SWAP1 PUSH2 0x5973 JUMP JUMPDEST SWAP1 MSTORE POP POP PUSH1 0x4 PUSH2 0x100 DUP5 ADD MSTORE PUSH2 0x18A4 JUMP JUMPDEST PUSH1 0x40 DUP4 ADD MLOAD PUSH1 0xC0 ADD MLOAD PUSH2 0x185F SWAP1 DUP4 PUSH2 0x595C JUMP JUMPDEST PUSH2 0x120 DUP5 ADD MSTORE PUSH1 0x80 DUP7 ADD MLOAD PUSH0 SWAP1 PUSH2 0x1875 SWAP1 PUSH2 0x11F7 JUMP JUMPDEST SWAP1 POP PUSH1 0x17 SLOAD DUP2 PUSH2 0x1885 SWAP2 SWAP1 PUSH2 0x595C JUMP JUMPDEST DUP5 PUSH2 0x120 ADD DUP2 DUP2 MLOAD PUSH2 0x1897 SWAP2 SWAP1 PUSH2 0x5973 JUMP JUMPDEST SWAP1 MSTORE POP POP PUSH1 0x3 PUSH2 0x100 DUP5 ADD MSTORE JUMPDEST TIMESTAMP PUSH1 0xC0 DUP5 ADD MSTORE PUSH2 0x120 DUP4 ADD MLOAD PUSH1 0x1B SLOAD PUSH0 SWAP1 DUP2 MSTORE PUSH1 0x1A PUSH1 0x20 MSTORE PUSH1 0x40 DUP2 KECCAK256 DUP1 SLOAD SWAP1 SWAP2 SWAP1 PUSH2 0x18D0 SWAP1 DUP5 SWAP1 PUSH2 0x5973 JUMP JUMPDEST SWAP1 SWAP2 SSTORE POP POP PUSH2 0x120 DUP4 ADD MLOAD PUSH1 0x1 PUSH1 0x1 PUSH1 0xA0 SHL SUB DUP7 AND PUSH0 SWAP1 DUP2 MSTORE PUSH1 0x18 PUSH1 0x20 MSTORE PUSH1 0x40 DUP2 KECCAK256 DUP1 SLOAD SWAP1 SWAP2 SWAP1 PUSH2 0x1902 SWAP1 DUP5 SWAP1 PUSH2 0x5973 JUMP JUMPDEST SWAP1 SWAP2 SSTORE POP POP PUSH2 0x140 DUP4 ADD MLOAD PUSH0 SWAP1 DUP2 MSTORE PUSH1 0x2 PUSH1 0x20 SWAP1 DUP2 MSTORE PUSH1 0x40 SWAP2 DUP3 SWAP1 KECCAK256 PUSH1 0x1 ADD DUP1 SLOAD DUP4 MLOAD DUP2 DUP5 MUL DUP2 ADD DUP5 ADD SWAP1 SWAP5 MSTORE DUP1 DUP5 MSTORE SWAP1 SWAP2 DUP4 ADD DUP3 DUP3 DUP1 ISZERO PUSH2 0x1961 JUMPI PUSH1 0x20 MUL DUP3 ADD SWAP2 SWAP1 PUSH0 MSTORE PUSH1 0x20 PUSH0 KECCAK256 SWAP1 JUMPDEST DUP2 SLOAD DUP2 MSTORE PUSH1 0x20 ADD SWAP1 PUSH1 0x1 ADD SWAP1 DUP1 DUP4 GT PUSH2 0x194D JUMPI JUMPDEST POP POP POP POP POP DUP4 PUSH2 0x160 ADD DUP2 SWAP1 MSTORE POP PUSH0 DUP1 JUMPDEST PUSH1 0x1D SLOAD DUP2 LT ISZERO PUSH2 0x19BF JUMPI DUP7 PUSH1 0x1 PUSH1 0x1 PUSH1 0xA0 SHL SUB AND PUSH1 0x1D DUP3 DUP2 SLOAD DUP2 LT PUSH2 0x1999 JUMPI PUSH2 0x1999 PUSH2 0x5935 JUMP JUMPDEST PUSH0 SWAP2 DUP3 MSTORE PUSH1 0x20 SWAP1 SWAP2 KECCAK256 ADD SLOAD PUSH1 0x1 PUSH1 0x1 PUSH1 0xA0 SHL SUB AND SUB PUSH2 0x19B7 JUMPI PUSH1 0x1 SWAP2 POP JUMPDEST PUSH1 0x1 ADD PUSH2 0x1972 JUMP JUMPDEST POP DUP1 PUSH2 0x1A10 JUMPI PUSH1 0x1D DUP1 SLOAD PUSH1 0x1 DUP2 ADD DUP3 SSTORE PUSH0 SWAP2 SWAP1 SWAP2 MSTORE PUSH32 0x6D4407E7BE21F808E6509AA9FA9143369579DD7D760FE20A2C09680FC146134F ADD DUP1 SLOAD PUSH1 0x1 PUSH1 0x1 PUSH1 0xA0 SHL SUB NOT AND PUSH1 0x1 PUSH1 0x1 PUSH1 0xA0 SHL SUB DUP9 AND OR SWAP1 SSTORE JUMPDEST PUSH1 0xB SLOAD PUSH1 0x40 MLOAD PUSH4 0xF6CAC63F PUSH1 0xE0 SHL DUP2 MSTORE PUSH1 0x1 PUSH1 0x1 PUSH1 0xA0 SHL SUB SWAP1 SWAP2 AND SWAP1 PUSH4 0xF6CAC63F SWAP1 PUSH2 0x1A44 SWAP1 DUP13 SWAP1 DUP13 SWAP1 DUP13 SWAP1 PUSH1 0x4 ADD PUSH2 0x599B JUMP JUMPDEST PUSH0 PUSH1 0x40 MLOAD DUP1 DUP4 SUB DUP2 PUSH0 DUP8 DUP1 EXTCODESIZE ISZERO DUP1 ISZERO PUSH2 0x1A5B JUMPI PUSH0 DUP1 REVERT JUMPDEST POP GAS CALL ISZERO DUP1 ISZERO PUSH2 0x1A6D JUMPI RETURNDATASIZE PUSH0 DUP1 RETURNDATACOPY RETURNDATASIZE PUSH0 REVERT JUMPDEST POP POP PUSH1 0xC SLOAD PUSH1 0x1 PUSH1 0x1 PUSH1 0xA0 SHL SUB AND SWAP2 POP PUSH4 0x6BF5D216 SWAP1 POP DUP11 PUSH2 0x1A90 PUSH1 0x1 DUP10 PUSH2 0x5465 JUMP JUMPDEST DUP8 PUSH1 0x40 MLOAD DUP5 PUSH4 0xFFFFFFFF AND PUSH1 0xE0 SHL DUP2 MSTORE PUSH1 0x4 ADD PUSH2 0x1AAF SWAP4 SWAP3 SWAP2 SWAP1 PUSH2 0x5A32 JUMP JUMPDEST PUSH0 PUSH1 0x40 MLOAD DUP1 DUP4 SUB DUP2 PUSH0 DUP8 DUP1 EXTCODESIZE ISZERO DUP1 ISZERO PUSH2 0x1AC6 JUMPI PUSH0 DUP1 REVERT JUMPDEST POP GAS CALL ISZERO DUP1 ISZERO PUSH2 0x1AD8 JUMPI RETURNDATASIZE PUSH0 DUP1 RETURNDATACOPY RETURNDATASIZE PUSH0 REVERT JUMPDEST POP POP POP POP POP POP POP POP POP POP POP POP POP JUMP JUMPDEST PUSH1 0x5 SLOAD PUSH1 0x1 PUSH1 0x1 PUSH1 0xA0 SHL SUB AND CALLER EQ PUSH2 0x1B34 JUMPI PUSH1 0x40 MLOAD PUSH3 0x461BCD PUSH1 0xE5 SHL DUP2 MSTORE PUSH1 0x20 PUSH1 0x4 DUP3 ADD MSTORE PUSH1 0x10 PUSH1 0x24 DUP3 ADD MSTORE PUSH16 0x27B7363C9021B7B7B93234B730BA37B9 PUSH1 0x81 SHL PUSH1 0x44 DUP3 ADD MSTORE PUSH1 0x64 ADD PUSH2 0x11AA JUMP JUMPDEST PUSH2 0x11E0 DUP3 DUP3 PUSH2 0x364A JUMP JUMPDEST PUSH1 0x1 PUSH1 0x1 PUSH1 0xA0 SHL SUB DUP3 AND PUSH2 0x1B67 JUMPI PUSH1 0x40 MLOAD PUSH4 0x32505749 PUSH1 0xE1 SHL DUP2 MSTORE PUSH0 PUSH1 0x4 DUP3 ADD MSTORE PUSH1 0x24 ADD PUSH2 0x11AA JUMP JUMPDEST PUSH0 PUSH2 0x1B73 DUP4 DUP4 CALLER PUSH2 0x36B5 JUMP JUMPDEST SWAP1 POP DUP4 PUSH1 0x1 PUSH1 0x1 PUSH1 0xA0 SHL SUB AND DUP2 PUSH1 0x1 PUSH1 0x1 PUSH1 0xA0 SHL SUB AND EQ PUSH2 0x1BC1 JUMPI PUSH1 0x40 MLOAD PUSH4 0x64283D7B PUSH1 0xE0 SHL DUP2 MSTORE PUSH1 0x1 PUSH1 0x1 PUSH1 0xA0 SHL SUB DUP1 DUP7 AND PUSH1 0x4 DUP4 ADD MSTORE PUSH1 0x24 DUP3 ADD DUP5 SWAP1 MSTORE DUP3 AND PUSH1 0x44 DUP3 ADD MSTORE PUSH1 0x64 ADD PUSH2 0x11AA JUMP JUMPDEST POP POP POP POP JUMP JUMPDEST PUSH2 0x1BCF PUSH2 0x3569 JUMP JUMPDEST PUSH1 0x17 SSTORE JUMP JUMPDEST PUSH2 0x1BDC PUSH2 0x3569 JUMP JUMPDEST PUSH1 0x7 SSTORE JUMP JUMPDEST PUSH0 PUSH0 DUP1 MLOAD PUSH1 0x20 PUSH2 0x5EDD DUP4 CODECOPY DUP2 MLOAD SWAP2 MSTORE PUSH2 0x1BF9 DUP5 PUSH2 0x286F JUMP JUMPDEST DUP4 LT PUSH2 0x1C2A JUMPI PUSH1 0x40 MLOAD PUSH4 0x295F44F7 PUSH1 0xE2 SHL DUP2 MSTORE PUSH1 0x1 PUSH1 0x1 PUSH1 0xA0 SHL SUB DUP6 AND PUSH1 0x4 DUP3 ADD MSTORE PUSH1 0x24 DUP2 ADD DUP5 SWAP1 MSTORE PUSH1 0x44 ADD PUSH2 0x11AA JUMP JUMPDEST PUSH1 0x1 PUSH1 0x1 PUSH1 0xA0 SHL SUB DUP5 AND PUSH0 SWAP1 DUP2 MSTORE PUSH1 0x20 SWAP2 DUP3 MSTORE PUSH1 0x40 DUP1 DUP3 KECCAK256 DUP6 DUP4 MSTORE SWAP1 SWAP3 MSTORE KECCAK256 SLOAD SWAP1 POP SWAP3 SWAP2 POP POP JUMP JUMPDEST PUSH2 0x1C5A PUSH2 0x3569 JUMP JUMPDEST PUSH1 0xA DUP1 SLOAD PUSH1 0x1 PUSH1 0x1 PUSH1 0xA0 SHL SUB NOT AND PUSH1 0x1 PUSH1 0x1 PUSH1 0xA0 SHL SUB SWAP3 SWAP1 SWAP3 AND SWAP2 SWAP1 SWAP2 OR SWAP1 SSTORE JUMP JUMPDEST PUSH2 0x1C84 PUSH2 0x3569 JUMP JUMPDEST PUSH1 0x1 PUSH1 0x1 PUSH1 0xA0 SHL SUB DUP4 AND PUSH2 0x1CB3 JUMPI PUSH1 0x40 MLOAD PUSH3 0x461BCD PUSH1 0xE5 SHL DUP2 MSTORE PUSH1 0x20 PUSH1 0x4 DUP3 ADD MSTORE PUSH0 PUSH1 0x24 DUP3 ADD MSTORE PUSH1 0x44 ADD PUSH2 0x11AA JUMP JUMPDEST PUSH1 0x1 PUSH1 0x1 PUSH1 0xA0 SHL SUB DUP3 AND PUSH2 0x1CE2 JUMPI PUSH1 0x40 MLOAD PUSH3 0x461BCD PUSH1 0xE5 SHL DUP2 MSTORE PUSH1 0x20 PUSH1 0x4 DUP3 ADD MSTORE PUSH0 PUSH1 0x24 DUP3 ADD MSTORE PUSH1 0x44 ADD PUSH2 0x11AA JUMP JUMPDEST PUSH1 0x1 PUSH1 0x1 PUSH1 0xA0 SHL SUB DUP2 AND PUSH2 0x1D11 JUMPI PUSH1 0x40 MLOAD PUSH3 0x461BCD PUSH1 0xE5 SHL DUP2 MSTORE PUSH1 0x20 PUSH1 0x4 DUP3 ADD MSTORE PUSH0 PUSH1 0x24 DUP3 ADD MSTORE PUSH1 0x44 ADD PUSH2 0x11AA JUMP JUMPDEST PUSH1 0xF DUP1 SLOAD PUSH1 0x1 PUSH1 0x1 PUSH1 0xA0 SHL SUB SWAP5 DUP6 AND PUSH1 0x1 PUSH1 0x1 PUSH1 0xA0 SHL SUB NOT SWAP2 DUP3 AND OR SWAP1 SWAP2 SSTORE PUSH1 0xE DUP1 SLOAD SWAP4 DUP6 AND SWAP4 DUP3 AND SWAP4 SWAP1 SWAP4 OR SWAP1 SWAP3 SSTORE PUSH1 0x10 DUP1 SLOAD SWAP2 SWAP1 SWAP4 AND SWAP2 AND OR SWAP1 SSTORE JUMP JUMPDEST PUSH2 0x1D58 PUSH2 0x3569 JUMP JUMPDEST PUSH1 0x1B SSTORE JUMP JUMPDEST PUSH2 0x1D65 PUSH2 0x3569 JUMP JUMPDEST PUSH2 0x1D6E DUP2 PUSH2 0x3840 JUMP JUMPDEST POP JUMP JUMPDEST PUSH2 0x1D79 PUSH2 0x3569 JUMP JUMPDEST PUSH2 0x1D81 PUSH2 0x3878 JUMP JUMPDEST JUMP JUMPDEST PUSH0 PUSH1 0x60 PUSH1 0x1 PUSH1 0x1 PUSH1 0xA0 SHL SUB DUP4 AND PUSH2 0x1DB5 JUMPI PUSH1 0x40 MLOAD PUSH3 0x461BCD PUSH1 0xE5 SHL DUP2 MSTORE PUSH1 0x20 PUSH1 0x4 DUP3 ADD MSTORE PUSH0 PUSH1 0x24 DUP3 ADD MSTORE PUSH1 0x44 ADD PUSH2 0x11AA JUMP JUMPDEST PUSH2 0x1DBE DUP4 PUSH2 0x286F JUMP JUMPDEST SWAP2 POP DUP2 PUSH1 0x1 PUSH1 0x1 PUSH1 0x40 SHL SUB DUP2 GT ISZERO PUSH2 0x1DD8 JUMPI PUSH2 0x1DD8 PUSH2 0x4F87 JUMP JUMPDEST PUSH1 0x40 MLOAD SWAP1 DUP1 DUP3 MSTORE DUP1 PUSH1 0x20 MUL PUSH1 0x20 ADD DUP3 ADD PUSH1 0x40 MSTORE DUP1 ISZERO PUSH2 0x1E01 JUMPI DUP2 PUSH1 0x20 ADD PUSH1 0x20 DUP3 MUL DUP1 CALLDATASIZE DUP4 CALLDATACOPY ADD SWAP1 POP JUMPDEST POP SWAP1 POP PUSH0 JUMPDEST DUP3 DUP2 LT ISZERO PUSH2 0x1E3D JUMPI PUSH2 0x1E18 DUP5 DUP3 PUSH2 0x1BE1 JUMP JUMPDEST DUP3 DUP3 DUP2 MLOAD DUP2 LT PUSH2 0x1E2A JUMPI PUSH2 0x1E2A PUSH2 0x5935 JUMP JUMPDEST PUSH1 0x20 SWAP1 DUP2 MUL SWAP2 SWAP1 SWAP2 ADD ADD MSTORE PUSH1 0x1 ADD PUSH2 0x1E06 JUMP JUMPDEST POP SWAP2 POP SWAP2 JUMP JUMPDEST PUSH2 0x1E5D DUP4 DUP4 DUP4 PUSH1 0x40 MLOAD DUP1 PUSH1 0x20 ADD PUSH1 0x40 MSTORE DUP1 PUSH0 DUP2 MSTORE POP PUSH2 0x3210 JUMP JUMPDEST POP POP POP JUMP JUMPDEST PUSH2 0x11E0 PUSH0 DUP3 CALLER PUSH2 0x36B5 JUMP JUMPDEST PUSH2 0x1E75 PUSH2 0x361A JUMP JUMPDEST PUSH1 0x9 SLOAD CALLVALUE EQ PUSH2 0x1E9F JUMPI PUSH1 0x40 MLOAD PUSH3 0x461BCD PUSH1 0xE5 SHL DUP2 MSTORE PUSH1 0x20 PUSH1 0x4 DUP3 ADD MSTORE PUSH0 PUSH1 0x24 DUP3 ADD MSTORE PUSH1 0x44 ADD PUSH2 0x11AA JUMP JUMPDEST PUSH1 0xE SLOAD PUSH1 0x1 PUSH1 0x1 PUSH1 0xA0 SHL SUB AND PUSH2 0x1ED0 JUMPI PUSH1 0x40 MLOAD PUSH3 0x461BCD PUSH1 0xE5 SHL DUP2 MSTORE PUSH1 0x20 PUSH1 0x4 DUP3 ADD MSTORE PUSH0 PUSH1 0x24 DUP3 ADD MSTORE PUSH1 0x44 ADD PUSH2 0x11AA JUMP JUMPDEST PUSH1 0xE SLOAD PUSH1 0x9 SLOAD PUSH1 0x40 MLOAD PUSH0 SWAP3 PUSH1 0x1 PUSH1 0x1 PUSH1 0xA0 SHL SUB AND SWAP2 SWAP1 DUP4 DUP2 DUP2 DUP2 DUP6 DUP8 GAS CALL SWAP3 POP POP POP RETURNDATASIZE DUP1 PUSH0 DUP2 EQ PUSH2 0x1F1C JUMPI PUSH1 0x40 MLOAD SWAP2 POP PUSH1 0x1F NOT PUSH1 0x3F RETURNDATASIZE ADD AND DUP3 ADD PUSH1 0x40 MSTORE RETURNDATASIZE DUP3 MSTORE RETURNDATASIZE PUSH0 PUSH1 0x20 DUP5 ADD RETURNDATACOPY PUSH2 0x1F21 JUMP JUMPDEST PUSH1 0x60 SWAP2 POP JUMPDEST POP POP SWAP1 POP DUP1 PUSH2 0x1F4B JUMPI PUSH1 0x40 MLOAD PUSH3 0x461BCD PUSH1 0xE5 SHL DUP2 MSTORE PUSH1 0x20 PUSH1 0x4 DUP3 ADD MSTORE PUSH0 PUSH1 0x24 DUP3 ADD MSTORE PUSH1 0x44 ADD PUSH2 0x11AA JUMP JUMPDEST PUSH2 0x1F54 DUP3 PUSH2 0x2802 JUMP JUMPDEST PUSH1 0x1 PUSH1 0x1 PUSH1 0xA0 SHL SUB AND CALLER PUSH1 0x1 PUSH1 0x1 PUSH1 0xA0 SHL SUB AND EQ PUSH2 0x1F8D JUMPI PUSH1 0x40 MLOAD PUSH3 0x461BCD PUSH1 0xE5 SHL DUP2 MSTORE PUSH1 0x20 PUSH1 0x4 DUP3 ADD MSTORE PUSH0 PUSH1 0x24 DUP3 ADD MSTORE PUSH1 0x44 ADD PUSH2 0x11AA JUMP JUMPDEST PUSH1 0xC SLOAD PUSH1 0x40 MLOAD PUSH4 0x66A240F PUSH1 0xE2 SHL DUP2 MSTORE PUSH1 0x4 DUP2 ADD DUP5 SWAP1 MSTORE PUSH0 SWAP2 PUSH1 0x1 PUSH1 0x1 PUSH1 0xA0 SHL SUB AND SWAP1 PUSH4 0x19A8903C SWAP1 PUSH1 0x24 ADD PUSH1 0x20 PUSH1 0x40 MLOAD DUP1 DUP4 SUB DUP2 DUP7 GAS STATICCALL ISZERO DUP1 ISZERO PUSH2 0x1FD4 JUMPI RETURNDATASIZE PUSH0 DUP1 RETURNDATACOPY RETURNDATASIZE PUSH0 REVERT JUMPDEST POP POP POP POP PUSH1 0x40 MLOAD RETURNDATASIZE PUSH1 0x1F NOT PUSH1 0x1F DUP3 ADD AND DUP3 ADD DUP1 PUSH1 0x40 MSTORE POP DUP2 ADD SWAP1 PUSH2 0x1FF8 SWAP2 SWAP1 PUSH2 0x5690 JUMP JUMPDEST SWAP1 POP PUSH0 DUP2 GT PUSH2 0x2022 JUMPI PUSH1 0x40 MLOAD PUSH3 0x461BCD PUSH1 0xE5 SHL DUP2 MSTORE PUSH1 0x20 PUSH1 0x4 DUP3 ADD MSTORE PUSH0 PUSH1 0x24 DUP3 ADD MSTORE PUSH1 0x44 ADD PUSH2 0x11AA JUMP JUMPDEST PUSH1 0xB SLOAD PUSH1 0x40 MLOAD PUSH4 0x9FC2D67 PUSH1 0xE1 SHL DUP2 MSTORE PUSH1 0x4 DUP2 ADD DUP6 SWAP1 MSTORE PUSH0 SWAP2 PUSH1 0x1 PUSH1 0x1 PUSH1 0xA0 SHL SUB AND SWAP1 PUSH4 0x13F85ACE SWAP1 PUSH1 0x24 ADD PUSH1 0xE0 PUSH1 0x40 MLOAD DUP1 DUP4 SUB DUP2 DUP7 GAS STATICCALL ISZERO DUP1 ISZERO PUSH2 0x2069 JUMPI RETURNDATASIZE PUSH0 DUP1 RETURNDATACOPY RETURNDATASIZE PUSH0 REVERT JUMPDEST POP POP POP POP PUSH1 0x40 MLOAD RETURNDATASIZE PUSH1 0x1F NOT PUSH1 0x1F DUP3 ADD AND DUP3 ADD DUP1 PUSH1 0x40 MSTORE POP DUP2 ADD SWAP1 PUSH2 0x208D SWAP2 SWAP1 PUSH2 0x54FF JUMP JUMPDEST PUSH1 0xB SLOAD PUSH1 0x40 MLOAD PUSH4 0x44F2615 PUSH1 0xE1 SHL DUP2 MSTORE PUSH1 0x4 DUP2 ADD DUP8 SWAP1 MSTORE SWAP2 SWAP3 POP PUSH0 SWAP2 PUSH1 0x1 PUSH1 0x1 PUSH1 0xA0 SHL SUB SWAP1 SWAP2 AND SWAP1 PUSH4 0x89E4C2A SWAP1 PUSH1 0x24 ADD PUSH2 0x120 PUSH1 0x40 MLOAD DUP1 DUP4 SUB DUP2 DUP7 GAS STATICCALL ISZERO DUP1 ISZERO PUSH2 0x20DA JUMPI RETURNDATASIZE PUSH0 DUP1 RETURNDATACOPY RETURNDATASIZE PUSH0 REVERT JUMPDEST POP POP POP POP PUSH1 0x40 MLOAD RETURNDATASIZE PUSH1 0x1F NOT PUSH1 0x1F DUP3 ADD AND DUP3 ADD DUP1 PUSH1 0x40 MSTORE POP DUP2 ADD SWAP1 PUSH2 0x20FE SWAP2 SWAP1 PUSH2 0x5590 JUMP JUMPDEST SWAP1 POP DUP2 PUSH1 0xC0 ADD MLOAD PUSH1 0x2 EQ DUP1 PUSH2 0x2117 JUMPI POP DUP2 PUSH1 0xC0 ADD MLOAD PUSH1 0x3 EQ JUMPDEST PUSH2 0x213C JUMPI PUSH1 0x40 MLOAD PUSH3 0x461BCD PUSH1 0xE5 SHL DUP2 MSTORE PUSH1 0x20 PUSH1 0x4 DUP3 ADD MSTORE PUSH0 PUSH1 0x24 DUP3 ADD MSTORE PUSH1 0x44 ADD PUSH2 0x11AA JUMP JUMPDEST PUSH1 0x3 PUSH1 0xC0 DUP4 ADD MSTORE PUSH1 0xB SLOAD PUSH1 0x40 MLOAD PUSH4 0xF6CAC63F PUSH1 0xE0 SHL DUP2 MSTORE PUSH1 0x1 PUSH1 0x1 PUSH1 0xA0 SHL SUB SWAP1 SWAP2 AND SWAP1 PUSH4 0xF6CAC63F SWAP1 PUSH2 0x2177 SWAP1 DUP9 SWAP1 DUP7 SWAP1 DUP7 SWAP1 PUSH1 0x4 ADD PUSH2 0x599B JUMP JUMPDEST PUSH0 PUSH1 0x40 MLOAD DUP1 DUP4 SUB DUP2 PUSH0 DUP8 DUP1 EXTCODESIZE ISZERO DUP1 ISZERO PUSH2 0x218E JUMPI PUSH0 DUP1 REVERT JUMPDEST POP GAS CALL ISZERO DUP1 ISZERO PUSH2 0x21A0 JUMPI RETURNDATASIZE PUSH0 DUP1 RETURNDATACOPY RETURNDATASIZE PUSH0 REVERT JUMPDEST POP POP PUSH1 0xC SLOAD PUSH0 SWAP3 POP PUSH1 0x1 PUSH1 0x1 PUSH1 0xA0 SHL SUB AND SWAP1 POP PUSH4 0x9649F75E DUP8 PUSH2 0x21C4 PUSH1 0x1 DUP9 PUSH2 0x5465 JUMP JUMPDEST PUSH2 0x21CF PUSH1 0x1 DUP10 PUSH2 0x5465 JUMP JUMPDEST PUSH1 0x40 MLOAD PUSH1 0x1 PUSH1 0x1 PUSH1 0xE0 SHL SUB NOT PUSH1 0xE0 DUP7 SWAP1 SHL AND DUP2 MSTORE PUSH1 0x4 DUP2 ADD SWAP4 SWAP1 SWAP4 MSTORE PUSH1 0x24 DUP4 ADD SWAP2 SWAP1 SWAP2 MSTORE PUSH1 0x44 DUP3 ADD MSTORE PUSH1 0x64 ADD PUSH0 PUSH1 0x40 MLOAD DUP1 DUP4 SUB DUP2 DUP7 GAS STATICCALL ISZERO DUP1 ISZERO PUSH2 0x2215 JUMPI RETURNDATASIZE PUSH0 DUP1 RETURNDATACOPY RETURNDATASIZE PUSH0 REVERT JUMPDEST POP POP POP POP PUSH1 0x40 MLOAD RETURNDATASIZE PUSH0 DUP3 RETURNDATACOPY PUSH1 0x1F RETURNDATASIZE SWAP1 DUP2 ADD PUSH1 0x1F NOT AND DUP3 ADD PUSH1 0x40 MSTORE PUSH2 0x223C SWAP2 SWAP1 DUP2 ADD SWAP1 PUSH2 0x57B6 JUMP JUMPDEST PUSH0 DUP2 MLOAD DUP2 LT PUSH2 0x224D JUMPI PUSH2 0x224D PUSH2 0x5935 JUMP JUMPDEST PUSH1 0x20 SWAP1 DUP2 MUL SWAP2 SWAP1 SWAP2 ADD DUP2 ADD MLOAD PUSH2 0x140 DUP2 ADD MLOAD PUSH0 SWAP1 DUP2 MSTORE PUSH1 0x2 SWAP1 SWAP3 MSTORE PUSH1 0x40 SWAP1 SWAP2 KECCAK256 SLOAD SWAP1 SWAP2 POP PUSH1 0xFF AND ISZERO DUP1 ISZERO PUSH2 0x2283 JUMPI POP PUSH1 0xE0 DUP2 ADD MLOAD ISZERO JUMPDEST DUP1 ISZERO PUSH2 0x22A5 JUMPI POP TIMESTAMP DUP2 PUSH1 0x40 ADD MLOAD PUSH1 0x60 ADD MLOAD DUP3 PUSH1 0xA0 ADD MLOAD PUSH2 0x22A3 SWAP2 SWAP1 PUSH2 0x5973 JUMP JUMPDEST LT JUMPDEST DUP1 PUSH2 0x22EF JUMPI POP PUSH2 0x140 DUP2 ADD MLOAD PUSH0 SWAP1 DUP2 MSTORE PUSH1 0x2 PUSH1 0x20 MSTORE PUSH1 0x40 SWAP1 KECCAK256 SLOAD PUSH1 0xFF AND ISZERO DUP1 ISZERO PUSH2 0x22DE JUMPI POP TIMESTAMP DUP2 PUSH1 0xE0 ADD MLOAD PUSH1 0x3C PUSH2 0x22DC SWAP2 SWAP1 PUSH2 0x5973 JUMP JUMPDEST LT JUMPDEST DUP1 ISZERO PUSH2 0x22EF JUMPI POP DUP1 PUSH2 0x100 ADD MLOAD PUSH1 0x2 EQ JUMPDEST PUSH2 0x2314 JUMPI PUSH1 0x40 MLOAD PUSH3 0x461BCD PUSH1 0xE5 SHL DUP2 MSTORE PUSH1 0x20 PUSH1 0x4 DUP3 ADD MSTORE PUSH0 PUSH1 0x24 DUP3 ADD MSTORE PUSH1 0x44 ADD PUSH2 0x11AA JUMP JUMPDEST PUSH1 0x2 PUSH2 0x100 DUP3 ADD MSTORE PUSH2 0x2328 PUSH1 0x1 DUP8 PUSH0 PUSH2 0x38D7 JUMP JUMPDEST PUSH2 0x140 DUP3 ADD MSTORE TIMESTAMP PUSH1 0xE0 DUP3 ADD MSTORE PUSH1 0xC SLOAD PUSH1 0x1 PUSH1 0x1 PUSH1 0xA0 SHL SUB AND PUSH4 0x6BF5D216 DUP8 PUSH2 0x2351 PUSH1 0x1 DUP9 PUSH2 0x5465 JUMP JUMPDEST DUP5 PUSH1 0x40 MLOAD DUP5 PUSH4 0xFFFFFFFF AND PUSH1 0xE0 SHL DUP2 MSTORE PUSH1 0x4 ADD PUSH2 0x2370 SWAP4 SWAP3 SWAP2 SWAP1 PUSH2 0x5A32 JUMP JUMPDEST PUSH0 PUSH1 0x40 MLOAD DUP1 DUP4 SUB DUP2 PUSH0 DUP8 DUP1 EXTCODESIZE ISZERO DUP1 ISZERO PUSH2 0x2387 JUMPI PUSH0 DUP1 REVERT JUMPDEST POP GAS CALL ISZERO DUP1 ISZERO PUSH2 0x2399 JUMPI RETURNDATASIZE PUSH0 DUP1 RETURNDATACOPY RETURNDATASIZE PUSH0 REVERT JUMPDEST POP POP POP POP POP POP POP POP POP POP JUMP JUMPDEST PUSH2 0x23AD PUSH2 0x38F3 JUMP JUMPDEST PUSH2 0x23B6 DUP3 PUSH2 0x3997 JUMP JUMPDEST PUSH2 0x11E0 DUP3 DUP3 PUSH2 0x399F JUMP JUMPDEST PUSH0 DUP1 SLOAD PUSH0 DUP1 MLOAD PUSH1 0x20 PUSH2 0x5EDD DUP4 CODECOPY DUP2 MLOAD SWAP2 MSTORE SWAP1 DUP4 LT PUSH2 0x23FA JUMPI PUSH1 0x40 MLOAD PUSH4 0x295F44F7 PUSH1 0xE2 SHL DUP2 MSTORE PUSH0 PUSH1 0x4 DUP3 ADD MSTORE PUSH1 0x24 DUP2 ADD DUP5 SWAP1 MSTORE PUSH1 0x44 ADD PUSH2 0x11AA JUMP JUMPDEST DUP1 PUSH1 0x2 ADD DUP4 DUP2 SLOAD DUP2 LT PUSH2 0x240F JUMPI PUSH2 0x240F PUSH2 0x5935 JUMP JUMPDEST SWAP1 PUSH0 MSTORE PUSH1 0x20 PUSH0 KECCAK256 ADD SLOAD SWAP2 POP POP SWAP2 SWAP1 POP JUMP JUMPDEST PUSH0 PUSH2 0x2429 PUSH2 0x3A5B JUMP JUMPDEST POP PUSH0 DUP1 MLOAD PUSH1 0x20 PUSH2 0x5F1D DUP4 CODECOPY DUP2 MLOAD SWAP2 MSTORE SWAP1 JUMP JUMPDEST PUSH2 0x2443 PUSH2 0x3569 JUMP JUMPDEST PUSH1 0x8 DUP1 SLOAD PUSH4 0xFFFFFFFF NOT AND PUSH4 0xFFFFFFFF SWAP3 SWAP1 SWAP3 AND SWAP2 SWAP1 SWAP2 OR SWAP1 SSTORE JUMP JUMPDEST PUSH2 0x2467 PUSH2 0x3569 JUMP JUMPDEST PUSH0 PUSH2 0x2710 PUSH1 0x12 SLOAD DUP4 PUSH2 0x2479 SWAP2 SWAP1 PUSH2 0x595C JUMP JUMPDEST PUSH2 0x2483 SWAP2 SWAP1 PUSH2 0x548C JUMP JUMPDEST PUSH1 0xA SLOAD PUSH1 0x10 SLOAD PUSH1 0x40 MLOAD PUSH4 0x23B872DD PUSH1 0xE0 SHL DUP2 MSTORE SWAP3 SWAP4 POP PUSH1 0x1 PUSH1 0x1 PUSH1 0xA0 SHL SUB SWAP2 DUP3 AND SWAP3 PUSH4 0x23B872DD SWAP3 PUSH2 0x24BE SWAP3 CALLER SWAP3 SWAP2 AND SWAP1 DUP7 SWAP1 PUSH1 0x4 ADD PUSH2 0x5B04 JUMP JUMPDEST PUSH1 0x20 PUSH1 0x40 MLOAD DUP1 DUP4 SUB DUP2 PUSH0 DUP8 GAS CALL ISZERO DUP1 ISZERO PUSH2 0x24DA JUMPI RETURNDATASIZE PUSH0 DUP1 RETURNDATACOPY RETURNDATASIZE PUSH0 REVERT JUMPDEST POP POP POP POP PUSH1 0x40 MLOAD RETURNDATASIZE PUSH1 0x1F NOT PUSH1 0x1F DUP3 ADD AND DUP3 ADD DUP1 PUSH1 0x40 MSTORE POP DUP2 ADD SWAP1 PUSH2 0x24FE SWAP2 SWAP1 PUSH2 0x5B28 JUMP JUMPDEST PUSH2 0x2523 JUMPI PUSH1 0x40 MLOAD PUSH3 0x461BCD PUSH1 0xE5 SHL DUP2 MSTORE PUSH1 0x20 PUSH1 0x4 DUP3 ADD MSTORE PUSH0 PUSH1 0x24 DUP3 ADD MSTORE PUSH1 0x44 ADD PUSH2 0x11AA JUMP JUMPDEST PUSH2 0x252D DUP2 DUP4 PUSH2 0x5465 JUMP JUMPDEST PUSH1 0xA SLOAD PUSH1 0x40 MLOAD PUSH4 0x23B872DD PUSH1 0xE0 SHL DUP2 MSTORE SWAP2 SWAP4 POP PUSH1 0x1 PUSH1 0x1 PUSH1 0xA0 SHL SUB AND SWAP1 PUSH4 0x23B872DD SWAP1 PUSH2 0x2562 SWAP1 CALLER SWAP1 ADDRESS SWAP1 DUP8 SWAP1 PUSH1 0x4 ADD PUSH2 0x5B04 JUMP JUMPDEST PUSH1 0x20 PUSH1 0x40 MLOAD DUP1 DUP4 SUB DUP2 PUSH0 DUP8 GAS CALL ISZERO DUP1 ISZERO PUSH2 0x257E JUMPI RETURNDATASIZE PUSH0 DUP1 RETURNDATACOPY RETURNDATASIZE PUSH0 REVERT JUMPDEST POP POP POP POP PUSH1 0x40 MLOAD RETURNDATASIZE PUSH1 0x1F NOT PUSH1 0x1F DUP3 ADD AND DUP3 ADD DUP1 PUSH1 0x40 MSTORE POP DUP2 ADD SWAP1 PUSH2 0x25A2 SWAP2 SWAP1 PUSH2 0x5B28 JUMP JUMPDEST PUSH2 0x25C7 JUMPI PUSH1 0x40 MLOAD PUSH3 0x461BCD PUSH1 0xE5 SHL DUP2 MSTORE PUSH1 0x20 PUSH1 0x4 DUP3 ADD MSTORE PUSH0 PUSH1 0x24 DUP3 ADD MSTORE PUSH1 0x44 ADD PUSH2 0x11AA JUMP JUMPDEST PUSH1 0x1B SLOAD PUSH0 SWAP1 DUP2 MSTORE PUSH1 0x1A PUSH1 0x20 MSTORE PUSH1 0x40 SWAP1 KECCAK256 SLOAD PUSH2 0x25FD JUMPI PUSH1 0x40 MLOAD PUSH3 0x461BCD PUSH1 0xE5 SHL DUP2 MSTORE PUSH1 0x20 PUSH1 0x4 DUP3 ADD MSTORE PUSH0 PUSH1 0x24 DUP3 ADD MSTORE PUSH1 0x44 ADD PUSH2 0x11AA JUMP JUMPDEST PUSH0 JUMPDEST PUSH1 0x1D SLOAD DUP2 LT ISZERO PUSH2 0x2709 JUMPI PUSH0 PUSH1 0x1A PUSH0 PUSH1 0x1B SLOAD DUP2 MSTORE PUSH1 0x20 ADD SWAP1 DUP2 MSTORE PUSH1 0x20 ADD PUSH0 KECCAK256 SLOAD DUP5 PUSH1 0x18 PUSH0 PUSH1 0x1D DUP7 DUP2 SLOAD DUP2 LT PUSH2 0x2635 JUMPI PUSH2 0x2635 PUSH2 0x5935 JUMP JUMPDEST PUSH0 SWAP2 DUP3 MSTORE PUSH1 0x20 DUP1 DUP4 KECCAK256 SWAP1 SWAP2 ADD SLOAD PUSH1 0x1 PUSH1 0x1 PUSH1 0xA0 SHL SUB AND DUP4 MSTORE DUP3 ADD SWAP3 SWAP1 SWAP3 MSTORE PUSH1 0x40 ADD SWAP1 KECCAK256 SLOAD PUSH2 0x2663 SWAP2 SWAP1 PUSH2 0x595C JUMP JUMPDEST PUSH2 0x266D SWAP2 SWAP1 PUSH2 0x548C JUMP JUMPDEST SWAP1 POP PUSH0 PUSH1 0x18 PUSH0 PUSH1 0x1D DUP6 DUP2 SLOAD DUP2 LT PUSH2 0x2686 JUMPI PUSH2 0x2686 PUSH2 0x5935 JUMP JUMPDEST PUSH0 SWAP2 DUP3 MSTORE PUSH1 0x20 DUP1 DUP4 KECCAK256 SWAP1 SWAP2 ADD SLOAD PUSH1 0x1 PUSH1 0x1 PUSH1 0xA0 SHL SUB AND DUP4 MSTORE DUP3 ADD SWAP3 SWAP1 SWAP3 MSTORE PUSH1 0x40 ADD DUP2 KECCAK256 SWAP2 SWAP1 SWAP2 SSTORE PUSH1 0x1D DUP1 SLOAD DUP4 SWAP3 PUSH1 0x19 SWAP3 SWAP1 SWAP2 DUP7 SWAP1 DUP2 LT PUSH2 0x26C8 JUMPI PUSH2 0x26C8 PUSH2 0x5935 JUMP JUMPDEST PUSH0 SWAP2 DUP3 MSTORE PUSH1 0x20 DUP1 DUP4 KECCAK256 SWAP1 SWAP2 ADD SLOAD PUSH1 0x1 PUSH1 0x1 PUSH1 0xA0 SHL SUB AND DUP4 MSTORE DUP3 ADD SWAP3 SWAP1 SWAP3 MSTORE PUSH1 0x40 ADD DUP2 KECCAK256 DUP1 SLOAD SWAP1 SWAP2 SWAP1 PUSH2 0x26FB SWAP1 DUP5 SWAP1 PUSH2 0x5973 JUMP JUMPDEST SWAP1 SWAP2 SSTORE POP POP POP PUSH1 0x1 ADD PUSH2 0x25FF JUMP JUMPDEST POP PUSH1 0x40 DUP1 MLOAD PUSH1 0xA0 DUP2 ADD DUP3 MSTORE PUSH1 0x1B SLOAD DUP1 DUP3 MSTORE TIMESTAMP PUSH1 0x20 DUP1 DUP5 ADD SWAP2 DUP3 MSTORE DUP4 DUP6 ADD DUP8 DUP2 MSTORE PUSH0 DUP5 DUP2 MSTORE PUSH1 0x1A DUP4 MSTORE DUP7 DUP2 KECCAK256 SLOAD PUSH1 0x60 DUP8 ADD SWAP1 DUP2 MSTORE PUSH1 0x1D DUP1 SLOAD PUSH1 0x80 DUP10 ADD SWAP1 DUP2 MSTORE SWAP7 DUP4 MSTORE PUSH1 0x1E SWAP1 SWAP5 MSTORE SWAP7 DUP2 KECCAK256 SWAP6 MLOAD DUP7 SSTORE SWAP3 MLOAD PUSH1 0x1 DUP7 ADD SSTORE MLOAD PUSH1 0x2 DUP6 ADD SSTORE SWAP4 MLOAD PUSH1 0x3 DUP5 ADD SSTORE SWAP1 MLOAD PUSH1 0x4 SWAP1 SWAP3 ADD SWAP2 SWAP1 SWAP2 SSTORE PUSH2 0x277F SWAP2 SWAP1 PUSH2 0x4DED JUMP JUMPDEST PUSH1 0x1B DUP1 SLOAD PUSH0 SWAP1 DUP2 MSTORE PUSH1 0x1A PUSH1 0x20 MSTORE PUSH1 0x40 DUP2 KECCAK256 DUP2 SWAP1 SSTORE DUP2 SLOAD SWAP2 SWAP1 PUSH2 0x27A0 DUP4 PUSH2 0x5B43 JUMP JUMPDEST SWAP2 SWAP1 POP SSTORE POP POP POP JUMP JUMPDEST PUSH2 0x27B1 PUSH2 0x3569 JUMP JUMPDEST PUSH1 0x1 PUSH1 0x1 PUSH1 0xA0 SHL SUB DUP2 AND PUSH2 0x27E0 JUMPI PUSH1 0x40 MLOAD PUSH3 0x461BCD PUSH1 0xE5 SHL DUP2 MSTORE PUSH1 0x20 PUSH1 0x4 DUP3 ADD MSTORE PUSH0 PUSH1 0x24 DUP3 ADD MSTORE PUSH1 0x44 ADD PUSH2 0x11AA JUMP JUMPDEST PUSH1 0xC DUP1 SLOAD PUSH1 0x1 PUSH1 0x1 PUSH1 0xA0 SHL SUB NOT AND PUSH1 0x1 PUSH1 0x1 PUSH1 0xA0 SHL SUB SWAP3 SWAP1 SWAP3 AND SWAP2 SWAP1 SWAP2 OR SWAP1 SSTORE JUMP JUMPDEST PUSH0 PUSH2 0x10BC DUP3 PUSH2 0x34F9 JUMP JUMPDEST PUSH2 0x2814 PUSH2 0x3569 JUMP JUMPDEST PUSH0 DUP3 GT PUSH2 0x283C JUMPI PUSH1 0x40 MLOAD PUSH3 0x461BCD PUSH1 0xE5 SHL DUP2 MSTORE PUSH1 0x20 PUSH1 0x4 DUP3 ADD MSTORE PUSH0 PUSH1 0x24 DUP3 ADD MSTORE PUSH1 0x44 ADD PUSH2 0x11AA JUMP JUMPDEST PUSH0 DUP2 GT PUSH2 0x2864 JUMPI PUSH1 0x40 MLOAD PUSH3 0x461BCD PUSH1 0xE5 SHL DUP2 MSTORE PUSH1 0x20 PUSH1 0x4 DUP3 ADD MSTORE PUSH0 PUSH1 0x24 DUP3 ADD MSTORE PUSH1 0x44 ADD PUSH2 0x11AA JUMP JUMPDEST PUSH1 0x16 SWAP2 SWAP1 SWAP2 SSTORE PUSH1 0x15 SSTORE JUMP JUMPDEST PUSH0 PUSH0 DUP1 MLOAD PUSH1 0x20 PUSH2 0x5EFD DUP4 CODECOPY DUP2 MLOAD SWAP2 MSTORE PUSH1 0x1 PUSH1 0x1 PUSH1 0xA0 SHL SUB DUP4 AND PUSH2 0x28A7 JUMPI PUSH1 0x40 MLOAD PUSH4 0x22718AD9 PUSH1 0xE2 SHL DUP2 MSTORE PUSH0 PUSH1 0x4 DUP3 ADD MSTORE PUSH1 0x24 ADD PUSH2 0x11AA JUMP JUMPDEST PUSH1 0x1 PUSH1 0x1 PUSH1 0xA0 SHL SUB SWAP1 SWAP3 AND PUSH0 SWAP1 DUP2 MSTORE PUSH1 0x3 SWAP1 SWAP3 ADD PUSH1 0x20 MSTORE POP PUSH1 0x40 SWAP1 KECCAK256 SLOAD SWAP1 JUMP JUMPDEST PUSH2 0x28CF PUSH2 0x3569 JUMP JUMPDEST PUSH2 0x1D81 PUSH0 PUSH2 0x3AA4 JUMP JUMPDEST PUSH32 0xF0C57E16840DF040F15088DC2F81FE391C3923BEC73E23A9662EFC9C229C6A00 DUP1 SLOAD PUSH1 0x1 PUSH1 0x40 SHL DUP2 DIV PUSH1 0xFF AND ISZERO SWAP1 PUSH1 0x1 PUSH1 0x1 PUSH1 0x40 SHL SUB AND PUSH0 DUP2 ISZERO DUP1 ISZERO PUSH2 0x291C JUMPI POP DUP3 JUMPDEST SWAP1 POP PUSH0 DUP3 PUSH1 0x1 PUSH1 0x1 PUSH1 0x40 SHL SUB AND PUSH1 0x1 EQ DUP1 ISZERO PUSH2 0x2937 JUMPI POP ADDRESS EXTCODESIZE ISZERO JUMPDEST SWAP1 POP DUP2 ISZERO DUP1 ISZERO PUSH2 0x2945 JUMPI POP DUP1 ISZERO JUMPDEST ISZERO PUSH2 0x2963 JUMPI PUSH1 0x40 MLOAD PUSH4 0xF92EE8A9 PUSH1 0xE0 SHL DUP2 MSTORE PUSH1 0x4 ADD PUSH1 0x40 MLOAD DUP1 SWAP2 SUB SWAP1 REVERT JUMPDEST DUP5 SLOAD PUSH8 0xFFFFFFFFFFFFFFFF NOT AND PUSH1 0x1 OR DUP6 SSTORE DUP4 ISZERO PUSH2 0x298D JUMPI DUP5 SLOAD PUSH1 0xFF PUSH1 0x40 SHL NOT AND PUSH1 0x1 PUSH1 0x40 SHL OR DUP6 SSTORE JUMPDEST PUSH2 0x29D4 PUSH1 0x40 MLOAD DUP1 PUSH1 0x40 ADD PUSH1 0x40 MSTORE DUP1 PUSH1 0x9 DUP2 MSTORE PUSH1 0x20 ADD PUSH9 0x70756E6B6279746573 PUSH1 0xB8 SHL DUP2 MSTORE POP PUSH1 0x40 MLOAD DUP1 PUSH1 0x40 ADD PUSH1 0x40 MSTORE DUP1 PUSH1 0x4 DUP2 MSTORE PUSH1 0x20 ADD PUSH4 0x50554E4B PUSH1 0xE0 SHL DUP2 MSTORE POP PUSH2 0x3B14 JUMP JUMPDEST PUSH2 0x29DC PUSH2 0x3B26 JUMP JUMPDEST PUSH2 0x29E4 PUSH2 0x3B26 JUMP JUMPDEST PUSH2 0x29EC PUSH2 0x3B2E JUMP JUMPDEST PUSH2 0x29F4 PUSH2 0x3B26 JUMP JUMPDEST PUSH2 0x29FD CALLER PUSH2 0x3B3E JUMP JUMPDEST PUSH2 0x2A05 PUSH2 0x3B26 JUMP JUMPDEST PUSH32 0x1107A88FD666BCB4E9B668F24668C1502146A063F98E5C01ACFF60F18EE07902 PUSH1 0x6 SSTORE PUSH32 0xEA7F56BE19583EEB8255AA79F16D8BD8A64CEDF68E42FEFEE1C9AC5372B1A102 PUSH1 0x7 SSTORE PUSH1 0x8 DUP1 SLOAD PUSH1 0x5 DUP1 SLOAD PUSH1 0x1 PUSH1 0x1 PUSH1 0xA0 SHL SUB NOT SWAP1 DUP2 AND PUSH20 0xE40895D055BCCD2053DD0638C9695E326152B1A4 OR SWAP1 SWAP2 SSTORE PUSH5 0x3002625A0 PUSH6 0xFFFFFFFFFFFF NOT SWAP1 SWAP3 AND SWAP2 SWAP1 SWAP2 OR SWAP1 SWAP2 SSTORE PUSH1 0xF DUP1 SLOAD DUP3 AND PUSH20 0x8EDC29A84E86975266EF7A45BD76969B6051FD48 OR SWAP1 SSTORE PUSH1 0xE DUP1 SLOAD DUP3 AND PUSH20 0x5EB62C9261E2189C9664A7953F816075B3F2E908 OR SWAP1 SSTORE PUSH1 0x10 DUP1 SLOAD DUP3 AND PUSH20 0x2F4F63840CB93334EE35030BB92849A66735911A OR SWAP1 SSTORE PUSH2 0x5DC PUSH1 0x11 SSTORE PUSH2 0x3E8 PUSH1 0x12 SSTORE PUSH1 0xA DUP1 SLOAD SWAP1 SWAP2 AND PUSH20 0x5B583DB39E574C34AF5C31D4B12B40AB79F90C17 OR SWAP1 SSTORE PUSH4 0x17D7840 PUSH1 0x13 SSTORE PUSH3 0x4C4B40 PUSH1 0x14 SSTORE PUSH0 PUSH1 0x9 SSTORE PUSH2 0xE10 PUSH1 0x16 SSTORE PUSH1 0x2 PUSH1 0x15 SSTORE PUSH1 0x1 PUSH1 0x17 SSTORE DUP4 ISZERO PUSH2 0x2B80 JUMPI DUP5 SLOAD PUSH1 0xFF PUSH1 0x40 SHL NOT AND DUP6 SSTORE PUSH1 0x40 MLOAD PUSH1 0x1 DUP2 MSTORE PUSH32 0xC7F505B2F371AE2175EE4913F4499E1F2633A7B5936321EED1CDAEB6115181D2 SWAP1 PUSH1 0x20 ADD PUSH1 0x40 MLOAD DUP1 SWAP2 SUB SWAP1 LOG1 JUMPDEST POP POP POP POP POP JUMP JUMPDEST PUSH2 0x2B8F PUSH2 0x3569 JUMP JUMPDEST PUSH2 0x1D81 PUSH2 0x3B4F JUMP JUMPDEST PUSH1 0x60 PUSH0 PUSH2 0x2BA2 PUSH0 SLOAD SWAP1 JUMP JUMPDEST SWAP1 POP DUP1 PUSH1 0x1 PUSH1 0x1 PUSH1 0x40 SHL SUB DUP2 GT ISZERO PUSH2 0x2BBC JUMPI PUSH2 0x2BBC PUSH2 0x4F87 JUMP JUMPDEST PUSH1 0x40 MLOAD SWAP1 DUP1 DUP3 MSTORE DUP1 PUSH1 0x20 MUL PUSH1 0x20 ADD DUP3 ADD PUSH1 0x40 MSTORE DUP1 ISZERO PUSH2 0x2BE5 JUMPI DUP2 PUSH1 0x20 ADD PUSH1 0x20 DUP3 MUL DUP1 CALLDATASIZE DUP4 CALLDATACOPY ADD SWAP1 POP JUMPDEST POP SWAP2 POP PUSH0 JUMPDEST DUP2 DUP2 LT ISZERO PUSH2 0x2C20 JUMPI PUSH2 0x2BFB DUP2 PUSH2 0x23C0 JUMP JUMPDEST DUP4 DUP3 DUP2 MLOAD DUP2 LT PUSH2 0x2C0D JUMPI PUSH2 0x2C0D PUSH2 0x5935 JUMP JUMPDEST PUSH1 0x20 SWAP1 DUP2 MUL SWAP2 SWAP1 SWAP2 ADD ADD MSTORE PUSH1 0x1 ADD PUSH2 0x2BEA JUMP JUMPDEST POP POP SWAP1 JUMP JUMPDEST PUSH1 0x3 DUP2 DUP2 SLOAD DUP2 LT PUSH2 0x2C34 JUMPI PUSH0 DUP1 REVERT JUMPDEST PUSH0 SWAP2 DUP3 MSTORE PUSH1 0x20 SWAP1 SWAP2 KECCAK256 ADD SLOAD SWAP1 POP DUP2 JUMP JUMPDEST PUSH32 0x9016D09D72D40FDAE2FD8CEAC6B6234C7706214FD39C1CD1E609A0528C199300 SLOAD PUSH1 0x1 PUSH1 0x1 PUSH1 0xA0 SHL SUB AND SWAP1 JUMP JUMPDEST PUSH2 0x2C7A PUSH2 0x3569 JUMP JUMPDEST PUSH1 0x1 PUSH1 0x1 PUSH1 0xA0 SHL SUB DUP2 AND PUSH2 0x2C8C JUMPI PUSH0 DUP1 REVERT JUMPDEST PUSH1 0x5 DUP1 SLOAD PUSH1 0x1 PUSH1 0x1 PUSH1 0xA0 SHL SUB NOT AND PUSH1 0x1 PUSH1 0x1 PUSH1 0xA0 SHL SUB SWAP3 SWAP1 SWAP3 AND SWAP2 SWAP1 SWAP2 OR SWAP1 SSTORE JUMP JUMPDEST PUSH2 0x2CB6 PUSH2 0x361A JUMP JUMPDEST PUSH1 0xB SLOAD PUSH1 0x40 MLOAD PUSH4 0x438E925F PUSH1 0xE1 SHL DUP2 MSTORE PUSH1 0x4 DUP2 ADD DUP4 SWAP1 MSTORE PUSH0 SWAP2 PUSH1 0x1 PUSH1 0x1 PUSH1 0xA0 SHL SUB AND SWAP1 PUSH4 0x871D24BE SWAP1 PUSH1 0x24 ADD PUSH2 0x100 PUSH1 0x40 MLOAD DUP1 DUP4 SUB DUP2 DUP7 GAS STATICCALL ISZERO DUP1 ISZERO PUSH2 0x2CFE JUMPI RETURNDATASIZE PUSH0 DUP1 RETURNDATACOPY RETURNDATASIZE PUSH0 REVERT JUMPDEST POP POP POP POP PUSH1 0x40 MLOAD RETURNDATASIZE PUSH1 0x1F NOT PUSH1 0x1F DUP3 ADD AND DUP3 ADD DUP1 PUSH1 0x40 MSTORE POP DUP2 ADD SWAP1 PUSH2 0x2D22 SWAP2 SWAP1 PUSH2 0x5B5B JUMP JUMPDEST PUSH1 0xB SLOAD PUSH1 0x40 MLOAD PUSH4 0x1AFE6A91 PUSH1 0xE2 SHL DUP2 MSTORE PUSH1 0x4 DUP2 ADD DUP6 SWAP1 MSTORE SWAP2 SWAP3 POP PUSH0 SWAP2 PUSH1 0x1 PUSH1 0x1 PUSH1 0xA0 SHL SUB SWAP1 SWAP2 AND SWAP1 PUSH4 0x6BF9AA44 SWAP1 PUSH1 0x24 ADD PUSH0 PUSH1 0x40 MLOAD DUP1 DUP4 SUB DUP2 DUP7 GAS STATICCALL ISZERO DUP1 ISZERO PUSH2 0x2D6D JUMPI RETURNDATASIZE PUSH0 DUP1 RETURNDATACOPY RETURNDATASIZE PUSH0 REVERT JUMPDEST POP POP POP POP PUSH1 0x40 MLOAD RETURNDATASIZE PUSH0 DUP3 RETURNDATACOPY PUSH1 0x1F RETURNDATASIZE SWAP1 DUP2 ADD PUSH1 0x1F NOT AND DUP3 ADD PUSH1 0x40 MSTORE PUSH2 0x2D94 SWAP2 SWAP1 DUP2 ADD SWAP1 PUSH2 0x5C2A JUMP JUMPDEST PUSH1 0x20 DUP4 ADD MLOAD PUSH1 0xB SLOAD PUSH1 0x40 MLOAD PUSH4 0xC2BF8DD5 PUSH1 0xE0 SHL DUP2 MSTORE PUSH1 0x4 DUP2 ADD DUP8 SWAP1 MSTORE SWAP3 SWAP4 POP SWAP1 SWAP2 PUSH1 0x1 PUSH1 0x1 PUSH1 0xA0 SHL SUB SWAP1 SWAP2 AND SWAP1 PUSH4 0xC2BF8DD5 SWAP1 PUSH1 0x24 ADD PUSH1 0x20 PUSH1 0x40 MLOAD DUP1 DUP4 SUB DUP2 DUP7 GAS STATICCALL ISZERO DUP1 ISZERO PUSH2 0x2DE5 JUMPI RETURNDATASIZE PUSH0 DUP1 RETURNDATACOPY RETURNDATASIZE PUSH0 REVERT JUMPDEST POP POP POP POP PUSH1 0x40 MLOAD RETURNDATASIZE PUSH1 0x1F NOT PUSH1 0x1F DUP3 ADD AND DUP3 ADD DUP1 PUSH1 0x40 MSTORE POP DUP2 ADD SWAP1 PUSH2 0x2E09 SWAP2 SWAP1 PUSH2 0x5690 JUMP JUMPDEST LT PUSH2 0x2E2F JUMPI PUSH1 0x40 MLOAD PUSH3 0x461BCD PUSH1 0xE5 SHL DUP2 MSTORE PUSH1 0x20 PUSH1 0x4 DUP3 ADD MSTORE PUSH0 PUSH1 0x24 DUP3 ADD MSTORE PUSH1 0x44 ADD PUSH2 0x11AA JUMP JUMPDEST DUP1 PUSH1 0x40 ADD MLOAD PUSH2 0x2E59 JUMPI PUSH1 0x40 MLOAD PUSH3 0x461BCD PUSH1 0xE5 SHL DUP2 MSTORE PUSH1 0x20 PUSH1 0x4 DUP3 ADD MSTORE PUSH0 PUSH1 0x24 DUP3 ADD MSTORE PUSH1 0x44 ADD PUSH2 0x11AA JUMP JUMPDEST PUSH1 0xF SLOAD PUSH1 0x1 PUSH1 0x1 PUSH1 0xA0 SHL SUB AND PUSH2 0x2E8A JUMPI PUSH1 0x40 MLOAD PUSH3 0x461BCD PUSH1 0xE5 SHL DUP2 MSTORE PUSH1 0x20 PUSH1 0x4 DUP3 ADD MSTORE PUSH0 PUSH1 0x24 DUP3 ADD MSTORE PUSH1 0x44 ADD PUSH2 0x11AA JUMP JUMPDEST PUSH1 0xE SLOAD PUSH1 0x1 PUSH1 0x1 PUSH1 0xA0 SHL SUB AND PUSH2 0x2EBB JUMPI PUSH1 0x40 MLOAD PUSH3 0x461BCD PUSH1 0xE5 SHL DUP2 MSTORE PUSH1 0x20 PUSH1 0x4 DUP3 ADD MSTORE PUSH0 PUSH1 0x24 DUP3 ADD MSTORE PUSH1 0x44 ADD PUSH2 0x11AA JUMP JUMPDEST PUSH1 0x40 DUP3 ADD MLOAD PUSH1 0x11 SLOAD PUSH0 SWAP1 PUSH2 0x2710 SWAP1 PUSH2 0x2ED3 SWAP1 DUP5 PUSH2 0x595C JUMP JUMPDEST PUSH2 0x2EDD SWAP2 SWAP1 PUSH2 0x548C JUMP JUMPDEST SWAP1 POP PUSH2 0x2EE9 DUP2 DUP4 PUSH2 0x5465 JUMP JUMPDEST PUSH1 0xA SLOAD PUSH1 0xF SLOAD PUSH1 0x40 MLOAD PUSH4 0x23B872DD PUSH1 0xE0 SHL DUP2 MSTORE SWAP3 SWAP5 POP PUSH1 0x1 PUSH1 0x1 PUSH1 0xA0 SHL SUB SWAP2 DUP3 AND SWAP3 PUSH4 0x23B872DD SWAP3 PUSH2 0x2F24 SWAP3 CALLER SWAP3 SWAP2 AND SWAP1 DUP8 SWAP1 PUSH1 0x4 ADD PUSH2 0x5B04 JUMP JUMPDEST PUSH1 0x20 PUSH1 0x40 MLOAD DUP1 DUP4 SUB DUP2 PUSH0 DUP8 GAS CALL ISZERO DUP1 ISZERO PUSH2 0x2F40 JUMPI RETURNDATASIZE PUSH0 DUP1 RETURNDATACOPY RETURNDATASIZE PUSH0 REVERT JUMPDEST POP POP POP POP PUSH1 0x40 MLOAD RETURNDATASIZE PUSH1 0x1F NOT PUSH1 0x1F DUP3 ADD AND DUP3 ADD DUP1 PUSH1 0x40 MSTORE POP DUP2 ADD SWAP1 PUSH2 0x2F64 SWAP2 SWAP1 PUSH2 0x5B28 JUMP JUMPDEST PUSH2 0x2F89 JUMPI PUSH1 0x40 MLOAD PUSH3 0x461BCD PUSH1 0xE5 SHL DUP2 MSTORE PUSH1 0x20 PUSH1 0x4 DUP3 ADD MSTORE PUSH0 PUSH1 0x24 DUP3 ADD MSTORE PUSH1 0x44 ADD PUSH2 0x11AA JUMP JUMPDEST PUSH1 0xA SLOAD PUSH1 0xE SLOAD PUSH1 0x40 MLOAD PUSH4 0x23B872DD PUSH1 0xE0 SHL DUP2 MSTORE PUSH1 0x1 PUSH1 0x1 PUSH1 0xA0 SHL SUB SWAP3 DUP4 AND SWAP3 PUSH4 0x23B872DD SWAP3 PUSH2 0x2FC2 SWAP3 CALLER SWAP3 SWAP1 SWAP2 AND SWAP1 DUP7 SWAP1 PUSH1 0x4 ADD PUSH2 0x5B04 JUMP JUMPDEST PUSH1 0x20 PUSH1 0x40 MLOAD DUP1 DUP4 SUB DUP2 PUSH0 DUP8 GAS CALL ISZERO DUP1 ISZERO PUSH2 0x2FDE JUMPI RETURNDATASIZE PUSH0 DUP1 RETURNDATACOPY RETURNDATASIZE PUSH0 REVERT JUMPDEST POP POP POP POP PUSH1 0x40 MLOAD RETURNDATASIZE PUSH1 0x1F NOT PUSH1 0x1F DUP3 ADD AND DUP3 ADD DUP1 PUSH1 0x40 MSTORE POP DUP2 ADD SWAP1 PUSH2 0x3002 SWAP2 SWAP1 PUSH2 0x5B28 JUMP JUMPDEST PUSH2 0x3027 JUMPI PUSH1 0x40 MLOAD PUSH3 0x461BCD PUSH1 0xE5 SHL DUP2 MSTORE PUSH1 0x20 PUSH1 0x4 DUP3 ADD MSTORE PUSH0 PUSH1 0x24 DUP3 ADD MSTORE PUSH1 0x44 ADD PUSH2 0x11AA JUMP JUMPDEST PUSH1 0xB SLOAD PUSH1 0x1 SLOAD PUSH1 0x40 MLOAD PUSH4 0x1B57C1F7 PUSH1 0xE0 SHL DUP2 MSTORE PUSH1 0x1 PUSH1 0x1 PUSH1 0xA0 SHL SUB SWAP1 SWAP3 AND SWAP2 PUSH4 0x1B57C1F7 SWAP2 PUSH2 0x3063 SWAP2 DUP10 SWAP1 PUSH1 0x4 ADD SWAP2 DUP3 MSTORE PUSH1 0x20 DUP3 ADD MSTORE PUSH1 0x40 ADD SWAP1 JUMP JUMPDEST PUSH0 PUSH1 0x40 MLOAD DUP1 DUP4 SUB DUP2 PUSH0 DUP8 DUP1 EXTCODESIZE ISZERO DUP1 ISZERO PUSH2 0x307A JUMPI PUSH0 DUP1 REVERT JUMPDEST POP GAS CALL ISZERO DUP1 ISZERO PUSH2 0x308C JUMPI RETURNDATASIZE PUSH0 DUP1 RETURNDATACOPY RETURNDATASIZE PUSH0 REVERT JUMPDEST POP POP POP POP PUSH2 0x309E CALLER DUP5 PUSH1 0x60 ADD MLOAD PUSH2 0x3B97 JUMP JUMPDEST POP POP POP POP POP POP JUMP JUMPDEST PUSH32 0x80BB2B638CC20BC4D0A60D66940F3AB4A00C1D7B313497CA82FB0B4AB0079301 DUP1 SLOAD PUSH1 0x60 SWAP2 PUSH0 DUP1 MLOAD PUSH1 0x20 PUSH2 0x5EFD DUP4 CODECOPY DUP2 MLOAD SWAP2 MSTORE SWAP2 PUSH2 0x10E1 SWAP1 PUSH2 0x5419 JUMP JUMPDEST PUSH2 0x30EC PUSH2 0x3569 JUMP JUMPDEST PUSH1 0x6 SSTORE JUMP JUMPDEST PUSH2 0x30F9 PUSH2 0x3569 JUMP JUMPDEST PUSH1 0x13 SSTORE JUMP JUMPDEST PUSH2 0x11E0 CALLER DUP4 DUP4 PUSH2 0x3BCB JUMP JUMPDEST PUSH2 0x3111 PUSH2 0x3569 JUMP JUMPDEST PUSH1 0x14 SSTORE JUMP JUMPDEST PUSH1 0x1D DUP2 DUP2 SLOAD DUP2 LT PUSH2 0x3125 JUMPI PUSH0 DUP1 REVERT JUMPDEST PUSH0 SWAP2 DUP3 MSTORE PUSH1 0x20 SWAP1 SWAP2 KECCAK256 ADD SLOAD PUSH1 0x1 PUSH1 0x1 PUSH1 0xA0 SHL SUB AND SWAP1 POP DUP2 JUMP JUMPDEST PUSH2 0x3146 PUSH2 0x361A JUMP JUMPDEST CALLER PUSH0 SWAP1 DUP2 MSTORE PUSH1 0x19 PUSH1 0x20 MSTORE PUSH1 0x40 SWAP1 KECCAK256 SLOAD DUP2 DUP2 LT DUP1 ISZERO SWAP1 PUSH2 0x3164 JUMPI POP PUSH0 DUP3 GT JUMPDEST PUSH2 0x3189 JUMPI PUSH1 0x40 MLOAD PUSH3 0x461BCD PUSH1 0xE5 SHL DUP2 MSTORE PUSH1 0x20 PUSH1 0x4 DUP3 ADD MSTORE PUSH0 PUSH1 0x24 DUP3 ADD MSTORE PUSH1 0x44 ADD PUSH2 0x11AA JUMP JUMPDEST PUSH2 0x3193 DUP3 DUP3 PUSH2 0x5465 JUMP JUMPDEST CALLER PUSH0 DUP2 DUP2 MSTORE PUSH1 0x19 PUSH1 0x20 MSTORE PUSH1 0x40 SWAP1 KECCAK256 SWAP2 SWAP1 SWAP2 SSTORE PUSH1 0xA SLOAD PUSH2 0x11E0 SWAP2 PUSH1 0x1 PUSH1 0x1 PUSH1 0xA0 SHL SUB SWAP1 SWAP2 AND SWAP1 DUP5 PUSH2 0x3C7A JUMP JUMPDEST PUSH2 0x31C6 PUSH2 0x3569 JUMP JUMPDEST PUSH1 0x8 DUP1 SLOAD SWAP2 ISZERO ISZERO PUSH1 0x1 PUSH1 0x30 SHL MUL PUSH7 0xFF000000000000 NOT SWAP1 SWAP3 AND SWAP2 SWAP1 SWAP2 OR SWAP1 SSTORE JUMP JUMPDEST PUSH2 0x31EF PUSH2 0x3569 JUMP JUMPDEST PUSH1 0x9 SSTORE JUMP JUMPDEST PUSH2 0x31FC PUSH2 0x3569 JUMP JUMPDEST PUSH2 0x11E0 PUSH1 0x1 PUSH1 0x1 PUSH1 0xA0 SHL SUB DUP4 AND CALLER DUP4 PUSH2 0x3C7A JUMP JUMPDEST PUSH2 0x321B DUP5 DUP5 DUP5 PUSH2 0x1B3E JUMP JUMPDEST PUSH2 0x1BC1 DUP5 DUP5 DUP5 DUP5 PUSH2 0x3CCC JUMP JUMPDEST PUSH2 0x322F PUSH2 0x2C44 JUMP JUMPDEST PUSH1 0x1 PUSH1 0x1 PUSH1 0xA0 SHL SUB AND CALLER PUSH1 0x1 PUSH1 0x1 PUSH1 0xA0 SHL SUB AND EQ DUP1 PUSH2 0x3258 JUMPI POP PUSH1 0xD SLOAD PUSH1 0x1 PUSH1 0x1 PUSH1 0xA0 SHL SUB AND CALLER EQ JUMPDEST PUSH2 0x327D JUMPI PUSH1 0x40 MLOAD PUSH3 0x461BCD PUSH1 0xE5 SHL DUP2 MSTORE PUSH1 0x20 PUSH1 0x4 DUP3 ADD MSTORE PUSH0 PUSH1 0x24 DUP3 ADD MSTORE PUSH1 0x44 ADD PUSH2 0x11AA JUMP JUMPDEST PUSH1 0x1 PUSH1 0x1 PUSH1 0xA0 SHL SUB DUP3 AND PUSH2 0x32AC JUMPI PUSH1 0x40 MLOAD PUSH3 0x461BCD PUSH1 0xE5 SHL DUP2 MSTORE PUSH1 0x20 PUSH1 0x4 DUP3 ADD MSTORE PUSH0 PUSH1 0x24 DUP3 ADD MSTORE PUSH1 0x44 ADD PUSH2 0x11AA JUMP JUMPDEST PUSH0 DUP2 GT PUSH2 0x32D4 JUMPI PUSH1 0x40 MLOAD PUSH3 0x461BCD PUSH1 0xE5 SHL DUP2 MSTORE PUSH1 0x20 PUSH1 0x4 DUP3 ADD MSTORE PUSH0 PUSH1 0x24 DUP3 ADD MSTORE PUSH1 0x44 ADD PUSH2 0x11AA JUMP JUMPDEST PUSH1 0x1 PUSH1 0x1 PUSH1 0xA0 SHL SUB DUP3 AND PUSH0 SWAP1 DUP2 MSTORE PUSH1 0x18 PUSH1 0x20 MSTORE PUSH1 0x40 DUP2 KECCAK256 SLOAD SWAP1 SUB PUSH2 0x333D JUMPI PUSH1 0x1D DUP1 SLOAD PUSH1 0x1 DUP2 ADD DUP3 SSTORE PUSH0 SWAP2 SWAP1 SWAP2 MSTORE PUSH32 0x6D4407E7BE21F808E6509AA9FA9143369579DD7D760FE20A2C09680FC146134F ADD DUP1 SLOAD PUSH1 0x1 PUSH1 0x1 PUSH1 0xA0 SHL SUB NOT AND PUSH1 0x1 PUSH1 0x1 PUSH1 0xA0 SHL SUB DUP5 AND OR SWAP1 SSTORE JUMPDEST PUSH1 0x1 PUSH1 0x1 PUSH1 0xA0 SHL SUB DUP3 AND PUSH0 SWAP1 DUP2 MSTORE PUSH1 0x18 PUSH1 0x20 MSTORE PUSH1 0x40 DUP2 KECCAK256 DUP1 SLOAD DUP4 SWAP3 SWAP1 PUSH2 0x3364 SWAP1 DUP5 SWAP1 PUSH2 0x5973 JUMP JUMPDEST SWAP1 SWAP2 SSTORE POP POP PUSH1 0x1B SLOAD PUSH0 SWAP1 DUP2 MSTORE PUSH1 0x1A PUSH1 0x20 MSTORE PUSH1 0x40 DUP2 KECCAK256 DUP1 SLOAD DUP4 SWAP3 SWAP1 PUSH2 0x3389 SWAP1 DUP5 SWAP1 PUSH2 0x5973 JUMP JUMPDEST SWAP1 SWAP2 SSTORE POP POP POP POP JUMP JUMPDEST PUSH1 0x60 PUSH2 0x10BC DUP3 PUSH2 0x3DEB JUMP JUMPDEST PUSH2 0x33A5 PUSH2 0x3569 JUMP JUMPDEST PUSH1 0xD DUP1 SLOAD SWAP2 ISZERO ISZERO PUSH1 0x1 PUSH1 0xA0 SHL MUL PUSH1 0xFF PUSH1 0xA0 SHL NOT SWAP1 SWAP3 AND SWAP2 SWAP1 SWAP2 OR SWAP1 SSTORE JUMP JUMPDEST PUSH1 0x1 PUSH1 0x1 PUSH1 0xA0 SHL SUB SWAP2 DUP3 AND PUSH0 SWAP1 DUP2 MSTORE PUSH32 0x80BB2B638CC20BC4D0A60D66940F3AB4A00C1D7B313497CA82FB0B4AB0079305 PUSH1 0x20 SWAP1 DUP2 MSTORE PUSH1 0x40 DUP1 DUP4 KECCAK256 SWAP4 SWAP1 SWAP5 AND DUP3 MSTORE SWAP2 SWAP1 SWAP2 MSTORE KECCAK256 SLOAD PUSH1 0xFF AND SWAP1 JUMP JUMPDEST PUSH2 0x3417 PUSH2 0x3569 JUMP JUMPDEST DUP1 SELFBALANCE LT PUSH2 0x1D6E JUMPI PUSH1 0x40 MLOAD PUSH0 SWAP1 CALLER SWAP1 DUP4 SWAP1 DUP4 DUP2 DUP2 DUP2 DUP6 DUP8 GAS CALL SWAP3 POP POP POP RETURNDATASIZE DUP1 PUSH0 DUP2 EQ PUSH2 0x345D JUMPI PUSH1 0x40 MLOAD SWAP2 POP PUSH1 0x1F NOT PUSH1 0x3F RETURNDATASIZE ADD AND DUP3 ADD PUSH1 0x40 MSTORE RETURNDATASIZE DUP3 MSTORE RETURNDATASIZE PUSH0 PUSH1 0x20 DUP5 ADD RETURNDATACOPY PUSH2 0x3462 JUMP JUMPDEST PUSH1 0x60 SWAP2 POP JUMPDEST POP POP SWAP1 POP DUP1 PUSH2 0x11E0 JUMPI PUSH0 DUP1 REVERT JUMPDEST PUSH2 0x3477 PUSH2 0x3569 JUMP JUMPDEST PUSH1 0x1 PUSH1 0x1 PUSH1 0xA0 SHL SUB DUP2 AND PUSH2 0x34A0 JUMPI PUSH1 0x40 MLOAD PUSH4 0x1E4FBDF7 PUSH1 0xE0 SHL DUP2 MSTORE PUSH0 PUSH1 0x4 DUP3 ADD MSTORE PUSH1 0x24 ADD PUSH2 0x11AA JUMP JUMPDEST PUSH2 0x1D6E DUP2 PUSH2 0x3AA4 JUMP JUMPDEST PUSH2 0x34B1 PUSH2 0x3569 JUMP JUMPDEST PUSH1 0x8 DUP1 SLOAD PUSH2 0xFFFF SWAP1 SWAP3 AND PUSH5 0x100000000 MUL PUSH6 0xFFFF00000000 NOT SWAP1 SWAP3 AND SWAP2 SWAP1 SWAP2 OR SWAP1 SSTORE JUMP JUMPDEST PUSH0 PUSH1 0x1 PUSH1 0x1 PUSH1 0xE0 SHL SUB NOT DUP3 AND PUSH4 0x24832483 PUSH1 0xE1 SHL EQ DUP1 PUSH2 0x10BC JUMPI POP PUSH2 0x10BC DUP3 PUSH2 0x3F11 JUMP JUMPDEST PUSH0 DUP1 PUSH2 0x3504 DUP4 PUSH2 0x3F35 JUMP JUMPDEST SWAP1 POP PUSH1 0x1 PUSH1 0x1 PUSH1 0xA0 SHL SUB DUP2 AND PUSH2 0x10BC JUMPI PUSH1 0x40 MLOAD PUSH4 0x7E273289 PUSH1 0xE0 SHL DUP2 MSTORE PUSH1 0x4 DUP2 ADD DUP5 SWAP1 MSTORE PUSH1 0x24 ADD PUSH2 0x11AA JUMP JUMPDEST PUSH0 SWAP1 DUP2 MSTORE PUSH32 0x80BB2B638CC20BC4D0A60D66940F3AB4A00C1D7B313497CA82FB0B4AB0079304 PUSH1 0x20 MSTORE PUSH1 0x40 SWAP1 KECCAK256 SLOAD PUSH1 0x1 PUSH1 0x1 PUSH1 0xA0 SHL SUB AND SWAP1 JUMP JUMPDEST CALLER PUSH2 0x3572 PUSH2 0x2C44 JUMP JUMPDEST PUSH1 0x1 PUSH1 0x1 PUSH1 0xA0 SHL SUB AND EQ PUSH2 0x1D81 JUMPI PUSH1 0x40 MLOAD PUSH4 0x118CDAA7 PUSH1 0xE0 SHL DUP2 MSTORE CALLER PUSH1 0x4 DUP3 ADD MSTORE PUSH1 0x24 ADD PUSH2 0x11AA JUMP JUMPDEST PUSH2 0x1E5D DUP4 DUP4 DUP4 PUSH1 0x1 PUSH2 0x3F6E JUMP JUMPDEST PUSH0 DUP3 DUP2 MSTORE PUSH32 0x542A41881EE128A365A727B282C86FA859579490B9BB45AAB8503648C8E7900 PUSH1 0x20 DUP2 SWAP1 MSTORE PUSH1 0x40 SWAP1 SWAP2 KECCAK256 PUSH2 0x35E1 DUP4 DUP3 PUSH2 0x5D1B JUMP JUMPDEST POP PUSH1 0x40 MLOAD DUP4 DUP2 MSTORE PUSH32 0xF8E1A15ABA9398E019F0B49DF1A4FDE98EE17AE345CB5F6B5E2C27F5033E8CE7 SWAP1 PUSH1 0x20 ADD PUSH1 0x40 MLOAD DUP1 SWAP2 SUB SWAP1 LOG1 POP POP POP JUMP JUMPDEST PUSH0 DUP1 MLOAD PUSH1 0x20 PUSH2 0x5F3D DUP4 CODECOPY DUP2 MLOAD SWAP2 MSTORE SLOAD PUSH1 0xFF AND ISZERO PUSH2 0x1D81 JUMPI PUSH1 0x40 MLOAD PUSH4 0xD93C0665 PUSH1 0xE0 SHL DUP2 MSTORE PUSH1 0x4 ADD PUSH1 0x40 MLOAD DUP1 SWAP2 SUB SWAP1 REVERT JUMPDEST PUSH0 DUP3 DUP2 MSTORE PUSH1 0x2 PUSH1 0x20 MSTORE PUSH1 0x40 SWAP1 KECCAK256 SLOAD PUSH2 0x100 SWAP1 DIV PUSH1 0xFF AND PUSH2 0x3685 JUMPI PUSH1 0x40 MLOAD PUSH3 0x461BCD PUSH1 0xE5 SHL DUP2 MSTORE PUSH1 0x20 PUSH1 0x4 DUP3 ADD MSTORE PUSH0 PUSH1 0x24 DUP3 ADD MSTORE PUSH1 0x44 ADD PUSH2 0x11AA JUMP JUMPDEST PUSH0 DUP3 DUP2 MSTORE PUSH1 0x2 PUSH1 0x20 SWAP1 DUP2 MSTORE PUSH1 0x40 SWAP1 SWAP2 KECCAK256 DUP1 SLOAD PUSH1 0xFF NOT AND PUSH1 0x1 SWAP1 DUP2 OR DUP3 SSTORE DUP4 MLOAD PUSH2 0x1E5D SWAP4 SWAP3 SWAP1 SWAP2 ADD SWAP2 DUP5 ADD SWAP1 PUSH2 0x4E08 JUMP JUMPDEST PUSH0 DUP1 PUSH2 0x36C0 DUP5 PUSH2 0x3F35 JUMP JUMPDEST SWAP1 POP PUSH1 0x1 PUSH1 0x1 PUSH1 0xA0 SHL SUB DUP2 AND ISZERO DUP1 PUSH2 0x36DF JUMPI POP PUSH1 0x1 PUSH1 0x1 PUSH1 0xA0 SHL SUB DUP6 AND ISZERO JUMPDEST ISZERO PUSH2 0x37BF JUMPI PUSH1 0x1 PUSH1 0x1 PUSH1 0xA0 SHL SUB DUP6 AND PUSH2 0x37BA JUMPI PUSH1 0xB SLOAD PUSH1 0x40 MLOAD PUSH4 0x9FC2D67 PUSH1 0xE1 SHL DUP2 MSTORE PUSH1 0x4 DUP2 ADD DUP7 SWAP1 MSTORE PUSH0 SWAP2 PUSH1 0x1 PUSH1 0x1 PUSH1 0xA0 SHL SUB AND SWAP1 PUSH4 0x13F85ACE SWAP1 PUSH1 0x24 ADD PUSH1 0xE0 PUSH1 0x40 MLOAD DUP1 DUP4 SUB DUP2 DUP7 GAS STATICCALL ISZERO DUP1 ISZERO PUSH2 0x3739 JUMPI RETURNDATASIZE PUSH0 DUP1 RETURNDATACOPY RETURNDATASIZE PUSH0 REVERT JUMPDEST POP POP POP POP PUSH1 0x40 MLOAD RETURNDATASIZE PUSH1 0x1F NOT PUSH1 0x1F DUP3 ADD AND DUP3 ADD DUP1 PUSH1 0x40 MSTORE POP DUP2 ADD SWAP1 PUSH2 0x375D SWAP2 SWAP1 PUSH2 0x54FF JUMP JUMPDEST PUSH1 0xB SLOAD DUP2 MLOAD PUSH1 0x40 MLOAD PUSH3 0x3EAE9 PUSH1 0xE0 SHL DUP2 MSTORE PUSH1 0x4 DUP2 ADD SWAP2 SWAP1 SWAP2 MSTORE SWAP2 SWAP3 POP PUSH1 0x1 PUSH1 0x1 PUSH1 0xA0 SHL SUB AND SWAP1 PUSH3 0x3EAE9 SWAP1 PUSH1 0x24 ADD PUSH0 PUSH1 0x40 MLOAD DUP1 DUP4 SUB DUP2 PUSH0 DUP8 DUP1 EXTCODESIZE ISZERO DUP1 ISZERO PUSH2 0x37A2 JUMPI PUSH0 DUP1 REVERT JUMPDEST POP GAS CALL ISZERO DUP1 ISZERO PUSH2 0x37B4 JUMPI RETURNDATASIZE PUSH0 DUP1 RETURNDATACOPY RETURNDATASIZE PUSH0 REVERT JUMPDEST POP POP POP POP POP JUMPDEST PUSH2 0x382C JUMP JUMPDEST PUSH1 0xD SLOAD PUSH1 0x1 PUSH1 0x1 PUSH1 0xA0 SHL SUB AND PUSH2 0x37D4 DUP6 PUSH2 0x2802 JUMP JUMPDEST PUSH1 0x1 PUSH1 0x1 PUSH1 0xA0 SHL SUB AND EQ DUP1 PUSH2 0x37F6 JUMPI POP PUSH1 0xD SLOAD PUSH1 0x1 PUSH1 0x1 PUSH1 0xA0 SHL SUB DUP7 DUP2 AND SWAP2 AND EQ JUMPDEST PUSH2 0x382C JUMPI PUSH1 0xD SLOAD PUSH1 0x1 PUSH1 0xA0 SHL SWAP1 DIV PUSH1 0xFF AND PUSH2 0x382C JUMPI PUSH1 0x40 MLOAD PUSH3 0x461BCD PUSH1 0xE5 SHL DUP2 MSTORE PUSH1 0x20 PUSH1 0x4 DUP3 ADD MSTORE PUSH0 PUSH1 0x24 DUP3 ADD MSTORE PUSH1 0x44 ADD PUSH2 0x11AA JUMP JUMPDEST PUSH2 0x3837 DUP6 DUP6 DUP6 PUSH2 0x4081 JUMP JUMPDEST SWAP6 SWAP5 POP POP POP POP POP JUMP JUMPDEST PUSH0 PUSH2 0x384C PUSH0 DUP4 PUSH0 PUSH2 0x36B5 JUMP JUMPDEST SWAP1 POP PUSH1 0x1 PUSH1 0x1 PUSH1 0xA0 SHL SUB DUP2 AND PUSH2 0x11E0 JUMPI PUSH1 0x40 MLOAD PUSH4 0x7E273289 PUSH1 0xE0 SHL DUP2 MSTORE PUSH1 0x4 DUP2 ADD DUP4 SWAP1 MSTORE PUSH1 0x24 ADD PUSH2 0x11AA JUMP JUMPDEST PUSH2 0x3880 PUSH2 0x4095 JUMP JUMPDEST PUSH0 DUP1 MLOAD PUSH1 0x20 PUSH2 0x5F3D DUP4 CODECOPY DUP2 MLOAD SWAP2 MSTORE DUP1 SLOAD PUSH1 0xFF NOT AND DUP2 SSTORE PUSH32 0x5DB9EE0A495BF2E6FF9C91A7834C1BA4FDD244A5E8AA4E537BD38AEAE4B073AA CALLER JUMPDEST PUSH1 0x40 MLOAD PUSH1 0x1 PUSH1 0x1 PUSH1 0xA0 SHL SUB SWAP1 SWAP2 AND DUP2 MSTORE PUSH1 0x20 ADD PUSH1 0x40 MLOAD DUP1 SWAP2 SUB SWAP1 LOG1 POP JUMP JUMPDEST PUSH0 PUSH2 0x38E0 PUSH2 0x361A JUMP JUMPDEST PUSH2 0x38EB DUP5 DUP5 DUP5 PUSH2 0x40C4 JUMP JUMPDEST SWAP5 SWAP4 POP POP POP POP JUMP JUMPDEST ADDRESS PUSH1 0x1 PUSH1 0x1 PUSH1 0xA0 SHL SUB PUSH32 0x0 AND EQ DUP1 PUSH2 0x3979 JUMPI POP PUSH32 0x0 PUSH1 0x1 PUSH1 0x1 PUSH1 0xA0 SHL SUB AND PUSH2 0x396D PUSH0 DUP1 MLOAD PUSH1 0x20 PUSH2 0x5F1D DUP4 CODECOPY DUP2 MLOAD SWAP2 MSTORE SLOAD PUSH1 0x1 PUSH1 0x1 PUSH1 0xA0 SHL SUB AND SWAP1 JUMP JUMPDEST PUSH1 0x1 PUSH1 0x1 PUSH1 0xA0 SHL SUB AND EQ ISZERO JUMPDEST ISZERO PUSH2 0x1D81 JUMPI PUSH1 0x40 MLOAD PUSH4 0x703E46DD PUSH1 0xE1 SHL DUP2 MSTORE PUSH1 0x4 ADD PUSH1 0x40 MLOAD DUP1 SWAP2 SUB SWAP1 REVERT JUMPDEST PUSH2 0x1D6E PUSH2 0x3569 JUMP JUMPDEST DUP2 PUSH1 0x1 PUSH1 0x1 PUSH1 0xA0 SHL SUB AND PUSH4 0x52D1902D PUSH1 0x40 MLOAD DUP2 PUSH4 0xFFFFFFFF AND PUSH1 0xE0 SHL DUP2 MSTORE PUSH1 0x4 ADD PUSH1 0x20 PUSH1 0x40 MLOAD DUP1 DUP4 SUB DUP2 DUP7 GAS STATICCALL SWAP3 POP POP POP DUP1 ISZERO PUSH2 0x39F9 JUMPI POP PUSH1 0x40 DUP1 MLOAD PUSH1 0x1F RETURNDATASIZE SWAP1 DUP2 ADD PUSH1 0x1F NOT AND DUP3 ADD SWAP1 SWAP3 MSTORE PUSH2 0x39F6 SWAP2 DUP2 ADD SWAP1 PUSH2 0x5690 JUMP JUMPDEST PUSH1 0x1 JUMPDEST PUSH2 0x3A21 JUMPI PUSH1 0x40 MLOAD PUSH4 0x4C9C8CE3 PUSH1 0xE0 SHL DUP2 MSTORE PUSH1 0x1 PUSH1 0x1 PUSH1 0xA0 SHL SUB DUP4 AND PUSH1 0x4 DUP3 ADD MSTORE PUSH1 0x24 ADD PUSH2 0x11AA JUMP JUMPDEST PUSH0 DUP1 MLOAD PUSH1 0x20 PUSH2 0x5F1D DUP4 CODECOPY DUP2 MLOAD SWAP2 MSTORE DUP2 EQ PUSH2 0x3A51 JUMPI PUSH1 0x40 MLOAD PUSH4 0x2A875269 PUSH1 0xE2 SHL DUP2 MSTORE PUSH1 0x4 DUP2 ADD DUP3 SWAP1 MSTORE PUSH1 0x24 ADD PUSH2 0x11AA JUMP JUMPDEST PUSH2 0x1E5D DUP4 DUP4 PUSH2 0x4277 JUMP JUMPDEST ADDRESS PUSH1 0x1 PUSH1 0x1 PUSH1 0xA0 SHL SUB PUSH32 0x0 AND EQ PUSH2 0x1D81 JUMPI PUSH1 0x40 MLOAD PUSH4 0x703E46DD PUSH1 0xE1 SHL DUP2 MSTORE PUSH1 0x4 ADD PUSH1 0x40 MLOAD DUP1 SWAP2 SUB SWAP1 REVERT JUMPDEST PUSH32 0x9016D09D72D40FDAE2FD8CEAC6B6234C7706214FD39C1CD1E609A0528C199300 DUP1 SLOAD PUSH1 0x1 PUSH1 0x1 PUSH1 0xA0 SHL SUB NOT DUP2 AND PUSH1 0x1 PUSH1 0x1 PUSH1 0xA0 SHL SUB DUP5 DUP2 AND SWAP2 DUP3 OR DUP5 SSTORE PUSH1 0x40 MLOAD SWAP3 AND SWAP2 DUP3 SWAP1 PUSH32 0x8BE0079C531659141344CD1FD0A4F28419497F9722A3DAAFE3B4186F6B6457E0 SWAP1 PUSH0 SWAP1 LOG3 POP POP POP JUMP JUMPDEST PUSH2 0x3B1C PUSH2 0x42CC JUMP JUMPDEST PUSH2 0x11E0 DUP3 DUP3 PUSH2 0x4315 JUMP JUMPDEST PUSH2 0x1D81 PUSH2 0x42CC JUMP JUMPDEST PUSH2 0x3B36 PUSH2 0x42CC JUMP JUMPDEST PUSH2 0x1D81 PUSH2 0x4345 JUMP JUMPDEST PUSH2 0x3B46 PUSH2 0x42CC JUMP JUMPDEST PUSH2 0x1D6E DUP2 PUSH2 0x4365 JUMP JUMPDEST PUSH2 0x3B57 PUSH2 0x361A JUMP JUMPDEST PUSH0 DUP1 MLOAD PUSH1 0x20 PUSH2 0x5F3D DUP4 CODECOPY DUP2 MLOAD SWAP2 MSTORE DUP1 SLOAD PUSH1 0xFF NOT AND PUSH1 0x1 OR DUP2 SSTORE PUSH32 0x62E78CEA01BEE320CD4E420270B5EA74000D11B0C9F74754EBDBFC544B05A258 CALLER PUSH2 0x38B9 JUMP JUMPDEST PUSH1 0x1 SLOAD PUSH0 SWAP1 PUSH2 0x3BA6 DUP5 DUP3 PUSH2 0x436D JUMP JUMPDEST PUSH2 0x3BB0 DUP2 DUP5 PUSH2 0x35A8 JUMP JUMPDEST PUSH0 DUP1 SLOAD SWAP1 DUP1 PUSH2 0x3BBE DUP4 PUSH2 0x5B43 JUMP JUMPDEST SWAP1 SWAP2 SSTORE POP SWAP1 SWAP5 SWAP4 POP POP POP POP JUMP JUMPDEST PUSH0 DUP1 MLOAD PUSH1 0x20 PUSH2 0x5EFD DUP4 CODECOPY DUP2 MLOAD SWAP2 MSTORE PUSH1 0x1 PUSH1 0x1 PUSH1 0xA0 SHL SUB DUP4 AND PUSH2 0x3C0B JUMPI PUSH1 0x40 MLOAD PUSH4 0xB611743 PUSH1 0xE3 SHL DUP2 MSTORE PUSH1 0x1 PUSH1 0x1 PUSH1 0xA0 SHL SUB DUP5 AND PUSH1 0x4 DUP3 ADD MSTORE PUSH1 0x24 ADD PUSH2 0x11AA JUMP JUMPDEST PUSH1 0x1 PUSH1 0x1 PUSH1 0xA0 SHL SUB DUP5 DUP2 AND PUSH0 DUP2 DUP2 MSTORE PUSH1 0x5 DUP5 ADD PUSH1 0x20 SWAP1 DUP2 MSTORE PUSH1 0x40 DUP1 DUP4 KECCAK256 SWAP5 DUP9 AND DUP1 DUP5 MSTORE SWAP5 DUP3 MSTORE SWAP2 DUP3 SWAP1 KECCAK256 DUP1 SLOAD PUSH1 0xFF NOT AND DUP8 ISZERO ISZERO SWAP1 DUP2 OR SWAP1 SWAP2 SSTORE SWAP2 MLOAD SWAP2 DUP3 MSTORE PUSH32 0x17307EAB39AB6107E8899845AD3D59BD9653F200F220920489CA2B5937696C31 SWAP2 ADD PUSH1 0x40 MLOAD DUP1 SWAP2 SUB SWAP1 LOG3 POP POP POP POP JUMP JUMPDEST PUSH1 0x40 DUP1 MLOAD PUSH1 0x1 PUSH1 0x1 PUSH1 0xA0 SHL SUB DUP5 AND PUSH1 0x24 DUP3 ADD MSTORE PUSH1 0x44 DUP1 DUP3 ADD DUP5 SWAP1 MSTORE DUP3 MLOAD DUP1 DUP4 SUB SWAP1 SWAP2 ADD DUP2 MSTORE PUSH1 0x64 SWAP1 SWAP2 ADD SWAP1 SWAP2 MSTORE PUSH1 0x20 DUP2 ADD DUP1 MLOAD PUSH1 0x1 PUSH1 0x1 PUSH1 0xE0 SHL SUB AND PUSH4 0xA9059CBB PUSH1 0xE0 SHL OR SWAP1 MSTORE PUSH2 0x1E5D SWAP1 DUP5 SWAP1 PUSH2 0x4386 JUMP JUMPDEST PUSH1 0x1 PUSH1 0x1 PUSH1 0xA0 SHL SUB DUP4 AND EXTCODESIZE ISZERO PUSH2 0x1BC1 JUMPI PUSH1 0x40 MLOAD PUSH4 0xA85BD01 PUSH1 0xE1 SHL DUP2 MSTORE PUSH1 0x1 PUSH1 0x1 PUSH1 0xA0 SHL SUB DUP5 AND SWAP1 PUSH4 0x150B7A02 SWAP1 PUSH2 0x3D0E SWAP1 CALLER SWAP1 DUP9 SWAP1 DUP8 SWAP1 DUP8 SWAP1 PUSH1 0x4 ADD PUSH2 0x5DD6 JUMP JUMPDEST PUSH1 0x20 PUSH1 0x40 MLOAD DUP1 DUP4 SUB DUP2 PUSH0 DUP8 GAS CALL SWAP3 POP POP POP DUP1 ISZERO PUSH2 0x3D48 JUMPI POP PUSH1 0x40 DUP1 MLOAD PUSH1 0x1F RETURNDATASIZE SWAP1 DUP2 ADD PUSH1 0x1F NOT AND DUP3 ADD SWAP1 SWAP3 MSTORE PUSH2 0x3D45 SWAP2 DUP2 ADD SWAP1 PUSH2 0x5E08 JUMP JUMPDEST PUSH1 0x1 JUMPDEST PUSH2 0x3DAF JUMPI RETURNDATASIZE DUP1 DUP1 ISZERO PUSH2 0x3D75 JUMPI PUSH1 0x40 MLOAD SWAP2 POP PUSH1 0x1F NOT PUSH1 0x3F RETURNDATASIZE ADD AND DUP3 ADD PUSH1 0x40 MSTORE RETURNDATASIZE DUP3 MSTORE RETURNDATASIZE PUSH0 PUSH1 0x20 DUP5 ADD RETURNDATACOPY PUSH2 0x3D7A JUMP JUMPDEST PUSH1 0x60 SWAP2 POP JUMPDEST POP DUP1 MLOAD PUSH0 SUB PUSH2 0x3DA7 JUMPI PUSH1 0x40 MLOAD PUSH4 0x32505749 PUSH1 0xE1 SHL DUP2 MSTORE PUSH1 0x1 PUSH1 0x1 PUSH1 0xA0 SHL SUB DUP6 AND PUSH1 0x4 DUP3 ADD MSTORE PUSH1 0x24 ADD PUSH2 0x11AA JUMP JUMPDEST DUP1 MLOAD DUP2 PUSH1 0x20 ADD REVERT JUMPDEST PUSH1 0x1 PUSH1 0x1 PUSH1 0xE0 SHL SUB NOT DUP2 AND PUSH4 0xA85BD01 PUSH1 0xE1 SHL EQ PUSH2 0x2B80 JUMPI PUSH1 0x40 MLOAD PUSH4 0x32505749 PUSH1 0xE1 SHL DUP2 MSTORE PUSH1 0x1 PUSH1 0x1 PUSH1 0xA0 SHL SUB DUP6 AND PUSH1 0x4 DUP3 ADD MSTORE PUSH1 0x24 ADD PUSH2 0x11AA JUMP JUMPDEST PUSH1 0x60 PUSH32 0x542A41881EE128A365A727B282C86FA859579490B9BB45AAB8503648C8E7900 PUSH2 0x3E17 DUP4 PUSH2 0x34F9 JUMP JUMPDEST POP PUSH0 DUP4 DUP2 MSTORE PUSH1 0x20 DUP3 SWAP1 MSTORE PUSH1 0x40 DUP2 KECCAK256 DUP1 SLOAD PUSH2 0x3E30 SWAP1 PUSH2 0x5419 JUMP JUMPDEST DUP1 PUSH1 0x1F ADD PUSH1 0x20 DUP1 SWAP2 DIV MUL PUSH1 0x20 ADD PUSH1 0x40 MLOAD SWAP1 DUP2 ADD PUSH1 0x40 MSTORE DUP1 SWAP3 SWAP2 SWAP1 DUP2 DUP2 MSTORE PUSH1 0x20 ADD DUP3 DUP1 SLOAD PUSH2 0x3E5C SWAP1 PUSH2 0x5419 JUMP JUMPDEST DUP1 ISZERO PUSH2 0x3EA7 JUMPI DUP1 PUSH1 0x1F LT PUSH2 0x3E7E JUMPI PUSH2 0x100 DUP1 DUP4 SLOAD DIV MUL DUP4 MSTORE SWAP2 PUSH1 0x20 ADD SWAP2 PUSH2 0x3EA7 JUMP JUMPDEST DUP3 ADD SWAP2 SWAP1 PUSH0 MSTORE PUSH1 0x20 PUSH0 KECCAK256 SWAP1 JUMPDEST DUP2 SLOAD DUP2 MSTORE SWAP1 PUSH1 0x1 ADD SWAP1 PUSH1 0x20 ADD DUP1 DUP4 GT PUSH2 0x3E8A JUMPI DUP3 SWAP1 SUB PUSH1 0x1F AND DUP3 ADD SWAP2 JUMPDEST POP POP POP POP POP SWAP1 POP PUSH0 PUSH2 0x3EC3 PUSH1 0x40 DUP1 MLOAD PUSH1 0x20 DUP2 ADD SWAP1 SWAP2 MSTORE PUSH0 DUP2 MSTORE SWAP1 JUMP JUMPDEST SWAP1 POP DUP1 MLOAD PUSH0 SUB PUSH2 0x3ED5 JUMPI POP SWAP4 SWAP3 POP POP POP JUMP JUMPDEST DUP2 MLOAD ISZERO PUSH2 0x3F08 JUMPI DUP1 DUP3 PUSH1 0x40 MLOAD PUSH1 0x20 ADD PUSH2 0x3EEF SWAP3 SWAP2 SWAP1 PUSH2 0x5E23 JUMP JUMPDEST PUSH1 0x40 MLOAD PUSH1 0x20 DUP2 DUP4 SUB SUB DUP2 MSTORE SWAP1 PUSH1 0x40 MSTORE SWAP4 POP POP POP POP SWAP2 SWAP1 POP JUMP JUMPDEST PUSH2 0x3837 DUP6 PUSH2 0x43E7 JUMP JUMPDEST PUSH0 PUSH1 0x1 PUSH1 0x1 PUSH1 0xE0 SHL SUB NOT DUP3 AND PUSH4 0x780E9D63 PUSH1 0xE0 SHL EQ DUP1 PUSH2 0x10BC JUMPI POP PUSH2 0x10BC DUP3 PUSH2 0x4457 JUMP JUMPDEST PUSH0 SWAP1 DUP2 MSTORE PUSH32 0x80BB2B638CC20BC4D0A60D66940F3AB4A00C1D7B313497CA82FB0B4AB0079302 PUSH1 0x20 MSTORE PUSH1 0x40 SWAP1 KECCAK256 SLOAD PUSH1 0x1 PUSH1 0x1 PUSH1 0xA0 SHL SUB AND SWAP1 JUMP JUMPDEST PUSH0 DUP1 MLOAD PUSH1 0x20 PUSH2 0x5EFD DUP4 CODECOPY DUP2 MLOAD SWAP2 MSTORE DUP2 DUP1 PUSH2 0x3F90 JUMPI POP PUSH1 0x1 PUSH1 0x1 PUSH1 0xA0 SHL SUB DUP4 AND ISZERO ISZERO JUMPDEST ISZERO PUSH2 0x4051 JUMPI PUSH0 PUSH2 0x3F9F DUP6 PUSH2 0x34F9 JUMP JUMPDEST SWAP1 POP PUSH1 0x1 PUSH1 0x1 PUSH1 0xA0 SHL SUB DUP5 AND ISZERO DUP1 ISZERO SWAP1 PUSH2 0x3FCB JUMPI POP DUP4 PUSH1 0x1 PUSH1 0x1 PUSH1 0xA0 SHL SUB AND DUP2 PUSH1 0x1 PUSH1 0x1 PUSH1 0xA0 SHL SUB AND EQ ISZERO JUMPDEST DUP1 ISZERO PUSH2 0x3FDE JUMPI POP PUSH2 0x3FDC DUP2 DUP6 PUSH2 0x33C3 JUMP JUMPDEST ISZERO JUMPDEST ISZERO PUSH2 0x4007 JUMPI PUSH1 0x40 MLOAD PUSH4 0xA9FBF51F PUSH1 0xE0 SHL DUP2 MSTORE PUSH1 0x1 PUSH1 0x1 PUSH1 0xA0 SHL SUB DUP6 AND PUSH1 0x4 DUP3 ADD MSTORE PUSH1 0x24 ADD PUSH2 0x11AA JUMP JUMPDEST DUP3 ISZERO PUSH2 0x404F JUMPI DUP5 DUP7 PUSH1 0x1 PUSH1 0x1 PUSH1 0xA0 SHL SUB AND DUP3 PUSH1 0x1 PUSH1 0x1 PUSH1 0xA0 SHL SUB AND PUSH32 0x8C5BE1E5EBEC7D5BD14F71427D1E84F3DD0314C0F7B2291E5B200AC8C7C3B925 PUSH1 0x40 MLOAD PUSH1 0x40 MLOAD DUP1 SWAP2 SUB SWAP1 LOG4 JUMPDEST POP JUMPDEST PUSH0 SWAP4 DUP5 MSTORE PUSH1 0x4 ADD PUSH1 0x20 MSTORE POP POP PUSH1 0x40 SWAP1 KECCAK256 DUP1 SLOAD PUSH1 0x1 PUSH1 0x1 PUSH1 0xA0 SHL SUB NOT AND PUSH1 0x1 PUSH1 0x1 PUSH1 0xA0 SHL SUB SWAP3 SWAP1 SWAP3 AND SWAP2 SWAP1 SWAP2 OR SWAP1 SSTORE JUMP JUMPDEST PUSH0 PUSH2 0x408A PUSH2 0x361A JUMP JUMPDEST PUSH2 0x38EB DUP5 DUP5 DUP5 PUSH2 0x44A6 JUMP JUMPDEST PUSH0 DUP1 MLOAD PUSH1 0x20 PUSH2 0x5F3D DUP4 CODECOPY DUP2 MLOAD SWAP2 MSTORE SLOAD PUSH1 0xFF AND PUSH2 0x1D81 JUMPI PUSH1 0x40 MLOAD PUSH4 0x8DFC202B PUSH1 0xE0 SHL DUP2 MSTORE PUSH1 0x4 ADD PUSH1 0x40 MLOAD DUP1 SWAP2 SUB SWAP1 REVERT JUMPDEST PUSH1 0x5 SLOAD PUSH1 0x40 DUP1 MLOAD PUSH1 0xC0 DUP2 ADD DUP3 MSTORE PUSH1 0x7 SLOAD DUP2 MSTORE PUSH1 0x6 SLOAD PUSH1 0x20 DUP1 DUP4 ADD SWAP2 SWAP1 SWAP2 MSTORE PUSH1 0x8 SLOAD PUSH5 0x100000000 DUP2 DIV PUSH2 0xFFFF AND DUP4 DUP6 ADD MSTORE PUSH4 0xFFFFFFFF DUP1 DUP3 AND PUSH1 0x60 DUP6 ADD MSTORE DUP9 AND PUSH1 0x80 DUP5 ADD MSTORE DUP4 MLOAD SWAP2 DUP3 ADD SWAP1 SWAP4 MSTORE PUSH1 0x1 PUSH1 0x30 SHL SWAP1 SWAP3 DIV PUSH1 0xFF AND ISZERO ISZERO DUP3 MSTORE PUSH0 SWAP3 PUSH1 0x1 PUSH1 0x1 PUSH1 0xA0 SHL SUB AND SWAP2 PUSH4 0x9B1C385E SWAP2 SWAP1 PUSH1 0xA0 DUP3 ADD SWAP1 PUSH2 0x4141 SWAP1 PUSH2 0x45AF JUMP JUMPDEST DUP2 MSTORE POP PUSH1 0x40 MLOAD DUP3 PUSH4 0xFFFFFFFF AND PUSH1 0xE0 SHL DUP2 MSTORE PUSH1 0x4 ADD PUSH2 0x4160 SWAP2 SWAP1 PUSH2 0x5E51 JUMP JUMPDEST PUSH1 0x20 PUSH1 0x40 MLOAD DUP1 DUP4 SUB DUP2 PUSH0 DUP8 GAS CALL ISZERO DUP1 ISZERO PUSH2 0x417C JUMPI RETURNDATASIZE PUSH0 DUP1 RETURNDATACOPY RETURNDATASIZE PUSH0 REVERT JUMPDEST POP POP POP POP PUSH1 0x40 MLOAD RETURNDATASIZE PUSH1 0x1F NOT PUSH1 0x1F DUP3 ADD AND DUP3 ADD DUP1 PUSH1 0x40 MSTORE POP DUP2 ADD SWAP1 PUSH2 0x41A0 SWAP2 SWAP1 PUSH2 0x5690 JUMP JUMPDEST PUSH1 0x40 DUP1 MLOAD PUSH1 0xA0 DUP2 ADD DUP3 MSTORE PUSH0 DUP1 DUP3 MSTORE PUSH1 0x1 PUSH1 0x20 DUP1 DUP5 ADD DUP3 DUP2 MSTORE DUP6 MLOAD DUP5 DUP2 MSTORE DUP1 DUP4 ADD DUP8 MSTORE DUP6 DUP8 ADD SWAP1 DUP2 MSTORE PUSH1 0x60 DUP7 ADD DUP12 SWAP1 MSTORE PUSH1 0x80 DUP7 ADD DUP11 SWAP1 MSTORE DUP8 DUP6 MSTORE PUSH1 0x2 DUP4 MSTORE SWAP6 SWAP1 SWAP4 KECCAK256 DUP5 MLOAD DUP2 SLOAD SWAP5 MLOAD PUSH2 0xFFFF NOT SWAP1 SWAP6 AND SWAP1 ISZERO ISZERO PUSH2 0xFF00 NOT AND OR PUSH2 0x100 SWAP5 ISZERO ISZERO SWAP5 SWAP1 SWAP5 MUL SWAP4 SWAP1 SWAP4 OR DUP4 SSTORE SWAP4 MLOAD DUP1 MLOAD SWAP6 SWAP7 POP SWAP3 SWAP5 SWAP2 SWAP4 PUSH2 0x4222 SWAP4 SWAP2 DUP6 ADD SWAP3 SWAP2 ADD SWAP1 PUSH2 0x4E08 JUMP JUMPDEST POP PUSH1 0x60 DUP3 ADD MLOAD PUSH1 0x2 DUP3 ADD SSTORE PUSH1 0x80 SWAP1 SWAP2 ADD MLOAD PUSH1 0x3 SWAP2 DUP3 ADD SSTORE DUP1 SLOAD PUSH1 0x1 DUP2 ADD DUP3 SSTORE PUSH0 SWAP2 SWAP1 SWAP2 MSTORE PUSH32 0xC2575A0E9E593C00F959F8C92F12DB2869C3395A3B0502D05E2516446F71F85B ADD DUP2 SWAP1 SSTORE PUSH1 0x4 DUP2 SWAP1 SSTORE SWAP4 SWAP3 POP POP POP JUMP JUMPDEST PUSH2 0x4280 DUP3 PUSH2 0x4620 JUMP JUMPDEST PUSH1 0x40 MLOAD PUSH1 0x1 PUSH1 0x1 PUSH1 0xA0 SHL SUB DUP4 AND SWAP1 PUSH32 0xBC7CD75A20EE27FD9ADEBAB32041F755214DBC6BFFA90CC0225B39DA2E5C2D3B SWAP1 PUSH0 SWAP1 LOG2 DUP1 MLOAD ISZERO PUSH2 0x42C4 JUMPI PUSH2 0x1E5D DUP3 DUP3 PUSH2 0x4683 JUMP JUMPDEST PUSH2 0x11E0 PUSH2 0x46EC JUMP JUMPDEST PUSH32 0xF0C57E16840DF040F15088DC2F81FE391C3923BEC73E23A9662EFC9C229C6A00 SLOAD PUSH1 0x1 PUSH1 0x40 SHL SWAP1 DIV PUSH1 0xFF AND PUSH2 0x1D81 JUMPI PUSH1 0x40 MLOAD PUSH4 0x1AFCD79F PUSH1 0xE3 SHL DUP2 MSTORE PUSH1 0x4 ADD PUSH1 0x40 MLOAD DUP1 SWAP2 SUB SWAP1 REVERT JUMPDEST PUSH2 0x431D PUSH2 0x42CC JUMP JUMPDEST PUSH0 DUP1 MLOAD PUSH1 0x20 PUSH2 0x5EFD DUP4 CODECOPY DUP2 MLOAD SWAP2 MSTORE DUP1 PUSH2 0x4336 DUP5 DUP3 PUSH2 0x5D1B JUMP JUMPDEST POP PUSH1 0x1 DUP2 ADD PUSH2 0x1BC1 DUP4 DUP3 PUSH2 0x5D1B JUMP JUMPDEST PUSH2 0x434D PUSH2 0x42CC JUMP JUMPDEST PUSH0 DUP1 MLOAD PUSH1 0x20 PUSH2 0x5F3D DUP4 CODECOPY DUP2 MLOAD SWAP2 MSTORE DUP1 SLOAD PUSH1 0xFF NOT AND SWAP1 SSTORE JUMP JUMPDEST PUSH2 0x3477 PUSH2 0x42CC JUMP JUMPDEST PUSH2 0x11E0 DUP3 DUP3 PUSH1 0x40 MLOAD DUP1 PUSH1 0x20 ADD PUSH1 0x40 MSTORE DUP1 PUSH0 DUP2 MSTORE POP PUSH2 0x470B JUMP JUMPDEST PUSH0 PUSH2 0x439A PUSH1 0x1 PUSH1 0x1 PUSH1 0xA0 SHL SUB DUP5 AND DUP4 PUSH2 0x4721 JUMP JUMPDEST SWAP1 POP DUP1 MLOAD PUSH0 EQ ISZERO DUP1 ISZERO PUSH2 0x43BE JUMPI POP DUP1 DUP1 PUSH1 0x20 ADD SWAP1 MLOAD DUP2 ADD SWAP1 PUSH2 0x43BC SWAP2 SWAP1 PUSH2 0x5B28 JUMP JUMPDEST ISZERO JUMPDEST ISZERO PUSH2 0x1E5D JUMPI PUSH1 0x40 MLOAD PUSH4 0x5274AFE7 PUSH1 0xE0 SHL DUP2 MSTORE PUSH1 0x1 PUSH1 0x1 PUSH1 0xA0 SHL SUB DUP5 AND PUSH1 0x4 DUP3 ADD MSTORE PUSH1 0x24 ADD PUSH2 0x11AA JUMP JUMPDEST PUSH1 0x60 PUSH2 0x43F2 DUP3 PUSH2 0x34F9 JUMP JUMPDEST POP PUSH0 PUSH2 0x4408 PUSH1 0x40 DUP1 MLOAD PUSH1 0x20 DUP2 ADD SWAP1 SWAP2 MSTORE PUSH0 DUP2 MSTORE SWAP1 JUMP JUMPDEST SWAP1 POP PUSH0 DUP2 MLOAD GT PUSH2 0x4426 JUMPI PUSH1 0x40 MLOAD DUP1 PUSH1 0x20 ADD PUSH1 0x40 MSTORE DUP1 PUSH0 DUP2 MSTORE POP PUSH2 0x1212 JUMP JUMPDEST DUP1 PUSH2 0x4430 DUP5 PUSH2 0x472E JUMP JUMPDEST PUSH1 0x40 MLOAD PUSH1 0x20 ADD PUSH2 0x4441 SWAP3 SWAP2 SWAP1 PUSH2 0x5E23 JUMP JUMPDEST PUSH1 0x40 MLOAD PUSH1 0x20 DUP2 DUP4 SUB SUB DUP2 MSTORE SWAP1 PUSH1 0x40 MSTORE SWAP4 SWAP3 POP POP POP JUMP JUMPDEST PUSH0 PUSH1 0x1 PUSH1 0x1 PUSH1 0xE0 SHL SUB NOT DUP3 AND PUSH4 0x80AC58CD PUSH1 0xE0 SHL EQ DUP1 PUSH2 0x4487 JUMPI POP PUSH1 0x1 PUSH1 0x1 PUSH1 0xE0 SHL SUB NOT DUP3 AND PUSH4 0x5B5E139F PUSH1 0xE0 SHL EQ JUMPDEST DUP1 PUSH2 0x10BC JUMPI POP PUSH4 0x1FFC9A7 PUSH1 0xE0 SHL PUSH1 0x1 PUSH1 0x1 PUSH1 0xE0 SHL SUB NOT DUP4 AND EQ PUSH2 0x10BC JUMP JUMPDEST PUSH0 DUP1 PUSH2 0x44B3 DUP6 DUP6 DUP6 PUSH2 0x47BD JUMP JUMPDEST SWAP1 POP PUSH1 0x1 PUSH1 0x1 PUSH1 0xA0 SHL SUB DUP2 AND PUSH2 0x454D JUMPI PUSH2 0x4548 DUP5 PUSH32 0x645E039705490088DAAD89BAE25049A34F4A9072D398537B1AB2425F24CBED02 DUP1 SLOAD PUSH0 DUP4 DUP2 MSTORE PUSH32 0x645E039705490088DAAD89BAE25049A34F4A9072D398537B1AB2425F24CBED03 PUSH1 0x20 MSTORE PUSH1 0x40 DUP2 KECCAK256 DUP3 SWAP1 SSTORE PUSH1 0x1 DUP3 ADD DUP4 SSTORE SWAP2 SWAP1 SWAP2 MSTORE PUSH32 0xA42F15E5D656F8155FD7419D740A6073999F19CD6E061449CE4A257150545BF2 ADD SSTORE JUMP JUMPDEST PUSH2 0x4570 JUMP JUMPDEST DUP5 PUSH1 0x1 PUSH1 0x1 PUSH1 0xA0 SHL SUB AND DUP2 PUSH1 0x1 PUSH1 0x1 PUSH1 0xA0 SHL SUB AND EQ PUSH2 0x4570 JUMPI PUSH2 0x4570 DUP2 DUP6 PUSH2 0x48BF JUMP JUMPDEST PUSH1 0x1 PUSH1 0x1 PUSH1 0xA0 SHL SUB DUP6 AND PUSH2 0x458C JUMPI PUSH2 0x4587 DUP5 PUSH2 0x495E JUMP JUMPDEST PUSH2 0x38EB JUMP JUMPDEST DUP5 PUSH1 0x1 PUSH1 0x1 PUSH1 0xA0 SHL SUB AND DUP2 PUSH1 0x1 PUSH1 0x1 PUSH1 0xA0 SHL SUB AND EQ PUSH2 0x38EB JUMPI PUSH2 0x38EB DUP6 DUP6 PUSH2 0x4A3E JUMP JUMPDEST PUSH1 0x60 PUSH32 0x92FD13387C7FE7BEFBC38D303D6468778FB9731BC4583F17D92989C6FCFDEAAA DUP3 PUSH1 0x40 MLOAD PUSH1 0x24 ADD PUSH2 0x45E8 SWAP2 MLOAD ISZERO ISZERO DUP2 MSTORE PUSH1 0x20 ADD SWAP1 JUMP JUMPDEST PUSH1 0x40 DUP1 MLOAD PUSH1 0x1F NOT DUP2 DUP5 SUB ADD DUP2 MSTORE SWAP2 SWAP1 MSTORE PUSH1 0x20 DUP2 ADD DUP1 MLOAD PUSH1 0x1 PUSH1 0x1 PUSH1 0xE0 SHL SUB AND PUSH1 0x1 PUSH1 0x1 PUSH1 0xE0 SHL SUB NOT SWAP1 SWAP4 AND SWAP3 SWAP1 SWAP3 OR SWAP1 SWAP2 MSTORE SWAP3 SWAP2 POP POP JUMP JUMPDEST DUP1 PUSH1 0x1 PUSH1 0x1 PUSH1 0xA0 SHL SUB AND EXTCODESIZE PUSH0 SUB PUSH2 0x4655 JUMPI PUSH1 0x40 MLOAD PUSH4 0x4C9C8CE3 PUSH1 0xE0 SHL DUP2 MSTORE PUSH1 0x1 PUSH1 0x1 PUSH1 0xA0 SHL SUB DUP3 AND PUSH1 0x4 DUP3 ADD MSTORE PUSH1 0x24 ADD PUSH2 0x11AA JUMP JUMPDEST PUSH0 DUP1 MLOAD PUSH1 0x20 PUSH2 0x5F1D DUP4 CODECOPY DUP2 MLOAD SWAP2 MSTORE DUP1 SLOAD PUSH1 0x1 PUSH1 0x1 PUSH1 0xA0 SHL SUB NOT AND PUSH1 0x1 PUSH1 0x1 PUSH1 0xA0 SHL SUB SWAP3 SWAP1 SWAP3 AND SWAP2 SWAP1 SWAP2 OR SWAP1 SSTORE JUMP JUMPDEST PUSH1 0x60 PUSH0 DUP1 DUP5 PUSH1 0x1 PUSH1 0x1 PUSH1 0xA0 SHL SUB AND DUP5 PUSH1 0x40 MLOAD PUSH2 0x469F SWAP2 SWAP1 PUSH2 0x5EAD JUMP JUMPDEST PUSH0 PUSH1 0x40 MLOAD DUP1 DUP4 SUB DUP2 DUP6 GAS DELEGATECALL SWAP2 POP POP RETURNDATASIZE DUP1 PUSH0 DUP2 EQ PUSH2 0x46D7 JUMPI PUSH1 0x40 MLOAD SWAP2 POP PUSH1 0x1F NOT PUSH1 0x3F RETURNDATASIZE ADD AND DUP3 ADD PUSH1 0x40 MSTORE RETURNDATASIZE DUP3 MSTORE RETURNDATASIZE PUSH0 PUSH1 0x20 DUP5 ADD RETURNDATACOPY PUSH2 0x46DC JUMP JUMPDEST PUSH1 0x60 SWAP2 POP JUMPDEST POP SWAP2 POP SWAP2 POP PUSH2 0x3837 DUP6 DUP4 DUP4 PUSH2 0x4A96 JUMP JUMPDEST CALLVALUE ISZERO PUSH2 0x1D81 JUMPI PUSH1 0x40 MLOAD PUSH4 0xB398979F PUSH1 0xE0 SHL DUP2 MSTORE PUSH1 0x4 ADD PUSH1 0x40 MLOAD DUP1 SWAP2 SUB SWAP1 REVERT JUMPDEST PUSH2 0x4715 DUP4 DUP4 PUSH2 0x4AF2 JUMP JUMPDEST PUSH2 0x1E5D PUSH0 DUP5 DUP5 DUP5 PUSH2 0x3CCC JUMP JUMPDEST PUSH1 0x60 PUSH2 0x1212 DUP4 DUP4 PUSH0 PUSH2 0x4B53 JUMP JUMPDEST PUSH1 0x60 PUSH0 PUSH2 0x473A DUP4 PUSH2 0x4BEC JUMP JUMPDEST PUSH1 0x1 ADD SWAP1 POP PUSH0 DUP2 PUSH1 0x1 PUSH1 0x1 PUSH1 0x40 SHL SUB DUP2 GT ISZERO PUSH2 0x4758 JUMPI PUSH2 0x4758 PUSH2 0x4F87 JUMP JUMPDEST PUSH1 0x40 MLOAD SWAP1 DUP1 DUP3 MSTORE DUP1 PUSH1 0x1F ADD PUSH1 0x1F NOT AND PUSH1 0x20 ADD DUP3 ADD PUSH1 0x40 MSTORE DUP1 ISZERO PUSH2 0x4782 JUMPI PUSH1 0x20 DUP3 ADD DUP2 DUP1 CALLDATASIZE DUP4 CALLDATACOPY ADD SWAP1 POP JUMPDEST POP SWAP1 POP DUP2 DUP2 ADD PUSH1 0x20 ADD JUMPDEST PUSH0 NOT ADD PUSH16 0x181899199A1A9B1B9C1CB0B131B232B3 PUSH1 0x81 SHL PUSH1 0xA DUP7 MOD BYTE DUP2 MSTORE8 PUSH1 0xA DUP6 DIV SWAP5 POP DUP5 PUSH2 0x478C JUMPI POP SWAP4 SWAP3 POP POP POP JUMP JUMPDEST PUSH0 PUSH0 DUP1 MLOAD PUSH1 0x20 PUSH2 0x5EFD DUP4 CODECOPY DUP2 MLOAD SWAP2 MSTORE DUP2 PUSH2 0x47D6 DUP6 PUSH2 0x3F35 JUMP JUMPDEST SWAP1 POP PUSH1 0x1 PUSH1 0x1 PUSH1 0xA0 SHL SUB DUP5 AND ISZERO PUSH2 0x47F2 JUMPI PUSH2 0x47F2 DUP2 DUP6 DUP8 PUSH2 0x4CC3 JUMP JUMPDEST PUSH1 0x1 PUSH1 0x1 PUSH1 0xA0 SHL SUB DUP2 AND ISZERO PUSH2 0x482E JUMPI PUSH2 0x480D PUSH0 DUP7 PUSH0 DUP1 PUSH2 0x3F6E JUMP JUMPDEST PUSH1 0x1 PUSH1 0x1 PUSH1 0xA0 SHL SUB DUP2 AND PUSH0 SWAP1 DUP2 MSTORE PUSH1 0x3 DUP4 ADD PUSH1 0x20 MSTORE PUSH1 0x40 SWAP1 KECCAK256 DUP1 SLOAD PUSH0 NOT ADD SWAP1 SSTORE JUMPDEST PUSH1 0x1 PUSH1 0x1 PUSH1 0xA0 SHL SUB DUP7 AND ISZERO PUSH2 0x485E JUMPI PUSH1 0x1 PUSH1 0x1 PUSH1 0xA0 SHL SUB DUP7 AND PUSH0 SWAP1 DUP2 MSTORE PUSH1 0x3 DUP4 ADD PUSH1 0x20 MSTORE PUSH1 0x40 SWAP1 KECCAK256 DUP1 SLOAD PUSH1 0x1 ADD SWAP1 SSTORE JUMPDEST PUSH0 DUP6 DUP2 MSTORE PUSH1 0x2 DUP4 ADD PUSH1 0x20 MSTORE PUSH1 0x40 DUP1 DUP3 KECCAK256 DUP1 SLOAD PUSH1 0x1 PUSH1 0x1 PUSH1 0xA0 SHL SUB NOT AND PUSH1 0x1 PUSH1 0x1 PUSH1 0xA0 SHL SUB DUP11 DUP2 AND SWAP2 DUP3 OR SWAP1 SWAP3 SSTORE SWAP2 MLOAD DUP9 SWAP4 SWAP2 DUP6 AND SWAP2 PUSH32 0xDDF252AD1BE2C89B69C2B068FC378DAA952BA7F163C4A11628F55A4DF523B3EF SWAP2 LOG4 SWAP6 SWAP5 POP POP POP POP POP JUMP JUMPDEST PUSH0 DUP1 MLOAD PUSH1 0x20 PUSH2 0x5EDD DUP4 CODECOPY DUP2 MLOAD SWAP2 MSTORE PUSH0 PUSH2 0x48D7 DUP5 PUSH2 0x286F JUMP JUMPDEST PUSH0 DUP5 DUP2 MSTORE PUSH1 0x1 DUP5 ADD PUSH1 0x20 MSTORE PUSH1 0x40 SWAP1 KECCAK256 SLOAD SWAP1 SWAP2 POP DUP1 DUP3 EQ PUSH2 0x492A JUMPI PUSH1 0x1 PUSH1 0x1 PUSH1 0xA0 SHL SUB DUP6 AND PUSH0 SWAP1 DUP2 MSTORE PUSH1 0x20 DUP5 DUP2 MSTORE PUSH1 0x40 DUP1 DUP4 KECCAK256 DUP6 DUP5 MSTORE DUP3 MSTORE DUP1 DUP4 KECCAK256 SLOAD DUP5 DUP5 MSTORE DUP2 DUP5 KECCAK256 DUP2 SWAP1 SSTORE DUP4 MSTORE PUSH1 0x1 DUP7 ADD SWAP1 SWAP2 MSTORE SWAP1 KECCAK256 DUP2 SWAP1 SSTORE JUMPDEST POP PUSH0 SWAP3 DUP4 MSTORE PUSH1 0x1 DUP3 ADD PUSH1 0x20 SWAP1 DUP2 MSTORE PUSH1 0x40 DUP1 DUP6 KECCAK256 DUP6 SWAP1 SSTORE PUSH1 0x1 PUSH1 0x1 PUSH1 0xA0 SHL SUB SWAP1 SWAP6 AND DUP5 MSTORE SWAP2 DUP3 MSTORE DUP4 DUP4 KECCAK256 SWAP1 DUP4 MSTORE SWAP1 MSTORE SWAP1 DUP2 KECCAK256 SSTORE JUMP JUMPDEST PUSH32 0x645E039705490088DAAD89BAE25049A34F4A9072D398537B1AB2425F24CBED02 SLOAD PUSH0 DUP1 MLOAD PUSH1 0x20 PUSH2 0x5EDD DUP4 CODECOPY DUP2 MLOAD SWAP2 MSTORE SWAP1 PUSH0 SWAP1 PUSH2 0x499D SWAP1 PUSH1 0x1 SWAP1 PUSH2 0x5465 JUMP JUMPDEST PUSH0 DUP5 DUP2 MSTORE PUSH1 0x3 DUP5 ADD PUSH1 0x20 MSTORE PUSH1 0x40 DUP2 KECCAK256 SLOAD PUSH1 0x2 DUP6 ADD DUP1 SLOAD SWAP4 SWAP5 POP SWAP1 SWAP3 DUP5 SWAP1 DUP2 LT PUSH2 0x49C8 JUMPI PUSH2 0x49C8 PUSH2 0x5935 JUMP JUMPDEST SWAP1 PUSH0 MSTORE PUSH1 0x20 PUSH0 KECCAK256 ADD SLOAD SWAP1 POP DUP1 DUP5 PUSH1 0x2 ADD DUP4 DUP2 SLOAD DUP2 LT PUSH2 0x49E9 JUMPI PUSH2 0x49E9 PUSH2 0x5935 JUMP JUMPDEST PUSH0 SWAP2 DUP3 MSTORE PUSH1 0x20 DUP1 DUP4 KECCAK256 SWAP1 SWAP2 ADD SWAP3 SWAP1 SWAP3 SSTORE DUP3 DUP2 MSTORE PUSH1 0x3 DUP7 ADD SWAP1 SWAP2 MSTORE PUSH1 0x40 DUP1 DUP3 KECCAK256 DUP5 SWAP1 SSTORE DUP7 DUP3 MSTORE DUP2 KECCAK256 SSTORE PUSH1 0x2 DUP5 ADD DUP1 SLOAD DUP1 PUSH2 0x4A24 JUMPI PUSH2 0x4A24 PUSH2 0x5EC8 JUMP JUMPDEST PUSH1 0x1 SWAP1 SUB DUP2 DUP2 SWAP1 PUSH0 MSTORE PUSH1 0x20 PUSH0 KECCAK256 ADD PUSH0 SWAP1 SSTORE SWAP1 SSTORE POP POP POP POP POP JUMP JUMPDEST PUSH0 DUP1 MLOAD PUSH1 0x20 PUSH2 0x5EDD DUP4 CODECOPY DUP2 MLOAD SWAP2 MSTORE PUSH0 PUSH1 0x1 PUSH2 0x4A58 DUP6 PUSH2 0x286F JUMP JUMPDEST PUSH2 0x4A62 SWAP2 SWAP1 PUSH2 0x5465 JUMP JUMPDEST PUSH1 0x1 PUSH1 0x1 PUSH1 0xA0 SHL SUB SWAP1 SWAP5 AND PUSH0 SWAP1 DUP2 MSTORE PUSH1 0x20 DUP4 DUP2 MSTORE PUSH1 0x40 DUP1 DUP4 KECCAK256 DUP8 DUP5 MSTORE DUP3 MSTORE DUP1 DUP4 KECCAK256 DUP7 SWAP1 SSTORE SWAP5 DUP3 MSTORE PUSH1 0x1 SWAP1 SWAP4 ADD SWAP1 SWAP3 MSTORE POP KECCAK256 SSTORE JUMP JUMPDEST PUSH1 0x60 DUP3 PUSH2 0x4AAB JUMPI PUSH2 0x4AA6 DUP3 PUSH2 0x4D27 JUMP JUMPDEST PUSH2 0x1212 JUMP JUMPDEST DUP2 MLOAD ISZERO DUP1 ISZERO PUSH2 0x4AC2 JUMPI POP PUSH1 0x1 PUSH1 0x1 PUSH1 0xA0 SHL SUB DUP5 AND EXTCODESIZE ISZERO JUMPDEST ISZERO PUSH2 0x4AEB JUMPI PUSH1 0x40 MLOAD PUSH4 0x9996B315 PUSH1 0xE0 SHL DUP2 MSTORE PUSH1 0x1 PUSH1 0x1 PUSH1 0xA0 SHL SUB DUP6 AND PUSH1 0x4 DUP3 ADD MSTORE PUSH1 0x24 ADD PUSH2 0x11AA JUMP JUMPDEST POP DUP1 PUSH2 0x1212 JUMP JUMPDEST PUSH1 0x1 PUSH1 0x1 PUSH1 0xA0 SHL SUB DUP3 AND PUSH2 0x4B1B JUMPI PUSH1 0x40 MLOAD PUSH4 0x32505749 PUSH1 0xE1 SHL DUP2 MSTORE PUSH0 PUSH1 0x4 DUP3 ADD MSTORE PUSH1 0x24 ADD PUSH2 0x11AA JUMP JUMPDEST PUSH0 PUSH2 0x4B27 DUP4 DUP4 PUSH0 PUSH2 0x36B5 JUMP JUMPDEST SWAP1 POP PUSH1 0x1 PUSH1 0x1 PUSH1 0xA0 SHL SUB DUP2 AND ISZERO PUSH2 0x1E5D JUMPI PUSH1 0x40 MLOAD PUSH4 0x39E35637 PUSH1 0xE1 SHL DUP2 MSTORE PUSH0 PUSH1 0x4 DUP3 ADD MSTORE PUSH1 0x24 ADD PUSH2 0x11AA JUMP JUMPDEST PUSH1 0x60 DUP2 SELFBALANCE LT ISZERO PUSH2 0x4B78 JUMPI PUSH1 0x40 MLOAD PUSH4 0xCD786059 PUSH1 0xE0 SHL DUP2 MSTORE ADDRESS PUSH1 0x4 DUP3 ADD MSTORE PUSH1 0x24 ADD PUSH2 0x11AA JUMP JUMPDEST PUSH0 DUP1 DUP6 PUSH1 0x1 PUSH1 0x1 PUSH1 0xA0 SHL SUB AND DUP5 DUP7 PUSH1 0x40 MLOAD PUSH2 0x4B93 SWAP2 SWAP1 PUSH2 0x5EAD JUMP JUMPDEST PUSH0 PUSH1 0x40 MLOAD DUP1 DUP4 SUB DUP2 DUP6 DUP8 GAS CALL SWAP3 POP POP POP RETURNDATASIZE DUP1 PUSH0 DUP2 EQ PUSH2 0x4BCD JUMPI PUSH1 0x40 MLOAD SWAP2 POP PUSH1 0x1F NOT PUSH1 0x3F RETURNDATASIZE ADD AND DUP3 ADD PUSH1 0x40 MSTORE RETURNDATASIZE DUP3 MSTORE RETURNDATASIZE PUSH0 PUSH1 0x20 DUP5 ADD RETURNDATACOPY PUSH2 0x4BD2 JUMP JUMPDEST PUSH1 0x60 SWAP2 POP JUMPDEST POP SWAP2 POP SWAP2 POP PUSH2 0x4BE2 DUP7 DUP4 DUP4 PUSH2 0x4D50 JUMP JUMPDEST SWAP7 SWAP6 POP POP POP POP POP POP JUMP JUMPDEST PUSH0 DUP1 PUSH19 0x184F03E93FF9F4DAA797ED6E38ED64BF6A1F01 PUSH1 0x40 SHL DUP4 LT PUSH2 0x4C2A JUMPI PUSH19 0x184F03E93FF9F4DAA797ED6E38ED64BF6A1F01 PUSH1 0x40 SHL DUP4 DIV SWAP3 POP PUSH1 0x40 ADD JUMPDEST PUSH14 0x4EE2D6D415B85ACEF8100000000 DUP4 LT PUSH2 0x4C56 JUMPI PUSH14 0x4EE2D6D415B85ACEF8100000000 DUP4 DIV SWAP3 POP PUSH1 0x20 ADD JUMPDEST PUSH7 0x2386F26FC10000 DUP4 LT PUSH2 0x4C74 JUMPI PUSH7 0x2386F26FC10000 DUP4 DIV SWAP3 POP PUSH1 0x10 ADD JUMPDEST PUSH4 0x5F5E100 DUP4 LT PUSH2 0x4C8C JUMPI PUSH4 0x5F5E100 DUP4 DIV SWAP3 POP PUSH1 0x8 ADD JUMPDEST PUSH2 0x2710 DUP4 LT PUSH2 0x4CA0 JUMPI PUSH2 0x2710 DUP4 DIV SWAP3 POP PUSH1 0x4 ADD JUMPDEST PUSH1 0x64 DUP4 LT PUSH2 0x4CB2 JUMPI PUSH1 0x64 DUP4 DIV SWAP3 POP PUSH1 0x2 ADD JUMPDEST PUSH1 0xA DUP4 LT PUSH2 0x10BC JUMPI PUSH1 0x1 ADD SWAP3 SWAP2 POP POP JUMP JUMPDEST PUSH2 0x4CCE DUP4 DUP4 DUP4 PUSH2 0x4D60 JUMP JUMPDEST PUSH2 0x1E5D JUMPI PUSH1 0x1 PUSH1 0x1 PUSH1 0xA0 SHL SUB DUP4 AND PUSH2 0x4CFC JUMPI PUSH1 0x40 MLOAD PUSH4 0x7E273289 PUSH1 0xE0 SHL DUP2 MSTORE PUSH1 0x4 DUP2 ADD DUP3 SWAP1 MSTORE PUSH1 0x24 ADD PUSH2 0x11AA JUMP JUMPDEST PUSH1 0x40 MLOAD PUSH4 0x177E802F PUSH1 0xE0 SHL DUP2 MSTORE PUSH1 0x1 PUSH1 0x1 PUSH1 0xA0 SHL SUB DUP4 AND PUSH1 0x4 DUP3 ADD MSTORE PUSH1 0x24 DUP2 ADD DUP3 SWAP1 MSTORE PUSH1 0x44 ADD PUSH2 0x11AA JUMP JUMPDEST DUP1 MLOAD ISZERO PUSH2 0x4D37 JUMPI DUP1 MLOAD DUP1 DUP3 PUSH1 0x20 ADD REVERT JUMPDEST PUSH1 0x40 MLOAD PUSH4 0xD6BDA275 PUSH1 0xE0 SHL DUP2 MSTORE PUSH1 0x4 ADD PUSH1 0x40 MLOAD DUP1 SWAP2 SUB SWAP1 REVERT JUMPDEST PUSH1 0x60 DUP3 PUSH2 0x4AAB JUMPI PUSH2 0x4AA6 DUP3 PUSH2 0x4DC4 JUMP JUMPDEST PUSH0 PUSH1 0x1 PUSH1 0x1 PUSH1 0xA0 SHL SUB DUP4 AND ISZERO DUP1 ISZERO SWAP1 PUSH2 0x38EB JUMPI POP DUP3 PUSH1 0x1 PUSH1 0x1 PUSH1 0xA0 SHL SUB AND DUP5 PUSH1 0x1 PUSH1 0x1 PUSH1 0xA0 SHL SUB AND EQ DUP1 PUSH2 0x4D99 JUMPI POP PUSH2 0x4D99 DUP5 DUP5 PUSH2 0x33C3 JUMP JUMPDEST DUP1 PUSH2 0x38EB JUMPI POP DUP3 PUSH1 0x1 PUSH1 0x1 PUSH1 0xA0 SHL SUB AND PUSH2 0x4DB2 DUP4 PUSH2 0x3530 JUMP JUMPDEST PUSH1 0x1 PUSH1 0x1 PUSH1 0xA0 SHL SUB AND EQ SWAP5 SWAP4 POP POP POP POP JUMP JUMPDEST DUP1 MLOAD ISZERO PUSH2 0x4DD4 JUMPI DUP1 MLOAD DUP1 DUP3 PUSH1 0x20 ADD REVERT JUMPDEST PUSH1 0x40 MLOAD PUSH4 0xA12F521 PUSH1 0xE1 SHL DUP2 MSTORE PUSH1 0x4 ADD PUSH1 0x40 MLOAD DUP1 SWAP2 SUB SWAP1 REVERT JUMPDEST POP DUP1 SLOAD PUSH0 DUP3 SSTORE SWAP1 PUSH0 MSTORE PUSH1 0x20 PUSH0 KECCAK256 SWAP1 DUP2 ADD SWAP1 PUSH2 0x1D6E SWAP2 SWAP1 PUSH2 0x4E51 JUMP JUMPDEST DUP3 DUP1 SLOAD DUP3 DUP3 SSTORE SWAP1 PUSH0 MSTORE PUSH1 0x20 PUSH0 KECCAK256 SWAP1 DUP2 ADD SWAP3 DUP3 ISZERO PUSH2 0x4E41 JUMPI SWAP2 PUSH1 0x20 MUL DUP3 ADD JUMPDEST DUP3 DUP2 GT ISZERO PUSH2 0x4E41 JUMPI DUP3 MLOAD DUP3 SSTORE SWAP2 PUSH1 0x20 ADD SWAP2 SWAP1 PUSH1 0x1 ADD SWAP1 PUSH2 0x4E26 JUMP JUMPDEST POP PUSH2 0x4E4D SWAP3 SWAP2 POP PUSH2 0x4E51 JUMP JUMPDEST POP SWAP1 JUMP JUMPDEST JUMPDEST DUP1 DUP3 GT ISZERO PUSH2 0x4E4D JUMPI PUSH0 DUP2 SSTORE PUSH1 0x1 ADD PUSH2 0x4E52 JUMP JUMPDEST PUSH1 0x1 PUSH1 0x1 PUSH1 0xE0 SHL SUB NOT DUP2 AND DUP2 EQ PUSH2 0x1D6E JUMPI PUSH0 DUP1 REVERT JUMPDEST PUSH0 PUSH1 0x20 DUP3 DUP5 SUB SLT ISZERO PUSH2 0x4E8A JUMPI PUSH0 DUP1 REVERT JUMPDEST DUP2 CALLDATALOAD PUSH2 0x1212 DUP2 PUSH2 0x4E65 JUMP JUMPDEST PUSH0 JUMPDEST DUP4 DUP2 LT ISZERO PUSH2 0x4EAF JUMPI DUP2 DUP2 ADD MLOAD DUP4 DUP3 ADD MSTORE PUSH1 0x20 ADD PUSH2 0x4E97 JUMP JUMPDEST POP POP PUSH0 SWAP2 ADD MSTORE JUMP JUMPDEST PUSH0 DUP2 MLOAD DUP1 DUP5 MSTORE PUSH2 0x4ECE DUP2 PUSH1 0x20 DUP7 ADD PUSH1 0x20 DUP7 ADD PUSH2 0x4E95 JUMP JUMPDEST PUSH1 0x1F ADD PUSH1 0x1F NOT AND SWAP3 SWAP1 SWAP3 ADD PUSH1 0x20 ADD SWAP3 SWAP2 POP POP JUMP JUMPDEST PUSH1 0x20 DUP2 MSTORE PUSH0 PUSH2 0x1212 PUSH1 0x20 DUP4 ADD DUP5 PUSH2 0x4EB7 JUMP JUMPDEST PUSH0 PUSH1 0x20 DUP3 DUP5 SUB SLT ISZERO PUSH2 0x4F04 JUMPI PUSH0 DUP1 REVERT JUMPDEST POP CALLDATALOAD SWAP2 SWAP1 POP JUMP JUMPDEST DUP1 CALLDATALOAD PUSH1 0x1 PUSH1 0x1 PUSH1 0xA0 SHL SUB DUP2 AND DUP2 EQ PUSH2 0x4F21 JUMPI PUSH0 DUP1 REVERT JUMPDEST SWAP2 SWAP1 POP JUMP JUMPDEST PUSH0 PUSH1 0x20 DUP3 DUP5 SUB SLT ISZERO PUSH2 0x4F36 JUMPI PUSH0 DUP1 REVERT JUMPDEST PUSH2 0x1212 DUP3 PUSH2 0x4F0B JUMP JUMPDEST PUSH0 DUP1 PUSH1 0x40 DUP4 DUP6 SUB SLT ISZERO PUSH2 0x4F50 JUMPI PUSH0 DUP1 REVERT JUMPDEST PUSH2 0x4F59 DUP4 PUSH2 0x4F0B JUMP JUMPDEST SWAP5 PUSH1 0x20 SWAP4 SWAP1 SWAP4 ADD CALLDATALOAD SWAP4 POP POP POP JUMP JUMPDEST PUSH0 DUP1 PUSH1 0x40 DUP4 DUP6 SUB SLT ISZERO PUSH2 0x4F78 JUMPI PUSH0 DUP1 REVERT JUMPDEST POP POP DUP1 CALLDATALOAD SWAP3 PUSH1 0x20 SWAP1 SWAP2 ADD CALLDATALOAD SWAP2 POP JUMP JUMPDEST PUSH4 0x4E487B71 PUSH1 0xE0 SHL PUSH0 MSTORE PUSH1 0x41 PUSH1 0x4 MSTORE PUSH1 0x24 PUSH0 REVERT JUMPDEST PUSH1 0x40 MLOAD PUSH1 0xE0 DUP2 ADD PUSH1 0x1 PUSH1 0x1 PUSH1 0x40 SHL SUB DUP2 GT DUP3 DUP3 LT OR ISZERO PUSH2 0x4FBD JUMPI PUSH2 0x4FBD PUSH2 0x4F87 JUMP JUMPDEST PUSH1 0x40 MSTORE SWAP1 JUMP JUMPDEST PUSH1 0x40 MLOAD PUSH2 0x120 DUP2 ADD PUSH1 0x1 PUSH1 0x1 PUSH1 0x40 SHL SUB DUP2 GT DUP3 DUP3 LT OR ISZERO PUSH2 0x4FBD JUMPI PUSH2 0x4FBD PUSH2 0x4F87 JUMP JUMPDEST PUSH1 0x40 MLOAD PUSH2 0x180 DUP2 ADD PUSH1 0x1 PUSH1 0x1 PUSH1 0x40 SHL SUB DUP2 GT DUP3 DUP3 LT OR ISZERO PUSH2 0x4FBD JUMPI PUSH2 0x4FBD PUSH2 0x4F87 JUMP JUMPDEST PUSH1 0x40 MLOAD PUSH1 0x1F DUP3 ADD PUSH1 0x1F NOT AND DUP2 ADD PUSH1 0x1 PUSH1 0x1 PUSH1 0x40 SHL SUB DUP2 GT DUP3 DUP3 LT OR ISZERO PUSH2 0x5031 JUMPI PUSH2 0x5031 PUSH2 0x4F87 JUMP JUMPDEST PUSH1 0x40 MSTORE SWAP2 SWAP1 POP JUMP JUMPDEST PUSH0 PUSH1 0x1 PUSH1 0x1 PUSH1 0x40 SHL SUB DUP3 GT ISZERO PUSH2 0x5051 JUMPI PUSH2 0x5051 PUSH2 0x4F87 JUMP JUMPDEST POP PUSH1 0x1F ADD PUSH1 0x1F NOT AND PUSH1 0x20 ADD SWAP1 JUMP JUMPDEST PUSH0 PUSH2 0x5071 PUSH2 0x506C DUP5 PUSH2 0x5039 JUMP JUMPDEST PUSH2 0x5009 JUMP JUMPDEST SWAP1 POP DUP3 DUP2 MSTORE DUP4 DUP4 DUP4 ADD GT ISZERO PUSH2 0x5084 JUMPI PUSH0 DUP1 REVERT JUMPDEST DUP3 DUP3 PUSH1 0x20 DUP4 ADD CALLDATACOPY PUSH0 PUSH1 0x20 DUP5 DUP4 ADD ADD MSTORE SWAP4 SWAP3 POP POP POP JUMP JUMPDEST PUSH0 DUP1 PUSH1 0x40 DUP4 DUP6 SUB SLT ISZERO PUSH2 0x50AB JUMPI PUSH0 DUP1 REVERT JUMPDEST DUP3 CALLDATALOAD SWAP2 POP PUSH1 0x20 DUP4 ADD CALLDATALOAD PUSH1 0x1 PUSH1 0x1 PUSH1 0x40 SHL SUB DUP2 GT ISZERO PUSH2 0x50C7 JUMPI PUSH0 DUP1 REVERT JUMPDEST DUP4 ADD PUSH1 0x1F DUP2 ADD DUP6 SGT PUSH2 0x50D7 JUMPI PUSH0 DUP1 REVERT JUMPDEST PUSH2 0x50E6 DUP6 DUP3 CALLDATALOAD PUSH1 0x20 DUP5 ADD PUSH2 0x505F JUMP JUMPDEST SWAP2 POP POP SWAP3 POP SWAP3 SWAP1 POP JUMP JUMPDEST PUSH0 PUSH1 0x1 PUSH1 0x1 PUSH1 0x40 SHL SUB DUP3 GT ISZERO PUSH2 0x5108 JUMPI PUSH2 0x5108 PUSH2 0x4F87 JUMP JUMPDEST POP PUSH1 0x5 SHL PUSH1 0x20 ADD SWAP1 JUMP JUMPDEST PUSH0 DUP1 PUSH1 0x40 DUP4 DUP6 SUB SLT ISZERO PUSH2 0x5123 JUMPI PUSH0 DUP1 REVERT JUMPDEST DUP3 CALLDATALOAD SWAP2 POP PUSH1 0x20 DUP1 DUP5 ADD CALLDATALOAD PUSH1 0x1 PUSH1 0x1 PUSH1 0x40 SHL SUB DUP2 GT ISZERO PUSH2 0x5140 JUMPI PUSH0 DUP1 REVERT JUMPDEST DUP5 ADD PUSH1 0x1F DUP2 ADD DUP7 SGT PUSH2 0x5150 JUMPI PUSH0 DUP1 REVERT JUMPDEST DUP1 CALLDATALOAD PUSH2 0x515E PUSH2 0x506C DUP3 PUSH2 0x50F0 JUMP JUMPDEST DUP2 DUP2 MSTORE PUSH1 0x5 SWAP2 SWAP1 SWAP2 SHL DUP3 ADD DUP4 ADD SWAP1 DUP4 DUP2 ADD SWAP1 DUP9 DUP4 GT ISZERO PUSH2 0x517C JUMPI PUSH0 DUP1 REVERT JUMPDEST SWAP3 DUP5 ADD SWAP3 JUMPDEST DUP3 DUP5 LT ISZERO PUSH2 0x519A JUMPI DUP4 CALLDATALOAD DUP3 MSTORE SWAP3 DUP5 ADD SWAP3 SWAP1 DUP5 ADD SWAP1 PUSH2 0x5181 JUMP JUMPDEST DUP1 SWAP6 POP POP POP POP POP POP SWAP3 POP SWAP3 SWAP1 POP JUMP JUMPDEST PUSH0 DUP1 PUSH0 PUSH1 0x60 DUP5 DUP7 SUB SLT ISZERO PUSH2 0x51BB JUMPI PUSH0 DUP1 REVERT JUMPDEST PUSH2 0x51C4 DUP5 PUSH2 0x4F0B JUMP JUMPDEST SWAP3 POP PUSH2 0x51D2 PUSH1 0x20 DUP6 ADD PUSH2 0x4F0B JUMP JUMPDEST SWAP2 POP PUSH1 0x40 DUP5 ADD CALLDATALOAD SWAP1 POP SWAP3 POP SWAP3 POP SWAP3 JUMP JUMPDEST PUSH0 DUP1 PUSH0 PUSH1 0x60 DUP5 DUP7 SUB SLT ISZERO PUSH2 0x51F4 JUMPI PUSH0 DUP1 REVERT JUMPDEST PUSH2 0x51FD DUP5 PUSH2 0x4F0B JUMP JUMPDEST SWAP3 POP PUSH2 0x520B PUSH1 0x20 DUP6 ADD PUSH2 0x4F0B JUMP JUMPDEST SWAP2 POP PUSH2 0x5219 PUSH1 0x40 DUP6 ADD PUSH2 0x4F0B JUMP JUMPDEST SWAP1 POP SWAP3 POP SWAP3 POP SWAP3 JUMP JUMPDEST PUSH0 DUP2 MLOAD DUP1 DUP5 MSTORE PUSH1 0x20 DUP1 DUP6 ADD SWAP5 POP PUSH1 0x20 DUP5 ADD PUSH0 JUMPDEST DUP4 DUP2 LT ISZERO PUSH2 0x5251 JUMPI DUP2 MLOAD DUP8 MSTORE SWAP6 DUP3 ADD SWAP6 SWAP1 DUP3 ADD SWAP1 PUSH1 0x1 ADD PUSH2 0x5235 JUMP JUMPDEST POP SWAP5 SWAP6 SWAP5 POP POP POP POP POP JUMP JUMPDEST DUP3 DUP2 MSTORE PUSH1 0x40 PUSH1 0x20 DUP3 ADD MSTORE PUSH0 PUSH2 0x38EB PUSH1 0x40 DUP4 ADD DUP5 PUSH2 0x5222 JUMP JUMPDEST PUSH0 DUP3 PUSH1 0x1F DUP4 ADD SLT PUSH2 0x5283 JUMPI PUSH0 DUP1 REVERT JUMPDEST PUSH2 0x1212 DUP4 DUP4 CALLDATALOAD PUSH1 0x20 DUP6 ADD PUSH2 0x505F JUMP JUMPDEST PUSH0 DUP1 PUSH1 0x40 DUP4 DUP6 SUB SLT ISZERO PUSH2 0x52A3 JUMPI PUSH0 DUP1 REVERT JUMPDEST PUSH2 0x52AC DUP4 PUSH2 0x4F0B JUMP JUMPDEST SWAP2 POP PUSH1 0x20 DUP4 ADD CALLDATALOAD PUSH1 0x1 PUSH1 0x1 PUSH1 0x40 SHL SUB DUP2 GT ISZERO PUSH2 0x52C6 JUMPI PUSH0 DUP1 REVERT JUMPDEST PUSH2 0x50E6 DUP6 DUP3 DUP7 ADD PUSH2 0x5274 JUMP JUMPDEST PUSH0 PUSH1 0x20 DUP3 DUP5 SUB SLT ISZERO PUSH2 0x52E2 JUMPI PUSH0 DUP1 REVERT JUMPDEST DUP2 CALLDATALOAD PUSH4 0xFFFFFFFF DUP2 AND DUP2 EQ PUSH2 0x1212 JUMPI PUSH0 DUP1 REVERT JUMPDEST PUSH1 0x20 DUP2 MSTORE PUSH0 PUSH2 0x1212 PUSH1 0x20 DUP4 ADD DUP5 PUSH2 0x5222 JUMP JUMPDEST DUP1 ISZERO ISZERO DUP2 EQ PUSH2 0x1D6E JUMPI PUSH0 DUP1 REVERT JUMPDEST PUSH0 DUP1 PUSH1 0x40 DUP4 DUP6 SUB SLT ISZERO PUSH2 0x5325 JUMPI PUSH0 DUP1 REVERT JUMPDEST PUSH2 0x532E DUP4 PUSH2 0x4F0B JUMP JUMPDEST SWAP2 POP PUSH1 0x20 DUP4 ADD CALLDATALOAD PUSH2 0x533E DUP2 PUSH2 0x5307 JUMP JUMPDEST DUP1 SWAP2 POP POP SWAP3 POP SWAP3 SWAP1 POP JUMP JUMPDEST PUSH0 PUSH1 0x20 DUP3 DUP5 SUB SLT ISZERO PUSH2 0x5359 JUMPI PUSH0 DUP1 REVERT JUMPDEST DUP2 CALLDATALOAD PUSH2 0x1212 DUP2 PUSH2 0x5307 JUMP JUMPDEST PUSH0 DUP1 PUSH0 DUP1 PUSH1 0x80 DUP6 DUP8 SUB SLT ISZERO PUSH2 0x5377 JUMPI PUSH0 DUP1 REVERT JUMPDEST PUSH2 0x5380 DUP6 PUSH2 0x4F0B JUMP JUMPDEST SWAP4 POP PUSH2 0x538E PUSH1 0x20 DUP7 ADD PUSH2 0x4F0B JUMP JUMPDEST SWAP3 POP PUSH1 0x40 DUP6 ADD CALLDATALOAD SWAP2 POP PUSH1 0x60 DUP6 ADD CALLDATALOAD PUSH1 0x1 PUSH1 0x1 PUSH1 0x40 SHL SUB DUP2 GT ISZERO PUSH2 0x53AF JUMPI PUSH0 DUP1 REVERT JUMPDEST PUSH2 0x53BB DUP8 DUP3 DUP9 ADD PUSH2 0x5274 JUMP JUMPDEST SWAP2 POP POP SWAP3 SWAP6 SWAP2 SWAP5 POP SWAP3 POP JUMP JUMPDEST PUSH0 DUP1 PUSH1 0x40 DUP4 DUP6 SUB SLT ISZERO PUSH2 0x53D8 JUMPI PUSH0 DUP1 REVERT JUMPDEST PUSH2 0x53E1 DUP4 PUSH2 0x4F0B JUMP JUMPDEST SWAP2 POP PUSH2 0x53EF PUSH1 0x20 DUP5 ADD PUSH2 0x4F0B JUMP JUMPDEST SWAP1 POP SWAP3 POP SWAP3 SWAP1 POP JUMP JUMPDEST PUSH0 PUSH1 0x20 DUP3 DUP5 SUB SLT ISZERO PUSH2 0x5408 JUMPI PUSH0 DUP1 REVERT JUMPDEST DUP2 CALLDATALOAD PUSH2 0xFFFF DUP2 AND DUP2 EQ PUSH2 0x1212 JUMPI PUSH0 DUP1 REVERT JUMPDEST PUSH1 0x1 DUP2 DUP2 SHR SWAP1 DUP3 AND DUP1 PUSH2 0x542D JUMPI PUSH1 0x7F DUP3 AND SWAP2 POP JUMPDEST PUSH1 0x20 DUP3 LT DUP2 SUB PUSH2 0x544B JUMPI PUSH4 0x4E487B71 PUSH1 0xE0 SHL PUSH0 MSTORE PUSH1 0x22 PUSH1 0x4 MSTORE PUSH1 0x24 PUSH0 REVERT JUMPDEST POP SWAP2 SWAP1 POP JUMP JUMPDEST PUSH4 0x4E487B71 PUSH1 0xE0 SHL PUSH0 MSTORE PUSH1 0x11 PUSH1 0x4 MSTORE PUSH1 0x24 PUSH0 REVERT JUMPDEST DUP2 DUP2 SUB DUP2 DUP2 GT ISZERO PUSH2 0x10BC JUMPI PUSH2 0x10BC PUSH2 0x5451 JUMP JUMPDEST PUSH4 0x4E487B71 PUSH1 0xE0 SHL PUSH0 MSTORE PUSH1 0x12 PUSH1 0x4 MSTORE PUSH1 0x24 PUSH0 REVERT JUMPDEST PUSH0 DUP3 PUSH2 0x549A JUMPI PUSH2 0x549A PUSH2 0x5478 JUMP JUMPDEST POP DIV SWAP1 JUMP JUMPDEST PUSH0 PUSH1 0xE0 DUP3 DUP5 SUB SLT ISZERO PUSH2 0x54AF JUMPI PUSH0 DUP1 REVERT JUMPDEST PUSH2 0x54B7 PUSH2 0x4F9B JUMP JUMPDEST SWAP1 POP DUP2 MLOAD DUP2 MSTORE PUSH1 0x20 DUP3 ADD MLOAD PUSH1 0x20 DUP3 ADD MSTORE PUSH1 0x40 DUP3 ADD MLOAD PUSH1 0x40 DUP3 ADD MSTORE PUSH1 0x60 DUP3 ADD MLOAD PUSH1 0x60 DUP3 ADD MSTORE PUSH1 0x80 DUP3 ADD MLOAD PUSH1 0x80 DUP3 ADD MSTORE PUSH1 0xA0 DUP3 ADD MLOAD PUSH1 0xA0 DUP3 ADD MSTORE PUSH1 0xC0 DUP3 ADD MLOAD PUSH1 0xC0 DUP3 ADD MSTORE SWAP3 SWAP2 POP POP JUMP JUMPDEST PUSH0 PUSH1 0xE0 DUP3 DUP5 SUB SLT ISZERO PUSH2 0x550F JUMPI PUSH0 DUP1 REVERT JUMPDEST PUSH2 0x1212 DUP4 DUP4 PUSH2 0x549F JUMP JUMPDEST PUSH0 PUSH2 0x120 DUP3 DUP5 SUB SLT ISZERO PUSH2 0x552A JUMPI PUSH0 DUP1 REVERT JUMPDEST PUSH2 0x5532 PUSH2 0x4FC3 JUMP JUMPDEST SWAP1 POP DUP2 MLOAD DUP2 MSTORE PUSH1 0x20 DUP3 ADD MLOAD PUSH1 0x20 DUP3 ADD MSTORE PUSH1 0x40 DUP3 ADD MLOAD PUSH1 0x40 DUP3 ADD MSTORE PUSH1 0x60 DUP3 ADD MLOAD PUSH1 0x60 DUP3 ADD MSTORE PUSH1 0x80 DUP3 ADD MLOAD PUSH1 0x80 DUP3 ADD MSTORE PUSH1 0xA0 DUP3 ADD MLOAD PUSH1 0xA0 DUP3 ADD MSTORE PUSH1 0xC0 DUP3 ADD MLOAD PUSH1 0xC0 DUP3 ADD MSTORE PUSH1 0xE0 DUP3 ADD MLOAD PUSH1 0xE0 DUP3 ADD MSTORE PUSH2 0x100 DUP1 DUP4 ADD MLOAD DUP2 DUP4 ADD MSTORE POP SWAP3 SWAP2 POP POP JUMP JUMPDEST PUSH0 PUSH2 0x120 DUP3 DUP5 SUB SLT ISZERO PUSH2 0x55A1 JUMPI PUSH0 DUP1 REVERT JUMPDEST PUSH2 0x1212 DUP4 DUP4 PUSH2 0x5519 JUMP JUMPDEST DUP1 MLOAD DUP3 MSTORE PUSH1 0x20 DUP2 ADD MLOAD PUSH1 0x20 DUP4 ADD MSTORE PUSH1 0x40 DUP2 ADD MLOAD PUSH1 0x40 DUP4 ADD MSTORE PUSH1 0x60 DUP2 ADD MLOAD PUSH1 0x60 DUP4 ADD MSTORE PUSH1 0x80 DUP2 ADD MLOAD PUSH1 0x80 DUP4 ADD MSTORE PUSH1 0xA0 DUP2 ADD MLOAD PUSH1 0xA0 DUP4 ADD MSTORE PUSH1 0xC0 DUP2 ADD MLOAD PUSH1 0xC0 DUP4 ADD MSTORE POP POP JUMP JUMPDEST DUP1 MLOAD DUP3 MSTORE PUSH1 0x20 DUP2 ADD MLOAD PUSH1 0x20 DUP4 ADD MSTORE PUSH1 0x40 DUP2 ADD MLOAD PUSH1 0x40 DUP4 ADD MSTORE PUSH1 0x60 DUP2 ADD MLOAD PUSH1 0x60 DUP4 ADD MSTORE PUSH1 0x80 DUP2 ADD MLOAD PUSH1 0x80 DUP4 ADD MSTORE PUSH1 0xA0 DUP2 ADD MLOAD PUSH1 0xA0 DUP4 ADD MSTORE PUSH1 0xC0 DUP2 ADD MLOAD PUSH1 0xC0 DUP4 ADD MSTORE PUSH1 0xE0 DUP2 ADD MLOAD PUSH1 0xE0 DUP4 ADD MSTORE PUSH2 0x100 DUP1 DUP3 ADD MLOAD DUP2 DUP5 ADD MSTORE POP POP POP JUMP JUMPDEST PUSH2 0x200 DUP2 ADD PUSH2 0x5658 DUP3 DUP6 PUSH2 0x55AB JUMP JUMPDEST PUSH2 0x1212 PUSH1 0xE0 DUP4 ADD DUP5 PUSH2 0x55EF JUMP JUMPDEST PUSH0 DUP1 PUSH2 0x200 DUP4 DUP6 SUB SLT ISZERO PUSH2 0x5677 JUMPI PUSH0 DUP1 REVERT JUMPDEST PUSH2 0x5681 DUP5 DUP5 PUSH2 0x549F JUMP JUMPDEST SWAP2 POP PUSH2 0x53EF DUP5 PUSH1 0xE0 DUP6 ADD PUSH2 0x5519 JUMP JUMPDEST PUSH0 PUSH1 0x20 DUP3 DUP5 SUB SLT ISZERO PUSH2 0x56A0 JUMPI PUSH0 DUP1 REVERT JUMPDEST POP MLOAD SWAP2 SWAP1 POP JUMP JUMPDEST PUSH0 DUP3 PUSH1 0x1F DUP4 ADD SLT PUSH2 0x56B6 JUMPI PUSH0 DUP1 REVERT JUMPDEST DUP2 MLOAD PUSH1 0x20 PUSH2 0x56C6 PUSH2 0x506C DUP4 PUSH2 0x50F0 JUMP JUMPDEST DUP1 DUP4 DUP3 MSTORE PUSH1 0x20 DUP3 ADD SWAP2 POP PUSH1 0x20 DUP5 PUSH1 0x5 SHL DUP8 ADD ADD SWAP4 POP DUP7 DUP5 GT ISZERO PUSH2 0x56E7 JUMPI PUSH0 DUP1 REVERT JUMPDEST PUSH1 0x20 DUP7 ADD JUMPDEST DUP5 DUP2 LT ISZERO PUSH2 0x5703 JUMPI DUP1 MLOAD DUP4 MSTORE SWAP2 DUP4 ADD SWAP2 DUP4 ADD PUSH2 0x56EC JUMP JUMPDEST POP SWAP7 SWAP6 POP POP POP POP POP POP JUMP JUMPDEST DUP1 MLOAD PUSH2 0x4F21 DUP2 PUSH2 0x5307 JUMP JUMPDEST PUSH0 PUSH2 0x120 DUP3 DUP5 SUB SLT ISZERO PUSH2 0x572A JUMPI PUSH0 DUP1 REVERT JUMPDEST PUSH2 0x5732 PUSH2 0x4FC3 JUMP JUMPDEST SWAP1 POP DUP2 MLOAD DUP2 MSTORE PUSH1 0x20 DUP3 ADD MLOAD PUSH1 0x20 DUP3 ADD MSTORE PUSH1 0x40 DUP3 ADD MLOAD PUSH1 0x40 DUP3 ADD MSTORE PUSH1 0x60 DUP3 ADD MLOAD PUSH1 0x60 DUP3 ADD MSTORE PUSH1 0x80 DUP3 ADD MLOAD PUSH1 0x80 DUP3 ADD MSTORE PUSH1 0xA0 DUP3 ADD MLOAD PUSH1 0xA0 DUP3 ADD MSTORE PUSH1 0xC0 DUP3 ADD MLOAD PUSH1 0xC0 DUP3 ADD MSTORE PUSH1 0xE0 DUP3 ADD MLOAD PUSH1 0x1 PUSH1 0x1 PUSH1 0x40 SHL SUB DUP2 GT ISZERO PUSH2 0x578C JUMPI PUSH0 DUP1 REVERT JUMPDEST PUSH2 0x5798 DUP5 DUP3 DUP6 ADD PUSH2 0x56A7 JUMP JUMPDEST PUSH1 0xE0 DUP4 ADD MSTORE POP PUSH2 0x100 PUSH2 0x57AC DUP2 DUP5 ADD PUSH2 0x570E JUMP JUMPDEST SWAP1 DUP3 ADD MSTORE SWAP3 SWAP2 POP POP JUMP JUMPDEST PUSH0 PUSH1 0x20 DUP1 DUP4 DUP6 SUB SLT ISZERO PUSH2 0x57C7 JUMPI PUSH0 DUP1 REVERT JUMPDEST DUP3 MLOAD PUSH1 0x1 PUSH1 0x1 PUSH1 0x40 SHL SUB DUP1 DUP3 GT ISZERO PUSH2 0x57DD JUMPI PUSH0 DUP1 REVERT JUMPDEST DUP2 DUP6 ADD SWAP2 POP DUP6 PUSH1 0x1F DUP4 ADD SLT PUSH2 0x57F0 JUMPI PUSH0 DUP1 REVERT JUMPDEST DUP2 MLOAD PUSH2 0x57FE PUSH2 0x506C DUP3 PUSH2 0x50F0 JUMP JUMPDEST DUP2 DUP2 MSTORE PUSH1 0x5 SWAP2 SWAP1 SWAP2 SHL DUP4 ADD DUP5 ADD SWAP1 DUP5 DUP2 ADD SWAP1 DUP9 DUP4 GT ISZERO PUSH2 0x581C JUMPI PUSH0 DUP1 REVERT JUMPDEST DUP6 DUP6 ADD JUMPDEST DUP4 DUP2 LT ISZERO PUSH2 0x5928 JUMPI DUP1 MLOAD DUP6 DUP2 GT ISZERO PUSH2 0x5836 JUMPI PUSH0 DUP1 REVERT JUMPDEST DUP7 ADD PUSH2 0x340 DUP2 DUP13 SUB PUSH1 0x1F NOT ADD DUP2 SGT ISZERO PUSH2 0x584D JUMPI PUSH0 DUP1 REVERT JUMPDEST PUSH2 0x5855 PUSH2 0x4FE6 JUMP JUMPDEST DUP10 DUP4 ADD MLOAD DUP2 MSTORE PUSH1 0x40 DUP4 ADD MLOAD DUP11 DUP3 ADD MSTORE PUSH1 0x60 DUP1 DUP5 ADD MLOAD DUP10 DUP2 GT ISZERO PUSH2 0x5876 JUMPI PUSH0 DUP1 REVERT JUMPDEST PUSH2 0x5884 DUP16 DUP14 DUP4 DUP9 ADD ADD PUSH2 0x5719 JUMP JUMPDEST PUSH1 0x40 DUP5 ADD MSTORE POP PUSH1 0x80 PUSH2 0x5898 DUP16 DUP3 DUP8 ADD PUSH2 0x549F JUMP JUMPDEST DUP3 DUP5 ADD MSTORE PUSH2 0x160 SWAP2 POP PUSH2 0x58AD DUP16 DUP4 DUP8 ADD PUSH2 0x5519 JUMP JUMPDEST SWAP1 DUP4 ADD MSTORE PUSH2 0x280 DUP5 ADD MLOAD PUSH1 0xA0 DUP4 ADD MSTORE PUSH2 0x2A0 DUP5 ADD MLOAD PUSH1 0xC0 DUP4 ADD MSTORE PUSH2 0x2C0 DUP5 ADD MLOAD PUSH1 0xE0 DUP4 ADD MSTORE PUSH2 0x2E0 DUP5 ADD MLOAD PUSH2 0x100 DUP4 ADD MSTORE PUSH2 0x300 DUP5 ADD MLOAD PUSH2 0x120 DUP4 ADD MSTORE PUSH2 0x320 DUP5 ADD MLOAD PUSH2 0x140 DUP4 ADD MSTORE SWAP2 DUP4 ADD MLOAD SWAP2 DUP9 DUP4 GT ISZERO PUSH2 0x5907 JUMPI PUSH0 DUP1 REVERT JUMPDEST PUSH2 0x5915 DUP15 DUP13 DUP6 DUP8 ADD ADD PUSH2 0x56A7 JUMP JUMPDEST SWAP1 DUP3 ADD MSTORE DUP6 MSTORE POP POP SWAP2 DUP7 ADD SWAP2 DUP7 ADD PUSH2 0x5820 JUMP JUMPDEST POP SWAP9 SWAP8 POP POP POP POP POP POP POP POP JUMP JUMPDEST PUSH4 0x4E487B71 PUSH1 0xE0 SHL PUSH0 MSTORE PUSH1 0x32 PUSH1 0x4 MSTORE PUSH1 0x24 PUSH0 REVERT JUMPDEST PUSH0 DUP3 PUSH2 0x5957 JUMPI PUSH2 0x5957 PUSH2 0x5478 JUMP JUMPDEST POP MOD SWAP1 JUMP JUMPDEST DUP1 DUP3 MUL DUP2 ISZERO DUP3 DUP3 DIV DUP5 EQ OR PUSH2 0x10BC JUMPI PUSH2 0x10BC PUSH2 0x5451 JUMP JUMPDEST DUP1 DUP3 ADD DUP1 DUP3 GT ISZERO PUSH2 0x10BC JUMPI PUSH2 0x10BC PUSH2 0x5451 JUMP JUMPDEST PUSH0 DUP2 PUSH2 0x5994 JUMPI PUSH2 0x5994 PUSH2 0x5451 JUMP JUMPDEST POP PUSH0 NOT ADD SWAP1 JUMP JUMPDEST DUP4 DUP2 MSTORE PUSH2 0x220 DUP2 ADD PUSH2 0x59B0 PUSH1 0x20 DUP4 ADD DUP6 PUSH2 0x55AB JUMP JUMPDEST PUSH2 0x38EB PUSH2 0x100 DUP4 ADD DUP5 PUSH2 0x55EF JUMP JUMPDEST PUSH0 PUSH2 0x120 DUP3 MLOAD DUP5 MSTORE PUSH1 0x20 DUP4 ADD MLOAD PUSH1 0x20 DUP6 ADD MSTORE PUSH1 0x40 DUP4 ADD MLOAD PUSH1 0x40 DUP6 ADD MSTORE PUSH1 0x60 DUP4 ADD MLOAD PUSH1 0x60 DUP6 ADD MSTORE PUSH1 0x80 DUP4 ADD MLOAD PUSH1 0x80 DUP6 ADD MSTORE PUSH1 0xA0 DUP4 ADD MLOAD PUSH1 0xA0 DUP6 ADD MSTORE PUSH1 0xC0 DUP4 ADD MLOAD PUSH1 0xC0 DUP6 ADD MSTORE PUSH1 0xE0 DUP4 ADD MLOAD DUP2 PUSH1 0xE0 DUP7 ADD MSTORE PUSH2 0x5A19 DUP3 DUP7 ADD DUP3 PUSH2 0x5222 JUMP JUMPDEST PUSH2 0x100 SWAP5 DUP6 ADD MLOAD ISZERO ISZERO SWAP6 SWAP1 SWAP5 ADD SWAP5 SWAP1 SWAP5 MSTORE POP SWAP1 SWAP3 SWAP2 POP POP JUMP JUMPDEST DUP4 DUP2 MSTORE DUP3 PUSH1 0x20 DUP3 ADD MSTORE PUSH1 0x60 PUSH1 0x40 DUP3 ADD MSTORE DUP2 MLOAD PUSH1 0x60 DUP3 ADD MSTORE PUSH1 0x20 DUP3 ADD MLOAD PUSH1 0x80 DUP3 ADD MSTORE PUSH0 PUSH1 0x40 DUP4 ADD MLOAD PUSH2 0x340 DUP1 PUSH1 0xA0 DUP6 ADD MSTORE PUSH2 0x5A70 PUSH2 0x3A0 DUP6 ADD DUP4 PUSH2 0x59BE JUMP JUMPDEST SWAP2 POP PUSH1 0x60 DUP6 ADD MLOAD PUSH2 0x5A84 PUSH1 0xC0 DUP7 ADD DUP3 PUSH2 0x55AB JUMP JUMPDEST POP PUSH1 0x80 DUP6 ADD MLOAD PUSH2 0x5A98 PUSH2 0x1A0 DUP7 ADD DUP3 PUSH2 0x55EF JUMP JUMPDEST POP PUSH1 0xA0 DUP6 ADD MLOAD PUSH2 0x2C0 DUP6 ADD MSTORE PUSH1 0xC0 DUP6 ADD MLOAD PUSH2 0x2E0 DUP6 ADD MSTORE PUSH1 0xE0 DUP6 ADD MLOAD PUSH2 0x300 DUP6 ADD MSTORE PUSH2 0x100 DUP6 ADD MLOAD PUSH2 0x320 DUP6 ADD MSTORE PUSH2 0x120 DUP6 ADD MLOAD SWAP1 DUP5 ADD MSTORE PUSH2 0x140 DUP5 ADD MLOAD PUSH2 0x360 DUP5 ADD MSTORE PUSH2 0x160 DUP5 ADD MLOAD DUP4 DUP3 SUB PUSH1 0x5F NOT ADD PUSH2 0x380 DUP6 ADD MSTORE PUSH2 0x5AF9 DUP3 DUP3 PUSH2 0x5222 JUMP JUMPDEST SWAP8 SWAP7 POP POP POP POP POP POP POP JUMP JUMPDEST PUSH1 0x1 PUSH1 0x1 PUSH1 0xA0 SHL SUB SWAP4 DUP5 AND DUP2 MSTORE SWAP2 SWAP1 SWAP3 AND PUSH1 0x20 DUP3 ADD MSTORE PUSH1 0x40 DUP2 ADD SWAP2 SWAP1 SWAP2 MSTORE PUSH1 0x60 ADD SWAP1 JUMP JUMPDEST PUSH0 PUSH1 0x20 DUP3 DUP5 SUB SLT ISZERO PUSH2 0x5B38 JUMPI PUSH0 DUP1 REVERT JUMPDEST DUP2 MLOAD PUSH2 0x1212 DUP2 PUSH2 0x5307 JUMP JUMPDEST PUSH0 PUSH1 0x1 DUP3 ADD PUSH2 0x5B54 JUMPI PUSH2 0x5B54 PUSH2 0x5451 JUMP JUMPDEST POP PUSH1 0x1 ADD SWAP1 JUMP JUMPDEST PUSH0 PUSH2 0x100 DUP1 DUP4 DUP6 SUB SLT ISZERO PUSH2 0x5B6D JUMPI PUSH0 DUP1 REVERT JUMPDEST PUSH1 0x40 MLOAD SWAP1 DUP2 ADD SWAP1 PUSH1 0x1 PUSH1 0x1 PUSH1 0x40 SHL SUB DUP3 GT DUP2 DUP4 LT OR ISZERO PUSH2 0x5B8F JUMPI PUSH2 0x5B8F PUSH2 0x4F87 JUMP JUMPDEST DUP2 PUSH1 0x40 MSTORE DUP4 MLOAD DUP2 MSTORE PUSH1 0x20 DUP5 ADD MLOAD PUSH1 0x20 DUP3 ADD MSTORE PUSH1 0x40 DUP5 ADD MLOAD PUSH1 0x40 DUP3 ADD MSTORE PUSH1 0x60 DUP5 ADD MLOAD PUSH1 0x60 DUP3 ADD MSTORE PUSH1 0x80 DUP5 ADD MLOAD PUSH1 0x80 DUP3 ADD MSTORE PUSH1 0xA0 DUP5 ADD MLOAD PUSH1 0xA0 DUP3 ADD MSTORE PUSH1 0xC0 DUP5 ADD MLOAD PUSH1 0xC0 DUP3 ADD MSTORE PUSH1 0xE0 DUP5 ADD MLOAD PUSH1 0xE0 DUP3 ADD MSTORE DUP1 SWAP3 POP POP POP SWAP3 SWAP2 POP POP JUMP JUMPDEST PUSH0 DUP3 PUSH1 0x1F DUP4 ADD SLT PUSH2 0x5BF7 JUMPI PUSH0 DUP1 REVERT JUMPDEST DUP2 MLOAD PUSH2 0x5C05 PUSH2 0x506C DUP3 PUSH2 0x5039 JUMP JUMPDEST DUP2 DUP2 MSTORE DUP5 PUSH1 0x20 DUP4 DUP7 ADD ADD GT ISZERO PUSH2 0x5C19 JUMPI PUSH0 DUP1 REVERT JUMPDEST PUSH2 0x38EB DUP3 PUSH1 0x20 DUP4 ADD PUSH1 0x20 DUP8 ADD PUSH2 0x4E95 JUMP JUMPDEST PUSH0 PUSH1 0x20 DUP3 DUP5 SUB SLT ISZERO PUSH2 0x5C3A JUMPI PUSH0 DUP1 REVERT JUMPDEST DUP2 MLOAD PUSH1 0x1 PUSH1 0x1 PUSH1 0x40 SHL SUB DUP1 DUP3 GT ISZERO PUSH2 0x5C50 JUMPI PUSH0 DUP1 REVERT JUMPDEST SWAP1 DUP4 ADD SWAP1 PUSH1 0xE0 DUP3 DUP7 SUB SLT ISZERO PUSH2 0x5C63 JUMPI PUSH0 DUP1 REVERT JUMPDEST PUSH2 0x5C6B PUSH2 0x4F9B JUMP JUMPDEST DUP3 MLOAD DUP2 MSTORE PUSH1 0x20 DUP4 ADD MLOAD PUSH1 0x20 DUP3 ADD MSTORE PUSH2 0x5C85 PUSH1 0x40 DUP5 ADD PUSH2 0x570E JUMP JUMPDEST PUSH1 0x40 DUP3 ADD MSTORE PUSH1 0x60 DUP4 ADD MLOAD DUP3 DUP2 GT ISZERO PUSH2 0x5C9B JUMPI PUSH0 DUP1 REVERT JUMPDEST PUSH2 0x5CA7 DUP8 DUP3 DUP7 ADD PUSH2 0x5BE8 JUMP JUMPDEST PUSH1 0x60 DUP4 ADD MSTORE POP PUSH1 0x80 DUP4 ADD MLOAD PUSH1 0x80 DUP3 ADD MSTORE PUSH1 0xA0 DUP4 ADD MLOAD PUSH1 0xA0 DUP3 ADD MSTORE PUSH1 0xC0 DUP4 ADD MLOAD PUSH1 0xC0 DUP3 ADD MSTORE DUP1 SWAP4 POP POP POP POP SWAP3 SWAP2 POP POP JUMP JUMPDEST PUSH1 0x1F DUP3 GT ISZERO PUSH2 0x1E5D JUMPI DUP1 PUSH0 MSTORE PUSH1 0x20 PUSH0 KECCAK256 PUSH1 0x1F DUP5 ADD PUSH1 0x5 SHR DUP2 ADD PUSH1 0x20 DUP6 LT ISZERO PUSH2 0x5CFC JUMPI POP DUP1 JUMPDEST PUSH1 0x1F DUP5 ADD PUSH1 0x5 SHR DUP3 ADD SWAP2 POP JUMPDEST DUP2 DUP2 LT ISZERO PUSH2 0x2B80 JUMPI PUSH0 DUP2 SSTORE PUSH1 0x1 ADD PUSH2 0x5D08 JUMP JUMPDEST DUP2 MLOAD PUSH1 0x1 PUSH1 0x1 PUSH1 0x40 SHL SUB DUP2 GT ISZERO PUSH2 0x5D34 JUMPI PUSH2 0x5D34 PUSH2 0x4F87 JUMP JUMPDEST PUSH2 0x5D48 DUP2 PUSH2 0x5D42 DUP5 SLOAD PUSH2 0x5419 JUMP JUMPDEST DUP5 PUSH2 0x5CD7 JUMP JUMPDEST PUSH1 0x20 DUP1 PUSH1 0x1F DUP4 GT PUSH1 0x1 DUP2 EQ PUSH2 0x5D7B JUMPI PUSH0 DUP5 ISZERO PUSH2 0x5D64 JUMPI POP DUP6 DUP4 ADD MLOAD JUMPDEST PUSH0 NOT PUSH1 0x3 DUP7 SWAP1 SHL SHR NOT AND PUSH1 0x1 DUP6 SWAP1 SHL OR DUP6 SSTORE PUSH2 0x309E JUMP JUMPDEST PUSH0 DUP6 DUP2 MSTORE PUSH1 0x20 DUP2 KECCAK256 PUSH1 0x1F NOT DUP7 AND SWAP2 JUMPDEST DUP3 DUP2 LT ISZERO PUSH2 0x5DA9 JUMPI DUP9 DUP7 ADD MLOAD DUP3 SSTORE SWAP5 DUP5 ADD SWAP5 PUSH1 0x1 SWAP1 SWAP2 ADD SWAP1 DUP5 ADD PUSH2 0x5D8A JUMP JUMPDEST POP DUP6 DUP3 LT ISZERO PUSH2 0x5DC6 JUMPI DUP8 DUP6 ADD MLOAD PUSH0 NOT PUSH1 0x3 DUP9 SWAP1 SHL PUSH1 0xF8 AND SHR NOT AND DUP2 SSTORE JUMPDEST POP POP POP POP POP PUSH1 0x1 SWAP1 DUP2 SHL ADD SWAP1 SSTORE POP JUMP JUMPDEST PUSH1 0x1 PUSH1 0x1 PUSH1 0xA0 SHL SUB DUP6 DUP2 AND DUP3 MSTORE DUP5 AND PUSH1 0x20 DUP3 ADD MSTORE PUSH1 0x40 DUP2 ADD DUP4 SWAP1 MSTORE PUSH1 0x80 PUSH1 0x60 DUP3 ADD DUP2 SWAP1 MSTORE PUSH0 SWAP1 PUSH2 0x4BE2 SWAP1 DUP4 ADD DUP5 PUSH2 0x4EB7 JUMP JUMPDEST PUSH0 PUSH1 0x20 DUP3 DUP5 SUB SLT ISZERO PUSH2 0x5E18 JUMPI PUSH0 DUP1 REVERT JUMPDEST DUP2 MLOAD PUSH2 0x1212 DUP2 PUSH2 0x4E65 JUMP JUMPDEST PUSH0 DUP4 MLOAD PUSH2 0x5E34 DUP2 DUP5 PUSH1 0x20 DUP9 ADD PUSH2 0x4E95 JUMP JUMPDEST DUP4 MLOAD SWAP1 DUP4 ADD SWAP1 PUSH2 0x5E48 DUP2 DUP4 PUSH1 0x20 DUP9 ADD PUSH2 0x4E95 JUMP JUMPDEST ADD SWAP5 SWAP4 POP POP POP POP JUMP JUMPDEST PUSH1 0x20 DUP2 MSTORE DUP2 MLOAD PUSH1 0x20 DUP3 ADD MSTORE PUSH1 0x20 DUP3 ADD MLOAD PUSH1 0x40 DUP3 ADD MSTORE PUSH2 0xFFFF PUSH1 0x40 DUP4 ADD MLOAD AND PUSH1 0x60 DUP3 ADD MSTORE PUSH0 PUSH1 0x60 DUP4 ADD MLOAD PUSH4 0xFFFFFFFF DUP1 DUP3 AND PUSH1 0x80 DUP6 ADD MSTORE DUP1 PUSH1 0x80 DUP7 ADD MLOAD AND PUSH1 0xA0 DUP6 ADD MSTORE POP POP PUSH1 0xA0 DUP4 ADD MLOAD PUSH1 0xC0 DUP1 DUP5 ADD MSTORE PUSH2 0x38EB PUSH1 0xE0 DUP5 ADD DUP3 PUSH2 0x4EB7 JUMP JUMPDEST PUSH0 DUP3 MLOAD PUSH2 0x5EBE DUP2 DUP5 PUSH1 0x20 DUP8 ADD PUSH2 0x4E95 JUMP JUMPDEST SWAP2 SWAP1 SWAP2 ADD SWAP3 SWAP2 POP POP JUMP JUMPDEST PUSH4 0x4E487B71 PUSH1 0xE0 SHL PUSH0 MSTORE PUSH1 0x31 PUSH1 0x4 MSTORE PUSH1 0x24 PUSH0 REVERT INVALID PUSH5 0x5E03970549 STOP DUP9 0xDA 0xAD DUP10 0xBA 0xE2 POP 0x49 LOG3 0x4F 0x4A SWAP1 PUSH19 0xD398537B1AB2425F24CBED0080BB2B638CC20B 0xC4 0xD0 0xA6 0xD PUSH7 0x940F3AB4A00C1D PUSH28 0x313497CA82FB0B4AB0079300360894A13BA1A3210667C828492DB98D 0xCA RETURNDATACOPY KECCAK256 PUSH23 0xCC3735A920A3CA505D382BBCCD5ED15C6E187E77E9AEE8 DUP2 DUP5 0xC2 0x1F 0x4F 0x21 DUP3 0xAB PC 0x27 0xCB EXTCODESIZE PUSH31 0x7FBEDCD63F03300A2646970667358221220B5041BCA2B10F74A2FC30A7550 0xEA EQ 0x26 EXP PUSH25 0x4D5EB9F49344FF859109926CEC8A64736F6C63430008160033 "
		},
		"gasEstimates": {
			"creation": {
				"codeDepositCost": "4893200",
				"executionCost": "infinite",
				"totalCost": "infinite"
			},
			"external": {
				"BASIS_POINTS()": "305",
				"COORDINATOR()": "2460",
				"LifeCost()": "2450",
				"UPGRADE_INTERFACE_VERSION()": "infinite",
				"allSeasons(uint256)": "11047",
				"approve(address,uint256)": "infinite",
				"assignPoints(address,uint256)": "infinite",
				"balanceOf(address)": "infinite",
				"burn(uint256)": "infinite",
				"callbackGasLimit()": "2491",
				"changeKeyHash(bytes32)": "24665",
				"changeRequestConfirmations(uint16)": "26828",
				"changeSubsriberID(uint256)": "24621",
				"claimReward(uint256)": "infinite",
				"claimableRewards(address)": "2583",
				"classContract()": "2393",
				"completeMission(uint256)": "infinite",
				"currentSeason()": "2472",
				"endSeason(uint256)": "infinite",
				"energyCost()": "2428",
				"energyRegenAmount()": "2383",
				"energyRegenInterval()": "2472",
				"feeWallet()": "2391",
				"getAge(uint256)": "544",
				"getApproved(uint256)": "infinite",
				"getMintedTokenIds()": "infinite",
				"getMissionVRF(uint256)": "infinite",
				"getTokensByOwner(address)": "infinite",
				"initialize()": "infinite",
				"isApprovedForAll(address,address)": "infinite",
				"keyHash()": "2383",
				"lastRequestId()": "2470",
				"loyaltyPoint()": "2406",
				"marketplaceContract()": "2502",
				"mintCurrency()": "2392",
				"mintFee()": "2451",
				"mintNFT(uint256)": "infinite",
				"missionContract()": "2395",
				"name()": "infinite",
				"nextTokenId()": "2363",
				"nftTransfers()": "2481",
				"owner()": "2468",
				"ownerBurn(uint256)": "infinite",
				"ownerOf(uint256)": "infinite",
				"pause()": "infinite",
				"paused()": "infinite",
				"proxiableUUID()": "infinite",
				"rawFulfillRandomWords(uint256,uint256[])": "infinite",
				"renounceOwnership()": "infinite",
				"requestConfirmations()": "2478",
				"requestIds(uint256)": "4640",
				"rewardFee()": "2406",
				"rewardFeeWallet()": "2482",
				"s_requests(uint256)": "6922",
				"s_subscriptionId()": "2384",
				"safeTransferFrom(address,address,uint256)": "infinite",
				"safeTransferFrom(address,address,uint256,bytes)": "infinite",
				"seasonAddresses(uint256)": "4711",
				"seasonTotalPoints(uint256)": "2547",
				"setAddresses(address,address,address)": "infinite",
				"setApprovalForAll(address,bool)": "infinite",
				"setClassContract(address)": "26971",
				"setCoordinator(address)": "26969",
				"setCurrency(address)": "26956",
				"setCurrentSeason(uint256)": "24622",
				"setEnergyCost(uint256)": "24598",
				"setEnergyRegenParam(uint256,uint256)": "46843",
				"setFees(uint256,uint256)": "46757",
				"setGasLimit(uint32)": "26841",
				"setLifeCost(uint256)": "24665",
				"setLoyaltyPoint(uint256)": "24688",
				"setMarketplaceContract(address)": "26913",
				"setMissionContract(address)": "26880",
				"setNFTTransfers(bool)": "26889",
				"setVRFCost(uint256)": "24621",
				"setVRFNative(bool)": "26927",
				"supportsInterface(bytes4)": "infinite",
				"symbol()": "infinite",
				"tokenByIndex(uint256)": "infinite",
				"tokenOfOwnerByIndex(address,uint256)": "infinite",
				"tokenURI(uint256)": "infinite",
				"totalSeasonCount()": "2449",
				"totalSupply()": "2469",
				"transferFrom(address,address,uint256)": "infinite",
				"transferOwnership(address)": "28465",
				"unpause()": "infinite",
				"updateTokenURI(uint256,string)": "infinite",
				"upgradeToAndCall(address,bytes)": "infinite",
				"userPoints(address)": "2648",
				"vaultAddress()": "2437",
				"vrfCost()": "2448",
				"vrfNative()": "2416",
				"withdrawFundsERC20(address,uint256)": "infinite",
				"withdrawFundsNative(uint256)": "infinite"
			},
			"internal": {
				"_authorizeUpgrade(address)": "infinite",
				"_increaseBalance(address,uint128)": "infinite",
				"_update(address,uint256,address)": "infinite",
				"fulfillRandomWords(uint256,uint256[] memory)": "infinite",
				"getRandomNumber(uint32,uint256,uint256)": "infinite",
				"internalBurn(uint256)": "infinite",
				"requestRandomWords(uint32,uint256,uint256)": "infinite",
				"safeMint(address,string memory)": "infinite"
			}
		},
		"methodIdentifiers": {
			"BASIS_POINTS()": "e1f1c4a7",
			"COORDINATOR()": "3b2bcbf1",
			"LifeCost()": "b8e3effe",
			"UPGRADE_INTERFACE_VERSION()": "ad3cb1cc",
			"allSeasons(uint256)": "b30d92ba",
			"approve(address,uint256)": "095ea7b3",
			"assignPoints(address,uint256)": "c76d3a54",
			"balanceOf(address)": "70a08231",
			"burn(uint256)": "42966c68",
			"callbackGasLimit()": "24f74697",
			"changeKeyHash(bytes32)": "2f68f482",
			"changeRequestConfirmations(uint16)": "f50d390d",
			"changeSubsriberID(uint256)": "965a95c2",
			"claimReward(uint256)": "ae169a50",
			"claimableRewards(address)": "dc01f60d",
			"classContract()": "262e3ec3",
			"completeMission(uint256)": "19aae978",
			"currentSeason()": "bcb39621",
			"endSeason(uint256)": "5330d4f9",
			"energyCost()": "44af49c5",
			"energyRegenAmount()": "dd61b338",
			"energyRegenInterval()": "4b988c14",
			"feeWallet()": "f25f4b56",
			"getAge(uint256)": "0e37008a",
			"getApproved(uint256)": "081812fc",
			"getMintedTokenIds()": "84a4e7a7",
			"getMissionVRF(uint256)": "493b296b",
			"getTokensByOwner(address)": "40398d67",
			"initialize()": "8129fc1c",
			"isApprovedForAll(address,address)": "e985e9c5",
			"keyHash()": "61728f39",
			"lastRequestId()": "fc2a88c3",
			"loyaltyPoint()": "2d2f4e9d",
			"marketplaceContract()": "d1bb5cf1",
			"mintCurrency()": "c2d08583",
			"mintFee()": "13966db5",
			"mintNFT(uint256)": "92642744",
			"missionContract()": "0059be0d",
			"name()": "06fdde03",
			"nextTokenId()": "75794a3c",
			"nftTransfers()": "cf19d583",
			"owner()": "8da5cb5b",
			"ownerBurn(uint256)": "3a4b3664",
			"ownerOf(uint256)": "6352211e",
			"pause()": "8456cb59",
			"paused()": "5c975abb",
			"proxiableUUID()": "52d1902d",
			"rawFulfillRandomWords(uint256,uint256[])": "1fe543e3",
			"renounceOwnership()": "715018a6",
			"requestConfirmations()": "b0fb162f",
			"requestIds(uint256)": "8796ba8c",
			"rewardFee()": "8b424267",
			"rewardFeeWallet()": "85a7c8aa",
			"s_requests(uint256)": "a168fa89",
			"s_subscriptionId()": "8ac00021",
			"safeTransferFrom(address,address,uint256)": "42842e0e",
			"safeTransferFrom(address,address,uint256,bytes)": "b88d4fde",
			"seasonAddresses(uint256)": "ae0f79e5",
			"seasonTotalPoints(uint256)": "9797a563",
			"setAddresses(address,address,address)": "363bf964",
			"setApprovalForAll(address,bool)": "a22cb465",
			"setClassContract(address)": "08ec6c3c",
			"setCoordinator(address)": "8ea98117",
			"setCurrency(address)": "2f84c391",
			"setCurrentSeason(uint256)": "39e211c9",
			"setEnergyCost(uint256)": "a91c39a9",
			"setEnergyRegenParam(uint256,uint256)": "6f5e5e26",
			"setFees(uint256,uint256)": "0b78f9c0",
			"setGasLimit(uint32)": "52d84c62",
			"setLifeCost(uint256)": "9bb0543c",
			"setLoyaltyPoint(uint256)": "240f3610",
			"setMarketplaceContract(address)": "1102610e",
			"setMissionContract(address)": "610b68f3",
			"setNFTTransfers(bool)": "c9f26991",
			"setVRFCost(uint256)": "b476f889",
			"setVRFNative(bool)": "b1bb05a6",
			"supportsInterface(bytes4)": "01ffc9a7",
			"symbol()": "95d89b41",
			"tokenByIndex(uint256)": "4f6ccce7",
			"tokenOfOwnerByIndex(address,uint256)": "2f745c59",
			"tokenURI(uint256)": "c87b56dd",
			"totalSeasonCount()": "eb0d1623",
			"totalSupply()": "18160ddd",
			"transferFrom(address,address,uint256)": "23b872dd",
			"transferOwnership(address)": "f2fde38b",
			"unpause()": "3f4ba83a",
			"updateTokenURI(uint256,string)": "18e97fd1",
			"upgradeToAndCall(address,bytes)": "4f1ef286",
			"userPoints(address)": "f50ddbc7",
			"vaultAddress()": "430bf08a",
			"vrfCost()": "fa237aea",
			"vrfNative()": "2b5db089",
			"withdrawFundsERC20(address,uint256)": "b5789950",
			"withdrawFundsNative(uint256)": "ec263589"
		}
	},
	"abi": [
		{
			"inputs": [],
			"stateMutability": "nonpayable",
			"type": "constructor"
		},
		{
			"inputs": [
				{
					"internalType": "address",
					"name": "target",
					"type": "address"
				}
			],
			"name": "AddressEmptyCode",
			"type": "error"
		},
		{
			"inputs": [
				{
					"internalType": "address",
					"name": "target",
					"type": "address"
				}
			],
			"name": "AddressEmptyCode",
			"type": "error"
		},
		{
			"inputs": [
				{
					"internalType": "address",
					"name": "account",
					"type": "address"
				}
			],
			"name": "AddressInsufficientBalance",
			"type": "error"
		},
		{
			"inputs": [
				{
					"internalType": "address",
					"name": "implementation",
					"type": "address"
				}
			],
			"name": "ERC1967InvalidImplementation",
			"type": "error"
		},
		{
			"inputs": [],
			"name": "ERC1967NonPayable",
			"type": "error"
		},
		{
			"inputs": [],
			"name": "ERC721EnumerableForbiddenBatchMint",
			"type": "error"
		},
		{
			"inputs": [
				{
					"internalType": "address",
					"name": "sender",
					"type": "address"
				},
				{
					"internalType": "uint256",
					"name": "tokenId",
					"type": "uint256"
				},
				{
					"internalType": "address",
					"name": "owner",
					"type": "address"
				}
			],
			"name": "ERC721IncorrectOwner",
			"type": "error"
		},
		{
			"inputs": [
				{
					"internalType": "address",
					"name": "operator",
					"type": "address"
				},
				{
					"internalType": "uint256",
					"name": "tokenId",
					"type": "uint256"
				}
			],
			"name": "ERC721InsufficientApproval",
			"type": "error"
		},
		{
			"inputs": [
				{
					"internalType": "address",
					"name": "approver",
					"type": "address"
				}
			],
			"name": "ERC721InvalidApprover",
			"type": "error"
		},
		{
			"inputs": [
				{
					"internalType": "address",
					"name": "operator",
					"type": "address"
				}
			],
			"name": "ERC721InvalidOperator",
			"type": "error"
		},
		{
			"inputs": [
				{
					"internalType": "address",
					"name": "owner",
					"type": "address"
				}
			],
			"name": "ERC721InvalidOwner",
			"type": "error"
		},
		{
			"inputs": [
				{
					"internalType": "address",
					"name": "receiver",
					"type": "address"
				}
			],
			"name": "ERC721InvalidReceiver",
			"type": "error"
		},
		{
			"inputs": [
				{
					"internalType": "address",
					"name": "sender",
					"type": "address"
				}
			],
			"name": "ERC721InvalidSender",
			"type": "error"
		},
		{
			"inputs": [
				{
					"internalType": "uint256",
					"name": "tokenId",
					"type": "uint256"
				}
			],
			"name": "ERC721NonexistentToken",
			"type": "error"
		},
		{
			"inputs": [
				{
					"internalType": "address",
					"name": "owner",
					"type": "address"
				},
				{
					"internalType": "uint256",
					"name": "index",
					"type": "uint256"
				}
			],
			"name": "ERC721OutOfBoundsIndex",
			"type": "error"
		},
		{
			"inputs": [],
			"name": "EnforcedPause",
			"type": "error"
		},
		{
			"inputs": [],
			"name": "ExpectedPause",
			"type": "error"
		},
		{
			"inputs": [],
			"name": "FailedCall",
			"type": "error"
		},
		{
			"inputs": [],
			"name": "FailedInnerCall",
			"type": "error"
		},
		{
			"inputs": [],
			"name": "InvalidInitialization",
			"type": "error"
		},
		{
			"inputs": [],
			"name": "NotInitializing",
			"type": "error"
		},
		{
			"inputs": [
				{
					"internalType": "address",
					"name": "owner",
					"type": "address"
				}
			],
			"name": "OwnableInvalidOwner",
			"type": "error"
		},
		{
			"inputs": [
				{
					"internalType": "address",
					"name": "account",
					"type": "address"
				}
			],
			"name": "OwnableUnauthorizedAccount",
			"type": "error"
		},
		{
			"inputs": [
				{
					"internalType": "address",
					"name": "token",
					"type": "address"
				}
			],
			"name": "SafeERC20FailedOperation",
			"type": "error"
		},
		{
			"inputs": [],
			"name": "UUPSUnauthorizedCallContext",
			"type": "error"
		},
		{
			"inputs": [
				{
					"internalType": "bytes32",
					"name": "slot",
					"type": "bytes32"
				}
			],
			"name": "UUPSUnsupportedProxiableUUID",
			"type": "error"
		},
		{
			"anonymous": false,
			"inputs": [
				{
					"indexed": true,
					"internalType": "address",
					"name": "owner",
					"type": "address"
				},
				{
					"indexed": true,
					"internalType": "address",
					"name": "approved",
					"type": "address"
				},
				{
					"indexed": true,
					"internalType": "uint256",
					"name": "tokenId",
					"type": "uint256"
				}
			],
			"name": "Approval",
			"type": "event"
		},
		{
			"anonymous": false,
			"inputs": [
				{
					"indexed": true,
					"internalType": "address",
					"name": "owner",
					"type": "address"
				},
				{
					"indexed": true,
					"internalType": "address",
					"name": "operator",
					"type": "address"
				},
				{
					"indexed": false,
					"internalType": "bool",
					"name": "approved",
					"type": "bool"
				}
			],
			"name": "ApprovalForAll",
			"type": "event"
		},
		{
			"anonymous": false,
			"inputs": [
				{
					"indexed": false,
					"internalType": "uint256",
					"name": "_fromTokenId",
					"type": "uint256"
				},
				{
					"indexed": false,
					"internalType": "uint256",
					"name": "_toTokenId",
					"type": "uint256"
				}
			],
			"name": "BatchMetadataUpdate",
			"type": "event"
		},
		{
			"anonymous": false,
			"inputs": [
				{
					"indexed": false,
					"internalType": "address",
					"name": "owner",
					"type": "address"
				}
			],
			"name": "ContractInitialized",
			"type": "event"
		},
		{
			"anonymous": false,
			"inputs": [
				{
					"indexed": false,
					"internalType": "uint64",
					"name": "version",
					"type": "uint64"
				}
			],
			"name": "Initialized",
			"type": "event"
		},
		{
			"anonymous": false,
			"inputs": [
				{
					"indexed": false,
					"internalType": "uint256",
					"name": "_tokenId",
					"type": "uint256"
				}
			],
			"name": "MetadataUpdate",
			"type": "event"
		},
		{
			"anonymous": false,
			"inputs": [
				{
					"indexed": true,
					"internalType": "address",
					"name": "previousOwner",
					"type": "address"
				},
				{
					"indexed": true,
					"internalType": "address",
					"name": "newOwner",
					"type": "address"
				}
			],
			"name": "OwnershipTransferred",
			"type": "event"
		},
		{
			"anonymous": false,
			"inputs": [
				{
					"indexed": false,
					"internalType": "address",
					"name": "account",
					"type": "address"
				}
			],
			"name": "Paused",
			"type": "event"
		},
		{
			"anonymous": false,
			"inputs": [
				{
					"indexed": false,
					"internalType": "uint256",
					"name": "requestId",
					"type": "uint256"
				},
				{
					"indexed": false,
					"internalType": "uint256[]",
					"name": "randomWords",
					"type": "uint256[]"
				}
			],
			"name": "RequestFulfilled",
			"type": "event"
		},
		{
			"anonymous": false,
			"inputs": [
				{
					"indexed": false,
					"internalType": "uint256",
					"name": "requestId",
					"type": "uint256"
				},
				{
					"indexed": false,
					"internalType": "uint32",
					"name": "numWords",
					"type": "uint32"
				}
			],
			"name": "RequestSent",
			"type": "event"
		},
		{
			"anonymous": false,
			"inputs": [
				{
					"indexed": true,
					"internalType": "address",
					"name": "from",
					"type": "address"
				},
				{
					"indexed": true,
					"internalType": "address",
					"name": "to",
					"type": "address"
				},
				{
					"indexed": true,
					"internalType": "uint256",
					"name": "tokenId",
					"type": "uint256"
				}
			],
			"name": "Transfer",
			"type": "event"
		},
		{
			"anonymous": false,
			"inputs": [
				{
					"indexed": false,
					"internalType": "address",
					"name": "account",
					"type": "address"
				}
			],
			"name": "Unpaused",
			"type": "event"
		},
		{
			"anonymous": false,
			"inputs": [
				{
					"indexed": true,
					"internalType": "address",
					"name": "implementation",
					"type": "address"
				}
			],
			"name": "Upgraded",
			"type": "event"
		},
		{
			"inputs": [],
			"name": "BASIS_POINTS",
			"outputs": [
				{
					"internalType": "uint256",
					"name": "",
					"type": "uint256"
				}
			],
			"stateMutability": "view",
			"type": "function"
		},
		{
			"inputs": [],
			"name": "COORDINATOR",
			"outputs": [
				{
					"internalType": "contract IVRFCoordinatorV2Plus",
					"name": "",
					"type": "address"
				}
			],
			"stateMutability": "view",
			"type": "function"
		},
		{
			"inputs": [],
			"name": "LifeCost",
			"outputs": [
				{
					"internalType": "uint256",
					"name": "",
					"type": "uint256"
				}
			],
			"stateMutability": "view",
			"type": "function"
		},
		{
			"inputs": [],
			"name": "UPGRADE_INTERFACE_VERSION",
			"outputs": [
				{
					"internalType": "string",
					"name": "",
					"type": "string"
				}
			],
			"stateMutability": "view",
			"type": "function"
		},
		{
			"inputs": [
				{
					"internalType": "uint256",
					"name": "",
					"type": "uint256"
				}
			],
			"name": "allSeasons",
			"outputs": [
				{
					"internalType": "uint256",
					"name": "seasonId",
					"type": "uint256"
				},
				{
					"internalType": "uint256",
					"name": "endDate",
					"type": "uint256"
				},
				{
					"internalType": "uint256",
					"name": "totalRewards",
					"type": "uint256"
				},
				{
					"internalType": "uint256",
					"name": "totalPoints",
					"type": "uint256"
				},
				{
					"internalType": "uint256",
					"name": "totalAddresses",
					"type": "uint256"
				}
			],
			"stateMutability": "view",
			"type": "function"
		},
		{
			"inputs": [
				{
					"internalType": "address",
					"name": "to",
					"type": "address"
				},
				{
					"internalType": "uint256",
					"name": "tokenId",
					"type": "uint256"
				}
			],
			"name": "approve",
			"outputs": [],
			"stateMutability": "nonpayable",
			"type": "function"
		},
		{
			"inputs": [
				{
					"internalType": "address",
					"name": "_user",
					"type": "address"
				},
				{
					"internalType": "uint256",
					"name": "_points",
					"type": "uint256"
				}
			],
			"name": "assignPoints",
			"outputs": [],
			"stateMutability": "nonpayable",
			"type": "function"
		},
		{
			"inputs": [
				{
					"internalType": "address",
					"name": "owner",
					"type": "address"
				}
			],
			"name": "balanceOf",
			"outputs": [
				{
					"internalType": "uint256",
					"name": "",
					"type": "uint256"
				}
			],
			"stateMutability": "view",
			"type": "function"
		},
		{
			"inputs": [
				{
					"internalType": "uint256",
					"name": "tokenId",
					"type": "uint256"
				}
			],
			"name": "burn",
			"outputs": [],
			"stateMutability": "nonpayable",
			"type": "function"
		},
		{
			"inputs": [],
			"name": "callbackGasLimit",
			"outputs": [
				{
					"internalType": "uint32",
					"name": "",
					"type": "uint32"
				}
			],
			"stateMutability": "view",
			"type": "function"
		},
		{
			"inputs": [
				{
					"internalType": "bytes32",
					"name": "_keyhash",
					"type": "bytes32"
				}
			],
			"name": "changeKeyHash",
			"outputs": [],
			"stateMutability": "nonpayable",
			"type": "function"
		},
		{
			"inputs": [
				{
					"internalType": "uint16",
					"name": "_requestConfirmations",
					"type": "uint16"
				}
			],
			"name": "changeRequestConfirmations",
			"outputs": [],
			"stateMutability": "nonpayable",
			"type": "function"
		},
		{
			"inputs": [
				{
					"internalType": "uint256",
					"name": "_id",
					"type": "uint256"
				}
			],
			"name": "changeSubsriberID",
			"outputs": [],
			"stateMutability": "nonpayable",
			"type": "function"
		},
		{
			"inputs": [
				{
					"internalType": "uint256",
					"name": "_amount",
					"type": "uint256"
				}
			],
			"name": "claimReward",
			"outputs": [],
			"stateMutability": "nonpayable",
			"type": "function"
		},
		{
			"inputs": [
				{
					"internalType": "address",
					"name": "",
					"type": "address"
				}
			],
			"name": "claimableRewards",
			"outputs": [
				{
					"internalType": "uint256",
					"name": "",
					"type": "uint256"
				}
			],
			"stateMutability": "view",
			"type": "function"
		},
		{
			"inputs": [],
			"name": "classContract",
			"outputs": [
				{
					"internalType": "address",
					"name": "",
					"type": "address"
				}
			],
			"stateMutability": "view",
			"type": "function"
		},
		{
			"inputs": [
				{
					"internalType": "uint256",
					"name": "_tokenId",
					"type": "uint256"
				}
			],
			"name": "completeMission",
			"outputs": [],
			"stateMutability": "nonpayable",
			"type": "function"
		},
		{
			"inputs": [],
			"name": "currentSeason",
			"outputs": [
				{
					"internalType": "uint256",
					"name": "",
					"type": "uint256"
				}
			],
			"stateMutability": "view",
			"type": "function"
		},
		{
			"inputs": [
				{
					"internalType": "uint256",
					"name": "_totalRewards",
					"type": "uint256"
				}
			],
			"name": "endSeason",
			"outputs": [],
			"stateMutability": "nonpayable",
			"type": "function"
		},
		{
			"inputs": [],
			"name": "energyCost",
			"outputs": [
				{
					"internalType": "uint256",
					"name": "",
					"type": "uint256"
				}
			],
			"stateMutability": "view",
			"type": "function"
		},
		{
			"inputs": [],
			"name": "energyRegenAmount",
			"outputs": [
				{
					"internalType": "uint256",
					"name": "",
					"type": "uint256"
				}
			],
			"stateMutability": "view",
			"type": "function"
		},
		{
			"inputs": [],
			"name": "energyRegenInterval",
			"outputs": [
				{
					"internalType": "uint256",
					"name": "",
					"type": "uint256"
				}
			],
			"stateMutability": "view",
			"type": "function"
		},
		{
			"inputs": [],
			"name": "feeWallet",
			"outputs": [
				{
					"internalType": "address",
					"name": "",
					"type": "address"
				}
			],
			"stateMutability": "view",
			"type": "function"
		},
		{
			"inputs": [
				{
					"internalType": "uint256",
					"name": "_mintTimestamp",
					"type": "uint256"
				}
			],
			"name": "getAge",
			"outputs": [
				{
					"internalType": "uint256",
					"name": "_age",
					"type": "uint256"
				}
			],
			"stateMutability": "view",
			"type": "function"
		},
		{
			"inputs": [
				{
					"internalType": "uint256",
					"name": "tokenId",
					"type": "uint256"
				}
			],
			"name": "getApproved",
			"outputs": [
				{
					"internalType": "address",
					"name": "",
					"type": "address"
				}
			],
			"stateMutability": "view",
			"type": "function"
		},
		{
			"inputs": [],
			"name": "getMintedTokenIds",
			"outputs": [
				{
					"internalType": "uint256[]",
					"name": "tokenIds",
					"type": "uint256[]"
				}
			],
			"stateMutability": "view",
			"type": "function"
		},
		{
			"inputs": [
				{
					"internalType": "uint256",
					"name": "_tokenId",
					"type": "uint256"
				}
			],
			"name": "getMissionVRF",
			"outputs": [],
			"stateMutability": "payable",
			"type": "function"
		},
		{
			"inputs": [
				{
					"internalType": "address",
					"name": "wallet",
					"type": "address"
				}
			],
			"name": "getTokensByOwner",
			"outputs": [
				{
					"internalType": "uint256",
					"name": "count",
					"type": "uint256"
				},
				{
					"internalType": "uint256[]",
					"name": "tokenIds",
					"type": "uint256[]"
				}
			],
			"stateMutability": "view",
			"type": "function"
		},
		{
			"inputs": [],
			"name": "initialize",
			"outputs": [],
			"stateMutability": "nonpayable",
			"type": "function"
		},
		{
			"inputs": [
				{
					"internalType": "address",
					"name": "owner",
					"type": "address"
				},
				{
					"internalType": "address",
					"name": "operator",
					"type": "address"
				}
			],
			"name": "isApprovedForAll",
			"outputs": [
				{
					"internalType": "bool",
					"name": "",
					"type": "bool"
				}
			],
			"stateMutability": "view",
			"type": "function"
		},
		{
			"inputs": [],
			"name": "keyHash",
			"outputs": [
				{
					"internalType": "bytes32",
					"name": "",
					"type": "bytes32"
				}
			],
			"stateMutability": "view",
			"type": "function"
		},
		{
			"inputs": [],
			"name": "lastRequestId",
			"outputs": [
				{
					"internalType": "uint256",
					"name": "",
					"type": "uint256"
				}
			],
			"stateMutability": "view",
			"type": "function"
		},
		{
			"inputs": [],
			"name": "loyaltyPoint",
			"outputs": [
				{
					"internalType": "uint256",
					"name": "",
					"type": "uint256"
				}
			],
			"stateMutability": "view",
			"type": "function"
		},
		{
			"inputs": [],
			"name": "marketplaceContract",
			"outputs": [
				{
					"internalType": "address",
					"name": "",
					"type": "address"
				}
			],
			"stateMutability": "view",
			"type": "function"
		},
		{
			"inputs": [],
			"name": "mintCurrency",
			"outputs": [
				{
					"internalType": "contract IERC20Extended",
					"name": "",
					"type": "address"
				}
			],
			"stateMutability": "view",
			"type": "function"
		},
		{
			"inputs": [],
			"name": "mintFee",
			"outputs": [
				{
					"internalType": "uint256",
					"name": "",
					"type": "uint256"
				}
			],
			"stateMutability": "view",
			"type": "function"
		},
		{
			"inputs": [
				{
					"internalType": "uint256",
					"name": "_classId",
					"type": "uint256"
				}
			],
			"name": "mintNFT",
			"outputs": [],
			"stateMutability": "nonpayable",
			"type": "function"
		},
		{
			"inputs": [],
			"name": "missionContract",
			"outputs": [
				{
					"internalType": "address",
					"name": "",
					"type": "address"
				}
			],
			"stateMutability": "view",
			"type": "function"
		},
		{
			"inputs": [],
			"name": "name",
			"outputs": [
				{
					"internalType": "string",
					"name": "",
					"type": "string"
				}
			],
			"stateMutability": "view",
			"type": "function"
		},
		{
			"inputs": [],
			"name": "nextTokenId",
			"outputs": [
				{
					"internalType": "uint256",
					"name": "",
					"type": "uint256"
				}
			],
			"stateMutability": "view",
			"type": "function"
		},
		{
			"inputs": [],
			"name": "nftTransfers",
			"outputs": [
				{
					"internalType": "bool",
					"name": "",
					"type": "bool"
				}
			],
			"stateMutability": "view",
			"type": "function"
		},
		{
			"inputs": [],
			"name": "owner",
			"outputs": [
				{
					"internalType": "address",
					"name": "",
					"type": "address"
				}
			],
			"stateMutability": "view",
			"type": "function"
		},
		{
			"inputs": [
				{
					"internalType": "uint256",
					"name": "_tokenId",
					"type": "uint256"
				}
			],
			"name": "ownerBurn",
			"outputs": [],
			"stateMutability": "nonpayable",
			"type": "function"
		},
		{
			"inputs": [
				{
					"internalType": "uint256",
					"name": "tokenId",
					"type": "uint256"
				}
			],
			"name": "ownerOf",
			"outputs": [
				{
					"internalType": "address",
					"name": "",
					"type": "address"
				}
			],
			"stateMutability": "view",
			"type": "function"
		},
		{
			"inputs": [],
			"name": "pause",
			"outputs": [],
			"stateMutability": "nonpayable",
			"type": "function"
		},
		{
			"inputs": [],
			"name": "paused",
			"outputs": [
				{
					"internalType": "bool",
					"name": "",
					"type": "bool"
				}
			],
			"stateMutability": "view",
			"type": "function"
		},
		{
			"inputs": [],
			"name": "proxiableUUID",
			"outputs": [
				{
					"internalType": "bytes32",
					"name": "",
					"type": "bytes32"
				}
			],
			"stateMutability": "view",
			"type": "function"
		},
		{
			"inputs": [
				{
					"internalType": "uint256",
					"name": "requestId",
					"type": "uint256"
				},
				{
					"internalType": "uint256[]",
					"name": "randomWords",
					"type": "uint256[]"
				}
			],
			"name": "rawFulfillRandomWords",
			"outputs": [],
			"stateMutability": "nonpayable",
			"type": "function"
		},
		{
			"inputs": [],
			"name": "renounceOwnership",
			"outputs": [],
			"stateMutability": "nonpayable",
			"type": "function"
		},
		{
			"inputs": [],
			"name": "requestConfirmations",
			"outputs": [
				{
					"internalType": "uint16",
					"name": "",
					"type": "uint16"
				}
			],
			"stateMutability": "view",
			"type": "function"
		},
		{
			"inputs": [
				{
					"internalType": "uint256",
					"name": "",
					"type": "uint256"
				}
			],
			"name": "requestIds",
			"outputs": [
				{
					"internalType": "uint256",
					"name": "",
					"type": "uint256"
				}
			],
			"stateMutability": "view",
			"type": "function"
		},
		{
			"inputs": [],
			"name": "rewardFee",
			"outputs": [
				{
					"internalType": "uint256",
					"name": "",
					"type": "uint256"
				}
			],
			"stateMutability": "view",
			"type": "function"
		},
		{
			"inputs": [],
			"name": "rewardFeeWallet",
			"outputs": [
				{
					"internalType": "address",
					"name": "",
					"type": "address"
				}
			],
			"stateMutability": "view",
			"type": "function"
		},
		{
			"inputs": [
				{
					"internalType": "uint256",
					"name": "",
					"type": "uint256"
				}
			],
			"name": "s_requests",
			"outputs": [
				{
					"internalType": "bool",
					"name": "fulfilled",
					"type": "bool"
				},
				{
					"internalType": "bool",
					"name": "exists",
					"type": "bool"
				},
				{
					"internalType": "uint256",
					"name": "tokenId",
					"type": "uint256"
				},
				{
					"internalType": "uint256",
					"name": "vrfType",
					"type": "uint256"
				}
			],
			"stateMutability": "view",
			"type": "function"
		},
		{
			"inputs": [],
			"name": "s_subscriptionId",
			"outputs": [
				{
					"internalType": "uint256",
					"name": "",
					"type": "uint256"
				}
			],
			"stateMutability": "view",
			"type": "function"
		},
		{
			"inputs": [
				{
					"internalType": "address",
					"name": "from",
					"type": "address"
				},
				{
					"internalType": "address",
					"name": "to",
					"type": "address"
				},
				{
					"internalType": "uint256",
					"name": "tokenId",
					"type": "uint256"
				}
			],
			"name": "safeTransferFrom",
			"outputs": [],
			"stateMutability": "nonpayable",
			"type": "function"
		},
		{
			"inputs": [
				{
					"internalType": "address",
					"name": "from",
					"type": "address"
				},
				{
					"internalType": "address",
					"name": "to",
					"type": "address"
				},
				{
					"internalType": "uint256",
					"name": "tokenId",
					"type": "uint256"
				},
				{
					"internalType": "bytes",
					"name": "data",
					"type": "bytes"
				}
			],
			"name": "safeTransferFrom",
			"outputs": [],
			"stateMutability": "nonpayable",
			"type": "function"
		},
		{
			"inputs": [
				{
					"internalType": "uint256",
					"name": "",
					"type": "uint256"
				}
			],
			"name": "seasonAddresses",
			"outputs": [
				{
					"internalType": "address",
					"name": "",
					"type": "address"
				}
			],
			"stateMutability": "view",
			"type": "function"
		},
		{
			"inputs": [
				{
					"internalType": "uint256",
					"name": "",
					"type": "uint256"
				}
			],
			"name": "seasonTotalPoints",
			"outputs": [
				{
					"internalType": "uint256",
					"name": "",
					"type": "uint256"
				}
			],
			"stateMutability": "view",
			"type": "function"
		},
		{
			"inputs": [
				{
					"internalType": "address",
					"name": "_vaultAddress",
					"type": "address"
				},
				{
					"internalType": "address",
					"name": "_feeWallet",
					"type": "address"
				},
				{
					"internalType": "address",
					"name": "_rewardFeeWallet",
					"type": "address"
				}
			],
			"name": "setAddresses",
			"outputs": [],
			"stateMutability": "nonpayable",
			"type": "function"
		},
		{
			"inputs": [
				{
					"internalType": "address",
					"name": "operator",
					"type": "address"
				},
				{
					"internalType": "bool",
					"name": "approved",
					"type": "bool"
				}
			],
			"name": "setApprovalForAll",
			"outputs": [],
			"stateMutability": "nonpayable",
			"type": "function"
		},
		{
			"inputs": [
				{
					"internalType": "address",
					"name": "_class",
					"type": "address"
				}
			],
			"name": "setClassContract",
			"outputs": [],
			"stateMutability": "nonpayable",
			"type": "function"
		},
		{
			"inputs": [
				{
					"internalType": "address",
					"name": "_address",
					"type": "address"
				}
			],
			"name": "setCoordinator",
			"outputs": [],
			"stateMutability": "nonpayable",
			"type": "function"
		},
		{
			"inputs": [
				{
					"internalType": "address",
					"name": "_mintCurrency",
					"type": "address"
				}
			],
			"name": "setCurrency",
			"outputs": [],
			"stateMutability": "nonpayable",
			"type": "function"
		},
		{
			"inputs": [
				{
					"internalType": "uint256",
					"name": "_season",
					"type": "uint256"
				}
			],
			"name": "setCurrentSeason",
			"outputs": [],
			"stateMutability": "nonpayable",
			"type": "function"
		},
		{
			"inputs": [
				{
					"internalType": "uint256",
					"name": "_cost",
					"type": "uint256"
				}
			],
			"name": "setEnergyCost",
			"outputs": [],
			"stateMutability": "nonpayable",
			"type": "function"
		},
		{
			"inputs": [
				{
					"internalType": "uint256",
					"name": "_energyRegenInterval",
					"type": "uint256"
				},
				{
					"internalType": "uint256",
					"name": "_energyRegenAmount",
					"type": "uint256"
				}
			],
			"name": "setEnergyRegenParam",
			"outputs": [],
			"stateMutability": "nonpayable",
			"type": "function"
		},
		{
			"inputs": [
				{
					"internalType": "uint256",
					"name": "_mintFee",
					"type": "uint256"
				},
				{
					"internalType": "uint256",
					"name": "_rewardFee",
					"type": "uint256"
				}
			],
			"name": "setFees",
			"outputs": [],
			"stateMutability": "nonpayable",
			"type": "function"
		},
		{
			"inputs": [
				{
					"internalType": "uint32",
					"name": "gas",
					"type": "uint32"
				}
			],
			"name": "setGasLimit",
			"outputs": [],
			"stateMutability": "nonpayable",
			"type": "function"
		},
		{
			"inputs": [
				{
					"internalType": "uint256",
					"name": "_lifeCost",
					"type": "uint256"
				}
			],
			"name": "setLifeCost",
			"outputs": [],
			"stateMutability": "nonpayable",
			"type": "function"
		},
		{
			"inputs": [
				{
					"internalType": "uint256",
					"name": "_loyaltyPoint",
					"type": "uint256"
				}
			],
			"name": "setLoyaltyPoint",
			"outputs": [],
			"stateMutability": "nonpayable",
			"type": "function"
		},
		{
			"inputs": [
				{
					"internalType": "address",
					"name": "_market",
					"type": "address"
				}
			],
			"name": "setMarketplaceContract",
			"outputs": [],
			"stateMutability": "nonpayable",
			"type": "function"
		},
		{
			"inputs": [
				{
					"internalType": "address",
					"name": "_mission",
					"type": "address"
				}
			],
			"name": "setMissionContract",
			"outputs": [],
			"stateMutability": "nonpayable",
			"type": "function"
		},
		{
			"inputs": [
				{
					"internalType": "bool",
					"name": "_status",
					"type": "bool"
				}
			],
			"name": "setNFTTransfers",
			"outputs": [],
			"stateMutability": "nonpayable",
			"type": "function"
		},
		{
			"inputs": [
				{
					"internalType": "uint256",
					"name": "_vrfCost",
					"type": "uint256"
				}
			],
			"name": "setVRFCost",
			"outputs": [],
			"stateMutability": "nonpayable",
			"type": "function"
		},
		{
			"inputs": [
				{
					"internalType": "bool",
					"name": "_status",
					"type": "bool"
				}
			],
			"name": "setVRFNative",
			"outputs": [],
			"stateMutability": "nonpayable",
			"type": "function"
		},
		{
			"inputs": [
				{
					"internalType": "bytes4",
					"name": "interfaceId",
					"type": "bytes4"
				}
			],
			"name": "supportsInterface",
			"outputs": [
				{
					"internalType": "bool",
					"name": "",
					"type": "bool"
				}
			],
			"stateMutability": "view",
			"type": "function"
		},
		{
			"inputs": [],
			"name": "symbol",
			"outputs": [
				{
					"internalType": "string",
					"name": "",
					"type": "string"
				}
			],
			"stateMutability": "view",
			"type": "function"
		},
		{
			"inputs": [
				{
					"internalType": "uint256",
					"name": "index",
					"type": "uint256"
				}
			],
			"name": "tokenByIndex",
			"outputs": [
				{
					"internalType": "uint256",
					"name": "",
					"type": "uint256"
				}
			],
			"stateMutability": "view",
			"type": "function"
		},
		{
			"inputs": [
				{
					"internalType": "address",
					"name": "owner",
					"type": "address"
				},
				{
					"internalType": "uint256",
					"name": "index",
					"type": "uint256"
				}
			],
			"name": "tokenOfOwnerByIndex",
			"outputs": [
				{
					"internalType": "uint256",
					"name": "",
					"type": "uint256"
				}
			],
			"stateMutability": "view",
			"type": "function"
		},
		{
			"inputs": [
				{
					"internalType": "uint256",
					"name": "tokenId",
					"type": "uint256"
				}
			],
			"name": "tokenURI",
			"outputs": [
				{
					"internalType": "string",
					"name": "",
					"type": "string"
				}
			],
			"stateMutability": "view",
			"type": "function"
		},
		{
			"inputs": [],
			"name": "totalSeasonCount",
			"outputs": [
				{
					"internalType": "uint256",
					"name": "",
					"type": "uint256"
				}
			],
			"stateMutability": "view",
			"type": "function"
		},
		{
			"inputs": [],
			"name": "totalSupply",
			"outputs": [
				{
					"internalType": "uint256",
					"name": "",
					"type": "uint256"
				}
			],
			"stateMutability": "view",
			"type": "function"
		},
		{
			"inputs": [
				{
					"internalType": "address",
					"name": "from",
					"type": "address"
				},
				{
					"internalType": "address",
					"name": "to",
					"type": "address"
				},
				{
					"internalType": "uint256",
					"name": "tokenId",
					"type": "uint256"
				}
			],
			"name": "transferFrom",
			"outputs": [],
			"stateMutability": "nonpayable",
			"type": "function"
		},
		{
			"inputs": [
				{
					"internalType": "address",
					"name": "newOwner",
					"type": "address"
				}
			],
			"name": "transferOwnership",
			"outputs": [],
			"stateMutability": "nonpayable",
			"type": "function"
		},
		{
			"inputs": [],
			"name": "unpause",
			"outputs": [],
			"stateMutability": "nonpayable",
			"type": "function"
		},
		{
			"inputs": [
				{
					"internalType": "uint256",
					"name": "tokenId",
					"type": "uint256"
				},
				{
					"internalType": "string",
					"name": "newURI",
					"type": "string"
				}
			],
			"name": "updateTokenURI",
			"outputs": [],
			"stateMutability": "nonpayable",
			"type": "function"
		},
		{
			"inputs": [
				{
					"internalType": "address",
					"name": "newImplementation",
					"type": "address"
				},
				{
					"internalType": "bytes",
					"name": "data",
					"type": "bytes"
				}
			],
			"name": "upgradeToAndCall",
			"outputs": [],
			"stateMutability": "payable",
			"type": "function"
		},
		{
			"inputs": [
				{
					"internalType": "address",
					"name": "",
					"type": "address"
				}
			],
			"name": "userPoints",
			"outputs": [
				{
					"internalType": "uint256",
					"name": "",
					"type": "uint256"
				}
			],
			"stateMutability": "view",
			"type": "function"
		},
		{
			"inputs": [],
			"name": "vaultAddress",
			"outputs": [
				{
					"internalType": "address",
					"name": "",
					"type": "address"
				}
			],
			"stateMutability": "view",
			"type": "function"
		},
		{
			"inputs": [],
			"name": "vrfCost",
			"outputs": [
				{
					"internalType": "uint256",
					"name": "",
					"type": "uint256"
				}
			],
			"stateMutability": "view",
			"type": "function"
		},
		{
			"inputs": [],
			"name": "vrfNative",
			"outputs": [
				{
					"internalType": "bool",
					"name": "",
					"type": "bool"
				}
			],
			"stateMutability": "view",
			"type": "function"
		},
		{
			"inputs": [
				{
					"internalType": "address",
					"name": "erc20",
					"type": "address"
				},
				{
					"internalType": "uint256",
					"name": "amount",
					"type": "uint256"
				}
			],
			"name": "withdrawFundsERC20",
			"outputs": [],
			"stateMutability": "nonpayable",
			"type": "function"
		},
		{
			"inputs": [
				{
					"internalType": "uint256",
					"name": "amount",
					"type": "uint256"
				}
			],
			"name": "withdrawFundsNative",
			"outputs": [],
			"stateMutability": "nonpayable",
			"type": "function"
		},
		{
			"stateMutability": "payable",
			"type": "receive"
		}
	]
}